:040000006F00105D20
:10000400000000000000000090000020EE08002026
:10001400A9BDF9F5900000200000000000000000D8
:10002400900000209000002000000000000000006C
:10003400900000200000000090000020000000005C
:1000440090000020920000209000002090000020EA
:10005400900000209000002090000020000000008C
:1000640090000020900000209000002090000020CC
:1000740090000020900000209000002090000020BC
:1000840090000020900000209000002090000020AC
:1000940001A0B717004013070002239EE70873006E
:1000A40020304111B7170040985F3AC6945F324739
:1000B400E39CE6FE324541018280411181460146BE
:1000C4008145114506C6EF00B019B7270040114716
:1000D4002383E780B7F700E003A707D16D9B23A82C
:1000E400E7D003A707D15D9B23A8E7D07300501086
:1000F40001000100B24041018280011181460146A4
:100104008145114506CEEF00B015B72700401147D1
:100114002383E780B717004083C6E70203C5E704DB
:100124001307800893F6C60F1365350093E616008F
:10013400733607801376860832C00F1000009305CB
:1001440070052380B704130680FA2380C7040F10B8
:1001540000002382070223800704024873280880D2
:100164000F100000733807801378880842C20F10FC
:1001740000002380B7042380C7040F1000002387E6
:10018400D7022387A704238007049246F3A6068098
:100194000F100000F336078093F6860836C40F105C
:1001A40000002380B7042380C7040F10000083C617
:1001B400B70493E60602A385D70423800704A24666
:1001C400F3A606800F100000B7F600E003A506D1E1
:1001D4001365450023A8A6D003A506D15D9923A8DD
:1001E400A6D0730050100100010073370780137705
:1001F40087083AC60F1000002380B7042380C70481
:100204000F10000003C7B7041377F70DA385E704A5
:1002140023800704B247F3A707800F100000F240C1
:10022400056182805D71B7F50700A2C481462A8406
:100234001018E105194586C6A6C2CAC002D8231AF9
:10024400010202DC231E0102EF009001B7170040F7
:1002540083C6E7041307800893E6360073360780E5
:100264001376860832C40F100000930570052380AE
:10027400B704130680FA2380C7040F1000002382FA
:100284000702238007042245732505800F10000010
:1002940073350780137585082AC60F100000238064
:1002A400B7042380C7040F1000002387D7042380DA
:1002B4000704B246F3A606800F100000F336078049
:1002C40093F6860836C80F1000002380B7042380F5
:1002D400C7040F10000003D50702F176FD16E98E5E
:1002E4002390D70223800704C246F3A606800F108A
:1002F400000037F500E0832605D193E64600232865
:10030400D5D083D607026575110593F60660C18EB4
:10031400C98EC206C18273350780137585082ACA3F
:100324000F1000002380B7042380C7040F100000BF
:1003340003C5F70013650504A387A7002390D7021C
:1003440023800704D246F3A606800F1000009166AE
:10035400758C1DE873370780137787083ACC0F1024
:1003640000002380B7042380C7040F10000003C7D4
:10037400B70413670702A385E70423800704E24751
:10038400F3A707800F10000037F700E0832707D199
:10039400DD9B2328F7D07300501001000100B7F54E
:1003A400070081463018E10519455D2D6257C25793
:1003B4006305F70E6810971000E0E780C00CB717CC
:1003C400004003C9E70083C41703E1391307A500FC
:1003D400B707C0A81379F90F93F4F40F63F6E70095
:1003E4003707405729072A9793068008F3B70680F2
:1003F40093F787083ECE0F100000B717004013058F
:1004040070052380A704930580FA2380B7040F1096
:10041400000021462387C70013060002A388C702F1
:10042400D8DB238007047247732707800F1000006E
:1004340037F700E0032607D1136686022328C7D0C6
:10044400032607D1136686002328C7D073005010F3
:10045400032607D1136686002328C7D073005010E3
:10046400F3B6068093F6860836D00F10000023807A
:10047400A7042380B7040F10000023872701A38853
:100484009702238007048257F3A707800F10000008
:100494003255971000E0E780000113078008F33716
:1004A400078093F787083ED20F100000B71700406B
:1004B400930570052380B704130680FA2380C704CC
:1004C4000F10000083D60702C606C5822390D70208
:1004D400238007049256F3A606800F100000F3361B
:1004E400078093F6860836D40F1000002380B704E3
:1004F4002380C7040F10000003D50702F176FD1610
:10050400E98E2390D70223800704A256F3A606801F
:100514000F1000000DEC73370780137787083AD665
:100524000F1000002380B7042380C7040F100000BD
:1005340003C7B7041377F70DA385E70423800704E3
:10054400B257F3A707800F10000051450D21B640A4
:1005540026449644064961618280397152D48146A9
:100564002A8A01468145114522DC26DA06DE4AD86C
:100574004ED637140040ED218347E4020347E404D8
:100584009304800893F7C70F1367370093E71700A6
:10059400F3B6048093F6860836C60F10000093095C
:1005A400700523003405130980FA230024050F1075
:1005B40000002302040223000404B246F3A60680CA
:1005C4000F100000F3B6048093F6860836C80F10A7
:1005D400000023003405230024050F100000230726
:1005E400F4022307E40423000404C247F3A70780AA
:1005F4000F10000013055002F928B7F700E003A715
:1006040007D11367470023A8E7D073B70480137793
:1006140087083ACA0F10000023003405230024057C
:100624000F1000000347F40013670704A307E40056
:10063400230004045247732707800F10000073B788
:100644000480137787083ACC0F1000002300340588
:10065400230024050F1000002167336AEA002310E9
:100664004403230004046247732707800F1000002B
:1006740003A707D15D9B23A8E7D0730050100100A6
:1006840001008146014681451145D92EF3B4048009
:1006940093F4840826CE0F100000230034052300B1
:1006A40024050F100000FD572316F4028347640449
:1006B40093E717002303F40423000404F247F3A789
:1006C40007800F100000F2506254D2544259B259BC
:1006D400225A21618280B7F707000111944B130756
:1006E4008008F337078093F787083EC20F10000095
:1006F400B71700401308700523800705930580FA97
:100704002380B7040F10000003C6B7041376F60D58
:10071400A385C704238007041246732606800F109E
:1007240000001376050255CEF336078093F686084B
:1007340036C40F100000238007052380B7040F1070
:100744000000B70614007D89558D88C7010001009B
:100754000100010023800704A246F3A606800F10BF
:10076400000073370780137787083AC60F1000001C
:10077400238007052380B7040F1000000F1000002A
:100784003727004093061005A303D780238007046E
:10079400B247F3A707800F10000093078008F3B750
:1007A400078093F787083ECE0F100000B71700406C
:1007B400130770052380E704130780FA2380E704F6
:1007C4000F10000003C7B70413670708A385E704E5
:1007D40023800704F247F3A707800F100000056188
:1007E40082801376050459C273360780137686080F
:1007F40032C80F100000238007052380B7040F10B0
:10080400000037061400130606047D89518D88C73D
:100814000100010001000100238007044246732601
:1008240006800F10000073370780137787083ACAD1
:100834000F100000238007052380B7040F10000069
:10084400A54793F6F60F639EF600B72700401307FB
:100854003005A383E780B717004023800704D247FD
:100864000DBFB727004013072005E5B7733707808E
:10087400137787083ACC0F100000238007052380E4
:10088400B7040F10000098471367070C98C723801C
:100894000704E247FDBD011181460146814511452A
:1008A40006CE7D2A93078008F3B7078093F787085D
:1008B4003EC60F100000B7170040130770052380D1
:1008C400E704130780FA2380E7040F10000003C72E
:1008D4006704136717002383E70423800704B247E0
:1008E400F3A707800F100000F240056182804111D8
:1008F4008146014681451145A52213078008F33737
:10090400078093F787083EC40F100000B717004014
:10091400130670052380C704930680FA2380D70446
:100924000F100000FD552396B70223800704A2454B
:10093400F3A505800F10000073370780137787082D
:100944003AC60F1000002380C7042380D7040F1079
:10095400000003C76704136717002383E704238099
:100964000704B247F3A707800F10000001A0BD479A
:100974003305F50201007D1575FD8280411122C405
:1009840026C206C6AA84014463179400B2402244D6
:1009940092444101828005041305803E4204C13F14
:1009A4004180DDB72303048015472303E48001005D
:1009B4002302A480828083076480E3CE07FE23039E
:1009C4000480828083076480E3CE07FE034544806D
:1009D400828083076480E3CE07FE2302A4808280A2
:1009E400411126C44AC24EC006C61377F50BAD4763
:1009F400AA892E8995446306F70019456537653F32
:100A04008D444E854537FD59FD1463983401B24039
:100A1400A244124982494101828013550901137588
:100A2400F50F453F2209CDB7011126CC06CEB704F8
:100A3400080051371545BD37713769372AC6A53FB8
:100A440032459377150089EB136515001375F50F7F
:100A5400F240E24405618280FD14E9FC0145CDBF0A
:100A6400397126DC4ADA4ED852D656D45AD25ED0E0
:100A740006DE62CE66CCB7E700E07D5783AA0700A6
:100A840022C603AA470023A0E71823A2E718B71732
:100A94000040130770052380E704130780FA2380BE
:100AA400E70483C74704930B75FFB684E20793FBFF
:100AB400FB0F8546AA892E8B328937240040E187B3
:100AC400015763FA76016308D500894613070002CB
:100AD4006313D5000157D98F93F7F70FB71C004064
:100AE4002382FC0411472303E4801305F00F5D3DCA
:100AF400094CD135636D7C11B7050700DA9537874A
:100B04000700795563F2E504B3879500636EF70235
:100B1400370B0800A94733EB65016399F90689E4AB
:100B24008144513D26850DA0DA850945553D0509C9
:100B34000345F9FFFD14050B693D81C49377FB0F51
:100B4400FDF7DD3569FD7D55B717004013077005C6
:100B54002380E704130780FA2380E70403C74704CC
:100B6400418B2382E704F250B7E700E023A057113A
:100B740023A24711E25432445259C259325AA25A5A
:100B8400125B825B724CE24C21618280A5476395C3
:100B9400F90685691309F00FB3069900B3742B01A4
:100BA400B6941349F9FFB3749900856B33796901DD
:100BB400416B9387F9FFB3F7270199E363FC340191
:100BC40093D94900C147E3E637FF99BF0569C16975
:100BD4007D19D9B71305800D6388690113050002D7
:100BE4006384790113051008CA85DD3B353D21DD99
:100BF4004E99B3843441D9B7DA852D45D533CA9497
:100C0400E30099F205097D3BA30FA9FED5BF9387A5
:100C1400F9FF93F7F70F6361FC0C83C71C041307F8
:100C24003008631FF70437070800636BEB04B3074E
:100C34009B00B706100063F5D704334BEB008947DC
:100C44006393F9068980D549E38C04ECDA85094578
:100C5400413B11090327C9FF91472320E48003077F
:100C64006480E34E07FE23033481FD17EDFBFD147E
:100C7400110B81C49377FB0FE9FF7D3371F5E1B567
:100C8400B717004003C75704B707080013770702D4
:100C940019E3B78707007955E378FBEA33079B002C
:100CA400E3FFE7F855B58547E382F9F2DA852D4588
:100CB400053B9389F4FFE38504E6293393F7390070
:100CC40091EB832604800327090093074900E39AE4
:100CD400E6E43E89CE84F1BFB5476396F900130577
:100CE400900BC93135BDB1471305B00AE38BF9FE4A
:100CF40099476391F904B7050800B365BB002D4516
:100D0400C53181448D4BA14975396396740183279C
:100D140004802320F9008504E39834FF83270480AA
:100D240013172B01635507002312F900D5BB2322A7
:100D3400F900FDB39D476399F90281451305B00499
:100D44004531BD442320090023220900FD599D3962
:100D540093F77400CA9703C70700FD14398D2380E5
:100D6400A700E39634FF6DBBA1476392F9046D3984
:100D74008144630D0B008D479304C0036308FB009B
:100D84009304000563048B01930440041375C507A1
:100D9400E30895D819453931393905452131268576
:100DA4000D3909453D314931E31C05D669BB9147ED
:100DB4006399F90013056006F536F53E13059009AD
:0C0DC4000DB7E38F09D4F154A9BB000067
:100DD000971100209381018617610020130181A2E1
:100DE0001305400097F5FF1F9385C52117060020C6
:100DF000130606FE63FAC5008322050023A05500F2
:100E000011059105E3EAC5FE17250000130545AA63
:100E1000970500209385C5FB1386818063FAC50082
:100E20008322050023A0550011059105E3EAC5FEC4
:100E300013858180938541816377B5002320050068
:100E40001105E36DB5FEFD42739002BC8D427390B7
:100E50004280930280087390023097F2FF1F9382C2
:100E6000621A93E23200739052309702000093822C
:100E7000A20D73901234730020303D432A876373B0
:100E8000C3029377F700BDEFADE5937606FF3D8A89
:100E9000BA960CC34CC30CC74CC74107E36BD7FED3
:100EA00011E28280B306C3408A069702000096963C
:100EB0006780A6002307B700A306B7002306B70084
:100EC000A305B7002305B700A304B7002304B700A8
:100ED000A303B7002303B700A302B7002302B700A0
:100EE000A301B7002301B700A300B7002300B70098
:100EF000828093F5F50F93968500D58D9396050125
:100F0000D58D61B79396270097020000969686824A
:100F1000E78086FA9680C1171D8F3E96E374C3F86A
:100F2000A5B7371700408327870A411106C693E704
:100F300007202324F70A8D4513050020D528B24049
:100F40004101F5AB41111305800406C697F0FF1F60
:100F5000E780A0780545652485457D55D1288545E0
:100F60007D55952A7D3FB717004083C51704172587
:100F7000000013052584ED2B1305800C970000203D
:100F8000E78000A08545130500025D208945130513
:100F90000002ED22B7E700E03707020023A0E710C8
:100FA0000546C1450545AD2E172500001305C58131
:100FB000F92D094597000020E780809C014597F0B6
:100FC000FF1FE780C0590545292817250000130594
:100FD0002581752D1305401F97000020E780409A5A
:100FE00001A0B717004003C7E7040D89411113772B
:100FF000C70F498F93068008F3B6068093F68608DC
:1010000036C60F100000930670052380D7049306A0
:1010100080FA2380D7040F1000002387E704238081
:101020000704B247F3A707800F1000004101828038
:10103000914763EEB702171700001307E77A8A0596
:10104000BA959C41BA978287B717004003A7470B10
:101050001345F5FF698F23AAE70A03A7070B698FDA
:1010600023A8E70A03A7070A798D23A0A70A82808D
:10107000B717004083A6470B1347F5FFF98E23AA45
:10108000D70A83A6070B558D23A8A70A83A6070AAC
:10109000758F23A0E70A8280B717004003A7470B8C
:1010A000498F23AAE70A03A7070B1345F5FF45BF9E
:1010B000B717004083A6470B1347F5FF758F23AA88
:1010C000E70A03A7070A598D4DB7B717004003A7D2
:1010D000470B498FEDB7914763EEB7021717000032
:1010E0001307C7718A05BA959C41BA978287B717CB
:1010F000004003A7470D1345F5FF698F23AAE70CAE
:1011000003A7070D698F23A8E70C03A7070C798DA8
:1011100023A0A70C8280B717004083A6470D134772
:10112000F5FFF98E23AAD70C83A6070D558D23A8AA
:10113000A70C83A6070C758F23A0E70C8280B71736
:10114000004003A7470D498F23AAE70C03A7070D0B
:101150001345F5FF45BFB717004083A6470D13475A
:10116000F5FF758F23AAE70C03A7070C598D4DB720
:10117000B717004003A7470D498FEDB79317050137
:101180000547C1836382E5048DC10947638DE5048A
:101190000D476380E50637170040231EF708835686
:1011A0000709D58F2318F7088280371700400356A8
:1011B000470993C6F7FFF18E231AD7088326C70A7B
:1011C000558D2326A70AC1BF37170040035647098C
:1011D00093C6F7FFF18E231AD7088326870A558D09
:1011E0002324A70A4DBF3717004083564709DD8ED9
:1011F000E1B73717004083564709DD8EE9BF7971A3
:1012000022D43714004026D24AD0035924028354F2
:10121000040206D64209C2044ECE52CC56CA135915
:101220000901C1802DE11379F9F793F4F49F420984
:10123000C20413590901C18093078008F3B70780DE
:1012400093F787083EC40F10000093077005230032
:10125000F404930780FA2300F4040F100000231114
:1012600024032310940223000404A247F3A7078059
:101270000F100000B250225492540259F249624AAF
:10128000D24A45618280B7F5070081463000B1053A
:10129000194597F0FF1FE780E07CA24713972701CD
:1012A000E34A07FC1369090893E4044093098008A2
:1012B000F3B7098093F787083EC00F100000930A28
:1012C000700523005405130A80FA230044050F100B
:1012D00000002311240323109402230004048247F6
:1012E000F3A707800F100000294597F0FF1FE78044
:1012F0004068F3B9098093F989084EC20F100000C5
:1013000023005405230044050F10000083570402F6
:1013100093E707202310F402230004049247B9B78F
:10132000411193F7250031ED81CB371700405C4B1D
:1013300093F5D50FF99B5CCB93078008F3B7078033
:1013400093F787083EC00F100000B717004013073F
:1013500070052380E704130780FA2380E7040F1049
:10136000000003C7E70093C5F5FFF98D2387B70099
:10137000238007048247F3A707800F100000410174
:1013800082807D163336C00089CB371700405C4B16
:1013900093F5D50F93E717005CCB13078008F3375D
:1013A000078093F787083EC20F100000B717004070
:1013B000130570052380A704930680FA2380D704C1
:1013C0000F10000003C8E700B3E5050193E505042D
:1013D0002387B700238007049245F3A505800F10EB
:1013E0000000F335078093F585082EC40F10000028
:1013F0002380A7042380D7040F10000083C5F700C3
:1014000093F5C50FA387B70023800704A245F3A572
:1014100005800F10000073370780137787083AC6DE
:101420000F1000002380A7042380D7040F100000B2
:1014300003C7F700598EA387C70023800704B2476C
:101440001DBFB717004088474205418193770504C7
:1014500091EB9377F5013755E80113050580334586
:10146000F50282809377050C130700046397E70069
:101470009377F50137459C1CCDB72165130505D041
:10148000828037E700E01C435443A183E206D58FF6
:101490001CC1FD572320F7182322F7180F10000056
:1014A000828013178500B7E700E023A0E710618171
:1014B00023A2A7108280814737370040A14663C42A
:1014C000C700328582800345B740E38EA6FE338590
:1014D000F5000345050085072304A740CDB797070E
:1014E0000020938727959C43138741813E95636E27
:1014F000E500175700201307E7106368A7001707D8
:1015000000202329A7923E858280FD57EDBF41111F
:1015100022C406C62A8435372947B307E502B240FC
:101520008D83B3D7870222449507B3D7E7023737B5
:101530000040C207C1832316F740410182807165D4
:1015400041111305052006C6D937B73700401307E8
:1015500070F82381E7400D47A381E740130700049B
:10156000A380E74005472387E740B24041018280DE
:1015700039713EDA2ED232D436D63AD842DC46DE43
:10158000970700209387478B22CC804326CA06CE3C
:10159000AA8409C41C4C99E3228535230C445410B9
:1015A0002686228536C6EF00F017F2406244D24408
:1015B00021618280011126CA4AC806CE22CC4EC6BD
:1015C00052C4AA842E8901C51C4D91E3ED299C4C7F
:1015D000804499E32685C5299717000093874725FE
:1015E000631CF402C0408357C400A18BB1C71C48E0
:1015F000A1C7FD59294A1C4483450900FD17B1E9DB
:101600001CC463DE07062286A94526854128FD57AE
:101610006308F502294535A09717000093874723F3
:101620006314F4008044C1B7971700009387471EE6
:10163000E31BF4FAC04445BFA2852685052255D98F
:101640007D55F2406244D2444249B249224A056182
:1016500082801CC4050963D70700184C63CBE700E0
:10166000638945011C401387170018C02380B70009
:1016700059B7228626851D20E31F35F7D1B71C40B8
:101680001387170018C029472380E70061B797F731
:10169000FF1F9387677AAA85884329BF011122CC4F
:1016A00026CA4AC806CE4EC6AA842E89328401C5EF
:1016B0001C4D91E309299717000093876717631959
:1016C000F406C0401C4C1CC48357C400A18BC9C382
:1016D0001C48BDCF1C4808409379F90F1379F90FC6
:1016E0001D8D5C486346F500A2852685752C2DE589
:1016F0001C440505FD171CC41C401387170018C0A7
:10170000238037015C486389A7008357C400858B19
:1017100081CBA9476316F900A285268571240DEDBA
:10172000F24062444A85D2444249B249056182800E
:10173000971700009387C7116314F400804459B7CA
:10174000971700009387C70CE31EF4F6C0449DBFB3
:10175000A285268521203DDD7D59D9B7411197F716
:10176000FF1F9387676D26C2844322C44AC006C602
:101770002A892E8489C49C4C99E32685A92697172B
:1017800000009387E70A631CF402C0400317C400FB
:1017900093170701C18393F68700B5EE93F607010F
:1017A0009DEEA5472320F900136707042316E400E4
:1017B0007D55B240224492440249410182809717EC
:1017C00000009387E7086314F4008044C1B79717BB
:1017D00000009387E703E31BF4FAC04445BF918BF5
:1017E0008DC74C5889C9930744046384F5004A8522
:1017F0009123232A04028357C4002322040093F771
:10180000B7FD2316F4001C481CC08357C40093E79F
:1018100087002316F4001C4881EF8357C400130788
:10182000002093F707286385E700A2854A85A52154
:101830008357C40013F7170005C75C48232404002E
:10184000B307F0401CCC1C480145A5F78317C40022
:1018500013F7070839DF93E707042316F40089BF5D
:10186000898B014791E3584818C4F1BF83D7C5005D
:10187000011122CC26CA06CE4AC84EC613F78700ED
:10188000AA842E8471EFD841634DE000B841634AC9
:10189000E0000145F2406244D2444249B249056148
:1018A000828058547DD703A904009396370123A062
:1018B000040063DD060670488357C400918B99C706
:1018C0005C401D8E5C5899C33C401D8E5C540C508E
:1018D000814626858297FD570357C400631DF50096
:1018E0009440F54763E8D706B70740208507B3D78C
:1018F000D700858BA5C31C48232204001CC0931766
:10190000370163D80700FD576314F5009C4091E34D
:1019100068C84C5823A02401ADDD930744046384B8
:10192000F50026850129232A0402A5B70C5001469B
:10193000854626850297FD572A86E31FF5F69C40CB
:10194000A5DF75476385E70059476394E70423A043
:10195000240181B7136707042316E4007D551DBFDA
:1019600083A90501E38709F203A905008D8B23A054
:10197000350133093941014791E3D84918C4E35A85
:1019800020F11C540C50CA864E86268582976349E6
:10199000A0008357C40093E707042316F4007DBF1B
:1019A000AA993309A940E1BF9C49B9CF011122CCC2
:1019B00006CE2A8411C51C4D81E72EC62922B245C8
:1019C000971700009387C7E6639BF5004C40839709
:1019D000C50095C722856244F240056141BD971755
:1019E00000009387E7E66394F5000C44CDB79717A2
:1019F00000009387E7E1E39CF5FC4C44C9BFF2404B
:101A0000624401450561828001458280411122C402
:101A100006C62A842316B5002317C5002320050017
:101A20002322050023240500232205062328050080
:101A3000232A0500232C0500214681451305C505F1
:101A4000EFF0AFC397170000938767B55CD0971787
:101A500000009387C7B71CD497170000938707BC73
:101A60005CD4971700009387C7BE00D01CD8B24043
:101A700022444101828097050000938525F389AABD
:101A8000411126C2130680069384F5FFB384C40275
:101A90004AC02E8922C406C693854407A1262A84FB
:101AA00001CD2320050023222501310508C413861A
:101AB00084068145EFF06FBC2285B24022449244F7
:101AC0000249410182801C4DBDE3411106C622C47A
:101AD00097070000938767FA1CD597170000938734
:101AE000E7DC9C432324050423260504232805045E
:101AF0006314F50085471CCD2A841D2848C0228523
:101B0000052808C422852D2048C448400146914537
:101B1000F53D08440546A545D53D48440946C94517
:101B2000F53585471CCCB240224441018280828039
:101B3000411197170000938767D726C284434AC094
:101B400006C69C4C22C42A8999E32685AD3F93841E
:101B500084048044DC40FD1763D607009C40B9CF65
:101B60008440C5BF0317C40039E7C1778507232226
:101B700004062320040023220400232404005CC460
:101B800023280400232A0400232C04002146814535
:101B90001305C405EFF06FAE232A0402232C0402C0
:101BA00023240404232604042285B24022449244C0
:101BB0000249410182801304840671BF91454A8520
:101BC000C13588C051FDB1472320F9000144E9BF68
:101BD000797122D44AD052CC56CA5AC85EC606D6AB
:101BE00026D24ECE2A8AAE8A130485040149054BBB
:101BF000FD5B09ECB25022544A8592540259F249D5
:101C0000624AD24A424BB24B4561828004448329E6
:101C10004400FD1963D409000040E1BF83D7C4002C
:101C2000637BFB008397E40063877701A685528579
:101C3000829A3369A90093848406E1BF1971A6DAF8
:101C4000AE848395E500A2DC86DE328463DC050089
:101C500083D7C40023A0060093F7070885E79307FE
:101C600000401DA0300836C6EF003024B246E341E4
:101C700005FE7247BD67F98F7977BA9793B717005A
:101C80009CC2F1BF930700041CC0F6506654D654A2
:101C900001450961828083D7C500011122CC06CE9F
:101CA00026CA4AC8898B2E8489CF930774041CC026
:101CB0001CC885475CC8F2406244D2444249056171
:101CC000828074003000AA84953FA2452A89268527
:101CD000112A01ED8317C40013F7072069FFF19B58
:101CE00093E727002316F400C9B7970700009387EE
:101CF000C7D89CD48357C40008C008C893E7070816
:101D00002316F400A2475CC8B24791CF8315E400C4
:101D10002685EF00301C01C98357C400F19B93E76F
:101D200017002316F4008357C4003369F900231603
:101D3000240151B7DDC583A7C5FF411122C406C6E2
:101D400026C21384C5FF63D307003E94AA84EF0024
:101D5000501F97F7FF1F9387670E9C4391EF232235
:101D6000040097F7FF1F23AB870C2244B24026855F
:101D7000924441016F00101D637EF400144033074C
:101D8000D4006396E7009843DC43369718C05CC0E4
:101D9000C9BFBA87D84319C3E37DE4FE94433386B1
:101DA000D700631F86001040B29694C33386D700D5
:101DB000E31DC7FA10435843B29694C3D8C375B70E
:101DC0006375C400B1479CC04DB71040B306C40052
:101DD0006316D70014435843B29614C058C0C0C30A
:101DE00069B78280011126CA93843500F19806CE26
:101DF00022CC4AC84EC6A104B14763F3F404B144EF
:101E000063E2B4042A89EF00D0139387818098435A
:101E10003A8439E09387C1809C4391E781454A85A4
:101E2000812F23A6A180A6854A859927FD5963198C
:101E30003507B1472320F9004A85EF00B01029A0EB
:101E4000E3D004FCB1471CC10145F2406244D244D6
:101E50004249B249056182801C40858F63CF0702E9
:101E6000AD4663F6F6001CC03E9404C031A05C4051
:101E70006313870223A4F1804A85EF00B00C130599
:101E8000B4009307440061993307F5405DDF3A944D
:101E9000898F1CC05DBF5CC3C5B72287404095BF1A
:101EA000130435007198E30285FCB305A4404A850C
:101EB000C125E31C35FBB5BF1C46FD171CC663DA04
:101EC0000700184E63C5E700A9476394F5006FF05B
:101ED000EFFC1C422E851387170018C22380B70021
:101EE0008280011122CC26CA4AC84EC652C406CEF0
:101EF0002A89AE893284B304D6007D5A63149400D3
:101F0000014509A8834504004E864A8575370504B6
:101F1000E31645FFF2406244D2444249B249224AA4
:101F200005618280357122CD26CB4AC94EC706CFC6
:101F300052C556C35AC1DEDEE2DCE6DAAA89AE84B7
:101F40003289368401C51C4D91E3B53E97170000D8
:101F50009387078E639BF40C83A4490083D7C40046
:101F6000A18BF5C79C48E5C793070002A304F102C3
:101F70009307000302D22305F10222C6930B5002FD
:101F8000971A0000938ACA8E054C294B4A848347CE
:101F9000040099C36390770FB30C2441638D0C0048
:101FA000E6864A86A6854E852D3FFD576306F51EBB
:101FB0009256E69636D283470400638F071CFD577E
:101FC0001309140002C802CE3ECA02CCA3090104C0
:101FD00082D48345090015465685B9271304190094
:101FE000C24759E913F7070109C713070002A309FC
:101FF000E10413F7870009C71307B002A309E1043E
:10200000834609001307A0026380E608F2474A846A
:10201000814625460347040093051400130707FD76
:102020006379E60AB5CA3ECE85A897170000938764
:1020300027826395F40083A489000DB797070000F9
:102040009387077DE39CF4F083A4C90001BFA685B4
:102050004E85EFF0AFF009D97D55FA406A44DA4475
:102060004A49BA492A4A9A4A0A4BF65B665CD65CE8
:102070000D618280050421BF330555413315AC0045
:10208000C98F3EC82289B1B732479306470018432B
:1020900036C6634907023ACE034704009307E002BD
:1020A000631FF704034714009307A002631BF702A2
:1020B000B2470904138747009C433AC663C107022D
:1020C0003ECA35A83307E04093E727003ACE3EC822
:1020D000E1B7B387670385462E84BA9725BFFD57BE
:1020E000C5B7050402CA8146814725460347040057
:1020F00093051400130707FD6376E606F1F28345A6
:1021000004000D461705000013050577312D11CD8C
:1021100097070000938747761D8D93070004B397B8
:10212000A700424505045D8D2AC883450400194671
:102130001705000013058574130914002304B10268
:10214000E5233DC197E7FFFF9387C7EB95E742473C
:10215000B2471377071009CF91073EC69257D2971F
:102160003ED22DB5B387670385462E84BA97BDBF8F
:102170009D07E19BA107D5B77800970600009386DD
:1021800086D626860C084E8597000000E7000000E2
:10219000FD572A8AE314F5FC83D7C40093F707049C
:1021A000E39C07EA125555BD780097060000938618
:1021B00086D326860C084E85012AD9BF797156CA66
:1021C0009C49BA8A984522D426D24ECE52CC06D605
:1021D0004AD05AC85EC6AA892E84B284368A63D38E
:1021E000E700BA879CC00347340419C385079CC025
:1021F0001C4093F7070281C79C4089079CC00329B4
:10220000040013796900631A0900130B9401FD5B44
:102210005C449840998F634CF9041C408346340415
:1022200093F70702B336D000A5EB13063404D2852A
:102230004E85829AFD576303F5041C401146984071
:10224000998B544481446397C700B384E64063D3B9
:10225000040081441C4418486354F700998FBE94CD
:10226000014969047D5B63982405014509A88546F9
:102270005A86D2854E85829A631E75017D55B2506D
:10228000225492540259F249624AD24A424BB24B0A
:10229000456182800509ADBF3307D40013060003F2
:1022A000A301C7040347540493871600A297890625
:1022B000A381E7049DBF85462286D2854E85829AFA
:1022C000E30E65FB050945B7797122D426D24AD0C1
:1022D0004ECE06D652CC56CA5AC8B68983C6850198
:1022E000930790063289AA842E8413863504638D61
:1022F000F60263E2D706930780056387F61863ED5D
:10230000D7006380062293073004638EF60A930A8F
:1023100024042301D404C9A0930730066385F60A78
:1023200093074006E395F6FE1C40084393F6070822
:1023300093054500C5C61C410CC363D807001307AD
:10234000D002B307F040A301E4049706000093868F
:10235000665329476DA8930700076383F61663E564
:10236000D7029307E006638AF6189307F006E39016
:10237000F6FA0C401C4313F8050813854700630761
:10238000080608C39C438DA893075007E383F6FE15
:1023900093078007638AF61293073007E399F6F6EE
:1023A0001C43D04181459386470014C383AA07008C
:1023B00056859D2E01C53305554148C05C401CC85B
:1023C000A301040471A81C43930A240493864700C4
:1023D0009C4314C32301F4048547D5B793F607043F
:1023E0001C410CC3B9DAC207C18781BF93F505044C
:1023F00008C3C9D983D707001307F0066387E60E21
:1024000097060000938606482947A30104044C4020
:102410000CC463C5050008406D9908C099E3B28AF1
:1024200091CDB28AB3F5E702FD1AB69583C50500D2
:102430002380BA00B3D5E70263FFE70AA147631E12
:10244000F7001C40858B91CB58401C4863C7E700C0
:1024500093070003A38FFAFEFD1A3306564110C8F6
:102460004E87CA867000A2852685893B7D5A631EE9
:10247000450B7D55B250225492540259F249624A9A
:10248000D24A424B45618280A382D5049706000060
:102490009386463F0C40084313F805081C4111057C
:1024A000630D080208C313F7150001C793E5050281
:1024B0000CC04147B9FB0C4093F5F5FD0CC0B1B71A
:1024C0009C4193E707029CC193078007A302F40491
:1024D000970600009386463C75BF13F8050408C3B1
:1024E000E30308FCC207C1837DBF97060000938603
:1024F0006639214719BFAE8735B794411C43CC4993
:1025000013F80608138547006306080008C39C43B8
:102510008CC301A808C393F606049C43F5DA239004
:10252000B70023280400B28A25BF14485686CA85FE
:1025300026858299E30F45F31C40898B8DE7B247CE
:102540004844E359F5F23E8535B785465686CA8537
:1025500026858299E30F65F1050A5C443247998F1D
:10256000E345FAFEE9BF014A930A94017D5BF5B7A2
:10257000411122C42A842E8523A8018006C6EFE0DB
:102580001FF6FD576317F500938701819C4391C3A4
:102590001CC0B240224441018280411122C42E84D9
:1025A0008395E50006C64522634905007C48AA9745
:1025B0007CC8B2402244410182808357C4007D77A9
:1025C0007D17F98F2316F400EDB783D7C5000111ED
:1025D00022CC26CA4AC84EC606CE93F70710AA8454
:1025E0002E843289B68991C78395E50089460146D4
:1025F00031228357C4007D777D17F98F2316F400AD
:102600008315E4006244F240CE864A86B2494249CC
:102610002685D24405613DA8411122C42E848395AC
:10262000E50006C6E128FD570357C400631BF5000B
:10263000FD77FD17F98F2316F400B24022444101C3
:1026400082808567D98F2316F40068C8FDB783950B
:10265000E50005A8411122C42A842E85B28536865C
:1026600023A8018006C6EFE01FE5FD576317F500BC
:10267000938701819C4391C31CC0B2402244410115
:102680008280411122C42A842E8523A8018006C697
:10269000CD20FD576317F500938701819C4391C3BB
:1026A0001CC0B240224441018280411122C42A84CC
:1026B0002E85B28523A8018006C6D120FD57631759
:1026C000F500938701819C4391C31CC0B240224412
:1026D00041018280411122C42A842E8523A80180D1
:1026E00006C66520FD576317F500938701819C435B
:1026F00091C31CC0B240224441018280411122C4D6
:102700002A842E85B285368623A8018006C66120DC
:10271000FD576317F500938701819C4391C31CC04B
:10272000B24022444101828093F5F50F2A9663144A
:10273000C5000145828083470500E38DB7FE05058E
:10274000FDB782808280411122C42A842E85B28501
:10275000368623A8018006C6A920FD576317F50019
:10276000938701819C4391C31CC0B2402244410124
:1027700082809307800523A8F1807D55828093078E
:10278000800523A8F1807D5582809307800523A8CA
:10279000F180014582809307800523A8F1807D5553
:1027A00082809307800523A8F1807D5582800000F8
:1027B000537461727420404368697049443D253008
:1027C00032780A007368757420646F776E206D6FBD
:1027D000646520736C6565702000000077616B652F
:1027E0002E2E200064E8FFFF8CE8FFFFB4E8FFFF17
:1027F000CCE8FFFFE6E8FFFFF6E8FFFF1EE9FFFF7A
:1028000046E9FFFF5EE9FFFF78E9FFFF00000000F7
:1028100000000000000000000000000000000000B8
:1028200000000000000000000000000000000000A8
:102830000000000000000000000000000000000098
:102840000000000000000000000000000000000088
:102850000000000000000000000000000000000078
:10286000000000000000000000000000232D302BBD
:1028700020000000686C4C00656667454647000014
:1028800030313233343536373839414243444546A6
:102890000000000030313233343536373839616268
:0C28A0006364656600000000CC0D0020A1
:1028AC00000000002C2800004C2800000C28000020
:1028BC00000000000000000000000000000000000C
:1028CC0000000000000000000000000000000000FC
:1028DC0000000000000000000000000000000000EC
:1028EC0000000000000000000000000000000000DC
:1028FC0000000000000000000000000000000000CC
:0C290C0000000000440E0020CC0D002054
:00000001FF
