:040000006F20000667
:10000400000000000000000090000020AA02002070
:10001400A9BDF9F560030020000000000000000005
:100024006003002090000020000000000000000099
:10003400900000200000000090000020000000005C
:1000440090000020900000209000002090000020EC
:10005400900000200C080020900000200000000008
:1000640090000020900000209000002090000020CC
:10007400C603002090000020900000209000002083
:1000840090000020900000209000002090000020AC
:1000940001A0B7F707000111944B13078008F33749
:1000A400078093F787083EC20F100000B71700407F
:1000B4001308700523800705930580FA2380B7048D
:1000C4000F10000003C6B7041376F60DA385C7040A
:1000D400238007041246732606800F10000013764F
:1000E400050255CEF336078093F6860836C40F1002
:1000F4000000238007052380B7040F100000B70613
:1001040014007D89558D88C701000100010001009C
:1001140023800704A246F3A606800F10000073375D
:100124000780137787083AC60F100000238007055D
:100134002380B7040F1000000F1000003727004081
:1001440093061005A303D78023800704B247F3A7BF
:1001540007800F10000093078008F3B7078093F718
:1001640087083ECE0F100000B71700401307700534
:100174002380E704130780FA2380E7040F100000AC
:1001840003C7B70413670708A385E704238007049C
:10019400F247F3A707800F100000056182801376F1
:1001A400050459C2733607801376860832C80F10C7
:1001B4000000238007052380B7040F1000003706D2
:1001C4001400130606047D89518D88C701000100BF
:1001D40001000100238007044246732606800F10A5
:1001E400000073370780137787083ACA0F1000009E
:1001F400238007052380B7040F100000A54793F65A
:10020400F60F639EF600B727004013073005A3835B
:10021400E780B717004023800704D2470DBFB727F4
:10022400004013072005E5B7733707801377870865
:100234003ACC0F100000238007052380B7040F1069
:10024400000098471367070C98C723800704E24708
:10025400FDBD0111814601468145114506CE91241B
:1002640093078008F3B7078093F787083EC60F10FB
:100274000000B7170040130770052380E704130735
:1002840080FA2380E7040F10000003C76704136794
:1002940017002383E70423800704B247F3A70780EA
:1002A4000F100000F2400561828041118146014631
:1002B40081451145FD2213078008F337078093F722
:1002C40087083EC40F100000B717004013067005DE
:1002D4002380C704930680FA2380D7040F100000FC
:1002E400FD552396B70223800704A245F3A5058094
:1002F4000F10000073370780137787083AC60F1072
:1003040000002380C7042380D7040F10000003C714
:100314006704136717002383E70423800704B247A5
:10032400F3A707800F10000001A0BD473305F502B5
:1003340001007D1575FD8280411122C426C206C6C6
:10034400AA84014463179400B240224492444101B8
:10035400828005041305803E4204C13F4180DDB71D
:100364009305000273A04580824573901534924032
:100374002242B2424243D2436244F244025592556D
:100384002256B2564257D2576258F25806499649F5
:10039400264AB64A464BD64B664CF64C065D965DED
:1003A400265EB65E465FD65F096173002030411158
:1003B400B7170040985F3AC6945F3247E39CE6FE65
:1003C400324541018280B717004013070003238898
:1003D400E702854723A0F18A73002030411106C645
:1003E400EF008079F5BF2303048015472303E480DD
:1003F40001002302A480828083076480E3CE07FE89
:1004040023030480828083076480E3CE07FE0345D0
:100414004480828083076480E3CE07FE2302A480A5
:100424008280411126C44AC24EC006C61377F50B1A
:10043400AD47AA892E8995446306F70019456537A7
:10044400653F8D444E854537FD59FD14639834014D
:10045400B240A244124982494101828013550901E4
:100464001375F50F453F2209CDB7011126CC06CEF1
:10047400B704080051371545BD37713769372AC6A7
:10048400A53F32459377150089EB13651500137565
:10049400F50FF240E24405618280FD14E9FC014558
:1004A400CDBF397126DC4ADA4ED852D656D45AD248
:1004B4005ED006DE62CE66CCB7E700E07D5783AA45
:1004C400070022C603AA470023A0E71823A2E718BF
:1004D400B7170040130770052380E704130780FA59
:1004E4002380E70483C74704930B75FFB684E207B0
:1004F40093FBFB0F8546AA892E8B32893724004053
:10050400E187015763FA76016308D500894613072A
:1005140000026313D5000157D98F93F7F70FB71C67
:1005240000402382FC0411472303E4801305F00FE9
:100534005D3D094CD135636D7C11B7050700DA9533
:1005440037870700795563F2E504B3879500636E36
:10055400F702370B0800A94733EB65016399F906E5
:1005640089E48144513D26850DA0DA850945553D30
:1005740005090345F9FFFD14050B693D81C4937713
:10058400FB0FFDF7DD3569FD7D55B71700401307F7
:1005940070052380E704130780FA2380E70403C768
:1005A4004704418B2382E704F250B7E700E023A01D
:1005B400571123A24711E25432445259C259325AB4
:1005C400A25A125B825B724CE24C21618280A54785
:1005D4006395F90685691309F00FB3069900B3749E
:1005E4002B01B6941349F9FFB3749900856B3379E1
:1005F4006901416B9387F9FFB3F7270199E363FC22
:10060400340193D94900C147E3E637FF99BF05692F
:10061400C1697D19D9B71305800D63886901130574
:1006240000026384790113051008CA85DD3B353D5A
:1006340021DD4E99B3843441D9B7DA852D45D533BC
:10064400CA94E30099F205097D3BA30FA9FED5BF27
:100654009387F9FF93F7F70F6361FC0C83C71C04BE
:1006640013073008631FF70437070800636BEB04B4
:10067400B3079B00B706100063F5D704334BEB00B8
:1006840089476393F9068980D549E38C04ECDA85BC
:100694000945413B11090327C9FF91472320E48001
:1006A40003076480E34E07FE23033481FD17EDFB4B
:1006B400FD14110B81C49377FB0FE9FF7D3371F5B2
:1006C400E1B5B717004003C75704B707080013770D
:1006D400070219E3B78707007955E378FBEA330784
:1006E4009B00E3FFE7F855B58547E382F9F2DA8525
:1006F4002D45053B9389F4FFE38504E6293393F7FD
:10070400390091EB832604800327090093074900ED
:10071400E39AE6E43E89CE84F1BFB5476396F900D7
:100724001305900BC93135BDB1471305B00AE38BEE
:10073400F9FE99476391F904B7050800B365BB0056
:100744002D45C53181448D4BA1497539639674019A
:10075400832704802320F9008504E39834FF83274A
:10076400048013172B01635507002312F900D5BB2E
:100774002322F900FDB39D476399F90281451305CE
:10078400B0044531BD442320090023220900FD594A
:100794009D3993F77400CA9703C70700FD14398D78
:1007A4002380A700E39634FF6DBBA1476392F9044D
:1007B4006D398144630D0B008D479304C0036308B6
:1007C400FB009304000563048B0193044004137538
:1007D400C507E30895D8194539313939054521311B
:1007E40026850D3909453D314931E31C05D669BBE0
:1007F40091476399F90013056006F536F53E130534
:1008040090090DB7E38F09D4F154A9BB197106C23D
:1008140012C416C61AC81ECA22CC26CE2AD02ED27C
:1008240032D436D63AD83EDA42DC46DECAC0CEC22C
:10083400D2C4D6C6DAC8DECAE2CCE6CEEAD0EED25C
:10084400F2D4F6D6FAD8FEDA938581898841E70096
:10085400050092402242B2424243D2436244F244EF
:10086400025592552256B2564257D2576258F25800
:1008740006499649264AB64A464BD64B664CF64C30
:10088400065D965D265EB65E465FD65F09617300BF
:100894002030B7E700E09843B706200023A0D7181C
:1008A400758F0F10000001C599C1814711E6B7E7A4
:1008B40000E023A0E7108280B386F50003C8060099
:1008C400B306F500850723800601E317F6FEC5B7D6
:1008D40037E700E01C43B70620002320D718F58F24
:1008E4000F10000019C191C111E637E700E0232081
:1008F400F7108280910503A7C5FF11057D16232EED
:10090400E5FEDDB737E700E01C43B70620002320EF
:10091400D718F58F0F10000001C53307C50011E685
:1009240037E700E02320F71082800505A30FB5FE0A
:10093400E31DE5FEF5B781473307F500030707001C
:1009440019E33E8582808507C5BF37E700E01C4375
:10095400B70620002320D718F58F0F10000001C51B
:1009640099C1014711EA37E700E02320F710054554
:1009740082800507E309E6FE3308E500B386E50057
:100984000348080083C60600E305D8FE37E700E005
:100994002320F710014582809307F6FFBE952A961F
:1009A4006313C5008280FD1583C715000505A30FD9
:1009B400F5FEFDB7AA87014581CF09CE3E9685078E
:1009C40003C7F7FF6317B700E39BC7FE05458280A3
:1009D4008280014582807971973700009387075898
:1009E40022D4804306D626D24AD04ECE52CC56CA02
:1009F4005AC85EC669C037C9C901014B973900009E
:100A0400938949551309F937173A0000130A4A55CF
:100A1400973A0000938A4A4F97340000938404590C
:100A24008357240095E35C44631D0B0017370000D3
:100A34002326F752832BC4002285EF00B02F5E8457
:100A4400A9A82326FB00FDB783A7090082971C44AD
:100A54003307F5406375F500D8401D8F2A9763610D
:100A6400E9089737000023A9074A83552400034562
:100A74000400973000E0E780C0595C405844B9C78F
:100A84000C44D040AE97BE8663E4B70063E4C7006D
:100A9400B386C74014C4228B3A8459F097370000B8
:100AA400938787469C4B09476373F708F9171737F1
:100AB40000002323F746B250225492540259F249BB
:100AC400624AD24A424BB24B4561828063170B00A3
:100AD4009737000023A4E748B1BF2326EB0099BF52
:100AE40003274A021DCF63E1A7043385A740834748
:100AF400040085E3173700000347F7475917B30786
:100B0400A7003E85D44063E4E70063E4D70033855F
:100B1400D74083A70A016376F5009737000023AD19
:100B2400A73E228B404495BFD840BA977DBF9737E4
:100B3400000023A3073E41B79737000093878746F9
:100B44009C4385C3411106C682979737000083C72B
:100B5400474089E79737000023A60744B240410184
:100B640082809737000083C7C73E91E7973700001C
:100B740023AA074282808280411122C417340000D4
:100B84001304443B1C4006C626C24AC091C7829740
:100B94009737000023A0073A9737000083C7975A76
:100BA400858B173900001309A95989CF8347790028
:100BB40019476312F71097370000A3850758F923E4
:100BC4005C4482971C4491C38297973400009384B9
:100BD400A4389840173600000346163397370000B0
:100BE40083C7873293961700BA9683D60600E5C268
:100BF4009737000083C7473163E5C70E9737000076
:100C0400238407301C40639E0714973700009387A2
:100C140067349C4363870714973700009387073929
:100C2400DC43173700002329F72E7533973700006C
:100C340083C7B751639707129737000083C7D7500C
:100C440091CF8347790093F7F70F89EB973700002B
:100C5400A38C074E979001E0E78080F79737000058
:100C640093870730DC53638E070E97370000938712
:100C7400A7299C4BFDC78347790015476363F70E8B
:100C84009737000083C74751918BE1EF97370000F6
:100C940083C7272CF9E790409736000083C6D626F1
:100CA40063C7D70C2244B24092440249410117431E
:100CB40000E06700A397834779001D47E314F7F02A
:100CC40097370000A3800748D1211C48DDBD850764
:100CD40093F7F70F973600002388F622E3E0C7F076
:100CE40001BF86073E9783550700231007009737F7
:100CF4000000239F072497370000938767239C43B2
:100D0400173500000345452013172500BA979C4367
:100D140082979737000083D7A7231737000003472C
:100D2400A71E93C7F7FF7D8D9317170098403E9732
:100D3400835707005D8D2310A7009737000083C7F2
:100D4400A71C91C7850717370000230FF71A173719
:100D540000000347671B9737000083C7F71AE37F38
:100D6400F7E8B24022449244024941018280139739
:100D740017003297035707006DF7850715B737C774
:100D840000408326C720B707FCFFFD17F58F2326F5
:100D9400F72001000100973700009387E716C84F3A
:100DA400832787262326D7206A0593C7F7FF9983CD
:100DB4005D8D8280011122CC604126CA4AC84EC68C
:100DC40052C406CEAA841D4A130965058549BC444C
:100DD4006364F4000545B9A003C7D4008347440005
:100DE400631A470503C784026304F7000040C5B7CC
:100DF4000347540083C75405E31AF7FE1946CA850E
:100E0400130564009936E31335FF0347C40083C711
:100E14009402E31DF7FC0357E40083D7A402E3170D
:100E2400F7FC0145F2406244D2444249B249224AA5
:100E340005618280E31CF7FA0347540083C7540515
:100E4400E316F7FA1946CA8513056400FD3CE31F4F
:100E540035F9C1BF0111973700009387A73F22CC12
:100E640003A4070C26CA06CE2AC42EC6854419E458
:100E74000145F2406244D244056182808347910077
:100E840003471400858B6304F7000044CDB719466B
:100E94009305A100130524004D3CE31895FE054578
:100EA400C9BF0000EFF05FC973000000000000003C
:100EB400973200009382E209038302002380020038
:100EC400630F0300F32510342EC0970500009385AB
:100ED400A5FD73901534EF00E0507300203086DCDC
:100EE400EF004050E65082800000173700001307DF
:100EF400E7241443411122C49C5E4AC006C6998368
:100F040026C2858B3A84173900001309E922D1CB14
:100F1400930700069CDE173700000347C722930798
:100F24000008973400009384A421631BF7008327EF
:100F340009009C4393F70704173700002305F720A3
:100F440083C7040093F707049DC397370000938772
:100F540067009C4382979737000023A1A72083C78B
:100F6400040093F7F70B17370000230BF71C83C714
:100F7400440093F7070495E7854717370000A30358
:100F8400F71C973700009387271E9C4337070200FE
:100F940098C7130700FC973600002385E61A984883
:100FA400F8D318401C5F9183858B8DC31C5F93E736
:100FB40007011CDF973700009387071B9C4323A27C
:100FC4000706854717370000230EF7168327090005
:100FD400D8430583058B19C7D843759BD8C3D84319
:100FE400799BD8C3B2402244924402494101828091
:100FF400ED3D730020309317D50063D30702973774
:101004000000938767169C437D57B8D79737000035
:10101400938787EFDC4F8507173700002324F7F009
:10102400937785009DCB9737000083C7871193E79B
:101034001700173700002306F710930700F8173737
:1010440000002301F710973700009387270F984378
:101054005C57F19B93E717005CD7937715008DC716
:101064009737000083C7D70D93E7170017370000A1
:10107400A308F70C973700009387470C98435C57F5
:10108400F19B93E717005CD79377650095CB937733
:101094004500173700001307A70ACDCB8347070085
:1010A40093E7170017370000230CF7089737000061
:1010B4009387C70898435C57F19B93E717005CD765
:1010C4009317F50063D4070217370000034707207E
:1010D400418B973700009387E71751C383C787076E
:1010E40093E70702173700002302F71E9317E50062
:1010F40063D707029737000083C7C704E207E18775
:1011040063D70700854717370000230DF702973789
:101114000000938767059C433707020098C793171D
:10112400C50063D40702173700000347371A058B3D
:10113400973700009387071229C383C7970793E75C
:10114400270017370000A303F7188280834737006E
:1011540093E7170017370000A305F7FE81BF03C705
:10116400870789463D8B6308D70083C787070D47E8
:10117400BD8BE39DE7F69147B5B703C79707118B7E
:1011840069D783C7970793E7870065BF9737000040
:10119400938787FD944397370000938767FA03C7C3
:1011A4000700058B11CB97370000238D07F897377D
:1011B4000000A38907F8828003C71700058B65F731
:1011C400F85271FF83C75700DDB7173700001307C4
:1011D400E7F603280700832788039583858BADEF03
:1011E40011C683270803BD832300F6009DC61C4354
:1011F400985B4607935767016356070093E707C058
:10120400C207C18303970600C207C18709C7BA97FB
:101214000947B3C7E7022390F6008DCD8345150037
:1012240095C99737000083C707F293F7070413871C
:101234009500894585C33A95834705000547994537
:1012440093F6F7066398E600E207E187814563D3E6
:101254000700B9452E8582808545EDBF411122C422
:1012640006C626C217340000130404F045E11440F6
:101274002E87FC52FDFF97370000238407EC973735
:1012840000009387E7CDD453BE8495C6B7E700E04A
:10129400B706200023A0D728B7F700E083A607D11C
:1012A400ED9A23A8D7D083A607D193E6860323A873
:1012B400D7D0730050103A85B285978001E0E7805B
:1012C400807897370000938767E79C43B7068000D0
:1012D4009843558F98C3D857719BD8D79737000038
:1012E400A38207E697370000A38C07E41C40094754
:1012F40098C3DC5085CF37F700E0832707D193E705
:1013040087002328F7D0730050100DA08D47631574
:10131400F50497370000938767E29C43B706800083
:101324009843558F98C3D857719BD8D71440173713
:1013340000001307E7E083472700858B89EB834789
:101344003700858BC9CF97370000238D07DEB24065
:1013540022449244410182808547E319F5FC973782
:1013640000009387E7BFD4533E8795C6B7E700E0F4
:10137400B706200023A0D728B7F700E083A607D13B
:10138400ED9A23A8D7D083A607D193E6860323A892
:10139400D7D07300501014408177FD17D046F18FD9
:1013A400DCC60F1000001440B70702009CC6930768
:1013B40000F8973500002387F5D897370000938706
:1013C400E7D79C439C439D83858B99C793076019FA
:1013D400FCD2D0C65C5339BF9307E01BD5BFFC5287
:1013E400B9FBB5B797370000938707D89C43884764
:1013F400D847798D09C988C79387819403A30700C7
:101404006303030002838280973700009387C7D564
:1014140098438967938707F47CD3973700009387B1
:10142400E7D99C4383A60709139656006358060020
:1014340083A6070913966600634406007453FDF2FD
:1014440082804111B7E700E022C4804337072000BF
:1014540006C6798C23A0E7180F10000011C199E586
:10146400B7E700E023A0871001457DA89307350066
:10147400C207C183F19BC207C18313074003636999
:10148400F702173700001307A7DC084317370000DB
:10149400130787DB14436392A60217370000130770
:1014A40027AC185B55DFC207DD8D054502974DBF9C
:1014B40017370000130787D9C9BF035765002DEB01
:1014C400035745006366F706B306F7402146637C7D
:1014D400D60203280500938687001D8FAA966117FC
:1014E400173600000356A6A22392E60023A00601A5
:1014F4002393060014C12312F500130786FF9736C1
:1015040000002396E6A02313B5009735000083D589
:1015140005A0B387F54017370000231AF79EB7E7F5
:1015240000E023A087102105B240224441018280BB
:10153400084195B7B7E700E08C433707200023A0A4
:10154400E718F98D0F10000001E523A0B710828081
:10155400973700009387C7CF03A30700973700008E
:10156400938787CE83A8070081469A8763F2170D75
:1015740003A807006361F50C636FA80A138787004B
:101584006368E50A03D66700216705076317E60069
:1015940003C7019405072380E19417350000130560
:1015A400A59603D647000357650023930700329797
:1015B40042074183173E0000231BEE94638C6702AD
:1015C40017330000130383C8032303006304F302E7
:1015D40003D366006310030283D7460023A00601E9
:1015E40021073E9621062392C600973700002390D8
:1015F400E792B6879843630D1703973600009386E6
:10160400E6C494426306D7028356670095E283D604
:101614004700035647001843A106B2962392D70009
:1016240098C383576500A107173700002311F78E6D
:10163400B7E700E019BFBE86C2870DBF0327851137
:10164400630407120346E50485466300061241114C
:1016540022C406C68347C5002A8493F7C70F23060E
:10166400F500834597000358C700139585016185EC
:1016740063700609635905060345870093F5F5076A
:10168400A304B70093E527006314D50093E517007E
:101694002306B4005C4389075CC3A30AC400032582
:1016A40004114C430905EFF0CF9E832784110346B0
:1016B4005401D44303D7C700B296118FD4C32396E1
:1016C400E7008947A30DF40003476403973700003C
:1016D40083C7278A6377F7048347C40093E7070126
:1016E4002306F4003DA893E717002306F40075B71A
:1016F4001376F80F635D05020345870093E5270021
:101704006314D50093E517002306B400A30AC400AC
:10171400A30407008547A30DF400832784119C4389
:10172400C5F7B2402244814636854101828093E761
:1017340017002306F400A30AC400A304070003252A
:1017440004114C4342860905EFF0AF9483278411BA
:1017540003465401D44303D7C700B296118FD4C3B0
:101764002396E7008D4745BF8546368582809737A7
:1017740000009387E7C09C43411122C406C6858BB1
:101784002A84C5EF4165130525F5976002E0E780DB
:10179400A0B345C58347A5002315F500832704128C
:1017A400BDE72320A4122322A41285472311F404A5
:1017B400232005008347640154412316F5000347A1
:1017C400D4002304E5000547A304E500173700000F
:1017D4001307079758531385170215811C437D156A
:1017E4001375F50F9CC25C43DCC21C479CC65C4766
:1017F400DCC61C4B9CCA5C4BDCCA1C4F9CCE5C4FA9
:10180400DCCE19CD9386060213070702C1BF8327D6
:10181400441288C3835724042322A412850779B76A
:101824009737000083D787A385071737000023174E
:10183400F7A2B2402244410182808347C4002309B5
:101844000400054593C747002306F400DDB783472A
:10185400850193F7E70FD5EF83479501DDEB034649
:1018640025018346C50009CA83456503172700007F
:101874000347377063E7E50013F7060141CF0147DB
:1018840009C6C18A0357651C81C68356A51C3697B1
:1018940051C31307C712172500000355A571B335AB
:1018A400A70237460F00411113060624814622C4BD
:1018B40026C206C67D543305A70297A002E0E7803E
:1018C400208E9727000083C7176BB384A700973730
:1018D40000009387279803A787098327070963F3E1
:1018E40087003E84184375FB97270000938787661B
:1018F4009C43829781476364A400B307A440B24029
:101904002244B3B7970093C7170092443E85410120
:10191400828081473E858280973700009387C78401
:1019240098433C5BFDFF010001008280011122CC41
:101934004AC84EC606CE26CA52C456C25AC0034727
:10194400B50085472A842E89832905096311F72662
:1019540083570508835AC503172A0000130A0A652A
:10196400172B0000035B0B6563FB572183460501BE
:101974006397E62003278511631307200327450A8D
:10198400631F071E8346F5001D47639AE61E03473F
:101994001401B38AFA4013950A01418121CF937748
:1019A400170099CB8357E40583560404958F63D5B8
:1019B400A7001395070141819377270099CB83579B
:1019C400E41283560404958F63D5A7001395070189
:1019D40041819377070199CB8357C4148356040438
:1019E400958F63D5A700139507014181218B11E3DE
:1019F40011E105450357A4039307204E83244409AA
:101A04003305A70237460F00814613060624330523
:101A1400F5029727000083C70756B3549502B335E0
:101A2400AB02BE94C204C180231394083305AB02F5
:101A3400979002E0E780C076B307350133B5A7007D
:101A44002E953E8783264A0019E163E4D700338745
:101A5400D740B3846403B7460F009387F623938675
:101A640006242320E900A697B3D7D702D69763624A
:101A7400F7101D8F2320E900972900009389894DD1
:101A840083A7090083240900829763E5A4123385A0
:101A9400A4406354050C83A7090082970327090017
:101AA4006361E512198D8357E40317270000035778
:101AB40067508E07B387E70213070032938707192D
:101AC400B3D7E70263E7A710374A0F00130BFA23D3
:101AD400972A0000938A8A4D130A0A248357040420
:101AE40085072310F4048347041499E322855922BB
:101AF4002285974002E0E780A07075E983260409F7
:101B04008327C40803A74A00B6973E8563E4D70039
:101B140063E4E7003385E7408347F40183546408B2
:101B24002328A4088507A30FF4009727000083D770
:101B34006748B384F402DA94B3D444036368950C1D
:101B4400B304954083A7090023209900829763E397
:101B5400A40C3385A440E34305F89727000083C70A
:101B6400974163E7A7089727000023A587780145D5
:101B740041A083264A00B387F6403E97E5BD8354CF
:101B8400640837470F009307F723B3846403BE94B4
:101B940093070724B3D7F40263E7F900B387F94046
:101BA4002320F900D1BD03274A00BA99C5BF23A059
:101BB4003501D9B5972700009387473FDC43BE948E
:101BC400F9B5972700009387673EDC43998F3E95CC
:101BD400D9BDA1452285974002E0E780405BA3057B
:101BE400A402972700009387A7379C5B81EF7D555C
:101BF400F2406244D2444249B249224A924A024BD8
:101C040005618280894515458297D5B7B30497400D
:101C1400AA940DBF83A74A00BE9425BF39C90111F8
:101C24006C0022CC06CE2A8411331DCDFD576302ED
:101C3400F502B2479725000083C5F53363EFB7007B
:101C440003459402B385B7402EC6972000E0E78091
:101C5400E053F240624405618280172700001307B5
:101C6400E7345843BA97E9BF975002E0E780C016BB
:101C7400CDB78280797126D206D622D44AD04ECEF0
:101C840052CC56CA5AC85EC68347550303447513DB
:101C9400AA843E941374F40F9307400263F68700FA
:101CA4001304B4FD1374F40F03AA841383AAC41396
:101CB400A38B841222865285D685979002E0E78012
:101CC400A048058915E503CBD41201498149337B2A
:101CD4006403930B50024A865285D685979002E09E
:101CE400E7808046058915C5639169031374F90F6C
:101CF400238B8412B250225492540259F249624AFC
:101D0400D24A424BB24B456182808509E20993D99C
:101D140089410509E31179FDE1BF8327850903564C
:101D24000504797193D60701BD8EC206C182358E32
:101D34001357764093575640898B058B5D8F935785
:101D44003640918B5D8F93571640A18B5D8F93170F
:101D54001600C18B5D8F9317360093F707025D8FD2
:101D6400931756009355860093F707041E065D8F5C
:101D74001376F60F518F93D7554013D63540118AF9
:101D8400898BD18F13D67540D18F13D61540218AF4
:101D9400D18F13961500418AD18F1396350013768F
:101DA4000602D18F13965500137606049E05D18F33
:101DB40093F5F50FCD8FA20745465D8F3307C70214
:101DC40022D42A8426D252CC56CA032A8413832AC4
:101DD400C4135AC806D636974207418393577740AF
:101DE400135557400989858BC98F1355374011897D
:101DF400C98F135517402189C98F131517004189BD
:101E0400C98F1315370013750502C98F13155700B1
:101E140093558700137505041E07C98F1377F70FB1
:101E2400D98F13D5354013D755401189098B498F64
:101E340013D57540498F13D515402189498F1395C2
:101E440015004189498F1395350013750502498F93
:101E540013955500137505049E05498F93F5F50FE9
:101E64004D8F2207D98FB387C7024AD04ECE5EC6A4
:101E740062C4B697C207C18313D7774013D55740BE
:101E84000989058B498F13D537401189498F13D59B
:101E940017402189498F139517004189498F13955C
:101EA400370013750502498F1395570093D58700A2
:101EB400137505049E07498F93F7F70FD98F13D530
:101EC400354013D755401189098B498F13D5754077
:101ED400498F13D515402189498F139515004189E0
:101EE400498F1395350013750502498F13955500D5
:101EF400137505049E05498F93F5F50F4D8F220741
:101F0400D98FB387C702130650025285D685B69778
:101F1400BD8E93940601C18033F6C402137BF60F81
:101F2400979002E0E780402205890DED8347D412A3
:101F340001498149B3849702130C5002C1804A8637
:101F44005285D685979002E0E78000200589937B2F
:101F5400F90F11C563863403850993F9F90F05094F
:101F6400E31F89FD230B6413B25022549254025987
:101F7400F249624AD24A424BB24B224C45618280BA
:101F84005E8BCDB70111972700009387A72C22CC35
:101F940003A4870C26CA4AC84EC606CEAA841309CF
:101FA4002500854915C083C7140003473400858B79
:101FB4006304F700405CFDB71946930544004A8565
:101FC400EFE0BF98E31835FF2285F2406244D24423
:101FD4004249B249056182804111972700009387E5
:101FE400672722C403A4870C26C24AC006C69304EA
:101FF4002500054901E82285B24022449244024961
:1020040041018280A6851305A402978002E0E7803F
:10201400408AE30225FF405CF1BF4111972700008D
:102024009387472322C403A4870C26C24AC006C64A
:1020340093042500054901E82285B24022449244D4
:10204400024941018280A6851305A401978002E01C
:0C205400E7802086E30225FF405CF1BF1E
:1020600097110020938181C51741002013018179C8
:102070001305400097E5FF1F9385C5F8170600205C
:10208000130606FE63FAC5008322050023A055004F
:1020900011059105E3EAC5FE17B502001305454E8B
:1020A000970500209385C5FB1386018763FAC50059
:1020B0008322050023A0550011059105E3EAC5FE22
:1020C00013850187972500209385052D6377B5003B
:1020D000232005001105E36DB5FEFD42739002BC9F
:1020E0008D4273904280930280087390023097E291
:1020F000FF1F938222F193E23200739052309712C5
:102100000000938222DB73901234730020303D4331
:102110002A876373C3029377F700BDEFADE593762B
:1021200006FF3D8ABA960CC34CC30CC74CC7410787
:10213000E36BD7FE11E28280B306C3408A069702A2
:10214000000096966780A6002307B700A306B70095
:102150002306B700A305B7002305B700A304B70003
:102160002304B700A303B7002303B700A302B700FB
:102170002302B700A301B7002301B700A300B700F3
:102180002300B700828093F5F50F93968500D58DD7
:1021900093960501D58D61B79396270097020000AD
:1021A00096968682E78086FA9680C1171D8F3E96A6
:1021B000E374C3F8A5B7B717004003C777051377D3
:1021C000E70FA38BE704130700F8A38DE7043D474F
:1021D000238CE70413075003A38CE70403C7A70568
:1021E0001377D70F238DE704828041112A83014E94
:1021F000930E407E130F0019930F400663E56E1295
:102200009308001913034006B3781503854E0D4F4C
:10221000A14F337365020D891335150063EFBE12AC
:102220001308F6FF794672984208135808013307DD
:10223000C70213D61700BE0732976146B3F6C6022F
:1022400013068070B386C6023697A166F58F4207E3
:102250005D8FB716004083C7F60293F70708A30304
:10226000F1000346710083C7F60293F70708E39471
:10227000C7FE83477100B716004093F7F70F6388D6
:10228000071293078008F3B7078093F787083EC4C7
:102290000F100000B7170040930670052380D70485
:1022A000930680FA2380D7040F10000023AA0703A7
:1022B00083C6170393E60608A388D7022380070482
:1022C000A247F3A707800F1000001166B717004060
:1022D0007D16D45BC85F93854703A98EF18EF5FA0E
:1022E00093068008F3B6068093F6860836C60F106C
:1022F0000000930670052380D704930680FA23809C
:10230000D7040F10000098C103C717031367070411
:10231000A388E70223800704B247F3A707800F10C2
:102320000000410182807D133368E3039308E016C7
:10233000630E08003368F3039308D016630808009F
:102340009378330093B818009388D81633081E0189
:10235000131E0801135E0E0155B56393E50305488E
:10236000638608000148630303002A887108729895
:10237000FD15131E0801C205135E0E01C18179BD52
:1023800013F8150063F4BF007908D5B713381800A7
:10239000E5BF83C7F60293F70708A303F1000346DE
:1023A000710083C7F60293F70708E394C7FE8347DB
:1023B000710093F7F70FF1DFE9B5914763EEB702CC
:1023C00017A702001307874C8A05BA959C41BA9754
:1023D0008287B717004003A7470B1345F5FF698FA6
:1023E00023AAE70A03A7070B698F23A8E70A03A715
:1023F000070A798D23A0A70A8280B717004083A619
:10240000470B1347F5FFF98E23AAD70A83A6070BBC
:10241000558D23A8A70A83A6070A758F23A0E70A6C
:102420008280B717004003A7470B498F23AAE70A0A
:1024300003A7070B1345F5FF45BFB717004083A659
:10244000470B1347F5FF758F23AAE70A03A7070A6F
:10245000598D4DB7B717004003A7470B498FEDB70C
:10246000B71700408847420541819377050491EBF7
:102470009377F5013755E801130505803345F502DB
:1024800082809377050C130700046397E700937726
:10249000F50137459C1CCDB72165130505D0828019
:1024A000B7F700E08847CC47828081473737004044
:1024B000A14663C4C700328582800345B740E38EDE
:1024C000A6FE3385F5000345050085072304A740D4
:1024D000CDB797070020938767FE9C4317270020FE
:1024E000130787EB3E95636EE5001747002013073F
:1024F00067116368A700170700202321A7FC3E850A
:102500008280FD57EDBF411122C406C62A84893F4F
:102510002947B307E502B2408D83B3D7870222442F
:102520009507B3D7E70237370040C207C1832316A8
:10253000F74041018280716541111305052006C6EF
:10254000D937B7370040130770F82381E7400D47AC
:10255000A381E74013070004A380E74005472387D2
:10256000E740B24041018280CC41411106C632852C
:1025700003C6150083C5050022064D8E42068D65F3
:102580004186138875A2630C060F6348C80413883C
:1025900045A26306060B634AC800938535A263090A
:1025A000B60623900600294679A0138855A2630831
:1025B000060B938565A2E316B6FEC1451D4663EC86
:1025C000E5064546198E63F3C7003E862390C60094
:1025D00097A502009385C52D89A8138895A263004D
:1025E000060F634E060B1388A5A2630A060F938598
:1025F00005A5E318B6FA99451D4663EEE502198E66
:1026000063F3C7003E862390C6009385C18031A83E
:102610009D451D4663E1E5022146198E63F3C7001F
:102620003E862390C60093850187BA9597E0FF1FE9
:10263000E78060260146B240328541018280AD4587
:102640001D46E3EAE5FE3146198E63F3C7003E8678
:102650002390C60097A5020093854529F9B7B14597
:102660001D46E3EAE5FC3546198E63F3C7003E8656
:102670002390C60097A50200938545287DB7C145E4
:102680001D46E3EAE5FA4546198E63F3C7003E8628
:102690002390C60097A502009385C52279B7C1454E
:1026A0001D46E3EAE5F84546198E63F3C7003E860A
:1026B0002390C60097A5020093854525BDB7C14567
:1026C0001D46E3EAE5F64546198E63F3C7003E86EC
:1026D0002390C60097A5020093850520B9B7B5459C
:1026E0001D46E3EAE5F43946198E63F3C7003E86DA
:1026F0002390C60097A502009385851A3DB79706DB
:1027000000209386E6A84146CD4517050020130515
:1027100025956FA080192D453DEF03C5050009479C
:102720006317E5063285D041411106C603471600FE
:102730000346060041682207518F130628FE6308EE
:10274000C7026369E60005186303070323900600C8
:1027500029451DA8130648FE630BC7001518E3178B
:1027600007FF15473E866377F700154621A03E8692
:1027700091C30546CC452390C6004206418297E0AE
:10278000FF1FE78040110145B24041018280239044
:10279000060005458280828083C7850093F7070283
:1027A000DDE7411106C622C403C40500894E2E8808
:1027B0008547631AD40383AE4500B28883C71E00E1
:1027C00083CE0E00A207B3E7D701C16E138F1EFEA2
:1027D0006380E7038D1E6387D7050D681308289073
:1027E00063810707A947B24022443E8541018280A8
:1027F000AD4775FB0547B547E367D7FE0325C8001E
:102800000546C68597E0FF1FE780E00801449387EF
:1028100041899843814761DB184371D7228502972C
:102820008147D1B7AD4761F30547B547E36DD7FAA7
:102830000325C8000546C68597E0FF1FE780A00571
:10284000F9B72244B240854741016F80C049A14792
:102850003E85828041677917630CE502411122C4ED
:1028600006C685472A84639AF50022852244B24031
:102870009385818841016FA0200E89476396F500FA
:102880008545EFC0804975D1B24022444101828024
:102890008280411122C42A844165938581887D15F7
:1028A00006C6EFA0600B170500001305E5FA0588C2
:1028B000EFC0E03D05C02244B24097060020938659
:1028C000E69E4146C545170500201305258D4101AB
:1028D0006F90B07DB240224401454101828009C51C
:1028E00023AAA18801458280454582801147636EF5
:1028F000A70697A602009386A6020A0536951841F8
:10290000411106C63697AE87B285028705476145F5
:10291000639AE70005461385818797E0FF1FE780EC
:1029200080F70145B2404101828005476145E39B44
:10293000E7FE05461385C187CDB705476145E3939B
:10294000E7FE054613850188C9BF05476145E39B3E
:10295000E7FC054613854188C9B715476145E393F0
:10296000E7FC15461385C1884DBF09458280114794
:10297000636AA704AA8717A702001307A7FB8A07A1
:10298000BA979C43411106C6BA972E8582870546A1
:102990009385818797E0FF1FE780E0EFB240014514
:1029A0004101828005469385C187EDB70546938531
:1029B0000188CDB7054693854188E9BF15469385C3
:1029C000C188C9BF09458280411122C42E849385E4
:1029D000818826C206C6AA84EF80A02B058915C16E
:1029E00097F7FF1F9387877B83D7A70BA285B240FA
:1029F0002310F400224426859244014641016F9041
:102A00002006B2402244924449454101828041114E
:102A100093962500AA852D4506C697E0FF1FE780FF
:102A200080A8B240014541018280011122CC06CE2E
:102A30003714004026CA4AC84EC652C4834474059F
:102A4000034AB4058349840503499405EFF0AFF6C2
:102A50008347A40593F4F40F137AFA0F93E7170052
:102A6000230DF40493F9F90F1379F90FB717004008
:102A700003C7A705058B6DFF03D5C705A38D4705C4
:102A8000238C3705A38C2705A38B9704F24062445F
:102A9000D2444249B249224A05618280011193978A
:102AA000050122CC06CEC1872E8463DD0700EF101E
:102AB000201619C1EF10A0092165218DF240624452
:102AC0000561828093F7150013C51500E5FB93F7A8
:102AD000250013C52500FDF39397250163D3070651
:102AE000EF702173B717004003C7E7029306800811
:102AF0001377C70F13671700F3B6068093F686089F
:102B000036C60F100000930670052380D704930685
:102B100080FA2380D7040F1000002387E702238068
:102B20000704B247F3A707800F10000037F6020032
:102B3000130606E0896503C5C189EF10E06C0965DD
:102B4000ADBF939715010145E3DA07F617A502001B
:102B5000130505E4EF80123B13060064916503C57D
:102B6000C189EF10606A116589BF2D71232A911008
:102B7000FD74E98C232C8110232821112326311187
:102B80002A84AE893289930600100A86A6852D45CF
:102B9000232E111097E0FF1FE780E09013154401EA
:102BA00051810A0513962900CA850A9597E0FF1FEF
:102BB000E78060CEA68585660146254597E0FF1F24
:102BC000E780608E0A86A68593060010294597E067
:102BD000FF1FE780408D8320C111032481118324CE
:102BE0004111032901118329C11015618280B7F7B2
:102BF000070003C70701411106C622C426C24AC006
:102C0000A547631AF7009537B2402244924402491F
:102C100001454101828013942500AA843289A2864D
:102C2000AA850146254597E0FF1FE780C087A28659
:102C30004A86A685294597E0FF1FE780C086E9B749
:102C40001D71494697A50200938505D017A502007E
:102C50001305C53586CE97E0FF1FE78040CF01E919
:102C600017A50200130585CFEF80D22901A0B7F682
:102C700000E0795798CAFD57DCCA0567B7E700E05E
:102C800023A0E7101306F00290C223A0E7180F104C
:102C9000000017E7FF1F1307E72123ACE188415726
:102CA000A38AE740130600048145080897E0FF1F48
:102CB000E78080C5970700209387479A3EC88967B9
:102CC00093870780231AF1009D673ECCB707010563
:102CD000938707103ECEED472310F102854723016D
:102CE000F102970700009387C7D2BEC29707000082
:102CF000938727F0BEC48567938757D12312F102CB
:102D0000B7F5070097F7FFFF9387C7793ED881464D
:102D1000970700009387A7D13000E10519453EDCF5
:102D200097D0FF1FE7802078180881479946300028
:102D30003E960346060085070507A30BC700E398E8
:102D4000D7FEC24791C70357410185676373F700F8
:102D500001A08307410263D7070493078008F3B7F4
:102D6000078093F787083EC40F100000B717004094
:102D7000130770052380E704130780FA2380E70414
:102D80000F100000B847B706100013670718B8C740
:102D90009853558F98D323800704A247F3A7078041
:102DA0000F1000000808EF10F030AA8501C917A520
:102DB00002001305E5BBEF80520301A0F640256138
:102DC0008280411117050000130585CD06C622C477
:102DD000EF10902A1384C1892300A4001928034509
:102DE00004002244B24013060032896541016F108D
:102DF000A041797106D613078008F337078093F74F
:102E000087083EC20F100000B717004093057005F9
:102E10002380B704130680FA2380C7040F10000034
:102E200083C6F70293F6D60FA387D7022380070441
:102E30009246F3A606800F100000733707801377C1
:102E400087083AC40F1000002380B7042380C7040A
:102E50000F10000003C7F70213675700A387E702AC
:102E600023800704A247F3A707800F1000008147C3
:102E700001478146054685451305407EEFF0EFB6D4
:102E800068005146814597E0FF1FE780E0A7B7073C
:102E9000C0A83EC8B78732003ECA680097D7FF1F58
:102EA000938727513EC6EF10D054B25045618280BF
:102EB00041111305800406C697D0FF1FE780A01DAF
:102EC000371700408327870A8D451305002093E7B5
:102ED00007202324F70AEFF04FCEEFF0CFE517A538
:102EE00002001305A50CEF80F201993BD93DEFE0FC
:102EF0004143EFE0014AEF00102AEF00A06B97D0AA
:102F0000FF1FE780E04D411117A502001305C5C65C
:102F100006C6EF80826DB2408547A383F18A4101E6
:102F20008280B305B04017A502001305A5CF6F80BE
:102F3000C26B834725003547636CF72617A702004D
:102F4000130747A58A07BA979C43797122D406D6FE
:102F500026D24AD04ECEBA972A84828717A502007D
:102F6000130545B5EF80027A2C0013054030EFD0F1
:102F7000B1722C000545EF50502D014685450D4599
:102F8000EFB00175B5A803C7818AA54763EAE706D4
:102F90000349450093095500814417140020130488
:102FA000E4EB03C5818A63E4A4060E05090519460E
:102FB000CE85229597E0FF1FE780E08D83C5818A4B
:102FC00093973500850593F5F50F1386F5FFA297C6
:102FD0000E062296A38027012384B18A83487600B7
:102FE0000348660083475600034746008346360081
:102FF0000346260017A502001305C5ACEF80E25E6C
:10300000B250225492540259F249456182809395FC
:10301000340089051946A2954E8597E0FF1FE78089
:10302000009379FD850493F4F40FA5BF0504137490
:10303000F40F83C7818A637DF400931534008905FA
:103040001946A6954A8597E0FF1FE780409079DDF5
:1030500083C7818A639E870217A50200130505A90D
:10306000EF80426A014685450D452384018AEFB011
:10307000216617A502001305E5A3EF80A26849B7F2
:10308000014497140020938464DD1389C18155B7EE
:1030900017A502001305C5A6EF80C266971700208A
:1030A0009387C7DB0E04930624003E940346140066
:1030B000BE9681450145EFB0415E0566130606C820
:1030C0009305000803C5E18AEF10001417A502005C
:1030D000130505A45DB79305000803C5E18AEF1049
:1030E000203D83451400B9ED0355A4008947A3840E
:1030F000F18A2391A1828547A383F18A03C6E18ADD
:10310000DD472C002314F100EF60500B1306006420
:10311000A14503C5E18AEF10200F0564130604C81A
:10312000C14503C5E18AEF10200E130604969305EE
:10313000000403C5E18AEF10200D17A50200130556
:10314000259E25BF17A502001305859EEF80E24945
:1031500017A5020013050596EF80C25A2384018A41
:1031600029BDA384018AF9579305000403C5E18AA8
:103170002391F1822383018A2392018A2384018A85
:10318000A383018AEF10C0328345640017A50200B3
:103190001305C59BEF80624517A5020013058591B5
:1031A000EF804256D9BB17A502001305E59BF1B588
:1031B0008280011122CC36C606CE2E84EF00504804
:1031C000B24637460F00130606243376C50291CA6D
:1031D000B28517A502001305E5A332C6EF80E240D1
:1031E000324622856244F240814505616FC0A16F7D
:1031F00081E9B28517A502001305C59A6F80E23EEA
:103200008547639DF50017A502001305E59A09C6D9
:1032100017A502001305459B6F80C24E894763982E
:10322000F50017A502001305259B7DD682808D47EA
:10323000E39EF5FE17A502001305059B71DEB2851E
:1032400017A502001305859B55BF7971939705015A
:1032500026D206D622D44AD0C187AE8463DE071EAA
:1032600003C5E18AEF00D01A2A8415C5034705007B
:103270009307000B631EF70083C7918A09478345B4
:103280004500130985006380E7024A85EF60904C92
:103290002285EF00D00B2165258DB2502254925427
:1032A0000259456182800D476381E50205476390BD
:1032B000E50203478500631AF7028345C5001795A9
:1032C00002001305A570EF804232A383018A0347F1
:1032D00044009307F007631AF7008355840017959D
:1032E000020013052570EF804230834744002D47CC
:1032F0006387E7020547639CE70203478400A9460A
:103300006311D7048345C400179502001305456E69
:10331000EF80A22DA383018A83454400BDB75C449E
:10332000179502001305C56D83C50700D5B74D4736
:103330006393E7029305A005179502001305856EB8
:10334000C1BFC9466316D7028345C4001795020062
:103350001305056C75BF6D47639CE7005C441795CA
:1033600002001305256D83C50700EF8002286DB7A5
:1033700003C7618A55D385466319D7081D47639CE7
:10338000E7028357840085CB5C4417950200130540
:10339000A56B83C5170003C6370003C7070083C7A3
:1033A0002700A2052206D98D5D8E2396B18A23952A
:1033B000C18AEF808223834744001D476395E70459
:1033C00003471400E947E399E7F483D7C18AA9D7F3
:1033D0002314F1009387A18A83D70700094703C606
:1033E000E18A2315F100F977938727102316F1005E
:1033F0002C00FD5703D521822383E18A2307F100A6
:10340000EF60206611BF05477DBF8946E316D7F000
:1034100025476390E7048357840085CF584493057C
:10342000000213060064834717000347070003C523
:10343000E18AA207D98F2392F18AA383018AEF0040
:10344000B05C83D5418A179502001305A562EF8011
:10345000C2192383018AC9B593F7150085C317F6EE
:10346000FF1F130666EC97F5FF1F938525EB03C539
:10347000E18AEFB0E11C13C5140005B593F7050808
:1034800081CB41657D15EFD0916713C5040831B537
:1034900093F7850085CB81572314F1002392018A8D
:1034A0002395018A2396018A854783C6E18A0946C6
:1034B0002C0003D521822383F18AEF60C07813C5E5
:1034C0008400E1BB93F7050191CF13078025814666
:1034D00013064006D14503D52182EFD0D16113C533
:1034E000040165BB93F70502CDC383C7718AA5E7C5
:1034F00003C7418283D7418A03D521822DC7231474
:10350000F1000147854781460546C945231801005A
:103510002315F100EF60E05C2AC615CD9307A005E6
:103520002300F50003C6E18A2C0003D52182EF6059
:10353000C0530DE58547A383F18A83C7418293B7C2
:103540001700130600649305000203C5E18A238275
:10355000F182EF00704B13C5040281B3C945280006
:10356000EF60501FCDBF03C6E18A2C002314F10089
:10357000EF60E04E6DF18547A383F18A83C74182F6
:1035800093B717002382F182F9B793F70504014539
:10359000E38507D003D52182EFD0B1550566130628
:1035A00006969305000403C5E18AEF00F04513C5B4
:1035B0000404E5B1011117050000130545C906CE45
:1035C00022CCEF10602B1384E18A85652300A400D0
:1035D000938505960945EF30E008D1451D45EF304C
:1035E0006008930540062145EF30C007930540066B
:1035F0003545EF30200785470D477000914513058D
:10360000F0402304F100A304F1002305E100A30529
:10361000F10002C6EFC0815430008545130580409B
:10362000EFC0C15313069100854513059040EFC0CC
:10363000E1521306A10085451305A040EFC00152D9
:103640001306B10085451305D040EFC02151EF703E
:10365000A04103450400EF60906D7D55EF507077F9
:103660007D55EF90402C1796020013062643D54552
:103670000145EF50B064034504008545EF00301963
:10368000F2406244056182802A86B305B0401795F6
:1036900002001305A55D6F705275011106CE19C5A4
:1036A0000947630FE500F240056182806C00EFF08E
:1036B0000FAC179502001305A567EF80A204E5B7CC
:1036C0006C00EFF0CFAA1795020013052568F5B737
:1036D00083D7018B6390A7022399B18A239AC18A69
:1036E000239BD18A2E861795020013052556BE8589
:1036F0006F70B26F179502001305C5566F80820078
:1037000003574500011106CE83D7018B631FF702D3
:10371000C167F917894503C5C18223A8F18A23AA85
:10372000018AEF00F058914503C5C182EF0050585F
:1037300085471306F100854513055030A307F100B6
:10374000EFD05109F2400561828017950200130500
:103750006551EF70327BFDB73D897D15954763E17B
:10376000A714179702001307E74C0A053A951C4166
:10377000011122CC06CEBA972E8482872C00130525
:103780004030EFD061712C000545EF50002C1795AB
:1037900002001305254FEF70F276D5A803C7250068
:1037A0009947631CF7002E85A13F83456400179558
:1037B00002001305254EEF705263179502001305A2
:1037C000254FD1BF03C7250095476312F702C16794
:1037D00003D7018BF91703D5A500630FF700EFD0CE
:1037E0001132179502001305A54DEF70B2711795B0
:1037F00002001305654F45B72398A18A83D7E500DA
:103800001306006403C5C1822399F18A83D7050199
:10381000239AF18A83D725018945239BF18AEF00FA
:10382000B01E096613060690A14503C5C182EF00CC
:10383000B01D0566130606C8914503C5C182EF0099
:10384000B01C0356E4008355A4001795020013052D
:103850006548EF70925961BF1795020013058549BD
:103860001DBF83C725001147179502001305054AA0
:10387000E383E7F21947639CE7002E8551358345C2
:103880006400179502001305E540EF701256F240F0
:10389000624405618280179502001305E548E5BD85
:1038A000828001119397050122CC06CEC1872E8418
:1038B00063DD070003C5C182A12E11C1492C21651A
:1038C000218DF24062440561828093F7150085C323
:1038D00017F6FF1F130606A6970500209385055DC2
:1038E00003C5C182EFD0613B13451400D9BF93F7E4
:1038F0002500A9CF13060064894503C5C182EF00E6
:10390000B010930780F82302F100014785478146F4
:103910000546ED4503D5018B2315F100EF60601CD2
:103920002AC615C10356A1004C0097D0FF1FE7809F
:1039300080F62C0003D5018BEFF00F8909C5ED450A
:103940002800EF60206113452400A5BF93F7850090
:1039500085C383C7C182130740068146130640060C
:10396000D14503D5018BEFD0A12E1345840091BF23
:1039700093F745000145B1D703D5018BEFD07117FF
:103980000566130606C8914503C5C182EF00D0073E
:10399000134544003DB77971170500001305A5F0E4
:1039A00006D622D426D2EF00306D9384C182D1474F
:1039B00005442380A400231AF10010089307400651
:1039C000854513055030231CF10023088100EFD0FA
:1039D000616017F6FF1F13062698F1451305703036
:1039E000EFD0415F138601839D4513056030EFD012
:1039F000615E5008894513051031EFD0A15D300894
:103A0000894513052031EFD0E15C930500050D4594
:103A1000EF205045930500051145EF20B0443008D4
:103A2000914513057040230481002306810023087B
:103A3000810002CC230A0100EFC04112300085450D
:103A400013050040EFC0811170008545130510403B
:103A5000EFC0C1105008854513052040EFC001108C
:103A60001008854513055040EFC0410F7D55EF50BC
:103A700050367D55EF80306BEFE07FC87D55EFE02D
:103A80005FE117F6FF1F1306A68BD5450145EF50E2
:103A9000F02289472306F1008D472308F100914762
:103AA000230AF10093878186984383C7470030003B
:103AB000854501453ACC230EF10023048100EFE057
:103AC000FFE2700085450545EFE05FE2100885459F
:103AD0000945EFE0BFE1500885450D45EFE01FE1E6
:103AE000300895451145EFE07FE0C1671387018BF2
:103AF000F9171CC32322070013858182EFE03FDE04
:103B000003C5040085452123B250225492544561D7
:103B1000828023AC05FE1C4191E7010001000CC12D
:103B20008280BA8703A787FF6DFF23ACB7FE828030
:103B3000184183A785FF6319B7001CC1FD5723AC4B
:103B400005FE238FF5FE8280232CF6FEC5BF4111B2
:103B500022C437E400E026C204403707200006C62E
:103B6000F98C2320E4180F10000009E92320941099
:103B70001545B24022449244410182800347E5FF4B
:103B80009307F00F6306F700232094101145D5B773
:103B900097E0FF1FE780409A014523209410D1BF92
:103BA000411126C2B7E400E04AC003A90400B707E8
:103BB000200006C622C43379F90023A0F4180F10A0
:103BC000000009E923A02411B24022449244024992
:103BD000410182809565938505D0C98D2A84210590
:103BE000C2054205C181418197E0FF1FE780A085A2
:103BF00001CDFD5723200500231285002303F50086
:103C000023A024112105C9B723A0241101456DBFAC
:103C10000111B7E700E04AC803A907004EC63707FD
:103C2000200006CE22CC26CAAA893379E90023A037
:103C3000E7180F100000970700209387A72C8043F8
:103C40008144014619E499E8A1654E85EF005006CC
:103C500005A08347E4FF6399370385CCA685170544
:103C600000201305252AE93565D0A1654E85452636
:103C7000F2406244B7E700E023A0271126854249BD
:103C8000D244B2490561828091E02286032484FFF8
:103C900055BFA284E5BF41114AC037E900E022C404
:103CA000032409003707200006C626C2798C23208A
:103CB000E9180F10000089E523208910154515A08B
:103CC000AA849707002083C737242E8563F5F40064
:103CD000894763EE9700A53DB7E700E023A0871072
:103CE0000D45B2402244924402494101828083A79B
:103CF00085FF99E703C7E5FF9307F00F6308F70017
:103D0000B935B7E700E023A087104DBF238F95FE9C
:103D1000170500201305051FED3BA1652685C52C61
:103D200001452320891075BF9707002023AC071C8D
:103D3000828097070020938767229C4399E33E8502
:103D4000828003D727006316B70003C70700E30884
:103D5000A7FEDC47E5B7A5C1011106CE22CC26CAD5
:103D60008147C14633D7F540058B29C312053E95DF
:103D700031473305E5021707002013076722044384
:103D800005443314F4002EC642044180AA949C409A
:103D9000C8408297B24523A0040023A20400A18D4D
:103DA000F2406244D2442E85056182808507E39B00
:103DB000D7FA0144EDB72E858280C9C1797122D42A
:103DC00006D626D24AD04ECE01444147B3D78540CD
:103DD000858BA5C31205314722953305E502970768
:103DE00000209387E71B03A907008544B394840050
:103DF000C204C180BE892A990327090011C703257F
:103E000049002EC60297B24531473304E40283A726
:103E100009003E941C4489E723200900232209005D
:103E2000B2502254A58D02599254F2492E85456113
:103E300082800504E31CE4F88144DDB72E8582808E
:103E40004111B7E700E022C480433707200006C6CF
:103E500026C2798C23A0E7180F10000097070020D6
:103E6000938707109C539384818399C782979C40C2
:103E70003E9523ACA18239A0970700209387870D38
:103E80009C43EDF78840B74703009387D73F33053E
:103E9000F502B7A72600938737ECB24092443E95CF
:103EA00023ACA182B7E700E023A0871022444101A0
:103EB000828001112E8626CAAA8413150601930555
:103EC000F004418122CC06CE32C697D0FF1FE78096
:103ED00080572A8419C53246A68597D0FF1FE780F0
:103EE000809B2285F2406244D244056182807971D0
:103EF000B7E700E022D480433708200006D626D258
:103F00004AD04ECE52CC56CA5AC85EC662C433742A
:103F1000040123A007190F10000005E123A087105A
:103F20000945B250225492540259F249624AD24A87
:103F3000424BB24B224C4561828097070020938709
:103F400067019C43BA8A368AB28B2E8BAA898297E4
:103F5000970700209387C70498433E898144B14660
:103F6000C147338CD40233068701104241EAC16550
:103F7000938505F0414597D0FF1FE780C04C05E1D0
:103F8000970700209387C7FD9C5B81C7814511453A
:103F90008297B7E700E023A087102D4559B7970710
:103FA00000209387A7FB984331E79707002023A7BA
:103FB000A7FA230005008327090005473317970058
:103FC00023260500232475012311E5002322550132
:103FD000E29723A0370123A2670123A457016304BA
:103FE0000A0023009A00B7E700E023A087100145EC
:103FF0000DBF3E875C47F5FF48C765BF8504E39268
:10400000F4F6B7E700E023A08710214519BFB7E712
:1040100000E09843B706200023A0D718758F0F1033
:1040200000009706002083C636EE6373D50217069C
:104030000020130666F29316150008423695835643
:104040000500D58D2310B50023A0E710014582801F
:1040500023A0E7100D458280B7E700E09843B7063C
:10406000200023A0D718758F0F100000970600209E
:1040700083C696E96375D502170600201306C6EDC0
:1040800093161500084293C5F5FF36958356050033
:10409000F58D2310B50023A0E7100145828023A0F1
:1040A000E7100D458280011137E700E026CA04437E
:1040B000B706200006CE22CC4AC84EC652C4F58CA4
:1040C0002320D7180F100000130705FF1377F70FF1
:1040D000FD4763E5E70AB146B306D502970700201E
:1040E000938707EC984336971C43C9CB135A450076
:1040F00005443D893315A4001314050141802E8920
:104100005285A2853D31AA8929CDA2855285A9373C
:1041100097070020938707E49C4382979707002026
:1041200083D747E9338727032A848146130600642F
:10413000B3B7270313050732B335E500BE95EF701B
:10414000E205B307850097060020938626E63E87A2
:10415000D44263E4A70063E4D7003387D74023A4A5
:10416000E900B7E700E023A097100145F240624460
:10417000D2444249B249224A05618280B7E700E051
:1041800023A097100945DDB70111B7E700E026CA63
:1041900084433707200006CE22CC4AC84EC6F98C8D
:1041A00023A0E7180F100000BD4763E9A7043147BB
:1041B0003307E50297070020938787DE9C43BA9771
:1041C0009C438DCF05443314A400420441802E89C2
:1041D0000145A285B93EAA8911C5A2850145AD3D1B
:1041E00023A42901B7E700E023A097100145F2407E
:1041F0006244D2444249B24905618280B7E700E097
:1042000023A097100945E5B779714AD037E900E056
:1042100026D283240900B707200006D622D44ECE2A
:1042200052CC56CA5AC85EC6FD8C2320F9180F100E
:1042300000009707002083C737CD637AF500970702
:104240000020938727D183AB070063970B00B7E764
:1042500000E023A09710A9A0170B0020130B0BD58B
:10426000832A4B00B74736FE938707C82E8A9705E7
:10427000002083D525D4BE9AB387C5022A84B2898B
:104280008146B3B5C50213850732B337F50013066F
:104290000064BE95EF60927063F0AA02232099102B
:1042A0000145B250225492540259F249624AD24A0C
:1042B000424BB24B45618280829B9705002083D59B
:1042C00065CFB38735032A89130600648146B3B5E9
:1042D000350313850732B337F500BE95EF60126CD6
:1042E000B30725013E8903274B0063E4A70063E47D
:1042F000E7003389E740D2852285EFF09FA309C903
:1043000023242501B7E700E023A09710054551BFFE
:10431000936504F0C205C181414597D0FF1FE78036
:10432000801219E997070020938787C39C5B85D388
:10433000A2851145829721BF97070020938707C266
:104340009C4385E79707002023AAA7C0854723261B
:104350000500232425012311450123008500A30026
:10436000F5002322050079BFBA87D84775FFC8C773
:10437000F1BF7971B7E700E026D284433707200008
:1043800006D622D44AD04ECE52CC56CA5AC85EC6A1
:1043900062C466C26AC0F98C23A0E7180F1000003F
:1043A0003DC14144B689B28A2E8A2A89B14C170B85
:1043B0000020130BEBBE054D130C0003B30B94034D
:1043C00003270B005E971C43A5E39375F400B31518
:1043D000BD0013554440C2055686C1811375F50FC3
:1043E000253539C183270B00DE9723A0270123A29F
:1043F00047016384090023808900B7E700E023A018
:104400009710014521A023A097100945B2502254CE
:1044100092540259F249624AD24A424BB24B224C60
:10442000924C024D456182800504E31984F9B7E797
:1044300000E023A097102145D1BF0111B7E700E0AC
:1044400026CA844322CC4AC84EC63707200006CE6F
:104450002A84AE893289F98C23A0E7180F10000056
:1044600065332285CE85EFF0DF8C2A8405C597055C
:10447000002083D525B4B387250313060064814645
:10448000B3B5250313850732B337F500BE95EF604A
:10449000F25048C013351400F2406244B7E700E020
:1044A00023A097104249D244B2490E05056182808B
:1044B0000111B7E700E04AC803A9070022CC4EC6A5
:1044C0003707200006CE26CAAA892E843379E90050
:1044D00023A0E7180F100000EFF0BF85AA8419C1D0
:1044E00023110500A2854E85853E9707002083C7CE
:1044F000A7A1639B37019707002083D767A55D8C31
:1045000097070020239687A4B7E700E023A0271190
:10451000014591E01945F2406244D2444249B24912
:104520000561828001114AC837E900E022CC0324EA
:104530000900B707200006CE26CA4EC67D8C232070
:10454000F9180F1000009307F00263E8A704B147C1
:10455000B304F50297090020938989A483A7090071
:10456000A6979C439DCB9377F5008545B395F500C1
:10457000C205C18111812D3F83A709000145A6977E
:1045800023A0070023A2070023208910F2406244E1
:10459000D2444249B24905618280B7E700E023A0D6
:1045A00087100945E5B74111B7E700E026C284430B
:1045B00006C622C437072000F98C23A0E7180F1085
:1045C0000000EFF00FF719E90145B2402244B7E7C8
:1045D00000E023A0971092444101828097070020B9
:1045E000938747979C4300458297970700209387BE
:1045F000E79B6368A402D843B74636FE938606C895
:104600003305A4403697E371E5FC13070064B33526
:10461000E50203D6870081463305E502EF601238D4
:104620006DB7D8433A94C1BF411122C426C21704C2
:1046300000201304A497970400209384E48C9448EA
:104640005840970700209387E79006C69C436393E2
:10465000E60882975440B74736FE938707C8B69757
:104660003387A7003A856364F7006364D700330596
:10467000D740970400209384A4ACDC5081CF9707E7
:1046800000209387A7B394433707CDFF7D179C463F
:10469000F98F9CC611E14840970700209387478C0B
:1046A000DC53829719E5DC508DC3EF50D14DEF50AC
:1046B000A10FDC5099CB97070020938727B0984330
:1046C000B70633001C47D58F1CC7B2402244924422
:1046D00041018280829794485840B387A6003E8566
:1046E00063E4D700E3E7E7F83385E74059B74111C2
:1046F00006C69707002023A9A78A0295B24097070C
:10470000002023AFA780014541018280994763E9DA
:10471000B7008A05970700209387C781BE9588C197
:1047200082809707002023AFA78611C5854717070A
:1047300000202300F782828041117146814517F5E0
:10474000FF1F1305257F06C69707002023A80780B3
:104750009707002023AA078497F7FF1F23AC077E43
:1047600097F7FF1F2387077E9707002023AC078258
:1047700097C0FF1FE780401913068002814517F597
:10478000FF1F1305657897C0FF1FE780E017EFC094
:10479000714B97F7FF1F9387A77C03C5C70383C798
:1047A000D70385453E958D473305F50239051375C9
:1047B000F50F97F7FF1F238AA77499473305F50272
:1047C0001305052497D0FF1FE780E0C717F7FF1FE9
:1047D0002328A77C59CD994717F6FF1F0346E67299
:1047E0003306F60281451306062497C0FF1FE780B3
:1047F000A01197F7FF1F9387A77A9C4393870724FD
:1048000017F7FF1F2326F77217F7FF1F0347E76FFE
:104810000A07BA9717F7FF1F2320F774EFF0CFD0DE
:10482000E12997F7FF1F9387A770944397F7FF1F1E
:1048300083C7976D13972700369717F6FFFF130668
:10484000065810C3138717001377F70F0A07369718
:1048500017F6FFFF1306665010C31387370089074A
:1048600093F7F70F8A0797F5FF1FA38FE568B697B1
:1048700090C3B2404101828097F7FF1F83C7D7687A
:1048800017F7FF1F0347676863F3E70217F7FF1F78
:104890001307076A18439386170017F6FF1FA3052F
:1048A000D66693962700369708C33E858280930785
:1048B000F00FE5BF1C416384071641777D8FB70673
:1048C00000208947631ED71403574500630A071465
:1048D000411122C419462A849305F00F610506C6CA
:1048E00097C0FF1FE780400D05478D476304E51221
:1048F0001C4481CB58589947630E0710185C630B12
:10490000071013060004814517F5FF1F13054565C1
:1049100097C0FF1FE78040FF13060004A28517F52C
:10492000FF1F1305E56397C0FF1FE780C0F697F7E9
:10493000FF1F83D7A76317F7FF1F1307676299E766
:104940009307001097F6FF1F2392F66297F7FF1F59
:1049500083C7E76191E7854797F6FF1F2389F660D4
:1049600097F7FF1F83D7C76091E7ED4797F6FF1FC3
:104970002390F66097F7FF1F83C7775F91E795470E
:1049800097F6FF1FA385F65E97F7FF1F83C7675E45
:1049900091E7854797F6FF1F238DF65C97F7FF1F7A
:1049A00083C7375D99E78347F70097F6FF1FA38218
:1049B000F65C97F7FF1F83C7F75B81CF93F637004D
:1049C000898317F6FF1F230BD65C97F6FF1FA3877B
:1049D000F65C97F7FF1F83C7E75991E7D54797F62E
:1049E000FF1F2389F6588347640199E79307C003A3
:1049F00097F6FF1F2381F6581C5791C7829797F7A8
:104A0000FF1F2397A750FD5717070020A30EF7801D
:104A100025338147B24022443E8541018280894747
:104A20003E85828001114EC697F9FF1F9389095870
:104A300083A7090006CE22CC26CA4AC852C4829750
:104A400013090064B335250303DA890081465286D1
:104A500033052503EF60827497F7FF1F9387C74ADA
:104A6000804FAA8401456306940233858440636EB7
:104A7000940003A5490052868146B335A902330547
:104A8000A902EF60A271018D269597F7FF1F23A958
:104A90009748F2406244D2444249B249224A0561F1
:104AA0008280011122CC0A852E844146978502001E
:104AB0009385C5DC06CEEF60F227180806043A9409
:104AC000035504FF97F7FF1F83D7E74EF240624478
:104AD000AA9737450F00130505243355F5020561E4
:104AE000828097F7FF1F83D7074D51471D45637C91
:104AF000F702794719456378F70213072003154534
:104B00006373F7021307B0041145637EF7001307C0
:104B100040060D456379F700130760090945637482
:104B2000F70013B5B70F8280011122CC06CE2A847C
:104B30002EC6EFF0EFB0B245F240818D33A5A5024D
:104B4000229562441375F50F05618280011122CC14
:104B500006CE2A842EC6EFF0AFAEB245F240818D6C
:104B600033A5A502229562444205418105618280F8
:104B7000011122CC06CE2A842EC6EFF06FACB245CE
:104B8000F240818D33B5A502229562440561828091
:104B900097F7FF1F9387C73C985739CB411122C421
:104BA00026C206C6BE84029717F7FF1F0357473673
:104BB0002A8415CBBA876373A700AA87C207C1836B
:104BC000BA866373E400A286C206C182958F5147FC
:104BD000635BF700DC5491C38297EF50816397F7D2
:104BE000FF1F23978732B2402244924441018280C2
:104BF000828097F7FF1F23A5073C97F7FF1F938736
:104C00002736DC57011106CEAA8581C72AC68297AE
:104C1000B245CDC19C410545D9CBDC41C9CB83D739
:104C20008500D1C783D7A500D9C3514617F5FF1F0B
:104C30001305C53797C0FF1FE780E0C597F7FF1F33
:104C4000238C073697F7FF1F938747369C4317F748
:104C5000FF1F2321F73097F7FF1F83C7D7318DE759
:104C60009307805717F5FF1F0355C5343305F50229
:104C700037460F001306062481468145EF60025235
:104C800097F7FF1FA389A72E17F7FF1F0347B72E1C
:104C9000A54763E7E700A94717F7FF1FA30DF72C08
:104CA00017050000130545D8EFF07FA40145F24039
:104CB0000561828097F7FF1F23A6072697C7FF1F6E
:104CC0009387270C17F7FF1F2322F72E7D5797F79F
:104CD000FF1F23AFE72CB7873200938727A197F6F2
:104CE000FF1F23A9F62C97F7FF1F2387072CB7C7B1
:104CF000004023A4E726B9B7011122CC17F4FF1F07
:104D000013040426084406CE26CA4AC801E905450C
:104D1000F2406244D2444249056182805C58E5DB3E
:104D2000185C75D77000854582971844B247E30038
:104D3000F7FE9305E00417F5FF1F0355252397C0E1
:104D4000FF1FE780407017F7FF1F232FA71C61D1BB
:104D500017F6FF1F035686219305F00F97C0FF1F1C
:104D6000E78080BA814417F9FF1F1309E91997F703
:104D7000FF1F83C7C71F0326090263C1F4023285E0
:104D800097C0FF1FE780407B014597F7FF1F23ADCA
:104D9000071897F7FF1F23AB07189DBF97F5FF1F55
:104DA00083D5C51CB38795020844185C89818504A6
:104DB0003E9508C2029765BF011156C297FAFF1FC0
:104DC000938A0A1A83A78A0022CC4AC84EC606CE06
:104DD00026CA52C45AC0AA892E8432896386072201
:104DE00003A74A03630907141307F01F6367A71497
:104DF00097F4FF1F9384441103AA040263170A0A5D
:104E00009565938515E017F5FF1F0355251697C087
:104E1000FF1FE780406397F7FF1F23A7A7102A868D
:104E2000630B051083A74A0303A58A0097F5FF1FAC
:104E300083D5C5138981829783A78A0003AA0402B8
:104E400017F7FF1F2324F70E8947639CF908C14712
:104E50006313F40E97F5FF1F83D54511938505FC69
:104E60009147B3C5F5028A05D29503C7250093077C
:104E7000A005631EF70A83D70500639A370B4A859E
:104E80002286910597C0FF1FE780E0A09C505285C5
:104E9000639347150145F2406244D2444249B24906
:104EA000224A924A024B05618280D850E38EE7F88D
:104EB0009565938525E017F5FF1F0355250B97C0D2
:104EC000FF1FE78040582A8A3DC52A8683A74A03E8
:104ED00003A58A0097F5FF1F83D54509898182972D
:104EE000A5B78D47639DF900C1476316F40497F594
:104EF000FF1F83D5A507938545FDF199B5B7914768
:104F0000639AF9006319340397F5FF1F83D50506EB
:104F1000A115E5B793070010639FF900A14763EC63
:104F2000870097F5FF1F83D56504C115F9B79C501D
:104F300052856396470D2945B9BF1D6A568B63712B
:104F4000450B130A05E01947334AEA0217F7FF1F1A
:104F50000357C70197FAFF1F938A0AFB330AEA0235
:104F60003E9A83A74A026395470183A40A029DE4FF
:104F70009305E00417F5FF1F035545FF97C0FF1F7A
:104F8000E780604CAA8445D983274B0397F5FF1F20
:104F900083D5C5FD2A86898152858297914513075D
:104FA000A005898193972500A69783C62700639360
:104FB000E60483D60700639C360385058A052286AE
:104FC000A6954A8597C0FF1FE780E08C83A70A0259
:104FD000E38297EC268597C0FF1FE780E0555DBD13
:104FE00021677917E369A7F4330A454185B783C57B
:104FF000370045BF83A70A02E38F97F2268597C043
:10500000FF1FE780605305BF97F7FF1F9387C7EF28
:105010008C5395D191479306A00589831397270058
:105020002E9703462700E318D6F003560700631CAB
:10503000360185078A072286BE954A8597C0FF1FDD
:10504000E780608581BD83473700C1BF97F7FF1FA9
:10505000938707F1984739C79C5FA9C70547631332
:10506000E504411122C417F4FF1F1304E4E91050B2
:1050700006C60DC6485097F5FF1F83D525EF8981D9
:105080008297085097C0FF1FE780004B97F7FF1FDC
:1050900023AC07E897F7FF1F23AA07E8B240224492
:1050A000410182808280011117F7FF1F130747EB30
:1050B0004EC68329870022CC26CA4AC806CE52C4CF
:1050C00056C2AA842E843289638B09201C5FBA8A57
:1050D00099EB2945F2406244D2444249B249224AFE
:1050E000924A056182805C5BEDD79307F01F63EA0B
:1050F000A70E97F9FF1F938929E183A70902B1CB76
:1051000003A58A0083A749026395A706894763938D
:10511000F408C147E31FF4FA17F5FF1F035505E52F
:105120009147130505FC3345F5029317250003A5A8
:1051300009022286CA853E959307A0052301F50042
:1051400023109500110597B0FF1FE780C07401453B
:1051500051B79305E00417F5FF1F035525E197C0EC
:10516000FF1FE780402E97F7FF1F23AFA7DA49F90B
:105170008DB783A74A0303A6090297F5FF1F83D5BE
:10518000E5DE8981829783A78A0017F7FF1F232F07
:10519000F7D8ADBF8D47639EF400C147E31BF4F21F
:1051A00017F5FF1F035585DC130545FD9377C5FFF4
:1051B000BDBF9147639AF400E31D94F017F5FF1FFC
:1051C0000355C5DA2115DDB793070010E393F4F01A
:1051D000A147E3E087F017F5FF1F035525D94115D7
:1051E000F1B79D676379F506930705E01947B3C7E3
:1051F000E70217F7FF1F035767D717FAFF1F130AB6
:10520000AAD0B387E702BE9983270A02A1CF8327DA
:105210004A026399370703250A0291461308A0053D
:105220009305F00F93D72600139727002A9703467C
:105230002700631F0607835807000346370063955E
:105240009806B306D64063CF860485078A07228670
:10525000CA853E95CDBD21677917E36CA7E6B307F4
:10526000F54041BF9305E00417F5FF1F035505D036
:1052700097C0FF1FE780201D97F7FF1F23A6A7CA2F
:1052800059F581BD83A74A0303260A0297F5FF1F3C
:1052900083D5C5CD89814E85829797F7FF1F23A7B8
:1052A00037C995BF2310B70093160601C1829DBF71
:1052B000B385860017F6FF1F035646CB91051306EC
:1052C00006FCE368B6E013063400719A1106B29644
:1052D0002301070123109700A301D700BDB797F75B
:1052E000FF1F938767C29453BE89A9C203A5090211
:1052F00091461308A0059305F00F93D72600139746
:1053000027002A97034627006318060583580700DD
:105310000346370063989800B306D640E3D786F279
:105320002310B70093160601C182C1BF8357C7007F
:1053300017F5FF1F0345A5C39305E0043305F502E8
:105340004205418197C0FF1FE780E00F97F7FF1FDD
:1053500023ACA7BC41FDB5BB17F6FF1F035606C122
:1053600097F5FF1F83C5A5C0B385C50233868600A8
:105370001106E3E0C5D681BF01458280011106CE4A
:105380002EC6EF90500701C9B245F24003552500E3
:1053900005616FD0F054F240494505618280A380D9
:1053A000018E2380018E23A4018C23A6018C23A8C7
:1053B000018C23AA018C23A2018C23A0018C97F7D6
:1053C000FF1F938727C2930640382391D702F176B7
:1053D0001307400B938606B82391E7002392D70268
:1053E00011679D46130600059305000A1305007D0D
:1053F0002392E7002393D70241478546130810F80C
:105400002395E7002396E7002399E700239AE70016
:10541000239BE700239CE7002394E70223900700E7
:105420002393B7002394B7002397C7002398C7009E
:10543000239DA700239E0700239F070023900702B8
:105440002395D70223960703239707029308F007B3
:10545000239807022392E7042393E704239FE7049A
:105460002390E7062391E7062392E7062399170383
:105470001307C01C239AD702239BD702239C070241
:10548000239D0702239E0702239F07022390070400
:105490002391D70423940704239507042396D70464
:1054A0002397C7042398C7042399A704239A0704C2
:1054B000239B0704239C0704239DC704239EC70442
:1054C0002393A7062394070623950706239607062A
:1054D0002397B7062398B70623990706239AE7066A
:1054E0005147239DE7067D57239B0706239C07060C
:1054F000239ED706239F0706239007092391E708D9
:105500008280011126CAAA84214522CC06CE2E848F
:1055100032C636C43AC2EFE0AFE81DC9A246124710
:105520003246930700FD2300F5009947A30095003C
:105530002301F5002303D500A303E5002312C500D2
:10554000AA8522856244F240D24405616FE0AFF43F
:10555000F2406244D2440561828023A4A18C8280FF
:1055600023A6A18C828023A8A18C828023AAA18C4F
:105570008280011122CC4AC806CE26CA2A8901445B
:10558000B30489006368B400F2406244D2444249E3
:10559000056182802EC6EFE0BF8A93170501C183A3
:1055A000A183B2452380F4009307140093F7F70F0B
:1055B000850463F9B700CA9709042380A700137410
:1055C000F40F7DBF3E847DBFC16717F5FF1F0355F4
:1055D000C59FFD176304F502411117F6FF1F03462F
:1055E00066B49385818D06C6EF90803EB240FD572C
:1055F00017F7FF1F231BF79C41018280828009C996
:1056000025151375F50F1335850E1345150082808A
:105610000145828023900500C9C6797122D426D223
:105620004ECE52CC5AC806D64AD056CA5EC636842A
:10563000328AAE892A8B814463F34407B30794000E
:1056400083C70700138914004209939A070193DA6C
:105650000A011359090163840A04CA976341FA04D1
:10566000B307240183CB07005E85513F0DC99387A3
:10567000FAFF2390F90063906B031305190022953C
:10568000B250225492540259F249624AD24A424BD1
:10569000B24B45618280D694C204C18071BF01457E
:1056A000C5B701458280411126C2AE8422C497F756
:1056B000FF1F23A3C79297F7FF1F23ADB79097F75C
:1056C000FF1F23A7A7902A8441469305F00F268544
:1056D0004AC006C6054997B0FF1FE780E02D63105A
:1056E000250597F7FF1F9387E78D884BC1455135F7
:1056F00041469305F00F228597B0FF1FE780C02B2E
:10570000854463189502224497F7FF1F9387878B80
:10571000B24092440249C847C145410199BD414642
:105720008145268597B0FF1FE7800029E31225FDFC
:105730004DBF41468145228597B0FF1FE780C027B6
:10574000E30395FCB2402244924402494101828025
:10575000411122C426C22E84AA8413060002814568
:1057600017F5FF1F1305058606C697B0FF1FE780D4
:10577000A01997F7FF1FA388978497F7FF1F23852A
:10578000879AEFD03018854719C181474945B24003
:10579000224417F7FF1F2307F782924441018280BA
:1057A000814781CD19C98547631BF50083C7550023
:1057B00093E707FCA382F50085473E8582808947F1
:1057C0006317F50083C7550093F7F703E5B70D4757
:1057D0008547E314E5FE03C755001377F703136706
:1057E0000704A382E500D1BF81478DC105C103C76E
:1057F00055009306000C85471377070C6308D70004
:10580000930600048D476303D70089473E85828055
:10581000411122C4005D06C626C21DC8AA840850D4
:1058200009C597C0FF1FE78020D1485009C597C020
:10583000FF1FE78060D0085409C597C0FF1FE780AD
:10584000A0CF228597C0FF1FE78000CF23AC0402C2
:10585000B240224492444101828009ED97E7FF1F44
:1058600083C7677617E5FF1F1305457781CB13853F
:10587000818B828017E5FF1F13054576828017E52F
:10588000FF1F03454574828097E7FF1F9387877347
:10589000C847828097E7FF1F9387C772884B828033
:1058A00097E7FF1F93870772DC4B8843828097E757
:1058B000FF1F93872771D84B1C4385071CC317E52F
:1058C000FF1F034555709307F00F6305F5009165C1
:1058D0006FE0EFF38280011122CC06CE2E8432C617
:1058E000EF9020429147B245631FF5009387418DA9
:1058F0009C438DC303A30700630E0300228562440B
:10590000F240056102839387C18C9C4381C703A346
:105910004700DDB7F2406244054505618280011110
:1059200022CC2A840355450006CE26CA4AC84EC654
:10593000EF90401B35C52A89834405008349C50083
:10594000C13D4A85EF90607B03554400EF90A0363F
:1059500083C7018EB1CB6399970483C5118E2685C9
:10596000EFF0DFA119E12380018E03554400EF9091
:1059700040399147631FF5000357440097E7FF1F25
:1059800083D7A7646317F700FD5717E7FF1F231E90
:10599000F762F2406244D2444249B24905618280D2
:1059A00081499304F00F6DB79307F00FE38FF4FA7A
:1059B0008346640003564400034524004E87A685B1
:1059C000EFF03FB45DB779715EC6AA8B2E8552CCDD
:1059D00056CA5AC806D622D426D24AD04ECEAE8A4D
:1059E000328B368AEF9000107DC1045D2A89E5C0B4
:1059F0009C50614599C3130540039C5481C75105D0
:105A00004205418163050A00710542054181DC5070
:105A100081C75D0542054181EFE08F982A8445C921
:105A20006146814597B0FF1FE78000EE97E9FF1FB1
:105A300083C9495E6394090083490900930700FD07
:105A40002300F400A947A30074012301F4002303F9
:105A500064018C50231254011305840191C908C4B8
:105A60007146930A440397B0FF1FE780C0E2568552
:105A70008C5491C948C45146930A450197B0FF1F01
:105A8000E78060E15685630C0A0008C87146D2853C
:105A9000930AC50197B0FF1FE780E0DF5685CC5021
:105AA00099C548C85D4697B0FF1FE780C0DEA28554
:105AB0004E85EFE04F9E2254B2509254F249624A12
:105AC000D24A424BB24B4A850259456191B3B2501A
:105AD000225492540259F249624AD24A424BB24B82
