:100000006F00A07D000000004A0100004C010000CC
:1000100000000000000000000000000000000000E0
:1000200000000000000000000000000000000000D0
:10003000D807000000000000D80700000000000002
:10004000D8070000D8070000D8070000D807000034
:10005000D8070000D8070000D8070000D807000024
:10006000D8070000D8070000D8070000D807000014
:10007000D8070000D8070000D8070000D807000004
:10008000D8070000D8070000D8070000D8070000F4
:10009000D8070000D8070000D807000000000000C3
:1000A000511126C022C206C4828282441244A24058
:1000B000310182802A86014593F6150091C232955E
:1000C00085810606F5F9828000000000634E050276
:1000D00063C305042E86AA857D5515C285466378BF
:1000E000B6006356C00006068606E36CB6FE014500
:1000F00063E4C500918D558D85820582F5FA828075
:100100008682C93F2E8582823305A04063D70500D1
:10011000B305B040C1B7B305B0408682653F330533
:10012000A0408282868263C70500634905005D376F
:100130002E858282B305B040E35B05FE3305A04007
:10014000513F3305B0408282000001A0B707EFBEE7
:1001500037E700E0938707083CC701A0EFF25FF4A0
:1001600011118545454502C002C202C402C602C83B
:1001700002CA02CCEF00B021854537052000EF0010
:10018000F0229147F1440D448A85371501407C8067
:1001900026C422C2EF00606F89478A853715014067
:1001A0007C8026C422C2EF00406EB72706009387EA
:1001B00007A83EC6B707FFBF375400403EC8B70781
:1001C00000043ECA6C00916713050440FC84EF00F4
:1001D0008073854513050440EF0010017101F1B5EE
:1001E000EFF21FECB75700402A84AE841387074014
:1001F0003A85B7050200EF00D008B75700401387D3
:1002000007407DF585453A85EF00807FB7070300FD
:10021000850737570040BE8513050740EF001005DE
:10022000B707030037570040850765D5014693059A
:10023000000813050740EF005002B7070700938737
:10024000270837570040BE8513050740EF0010020E
:10025000B707070037570040938727087DD1A2854D
:100260001305074037040700EF00607E13044408BD
:10027000B757004013850740A285EF00207FB7578E
:1002800000407DD593D584001385074037040700CF
:10029000EF00E07B13044408B75700401385074084
:1002A000A285EF00A07CB75700407DD593F5F40FF1
:1002B0001385074037040700EF00607913044408F2
:1002C000B7540040A28513850440EF00207A6DD911
:1002D000854513850440EF004074C1BBEFF25FDC3D
:1002E000375400407111AA84930704403E85B70536
:1002F0000200EF000079B7570040938707407DF573
:1003000013050440854537040300EF00606F0504C2
:10031000B757004013850740A285EF002075B757F7
:1003200000407DD50146930500081385074037043A
:100330000700EF00807213042408B75700401385AC
:100340000740A285EF008072B75700407DD5A68593
:100350001385074037040700EF00606F130444085B
:10036000B7540040A28513850440EF0020706DD97A
:1003700085451385044037040300EF0060680504D9
:10038000B7540040A28513850440EF00206E6DD95C
:100390000546930500081385044037040300EF0069
:1003A000C06B090437550040A28513050540EF00D6
:1003B000E06B6DD93704001013040404B7540040F7
:1003C000A28513850440EF00C06B6DD913850440EE
:1003D000EF0020682A84814513850440EF00806582
:1003E000B707001093870704B7540040BE851385F4
:1003F0000440EF000069B7070010938707046DD52C
:1004000013850440EF00E0642AC08545138504404D
:100410002925138504408545312D82471315840015
:100420005D8D42054181110149B1EFF27FC7116530
:10043000111185451305050202C002C202C402C69D
:1004400002C802CA02CCEF008074930700027C80CD
:10045000371401408D473EC28A85E14713050440A9
:100460003EC42521930700047C808A8591471305AB
:1004700004403EC41929F16737440140938707209F
:100480003EC66C00B7070C00130504803ECA02C8C4
:10049000231C0100EF006073854513050480EF0005
:1004A000807F710119B1EFF2BFBF37440140AA84C8
:1004B000930704803E8593050008EF00A07FB747AF
:1004C0000140938707807DD5A68513050480EF0042
:1004D000E07DE1BEEFF2DFBC2A840305040011E1F8
:1004E000E9B61375F50F05047D3FC5BFEFF25FBB9D
:1004F000411111E5130500037D3741017DB6AA8442
:1005000058000144A94526853AC0DD3E024713053F
:100510000503A94508A32685753E0247A54605049F
:10052000050763E996007D145C00A2978823A53F28
:100530007DF8E1B7AA84F9B7EFF29FB62A84635732
:1005400005001305D0028537330480402285793FAA
:10055000A9BEEFF2FFB451110545A92BD52AEF0032
:100560000076E135E53E37150000130585D39D374C
:100570001305E00FA5339567938797446318F50A31
:1005800037150000130545D5B13793057040014577
:1005900081399965938505401545993137140000D7
:1005A00009452D3B2AC40545153BAA8411453D3319
:1005B0002AC20D4525332AC0130544D7213FA2473F
:1005C000139527003E95098115373715000013054F
:1005D000C5D7093793970401C187139527003E9526
:1005E0009357F5013E950585813F371500001305AA
:1005F00085D8CD3592469545139506014185F93448
:1006000042054185153F37150000130505D9D93539
:100610000247131527003A95D13D37150000130501
:1006200085D94D3D1305401FC92D9DBF2A8437151F
:100630000000130505D6793D22854D3D3715000094
:10064000130505D591B7EFF2BFA5371402401C4042
:100650003707FFF8611193E717001CC05C40414564
:10066000F98F5CC01C403707F7FE7D17F98F1CC05F
:100670001C403707FCFF7D17F98F1CC05C40417799
:100680007D17F98F5CC0B7079F001CC40D291C4C57
:100690003706020093E707021CCCB717014003A7F7
:1006A0000740938607401377F7F023A0E74003A79E
:1006B00007401367070823A0E74089479CCA02C088
:1006C00002C21C4C37070140A16693E717001CCCFF
:1006D0005C43D58F5CC31C404167B7160240D98F7D
:1006E0001CC009679C42F18F3EC2824785073EC00D
:1006F000924781E78247E397E7FEB71702409C43A2
:100700001397E7006354070485473EC212478547A5
:10071000631BF702B72702409843B7160240719B4C
:1007200098C3984398C3B7170240D843D8C3D84357
:10073000719BD8C3D84313671700D8C31147DC4255
:10074000B18BE39EE7FE21016FF03F9602C27DBFB1
:10075000EFF21F95371702405C43370400209146A3
:10076000B18B130404016385D704A1466387D704C2
:10077000B7376E01938707601CC0B7160240DC4292
:100780000840918313F7F700B7070020938707000D
:10079000BA978C23DC4293F5F50F93F7070833578C
:1007A000B50081E7EFF01F932A8718C06FF0FF8F25
:1007B000B7177A0093870720C1B75C431397F700F8
:1007C00063470700B777DC02938707C075B7B72781
:1007D000F400938707404DB701A097010020938153
:1007E000E105138181FC1305000A9705002093851C
:1007F0006581170600201306E68063FAC500832290
:10080000050023A0550011059105E3EAC5FE170573
:1008100000001305255997F5FF1F9385A57E170640
:1008200000201306A68163FAC5008322050023A0D9
:10083000550011059105E3EAC5FE17F5FF1F1305E5
:10084000E57F938581806377B5002320050011053E
:10085000E36DB5FEB72200009382028873900230E8
:100860008D427390428097F2FFFF9382A27993E2C8
:10087000320073905230EFF01FDD97020000938238
:1008800082CD7390123473002030944593F70601A3
:1008900093F2F60081C7DC41B3E2F20083D3050096
:1008A00093F7F30FA5C303230500611122C226C0ED
:1008B0008147130480029304800405473316F70030
:1008C00033F7C3006312E602939527003D473317C1
:1008D000B7001347F7FF33736700B395B20033E3F4
:1008E0006500639D860050C985072147E397E7FCB3
:1008F000124423206500824421018280E39696FE03
:1009000010C9DDB78280EFF2AFF9111146212A84B8
:1009100028002EC0752AC246C204C18093F404FC8C
:10092000B7450F00938505243685C20436C2C180C1
:10093000EFF04FFA458D420541814AA01E209246B4
:10094000C207C183F99BC207C1831EA0824790439F
:10095000E1679387076A9315160063E6C704368537
:10096000EFF04FF7AA874205418191466373D500A6
:1009700091471395070141814AAC1E20024793E736
:1009800017001EA01E2056233227C207C183D18E16
:1009900093F757BFD58F1EA016275E27D58F1EA4AD
:1009A00071016FF08FF08247EA23B167FD17631082
:1009B000F502B2953685EFF0EFF1420541819317CC
:1009C000450199E313651500A1675D8D75B7B38780
:1009D000C5008E07B385C7003685EFF0AFEF42053F
:1009E000418191675D8DE1BF1E2189C593E71700A5
:1009F0001EA18280C207C183F99BC207C183CDBFFC
:100A00001E2189C593E707101EA18280C207C183FA
:100A100093F7F7EFC207C183C5BF1E2189C593E7CE
:100A200007201EA18280C207C18393F7F7DFC207A8
:100A3000C183C5BF1E2189C593E707401EA18280DF
:100A4000C207C18393F7F7BFC207C183C5BF0EA911
:100A500082800A291375F50F828093F7E50F19C27A
:100A600093E71500C207C1831EA982805E290A2D63
:100A700042055D8D6D8D220521810D8D133515008B
:100A80008280611102C002C293D7C5012AC23EC052
:100A90008247A205A18199CB9247D1073EC29247D6
:100AA000884321016D8D3335A00082809247C1813A
:100AB000E107EDB7B707002023ACA7028280371704
:100AC00002401C430E0593F777F05D8D08C38280CA
:100AD000EFF20FDD371702405C4391462A84B18B59
:100AE0006383D708A1466385D708B7376E0193871C
:100AF00007601CC0B7160240DC42918313F7F70071
:100B0000B707002093878702BA978C23DC421840EE
:100B100093F5F50F93F707083355B70081E73A854A
:100B2000EFF04FDB48C008C448C4B7170240DC43AD
:100B30008D46AD83FD8B13D737008A07F18BD98F94
:100B400013F6370113F7370063F4C600138747FF26
:100B5000B707002093874701BA978C23EFF08FD710
:100B600008C86FF08FD4B7177A009387072051B762
:100B70005C431397F70063470700B777DC0293875E
:100B800007C085BFB727F400938707409DB799C575
:100B9000371702401C4F5D8D08CF8280B717024087
:100BA000984F1345F5FF798D88CF828099C5371707
:100BB00002405C4F5D8D48CF8280B7170240D84F0E
:100BC0001345F5FF798DC8CF8280EFF26FCD1629DE
:100BD000F577FD17F58FF621DA252111D58F1EA99E
:100BE0005625FD779387379FF58FD6212A842EC00F
:100BF000D58F9625D58FB625D58F5EA55E29C207E0
:100C0000C18393F7F7CF5D8F5AA94800D135B74715
:100C100001409387078082456312F406C2475A2435
:100C2000139517003E9542070E0541873E958C416E
:100C3000635807048605EFF0EFC9930540062AC004
:100C4000EFF04FC9824793144500930540063E8557
:100C5000EFF00FCB5E24C207C18763D507020E05F4
:100C60009305400613052503EFF0CFC61D89C98CF7
:100C7000C204C18006A461016FF02FC3B24745B71B
:100C80008A0555BF12059305400613052503EFF0AD
:100C90006FC43D89E9BF91C55E250967D98F5EA5FF
:100CA00082805A25F977FD17F98FD5BF93F5F51F87
:100CB0004EA182800A216D8D3335A0008280EFF233
:100CC0002FBEB707002003A50701B7157A0093854B
:100CD0000520EFF02FC01375F50FB7070020238F05
:100CE000A70293175500898F8A073E950E05B7070F
:100CF0000020239EA7026FF04FBBEFF26FBA37F4CC
:100D000000E05C40AA85F99B5CC0B707002003D5D2
:100D1000C703EFF02FBA08C8232404001C4093E750
:100D200017001CC0B7F700E0D843058B75DF984368
:100D3000799B98C36FF06FB70D0A3D3D3D2030326F
:100D40005F64656D6F5F696E61323236203D3D3D97
:100D50000D0A0000494E41323236204F4B0D0A0039
:100D6000494E41323236204641494C2C2049443DBF
:100D700030780000566275733D0000006D562020EB
:100D8000567368756E743D0075562020493D00000D
:100D90006D412020503D00006D570D0A00000000FD
:100DA00001020304050607080102030405060708FB
:100DB00000127A000204060804080C10081018201B
:100DC000102030402040608001020304050607081F
:080DD0000102030405060708F7
:00000001FF
