:040000006F10907974
:10000400000000000000000090000020C202002058
:10001400A9BDF9F5780300200000000000000000ED
:100024007803002090000020000000000000000081
:10003400900000200000000090000020000000005C
:1000440090000020900000209000002090000020EC
:1000540090000020240800209000002000000000F0
:1000640090000020900000209000002090000020CC
:10007400DE0300209000002090000020900000206B
:1000840090000020900000209000002090000020AC
:1000940001A04111B7170040985F3AC6945F3247F8
:1000A400E39CE6FE324541018280B7F70700011167
:1000B400944B13078008F337078093F787083EC2F1
:1000C4000F100000B71700401308700523800705C0
:1000D400930580FA2380B7040F10000003C6B70409
:1000E4001376F60DA385C7042380070412467326EE
:1000F40006800F1000001376050255CEF3360780F4
:1001040093F6860836C40F10000023800705238069
:10011400B7040F100000B70614007D89558D88C7F9
:10012400010001000100010023800704A246F3A698
:1001340006800F10000073370780137787083AC6CC
:100144000F100000238007052380B7040F10000060
:100154000F1000003727004093061005A303D78033
:1001640023800704B247F3A707800F10000093070A
:100174008008F3B7078093F787083ECE0F1000007E
:10018400B7170040130770052380E704130780FAAC
:100194002380E7040F10000003C7B70413670708A0
:1001A400A385E70423800704F247F3A707800F1011
:1001B4000000056182801376050459C273360780F6
:1001C4001376860832C80F100000238007052380A9
:1001D400B7040F10000037061400130606047D89C7
:1001E400518D88C70100010001000100238007042C
:1001F4004246732606800F1000007337078013777A
:1002040087083ACA0F100000238007052380B7042B
:100214000F100000A54793F6F60F639EF600B7276C
:10022400004013073005A383E780B71700402380FD
:100234000704D2470DBFB727004013072005E5B7D1
:1002440073370780137787083ACC0F100000238098
:1002540007052380B7040F10000098471367070CA5
:1002640098C723800704E247FDBD0111814601467A
:100274008145114506CE912493078008F3B7078082
:1002840093F787083EC60F100000B7170040130706
:1002940070052380E704130780FA2380E7040F1016
:1002A400000003C76704136717002383E704238050
:1002B4000704B247F3A707800F100000F24005615E
:1002C400828041118146014681451145FD22130773
:1002D4008008F337078093F787083EC40F100000A7
:1002E400B7170040130670052380C704930680FAED
:1002F4002380D7040F100000FD552396B7022380F6
:100304000704A245F3A505800F100000733707808A
:10031400137787083AC60F1000002380C704238090
:10032400D7040F10000003C7670413671700238363
:10033400E70423800704B247F3A707800F100000E7
:1003440001A0BD473305F50201007D1575FD8280CE
:10035400411122C426C206C6AA840144631794002C
:10036400B240224492444101828005041305803E38
:100374004204C13F4180DDB79305000273A045806C
:1003840082457390153492402242B2424243D24392
:100394006244F244025592552256B2564257D257FD
:1003A4006258F25806499649264AB64A464BD64BF5
:1003B400664CF64C065D965D265EB65E465FD65F7D
:1003C4000961730020304111B7170040985F3AC6A5
:1003D400945F3247E39CE6FE324541018280B717C1
:1003E4000040130700032388E702854723A8F18C04
:1003F40073002030411106C6EF008079F5BF230356
:10040400048015472303E48001002302A480828032
:1004140083076480E3CE07FE23030480828083077E
:100424006480E3CE07FE03454480828083076480B2
:10043400E3CE07FE2302A4808280411126C44AC26F
:100444004EC006C61377F50BAD47AA892E8995448D
:100454006306F70019456537653F8D444E8545377A
:10046400FD59FD1463983401B240A24412498249F3
:1004740041018280135509011375F50F453F220987
:10048400CDB7011126CC06CEB70408005137154567
:10049400BD37713769372AC6A53F324593771500B2
:1004A40089EB136515001375F50FF240E2440561FD
:1004B4008280FD14E9FC0145CDBF397126DC4ADA9E
:1004C4004ED852D656D45AD25ED006DE62CE66CC10
:1004D400B7E700E07D5783AA070022C603AA4700B6
:1004E40023A0E71823A2E718B717004013077005E5
:1004F4002380E704130780FA2380E70483C74704B3
:10050400930B75FFB684E20793FBFB0F8546AA891C
:100514002E8B328937240040E187015763FA760134
:100524006308D5008946130700026313D5000157F9
:10053400D98F93F7F70FB71C00402382FC041147AF
:100544002303E4801305F00F5D3D094CD135636D41
:100554007C11B7050700DA9537870700795563F2F0
:10056400E504B3879500636EF702370B0800A947CB
:1005740033EB65016399F90689E48144513D26858D
:100584000DA0DA850945553D05090345F9FFFD141C
:10059400050B693D81C49377FB0FFDF7DD3569FDDC
:1005A4007D55B7170040130770052380E704130730
:1005B40080FA2380E70403C74704418B2382E704BE
:1005C400F250B7E700E023A0571123A24711E254E9
:1005D40032445259C259325AA25A125B825B724C4B
:1005E400E24C21618280A5476395F9068569130968
:1005F400F00FB3069900B3742B01B6941349F9FFB5
:10060400B3749900856B33796901416B9387F9FF62
:10061400B3F7270199E363FC340193D94900C14737
:10062400E3E637FF99BF0569C1697D19D9B7130599
:10063400800D638869011305000263847901130541
:100644001008CA85DD3B353D21DD4E99B384344124
:10065400D9B7DA852D45D533CA94E30099F2050953
:100664007D3BA30FA9FED5BF9387F9FF93F7F70F3F
:100674006361FC0C83C71C0413073008631FF70471
:1006840037070800636BEB04B3079B00B706100041
:1006940063F5D704334BEB0089476393F9068980EC
:1006A400D549E38C04ECDA850945413B110903275C
:1006B400C9FF91472320E48003076480E34E07FECB
:1006C40023033481FD17EDFBFD14110B81C49377D3
:1006D400FB0FE9FF7D3371F5E1B5B717004003C7A0
:1006E4005704B70708001377070219E3B787070011
:1006F4007955E378FBEA33079B00E3FFE7F855B548
:100704008547E382F9F2DA852D45053B9389F4FFA9
:10071400E38504E6293393F7390091EB83260480BB
:100724000327090093074900E39AE6E43E89CE844F
:10073400F1BFB5476396F9001305900BC93135BD78
:10074400B1471305B00AE38BF9FE99476391F904A5
:10075400B7050800B365BB002D45C53181448D4BF9
:10076400A149753963967401832704802320F90015
:100774008504E39834FF8327048013172B01635502
:1007840007002312F900D5BB2322F900FDB39D47CE
:100794006399F90281451305B0044531BD44232012
:1007A400090023220900FD599D3993F77400CA9763
:1007B40003C70700FD14398D2380A700E39634FF97
:1007C4006DBBA1476392F9046D398144630D0B003D
:1007D4008D479304C0036308FB009304000563047E
:1007E4008B01930440041375C507E30895D8194594
:1007F400393139390545213126850D3909453D31D0
:100804004931E31C05D669BB91476399F900130587
:100814006006F536F53E130590090DB7E38F09D44C
:10082400F154A9BB197106C212C416C61AC81ECA4D
:1008340022CC26CE2AD02ED232D436D63AD83EDA9C
:1008440042DC46DECAC0CEC2D2C4D6C6DAC8DECACC
:10085400E2CCE6CEEAD0EED2F2D4F6D6FAD8FEDA7C
:100864009385818C8841E700050092402242B24280
:100874004243D2436244F244025592552256B25640
:100884004257D2576258F25806499649264AB64A00
:10089400464BD64B664CF64C065D965D265EB65EC0
:1008A400465FD65F096173002030B7E700E09843E4
:1008B400B706200023A0D718758F0F10000001C5BC
:1008C40099C1814711E6B7E700E023A0E7108280D1
:1008D400B386F50003C80600B306F5008507238038
:1008E4000601E317F6FEC5B737E700E01C43B70679
:1008F40020002320D718F58F0F10000019C191C1D3
:1009040011E637E700E02320F7108280910503A762
:10091400C5FF11057D16232EE5FEDDB737E700E0A0
:100924001C43B70620002320D718F58F0F100000B2
:1009340001C53307C50011E637E700E02320F710AF
:1009440082800505A30FB5FEE31DE5FEF5B78147DB
:100954003307F5000307070019E33E858280850706
:10096400C5BF37E700E01C43B70620002320D71893
:10097400F58F0F10000001C599C1014711EA37E74F
:1009840000E02320F710054582800507E309E6FE11
:100994003308E500B386E5000348080083C6060073
:1009A400E305D8FE37E700E02320F71001458280F5
:1009B4009307F6FFBE952A966313C5008280FD1542
:1009C40083C715000505A30FF5FEFDB7AA870145EA
:1009D40081CF09CE3E96850703C7F7FF6317B7009B
:1009E400E39BC7FE05458280828001458280797140
:1009F400973700009387075022D4804306D626D227
:100A04004AD04ECE52CC56CA5AC85EC669C037C9FF
:100A1400C901014B973900009389494D1309F937EE
:100A2400173A0000130A4A4D973A0000938A4A473E
:100A340097340000938404518357240095E35C4465
:100A4400631D0B00173700002326F74A832BC400CD
:100A54002285EF00B0255E84A9A82326FB00FDB7FC
:100A640083A7090082971C443307F5406375F5009A
:100A7400D8401D8F2A976361E9089737000023A99E
:100A840007428355240003450400974000E0E780B3
:100A940020E05C405844B9C70C44D040AE97BE86B1
:100AA40063E4B70063E4C700B386C74014C4228B71
:100AB4003A8459F0973700009387873E9C4B094747
:100AC4006373F708F917173700002323F73EB25072
:100AD400225492540259F249624AD24A424BB24BCE
:100AE4004561828063170B009737000023A4E74019
:100AF400B1BF2326EB0099BF03274A021DCF63E150
:100B0400A7043385A7408347040085E31737000013
:100B14000347F73F5917B307A7003E85D44063E462
:100B2400E70063E4D7003385D74083A70A016376DF
:100B3400F5009737000023ADA736228B404495BFBC
:100B4400D840BA977DBF9737000023A3073641B733
:100B5400973700009387873E9C4385C3411106C69F
:100B640082979737000083C7473889E79737000093
:100B740023A6073CB240410182809737000083C717
:100B8400C73691E79737000023AA073A828082800C
:100B9400411122C417340000130444331C4006C618
:100BA40026C24AC091C782979737000023A0073214
:100BB4009737000083C75752858B173900001309F4
:100BC400695189CF8347790019476312F710973722
:100BD4000000A38307503D235C4482971C4491C3C7
:100BE4008297973400009384A4309840173600000D
:100BF4000346162B9737000083C7872A939617005E
:100C0400BA9683D60600E5C29737000083C7472902
:100C140063E5C70E97370000238407281C40639EB2
:100C24000714973700009387672C9C436387071446
:100C34009737000093870731DC43173700002329D7
:100C4400F72675339737000083C7774963970712F0
:100C54009737000083C7974891CF8347790093F76C
:100C6400F70F89EB97370000A38A0746974001E006
:100C7400E780E03A9737000093870728DC53638EB8
:100C8400070E973700009387A7219C4BFDC7834726
:100C9400790015476363F70E9737000083C7074948
:100CA400918BE1EF9737000083C72724F9E7904041
:100CB4009736000083C6D61E63C7D70C2244B240C1
:100CC400924402494101174300E06700031E834731
:100CD40079001D47E314F7F097370000A38E073E11
:100CE40015211C48DDBD850793F7F70F97360000E3
:100CF4002388F61AE3E0C7F001BF86073E978355C1
:100D040007002310070097370000239F071C97371D
:100D140000009387671B9C43173500000345451863
:100D240013172500BA979C4382979737000083D7FF
:100D3400A71B173700000347A71693C7F7FF7D8D3E
:100D44009317170098403E97835707005D8D231033
:100D5400A7009737000083C7A71491C785071737E3
:100D64000000230FF7121737000003476713973764
:100D7400000083C7F712E37FF7E8B24022449244AD
:100D840002494101828013971700329703570700E5
:100D94006DF7850715B737C700408326C720B70707
:100DA400FCFFFD17F58F2326F7200100010097377C
:100DB40000009387E70EC84F832787262326D72072
:100DC4006A0593C7F7FF99835D8D82800111973778
:100DD40000009387A74122CC03A4070C26CA06CEA1
:100DE4002AC42EC6854419E40145F2406244D24423
:100DF400056182808347910003471400858B630457
:100E0400F7000044CDB719469305A100130524004B
:100E1400893EE31895FE0545C9BF0000EFF05FD396
:100E24007300000000000000973200009382E20B80
:100E34000383020023800200630F0300F3251034B0
:100E44002EC0970500009385A5FD73901534EF001F
:100E5400E0507300203086DCEF004050E650828082
:100E64000000173700001307A7261443411122C4BA
:100E74009C5E4AC006C6998326C2858B3A8417397C
:100E840000001309A924D1CB930700069CDE173771
:100E940000000347872493070008973400009384D5
:100EA4006423631BF700832709009C4393F707041B
:100EB400173700002303F72283C7040093F70704BE
:100EC4009DC397370000938767029C4382979737A7
:100ED400000023AFA72083C7040093F7F70B17374D
:100EE40000002309F71E83C7440093F7070495E71E
:100EF400854717370000A301F71E97370000938733
:100F0400E71F9C433707020098C7130700FC973676
:100F140000002383E61C9848F8D318401C5F918393
:100F2400858B8DC31C5F93E707011CDF9737000097
:100F34009387C71C9C4323A20706854717370000E5
:100F4400230CF71883270900D8430583058B19C799
:100F5400D843759BD8C3D843799BD8C3B2402244A5
:100F64009244024941018280ED3D73002030931781
:100F7400D50063D3070297370000938727189C4353
:100F84007D57B8D797370000938787F1DC4F8507E3
:100F9400173700002324F7F2937785009DCB97370A
:100FA400000083C7471393E7170017370000230493
:100FB400F712930700F817370000230FF71097373D
:100FC40000009387E71098435C57F19B93E7170061
:100FD4005CD7937715008DC79737000083C7970FA9
:100FE40093E7170017370000A306F70E97370000A2
:100FF4009387070E98435C57F19B93E717005CD7E0
:101004009377650095CB9377450017370000130756
:10101400670CCDCB8347070093E717001737000011
:10102400230AF70A973700009387870A98435C5787
:10103400F19B93E717005CD79317F50063D407027D
:101044001737000003470722418B97370000938727
:10105400E71951C383C7870793E7070217370000CF
:101064002302F7209317E50063D7070297370000A0
:1010740083C78706E207E18763D7070085471737E9
:101084000000230BF70497370000938727079C433E
:101094003707020098C79317C50063D407021737B0
:1010A40000000347371C058B97370000938707140C
:1010B40029C383C7970793E7270017370000A303C3
:1010C400F71A82808347370093E717001737000029
:1010D400A303F70081BF03C7870789463D8B6308D5
:1010E400D70083C787070D47BD8BE39DE7F691477C
:1010F400B5B703C79707118B69D783C7970793E7DA
:10110400870065BF97370000938747FF944397375D
:101114000000938727FC03C70700058B11CB973783
:101124000000238B07FA97370000A38707FA828011
:1011340003C71700058B65F7F85271FF83C7570083
:10114400DDB7173700001307A7F803280700832724
:1011540088039583858BADEF11C683270803BD8370
:101164002300F6009DC61C43985B4607935767010E
:101174006356070093E707C0C207C18303970600BD
:10118400C207C18709C7BA970947B3C7E7022390C3
:10119400F6008DCD8345150095C99737000083C7A8
:1011A400C7F393F7070413879500894585C33A95D8
:1011B400834705000547994593F6F7066398E600CB
:1011C400E207E187814563D30700B9452E85828014
:1011D4008545EDBF411122C406C626C2173400005E
:1011E4001304C4F145E114402E87FC52FDFF9737E8
:1011F4000000238207EE973700009387E7CFD4538C
:10120400BE8495C6B7E700E0B706200023A0D72820
:10121400B7F700E083A607D1ED9A23A8D7D083A619
:1012240007D193E6860323A8D7D0730050103A85DC
:10123400B285974001E0E780E0C5973700009387C7
:1012440027E99C43B70680009843558F98C3D85725
:10125400719BD8D797370000A38007E89737000021
:10126400A38A07E61C40094798C3DC5085CF37F7AB
:1012740000E0832707D193E787002328F7D0730082
:1012840050100DA08D476315F50497370000938720
:1012940027E49C43B70680009843558F98C3D857DA
:1012A400719BD8D71440173700001307A7E2834770
:1012B4002700858B89EB83473700858BC9CF973708
:1012C4000000238B07E0B240224492444101828013
:1012D4008547E319F5FC973700009387E7C1D4539A
:1012E4003E8795C6B7E700E0B706200023A0D728BD
:1012F400B7F700E083A607D1ED9A23A8D7D083A639
:1013040007D193E6860323A8D7D073005010144066
:101314008177FD17D046F18FDCC60F100000144012
:10132400B70702009CC6930700F897350000238591
:10133400F5DA973700009387A7D99C439C439D8394
:10134400858B99C793076019FCD2D0C65C5339BF0B
:101354009307E01BD5BFFC52B9FBB5B79737000024
:101364009387C7D99C438847D847798D09C988C7CB
:101374009387019603A3070063030300028382801B
:1013840097370000938787D798438967938707F433
:101394007CD3973700009387A7DB9C4383A6070978
:1013A400139656006358060083A607091396660031
:1013B400634406007453FDF282804111B7E700E0F4
:1013C40022C480433707200006C6798C23A0E7187F
:1013D4000F10000011C199E5B7E700E023A08710C2
:1013E40001457DA893073500C207C183F19BC2075D
:1013F400C183130740036369F7021737000013071B
:1014040067DE084317370000130747DD1443639270
:10141400A60217370000130727AE185B55DFC20773
:10142400DD8D054502974DBF17370000130747DBD5
:10143400C9BF035765002DEB035745006366F706E4
:10144400B306F7402146637CD60203280500938641
:1014540087001D8FAA966117173600000356A6A4AD
:101464002392E60023A006012393060014C123124D
:10147400F500130786FF973600002396E6A2231390
:10148400B5009735000083D505A2B387F54017371B
:101494000000231AF7A0B7E700E023A08710210576
:1014A400B240224441018280084195B7B7E700E089
:1014B4008C433707200023A0E718F98D0F10000094
:1014C40001E523A0B710828097370000938787D166
:1014D40003A3070097370000938747D083A807002A
:1014E40081469A8763F2170D03A807006361F50C20
:1014F400636FA80A138787006368E50A03D6670049
:10150400216705076317E60003C781950507238C48
:10151400E194173500001305A59803D64700035737
:10152400650023930700329742074183173E00006A
:10153400231BEE96638C670217330000130343CA20
:10154400032303006304F30203D36600631003025E
:1015540083D7460023A0060121073E962106239245
:10156400C600973700002390E794B6879843630D2D
:101574001703973600009386A6C694426306D702E3
:101584008356670095E283D6470003564700184305
:10159400A106B2962392D70098C383576500A1078A
:1015A400173700002311F790B7E700E019BFBE8694
:1015B400C2870DBF03278511630407120346E504A0
:1015C400854663000612411122C406C68347C5003E
:1015D4002A8493F7C70F2306F50083459700035821
:1015E400C700139585016185637006096359050673
:1015F4000345870093F5F507A304B70093E5270097
:101604006314D50093E517002306B4005C438907EF
:101614005CC3A30AC400032504114C430905EFF07D
:10162400CFA88327841103465401D44303D7C700AA
:10163400B296118FD4C32396E7008947A30DF40013
:10164400034764039737000083C7278C6377F70445
:101654008347C40093E707012306F4003DA893E7FA
:1016640017002306F40075B71376F80F635D0502BF
:101674000345870093E527006314D50093E517001D
:101684002306B400A30AC400A30407008547A30DDE
:10169400F400832784119C43C5F7B2402244814659
:1016A40036854101828093E717002306F400A30ADC
:1016B400C400A3040700032504114C434286090512
:1016C400EFF0AF9E8327841103465401D44303D71C
:1016D400C700B296118FD4C32396E7008D4745BF48
:1016E400854636858280973700009387E7C29C43FE
:1016F400411122C406C6858B2A84C5EF41651305B2
:1017040025F5970002E0E78000F045C58347A50072
:101714002315F50083270412BDE72320A4122322F6
:10172400A41285472311F404232005008347640190
:1017340054412316F5000347D4002304E50005476C
:10174400A304E500173700001307C79858531385FF
:10175400170215811C437D151375F50F9CC25C435C
:10176400DCC21C479CC65C47DCC61C4B9CCA5C4B59
:10177400DCCA1C4F9CCE5C4FDCCE19CD938606028E
:1017840013070702C1BF8327441288C38357240465
:101794002322A412850779B79737000083D787A53A
:1017A4008507173700002317F7A4B24022444101EC
:1017B40082808347C40023090400054593C747007A
:1017C4002306F400DDB78347850193F7E70FD5EFD0
:1017D40083479501DDEB034625018346C50009CA0D
:1017E40083456503172700000347377263E7E50065
:1017F40013F7060141CF014709C6C18A0357651C87
:1018040081C68356A51C369751C31307C7121725E3
:1018140000000355A573B335A70237460F004111E5
:1018240013060624814622C426C206C67D54330507
:10183400A702973002E0E78020B99727000083C70A
:10184400176DB384A700973700009387279A03A7DF
:1018540087098327070963F387003E84184375FBD0
:1018640097270000938787689C4382978147636426
:10187400A400B307A440B2402244B3B7970093C76F
:10188400170092443E854101828081473E858280D3
:10189400973700009387878698433C5BFDFF0100E0
:1018A40001008280011122CC4AC84EC606CE26CA47
:1018B40052C456C25AC00347B50085472A842E89AC
:1018C400832905096311F72683570508835AC5033D
:1018D400172A0000130A0A67172B0000035B0B6723
:1018E40063FB5721834605016397E620032785118F
:1018F400631307200327450A631F071E8346F50069
:101904001D47639AE61E03471401B38AFA401395F0
:101914000A01418121CF9377170099CB8357E405BE
:1019240083560404958F63D5A7001395070141815D
:101934009377270099CB8357E41283560404958F39
:1019440063D5A7001395070141819377070199CBCC
:101954008357C41483560404958F63D5A700139545
:1019640007014181218B11E311E105450357A403CC
:101974009307204E832444093305A70237460F00FA
:101984008146130606243305F5029727000083C712
:101994000758B3549502B335AB02BE94C204C18058
:1019A400231394083305AB02973002E0E780C0A10B
:1019B400B307350133B5A7002E953E8783264A0029
:1019C40019E163E4D7003387D740B3846403B7468F
:1019D4000F009387F623938606242320E900A69715
:1019E400B3D7D702D6976362F7101D8F2320E9007F
:1019F400972900009389894F83A70900832409004C
:101A0400829763E5A4123385A4406354050C83A72D
:101A140009008297032709006361E512198D835732
:101A2400E40317270000035767528E07B387E702C2
:101A34001307003293870719B3D7E70263E7A710A8
:101A4400374A0F00130BFA23972A0000938A8A4F10
:101A5400130A0A248357040485072310F4048347D4
:101A6400041499E322855922228597F001E0E78046
:101A740000AD75E9832604098327C40803A74A0037
:101A8400B6973E8563E4D70063E4E7003385E74017
:101A94008347F401835464082328A4088507A30F0B
:101AA400F4009727000083D7674AB384F402DA94DA
:101AB400B3D444036368950CB304954083A7090029
:101AC40023209900829763E3A40C3385A440E34365
:101AD40005F89727000083C7974363E7A70897276C
:101AE400000023A5877A014541A083264A00B387D5
:101AF400F6403E97E5BD8354640837470F009307CB
:101B0400F723B3846403BE9493070724B3D7F40282
:101B140063E7F900B387F9402320F900D1BD032717
:101B24004A00BA99C5BF23A03501D9B5972700004B
:101B340093874741DC43BE94F9B597270000938708
:101B44006740DC43998F3E95D9BDA145228597F026
:101B540001E0E780A097A305A402972700009387DC
:101B6400A7399C5B81EF7D55F2406244D2444249DF
:101B7400B249224A924A024B056182808945154541
:101B84008297D5B7B3049740AA940DBF83A74A00A0
:101B9400BE9425BF39C901116C0022CC06CE2A841B
:101BA40011331DCDFD576302F502B247972500009E
:101BB40083C5F53563EFB70003459402B385B74099
:101BC4002EC6973000E0E78040E4F24062440561AD
:101BD4008280172700001307E7365843BA97E9BFF6
:101BE40097F001E0E7802053CDB78280797126D247
:101BF40006D622D44AD04ECE52CC56CA5AC85EC655
:101C04008347550303447513AA843E941374F40F55
:101C14009307400263F687001304B4FD1374F40FB2
:101C240003AA841383AAC413A38B84122286528525
:101C3400D685972002E0E7802036058915E503CB99
:101C4400D41201498149337B6403930B50024A86C1
:101C54005285D685972002E0E7800034058915C5B2
:101C6400639169031374F90F238B8412B2502254C5
:101C740092540259F249624AD24A424BB24B4561EC
:101C840082808509E20993D989410509E31179FD27
:101C9400E1BF8327850903560504797193D60701AB
:101CA400BD8EC206C182358E135776409357564077
:101CB400898B058B5D8F93573640918B5D8F93573E
:101CC4001640A18B5D8F93171600C18B5D8F931700
:101CD400360093F707025D8F9317560093558600DD
:101CE40093F707041E065D8F1376F60F518F93D773
:101CF400554013D63540118A898BD18F13D6754040
:101D0400D18F13D61540218AD18F13961500418A9D
:101D1400D18F1396350013760602D18F1396550092
:101D2400137606049E05D18F93F5F50FCD8FA20788
:101D340045465D8F3307C70222D42A8426D252CC6B
:101D440056CA032A8413832AC4135AC806D636975C
:101D54004207418393577740135557400989858B30
:101D6400C98F135537401189C98F135517402189DD
:101D7400C98F131517004189C98F131537001375BF
:101D84000502C98F13155700935587001375050471
:101D94001E07C98F1377F70FD98F13D5354013D783
:101DA40055401189098B498F13D57540498F13D537
:101DB40015402189498F139515004189498F139541
:101DC400350013750502498F1395550013750504E5
:101DD4009E05498F93F5F50F4D8F2207D98FB38751
:101DE400C7024AD04ECE5EC662C4B697C207C1834C
:101DF40013D7774013D557400989058B498F13D5DD
:101E040037401189498F13D517402189498F13957C
:101E140017004189498F1395370013750502498FBF
:101E24001395570093D58700137505049E07498FB2
:101E340093F7F70FD98F13D5354013D75540118930
:101E4400098B498F13D57540498F13D515402189C6
:101E5400498F139515004189498F139535001375E2
:101E64000502498F13955500137505049E05498F86
:101E740093F5F50F4D8F2207D98FB387C702130649
:101E840050025285D685B697BD8E93940601C180C3
:101E940033F6C402137BF60F972002E0E780C00FED
:101EA40005890DED8347D41201498149B384970212
:101EB400130C5002C1804A865285D685972002E0D1
:101EC400E780800D0589937BF90F11C56386340380
:101ED400850993F9F90F0509E31F89FD230B6413A1
:101EE400B250225492540259F249624AD24A424BA5
:101EF400B24B224C456182805E8BCDB7011197278E
:101F040000009387A72E22CC03A4870C26CA4AC8B4
:101F14004EC606CEAA8413092500854915C083C779
:101F2400140003473400858B6304F700405CFDB75D
:101F34001946930544004A85EFE0BFA2E31835FF34
:101F44002285F2406244D2444249B249056182800A
:101F54004111972700009387672922C403A4870CA3
:101F640026C24AC006C693042500054901E8228515
:101F7400B24022449244024941018280A68513055D
:101F8400A402970002E0E780C077E30225FF405CEB
:041F9400F1BF000099
:101F980097110020938181CB1751002013010186EE
:101FA8001305400097E5FF1F938545051706002098
:101FB800130606FE63FAC5008322050023A0550018
:101FC80011059105E3EAC5FE174502001305C5642E
:101FD800970500209385C5FB1386018863FAC50021
:101FE8008322050023A0550011059105E3EAC5FEEB
:101FF8001385018897250020938505336377B500FD
:10200800232005001105E36DB5FEFD42739002BC67
:102018008D4273904280930280087390023097E259
:10202800FF1F9382A2FD93E23200739052309722F1
:1020380000009382823073901234730020303D4345
:102048002A876373C3029377F700BDEFADE59376F4
:1020580006FF3D8ABA960CC34CC30CC74CC7410750
:10206800E36BD7FE11E28280B306C3408A0697026B
:10207800000096966780A6002307B700A306B7005E
:102088002306B700A305B7002305B700A304B700CC
:102098002304B700A303B7002303B700A302B700C4
:1020A8002302B700A301B7002301B700A300B700BC
:1020B8002300B700828093F5F50F93968500D58DA0
:1020C80093960501D58D61B7939627009702000076
:1020D80096968682E78086FA9680C1171D8F3E966F
:1020E800E374C3F8A5B7B717004003C7770513779C
:1020F800E70FA38BE704130700F8A38DE7043D4718
:10210800238CE70413075003A38CE70403C7A70530
:102118001377D70F238DE7048280B717004003C7D2
:10212800E7020D8941111377C70F498F930680087D
:10213800F3B6068093F6860836C60F10000093069D
:1021480070052380D704930680FA2380D7040F10E4
:1021580000002387E70223800704B247F3A707801C
:102168000F1000004101828041112A83014E930E15
:10217800407E130F0019930F400663E56E12930813
:10218800001913034006B3781503854E0D4FA14F70
:10219800337365020D891335150063EFBE121308FA
:1021A800F6FF794672984208135808013307C702A8
:1021B80013D61700BE0732976146B3F6C602130658
:1021C8008070B386C6023697A166F58F42075D8F89
:1021D800B716004083C7F60293F70708A303F10078
:1021E8000346710083C7F60293F70708E394C7FE16
:1021F80083477100B716004093F7F70F63880712FB
:1022080093078008F3B7078093F787083EC40F1039
:102218000000B7170040930670052380D704930683
:1022280080FA2380D7040F10000023AA070383C66F
:10223800170393E60608A388D70223800704A2475A
:10224800F3A707800F1000001166B71700407D162E
:10225800D45BC85F93854703A98EF18EF5FA930680
:102268008008F3B6068093F6860836C60F1000007D
:10227800930670052380D704930680FA2380D70439
:102288000F10000098C103C7170313670704A3883A
:10229800E70223800704B247F3A707800F10000066
:1022A800410182807D133368E3039308E016630ECF
:1022B80008003368F3039308D0166308080093787E
:1022C800330093B818009388D81633081E01131EDC
:1022D8000801135E0E0155B56393E503054863864F
:1022E80008000148630303002A8871087298FD15E5
:1022F800131E0801C205135E0E01C18179BD13F8D2
:10230800150063F4BF007908D5B713381800E5BF86
:1023180083C7F60293F70708A303F1000346710089
:1023280083C7F60293F70708E394C7FE8347710053
:1023380093F7F70FF1DFE9B531714AD966CB06DFBC
:1023480022DD26DB4ED752D556D35AD15ECF62CD89
:102358006AC96EC7AA8C02D8EF0010122A8993079F
:102368008008F3B7078093F787083EDA0F1000005C
:10237800B7170040130770052380E704130780FA96
:102388002380E7040F10000003C7F7021377770FC5
:10239800A387E70203C7F70213678700A387E7024B
:1023A80023800704D257F3A707800F1000000545C4
:1023B800AD33130780C13347E902116A93070AE86E
:1023C80093065002BD69930BA004814A014B130484
:1023D8008008930470057D1AB347F9023307D702C2
:1023E8003EC0FD873ECC938709A69309803E3347BC
:1023F800F7023AC27D873AC4334739038549B3990E
:10240800990193D93940B306D702B30B7703B3C602
:10241800F602B3CBFB0236C6FD8636C893D6FB411F
:1024280036CEB7460F00938606243349D90285660F
:10243800938606FAB3969601B389E9021307805288
:102448003309D90293060010B389E9023349D90246
:10245800B3C9F9029316390036CA37190040FD8608
:1024680036D0930D090493D7F9413ED2F336048050
:1024780093F6860836DC0F1000009307700523805A
:10248800FD00930680FA2380DD000F1000008346CC
:10249800390593F6860FA309D9048346390593E6CF
:1024A8001600A309D90423800D00E256F3A606807E
:1024B8000F100000130C80FA116DF336048093F6A8
:1024C800860836DE0F100000930770052380FD0094
:1024D80023808D010F10000083463905216693E69D
:1024E8000602A309D90483560905B3E6A6012318F1
:1024F800D90483560905D18E2318D90423800D00E9
:10250800F256F3A606800F1000008346390593F6AD
:1025180006026389061803463905218A6DDE081804
:10252800612F7336048013768608B2C20F1000003C
:1025380023809D0023808D010F100000B7170040F5
:1025480003C637051376F60DA389C70403C63705F6
:1025580013660602A389C704835609052166B3E6F4
:10256800A6012318D90483560905D18E2318D90446
:1025780023800D009646F3A606800F1000008346C0
:10258800390593F606026386061483463905A18A3F
:10259800EDFE97E0FF1FE78080AFAA8636D497E06C
:1025A800FF1FE780C0AEA256E30AD5FE8356090591
:1025B8004255B3E6A6012318D904392F83463905B5
:1025C800A18AEDDE0356090583462905824733763D
:1025D800CA00B306DA0293D5F641B296B388F6403C
:1025E800E24733B8C6002E983308F840A247B3B67E
:1025F80016013308D84063C70701631DF8009247E6
:1026080063FA1701C247634DF80E63950701B24795
:1026180063E8F80E894663E7660FF24693151800DB
:1026280013D3F8015E8613951800B365B30042D63C
:1026380046D4EF10321B3258050B137BFB0F634750
:10264800000163120838A258638F08361308150072
:10265800B336A800B69513D6F5013298B336C8003C
:10266800AE9613581800FE06B3E6060173360480CA
:1026780013768608B2C60F10000023809D002380C1
:102688008D010F1000000356C902B296C206C1821E
:102698002316D90223800D00B646F3A606800F1034
:1026A800000021BDF336048093F68608B6C00F10EB
:1026B800000023809D0023808D010F1000008346B9
:1026C800390593E60602A309D90423800D0086463E
:1026D8000DBDF336048093F68608B6C40F100000CB
:1026E80023809D0023808D010F100000834639054B
:1026F80093E60602A309D90423800D00A646A5BDCA
:10270800E30D0BF0F336048093F68608B6C80F1075
:102718000000930680FA23809D002380DD000F10BF
:1027280000008346390593F5FC0F93F6860FA3093D
:10273800D90483463905CD8EA309D90423800D0019
:10274800C646F3A606800F100000130580FA03465C
:102758003905930639051D8A631496297336048052
:1027680013768608B2CC0F100000130680FA238077
:102778009D002380CD000F10000003C606001376CD
:10278800F60D2380C60003C60600136606022380E2
:10279800C600835609051166D18E2318D9048356BD
:1027A80009052166D18E2318D90423800D00E64639
:1027B800F3A606800F100000130680FA8346390539
:1027C80093F606026388062483463905130C3905F7
:1027D800A18AFDDA0818CD21F336048093F686081D
:1027E800B6D00F100000930680FA23809D00238046
:1027F800DD000F10000083460C00116693F6F60DFD
:102808002300DC0083460C0093E606022300DC006C
:1028180083560905D18E2318D904835609052166E4
:10282800D18E2318D90423800D008656F3A606807E
:102838000F100000130680FA8346390593F6060246
:102848006385062083463905A18AEDFE97E0FF1FC0
:10285800E780E0832A8C97E0FF1FE7804083E30C42
:1028680085FF8356090511664255D18E2318D90470
:10287800A5218346390513063905A18AFDDAF33601
:10288800048093F68608B6D40F100000930680FAE9
:1028980023809D002380DD000F1000008346060082
:1028A80093F6F60D2300D60023800D00A656F3A656
:1028B80006800F1000008356090503462905D247F4
:1028C800B376DA003306CA021305800C9355F64135
:1028D8003696330DF6408257333CD6002E9C33365D
:1028E800A601330CFC40330CCC40330885039256C8
:1028F8004E86B335A5033305A503C295EF10826E46
:1029080063468001631E0C16630C0D161306150032
:102918003335A6002E959356F5013696B335D60075
:10292800AA959396F50105828585D18E6346B000F8
:10293800639D051A638B061A0356C902158233056F
:10294800D6003336C500B2956348B00063910524BC
:102958001306F00F637DA622894663F35615930785
:102968008008F3B7078093F78708BED60F100000DA
:1029780037170040930770052300F704930780FA80
:102988002300F7040F1000008356C70289678117D8
:10299800D58FC207C1832316F70223000704B65751
:1029A800F3A707800F100000FA506A54DA544A5906
:1029B800BA592A5A9A5A0A5BFA4B6A4CDA4C4A4D67
:1029C800BA4D296182801308F5FF3335A800FD153B
:1029D8002E951356F5013298B336C800AA9651B110
:1029E800F336048093F68608B6CA0F1000002380D9
:1029F8009D002380AD000F10000083463905CD8E61
:102A0800A309D90423800D00D646F3A606800F102B
:102A1800000035BBF336048093F68608B6CE0F1057
:102A2800000023809D002380CD000F100000834606
:102A3800390593E60602A309D90423800D00F6465A
:102A4800F3A606800F10000095BBF336048093F6BA
:102A58008608B6D20F10000023809D002380CD0089
:102A68000F1000008346390593E60602A309D9042E
:102A780023800D009656F3A606800F1000006DBB4C
:102A88009306F5FF33B5A600FD152E959355F50170
:102A9800AE96B3B5B600AA951396F501858269B5C9
:102AA800F336048093F68608B6D80F100000930614
:102AB80080FA23809D002380DD000F1000008356DC
:102AC800C9020566011693F6F60FD18EC206C182B9
:102AD8002316D90223800D00C656F3A606800F10D0
:102AE8000000850A93FAFA0F51B233E6B60045C2E0
:102AF8000356C9023305D0403338A000B305B040AF
:102B0800B385054115826345B000D1E16371A6081C
:102B1800894663F0560593078008F3B7078093F753
:102B28008708BEDA0F100000B717004013077005BA
:102B38002380E704130780FA2380E7040F100000BE
:102B480003D7C7027D8B2396E70223800704D65755
:102B580081BDF336048093F68608B6DC0F100000BA
:102B6800930680FA23809D002380DD000F1000006B
:102B78008356C9020566011693F6F60FD18EC20672
:102B8800C1822316D90223800D00E656B9B79307F0
:102B98008008F3B7078093F78708BEDE0F100000A0
:102BA80037170040930770052300F704930780FA4E
:102BB8002300F7040F1000000356C702939756002E
:102BC800B297C207C1832316F70223000704F657FA
:102BD800C1BB914763EEB70217370200130787F8A6
:102BE8008A05BA959C41BA978287B717004003A710
:102BF800470B1345F5FF698F23AAE70A03A7070BBD
:102C0800698F23A8E70A03A7070A798D23A0A70AD3
:102C18008280B717004083A6470B1347F5FFF98E4C
:102C280023AAD70A83A6070B558D23A8A70A83A62C
:102C3800070A758F23A0E70A8280B717004003A709
:102C4800470B498F23AAE70A03A7070B1345F5FF8C
:102C580045BFB717004083A6470B1347F5FF758F8D
:102C680023AAE70A03A7070A598D4DB7B7170040EB
:102C780003A7470B498FEDB7B717004088474205B0
:102C880041819377050491EB9377F5013755E80176
:102C9800130505803345F50282809377050C1307E9
:102CA80000046397E7009377F50137459C1CCDB77F
:102CB8002165130505D0828037E700E01C435443A3
:102CC800A183E206D58F1CC1FD572320F7182322C4
:102CD800F7180F100000828013178500B7E700E08F
:102CE80023A0E710618123A2A7108280B7F700E034
:102CF8008847CC478280814737370040A14663C464
:102D0800C700328582800345B740E38EA6FE33852F
:102D1800F5000345050085072304A740CDB797F7BD
:102D2800FF1F9387A7729C43171700201307C75FDD
:102D38003E95636EE500174700201307278C6368EC
:102D4800A70017F7FF1F2323A7703E858280FD5732
:102D5800EDBF411122C406C62A84393F2947B3076B
:102D6800E502B2408D83B3D7870222449507B3D7D3
:102D7800E70237370040C207C1832316F7404101F5
:102D88008280716541111305052006C6D937B7370A
:102D98000040130770F82381E7400D47A381E740FF
:102DA80013070004A380E74005472387E740B240A4
:102DB800410182809387C1889C43411106C691C313
:102DC8008297938701899C4391C3829703D7618037
:102DD8009307C01263F7E70403D581809306B01206
:102DE80063E4A6049386818803A3060063070300AF
:102DF800B2401305C012410102830507098F3385CC
:102E0800A740E5473305F502420741830983930745
:102E1800F7FF3E953345E5021375F50FB2404101C2
:102E2800828013054006DDBF0145CDBF03A84500DC
:102E3800411126C206C622C4834718000348080069
:102E4800A944A207B3E70701C2070D68C1871308A1
:102E580028906396070385473284EF704058AA8408
:102E680019ED938741889C4399CB03451400034788
:102E780004002205598D1335150005058297B240C7
:102E8800224426859244410182802D453DE7D84160
:102E9800411122C426C206C683471700034707000C
:102EA800B684A207D98F0D67930697A132846396DB
:102EB800D702093783C741806374F5002382A18054
:102EC80085472390F40083C741802300F40001451F
:102ED800B2402244924441018280130787902945D9
:102EE800E398E7FECC4589472390F40009462285FC
:102EF80097E0FF1FE780209BD9BF8280834745006A
:102F0800858BADC7011122CC2A84035525009385F2
:102F1800419B06CEEF706047058929C503552400FB
:102F2800014781460546ED45EF7020002AC61DC9B8
:102F380097F7FF1F9387C70583D7A70201462C0081
:102F48002314F10085472315F10083C7418023002E
:102F5800F50003552400EF80202009C5ED45280021
:102F6800EF706014F240624405618280828041659E
:102F780041119385419B7D1506C6EF90600DB240C7
:102F880097F6FF1F9386C6054146954517F5FF1F1F
:102F98001305050041016F90C00023A2A18882801B
:102FA800411122C406C6854709446311F5028347C7
:102FB800060001442380F18803C741806378F70045
:102FC800170500001305C5F3EFB0204A2285B2406B
:102FD80022444101828085476301F50209C90947F6
:102FE8006302E5020D476306E5020945828083C74F
:102FF80041802380F500014582809387018883C73B
:103008000700C5BF97F7FF1F83D727F92390F5005F
:10301800DDB71387C180035707002392E50017F730
:10302800FF1F1307E7F68356A7020357A703238357
:10303800F5002390D5002391E50075BF411106C620
:10304800953B83C74180637AF5002382A1801705E9
:1030580000001305E5EAEFB04041B24001454101E7
:10306800828041677917630CE502411122C406C6C4
:1030780085472A84639AF50022852244B2409385C5
:10308800419B41016F80D07C89476396F500854557
:10309800EFB0203875D1B24022444101828082804D
:1030A800CC41411106C6328503C6150083C505000B
:1030B80022064D8E42068D654186138875A2630CE3
:1030C800060F6348C804138845A26306060B634AC3
:1030D800C800938535A26309B606239006002946E1
:1030E80079A0138855A26308060B938565A2E31699
:1030F800B6FEC1451D4663ECE5064546198E63F3E9
:10310800C7003E862390C600973502009385C5A761
:1031180089A8138895A26300060F634E060B1388CF
:10312800A5A2630A060F938505A5E318B6FA994583
:103138001D4663EEE502198E63F3C7003E862390B1
:10314800C6009385418131A89D451D4663E1E5028E
:103158002146198E63F3C7003E862390C6009385E7
:103168004189BA9597D0FF1FE780E0730146B240C6
:10317800328541018280AD451D46E3EAE5FE3146D0
:10318800198E63F3C7003E862390C6009735020068
:10319800938545A3F9B7B1451D46E3EAE5FC3546F5
:1031A800198E63F3C7003E862390C6009735020048
:1031B800938545A27DB7C1451D46E3EAE5FA454634
:1031C800198E63F3C7003E862390C6009735020028
:1031D8009385C59C79B7C1451D46E3EAE5F84546A0
:1031E800198E63F3C7003E862390C6009735020008
:1031F8009385459FBDB7C1451D46E3EAE5F64546BB
:10320800198E63F3C7003E862390C60097350200E7
:103218009385059AB9B7B5451D46E3EAE5F43946FD
:10322800198E63F3C7003E862390C60097350200C7
:10323800938585943DB797F6FF1F938626EE414602
:10324800CD4517F5FF1F130565DA6F80905582800D
:103258009387018B9C4303C7418A83C6318201E768
:1032680081473E85828003D607006316A60003C601
:103278006700E308D6FE7D171377F70FA107C5B7D8
:10328800B2862E86AA85173502001305659A6F1037
:10329800C2570111930500030D4506CEEF30F043E8
:1032A800930500051145EF3050439305C0030545CC
:1032B800EF30B04285471306F100854513055030BD
:1032C800A307F100EF80016AF2400561828085471B
:1032D800631AF5001166130686A9894503C5518A44
:1032E8006F10E07989476317F500894503C5518A4E
:1032F8006F107023828085476398F50019E2238F49
:10330800B188238AC18A828009476399E50019E652
:10331800238FF18803D5C1896F00A07B82809387B2
:10332800818A9C43011122CC06CE2E8481CB9C47F6
:1033380091C78297F2406244056182806C00130550
:103348007040EF607131324681452285EF60B1727D
:10335800D5B701119397050126CA06CE22CC4AC8D3
:103368004EC652C4C187AE8463D7070803C5518AC5
:10337800EF1060112A8439C9034705009307000D2F
:103388006313F704834725004547638BE7046547C4
:10339800639BE7021735020013050586EF10E24626
:1033A800130954009309B400173A0200130A0A8655
:1033B8008345090052850509EF102245E39A29FF44
:1033C8002945EF1082482285EF00D07F2165258DA1
:1033D800F2406244D2444249B249224A056182809D
:1033E800034665008345750017350200130585827D
:1033F800EF10A241C9BF93F7150085C317F6FF1F49
:10340800130646D397F5FF1F938505D203C5518A46
:10341800EF80A12113C5140065BF93F7250001456E
:10342800C5DB29391166130686A9894503C5518A62
:10343800EF10E06413C5240061BF797126D24ECE27
:1034480006D622D44AD052CC9147AA84AE896314B6
:10345800F50483D7A5001306E10085451305503010
:10346800239EF18823070100238F0188EF80814F75
:103478009387818A9C4391C7DC4781C7CE8526857F
:103488008297B250225423A0918A02599254F24949
:10349800624A456182801387018A1843E31AF7FC60
:1034A800854503D5C189753E854503D5C189412523
:1034B800C16703DAC189F917631BFA02054493054A
:1034C800E10013055041238F0188A38181822307DE
:1034D8000100EF6071188347E100B1E303C7418B36
:1034E8009147E317F7F87533238A018A51B7938711
:1034F800018B03A9070003C4418A69D00355290039
:1035080011C99305E100EF70A04D09C54C455285DE
:10351800EF8010347D141374F40F2109F9BF9387D9
:10352800C18A9C4383C74700898BCDDB9305000A7A
:103538000D45EF30901A9305000A1145EF30F01948
:1035480081450545EF3070191306E10085451305DF
:10355800503023078100EF80E14049B7011117057A
:103568000000130545DF06CE22CCEF105038138437
:10357800518A85471306F10085452300A4001305E9
:103588004041A307F100EF6071767D55EF6020623E
:103598007D55EF80D0284531D93A19231705000009
:1035A800130525D3DD3A17050000130585CA392B05
:1035B800034504008545EF10E02CF24062440561A4
:1035C800828023A4B18A23A6A18A828023A8B18AF3
:1035D8002382A18A82809387018A9C43797106D6C7
:1035E80022D426D24AD04ECE52CC1147639BE70450
:1035F80083C7E189414481CF9387018B8043B2849B
:10360800B68983C7418A03C7318299EB554422851D
:10361800B250225492540259F249624A456182805A
:1036280083464400639AA600834654006396B60016
:10363800834664006380E606FD1793F7F70F2104BD
:10364800E9B709474144E384E7FC2C0013055041DE
:1036580023040100EF605100834781008DCB93055F
:1036680000020D45EF307007930500031145EF3058
:10367800D00695450545EF3050068547300085450D
:10368800130550302304F100EF80C12D49B71131E3
:103698004144B5BF0355240093056100EF704034E1
:1036A80035D54C4503D5C189EF60304E058939DDE4
:1036B8001399040113590901014781464A86ED45CA
:1036C80003D5C189035A0400EF6030062AC64D4469
:1036D8001DDD2686CE85231441012315210197D0AF
:1036E800FF1FE780401C01462C0003D5C189EF70FD
:1036F800B0262A84E30D05F0ED452800EF60B01AE6
:1037080039B7C841011122CC06CE328403461500D0
:10371800034505002206498E19CB0D681308B8A485
:103728002D4563090607F2406244056182800D65F4
:103738001308D5A463000603130825A2630C060129
:1037480075781308E85C32984208135808018548D0
:1037580063EE080303D5A50036C632C4D53CB2468D
:1037680015C19387818A9C4322468345550003A34C
:103778000700A2876244F240034545003687854624
:103788000561028323900600014571BF1308B5A4A3
:103798006317060303D661821D45E376C7F8198EC1
:1037A80063D3C7003E86CC452390C60042064182BB
:1037B800BA95228597D0FF1FE780E00EF1B79307EF
:1037C800A5A46318F60091472390F6001146CC454E
:1037D800CDB7930785906317F60089472390F600C5
:1037E8000946F5B79307E5A4631AF600DC4523906C
:1037F800160183C707002300F40079B713057590F5
:10380800E314A6F8D9BF011122CC06CE26CA4AC8AD
:103818002317D1002D4429EBDC412E89B28403C43F
:10382800170083C7070022045D8C8D679386D7A491
:103838006306D400938627A3631FD4020355A90007
:10384800013C19E101440DA09387818A9C4383457B
:1038580055000345450003A807002286A6871307DD
:10386800E100814602982A842285F2406244D244CB
:103878004249056182809386C7A46314D4028357A2
:10388800E10005473544E391E7FE034506001304CC
:103898000008E3EBA7FC9387818A9C43DC4382976B
:1038A80055B793862790631AD4028356E10085475B
:1038B800EF60F0322A844DF99387018B8356A90073
:1038C8009C4303C7418A3DDF03D627006302D60421
:1038D8007D171377F70FA107FDB79387E7A4E313C5
:1038E800F4F68357E10005473544E39FE7F60345BF
:1038F800060013040008E3E9A7F6DC452380A700C7
:103908009387818A9C433335A0000905DC4341BF76
:103918001387818A184303C5470083C5570083C7A7
:1039280014000328070003C70400A2078946D98F9B
:10393800C207C18705476383E7008D460D66A687E2
:103948001307E10013062690029839BF416541111B
:103958009385419C7D1506C622C426C24AC097E4B9
:10396800FF1F9384E47DEF80A06E97F6FF1F938678
:10397800268F4146C9452685EF80A062CC4C2A890E
:103988000945EFF04FE59387018383D70700138438
:10399800419D1387C1822312F40083D7A40C0357D7
:1039A80007009385419E2310F40083D7A40D2316A6
:1039B800E40003D7A4102311F4000D458547230321
:1039C800F4002314E4002307F40023150400EFF0A7
:1039D8008FE0A2850D45DD3EB24022444A859244DF
:1039E8000249410182808D679387D7A40145631FEF
:1039F800F6008D472945639BF50085473545639754
:103A0800F600834707000145238BF18A82808D6782
:103A18009387D7A4631EF6008D47639BF50083C781
:103A2800618B2300F70085472390F60001458280CB
:103A380023900600E5BF0145828025E303A84500E1
:103A4800AE888347180003480800A207B3E70701B8
:103A58000D68930EF8A4639AD70391473548639F7E
:103A6800F60203A5C8004111B285114606C697D0D3
:103A7800FF1FE78040E39387418C9C43054582976D
:103A8800B240014842854101828093082890294824
:103A98006396170185476F6090142D484285828090
:103AA800416541119385C19E7D1506C6EF80405A38
:103AB800B24097F6FF1F938666814146994517E500
:103AC800FF1F1305A57A41016F80A04D23A2A18C89
:103AD800828001119385C19E22CC06CE2A84EF6094
:103AE800D00A058929C1014781460546ED45228549
:103AF800EF60A0432AC605C997E7FF1F938707779A
:103B080083D7A70401462C002314F1008547231509
:103B1800F100230005002285EF70006409C5ED451A
:103B28002800EF604058F240624405618280416796
:103B38007917630CE502411122C406C685472A8419
:103B4800639AF50022852244B2409385C19E4101C3
:103B58006F80005089476396F5008545EFA0700B8C
:103B680075D1B240224441018280828011456FE0C4
:103B7800AFFC411193962500AA852D4506C697D01E
:103B8800FF1FE7804093B240014541018280011147
:103B980022CC06CE3714004026CA4AC84EC652C4A4
:103BA80083447405034AB40583498405034994058D
:103BB800EFE06FD38347A40593F4F40F137AFA0F59
:103BC80093E71700230DF40493F9F90F1379F90F0C
:103BD800B717004003C7A705058B6DFF03D5C705B9
:103BE800A38D4705238C3705A38C2705A38B970442
:103BF800F2406244D2444249B249224A0561828075
:103C080041119397050122C406C6C1872E8463DD3E
:103C18000700EF00500719C1EF00C07A2165218D18
:103C2800B24022444101828093F7150013C5150064
:103C3800E5FB93F7250013C52500FDF393972501B0
:103C480063D00702EF105121153737F6020013062B
:103C580006E0896503C5C18CEF0070620965C1B7CC
:103C6800939715010145E3DD07FA172502001305AF
:103C78006507EF00D24D13060064916503C5C18C3A
:103C8800EF00F05F116561BF2D71232A9110FD745B
:103C9800E98C232C811023282111232631112A8411
:103CA800AE893289930600100A86A6852D45232EF3
:103CB800111097D0FF1FE780008013154401518130
:103CC8000A0513962900CA850A9597D0FF1FE78031
:103CD80080BDA68585660146254597C0FF1FE780FC
:103CE800807D0A86A68593060010294597C0FF1F88
:103CF800E780607C8320C111032481118324411152
:103D0800032901118329C11015618280B7F70700C3
:103D180003C70701411106C622C426C24AC0A547E7
:103D2800631AF7009537B24022449244024901458C
:103D38004101828013942500AA843289A286AA852B
:103D48000146254597C0FF1FE780E076A2864A8690
:103D5800A685294597C0FF1FE780E075E9B71D7163
:103D6800494697250200938565F317250200130538
:103D7800A52A86CE97D0FF1FE78060BE01E91725E8
:103D880002001305E5F2EF00923C01A0B7F600E04F
:103D9800795798CAFD57DCCA0567B7E700E023A042
:103DA800E7101306F00290C223A0E7180F100000D6
:103DB80017D7FF1F1307070723A4E18C4157A38ACE
:103DC800E740130600048145080897D0FF1FE780E5
:103DD800A0B497F7FF1F938727873EC88967938703
:103DE8000780231AF1009D673ECCB707010593872A
:103DF80007103ECEED472310F10285472301F1025B
:103E080097070000938727D7BEC2970700009387BC
:103E180027F0BEC48567938757D12312F10297F71D
:103E2800FFFF9387E7EC3ED8B7F507009707000038
:103E3800938727D63EDC814697070000938747D3B0
:103E48003000E10519453EDE97C0FF1FE780A066F8
:103E580018088147994630003E96034606008507B4
:103E68000507A30BC700E398D7FEC24791C70357BE
:103E7800410185676373F70001A08307410263D797
:103E8800070493078008F3B7078093F787083EC4B1
:103E98000F100000B7170040130770052380E704D0
:103EA800130780FA2380E7040F100000B847B7060D
:103EB800100013670718B8C79853558F98D32380F5
:103EC8000704A247F3A707800F1000000808EF10A7
:103ED800C025AA8501C9172502001305A5DEEF0034
:103EE800D21201A0F6402561828041111705000019
:103EF800130545D106C622C4EF10601F1384C18C78
:103F08002300A4001928034504002244B2401306E4
:103F18000032896541016F009036797106D6130722
:103F28008008F337078093F787083EC20F10000018
:103F3800B7170040930570052380B704130680FA6D
:103F48002380C7040F10000083C6F70293F6A60F5C
:103F5800A387D702238007049246F3A606800F1092
:103F6800000073370780137787083AC40F100000E2
:103F78002380B7042380C7040F10000003C7F7028B
:103F880013672700A387E70223800704A247F3A744
:103F980007800F1000000545EFE02F98C13E8147CC
:103FA80001478146054685451305407EEFE0CF9BD6
:103FB80068005146814597D0FF1FE780E095B70715
:103FC800C0A83EC8B787E803938707D03ECA6800F1
:103FD80097C7FF1F9387E73E3EC6EF10E048B250F1
:103FE8004561828082803D897D15954763EAA70EE9
:103FF80017270200130747CF0A053A951C410111FC
:1040080006CEBA9782872C0013054030EF70D10195
:104018002C000545EF50200117250200130545D156
:10402800EF00F21211A803C725008D4717250200DB
:10403800130505D1E306F7FEF2400561828003C748
:1040480025009547E31AF7FE83D7A5000D661306EA
:104058000620914503C5A1842394F184EF00302202
:10406800172502001305C5CE65BF03C725008D4778
:10407800E314F7FC17250200130545CE55B783C78F
:1040880025001147172502001305C5CE638EE702E8
:1040980019476394E70283C56500172502001305D5
:1040A80025CFEF00827685473000854513055030CF
:1040B8002304F100EF70110B41B71547E395E7FEB4
:1040C80017250200130585CEEF007208E9BF83C5E6
:1040D8002500172502001305E5CEEF000273A9BFDE
:1040E80082803A883E8789E6834608006FF0BF8F52
:1040F80085476395F600C2866FF07F918947639F75
:10410800F60041111306401F894503C5A18406C660
:10411800EF00F016B24001454101828001458280DE
:1041280001119397050122CC06CEC1872E8463DD49
:10413800070003C5A184812E11C169242165218D41
:10414800F24062440561828093F7150013C515009B
:10415800E5FB93F7450099CF83C7A1841307401F58
:1041680081462146A14503D58184EF7061471345F7
:104178004400F9B793F785009DC30147894609466E
:10418800814503D58184EF70D12FAA8517250200B8
:10419800130505B7EF0062671345840055B793F719
:1041A80025000145D1DF83C7B18413073006637941
:1041B800F7021387A7079387A717A183A305F10021
:1041C8003400930740161946854505452316F10026
:1041D800231401002305E100EFF0EFBFA38501845C
:1041E80083C7B18405472314E1001387A707938782
:1041F800A717A183A305F1003400930740161946B9
:10420800854505452305E1002316F100EFF0AFBC15
:104218009387B18483C70700130640068945910731
:1042280003C5A184A385F184EF007005134524001C
:1042380001BF0111170500001305C5EE06CE22CCFB
:1042480026CAEF00D06A9384A18405442380A40081
:10425800300085451305503023048100EF708170CC
:10426800138681839D4513056030EF70A16F17E6B3
:10427800FF1F13066607E94513057030EF70816E5E
:1042880017260200130646A9D5450145EF50D00070
:104298008D4730009145130570402303F100230238
:1042A8008100A303810002C4A3020100EF6001247E
:1042B8005000854513050040EF6041231306510067
:1042C800854513051040EF6061221306610085459E
:1042D80013052040EF608121130671008545130501
:1042E8005040EF60A120B707090099073EC4B707FF
:1042F8002C01D1073000A14511453EC6EF50C079C9
:1043080099473000854505452304F100EFE05FC972
:10431800EFF0CFE397E5FF1F938505FC1385018434
:10432800EFF02FAA03C504008545A92BF24062448B
:10433800D2440561828041111305800406C697C0E6
:10434800FF1FE78040D6371700408327870A8D452F
:104358001305002093E707202324F70AEFE07F875F
:10436800EFE03FA217250200130505CBEF00225E00
:10437800EFF0FF9E9D3EEF701111EFF02F9E553D1F
:1043880097C0FF1FE780C00623AC05FE1C4191E7DC
:10439800010001000CC18280BA8703A787FF6DFF67
:1043A80023ACB7FE8280184183A785FF6319B70045
:1043B8001CC1FD5723AC05FE238FF5FE8280232CFC
:1043C800F6FEC5BF411122C437E400E026C204400E
:1043D8003707200006C6F98C2320E4180F100000C8
:1043E80009E9232094101545B24022449244410122
:1043F80082800347E5FF9307F00F6306F700232049
:1044080094101145D5B797D0FF1FE780E009014503
:1044180023209410D1BF411126C2B7E400E04AC05E
:1044280003A90400B707200006C622C43379F9009F
:1044380023A0F4180F10000009E923A02411B240AA
:10444800224492440249410182809565938505D0B2
:10445800C98D2A842105C2054205C181418197D0B1
:10446800FF1FE78040F501CDFD57232005002312EB
:1044780085002303F50023A024112105C9B723A033
:10448800241101456DBF0111B7E700E04AC803A92F
:1044980007004EC63707200006CE22CC26CAAA89B6
:1044A8003379E90023A0E7180F10000097070020D0
:1044B8009387479E80438144014619E499E8A165A2
:1044C8004E85EF00500605A08347E4FF6399370344
:1044D80085CCA685170500201305C59BE93565D051
:1044E800A1654E854526F2406244B7E700E023A067
:1044F800271126854249D244B2490561828091E05C
:104508002286032484FF55BFA284E5BF41114AC017
:1045180037E900E022C4032409003707200006C653
:1045280026C2798C2320E9180F10000089E5232082
:104538008910154515A0AA849707002083C7D79529
:104548002E8563F5F400894763EE9700A53DB7E72C
:1045580000E023A087100D45B2402244924402494E
:104568004101828083A785FF99E703C7E5FF930789
:10457800F00F6308F700B935B7E700E023A087100C
:104588004DBF238F95FE170500201305A590ED3B21
:10459800A1652685C52C01452320891075BF97077D
:1045A800002023A9078E828097070020938707940D
:1045B8009C4399E33E85828003D727006316B700A2
:1045C80003C70700E308A7FEDC47E5B7A5C101114B
:1045D80006CE22CC26CA8147C14633D7F540058B83
:1045E80029C312053E9531473305E5021707002018
:1045F80013070794044305443314F4002EC64204F9
:104608004180AA949C40C8408297B24523A00400E8
:1046180023A20400A18DF2406244D2442E85056194
:1046280082808507E39BD7FA0144EDB72E85828007
:10463800C9C1797122D406D626D24AD04ECE0144B9
:104648004147B3D78540858BA5C3120531472295CD
:104658003305E502970700209387878D03A9070094
:104668008544B3948400C204C180BE892A99032773
:10467800090011C7032549002EC60297B2453147E4
:104688003304E40283A709003E941C4489E72320ED
:10469800090023220900B2502254A58D02599254D0
:1046A800F2492E85456182800504E31CE4F88144C3
:1046B800DDB72E8582804111B7E700E022C4804330
:1046C8003707200006C626C2798C23A0E7180F10EA
:1046D8000000970700209387A7819C539384C18487
:1046E80099C782979C403E9523A6A18439A097F745
:1046F800FF1F9387277F9C43EDF78840B747030048
:104708009387D73F3305F502B7A72600938737EC81
:10471800B24092443E9523A6A184B7E700E023A0C7
:10472800871022444101828001112E8626CAAA845C
:10473800131506019305F004418122CC06CE32C63A
:1047480097D0FF1FE78020C72A8419C53246A6855F
:1047580097C0FF1FE78020152285F2406244D244AB
:10476800056182807971B7E700E022D48043370879
:10477800200006D626D24AD04ECE52CC56CA5AC8A7
:104788005EC662C43374040123A007190F10000029
:1047980005E123A087100945B250225492540259CA
:1047A800F249624AD24A424BB24B224C456182805E
:1047B80097F7FF1F938707739C43BA8A368AB28B91
:1047C8002E8BAA89829797F7FF1F9387677698435E
:1047D8003E898144B146C147338CD40233068701F0
:1047E800104241EAC165938505F0414597D0FF1F06
:1047F800E78060BC05E197F7FF1F9387676F9C5BB5
:1048080081C7814511458297B7E700E023A087104B
:104818002D4559B797F7FF1F9387476D984331E7A1
:1048280097F7FF1F23A4A76C23000500832709001F
:104838000547331797002326050023247501231104
:10484800E50023225501E29723A0370123A267013F
:1048580023A4570163040A0023009A00B7E700E085
:1048680023A0871001450DBF3E875C47F5FF48C769
:1048780065BF8504E392F4F6B7E700E023A087104C
:10488800214519BFB7E700E09843B706200023A0E9
:10489800D718758F0F10000097F6FF1F83C6D65FD5
:1048A8006373D50217F6FF1F1306066493161500E7
:1048B8000842369583560500D58D2310B50023A0F0
:1048C800E7100145828023A0E7100D458280B7E7F5
:1048D80000E09843B706200023A0D718758F0F1063
:1048E800000097F6FF1F83C6365B6375D50217F67F
:1048F800FF1F1306665F93161500084293C5F5FF60
:10490800369583560500F58D2310B50023A0E710D2
:104918000145828023A0E7100D458280011137E709
:1049280000E026CA0443B706200006CE22CC4AC8B7
:104938004EC652C4F58C2320D7180F100000130759
:1049480005FF1377F70FFD4763E5E70AB146B3069E
:10495800D50297F7FF1F9387A75D984336971C43A7
:10496800C9CB135A450005443D893315A4001314D7
:10497800050141802E895285A2853D31AA8929CD1C
:10498800A2855285A93797F7FF1F9387A7559C43A0
:10499800829797F7FF1F83D7E75A338727032A841D
:1049A800814613060064B3B7270313050732B335EE
:1049B800E500BE95EFF09120B307850097F6FF1F3D
:1049C8009386C6573E87D44263E4A70063E4D700C2
:1049D8003387D74023A4E900B7E700E023A0971066
:1049E8000145F2406244D2444249B249224A056133
:1049F8008280B7E700E023A097100945DDB70111D1
:104A0800B7E700E026CA84433707200006CE22CC49
:104A18004AC84EC6F98C23A0E7180F100000BD47FE
:104A280063E9A70431473307E50297F7FF1F938728
:104A380027509C43BA979C438DCF05443314A40058
:104A4800420441802E890145A285B93EAA8911C533
:104A5800A2850145AD3D23A42901B7E700E023A0C5
:104A680097100145F2406244D2444249B249056177
:104A78008280B7E700E023A097100945E5B7797170
:104A88004AD037E900E026D283240900B70720007E
:104A980006D622D44ECE52CC56CA5AC85EC6FD8C13
:104AA8002320F9180F10000097F7FF1F83C7D73E80
:104AB800637AF50097F7FF1F9387C74283AB070018
:104AC80063970B00B7E700E023A09710A9A017FB96
:104AD800FF1F130BAB46832A4B00B74736FE93875D
:104AE80007C82E8A97F5FF1F83D5C545BE9AB38799
:104AF800C5022A84B2898146B3B5C5021385073237
:104B0800B337F50013060064BE95EFF0310B63F080
:104B1800AA02232099100145B250225492540259F6
:104B2800F249624AD24A424BB24B45618280829B2B
:104B380097F5FF1F83D50541B38735032A891306E7
:104B480000648146B3B5350313850732B337F500E2
:104B5800BE95EFF0B106B30725013E8903274B0048
:104B680063E4A70063E4E7003389E740D285228540
:104B7800EFF09FA309C923242501B7E700E023A08C
:104B88009710054551BF936504F0C205C1814145A1
:104B980097D0FF1FE780208219E997F7FF1F9387B7
:104BA80027359C5B85D3A2851145829721BF97F74E
:104BB800FF1F9387A7339C4385E797F7FF1F23A71A
:104BC800A732854723260500232425012311450103
:104BD80023008500A300F5002322050079BFBA87CA
:104BE800D84775FFC8C7F1BF7971B7E700E026D28B
:104BF80084433707200006D622D44AD04ECE52CC62
:104C080056CA5AC85EC662C466C26AC0F98C23A076
:104C1800E7180F1000003DC14144B689B28A2E8AB8
:104C28002A89B14C17FBFF1F130B8B30054D130C52
:104C38000003B30B940303270B005E971C43A5E303
:104C48009375F400B315BD0013554440C20556864C
:104C5800C1811375F50F253539C183270B00DE9700
:104C680023A0270123A24701638409002380890028
:104C7800B7E700E023A09710014521A023A09710D3
:104C88000945B250225492540259F249624AD24A12
:104C9800424BB24B224C924C024D45618280050436
:104CA800E31984F9B7E700E023A097102145D1BFA5
:104CB8000111B7E700E026CA844322CC4AC84EC691
:104CC8003707200006CE2A84AE893289F98C23A0C2
:104CD800E7180F10000065332285CE85EFF0DF8CD2
:104CE8002A8405C597F5FF1F83D5C525B3872503F6
:104CF800130600648146B3B5250313850732B3371D
:104D0800F500BE95EFF0816B48C013351400F240F2
:104D18006244B7E700E023A097104249D244B24961
:104D28000E05056182800111B7E700E04AC803A9B2
:104D3800070022CC4EC63707200006CE26CAAA890D
:104D48002E843379E90023A0E7180F100000EFF054
:104D5800BF85AA8419C123110500A2854E85853E09
:104D680097F7FF1F83C74713639B370197F7FF1F09
:104D780083D707175D8C97F7FF1F23938716B7E72D
:104D880000E023A02711014591E01945F240624453
:104D9800D2444249B2490561828001114AC837E9C3
:104DA80000E022CC03240900B707200006CE26CA5B
:104DB8004EC67D8C2320F9180F1000009307F002CF
:104DC80063E8A704B147B304F50297F9FF1F938975
:104DD800291683A70900A6979C439DCB9377F500D6
:104DE8008545B395F500C205C18111812D3F83A783
:104DF80009000145A69723A0070023A20700232046
:104E08008910F2406244D2444249B2490561828025
:104E1800B7E700E023A087100945E5B74111B7E7D8
:104E280000E026C2844306C622C437072000F98C56
:104E380023A0E7180F100000EFF00FF719E901455C
:104E4800B2402244B7E700E023A097109244410102
:104E5800828097F7FF1F9387E7089C430045829756
:104E680097F7FF1F9387870D6368A402D843B74657
:104E780036FE938606C83305A4403697E371E5FCF1
:104E880013070064B335E50203D68700814633056E
:104E9800E502EFF0A1526DB7D8433A94C1BF411172
:104EA80022C426C217F4FF1F1304440997F4FF1FF6
:104EB800938484FE9448584097F7FF1F938787028E
:104EC80006C69C436393E60882975440B74736FE6C
:104ED800938707C8B6973387A7003A856364F700B6
:104EE8006364D7003305D74097F4FF1F9384041EEB
:104EF800DC5081CF97F7FF1F938707259443370727
:104F0800CDFF7D179C46F98F9CC611E1484097F765
:104F1800FF1F9387E7FDDC53829719E5DC508DC3AB
:104F2800EF00D10AEFF0D05ADC5099CB97F7FF1F6A
:104F3800938787219843B70633001C47D58F1CC732
:104F4800B24022449244410182808297944858405A
:104F5800B387A6003E8563E4D700E3E7E7F8338527
:104F6800E74059B7411106C697F7FF1F23A6A7FCCC
:104F78000295B24097F7FF1F23ACA7F20145410104
:104F88008280994763E9B7008A0597F7FF1F9387DF
:104F980067F3BE9588C1828097F7FF1F23ACA7F8F7
:104FA80011C5854717F7FF1F230DF7F282804111BE
:104FB8007146814517F5FF1F1305C5F006C697F71B
:104FC800FF1F23A507F297F7FF1F23A707F697F7F9
:104FD800FF1F23A907F097F7FF1F238407F097F710
:104FE800FF1F23A907F497C0FF1FE780E09213066D
:104FF8008002814517F5FF1F130505EA97C0FF1FBB
:10500800E7808091EF60F15197F7FF1F938747EE94
:1050180003C5C70383C7D70385453E958D47330529
:10502800F50239051375F50F97F7FF1F2387A7E6D4
:1050380099473305F5021305052497C0FF1FE7803C
:10504800803717F7FF1F2325A7EE59CD994717F685
:10505800FF1F034686E43306F6028145130606243D
:1050680097C0FF1FE780408B97F7FF1F938747EC98
:105078009C439387072417F7FF1F2323F7E417F7A9
:10508800FF1F034787E10A07BA9717F7FF1F232D6A
:10509800F7E4EFF0CFD0E12997F7FF1F938747E2B6
:1050A800944397F7FF1F83C737DF13972700369777
:1050B80017F6FFFF1306065810C313871700137758
:1050C800F70F0A07369717F6FFFF1306665010C347
:1050D80013873700890793F7F70F8A0797F5FF1F9C
:1050E800A38CE5DAB69790C3B2404101828097F766
:1050F800FF1F83C777DA17F7FF1F034707DA63F342
:10510800E70217F7FF1F1307A7DB1843938617005B
:1051180017F6FF1FA302D6D893962700369708C321
:105128003E8582809307F00FE5BF1C416384071614
:1051380041777D8FB70600208947631ED714035730
:105148004500630A0714411122C419462A849305AD
:10515800F00F610506C697C0FF1FE780E086054788
:105168008D476304E5121C4481CB58589947630E58
:105178000710185C630B071013060004814517F528
:10518800FF1F1305E5D697B0FF1FE780E0781306E9
:105198000004A28517F5FF1F130585D597B0FF1FDB
:1051A800E780607097F7FF1F83D747D517F7FF1F72
:1051B800130707D499E79307001097F6FF1F239F5B
:1051C800F6D297F7FF1F83C787D391E7854797F6EE
:1051D800FF1F2386F6D297F7FF1F83D767D291E781
:1051E800ED4797F6FF1F239DF6D097F7FF1F83C75C
:1051F80017D191E7954797F6FF1FA382F6D097F747
:10520800FF1F83C707D091E7854797F6FF1F238ABB
:10521800F6CE97F7FF1F83C7D7CE99E78347F700E6
:1052280097F6FF1FA38FF6CC97F7FF1F83C797CD7D
:1052380081CF93F63700898317F6FF1F2308D6CE50
:1052480097F6FF1FA384F6CE97F7FF1F83C787CB78
:1052580091E7D54797F6FF1F2386F6CA834764016F
:1052680099E79307C00397F6FF1F238EF6C81C57CC
:1052780091C7829797F7FF1F2394A7C2FD5717F787
:10528800FF1FA309F7F225338147B24022443E8528
:105298004101828089473E85828001114EC697F977
:1052A800FF1F9389A9C983A7090006CE22CC26CA65
:1052B8004AC852C4829713090064B335250303DA38
:1052C80089008146528633052503EFF0210F97F7B1
:1052D800FF1F938767BC804FAA8401456306940229
:1052E80033858440636E940003A549005286814645
:1052F800B335A9023305A902EFF0410C018D2695BB
:1053080097F7FF1F23A697BAF2406244D244424956
:10531800B249224A05618280011122CC0A852E8475
:105328004146971502009385E58206CEEFF081424B
:10533800180806043A94035504FF97F7FF1F83D70C
:1053480087C0F2406244AA9737450F001305052429
:105358003355F5020561828097F7FF1F83D7A7BEF3
:1053680051471D45637CF702794719456378F70271
:105378001307200315456373F7021307B00411459B
:10538800637EF700130740060D456379F70013079E
:10539800600909456374F70013B5B70F82800111DE
:1053A80022CC06CE2A842EC6EFF0EFB0B245F240EA
:1053B800818D33A5A502229562441375F50F056109
:1053C8008280011122CC06CE2A842EC6EFF0AFAE21
:1053D800B245F240818D33A5A5022295624442056B
:1053E800418105618280011122CC06CE2A842EC615
:1053F800EFF06FACB245F240818D33B5A50222952E
:1054080062440561828097F7FF1F938767AE9857BC
:1054180039CB411122C426C206C6BE84029717F7AB
:10542800FF1F0357E7A72A8415CBBA876373A70022
:10543800AA87C207C183BA866373E400A286C2063C
:10544800C182958F5147635BF700DC5491C3829703
:10545800EF00812097F7FF1F239487A4B2402244CE
:10546800924441018280828097F7FF1F23A207AEF2
:1054780097F7FF1F9387C7A7DC57011106CEAA85A8
:1054880081C72AC68297B245CDC19C410545D9CB73
:10549800DC41C9CB83D78500D1C783D7A500D9C341
:1054A800514617F5FF1F130565A997B0FF1FE78041
:1054B800803F97F7FF1F238907A897F7FF1F938758
:1054C800E7A79C4317F7FF1F232EF7A097F7FF1FA7
:1054D80083C777A38DE79307805717F5FF1F0355F9
:1054E80065A63305F50237460F00130606248146E4
:1054F8008145EFE0B16C97F7FF1FA386A7A017F7C8
:10550800FF1F034757A0A54763E7E700A94717F719
:10551800FF1FA30AF79E17050000130545D8EFF0F3
:105528007FA40145F2400561828097F7FF1F23A3FE
:10553800079897C7FF1F9387C78517F7FF1F232F64
:10554800F79E7D5797F7FF1F23ACE79EB78732007A
:10555800938727A197F6FF1F23A6F69E97F7FF1FAD
:105568002384079EB7C7004023A4E726B9B70111D3
:1055780022CC17F4FF1F1304A497084406CE26CAAA
:105588004AC801E90545F2406244D24442490561EE
:1055980082805C58E5DB185C75D77000854582977A
:1055A8001844B247E300F7FE9305E00417F5FF1F20
:1055B8000355C59497C0FF1FE780E0DF17F7FF1F6B
:1055C800232CA78E61D117F6FF1F03562693930548
:1055D800F00F97B0FF1FE7802034814417F9FF1FB1
:1055E8001309898B97F7FF1F83C767910326090261
:1055F80063C1F402328597C0FF1FE780E0EA0145E6
:1056080097F7FF1F23AA078A97F7FF1F23A8078A80
:105618009DBF97F5FF1F83D5658EB3879502084414
:10562800185C898185043E9508C2029765BF0111FF
:1056380056C297FAFF1F938AAA8B83A78A0022CCA7
:105648004AC84EC606CE26CA52C45AC0AA892E8453
:1056580032896386072203A74A03630907141307DD
:10566800F01F6367A71497F4FF1F9384E48203AACB
:10567800040263170A0A9565938515E017F5FF1F5D
:105688000355C58797C0FF1FE780E0D297F7FF1F34
:1056980023A4A7822A86630B051083A74A0303A5C0
:1056A8008A0097F5FF1F83D565858981829783A72F
:1056B8008A0003AA040217F7FF1F2321F7808947EE
:1056C800639CF908C1476313F40E97F5FF1F83D550
:1056D800E582938505FC9147B3C5F5028A05D29505
:1056E80003C725009307A005631EF70A83D70500A3
:1056F800639A370B4A852286910597B0FF1FE7808A
:10570800801A9C505285639347150145F2406244C4
:10571800D2444249B249224A924A024B05618280E8
:10572800D850E38EE7F89565938525E017E5FF1FC8
:105738000355C57C97C0FF1FE780E0C72A8A3DC58F
:105748002A8683A74A0303A58A0097E5FF1F83D506
:10575800E57A89818297A5B78D47639DF900C1478E
:105768006316F40497E5FF1F83D54579938545FDB6
:10577800F199B5B79147639AF9006319340397E52E
:10578800FF1F83D5A577A115E5B793070010639F81
:10579800F900A14763EC870097E5FF1F83D50576DD
:1057A800C115F9B79C5052856396470D2945B9BF75
:1057B8001D6A568B6371450B130A05E01947334A76
:1057C800EA0217E7FF1F0357677397EAFF1F938AD9
:1057D800AA6C330AEA023E9A83A74A0263954701F4
:1057E80083A40A029DE49305E00417E5FF1F03550F
:1057F800E57097C0FF1FE78000BCAA8445D98327BE
:105808004B0397E5FF1F83D5656F2A8689815285EB
:10581800829791451307A005898193972500A6973C
:1058280083C627006393E60483D60700639C360388
:1058380085058A052286A6954A8597B0FF1FE780C9
:10584800800683A70A02E38297EC268597C0FF1F8C
:10585800E78080C55DBD21677917E369A7F4330A3E
:10586800454185B783C5370045BF83A70A02E38F43
:1058780097F2268597C0FF1FE78000C305BF97E70B
:10588800FF1F938767618C5395D191479306A005B5
:105898008983139727002E9703462700E318D6F02D
:1058A80003560700631C360185078A072286BE95C2
:1058B8004A8597B0FF1FE78000FF81BD8347370007
:1058C800C1BF97E7FF1F9387A762984739C79C5FB7
:1058D800A9C705476313E504411122C417E4FF1F54
:1058E8001304845B105006C60DC6485097E5FF1F89
:1058F80083D5C56089818297085097C0FF1FE780CC
:10590800A0BA97E7FF1F23A9075A97E7FF1F23A706
:10591800075AB2402244410182808280011117E770
:10592800FF1F1307E75C4EC68329870022CC26CACF
:105938004AC806CE52C456C2AA842E843289638BC2
:1059480009201C5FBA8A99EB2945F2406244D24487
:105958004249B249224A924A056182805C5BEDD78E
:105968009307F01F63EAA70E97E9FF1F9389C952AF
:1059780083A70902B1CB03A58A0083A749026395CF
:10598800A70689476393F408C147E31FF4FA17E5AC
:10599800FF1F0355A5569147130505FC3345F5022E
:1059A8009317250003A509022286CA853E95930709
:1059B800A0052301F50023109500110597B0FF1FDE
:1059C800E78060EE014551B79305E00417E5FF1F36
:1059D8000355C55297C0FF1FE780E09D97E7FF1F5B
:1059E80023ACA74C49F98DB783A74A0303A609023C
:1059F80097E5FF1F83D585508981829783A78A0001
:105A080017E7FF1F232CF74AADBF8D47639EF400AD
:105A1800C147E31BF4F217E5FF1F0355254E130595
:105A280045FD9377C5FFBDBF9147639AF400E31D19
:105A380094F017E5FF1F0355654C2115DDB7930753
:105A48000010E393F4F0A147E3E087F017E5FF1FA8
:105A58000355C54A4115F1B79D676379F506930764
:105A680005E01947B3C7E70217E7FF1F03570749C0
:105A780017EAFF1F130A4A42B387E702BE99832732
:105A88000A02A1CF83274A026399370703250A022E
:105A980091461308A0059305F00F93D72600139796
:105AA80027002A9703462700631F06078358070025
:105AB8000346370063959806B306D64063CF86043D
:105AC80085078A072286CA853E95CDBD2167791745
