:041000006F20405DC0
:10100400000000000000000090000020DE08002026
:10101400A9BDF9F5940900200000000000000000BB
:10102400940900209000002000000000000000004F
:10103400900000200000000090000020000000004C
:101044009000002090000020100A00209000002052
:1010540090000020600E002090000020000000009E
:1010640090000020900000209000002090000020BC
:10107400FA09002090000020900000209000002039
:10108400900000209000002090000020900000209C
:1010940001A04111B7170040985F3AC6945F3247E8
:1010A400E39CE6FE324541018280411181460146BE
:1010B4008145114506C6EF001024B72700401147AB
:1010C4002383E780B7F700E003A707D16D9B23A82C
:1010D400E7D003A707D15D9B23A8E7D07300501086
:1010E40001000100B24041018280011181460146A4
:1010F4008145114506CEEF001020B7270040114767
:101104002383E780B717004083C6E70203C5E704DB
:101114001307800893F6C60F1365350093E616008F
:10112400733607801376860832C00F1000009305CB
:1011340070052380B704130680FA2380C7040F10B8
:1011440000002382070223800704024873280880D2
:101154000F100000733807801378880842C20F10FC
:1011640000002380B7042380C7040F1000002387E6
:10117400D7022387A704238007049246F3A6068098
:101184000F100000F336078093F6860836C40F105C
:1011940000002380B7042380C7040F10000083C617
:1011A400B70493E60602A385D70423800704A24666
:1011B400F3A606800F100000B7F600E003A506D1E1
:1011C4001365450023A8A6D003A506D15D9923A8DD
:1011D400A6D0730050100100010073370780137705
:1011E40087083AC60F1000002380B7042380C70481
:1011F4000F10000003C7B7041377F70DA385E704A6
:1012040023800704B247F3A707800F100000F240C1
:10121400056182805D71B7F50700A2C481462A8406
:101224001018E105194586C6A6C2CAC002D8231AF9
:10123400010202DC231E0102EF00F00BB71700408D
:1012440083C6E7041307800893E6360073360780E5
:101254001376860832C40F100000930570052380AE
:10126400B704130680FA2380C7040F1000002382FA
:101274000702238007042245732505800F10000010
:1012840073350780137585082AC60F100000238064
:10129400B7042380C7040F1000002387D7042380DA
:1012A4000704B246F3A606800F100000F336078049
:1012B40093F6860836C80F1000002380B7042380F5
:1012C400C7040F10000003D50702F176FD16E98E5E
:1012D4002390D70223800704C246F3A606800F108A
:1012E400000037F500E0832605D193E64600232865
:1012F400D5D083D607026575110593F60660C18EB5
:10130400C98EC206C18273350780137585082ACA3F
:101314000F1000002380B7042380C7040F100000BF
:1013240003C5F70013650504A387A7002390D7021C
:1013340023800704D246F3A606800F1000009166AE
:10134400758C1DE873370780137787083ACC0F1024
:1013540000002380B7042380C7040F10000003C7D4
:10136400B70413670702A385E70423800704E24751
:10137400F3A707800F10000037F700E0832707D199
:10138400DD9B2328F7D07300501001000100B7F54E
:10139400070081463018E1051945B12F6257C2573D
:1013A4006305F70E6810974000E0E780604EB717BA
:1013B400004003C9E70083C41703E1391307A500FC
:1013C400B707C0A81379F90F93F4F40F63F6E70095
:1013D4003707405729072A9793068008F3B70680F2
:1013E40093F787083ECE0F100000B717004013058F
:1013F40070052380A704930580FA2380B7040F1097
:10140400000021462387C70013060002A388C702F1
:10141400D8DB238007047247732707800F1000006E
:1014240037F700E0032607D1136686022328C7D0C6
:10143400032607D1136686002328C7D073005010F3
:10144400032607D1136686002328C7D073005010E3
:10145400F3B6068093F6860836D00F10000023807A
:10146400A7042380B7040F10000023872701A38853
:101474009702238007048257F3A707800F10000008
:101484003255974000E0E780A04213078008F33705
:10149400078093F787083ED20F100000B71700406B
:1014A400930570052380B704130680FA2380C704CC
:1014B4000F10000083D60702C606C5822390D70208
:1014C400238007049256F3A606800F100000F3361B
:1014D400078093F6860836D40F1000002380B704E3
:1014E4002380C7040F10000003D50702F176FD1610
:1014F400E98E2390D70223800704A256F3A6068020
:101504000F1000000DEC73370780137787083AD665
:101514000F1000002380B7042380C7040F100000BD
:1015240003C7B7041377F70DA385E70423800704E3
:10153400B257F3A707800F10000051450D21B640A4
:1015440026449644064961618280397152D48146A9
:101554002A8A01468145114522DC26DA06DE4AD86C
:101564004ED637140040412B8347E4020347E4047A
:101574009304800893F7C70F1367370093E71700A6
:10158400F3B6048093F6860836C60F10000093095C
:10159400700523003405130980FA230024050F1075
:1015A40000002302040223000404B246F3A60680CA
:1015B4000F100000F3B6048093F6860836C80F10A7
:1015C400000023003405230024050F100000230726
:1015D400F4022307E40423000404C247F3A70780AA
:1015E4000F10000013055002F928B7F700E003A715
:1015F40007D11367470023A8E7D073B70480137794
:1016040087083ACA0F10000023003405230024057C
:101614000F1000000347F40013670704A307E40056
:10162400230004045247732707800F10000073B788
:101634000480137787083ACC0F1000002300340588
:10164400230024050F1000002167336AEA002310E9
:101654004403230004046247732707800F1000002B
:1016640003A707D15D9B23A8E7D0730050100100A6
:1016740001008146014681451145B529F3B4048032
:1016840093F4840826CE0F100000230034052300B1
:1016940024050F100000FD572316F4028347640449
:1016A40093E717002303F40423000404F247F3A789
:1016B40007800F100000F2506254D2544259B259BC
:1016C400225A21618280B7F707000111944B130756
:1016D4008008F337078093F787083EC20F10000095
:1016E400B71700401308700523800705930580FA97
:1016F4002380B7040F10000003C6B7041376F60D59
:10170400A385C704238007041246732606800F109E
:1017140000001376050255CEF336078093F686084B
:1017240036C40F100000238007052380B7040F1070
:101734000000B70614007D89558D88C7010001009B
:101744000100010023800704A246F3A606800F10BF
:10175400000073370780137787083AC60F1000001C
:10176400238007052380B7040F1000000F1000002A
:101774003727004093061005A303D780238007046E
:10178400B247F3A707800F10000093078008F3B750
:10179400078093F787083ECE0F100000B71700406C
:1017A400130770052380E704130780FA2380E704F6
:1017B4000F10000003C7B70413670708A385E704E5
:1017C40023800704F247F3A707800F100000056188
:1017D40082801376050459C273360780137686080F
:1017E40032C80F100000238007052380B7040F10B0
:1017F400000037061400130606047D89518D88C73E
:101804000100010001000100238007044246732601
:1018140006800F10000073370780137787083ACAD1
:101824000F100000238007052380B7040F10000069
:10183400A54793F6F60F639EF600B72700401307FB
:101844003005A383E780B717004023800704D247FD
:101854000DBFB727004013072005E5B7733707808E
:10186400137787083ACC0F100000238007052380E4
:10187400B7040F10000098471367070C98C723801C
:101884000704E247FDBD011181460146814511452A
:1018940006CE952493078008F3B7078093F787084B
:1018A4003EC60F100000B7170040130770052380D1
:1018B400E704130780FA2380E7040F10000003C72E
:1018C4006704136717002383E70423800704B247E0
:1018D400F3A707800F100000F240056182804111D8
:1018E4008146014681451145392413078008F337A1
:1018F400078093F787083EC40F100000B717004015
:10190400130670052380C704930680FA2380D70446
:101914000F100000FD552396B70223800704A2454B
:10192400F3A505800F10000073370780137787082D
:101934003AC60F1000002380C7042380D7040F1079
:10194400000003C76704136717002383E704238099
:101954000704B247F3A707800F10000001A0BD479A
:101964003305F50201007D1575FD8280411122C405
:1019740026C206C6AA84014463179400B2402244D6
:1019840092444101828005041305803E4204C13F14
:101994004180DDB79305000273A0458082457390B2
:1019A400153492402242B2424243D2436244F2444A
:1019B400025592552256B2564257D2576258F2589F
:1019C40006499649264AB64A464BD64B664CF64CCF
:1019D400065D965D265EB65E465FD65F096173005E
:1019E40020304111B7170040985F3AC6945F3247E0
:1019F400E39CE6FE324541018280B717004013079D
:101A040000032388E702854723A6F18E7300203064
:101A1400B71700407D57239FE70823990708894596
:101A240003C58184976000E0E780A06373002030E1
:101A3400411106C6EF008079F5BF230304801547E2
:101A44002303E48001002302A4808280830764804E
:101A5400E3CE07FE23030480828083076480E3CE01
:101A640007FE03454480828083076480E3CE07FE3B
:101A74002302A4808280411126C44AC24EC006C6F5
:101A84001377F50BAD47AA892E8995446306F700B1
:101A940019456537653F8D444E854537FD59FD141D
:101AA40063983401B240A2441249824941018280C0
:101AB400135509011375F50F453F2209CDB70111DF
:101AC40026CC06CEB704080051371545BD3771370B
:101AD40069372AC6A53F32459377150089EB13650C
:101AE40015001375F50FF240E24405618280FD1480
:101AF400E9FC0145CDBF397126DC4ADA4ED852D60D
:101B040056D45AD25ED006DE62CE66CCB7E700E089
:101B14007D5783AA070022C603AA470023A0E7181B
:101B240023A2E718B7170040130770052380E704C2
:101B3400130780FA2380E70483C74704930B75FFD8
:101B4400B684E20793FBFB0F8546AA892E8B328964
:101B540037240040E187015763FA76016308D50012
:101B64008946130700026313D5000157D98F93F7F1
:101B7400F70FB71C00402382FC0411472303E480C1
:101B84001305F00F5D3D094CD135636D7C11B7052C
:101B94000700DA9537870700795563F2E504B387C0
:101BA4009500636EF702370B0800A94733EB650114
:101BB4006399F90689E48144513D26850DA0DA85AF
:101BC4000945553D05090345F9FFFD14050B693D1C
:101BD40081C49377FB0FFDF7DD3569FD7D55B7179C
:101BE4000040130770052380E704130780FA23805D
:101BF400E70403C74704418B2382E704F250B7E7A5
:101C040000E023A0571123A24711E2543244525951
:101C1400C259325AA25A125B825B724CE24C216165
:101C24008280A5476395F90685691309F00FB30609
:101C34009900B3742B01B6941349F9FFB374990056
:101C4400856B33796901416B9387F9FFB3F72701FA
:101C540099E363FC340193D94900C147E3E637FFB4
:101C640099BF0569C1697D19D9B71305800D6388CA
:101C74006901130500026384790113051008CA85FC
:101C8400DD3B353D21DD4E99B3843441D9B7DA8546
:101C94002D45D533CA94E30099F205097D3BA30F82
:101CA400A9FED5BF9387F9FF93F7F70F6361FC0C87
:101CB40083C71C0413073008631FF70437070800A1
:101CC400636BEB04B3079B00B706100063F5D704FE
:101CD400334BEB0089476393F9068980D549E38C3C
:101CE40004ECDA850945413B11090327C9FF9147F3
:101CF4002320E48003076480E34E07FE230334813A
:101D0400FD17EDFBFD14110B81C49377FB0FE9FF65
:101D14007D3371F5E1B5B717004003C75704B70722
:101D240008001377070219E3B78707007955E378AA
:101D3400FBEA33079B00E3FFE7F855B58547E382E9
:101D4400F9F2DA852D45053B9389F4FFE38504E632
:101D5400293393F7390091EB832604800327090084
:101D640093074900E39AE6E43E89CE84F1BFB54780
:101D74006396F9001305900BC93135BDB1471305BE
:101D8400B00AE38BF9FE99476391F904B70508009B
:101D9400B365BB002D45C53181448D4BA1497539CF
:101DA40063967401832704802320F9008504E39853
:101DB40034FF8327048013172B0163550700231274
:101DC400F900D5BB2322F900FDB39D476399F902BD
:101DD40081451305B0044531BD4423200900232265
:101DE4000900FD599D3993F77400CA9703C707008A
:101DF400FD14398D2380A700E39634FF6DBBA14702
:101E04006392F9046D398144630D0B008D4793048B
:101E1400C0036308FB009304000563048B0193046F
:101E240040041375C507E30895D819453931393984
:101E34000545213126850D3909453D314931E31CDC
:101E440005D669BB91476399F90013056006F53619
:101E5400F53E130590090DB7E38F09D4F154A9BBDE
:101E6400197106C212C416C61AC81ECA22CC26CEBE
:101E74002AD02ED232D436D63AD83EDA42DC46DEE6
:101E8400CAC0CEC2D2C4D6C6DAC8DECAE2CCE6CE56
:101E9400EAD0EED2F2D4F6D6FAD8FEDA9385418EA1
:101EA4008841E700050092402242B2424243D243B5
:101EB4006244F244025592552256B2564257D257C2
:101EC4006258F25806499649264AB64A464BD64BBA
:101ED400664CF64C065D965D265EB65E465FD65F42
:101EE400096173002030B7E700E09843B70620008B
:101EF40023A0D718758F0F10000001C599C1814721
:101F040011E6B7E700E023A0E7108280B386F5006E
:101F140003C80600B306F500850723800601E3170E
:101F2400F6FEC5B737E700E01C43B70620002320C0
:101F3400D718F58F0F10000019C191C111E637E7CA
:101F440000E02320F7108280910503A7C5FF110547
:101F54007D16232EE5FEDDB737E700E01C43B70608
:101F640020002320D718F58F0F10000001C5330778
:101F7400C50011E637E700E02320F710828005054D
:101F8400A30FB5FEE31DE5FEF5B781473307F50062
:101F94000307070019E33E8582808507C5BF37E73D
:101FA40000E01C43B70620002320D718F58F0F103C
:101FB400000001C599C1014711EA37E700E0232079
:101FC400F710054582800507E309E6FE3308E500BE
:101FD400B386E5000348080083C60600E305D8FE7F
:101FE40037E700E02320F710014582809307F6FFCE
:101FF400BE952A966313C5008280FD1583C715001C
:102004000505A30FF5FEFDB7AA87014581CF09CECB
:102014003E96850703C7F7FF6317B700E39BC7FE28
:10202400054582808280014582807971974700004E
:10203400938787A922D4804306D626D24AD04ECE8F
:1020440052CC56CA5AC85EC669C037C9C901014BC9
:10205400974900009389C9A61309F937174A000064
:10206400130ACAA6974A0000938ACAA0974400009C
:10207400938484AA8357240095E35C44631D0B0076
:10208400174700002322F7A4832BC4002285EF0006
:10209400B0205E84A9A82326FB00FDB783A709000E
:1020A40082971C443307F5406375F500D8401D8FB3
:1020B4002A976361E9089747000023A5079C835585
:1020C400240003450400976000E0E78080F95C4049
:1020D4005844B9C70C44D040AE97BE8663E4B700F9
:1020E40063E4C700B386C74014C4228B3A8459F012
:1020F40097470000938707989C4B09476373F70839
:10210400F91717470000232FF796B2502254925420
:102114000259F249624AD24A424BB24B456182802B
:1021240063170B009747000023A0E79AB1BF23264B
:10213400EB0099BF03274A021DCF63E1A70433854F
:10214400A7408347040085E31747000003477799B6
:102154005917B307A7003E85D44063E4E70063E45E
:10216400D7003385D74083A70A016376F5009747E4
:10217400000023A9A790228B404495BFD840BA976A
:102184007DBF9747000023AF078E41B797470000F4
:10219400938707989C4385C3411106C68297974746
:1021A400000083C7C79189E79747000023A20796D9
:1021B400B240410182809747000083C7479091E76E
:1021C4009747000023A6079482808280411122C48D
:1021D400174400001304C48C1C4006C626C24AC01F
:1021E40091C782979747000023AC078A974700005E
:1021F40083C7979F858B174900001309A99E89CF30
:102204008347790019476312F71097470000A38D9D
:10221400079CF9295C4482971C4491C38297974494
:1022240000009384248A984017460000034696844D
:102234009747000083C7078493961700BA9683D6FE
:102244000600E5C29747000083C7C78263E5C70E4F
:1022540097470000238007821C40639E071497471A
:1022640000009387E7859C43638707149747000022
:102274009387878ADC43174700002325F78075334B
:102284009747000083C7B7966397071297470000E4
:1022940083C7D79591CF8347790093F7F70F89EBDD
:1022A40097470000A3840794971001E0E780606CCF
:1022B4009747000093878781DC53638E070E973717
:1022C40000009387277B9C4BFDC783477900154704
:1022D4006363F70E9747000083C74796918BE1EF3E
:1022E4009737000083C7A77DF9E790409736000031
:1022F40083C6567863C7D70C2244B240924402493D
:102304004101176300E06700C337834779001D4725
:10231400E314F7F097470000A388078CD12E1C48DC
:10232400DDBD850793F7F70F973600002384F67415
:10233400E3E0C7F001BF86073E97835507002310EB
:10234400070097370000239B077697370000938791
:10235400E7749C43173500000345C5711317250026
:10236400BA979C4382979737000083D7277517370E
:1023740000000347277093C7F7FF7D8D931717005D
:1023840098403E97835707005D8D2310A700973729
:10239400000083C7276E91C7850717370000230BFA
:1023A400F76C173700000347E76C9737000083C7C3
:1023B400776CE37FF7E8B24022449244024941013A
:1023C4008280139717003297035707006DF785072C
:1023D40015B737C700408326C720B707FCFFFD1792
:1023E400F58F2326F720010001009737000093871B
:1023F4006768C84F832787262326D7206A0593C793
:10240400F7FF99835D8D8280EFF05FD87300000041
:1024140000000000973200009382626A0383020086
:1024240023800200630F0300F32510342EC09705A8
:1024340000009385A5FD73901534EF00E050730000
:10244400203086DCEF004050E650828000001737D1
:1024540000001307E7781443411122C49C5E4AC06C
:1024640006C6998326C2858B3A841739000013095E
:10247400E976D1CB930700069CDE173700000347AB
:10248400C77693070008973400009384A475631BF0
:10249400F700832709009C4393F7070417370000CC
:1024A4002305F77483C7040093F707049DC3973784
:1024B40000009387E7609C4382979737000023A12D
:1024C400A77483C7040093F7F70B17370000230B97
:1024D400F77083C7440093F7070495E785471737D8
:1024E4000000A303F77097370000938727729C437B
:1024F4003707020098C7130700FC973600002385AE
:10250400E66E9848F8D318401C5F9183858B8DC381
:102514001C5F93E707011CDF973700009387076F61
:102524009C4323A20706854717370000230EF76A4A
:1025340083270900D8430583058B19C7D843759BA6
:10254400D8C3D843799BD8C3B240224492440249A9
:1025540041018280ED3D730020309317D50063D391
:102564000702973700009387676A9C437D57B8D763
:102574009737000093870750DC4F85071737000013
:102584002328F750937785009DCB9737000083C7A6
:10259400876593E71700173700002306F76493074E
:1025A40000F8173700002301F7649737000093877A
:1025B400276398435C57F19B93E717005CD79377A5
:1025C40015008DC79737000083C7D76193E71700BD
:1025D40017370000A308F760973700009387476018
:1025E40098435C57F19B93E717005CD7937765009A
:1025F40095CB93774500173700001307A75ECDCB23
:102604008347070093E7170017370000230CF75C94
:10261400973700009387C75C98435C57F19B93E717
:1026240017005CD79317F50063D40702174700001F
:1026340003474780418B973700009387277851C31E
:1026440083C7870793E70702173700002304F77E41
:102654009317E50063D707029737000083C7C7586D
:10266400E207E18763D70700854717370000230D8A
:10267400F75697370000938767599C433707020042
:1026840098C79317C50063D40702173700000347A0
:10269400777A058B973700009387477229C383C7DE
:1026A400970793E7270017370000A305F778828080
:1026B4008347370093E7170017370000A305F75245
:1026C40081BF03C7870789463D8B6308D70083C74B
:1026D40087070D47BD8BE39DE7F69147B5B703C761
:1026E4009707118B69D783C7970793E7870065BF5F
:1026F4009737000093878751944397370000938757
:10270400674E03C70700058B11CB97370000238D55
:10271400074C97370000A389074C828003C7170032
:10272400058B65F7F85271FF83C75700DDB717377C
:1027340000001307E74A03280700832788039583CB
:10274400858BADEF11C683270803BD832300F600F4
:102754009DC61C43985B4607935767016356070061
:1027640093E707C0C207C18303970600C207C18766
:1027740009C7BA970947B3C7E7022390F6008DCD7E
:102784008345150095C99737000083C7074693F71B
:10279400070413879500894585C33A958347050047
:1027A4000547994593F6F7066398E600E207E18743
:1027B400814563D30700B9452E8582808545EDBFE9
:1027C400411122C406C626C217340000130404446F
:1027D40045E114402E87FC52FDFF97370000238407
:1027E4000740973700009387672ED453BE8495C65D
:1027F400B7E700E0B706200023A0D728B7F700E02A
:1028040083A607D1ED9A23A8D7D083A607D193E650
:10281400860323A8D7D0730050103A85B285971049
:1028240001E0E78060FC973700009387673B9C4397
:10283400B70680009843558F98C3D857719BD8D753
:1028440097370000A382073A97370000A38C073814
:102854001C40094798C3DC5085CF37F700E0832735
:1028640007D193E787002328F7D0730050100DA0F9
:102874008D476315F50497370000938767369C43AB
:10288400B70680009843558F98C3D857719BD8D703
:102894001440173700001307E73483472700858B5C
:1028A40089EB83473700858BC9CF97370000238D89
:1028B4000732B24022449244410182808547E319A1
:1028C400F5FC9737000093876720D4533E8795C65D
:1028D400B7E700E0B706200023A0D728B7F700E049
:1028E40083A607D1ED9A23A8D7D083A607D193E670
:1028F400860323A8D7D07300501014408177FD17A6
:10290400D046F18FDCC60F1000001440B707020058
:102914009CC6930700F8973500002387F52C97375A
:1029240000009387E72B9C439C439D83858B99C729
:1029340093076019FCD2D0C65C5339BF9307E01BE0
:10294400D5BFFC52B9FBB5B7973700009387072C66
:102954009C438847D847798D09C988C7938781974D
:1029640003A30700630303000283828097370000F8
:102974009387C72998438967938707F47CD397374C
:1029840000009387E72D9C4383A6070913965600FE
:102994006358060083A6070913966600634406007D
:1029A4007453FDF282804111B7E700E022C48043F2
:1029B4003707200006C6798C23A0E7180F10000003
:1029C40011C199E5B7E700E023A0871001457DA870
:1029D40093073500C207C183F19BC207C183130764
:1029E40040036369F702173700001307A730084351
:1029F400173700001307872F14436392A602173773
:102A040000001307A70C185B55DFC207DD8D0545D1
:102A140002974DBF173700001307872DC9BF03570F
:102A240065002DEB035745006366F706B306F740D0
:102A34002146637CD60203280500938687001D8FF8
:102A4400AA96611717360000035626032392E60060
:102A540023A006012393060014C12312F5001307D3
:102A640086FF97360000239AE6002313B5009735B6
:102A7400000083D58500B387F54017370000231E77
:102A8400F7FEB7E700E023A087102105B2402244F7
:102A940041018280084195B7B7E700E08C433707CE
:102AA400200023A0E718F98D0F10000001E523A0F2
:102AB400B7108280973700009387C72303A30700CA
:102AC400973700009387872283A8070081469A8757
:102AD40063F2170D03A807006361F50C636FA80A7E
:102AE400138787006368E50A03D667002167050733
:102AF4006317E60003C7019705072388E196173596
:102B04000000130525F703D64700035765002393F8
:102B14000700329742074183173E0000231FEEF45B
:102B2400638C6702173300001303831C0323030021
:102B34006304F30203D366006310030283D74600E1
:102B440023A0060121073E9621062392C60097374B
:102B540000002394E7F2B6879843630D1703973672
:102B640000009386E61894426306D70283566700F2
:102B740095E283D64700035647001843A106B29650
:102B84002392D70098C383576500A1071737000025
:102B94002315F7EEB7E700E019BFBE86C2870DBF65
:102BA40003278511630407120346E5048546630081
:102BB4000612411122C406C68347C5002A8493F72E
:102BC400C70F2306F500834597000358C7001395E4
:102BD400850161856370060963590506034587000D
:102BE40093F5F507A304B70093E527006314D50014
:102BF40093E517002306B4005C4389075CC3A30A6A
:102C0400C400032504114C430905EFF0CFAD83271D
:102C1400841103465401D44303D7C700B296118FDD
:102C2400D4C32396E7008947A30DF4000347640344
:102C34009737000083C7A7EA6377F7048347C40084
:102C440093E707012306F4003DA893E71700230642
:102C5400F40075B71376F80F635D0502034587002A
:102C640093E527006314D50093E517002306B40009
:102C7400A30AC400A30407008547A30DF400832717
:102C840084119C43C5F7B2402244814636854101F4
:102C9400828093E717002306F400A30AC400A30468
:102CA4000700032504114C4342860905EFF0AFA346
:102CB4008327841103465401D44303D7C700B29633
:102CC400118FD4C32396E7008D4745BF85463685CB
:102CD400828097370000938727219C43411122C4A7
:102CE40006C6858B2A84C5EF4165130525F5970033
:102CF40002E0E780E0D245C58347A5002315F5002F
:102D040083270412BDE72320A4122322A41285479B
:102D14002311F4042320050083476401544123163E
:102D2400F5000347D4002304E5000547A304E500A8
:102D340017370000130707EB585313851702158143
:102D44001C437D151375F50F9CC25C43DCC21C4704
:102D54009CC65C47DCC61C4B9CCA5C4BDCCA1C4F43
:102D64009CCE5C4FDCCE19CD938606021307070276
:102D7400C1BF8327441288C3835724042322A41287
:102D8400850779B79737000083D7C70385071737B7
:102D940000002319F702B240224441018280834794
:102DA400C40023090400054593C747002306F40023
:102DB400DDB78347850193F7E70FD5EF8347950187
:102DC400DDEB034625018346C50009CA8345650337
:102DD400173700000347B7D063E7E50013F7060190
:102DE40041CF014709C6C18A0357651C81C6835672
:102DF400A51C369751C31307C71217350000035596
:102E040025D2B335A70237460F0041111306062415
:102E1400814622C426C206C67D543305A7029750B4
:102E240002E0E78060DA9737000083C797CBB3846A
:102E3400A70097370000938767F803A787098327BC
:102E4400070963F387003E84184375FB9737000036
:102E5400938707C79C43829781476364A400B307A1
:102E6400A440B2402244B3B7970093C717009244DA
:102E74003E854101828081473E85828097370000EC
:102E84009387C7D898433C5BFDFF01000100828013
:102E9400011122CC4AC84EC606CE26CA52C456C216
:102EA4005AC00347B50085472A842E89832905091A
:102EB4006311F72683570508835AC503173A0000A0
:102EC400130A8AC5173B0000035B8BC563FB5721BC
:102ED400834605016397E6200327851163130720C2
:102EE4000327450A631F071E8346F5001D47639A9F
:102EF400E61E03471401B38AFA4013950A0141817F
:102F040021CF9377170099CB8357E40583560404A4
:102F1400958F63D5A7001395070141819377270007
:102F240099CB8357E41283560404958F63D5A70085
:102F34001395070141819377070199CB8357C414F3
:102F440083560404958F63D5A70013950701418127
:102F5400218B11E311E105450357A4039307204E88
:102F6400832444093305A70237460F00814613061C
:102F740006243305F5029737000083C787B6B35498
:102F84009502B335AB02BE94C204C18023139408E6
:102F94003305AB02975002E0E78000C3B307350165
:102FA40033B5A7002E953E8783264A0019E163E4D2
:102FB400D7003387D740B3846403B7460F009387A1
:102FC400F623938606242320E900A697B3D7D702D5
:102FD400D6976362F7101D8F2320E900973900000C
:102FE400938909AE83A7090083240900829763E5C6
:102FF400A4123385A4406354050C83A70900829767
:10300400032709006361E512198D8357E403173719
:1030140000000357E7B08E07B387E70213070032B7
:1030240093870719B3D7E70263E7A710374A0F005E
:10303400130BFA23973A0000938A0AAE130A0A2460
:103044008357040485072310F4048347041499E385
:1030540022855922228597F001E0E780E08F75E907
:10306400832604098327C40803A74A00B6973E852C
:1030740063E4D70063E4E7003385E7408347F40162
:10308400835464082328A4088507A30FF400973702
:10309400000083D7E7A8B384F402DA94B3D44403DA
:1030A4006368950CB304954083A709002320990015
:1030B400829763E3A40C3385A440E34305F8973770
:1030C400000083C717A263E7A7089737000023A768
:1030D40087D8014541A083264A00B387F6403E972E
:1030E400E5BD8354640837470F009307F723B3847F
:1030F4006403BE9493070724B3D7F40263E7F9008B
:10310400B387F9402320F900D1BD03274A00BA99B7
:10311400C5BF23A03501D9B5973700009387C79F52
:10312400DC43BE94F9B5973700009387E79EDC43F0
:10313400998F3E95D9BDA145228597E001E0E780AE
:10314400807AA305A40297370000938727989C5B95
:1031540081EF7D55F2406244D2444249B249224A49
:10316400924A024B05618280894515458297D5B7FD
:10317400B3049740AA940DBF83A74A00BE9425BF09
:1031840039C901116C0022CC06CE2A8411331DCD1D
:10319400FD576302F502B2479735000083C5759465
:1031A40063EFB70003459402B385B7402EC697502A
:1031B40000E0E780C002F240624405618280173774
:1031C4000000130767955843BA97E9BF97F001E0E9
:1031D400E7800036CDB78280797126D206D622D414
:1031E4004AD04ECE52CC56CA5AC85EC683475503FF
:1031F40003447513AA843E941374F40F9307400296
:1032040063F687001304B4FD1374F40F03AA841344
:1032140083AAC413A38B841222865285D685974031
:1032240002E0E7806057058915E503CBD412014914
:103234008149337B6403930B50024A865285D685B9
:10324400974002E0E7804055058915C563916903FD
:103254001374F90F238B8412B250225492540259DE
:10326400F249624AD24A424BB24B45618280850997
:10327400E20993D989410509E31179FDE1BF832767
:10328400850903560504797193D60701BD8EC206DC
:10329400C182358E1357764093575640898B058BE0
:1032A4005D8F93573640918B5D8F93571640A18B5A
:1032B4005D8F93171600C18B5D8F9317360093F7BC
:1032C40007025D8F931756009355860093F7070402
:1032D4001E065D8F1376F60F518F93D7554013D684
:1032E4003540118A898BD18F13D67540D18F13D66F
:1032F4001540218AD18F13961500418AD18F1396D8
:10330400350013760602D18F139655001376060402
:103314009E05D18F93F5F50FCD8FA20745465D8F9E
:103324003307C70222D42A8426D252CC56CA032A8F
:103334008413832AC4135AC806D636974207418396
:1033440093577740135557400989858BC98F135577
:1033540037401189C98F135517402189C98F131517
:1033640017004189C98F1315370013750502C98FDA
:103374001315570093558700137505041E07C98F4D
:103384001377F70FD98F13D5354013D755401189CB
:10339400098B498F13D57540498F13D51540218961
:1033A400498F139515004189498F1395350013757D
:1033B4000502498F13955500137505049E05498F21
:1033C40093F5F50F4D8F2207D98FB387C7024AD0E3
:1033D4004ECE5EC662C4B697C207C18313D7774088
:1033E40013D557400989058B498F13D53740118967
:1033F400498F13D517402189498F139517004189A7
:10340400498F1395370013750502498F139557009B
:1034140093D58700137505049E07498F93F7F70F1B
:10342400D98F13D5354013D755401189098B498F4E
:1034340013D57540498F13D515402189498F1395AC
:1034440015004189498F1395350013750502498F7D
:1034540013955500137505049E05498F93F5F50FD3
:103464004D8F2207D98FB387C702130650025285A6
:10347400D685B697BD8E93940601C18033F6C402F7
:10348400137BF60F974002E0E780003105890DEDCC
:103494008347D41201498149B3849702130C500223
:1034A400C1804A865285D685974002E0E780C02EC7
:1034B4000589937BF90F11C563863403850993F954
:1034C400F90F0509E31F89FD230B6413B25022543D
:1034D40092540259F249624AD24A424BB24B224CAC
:1034E400456182805E8BCDB70111973700009387C9
:1034F400E78C22CC03A4870C26CA4AC84EC606CE43
:10350400AA8413092500854915C083C714000347FD
:103514003400858B6304F700405CFDB719469305BE
:1035240044004A85EFE0BFA7E31835FF2285F24047
:103534006244D2444249B2490561828041119737BD
:1035440000009387A78722C403A4870C26C24AC01D
:1035540006C693042500054901E82285B2402244A9
:103564009244024941018280A6851305A402972052
:1035740002E0E780A063E30225FF405CF1BF011194
:10358400973700009387878322CC03A4070C26CAAD
:1035940006CE2AC42EC6854419E40145F24062448D
:1035A400D244056182808347910003471400858BD0
:1035B4006304F7000044CDB719469305A100130531
:1035C4002400EFE0DF9DE31795FE0545C1BF000031
:1035D40097010020938141E8173100201301412213
:1035E40017E5FFFF130505A297D5FF1F938545A196
:1035F40017F6FF1F1306C6FD63FAC50083220500F4
:1036040023A0550011059105E3EAC5FE17650200E4
:10361400130545A797F5FF1F938585FB1386018A3C
:1036240063FAC5008322050023A055001105910506
:10363400E3EAC5FE1385018A972500209385458C0E
:103644006377B500232005001105E36DB5FEFD4247
:10365400739002BC8D4273904280B7220000938223
:1036640082887390023097D2FF1F9382629993E20B
:10367400320073905230973200009382E2117390BB
:103684001234730020303D432A876373C302937757
:10369400F700BDEFADE5937606FF3D8ABA960CC3FD
:1036A4004CC30CC74CC74107E36BD7FE11E28280C1
:1036B400B306C3408A069702000096966780A60068
:1036C4002307B700A306B7002306B700A305B70076
:1036D4002305B700A304B7002304B700A303B7006E
:1036E4002303B700A302B7002302B700A301B70066
:1036F4002301B700A300B7002300B700828093F52D
:10370400F50F93968500D58D93960501D58D61B7F8
:10371400939627009702000096968682E78086FAA1
:103724009680C1171D8F3E96E374C3F8A5B7B717EB
:10373400004083C5870503C8970503C7970593F51C
:10374400F50F1378F80F13678700A38CE70403C7FA
:1037540097051377B70FA38CE70403C7A70513676F
:103764001700238DE704371700408347A705858B8F
:10377400EDFF0565C146371700409308F5FF034682
:10378400A70513661600230DC7040346A705058A7B
:103794006DFE0356C705FD16C2061346F6FF3376C3
:1037A4001601C182B297E1FEA1079183130505803A
:1037B4001D8DA30C07054205230CB70441858280A7
:1037C400B717004003C777051A051377E70FA38BD4
:1037D400E70413974500598D136535001375F50FEC
:1037E400A38CA70403C7A705C18991C51367270044
:1037F400238DE70482801377D70FDDBFB71700400E
:1038040003C777051377E70FA38BE704130700F8C3
:10381400A38DE7043D47238CE70413075003A38CCF
:10382400E70403C7A7051377D70F238DE704828026
:10383400371700408347A70593E71700230DF704C4
:103844008347A705858BEDFF0355C70552055181B5
:103854008280B717004003C7E7040D89411113772D
:10386400C70F498F93068008F3B6068093F686083F
:1038740036C60F100000930670052380D704930604
:1038840080FA2380D7040F1000002387E7042380E5
:103894000704B247F3A707800F100000410182809C
:1038A400B717004003C7E7020D8941111377C70F0B
:1038B400498F93068008F3B6068093F6860836C6C9
:1038C4000F100000930670052380D704930680FA36
:1038D4002380D7040F1000002387E7022380070406
:1038E400B247F3A707800F10000041018280411105
:1038F4002A83014E930E407E130F0019930F400646
:1039040063E56E129308001913034006B378150398
:10391400854E0D4FA14F337365020D891335150084
:1039240063EFBE121308F6FF7946729842081358E3
:1039340008013307C70213D61700BE073297614642
:10394400B3F6C60213068070B386C6023697A16624
:10395400F58F42075D8FB716004083C7F60293F7D1
:103964000708A303F1000346710083C7F60293F727
:103974000708E394C7FE83477100B716004093F726
:10398400F70F6388071293078008F3B7078093F74C
:1039940087083EC40F100000B71700409306700557
:1039A4002380D704930680FA2380D7040F100000E5
:1039B40023AA070383C6170393E60608A388D7023E
:1039C40023800704A247F3A707800F1000001166A5
:1039D400B71700407D16D45BC85F93854703A98E53
:1039E400F18EF5FA93068008F3B6068093F68608FE
:1039F40036C60F100000930670052380D704930683
:103A040080FA2380D7040F10000098C103C717035E
:103A140013670704A388E70223800704B247F3A7C8
:103A240007800F100000410182807D133368E30397
:103A34009308E016630E08003368F3039308D01666
:103A4400630808009378330093B818009388D81655
:103A540033081E01131E0801135E0E0155B563934E
:103A6400E5030548638608000148630303002A88C8
:103A740071087298FD15131E0801C205135E0E012C
:103A8400C18179BD13F8150063F4BF007908D5B777
:103A940013381800E5BF83C7F60293F70708A3039A
:103AA400F1000346710083C7F60293F70708E39415
:103AB400C7FE8347710093F7F70FF1DFE9B5317162
:103AC4004AD966CB06DF22DD26DB4ED752D556D344
:103AD4005AD15ECF62CD6AC96EC7AA8C02D8EF00F4
:103AE400B0562A8993078008F3B7078093F78708AD
:103AF4003EDA0F100000B71700401307700523804B
:103B0400E704130780FA2380E7040F10000003C7BB
:103B1400F7021377770FA387E70203C7F702136748
:103B24008700A387E70223800704D257F3A70780FF
:103B34000F1000000545AD33130780C13347E90278
:103B4400116A93070AE893065002BD69930BA00417
:103B5400814A014B13048008930470057D1AB3470E
:103B6400F9023307D7023EC0FD873ECC938709A6EE
:103B74009309803E3347F7023AC27D873AC43347FC
:103B840039038549B399990193D93940B306D702CA
:103B9400B30B7703B3C6F602B3CBFB0236C6FD867E
:103BA40036C893D6FB4136CEB7460F00938606241B
:103BB4003349D9028566938606FAB3969601B3898A
:103BC400E902130780523309D90293060010B3891E
:103BD400E9023349D902B3C9F9029316390036CA46
:103BE40037190040FD8636D0930D090493D7F94167
:103BF4003ED2F336048093F6860836DC0F100000BC
:103C0400930770052380FD00930680FA2380DD006E
:103C14000F1000008346390593F6860FA309D904D3
:103C24008346390593E61600A309D90423800D00C1
:103C3400E256F3A606800F100000130C80FA116DF3
:103C4400F336048093F6860836DE0F1000009307DF
:103C540070052380FD0023808D010F100000834632
:103C64003905216693E60602A309D904835609059A
:103C7400B3E6A6012318D90483560905D18E231867
:103C8400D90423800D00F256F3A606800F1000001D
:103C94008346390593F60602638B061803463905F5
:103CA400218A6DDE0818EF00303E733604801376E7
:103CB4008608B2C20F10000023809D0023808D016E
:103CC4000F100000B717004003C637051376F60D32
:103CD400A389C70403C6370513660602A389C7046C
:103CE400835609052166B3E6A6012318D904835631
:103CF4000905D18E2318D90423800D009646F3A616
:103D040006800F1000008346390593F60602638788
:103D1400061483463905A18AEDFE97C0FF1FE7808C
:103D24004037AA8636D497C0FF1FE7808036A25654
:103D3400E30AD5FE835609054255B3E6A6012318C6
:103D4400D904EF00703683463905A18AEDDE0356A7
:103D540009058346290582473376CA00B306DA0289
:103D640093D5F641B296B388F640E24733B8C6001D
:103D74002E983308F840A247B3B616013308D8404A
:103D840063C70701631DF800924763FA1701C2472E
:103D9400634DF80E63950701B24763E8F80E894650
:103DA40063E7660FF2469315180013D3F8015E8695
:103DB40013951800B365B30042D646D4EF20D2223F
:103DC4003258050B137BFB0F63470001631408385B
:103DD400A2586381083813081500B336A800B695B5
:103DE40013D6F5013298B336C800AE9613581800AE
:103DF400FE06B3E606017336048013768608B2C65F
:103E04000F10000023809D0023808D010F100000FF
:103E14000356C902B296C206C1822316D902238070
:103E24000D00B646F3A606800F10000011BDF33650
:103E3400048093F68608B6C00F10000023809D000E
:103E440023808D010F1000008346390593E6060296
:103E5400A309D90423800D0086463DB5F3360480BA
:103E640093F68608B6C40F10000023809D002380BB
:103E74008D010F1000008346390593E60602A3095D
:103E8400D90423800D00A6469DBDE30D0BF0F33647
:103E9400048093F68608B6C80F100000930680FAD3
:103EA40023809D002380DD000F1000008346390528
:103EB40093F5FC0F93F6860FA309D90483463905BD
:103EC400CD8EA309D90423800D00C646F3A606802F
:103ED4000F100000130580FA0346390593063905CF
:103EE4001D8A631696297336048013768608B2CC2D
:103EF4000F100000130680FA23809D002380CD005C
:103F04000F10000003C606001376F60D2380C600CA
:103F140003C60600136606022380C60083560905FD
:103F24001166D18E2318D904835609052166D18ED2
:103F34002318D90423800D00E646F3A606800F104B
:103F44000000130680FA8346390593F60602638A55
:103F5400062483463905130C3905A18AFDDA0818AD
:103F6400EF009012F336048093F68608B6D00F1053
:103F74000000930680FA23809D002380DD000F104B
:103F8400000083460C00116693F6F60D2300DC0056
:103F940083460C0093E606022300DC0083560905E1
:103FA400D18E2318D904835609052166D18E23188E
:103FB400D90423800D008656F3A606800F10000056
:103FC400130680FA8346390593F6060263860620B3
:103FD40083463905A18AEDFE97C0FF1FE780600B79
:103FE4002A8C97C0FF1FE780C00AE30C85FF835625
:103FF400090511664255D18E2318D904EF00D00A61
:104004008346390513063905A18AFDDAF33604809F
:1040140093F68608B6D40F100000930680FA238026
:104024009D002380DD000F1000008346060093F6F8
:10403400F60D2300D60023800D00A656F3A60680B5
:104044000F1000008356090503462905D247B376AD
:10405400DA003306CA021305800C9355F6413696EE
:10406400330DF6408257333CD6002E9C3336A601DE
:10407400330CFC40330CCC403308850392564E86F7
:10408400B335A5033305A503C295EF20E275634656
:104094008001631E0C16630C0D16130615003335D0
:1040A400A6002E959356F5013696B335D600AA95FB
:1040B4009396F50105828585D18E6346B000639D94
:1040C400051A638B061A0356C90215823305D600F6
:1040D4003336C500B2956348B000639105241306D6
:1040E400F00F637DA622894663F356159307800873
:1040F400F3B7078093F78708BED60F100000371771
:104104000040930770052300F704930780FA230007
:10411400F7040F1000008356C70289678117D58FF3
:10412400C207C1832316F70223000704B657F3A777
:1041340007800F100000FA506A54DA544A59BA59E9
:104144002A5A9A5A0A5BFA4B6A4CDA4C4A4DBA4DCF
:10415400296182801308F5FF3335A800FD152E95DB
:104164001356F5013298B336C800AA9641B1F33616
:10417400048093F68608B6CA0F10000023809D00C1
:104184002380AD000F10000083463905CD8EA309AE
:10419400D90423800D00D646F3A606800F10000034
:1041A40025BBF336048093F68608B6CE0F100000C4
:1041B40023809D002380CD000F1000008346390525
:1041C40093E60602A309D90423800D00F646F3A65C
:1041D40006800F10000085BBF336048093F6860832
:1041E400B6D20F10000023809D002380CD000F1055
:1041F40000008346390593E60602A309D904238007
:104204000D009656F3A606800F10000065BB9306BA
:10421400F5FF33B5A600FD152E959355F501AE9621
:10422400B3B5B600AA951396F501858269B5F33640
:10423400048093F68608B6D80F100000930680FA1F
:1042440023809D002380DD000F1000008356C902E7
:104254000566011693F6F60FD18EC206C1822316A7
:10426400D90223800D00C656F3A606800F10000065
:10427400850A93FAFA0FB5BA33E6B60045C2035677
:10428400C9023305D0403338A000B305B040B3852C
:10429400054115826345B000D1E16371A6088946E2
:1042A40063F0560593078008F3B7078093F78708F0
:1042B400BEDA0F100000B717004013077005238003
:1042C400E704130780FA2380E7040F10000003D7E4
:1042D400C7027D8B2396E70223800704D65781BD4E
:1042E400F336048093F68608B6DC0F1000009306BC
:1042F40080FA23809D002380DD000F100000835688
:10430400C9020566011693F6F60FD18EC206C18264
:104314002316D90223800D00E656B9B79307800807
:10432400F3B7078093F78708BEDE0F100000371736
:104334000040930770052300F704930780FA2300D5
:10434400F7040F1000000356C70293975600B29764
:10435400C207C1832316F70223000704F657C1BB23
:10436400914763EEB702174702001307E7FF8A0578
:10437400BA959C41BA978287B717004003A7470BA9
:104384001345F5FF698F23AAE70A03A7070B698F73
:1043940023A8E70A03A7070A798D23A0A70A828026
:1043A400B717004083A6470B1347F5FFF98E23AADE
:1043B400D70A83A6070B558D23A8A70A83A6070A45
:1043C400758F23A0E70A8280B717004003A7470B25
:1043D400498F23AAE70A03A7070B1345F5FF45BF37
:1043E400B717004083A6470B1347F5FF758F23AA21
:1043F400E70A03A7070A598D4DB7B717004003A76B
:10440400470B498FEDB7914763EEB7021747020098
:104414001307C7F68A05BA959C41BA978287B717DE
:10442400004003A7470D1345F5FF698F23AAE70C46
:1044340003A7070D698F23A8E70C03A7070C798D41
:1044440023A0A70C8280B717004083A6470D13470B
:10445400F5FFF98E23AAD70C83A6070D558D23A843
:10446400A70C83A6070C758F23A0E70C8280B717CF
:10447400004003A7470D498F23AAE70C03A7070DA4
:104484001345F5FF45BFB717004083A6470D1347F3
:10449400F5FF758F23AAE70C03A7070C598D4DB7B9
:1044A400B717004003A7470D498FEDB79357E500B1
:1044B40093F70730C98FC2070547C1836382E504B8
:1044C4008DC10947638DE5040D476380E506371701
:1044D4000040231FF70883562709D58F2319F708AF
:1044E4008280371700400356670993C6F7FFF18EA1
:1044F400231BD7088326C70C558D2326A70CC1BFC1
:10450400371700400356670993C6F7FFF18E231B44
:10451400D7088326870C558D2324A70C4DBF371746
:10452400004083566709DD8EE1B737170040835694
:104534006709DD8EE9BF954763E3A70217470200C9
:10454400130707E50A053A951C41BA973757004007
:1045540082878347270093F7070F2301F7008280A0
:104564008347270093F7070F93E71700FDB78347A7
:10457400270093F7070F93E74700C5B78347270042
:1045840093F7070F93E75700C9BF8347270093F7B3
:10459400070F93E78700D1B78347270093F7070FE7
:1045A40093E797005DBF99EAB757004003C7070038
:1045B4001345F5FF798D2380A7008280375700408B
:1045C40005CE83471700C98FA300F7003757004073
:1045D400814711072146B356F540858A89C6B386BB
:1045E400E7002380B6008507E397C7FEB75700406E
:1045F40003C70700598DC1B7834617009347F5FFDA
:10460400F58FD9B7797122D43714004026D24AD015
:10461400035924028354040206D64209C2044ECE2E
:1046240052CC56CA13590901C1802DE11379F9F707
:1046340093F4F49F4209C20413590901C1809307FA
:104644008008F3B7078093F787083EC40F10000073
:10465400930770052300F404930780FA2300F404FD
:104664000F100000231124032310940223000404D8
:10467400A247F3A707800F100000B25022549254AF
:104684000259F249624AD24A45618280B7F507006D
:1046940081463000B105194597C0FF1FE780A0454A
:1046A400A24713972701E34A07FC1369090893E417
:1046B400044093098008F3B7098093F787083EC044
:1046C4000F100000930A700523005405130A80FAA2
:1046D400230044050F100000231124032310940227
:1046E400230004048247F3A707800F100000294524
:1046F40097C0FF1FE780A026F3B9098093F98908C2
:104704004EC20F10000023005405230044050F106F
:1047140000008357040293E707202310F4022300C8
:1047240004049247B9B7411193F7250031ED81CBC9
:10473400371700405C4B93F5D50FF99B5CCB93077F
:104744008008F3B7078093F787083EC00F10000076
:10475400B7170040130770052380E704130780FA96
:104764002380E7040F10000003C7E70093C5F5FF9B
:10477400F98D2387B700238007048247F3A70780B6
:104784000F100000410182807D163336C00089CBB2
:10479400371700405C4B93F5D50F93E717005CCBBC
:1047A40013078008F337078093F787083EC20F107A
:1047B4000000B7170040130570052380A704930673
:1047C40080FA2380D7040F10000003C8E700B3E584
:1047D400050193E505042387B70023800704924568
:1047E400F3A505800F100000F335078093F58508C5
:1047F4002EC40F1000002380A7042380D7040F10B9
:10480400000083C5F70093F5C50FA387B700238085
:104814000704A245F3A505800F1000007337078035
:10482400137787083AC60F1000002380A70423805B
:10483400D7040F10000003C7F700598EA387C700E1
:1048440023800704B2471DBFB717004088474205BD
:1048540041819377050491EB9377F5013755E8018E
:10486400130505803345F50282809377050C130701
:1048740000046397E7009377F50137459C1CCDB797
:104884002165130505D0828037E700E01C435443BB
:10489400A183E206D58F1CC1FD572320F7182322DC
:1048A400F7180F100000828013178500B7E700E0A7
:1048B40023A0E710618123A2A7108280B7F700E04C
:1048C4008847CC478280814737370040A14663C47C
:1048D400C700328582800345B740E38EA6FE338548
:1048E400F5000345050085072304A740CDB797E7E6
:1048F400FF1F938767369C43170700201307476001
:104904003E95636EE50017270020130767CF6368A1
:10491400A70017E7FF1F2321A7343E858280FD5798
:10492400EDBF411122C406C62A84393F2947B30783
:10493400E502B2408D83B3D7870222449507B3D7EB
:10494400E70237370040C207C1832316F74041010D
:104954008280716541111305052006C6D937B73722
:104964000040130770F82381E7400D47A381E74017
:1049740013070004A380E74005472387E740B240BC
:1049840041018280411122C406C603C7050089473C
:104994000544631DF702D8412944834717000347A0
:1049A4000700A207D98FC207C187130710EE639FC0
:1049B400E7002381D18A814793F6F60F938581AF6F
:1049C4001397070141836367D702014403C6218A11
:1049D40009CE9387418A9C4389CBDC4399C793854D
:1049E40081AF014582972381018A2285B240224406
:1049F400410182803307F600034507003387F50041
:104A040085072300A7006DBF03C70500894763130B
:104A1400F706D8418347170003470700A207D98F39
:104A2400C207C187130710EE6392E704328523900F
:104A3400060003C6118A19E20145828041112390C0
:104A4400C600938501A006C697C0FF1FE780A04952
:104A5400A380018A9387418A9C43014589C79C436B
:104A640099C382970145B240410182802390060098
:104A7400294582802390060005458280058909CD59
:104A840097E6FF1F9386C6B84146914517E5FF1F79
:104A9400130505B46F70C0240145828009C523A2A3
:104AA400A18A014582804545828051476360C702DF
:104AB4004111138501A006C6A380C18A97C0FF1FB8
:104AC400E7806042B2400145410182801305E00F56
:104AD400828003A84500411126C206C622C483472A
:104AE400180003480800A944A207B3E70701C20756
:104AF4000D68C1871308289063960703854732849D
:104B0400EF504062AA8419ED9387C18A9C4399CBE4
:104B140003451400034704002205598D133515007D
:104B240005058297B2402244268592444101828041
:104B34002D4539EBD8418347170003470700A207E7
:104B4400D98F0D67130597A1639BA7008547239011
:104B5400F60083C751802300F600014582801307C5
:104B6400879029456392E702CC45894741113285F4
:104B74002390F600094606C697C0FF1FE780A036BB
:104B8400B240014541018280828083474500858B84
:104B9400ADC7011122CC2A8403552500938501BF9A
:104BA40006CEEF50E052058929C50355240001477C
:104BB40081460546ED45EF50A00B2AC61DC997E76F
:104BC400FF1F938767A683D7A70201462C002314EF
:104BD400F10085472315F10083C751802300F500B8
:104BE40003552400EF60202B09C5ED452800EF5044
:104BF400E01FF24062440561828082804165411178
:104C0400938501BF7D1506C6EF706018B24097E624
:104C1400FF1F938666A64146954517E5FF1F1305BA
:104C2400A5A041016F70C00B23A6A18A8280411107
:104C340022C406C6854709446313F5028347060068
:104C440001442384F18A03C75180630AF7001705DE
:104C540000001305C5F3A382F180EF90E054228590
:104C6400B24022444101828085476301F50209C9AB
:104C740009476302E5020D476306E50209458280A0
:104C840083C751802380F500014582809387818A00
:104C940083C70700C5BF97E7FF1F83D78799239072
:104CA400F500DDB713878180035707002392E500E1
:104CB40017E7FF1F130747978356A7020357A70356
:104CC4002383F5002390D5002391E50075BF416748
:104CD4007917630CE502411122C406C685472A846C
:104CE400639AF50022852244B240938501BF4101B5
:104CF4006F70E00989476396F5008545EF9040455C
:104D040075D1B2402244410182808280CC4141115C
:104D140006C6328503C6150083C5050022064D8EDE
:104D240042068D654186138875A2630C060F63489D
:104D3400C804138845A26306060B634AC80093851A
:104D440035A26309B60623900600294679A0138884
:104D540055A26308060B938565A2E316B6FEC1450A
:104D64001D4663ECE5064546198E63F3C7003E868F
:104D74002390C600973502009385056489A813889B
:104D840095A26300060F634E060B1388A5A2630A5F
:104D9400060F938505A5E318B6FA99451D4663EEFB
:104DA400E502198E63F3C7003E862390C6009385FF
:104DB400018131A89D451D4663E1E5022146198E16
:104DC40063F3C7003E862390C6009385018BBA9592
:104DD40097C0FF1FE78020110146B2403285410190
:104DE4008280AD451D46E3EAE5FE3146198E63F344
:104DF400C7003E862390C600973502009385855FE1
:104E0400F9B7B1451D46E3EAE5FC3546198E63F36F
:104E1400C7003E862390C600973502009385855EC1
:104E24007DB7C1451D46E3EAE5FA4546198E63F3AD
:104E3400C7003E862390C600973502009385055926
:104E440079B7C1451D46E3EAE5F84546198E63F393
:104E5400C7003E862390C600973502009385855B84
:104E6400BDB7C1451D46E3EAE5F64546198E63F331
:104E7400C7003E862390C6009735020093854556A9
:104E8400B9B7B5451D46E3EAE5F43946198E63F32F
:104E9400C7003E862390C600973502009385C5500F
:104EA4003DB797E6FF1F9386E6904146CD4517D55B
:104EB400FF1F1305257D6F60B06282809387818C0C
:104EC4009C4303C7018C83C6F18101E781473E857A
:104ED400828003D607006316A60003C66700E308B2
:104EE400D6FE7D171377F70FA107C5B7B2862E86B6
:104EF400AA85173502001305A5566F204211854770
:104F0400631AF5001166130686A9894503C5118C39
:104F14006F20803489476317F500894503C5118CD8
:104F24006F20005E828085476396F5001DE2238D25
:104F3400B18A828009476399E50001EE238DF18AE5
:104F440003D5818B6F00C07C8D476394F500238962
:104F5400018E82809387418C9C43011122CC06CE22
:104F64002E8481CB9C4791C78297F24062440561AD
:104F740082806C0013057040EF2091033246814516
:104F84002285EF20D144D5B701119397050126CA94
:104F940006CE22CC4AC84EC652C4C187AE8463D75B
:104FA400070803C5118CEF10704B2A8439C90347D5
:104FB40005009307000D6313F70483472500454755
:104FC400638BE7046547639BE7021735020013050B
:104FD400A545EF20C203130954009309B400173AFE
:104FE4000200130AAA458345090052850509EF20EA
:104FF4000202E39A29FF2945EF2062052285EF107A
:10500400D0392165258DF2406244D2444249B249E7
:10501400224A056182800346650083457500173581
:10502400020013052542EF10927EC9BF93F71500C5
:1050340085C317D6FF1F1306667997D5FF1F93857F
:10504400257803C5118CEF30D17313C5140065BFE7
:1050540093F725000145C5DB13C525006DB77971AC
:1050640026D24ECE06D622D44AD052CC9147AA8418
:10507400AE896314F50483D7A5001306E1008545C2
:1050840013055030239CF18A23070100238D018AE4
:10509400EF40C1229387418C9C4391C7DC4781C771
:1050A400CE8526858297B250225423AE918A025926
:1050B4009254F249624A456182801387C18B184336
:1050C400E31AF7FC854503D5818B1131854503D55A
:1050D400818B692DC16703DA818BF9176318FA0094
:1050E400238D018A8547A38FF1806DB79387818CC7
:1050F40003A9070003C4018C65D40355290011C911
:105104009305E100EF50A06109C54C455285EF605D
:1051140010487D141374F40F2109F9BF0111170508
:1051240000001305A5E606CE22CCEF20007A1384F6
:10513400118C85471306F10085452300A40013054F
:105144004041A307F100EF20F14F4D45EF40A07A15
:105154007D55EF60B040B133553417050000130599
:1051640045DAD93417050000130565D5792B0345B5
:1051740004008545EF10706EF24062440561828040
:1051840023A2B18C828023A4B18C2380A18C828041
:105194009387C18B9843797122D406D626D24AD0FC
:1051A4004ECE52CC91474144631FF70083C7A18B75
:1051B400414491CB9387818C804303C7F18183C79A
:1051C400018C99EB55442285B250225492540259D1
:1051D400F249624A4561828003484400631AA80088
:1051E400034854006316B800034864006307E800EA
:1051F400FD1793F7F70F2104E9B70355240093052E
:1052040061003689B284EF5080514DDD4C4503D5A1
:10521400818BEF40F06B058955D59399040193D99F
:105224000901014781464E86ED4503D5818B035A1A
:105234000400EF40F0232AC64D4451D52686CA8582
:10524400231441012315310197C0FF1FE780A0C932
:1052540001462C0003D5818BEF50F0432A8425D5D9
:10526400ED452800EF409038B9BFC841011122CC68
:1052740006CE328403461500034505002206498EF6
:1052840019CB0D681308B8A42D4563090607F2402D
:105294006244056182800D651308D5A4630006038A
:1052A400130825A2630C060175781308E85C32988C
:1052B400420813580801854863EE080303D5A50086
:1052C40036C632C4E53EB24615C19387418C9C4331
:1052D40022468345550003A30700A2876244F24097
:1052E4000345450036878546056102832390060001
:1052F400014571BF1308B5A46317060303D6C18221
:105304001D45E376C7F8198E63D3C7003E86CC45A6
:105314002390C60042064182BA95228597C0FF1F9A
:10532400E78060BCF1B79307A5A46318F600914722
:105334002390F6001146CC45CDB7930785906317AB
:10534400F60089472390F6000946F5B79307E5A4CC
:10535400631AF600DC452390160183C70700230077
:10536400F40079B713057590E314A6F8D9BF0111B9
:1053740022CC06CE26CA4AC82317D1002D4429EBD5
:10538400DC412E89B28403C4170083C707002204BA
:105394005D8C8D679386D7A46306D400938627A378
:1053A400631FD4020355A900113E19E101440DA065
:1053B4009387418C9C43834555000345450003A8CE
:1053C40007002286A6871307E100814602982A84F3
:1053D4002285F2406244D244424905618280938628
:1053E400C7A46314D4028357E10005473544E3910D
:1053F400E7FE0345060013040008E3EBA7FC9387CC
:10540400418C9C43DC43829755B793862790631A5B
:10541400D4028356E1008547EF40D0502A844DF9E9
:105424009387818C8356A9009C4303C7018C3DDF7D
:1054340003D627006302D6047D171377F70FA1075D
:10544400FDB79387E7A4E313F4F68357E100054718
:105454003544E39FE7F60345060013040008E3E937
:10546400A7F6DC452380A7009387418C9C43333502
:10547400A0000905DC4341BF1387418C184303C5D1
:10548400470083C5570083C714000328070003C7D8
:105494000400A2078946D98FC207C18705476383E1
:1054A400E7008D460D66A6871307E10013062690D4
:1054B400029839BF411122C441641305F4FF938556
:1054C40001C206C626C24AC0EF60700C1305F4FF81
:1054D400938501C4EF60B00B1305F4FF938501C3FA
:1054E400EF60F00A1305F4FF938501C5EF60300AFD
:1054F4001305F4FF938501C0EF6070091305F4FFF1
:10550400938501C197D4FF1F9384042DEF60300865
:1055140097D6FF1F9386465641469305A0022685DB
:10552400EF60007CCC4C2A890945EFF0EFF303D5FA
:10553400A414138401C6938701832314A400138540
:1055440001840355050083C5070003C61700231A09
:10555400A40003D5A41783D7A4101387C1832318E9
:10556400A40003D5A4182310F40083D7A41123198D
:10557400A4001385418303550500834607000347B0
:105584001700231EA40003D5A41B2311F400854790
:10559400231CA40003D5A41C2303F4002306D40075
:1055A400231DA40013854184035505002307F4003B
:1055B400230BF400230FF4002302B400A302C4005D
:1055C400A306E400231504002312A40203D5A40CAB
:1055D400A30EE40203D7A4262310A40203D5A40D2A
:1055E400231CE402138781832311A40213854182BF
:1055F40003550500A30AC4020357070003D6A423D6
:105604002316A40203D5A41F2318C4022312E404FE
:1056140003D6A42403D7A4282314A40203D5A420C6
:105624002303F4022307F4022315A402230AB40279
:105634002319C402230ED4022310E4042303F40424
:10564400230B0402231D0402230F04022311040468
:10565400938581CA0D45EFF02FE1A28529452536B2
:10566400B24022444A8592440249410182808D67B6
:10567400138527A36301A6049387D7A40145631E5A
:10568400F6008947639CF500854735456397F60026
:1056940083470700A389F18C014582808D47294502
:1056A400E39DF5FE85473545E399F6FE83470700FC
:1056B4002389F18CD5B785473545E390F6FE8347BA
:1056C4000700A387F18CC9BF8D67138527A36308DF
:1056D400A6029387D7A46317F6028947639BF50054
:1056E40083C7318D2300F70085472390F6000145D9
:1056F40082808D476398F50083C7218DE5B783C702
:10570400F18CCDB723900600DDB723A0A18E828053
:105714000111938501CB22CC06CE2A84EF40501B85
:10572400058929C1014781460546ED452285EF409B
:1057340020542AC605C997D7FF1F9387A73483D758
:10574400A70401462C002314F10085472315F1001A
:10575400230005002285EF50007409C5ED4528009B
:10576400EF40C068F2406244056182804167791766
:10577400630CE502411122C406C685472A84639A54
:10578400F50022852244B240938501CB41016F602C
:10579400006089476396F5008545EF80701B75D1DD
:1057A400B240224441018280828011456FE02FB1D2
:1057B400411193962500AA852D4506C697B0FF1F73
:1057C400E7806033B240014541018280011122CC5F
:1057D40006CE3714004026CA4AC84EC652C4834473
:1057E4007405034AB4058349840503499405EFE02D
:1057F400EF808347A40593F4F40F137AFA0F93E729
:105804001700230DF40493F9F90F1379F90FB7175F
:10581400004003C7A705058B6DFF03D5C705A38DFE
:105824004705238C3705A38C2705A38B9704F240E7
:105834006244D2444249B249224A056182804111FC
:105844009397050122C406C6C1872E8463DD070031
:10585400EF10C04019C1EF1040342165218DB240D2
:1058640022444101828093F7150013C51500E5FB1E
:1058740093F7250013C52500FDF39397250163D005
:105884000702EFD0E072153737F60200130606E080
:10589400896503C5818EEF10301C0965C1B79397E4
:1058A40015010145E3DD07FA17350200130545CF5D
:1058B400EF10320A13060064916503C5818EEF1060
:1058C400B019116561BF2D71232A9110FD74E98C03
:1058D400232C811023282111232631112A84AE89F7
:1058E4003289930600100A86A6852D45232E1110B1
:1058F40097B0FF1FE78020201315440151810A054A
:1059040013962900CA850A9597B0FF1FE780A05D0A
:10591400A68585660146254597B0FF1FE780A01D33
:105924000A86A68593060010294597B0FF1FE780D5
:10593400801C8320C1110324811183244111032974
:1059440001118329C11015618280B7F7070003C7CD
:105954000701411106C622C426C24AC0A547631ADC
:10596400F7009537B240224492440249014541016F
:10597400828013942500AA843289A286AA850146CE
:10598400254597B0FF1FE7800017A2864A86A685A3
:10599400294597B0FF1FE7800016E9B71D714946F6
:1059A40097350200938545BB173502001305450161
:1059B40086CE97B0FF1FE780805E01E917350200AD
:1059C4001305C5BAEF10E27801A0B7F600E07957E5
:1059D40098CAFD57DCCA0567B7E700E023A0E710C3
:1059E4001306F00290C223A0E7180F10000017C797
:1059F400FF1F130727A223A2E18E4157A38AE74082
:105A0400130600048145080897B0FF1FE780C054BF
:105A140097D7FF1F938747703EC88967938707808E
:105A2400231AF1009D673ECCB70701059387071041
:105A34003ECE9307B00F2310F10285472301F102F4
:105A440097070000938707D7BEC297070000938784
:105A540007F0BEC48567938757D12312F10297F7E5
:105A6400FFFF9387E7E53ED897070000938747D663
:105A74003EDCB7F5070097070000938747D33EDE67
:105A84008146970700009387271F3000E1051945D9
:105A94003EDA97B0FF1FE780000618088147994651
:105AA40030003E960346060085070507A30BC70092
:105AB400E398D7FEC24791C70357410185676373D3
:105AC400F70001A08307410263D707049307800806
:105AD400F3B7078093F787083EC40F100000B71789
:105AE4000040130770052380E704130780FA23801E
:105AF400E7040F100000B847B70610001367071833
:105B0400B8C79853558F98D323800704A247F3A7A7
:105B140007800F1000000808EF10F05EAA8501C985
:105B2400173502001305C5A5EF10624E01A0F6401B
:105B340025618280411117050000130585D006C632
:105B440022C4EF1090581384818E2300A400B1283E
:105B5400C12A034504002244B24013060032896579
:105B640041016F10606F411193078008F3B70780FC
:105B740093F787083EC60F100000B71700401307BD
:105B840070052380E704130780FA2380E7040F10CD
:105B94000000C8DB23800704B247F3A707800F1077
:105BA400000023A6018E41018280797106D6130775
:105BB4008008F337078093F787083EC20F10000070
:105BC400B7170040930570052380B704130680FAC5
:105BD4002380C7040F10000083C6F70293F6A60FB4
:105BE400A387D702238007049246F3A606800F10EA
:105BF400000073370780137787083AC40F1000003A
:105C04002380B7042380C7040F10000003C7F702E2
:105C140013672700A387E70223800704A247F3A79B
:105C240007800F1000000545EFD09FC7BD3E814798
:105C340001478146054685451305407EEFD03FCB9D
:105C440068005146814597B0FF1FE780E030B707F1
:105C5400C0A83EC8B787E803938707D03ECA680048
:105C640097B7FF1F9387E7D73EC6EF10B07DB250BA
:105C740045618280011122CC06CE930730031304C0
:105C8400D5FC63E7A7003704C0A81304D4FC2A9406
:105C94006800EFE07FBF97A0FF1FE780803FB30756
:105CA400A4406376A400B707C0A8A297898F37479A
:105CB400F6A68117130707C6637AF7003245EFE0AB
:105CC400BFBE0945F2406244056182802285613D80
:105CD4003245EFE07FBD373700408347574093F7A5
:105CE40007048DCF9387C18E9C430D45E1FF116559
:105CF400690597A0FF1FE780E0510545EFD07FB508
:105D040097A0FF1FE780E0382AC497A0FF1FE78011
:105D14004038A247E30BF5FE01456DB7010075BF9E
:105D2400411113078008F337078093F787083EC4AF
:105D34000F100000B7170040930570052380B704C7
:105D4400130680FA2380C7040F10000083C6E700FF
:105D540093E686002387D70023800704A246F3A690
:105D640006800F10000073370780137787083AC640
:105D74000F1000002380B7042380C7040F10000015
:105D840003C7170313670702A388E70223800704E6
:105D9400B247F3A707800F100000B7E700E037070A
:105DA400001023A0E710410182800111854793056B
:105DB400F1001305D0302389F18E06CEEF30413C3B
:105DC4008347F10011476399E70003D5C185EF309C
:105DD400D100F24005618280094701456383E700F1
:105DE4000545EF00B002F5B701119305F100130565
:105DF400D03006CEEF30C1380347F100914703C5D8
:105E04008184631EF70237F60200130606E0C145DB
:105E1400EF1080441166130606E8A14503C581848A
:105E2400EF1080433756070013060630930500022F
:105E340003C58184EF104042F240056182803166DF
:105E4400130606B8E9B74111172502001305857535
:105E540006C622C4EF10E22F138481840345040094
:105E64009165EF10E069034504008545EF10406932
:105E7400814537054000EFE06FE3B71700407D57D9
:105E84002244239FE708B240B7E700E03707040045
:105E940023A0E7100546C145054541016FE0BF88D1
:105EA400011185479305F1001305D030A389F18EC4
:105EB40006CEEF30E12C8345F100172502001305CF
:105EC400256FEF10C2148347F10011476391E70671
:105ED40003D5C185EF306170916503C58184EF10EE
:105EE4002062854503C58184EF10806137A60E00CA
:105EF40013060660914503C58184EF10005981455E
:105F040037054000EFE08FDAB71700407D57239F35
:105F1400E708B7E700E03707040023A0E7100546C9
:105F2400C1450545EFE03F80F240056182800947A5
:105F3400E394E7FA0145EF00606D79BF0111930521
:105F4400E1001305D03006CEA389018EEF30412342
:105F54008345E100172502001305056FEF10220B9E
:105F64008347E100F91793F7D70F85C39305F10031
:105F740013055041EF10D1038347F100054593B752
:105F840017002389F18EEF0060683146854503C50B
:105F94008184EF10804F2166130606D0914503C516
:105FA4008184EF10804EF2400561828083C7519056
:105FB400850793F7F70F13978701618763460702F5
:105FC400A382F19083C551909307F00363F8B7005F
:105FD400930700F8B385B74093F5F50F854605465A
:105FE400130500046FE02FDCA3820190E1BF41118F
:105FF4008D45116506C622C4EFE0EFC0854605460F
:1060040081451305000413848184A3820190EFE089
:106014008FD903450400694693050004EF10E04658
:1060240003450400056693050008130606C8EF102F
:10603400A022034504002244B240916541016F103F
:10604400C00101119307200E8945280006CE2314B0
:10605400F100EF0060738945280023040100EF007C
:10606400A0727137F240056182801387C18F144397
:106074004111B717004022C4850603A4470C23AE80
:10608400D18E9387818F59809C431344140026C278
:106094004AC006C60588BA8413890190639D8702A5
:1060A4000327090019CB9C40998F1307302163768D
:1060B400F7001D3BDD3923A00190B24022449244F5
:1060C4000249410182808327090099C3313B953FEE
:1060D40023A0019011A813F7170063078700858B8D
:1060E400E3F387FE23A0D19023AC818E55BF797151
:1060F4008145414506D622D426D24AD04ECE52CC32
:1061040056CAEFE0EFA5B7170040238C0704894572
:1061140001452000138A018F8144EFD06FEA93096F
:1061240001012289D28AEFD0AFF083570A0009090E
:106134003E95231FA9FEE31839FFEFD06FEF83D7F5
:106144000A0009043E95231FA4FEE39889FE035424
:106154008100035AA1008359C1000359E100A285BB
:1061640052944E944A87CE86528617250200130510
:10617400A5454A94EF00B26909049307A041098434
:106184003304F40217250200130545452D80A2852A
:10619400EF00F2678D473304F4021725020013055C
:1061A400254542044180A285EF0072668567138706
:1061B40087BB637B870EFD7613877644229742075D
:1061C40041831306B0126361E60C138777BB138611
:1061D40096449387F7D1B306C700C206C1826340D1
:1061E400870A93048002B3D4960293F4F40FA6852D
:1061F400172502001305C540EF00726183C6419064
:10620400854763F7D700B6948504858493F4F40F27
:1062140083C7B1841307F00F83C5A18403C6918497
:106224002684638DE7003385B7003295369526952D
:10623400090595473345F5021374F50FA385B18419
:106244002385C184A384D18423829190A687268741
:10625400172502001305C53BEF00725BA2851725C5
:1062640002001305A53CEF00925A2285B250225435
:1062740092540259F249624AD24A45618280130714
:10628400C703E31AF7F4A5B7938797D19944130783
:106294005006E3DE87F4850493F4F40FA507E39A2C
:1062A400E4FE93044006A1B7814491B70111170598
:1062B40000001305A50A06CEEF1020612384A184F3
:1062C400854537054000EFE00F943146854503C509
:1062D4008184EF10801B89450145EFD06FCEEFD04C
:1062E4000FC5AA852398A18E172502001305C5346E
:1062F400EF00F251ED3BE53BDD3BD53BCD3B238A43
:10630400A18E1386418F85450545EFE05F92216696
:10631400130606D0914503C58184EF100017854507
:106324001165EFE04F8EB75700401147A381E70096
:106334001145EFE04FA09305F10013055041EF1014
:1063440021478347F10081E785472389F18E05457D
:10635400752CF2400561828041119397050122C496
:1063640006C6C1872E8463D0070203C58184EF006B
:10637400F00E19C1EF007002A1673D8C2285B24076
:1063840022444101828093F7450089CF8D33238ACB
:10639400A18E1386418F85450545EFE05F8913443F
:1063A4004400E9BF93F7250089C7493E13442400FC
:1063B400F1B793F7050289CB014597A0FF1FE7804A
:1063C400C018134404025DBF93F7050191C7EFF0B1
:1063D4003FAD134404015DB793F7850091C7EFF017
:1063E4009FA61344840059BF93F7150089C7B53994
:1063F4001344140061B793F705089DC385451165DF
:10640400EFE06F809305000403C58184EF10400F13
:10641400916503C58184EF10A00E13440408B9BF2D
:1064240093F7050489C759361344040481BF93972D
:106434001501E3C507F4014491B78280B688AA8E9A
:10644400BA862E83328E3E87639508020D66130644
:10645400D6A483C606006319CE0089476396F50067
:1064640085473548639DF60072869A8576856FF078
:106474000FA0854701486394F8006FF0EFA44285AC
:10648400828041119397050122C406C6C1872E84D8
:1064940063DF070003C5E185EF00407C19C1EF000D
:1064A400C06F2165218DB24022444101828093F75F
:1064B400150013C51500E5FB93F7450099CF83C775
:1064C400E1851307401FF9463146994503D5C18537
:1064D400EF20912613454400F9B793F78500014551
:1064E400F9D3014789460946814503D5C185EF3073
:1064F4000111AA85172502001305C517EF003231D3
:10650400134584004DB70111170500001305A5F7C5
:1065140006CE22CCEF10603B1384E185930700186C
:106524002300A4001306710085451305503023147D
:10653400F100A3030100EF2071581386C1849D4527
:1065440013056030EF20915717C6FF1F1306865AB4
:10655400F14513057030EF2071563000894505452B
:10656400EF3000281726020013064612D5450145D0
:10657400EF3000270D4785473000914513057040E3
:106584002303E1002302F100A303F10002C4A302E8
:106594000100EF10310B5000854513050040EF104A
:1065A400710A13065100854513051040EF10910937
:1065B40013066100854513052040EF10B10813064A
:1065C4007100854513055040EF10D107B7070C0043
:1065D40099073EC4B707F401F9073000A1451145F6
:1065E4003EC6EF30E01FEFE0FFEC97C5FF1F938539
:1065F400654F13854185EFE0BFB803450400854529
:10660400EF00B025F240624405618280011106CE9C
:106614002307A10005CD83C7218FB9E3854713065E
:10662400F10085451305C030A307F100EF2011499F
:1066340013868190854513056030EF203148138619
:106644008190854513057030EF2051471306E10012
:10665400854513055030EF207146F2400561828074
:106664001306F10085451305C030A3070100EF2090
:10667400F1441386C1849D4513056030EF20114415
:1066840017C6FF1F13060647F1456DBF3D897D15EB
:10669400954763EAA70E17270200130727FC0A058C
:1066A4003A951C41011106CEBA9782872C00130536
:1066B4004030EF20F12C2C000545EF20606B1725AE
:1066C4000200130525FEEF00D22811A803C72500F8
:1066D4008D47172502001305E5FD630AF702F24012
:1066E4000561828003C725009547E31AF7FE83D727
:1066F400A5000D6613060620914503C5E185239E7A
:10670400F184EF007035172502001305A5FBEF0097
:106714005224EFF06FEDE1B703C725008D47E31076
:10672400F7FC172502001305A5FA71BF83C72500DE
:10673400114717250200130525FB638AE702194751
:106744006390E70283C5650017250200130585FBE6
:10675400EF00F20B83C7318FD9F30545453D41B7AF
:106764001547E399E7FE17250200130565FBEF00C3
:10677400521ECDB783C52500172502001305C5FB9E
:10678400EF00F208A9BF8280AA862E86214585459E
:106794006FE01FA04111054506C6EFD0BFE6130503
:1067A400800497A0FF1FE78000F285457D55EFD058
:1067B4003FBB85457D55EFD01FC537170040832764
:1067C400870A8D451305002093E707202324F70A41
:1067D400EFD01FB9EFE0EF97172502001305451E10
:1067E400EF003217EFF08F9BEFF0CFB4EF20716121
:1067F400EFE0DF92093BEFF07FAB192897A0FF1F72
:10680400E780002317250200130545F56F00721475
:106814004111170500001305650406C6EF10E00AD0
:106824002384A1867D55EFE06FA5B24013850186D0
:1068340041016FE0AFA62E86AA8501456FE0EFA661
:1068440001112306A1008945680006CEA3060100B4
:10685400DD37F2400561828041119397050122C41E
:1068640006C626C24AC0C1872E8463D0070203C568
:106874008186ED2611C11526A1673D8C2285B24083
:106884002244924402494101828093F71500ADC726
:106894009384019190401389C19083270900931533
:1068A400C60017250200130565ECBE95EF0022769D
:1068B4009C40832509008566B2070146BE950545BF
:1068C40097A0FF1FE78020231375F50F09C58D3F9F
:1068D4001344140065B79C40850723A8F1901387DF
:1068E40041911843E3ECE7F817250200130545E945
:1068F400EF0032060145E1BF014449B71305E00F3B
:1069040081B7411122C491462A8417E6FF1F13065A
:10691400A60099652D4506C697A0FF1FE780A01D18
:10692400B7F7070003C70701A5476313F70001A0E2
:106934009306001001469965254597A0FF1FE7803F
:10694400801B97E7FF1F238987FC2244B2409146AE
:1069540017E6FF1F130646FC99652945410117A355
:10696400FF1F6700431901456FD01FF2797197E744
:10697400FF1F83C767FB06D622D493C707081147B6
:106984006360F71C17270200130707DC8A07BA970E
:106994009C43BA97828717E6FF1F0346F6F823AE97
:1069A400C19097E5FF1F83D545F8B76703009205AB
:1069B400BE95172502001305A5DD23ACB190EF00A9
:1069C4000265938781918C4383D6C19117E6FF1F9B
:1069D4001306C6F5094597A0FF1FE780C01113747D
:1069E400F50F19C417250200130545DCEF00627684
:1069F4002285B935B25022544561828097E5FF1F44
:106A040083D5A5F2B76703009205BE9517E6FF1F6D
:106A14000356C6F117250200130545DA23ACB190DD
:106A240023AAC19023A6B19023A8019023800192A8
:106A3400EF00E25D9387C1909443B777030063EF5F
:106A4400F600938741919C43370710007D17BA974E
:106A5400B207B69737D706006375F7001305F00F32
:106A640049BF854503C58186CD2B69B717E6FF1F4E
:106A7400034696EB23AEC19097E5FF1F83D5E5EA65
:106A8400B76703009205BE9517250200130505D5C7
:106A940023ACB190EF00A2579387C191944393879D
:106AA40081918C4317E6FF1F130646E80D4597A016
:106AB400FF1FE78040041374F50F19C41725020063
:106AC400130585D3EF00E26803C50192418D23804D
:106AD400A19205B717250200130545D3EF0062679D
