:040000006F10907974
:10000400000000000000000090000020C202002058
:10001400A9BDF9F5780300200000000000000000ED
:100024007803002090000020000000000000000081
:10003400900000200000000090000020000000005C
:1000440090000020900000209000002090000020EC
:1000540090000020240800209000002000000000F0
:1000640090000020900000209000002090000020CC
:10007400DE0300209000002090000020900000206B
:1000840090000020900000209000002090000020AC
:1000940001A04111B7170040985F3AC6945F3247F8
:1000A400E39CE6FE324541018280B7F70700011167
:1000B400944B13078008F337078093F787083EC2F1
:1000C4000F100000B71700401308700523800705C0
:1000D400930580FA2380B7040F10000003C6B70409
:1000E4001376F60DA385C7042380070412467326EE
:1000F40006800F1000001376050255CEF3360780F4
:1001040093F6860836C40F10000023800705238069
:10011400B7040F100000B70614007D89558D88C7F9
:10012400010001000100010023800704A246F3A698
:1001340006800F10000073370780137787083AC6CC
:100144000F100000238007052380B7040F10000060
:100154000F1000003727004093061005A303D78033
:1001640023800704B247F3A707800F10000093070A
:100174008008F3B7078093F787083ECE0F1000007E
:10018400B7170040130770052380E704130780FAAC
:100194002380E7040F10000003C7B70413670708A0
:1001A400A385E70423800704F247F3A707800F1011
:1001B4000000056182801376050459C273360780F6
:1001C4001376860832C80F100000238007052380A9
:1001D400B7040F10000037061400130606047D89C7
:1001E400518D88C70100010001000100238007042C
:1001F4004246732606800F1000007337078013777A
:1002040087083ACA0F100000238007052380B7042B
:100214000F100000A54793F6F60F639EF600B7276C
:10022400004013073005A383E780B71700402380FD
:100234000704D2470DBFB727004013072005E5B7D1
:1002440073370780137787083ACC0F100000238098
:1002540007052380B7040F10000098471367070CA5
:1002640098C723800704E247FDBD0111814601467A
:100274008145114506CE912493078008F3B7078082
:1002840093F787083EC60F100000B7170040130706
:1002940070052380E704130780FA2380E7040F1016
:1002A400000003C76704136717002383E704238050
:1002B4000704B247F3A707800F100000F24005615E
:1002C400828041118146014681451145FD22130773
:1002D4008008F337078093F787083EC40F100000A7
:1002E400B7170040130670052380C704930680FAED
:1002F4002380D7040F100000FD552396B7022380F6
:100304000704A245F3A505800F100000733707808A
:10031400137787083AC60F1000002380C704238090
:10032400D7040F10000003C7670413671700238363
:10033400E70423800704B247F3A707800F100000E7
:1003440001A0BD473305F50201007D1575FD8280CE
:10035400411122C426C206C6AA840144631794002C
:10036400B240224492444101828005041305803E38
:100374004204C13F4180DDB79305000273A045806C
:1003840082457390153492402242B2424243D24392
:100394006244F244025592552256B2564257D257FD
:1003A4006258F25806499649264AB64A464BD64BF5
:1003B400664CF64C065D965D265EB65E465FD65F7D
:1003C4000961730020304111B7170040985F3AC6A5
:1003D400945F3247E39CE6FE324541018280B717C1
:1003E4000040130700032388E702854723ACF18804
:1003F40073002030411106C6EF008079F5BF230356
:10040400048015472303E48001002302A480828032
:1004140083076480E3CE07FE23030480828083077E
:100424006480E3CE07FE03454480828083076480B2
:10043400E3CE07FE2302A4808280411126C44AC26F
:100444004EC006C61377F50BAD47AA892E8995448D
:100454006306F70019456537653F8D444E8545377A
:10046400FD59FD1463983401B240A24412498249F3
:1004740041018280135509011375F50F453F220987
:10048400CDB7011126CC06CEB70408005137154567
:10049400BD37713769372AC6A53F324593771500B2
:1004A40089EB136515001375F50FF240E2440561FD
:1004B4008280FD14E9FC0145CDBF397126DC4ADA9E
:1004C4004ED852D656D45AD25ED006DE62CE66CC10
:1004D400B7E700E07D5783AA070022C603AA4700B6
:1004E40023A0E71823A2E718B717004013077005E5
:1004F4002380E704130780FA2380E70483C74704B3
:10050400930B75FFB684E20793FBFB0F8546AA891C
:100514002E8B328937240040E187015763FA760134
:100524006308D5008946130700026313D5000157F9
:10053400D98F93F7F70FB71C00402382FC041147AF
:100544002303E4801305F00F5D3D094CD135636D41
:100554007C11B7050700DA9537870700795563F2F0
:10056400E504B3879500636EF702370B0800A947CB
:1005740033EB65016399F90689E48144513D26858D
:100584000DA0DA850945553D05090345F9FFFD141C
:10059400050B693D81C49377FB0FFDF7DD3569FDDC
:1005A4007D55B7170040130770052380E704130730
:1005B40080FA2380E70403C74704418B2382E704BE
:1005C400F250B7E700E023A0571123A24711E254E9
:1005D40032445259C259325AA25A125B825B724C4B
:1005E400E24C21618280A5476395F9068569130968
:1005F400F00FB3069900B3742B01B6941349F9FFB5
:10060400B3749900856B33796901416B9387F9FF62
:10061400B3F7270199E363FC340193D94900C14737
:10062400E3E637FF99BF0569C1697D19D9B7130599
:10063400800D638869011305000263847901130541
:100644001008CA85DD3B353D21DD4E99B384344124
:10065400D9B7DA852D45D533CA94E30099F2050953
:100664007D3BA30FA9FED5BF9387F9FF93F7F70F3F
:100674006361FC0C83C71C0413073008631FF70471
:1006840037070800636BEB04B3079B00B706100041
:1006940063F5D704334BEB0089476393F9068980EC
:1006A400D549E38C04ECDA850945413B110903275C
:1006B400C9FF91472320E48003076480E34E07FECB
:1006C40023033481FD17EDFBFD14110B81C49377D3
:1006D400FB0FE9FF7D3371F5E1B5B717004003C7A0
:1006E4005704B70708001377070219E3B787070011
:1006F4007955E378FBEA33079B00E3FFE7F855B548
:100704008547E382F9F2DA852D45053B9389F4FFA9
:10071400E38504E6293393F7390091EB83260480BB
:100724000327090093074900E39AE6E43E89CE844F
:10073400F1BFB5476396F9001305900BC93135BD78
:10074400B1471305B00AE38BF9FE99476391F904A5
:10075400B7050800B365BB002D45C53181448D4BF9
:10076400A149753963967401832704802320F90015
:100774008504E39834FF8327048013172B01635502
:1007840007002312F900D5BB2322F900FDB39D47CE
:100794006399F90281451305B0044531BD44232012
:1007A400090023220900FD599D3993F77400CA9763
:1007B40003C70700FD14398D2380A700E39634FF97
:1007C4006DBBA1476392F9046D398144630D0B003D
:1007D4008D479304C0036308FB009304000563047E
:1007E4008B01930440041375C507E30895D8194594
:1007F400393139390545213126850D3909453D31D0
:100804004931E31C05D669BB91476399F900130587
:100814006006F536F53E130590090DB7E38F09D44C
:10082400F154A9BB197106C212C416C61AC81ECA4D
:1008340022CC26CE2AD02ED232D436D63AD83EDA9C
:1008440042DC46DECAC0CEC2D2C4D6C6DAC8DECACC
:10085400E2CCE6CEEAD0EED2F2D4F6D6FAD8FEDA7C
:10086400938501898841E700050092402242B24203
:100874004243D2436244F244025592552256B25640
:100884004257D2576258F25806499649264AB64A00
:10089400464BD64B664CF64C065D965D265EB65EC0
:1008A400465FD65F096173002030B7E700E09843E4
:1008B400B706200023A0D718758F0F10000001C5BC
:1008C40099C1814711E6B7E700E023A0E7108280D1
:1008D400B386F50003C80600B306F5008507238038
:1008E4000601E317F6FEC5B737E700E01C43B70679
:1008F40020002320D718F58F0F10000019C191C1D3
:1009040011E637E700E02320F7108280910503A762
:10091400C5FF11057D16232EE5FEDDB737E700E0A0
:100924001C43B70620002320D718F58F0F100000B2
:1009340001C53307C50011E637E700E02320F710AF
:1009440082800505A30FB5FEE31DE5FEF5B78147DB
:100954003307F5000307070019E33E858280850706
:10096400C5BF37E700E01C43B70620002320D71893
:10097400F58F0F10000001C599C1014711EA37E74F
:1009840000E02320F710054582800507E309E6FE11
:100994003308E500B386E5000348080083C6060073
:1009A400E305D8FE37E700E02320F71001458280F5
:1009B4009307F6FFBE952A966313C5008280FD1542
:1009C40083C715000505A30FF5FEFDB7AA870145EA
:1009D40081CF09CE3E96850703C7F7FF6317B7009B
:1009E400E39BC7FE05458280828001458280797140
:1009F400975700009387071222D4804306D626D245
:100A04004AD04ECE52CC56CA5AC85EC669C037C9FF
:100A1400C901014B975900009389490F1309F9370C
:100A2400175A0000130A4A0F975A0000938A4A097A
:100A340097540000938404138357240095E35C4483
:100A4400631D0B00175700002326F70C832BC400EB
:100A54002285EF10203A5E84A9A82326FB00FDB767
:100A640083A7090082971C443307F5406375F5009A
:100A7400D8401D8F2A976361E9089757000023A97E
:100A840007048355240003450400973000E0E78001
:100A940020675C405844B9C70C44D040AE97BE862A
:100AA40063E4B70063E4C700B386C74014C4228B71
:100AB4003A8459F097570000938787009C4B094765
:100AC4006373F708F917175700002323F700B25090
:100AD400225492540259F249624AD24A424BB24BCE
:100AE4004561828063170B009757000023A4E70237
:100AF400B1BF2326EB0099BF03274A021DCF63E150
:100B0400A7043385A7408347040085E317570000F3
:100B14000347F7015917B307A7003E85D44063E4A0
:100B2400E70063E4D7003385D74083A70A016376DF
:100B3400F5009757000023ADA7F8228B404495BFDA
:100B4400D840BA977DBF9757000023A307F841B751
:100B540097570000938787009C4385C3411106C6BD
:100B640082979757000083C747FA89E79757000091
:100B740023A607FEB240410182809757000083C735
:100B8400C7F891E79757000023AA07FC8280828068
:100B9400411122C417540000130444F51C4006C636
:100BA40026C24AC091C782979757000023A007F432
:100BB4009757000083C75715858B175900001309F1
:100BC400691491CF8347790019476313F710975736
:100BD4000000A38B0712EF0070675C4482971C44EB
:100BE40091C3829797540000938484F298401756D7
:100BF40000000346F6EC9757000083C767EC939612
:100C04001700BA9683D60600EDC29757000083C733
:100C140027EB63E6C70E97570000238307EA1C40BF
:100C2400639F071497570000938747EE9C4363889C
:100C34000714975700009387E7F2DC431757000027
:100C44002328F7E86D339757000083C7570C639840
:100C540007129757000083C7770B91CF834779001A
:100C640093F7F70F89EB97570000A381070A978042
:100C740001E0E78000AF975700009387E7E9DC5372
:100C8400638F070E97570000938787E39C4BE5CB50
:100C94008347790015476364F70E9757000083C7AD
:100CA400E70B918BE9EF9757000083C707E6E1EB69
:100CB40090409756000083C6B6E063C8D70C224420
:100CC400B240924402494101174300E06700C3A4C3
:100CD400834779001D47E314F7F097570000A38575
:100CE4000702EF00B0561C48D5BD850793F7F70FF0
:100CF400975600002386F6DCE3EFC7EE39B7860784
:100D04003E97835507002310070097570000239D43
:100D140007DE97570000938727DD9C431755000093
:100D2400034505DA13172500BA979C438297975712
:100D3400000083D767DD17570000034767D893C7C0
:100D4400F7FF7D8D9317170098403E978357070050
:100D54005D8D2310A7009757000083C767D691C7FE
:100D6400850717570000230DF7D4175700000347D2
:100D740027D59757000083C7B7D4E37EF7E8B2407E
:100D8400224492440249410182801397170032970A
:100D9400035707006DF785070DB737C70040832653
:100DA400C720B707FCFFFD17F58F2326F7200100A6
:100DB4000100975700009387A7D0C84F8327872641
:100DC4002326D7206A0593C7F7FF99835D8D828018
:100DD40003278511630207120346E5048546630E63
:100DE4000610411122C406C68347C5002A8493F71E
:100DF400C70F2306F500834597000358C7001395D2
:100E040085016185637F06076358050603458700EE
:100E140093F5F507A304B70093E527006314D50001
:100E240093E517002306B4005C4389075CC3A30A57
:100E3400C400032504114C430905853C8327841110
:100E440003465401D44303D7C700B296118FD4C3C9
:100E54002396E7008947A30DF400034764039757DB
:100E6400000083C787CC6377F7048347C40093E704
:100E740007012306F4003DA893E717002306F400B6
:100E84007DB71376F80F635D05020345870093E58C
:100E940027006314D50093E517002306B400A30AC2
:100EA400C400A30407008547A30DF400832784111D
:100EB4009C43C5F7B2402244814636854101828075
:100EC40093E717002306F400A30AC400A304070051
:100ED400032504114C4342860905C13A8327841132
:100EE40003465401D44303D7C700B296118FD4C329
:100EF4002396E7008D474DBF8546368582809757F8
:100F04000000938767DE9C43411122C406C6858B8B
:100F14002A84C5EF4165130525F5973001E0E78084
:100F240020BA45C58347A5002315F500832704127D
:100F3400BDE72320A4122322A41285472311F4041D
:100F4400232005008347640154412316F500034719
:100F5400D4002304E5000547A304E5001757000067
:100F6400130747DA58531385170215811C437D155F
:100F74001375F50F9CC25C43DCC21C479CC65C47DE
:100F8400DCC61C4B9CCA5C4BDCCA1C4F9CCE5C4F21
:100F9400DCCE19CD9386060213070702C1BF83274F
:100FA400441288C3835724042322A412850779B7E3
:100FB4009757000083D707E78507175700002313C7
:100FC400F7E6B2402244410182808347C4002309EA
:100FD4000400054593C747002306F400DDB78347A3
:100FE400850193F7E70FD5EF83479501DDEB0346C2
:100FF40025018346C50009CA8345650317570000C8
:101004000347B7B263E7E50013F7060141CF014791
:1010140009C6C18A0357651C81C68356A51C369729
:1010240051C31307C71217550000035525B4B33530
:10103400A70237460F00411113060624814622C435
:1010440026C206C67D543305A702973002E0E78026
:1010540080B79757000083C797ADB384A70097570D
:1010640000009387A7DB03A787098327070963F396
:1010740087003E84184375FB97570000938707A9A0
:101084009C43829781476364A400B307A440B240A1
:101094002244B3B7970093C7170092443E85410199
:1010A400828081473E85828097570000938707C8D6
:1010B40098433C5BFDFF010001008280011122CCBA
:1010C4004AC84EC606CE26CA52C456C25AC00347A0
:1010D400B50085472A842E89832905096311F726DB
:1010E40083570508835AC503175A0000130A8AA7B1
:1010F400175B0000035B8BA763FB57218346050145
:101104006397E62003278511631307200327450A05
:10111400631F071E8346F5001D47639AE61E0347B7
:101124001401B38AFA4013950A01418121CF9377C0
:10113400170099CB8357E40583560404958F63D530
:10114400A7001395070141819377270099CB835713
:10115400E41283560404958F63D5A7001395070101
:1011640041819377070199CB8357C41483560404B0
:10117400958F63D5A700139507014181218B11E356
:1011840011E105450357A4039307204E8324440922
:101194003305A70237460F0081461306062433059C
:1011A400F5029757000083C78798B3549502B33567
:1011B400AB02BE94C204C180231394083305AB026E
:1011C400973002E0E78020A0B307350133B5A700CC
:1011D4002E953E8783264A0019E163E4D7003387BE
:1011E400D740B3846403B7460F009387F6239386EE
:1011F40006242320E900A697B3D7D702D6976362C3
:10120400F7101D8F2320E900975900009389099056
:1012140083A7090083240900829763E5A412338518
:10122400A4406354050C83A709008297032709008F
:101234006361E512198D8357E403175700000357C0
:10124400E7928E07B387E7021307003293870719E3
:10125400B3D7E70263E7A710374A0F00130BFA234B
:10126400975A0000938A0A90130A0A2483570404A5
:1012740085072310F4048347041499E32285592233
:101284002285971001E0E780207775E98326040919
:101294008327C40803A74A00B6973E8563E4D700B2
:1012A40063E4E7003385E7408347F401835464082B
:1012B4002328A4088507A30FF4009757000083D7B9
:1012C400E78AB384F402DA94B3D444036368950CD4
:1012D400B304954083A7090023209900829763E310
:1012E400A40C3385A440E34305F89757000083C753
:1012F400178463E7A7089757000023A187BC01451B
:1013040041A083264A00B387F6403E97E5BD835447
:10131400640837470F009307F723B3846403BE942C
:1013240093070724B3D7F40263E7F900B387F940BE
:101334002320F900D1BD03274A00BA99C5BF23A0D1
:101344003501D9B5975700009387C781DC43BE9414
:10135400F9B5975700009387E780DC43998F3E9552
:10136400D9BDA1452285971001E0E780C061A3059E
:10137400A402974700009387277A9C5B81EF7D55F1
:10138400F2406244D2444249B249224A924A024B50
:1013940005618280894515458297D5B7B304974086
:1013A400AA940DBF83A74A00BE9425BF39C9011171
:1013B4006C0022CC06CE2A8411331DCDFD57630266
:1013C400F502B2479745000083C5757663EFB70011
:1013D40003459402B385B7402EC6973000E0E780FA
:1013E400C0E9F24062440561828017470000130798
:1013F40067775843BA97E9BF972001E0E780401D1B
:10140400CDB78280797126D206D622D44AD04ECE68
:1014140052CC56CA5AC85EC6834755030344751353
:10142400AA843E941374F40F9307400263F6870072
:101434001304B4FD1374F40F03AA841383AAC4130E
:10144400A38B841222865285D685972002E0E780FA
:101454008034058915E503CBD41201498149337BD6
:101464006403930B50024A865285D685972002E086
:10147400E7806032058915C5639169031374F90F18
:10148400238B8412B250225492540259F249624A74
:10149400D24A424BB24B456182808509E20993D915
:1014A40089410509E31179FDE1BF832785090356C5
:1014B4000504797193D60701BD8EC206C182358EAB
:1014C4001357764093575640898B058B5D8F9357FE
:1014D4003640918B5D8F93571640A18B5D8F931788
:1014E4001600C18B5D8F9317360093F707025D8F4B
:1014F400931756009355860093F707041E065D8FD5
:101504001376F60F518F93D7554013D63540118A71
:10151400898BD18F13D67540D18F13D61540218A6C
:10152400D18F13961500418AD18F13963500137607
:101534000602D18F13965500137606049E05D18FAB
:1015440093F5F50FCD8FA20745465D8F3307C7028C
:1015540022D42A8426D252CC56CA032A8413832A3C
:10156400C4135AC806D63697420741839357774027
:10157400135557400989858BC98F135537401189F5
:10158400C98F135517402189C98F13151700418935
:10159400C98F1315370013750502C98F131557002A
:1015A40093558700137505041E07C98F1377F70F2A
:1015B400D98F13D5354013D755401189098B498FDD
:1015C40013D57540498F13D515402189498F13953B
:1015D40015004189498F1395350013750502498F0C
:1015E40013955500137505049E05498F93F5F50F62
:1015F4004D8F2207D98FB387C7024AD04ECE5EC61D
:1016040062C4B697C207C18313D7774013D5574036
:101614000989058B498F13D537401189498F13D513
:1016240017402189498F139517004189498F1395D4
:10163400370013750502498F1395570093D587001A
:10164400137505049E07498F93F7F70FD98F13D5A8
:10165400354013D755401189098B498F13D57540EF
:10166400498F13D515402189498F13951500418958
:10167400498F1395350013750502498F139555004D
:10168400137505049E05498F93F5F50F4D8F2207B9
:10169400D98FB387C702130650025285D685B697F1
:1016A400BD8E93940601C18033F6C402137BF60FFA
:1016B400972002E0E780200E05890DED8347D412C0
:1016C40001498149B3849702130C5002C1804A86B0
:1016D4005285D685972002E0E780E00B0589937B4D
:1016E400F90F11C563863403850993F9F90F0509C8
:1016F400E31F89FD230B6413B25022549254025900
:10170400F249624AD24A424BB24B224C4561828032
:101714005E8BCDB70111974700009387277022CCC9
:1017240003A4070C26CA06CE2AC42EC6854419E48F
:101734000145F2406244D2440561828083479100AE
:1017440003471400858B6304F7000044CDB71946A2
:101754009305A10013052400EFF0AFA0E31795FE55
:101764000545C1BFEFF0CFBE7300000000000000CC
:1017740097420000938262390383020023800200AF
:10178400630F0300F32510342EC0970500009385E2
:10179400A5FD73901534EF00E0507300203086DC13
:1017A400EF004050E6508280000017470000130706
:1017B40027551443411122C49C5E4AC006C699832E
:1017C40026C2858B3A841749000013092953D1CBCB
:1017D400930700069CDE174700000347075393074F
:1017E4000008974400009384E451631BF7008327A7
:1017F40009009C4393F70704174700002307F75099
:1018040083C7040093F707049DC397470000938799
:10181400E72F9C4382979747000023A3A75083C7D1
:10182400040093F7F70B17470000230DF74C83C709
:10183400440093F7070495E7854717470000A3057D
:10184400F74C974700009387674E9C433707020085
:1018540098C7130700FC974600002387E64A984878
:10186400F8D318401C5F9183858B8DC31C5F93E76D
:1018740007011CDF974700009387474B9C4323A233
:1018840007068547174700002300F7488327090008
:10189400D8430583058B19C7D843759BD8C3D84350
:1018A400799BD8C3B24022449244024941018280C8
:1018B400ED3D730020309317D50063D3070297479B
:1018C40000009387A7469C437D57B8D797470000ED
:1018D4009387071FDC4F8507174700002320F72055
:1018E400937785009DCB9747000083C7C74193E753
:1018F4001700174700002308F740930700F817471D
:1019040000002303F740974700009387673F9843FD
:101914005C57F19B93E717005CD7937715008DC74D
:101924009747000083C7173E93E717001747000047
:10193400A30AF73C974700009387873C98435C577A
:10194400F19B93E717005CD79377650095CB93776A
:101954004500174700001307E73ACDCB834707003C
:1019640093E7170017470000230EF7389747000046
:101974009387073998435C57F19B93E717005CD72B
:101984009317F50063D407021747000003478750F5
:10199400418B974700009387674851C383C78707E4
:1019A40093E70702174700002306F74E9317E50055
:1019B40063D707029747000083C70735E207E1872B
:1019C40063D70700854717470000230FF73297476F
:1019D40000009387A7359C433707020098C79317E5
:1019E400C50063D40702174700000347B74A058BB5
:1019F400974700009387874229C383C7970793E7D4
:101A0400270017470000A307F74882808347370061
:101A140093E7170017470000A307F72E81BF03C7FA
:101A2400870789463D8B6308D70083C787070D471F
:101A3400BD8BE39DE7F69147B5B703C79707118BB5
:101A440069D783C7970793E7870065BF9747000067
:101A54009387C72D9443974700009387A72A03C70A
:101A64000700058B11CB97470000238F0728974762
:101A74000000A38B0728828003C71700058B65F736
:101A8400F85271FF83C75700DDB7174700001307EB
:101A9400272703280700832788039583858BADEFC9
:101AA40011C683270803BD832300F6009DC61C438B
:101AB400985B4607935767016356070093E707C08F
:101AC400C207C18303970600C207C18709C7BA9733
:101AD4000947B3C7E7022390F6008DCD834515006F
:101AE40095C99747000083C7472293F707041387D4
:101AF4009500894585C33A9583470500054799456F
:101B040093F6F7066398E600E207E187814563D31D
:101B14000700B9452E8582808545EDBF411122C459
:101B240006C626C2174400001304442045E11440AD
:101B34002E87FC52FDFF974700002386071C97471A
:101B44000000938767FDD453BE8495C6B7E700E0D1
:101B5400B706200023A0D728B7F700E083A607D153
:101B6400ED9A23A8D7D083A607D193E6860323A8AA
:101B7400D7D0730050103A85B285977001E0E780A2
:101B8400A0A5974700009387A7179C43B70680003A
:101B94009843558F98C3D857719BD8D7974700005F
:101BA400A384071697470000A38E07141C40094717
:101BB40098C3DC5085CF37F700E0832707D193E73C
:101BC40087002328F7D0730050100DA08D476315AC
:101BD400F504974700009387A7129C43B70680003B
:101BE4009843558F98C3D857719BD8D7144017473B
:101BF40000001307271183472700858B89EB834750
:101C04003700858BC9CF97470000238F070EB2405A
:101C140022449244410182808547E319F5FC9747A9
:101C24000000938767EFD4533E8795C6B7E700E07B
:101C3400B706200023A0D728B7F700E083A607D172
:101C4400ED9A23A8D7D083A607D193E6860323A8C9
:101C5400D7D07300501014408177FD17D046F18F10
:101C6400DCC60F1000001440B70702009CC693079F
:101C740000F8974500002389F508974700009387EB
:101C840027089C439C439D83858B99C793076019C0
:101C9400FCD2D0C65C5339BF9307E01BD5BFFC52BE
:101CA400B9FBB5B797470000938747089C4388471B
:101CB400D847798D09C988C79387019403A307007E
:101CC400630303000283828097470000938707061B
:101CD40098438967938707F47CD3974700009387D9
:101CE400270A9C4383A607091396560063580600E7
:101CF40083A6070913966600634406007453FDF235
:101D040082804111B7E700E022C4804337072000F6
:101D140006C6798C23A0E7180F10000011C199E5BD
:101D2400B7E700E023A0871001457DA8930735009D
:101D3400C207C183F19BC207C183130740036369D0
:101D4400F702174700001307E70C08431747000082
:101D54001307C70B14436392A60217470000130727
:101D6400A7DB185B55DFC207DD8D054502974DBF24
:101D7400174700001307C709C9BF035765002DEBB8
:101D8400035745006366F706B306F7402146637CB4
:101D9400D60203280500938687001D8FAA96611733
:101DA40017460000035626D22392E60023A006011C
:101DB4002393060014C12312F500130786FF9746E8
:101DC40000002392E6D02313B5009745000083D585
:101DD40085CFB387F540174700002316F7CEB7E742
:101DE40000E023A087102105B240224441018280F3
:101DF400084195B7B7E700E08C433707200023A0DC
:101E0400E718F98D0F10000001E523A0B7108280B8
:101E1400974700009387070003A307009747000034
:101E24009387C7FE83A8070081469A8763F2170D3C
:101E340003A807006361F50C636FA80A1387870082
:101E44006368E50A03D66700216705076317E600A0
:101E540003C781930507238CE192174500001305FE
:101E640025C603D64700035765002393070032971E
:101E740042074183174E00002317EEC4638C6702A8
:101E8400174300001303C3F8032303006304F3029E
:101E940003D366006310030283D7460023A0060120
:101EA40021073E9621062392C60097470000239CF3
:101EB400E7C0B6879843630D1703974600009386DF
:101EC40026F594426306D7028356670095E283D6CB
:101ED4004700035647001843A106B2962392D70041
:101EE40098C383576500A10717470000231DF7BC5B
:101EF400B7E700E019BFBE86C2870DBF011197473F
:101F040000009387A7F122CC03A4870C26CA4AC8F1
:101F14004EC606CEAA8413092500854915C083C779
:101F2400140003473400858B6304F700405CFDB75D
:101F34001946930544004A85EFE0BFA2E31835FF34
:101F44002285F2406244D2444249B249056182800A
:101F5400411197470000938767EC22C403A4870CC0
:101F640026C24AC006C693042500054901E8228515
:101F7400B24022449244024941018280A68513055D
:101F8400A402971002E0E7804036E30225FF405C9C
:041F9400F1BF000099
:101F980097110020938101C4175100201301018675
:101FA8001305400097E5FF1F938545051706002098
:101FB800130606FE63FAC5008322050023A0550018
:101FC80011059105E3EAC5FE17450200130505D979
:101FD800970500209385C5FB1386818663FAC500A3
:101FE8008322050023A0550011059105E3EAC5FEEB
:101FF8001385818697450020938505F56377B5009D
:10200800232005001105E36DB5FEFD42739002BC67
:102018008D4273904280930280087390023097E259
:10202800FF1F9382A2FD93E23200739052309722F1
:1020380000009382A2B773901234730020303D439E
:102048002A876373C3029377F700BDEFADE59376F4
:1020580006FF3D8ABA960CC34CC30CC74CC7410750
:10206800E36BD7FE11E28280B306C3408A0697026B
:10207800000096966780A6002307B700A306B7005E
:102088002306B700A305B7002305B700A304B700CC
:102098002304B700A303B7002303B700A302B700C4
:1020A8002302B700A301B7002301B700A300B700BC
:1020B8002300B700828093F5F50F93968500D58DA0
:1020C80093960501D58D61B7939627009702000076
:1020D80096968682E78086FA9680C1171D8F3E966F
:1020E800E374C3F8A5B7B717004003C7770513779C
:1020F800E70FA38BE704130700F8A38DE7043D4718
:10210800238CE70413075003A38CE70403C7A70530
:102118001377D70F238DE7048280B717004003C7D2
:10212800E7020D8941111377C70F498F930680087D
:10213800F3B6068093F6860836C60F10000093069D
:1021480070052380D704930680FA2380D7040F10E4
:1021580000002387E70223800704B247F3A707801C
:102168000F1000004101828041112A83014E930E15
:10217800407E130F0019930F400663E56E12930813
:10218800001913034006B3781503854E0D4FA14F70
:10219800337365020D891335150063EFBE121308FA
:1021A800F6FF794672984208135808013307C702A8
:1021B80013D61700BE0732976146B3F6C602130658
:1021C8008070B386C6023697A166F58F42075D8F89
:1021D800B716004083C7F60293F70708A303F10078
:1021E8000346710083C7F60293F70708E394C7FE16
:1021F80083477100B716004093F7F70F63880712FB
:1022080093078008F3B7078093F787083EC40F1039
:102218000000B7170040930670052380D704930683
:1022280080FA2380D7040F10000023AA070383C66F
:10223800170393E60608A388D70223800704A2475A
:10224800F3A707800F1000001166B71700407D162E
:10225800D45BC85F93854703A98EF18EF5FA930680
:102268008008F3B6068093F6860836C60F1000007D
:10227800930670052380D704930680FA2380D70439
:102288000F10000098C103C7170313670704A3883A
:10229800E70223800704B247F3A707800F10000066
:1022A800410182807D133368E3039308E016630ECF
:1022B80008003368F3039308D0166308080093787E
:1022C800330093B818009388D81633081E01131EDC
:1022D8000801135E0E0155B56393E503054863864F
:1022E80008000148630303002A8871087298FD15E5
:1022F800131E0801C205135E0E01C18179BD13F8D2
:10230800150063F4BF007908D5B713381800E5BF86
:1023180083C7F60293F70708A303F1000346710089
:1023280083C7F60293F70708E394C7FE8347710053
:1023380093F7F70FF1DFE9B531714AD966CB06DFBC
:1023480022DD26DB4ED752D556D35AD15ECF62CD89
:102358006AC96EC7AA8C02D8EF0010122A8993079F
:102368008008F3B7078093F787083EDA0F1000005C
:10237800B7170040130770052380E704130780FA96
:102388002380E7040F10000003C7F7021377770FC5
:10239800A387E70203C7F70213678700A387E7024B
:1023A80023800704D257F3A707800F1000000545C4
:1023B800AD33130780C13347E902116A93070AE86E
:1023C80093065002BD69930BA004814A014B130484
:1023D8008008930470057D1AB347F9023307D702C2
:1023E8003EC0FD873ECC938709A69309803E3347BC
:1023F800F7023AC27D873AC4334739038549B3990E
:10240800990193D93940B306D702B30B7703B3C602
:10241800F602B3CBFB0236C6FD8636C893D6FB411F
:1024280036CEB7460F00938606243349D90285660F
:10243800938606FAB3969601B389E9021307805288
:102448003309D90293060010B389E9023349D90246
:10245800B3C9F9029316390036CA37190040FD8608
:1024680036D0930D090493D7F9413ED2F336048050
:1024780093F6860836DC0F1000009307700523805A
:10248800FD00930680FA2380DD000F1000008346CC
:10249800390593F6860FA309D9048346390593E6CF
:1024A8001600A309D90423800D00E256F3A606807E
:1024B8000F100000130C80FA116DF336048093F6A8
:1024C800860836DE0F100000930770052380FD0094
:1024D80023808D010F10000083463905216693E69D
:1024E8000602A309D90483560905B3E6A6012318F1
:1024F800D90483560905D18E2318D90423800D00E9
:10250800F256F3A606800F1000008346390593F6AD
:1025180006026389061803463905218A6DDE081804
:10252800612F7336048013768608B2C20F1000003C
:1025380023809D0023808D010F100000B7170040F5
:1025480003C637051376F60DA389C70403C63705F6
:1025580013660602A389C704835609052166B3E6F4
:10256800A6012318D90483560905D18E2318D90446
:1025780023800D009646F3A606800F1000008346C0
:10258800390593F606026386061483463905A18A3F
:10259800EDFE97E0FF1FE78080AFAA8636D497E06C
:1025A800FF1FE780C0AEA256E30AD5FE8356090591
:1025B8004255B3E6A6012318D904392F83463905B5
:1025C800A18AEDDE0356090583462905824733763D
:1025D800CA00B306DA0293D5F641B296B388F6403C
:1025E800E24733B8C6002E983308F840A247B3B67E
:1025F80016013308D84063C70701631DF8009247E6
:1026080063FA1701C247634DF80E63950701B24795
:1026180063E8F80E894663E7660FF24693151800DB
:1026280013D3F8015E8613951800B365B30042D63C
:1026380046D4EF10021B3258050B137BFB0F634780
:10264800000163120838A258638F08361308150072
:10265800B336A800B69513D6F5013298B336C8003C
:10266800AE9613581800FE06B3E6060173360480CA
:1026780013768608B2C60F10000023809D002380C1
:102688008D010F1000000356C902B296C206C1821E
:102698002316D90223800D00B646F3A606800F1034
:1026A800000021BDF336048093F68608B6C00F10EB
:1026B800000023809D0023808D010F1000008346B9
:1026C800390593E60602A309D90423800D0086463E
:1026D8000DBDF336048093F68608B6C40F100000CB
:1026E80023809D0023808D010F100000834639054B
:1026F80093E60602A309D90423800D00A646A5BDCA
:10270800E30D0BF0F336048093F68608B6C80F1075
:102718000000930680FA23809D002380DD000F10BF
:1027280000008346390593F5FC0F93F6860FA3093D
:10273800D90483463905CD8EA309D90423800D0019
:10274800C646F3A606800F100000130580FA03465C
:102758003905930639051D8A631496297336048052
:1027680013768608B2CC0F100000130680FA238077
:102778009D002380CD000F10000003C606001376CD
:10278800F60D2380C60003C60600136606022380E2
:10279800C600835609051166D18E2318D9048356BD
:1027A80009052166D18E2318D90423800D00E64639
:1027B800F3A606800F100000130680FA8346390539
:1027C80093F606026388062483463905130C3905F7
:1027D800A18AFDDA0818CD21F336048093F686081D
:1027E800B6D00F100000930680FA23809D00238046
:1027F800DD000F10000083460C00116693F6F60DFD
:102808002300DC0083460C0093E606022300DC006C
:1028180083560905D18E2318D904835609052166E4
:10282800D18E2318D90423800D008656F3A606807E
:102838000F100000130680FA8346390593F6060246
:102848006385062083463905A18AEDFE97E0FF1FC0
:10285800E780E0832A8C97E0FF1FE7804083E30C42
:1028680085FF8356090511664255D18E2318D90470
:10287800A5218346390513063905A18AFDDAF33601
:10288800048093F68608B6D40F100000930680FAE9
:1028980023809D002380DD000F1000008346060082
:1028A80093F6F60D2300D60023800D00A656F3A656
:1028B80006800F1000008356090503462905D247F4
:1028C800B376DA003306CA021305800C9355F64135
:1028D8003696330DF6408257333CD6002E9C33365D
:1028E800A601330CFC40330CCC40330885039256C8
:1028F8004E86B335A5033305A503C295EF00726E66
:1029080063468001631E0C16630C0D161306150032
:102918003335A6002E959356F5013696B335D60075
:10292800AA959396F50105828585D18E6346B000F8
:10293800639D051A638B061A0356C902158233056F
:10294800D6003336C500B2956348B00063910524BC
:102958001306F00F637DA622894663F35615930785
:102968008008F3B7078093F78708BED60F100000DA
:1029780037170040930770052300F704930780FA80
:102988002300F7040F1000008356C70289678117D8
:10299800D58FC207C1832316F70223000704B65751
:1029A800F3A707800F100000FA506A54DA544A5906
:1029B800BA592A5A9A5A0A5BFA4B6A4CDA4C4A4D67
:1029C800BA4D296182801308F5FF3335A800FD153B
:1029D8002E951356F5013298B336C800AA9651B110
:1029E800F336048093F68608B6CA0F1000002380D9
:1029F8009D002380AD000F10000083463905CD8E61
:102A0800A309D90423800D00D646F3A606800F102B
:102A1800000035BBF336048093F68608B6CE0F1057
:102A2800000023809D002380CD000F100000834606
:102A3800390593E60602A309D90423800D00F6465A
:102A4800F3A606800F10000095BBF336048093F6BA
:102A58008608B6D20F10000023809D002380CD0089
:102A68000F1000008346390593E60602A309D9042E
:102A780023800D009656F3A606800F1000006DBB4C
:102A88009306F5FF33B5A600FD152E959355F50170
:102A9800AE96B3B5B600AA951396F501858269B5C9
:102AA800F336048093F68608B6D80F100000930614
:102AB80080FA23809D002380DD000F1000008356DC
:102AC800C9020566011693F6F60FD18EC206C182B9
:102AD8002316D90223800D00C656F3A606800F10D0
:102AE8000000850A93FAFA0F51B233E6B60045C2E0
:102AF8000356C9023305D0403338A000B305B040AF
:102B0800B385054115826345B000D1E16371A6081C
:102B1800894663F0560593078008F3B7078093F753
:102B28008708BEDA0F100000B717004013077005BA
:102B38002380E704130780FA2380E7040F100000BE
:102B480003D7C7027D8B2396E70223800704D65755
:102B580081BDF336048093F68608B6DC0F100000BA
:102B6800930680FA23809D002380DD000F1000006B
:102B78008356C9020566011693F6F60FD18EC20672
:102B8800C1822316D90223800D00E656B9B79307F0
:102B98008008F3B7078093F78708BEDE0F100000A0
:102BA80037170040930770052300F704930780FA4E
:102BB8002300F7040F1000000356C702939756002E
:102BC800B297C207C1832316F70223000704F657FA
:102BD800C1BB914763EEB702172702001307076DC1
:102BE8008A05BA959C41BA978287B717004003A710
:102BF800470B1345F5FF698F23AAE70A03A7070BBD
:102C0800698F23A8E70A03A7070A798D23A0A70AD3
:102C18008280B717004083A6470B1347F5FFF98E4C
:102C280023AAD70A83A6070B558D23A8A70A83A62C
:102C3800070A758F23A0E70A8280B717004003A709
:102C4800470B498F23AAE70A03A7070B1345F5FF8C
:102C580045BFB717004083A6470B1347F5FF758F8D
:102C680023AAE70A03A7070A598D4DB7B7170040EB
:102C780003A7470B498FEDB7B717004088474205B0
:102C880041819377050491EB9377F5013755E80176
:102C9800130505803345F50282809377050C1307E9
:102CA80000046397E7009377F50137459C1CCDB77F
:102CB8002165130505D0828037E700E01C435443A3
:102CC800A183E206D58F1CC1FD572320F7182322C4
:102CD800F7180F100000828013178500B7E700E08F
:102CE80023A0E710618123A2A7108280B7F700E034
:102CF8008847CC478280814737370040A14663C464
:102D0800C700328582800345B740E38EA6FE33852F
:102D1800F5000345050085072304A740CDB797F7BD
:102D2800FF1F9387276B9C43173700201307C72182
:102D38003E95636EE500174700201307278C6368EC
:102D4800A70017F7FF1F2327A7683E858280FD5736
:102D5800EDBF411122C406C62A84393F2947B3076B
:102D6800E502B2408D83B3D7870222449507B3D7D3
:102D7800E70237370040C207C1832316F7404101F5
:102D88008280716541111305052006C6D937B7370A
:102D98000040130770F82381E7400D47A381E740FF
:102DA80013070004A380E74005472387E740B240A4
:102DB80041018280CC41411106C6328503C6150007
:102DC80083C5050022064D8E42068D65418613880F
:102DD80075A2630C060F6348C804138845A26306EE
:102DE800060B634AC800938535A26309B60623908B
:102DF8000600294679A0138855A26308060B938517
:102E080065A2E316B6FEC1451D4663ECE5064546D8
:102E1800198E63F3C7003E862390C60097250200EB
:102E28009385054B89A8138895A26300060F634E06
:102E3800060B1388A5A2630A060F938505A5E31858
:102E4800B6FA99451D4663EEE502198E63F3C7008D
:102E58003E862390C6009385C18031A89D451D46B6
:102E680063E1E5022146198E63F3C7003E8623908D
:102E7800C60093858186BA9597E0FF1FE780A0A2D8
:102E88000146B240328541018280AD451D46E3EAE4
:102E9800E5FE3146198E63F3C7003E862390C600CF
:102EA8009725020093858546F9B7B1451D46E3EAA3
:102EB800E5FC3546198E63F3C7003E862390C600AD
:102EC80097250200938585457DB7C1451D46E3EAF0
:102ED800E5FA4546198E63F3C7003E862390C6007F
:102EE800972502009385054079B7C1451D46E3EA59
:102EF800E5F84546198E63F3C7003E862390C60061
:102F08009725020093858542BDB7C1451D46E3EA72
:102F1800E5F64546198E63F3C7003E862390C60042
:102F2800972502009385453DB9B7B5451D46E3EAA7
:102F3800E5F43946198E63F3C7003E862390C60030
:102F4800972502009385C5373DB797F6FF1F9386EF
:102F580026174146CD4517F5FF1F130565036F80FA
:102F6800D00A2D453DEF03C5050009476317E5065F
:102F78003285D041411106C60347160003460600B4
:102F880041682207518F130628FE6308C702636948
:102F9800E6000518630307032390060029451DA8CA
:102FA800130648FE630BC7001518E31707FF1547FC
:102FB8003E866377F700154621A03E8691C30546F5
:102FC800CC452390C6004206418297E0FF1FE78068
:102FD800808D0145B240410182802390060005455D
:102FE8008280828083C7850093F70702E1E341115D
:102FF80006C622C426C24AC003C9050009432E8852
:103008008547631B690203A345003284B68483475E
:10301800130003430300A207B3E767004163130EDD
:1030280013FE6382C7030D13638B67040D681308CF
:10303800289063850707A947B24022449244024971
:103048003E8541018280AD4765FB0547B547E3658D
:10305800D7FE0325C8000546A28597E0FF1FE78035
:10306800808401499387C1889843814771D7184361
:1030780061D72686A2854A850297814775BFAD47E5
:1030880045FF0547B547E369D7FA0325C800054654
:10309800A28597E0FF1FE7800081E9B72244B2408C
:1030A80092440249854741016F60F039A1473E8546
:1030B800828041677917630CE502411122C406C674
:1030C80085472A84639AF50022852244B240938575
:1030D800018841016F80407E89476396F5008545E8
:1030E800EFA0B03975D1B24022444101828082807C
:1030F800411122C42A844165938501887D1506C63D
:10310800EF80807B170500001305E5FA0588EFA01E
:10311800102E05C02244B24097F6FF1F9386060C76
:103128004146C54517F5FF1F130545FA41016F8054
:10313800C06DB240224401454101828009C523A6E1
:10314800A18801458280454582801147636EA706A4
:10315800972602009386C61E0A0536951841411126
:1031680006C63697AE87B285028705476145639ADA
:10317800E70005461385018797D0FF1FE780A072F7
:103188000145B2404101828005476145E39BE7FE66
:10319800054613854187CDB705476145E393E7FEAB
:1031A800054613858187C9BF05476145E39BE7FC51
:1031B80005461385C187C9B715476145E393E7FC01
:1031C8001546138541884DBF09458280411122C4A7
:1031D8002E849385018826C206C6AA84EF607021D2
:1031E800058915C197F7FF1F938747EE83D7A70B6C
:1031F800A285B2402310F400224426859244014659
:1032080041016F70E07BB24022449244494541013C
:10321800828011456FF04F92411193962500AA853F
:103228002D4506C697D0FF1FE780E028B24001452C
:1032380041018280011122CC06CE3714004026CAF3
:103248004AC84EC652C483447405034AB405834928
:10325800840503499405EFE01FE98347A40593F427
:10326800F40F137AFA0F93E71700230DF40493F978
:10327800F90F1379F90FB717004003C7A705058B96
:103288006DFF03D5C705A38D4705238C3705A38C90
:103298002705A38B9704F2406244D2444249B249BD
:1032A800224A0561828041119397050122C406C60E
:1032B800C1872E8463DD0700EF00F02319C1EF00FA
:1032C80070172165218DB24022444101828093F715
:1032D800150013C51500E5FB93F7250013C5250058
:1032E800FDF39397250163D00702EF50312B153773
:1032F80037F60200130606E0896503C54189EF0029
:10330800107F0965C1B7939715010145E3DD07FAF9
:103318001725020013058508EF00B2601306006444
:10332800916503C54189EF00907C116561BF2D71DE
:10333800232A9110FD74E98C232C81102328211154
:10334800232631112A84AE893289930600100A8611
:10335800A6852D45232E111097D0FF1FE780A015B5
:103368001315440151810A0513962900CA850A9547
:1033780097D0FF1FE7802053A6858566014625451F
:1033880097D0FF1FE78020130A86A68593060010B2
:10339800294597D0FF1FE78000128320C11103241D
:1033A800811183244111032901118329C110156159
:1033B8008280B7F7070003C70701411106C622C478
:1033C80026C24AC0A547631AF7009537B24022447F
:1033D8009244024901454101828013942500AA8440
:1033E8003289A286AA850146254597D0FF1FE78026
:1033F800800CA2864A86A685294597D0FF1FE780BC
:10340800800BE9B75D71494697250200938585F4DD
:10341800172502001305854086C697D0FF1FE78051
:10342800005401E917250200130505F4EF00724F57
:1034380001A0B7F600E0795798CAFD57DCCA0567BE
:10344800B7E700E023A0E7101306F00290C223A01C
:10345800E7180F10000017E7FF1F1307273123A8ED
:10346800E1884157A38AE7401306000481450A858D
:1034780097D0FF1FE780404A97F7FF1F9387C71E23
:103488003EC08D67938707402312F1009D673EC4B5
:10349800B7070128938707103EC69307601F2318B4
:1034A800F100930720022309F10097070000938792
:1034B800E7D63EDA970700009387E7EF3EDC85679B
:1034C800938757D1231AF100970700009387478203
:1034D8003ED097070000938727D63ED49707000071
:1034E800938767D33ED60A87973702009387C782A8
:1034F800973602009386E68103C65700FD17050735
:10350800A30BC700E39AD7FE0A85EF10E048AA8507
:1035180001C917250200130565E6EF00F22E01A088
:10352800B640616182804111170500001305E5D797
:1035380006C622C4EF108042138441892300A400E8
:103548001928034504002244B24013060032896555
:1035580041016F00D059797106D613078008F337F7
:10356800078093F787083EC20F100000B717004086
:10357800930570052380B704130680FA2380C704D7
:103588000F10000083C6F70293F6A60FA387D70291
:10359800238007049246F3A606800F1000007337B5
:1035A8000780137787083AC40F1000002380B704F8
:1035B8002380C7040F10000003C7F7021367270012
:1035C800A387E70223800704A247F3A707800F1009
:1035D80000000545EFE07FB42D398147014781465A
:1035E800054685451305407EEFE01FB86800514643
:1035F800814597D0FF1FE7802032B707C0A83EC893
:10360800B787E803938707D03ECA680097D7FF1F9C
:10361800938727DB3EC6EF10006CB250456182806D
:103628002A86B305B040172502001305E5E06F00B0
:10363800B21D83C7018B91C7C14503C501826F00C5
:10364800702B8280011106CE19C589476301F502E6
:10365800F24005618280680097D0FF1FE780A024B0
:1036680017250200130545EAEF00B22BD5B768000D
:1036780097D0FF1FE780202317250200130585EA4E
:10368800E5B783D7418A6390A7022393B18A23942D
:10369800C18A2395D18A2E86172502001305C5D71E
:1036A800BE856F00721617250200130565D86F00D6
:1036B800522703574500011106CE83D7418A631F5D
:1036C800F702C167F917894503C5018223A2F18A68
:1036D80023A4018AEF00106C914503C50182EF0015
:1036E800706B85471306F100854513055030A30715
:1036F800F100EFB09113F2400561828017250200B6
:10370800130505D3EF00F221FDB77D15954763E753
:10371800A714172702001307A7C80A053A951C41E2
:10372800011122CC06CEBA972E8482872C0013056D
:103738004030EFB0C17B2C000545EF5060151725D0
:1037480002001305E5D0EF00D21D05A883C72500A8
:1037580019476391E7022E85A93F83456400172521
:1037680002001305E5CFEF00320A17250200130502
:10377800E5D0D1BF0D47E38AE7FEF2406244056118
:10378800828003C725009547E319F7FEC16703D771
:10379800418AF91703D5A500630FF700EFB0113B75
:1037A80017250200130585CEEF00B2171725020072
:1037B800130545D049BF2392A18A83D7E500056642
:1037C800130606C82393F18A83D7050103C501822E
:1037D8002394F18A83D7250189452395F18AEF003F
:1037E80010310356E4008355A40017250200130581
:1037F80025CBEF0072015DBF03C725008D47172554
:1038080002001305E5CBE31AF7F635BF83C525009B
:1038180091476397F500172502001305E5CB25B7F7
:103828009947639DF500228569358345640017250E
:1038380002001305E5C2EF00227D81B79547639A20
:10384800F50083471400E1FB17250200130585CA1C
:10385800DDBD17250200130565CAF1BF828001117D
:103868009397050122CC06CE26CA4AC8C1872E8462
:1038780063DB070603C50182BD29AA8405CD8347FA
:1038880005001307000B638FE7021307000D639110
:10389800E70203472500C547631CF7000346650098
:1038A8008345750017250200130505B1EF00C275A1
:1038B800268549262165218DF2406244D244424939
:1038C80005618280034745009307F007E312F7FE7E
:1038D80083558500172502001305C5AF2396B182CD
:1038E800EF008272F1B793F7150091CF17F6FF1F1B
:1038F8001306C6959385419903C50182EFB0413FF0
:103908001345140055BF93F72500B9C383C7018B2E
:1039180095C79387C18A8C43172502001305C5AC48
:10392800EF00826E23A6018A13060064894503C549
:103938000182EF00D01B13452400BDBF17250200EC
:10394800130545ABEF00E27D85472388F18AE9BF7F
:1039580093F7850085C383C7018213074006814614
:1039680013064006994503D5418AEFB0C133134584
:10397800840099B793F7450085C303D5418AEFB012
:10398800B11C0566130606C8914503C50182EF0000
:103998001016134544000DB793F705010145E38D53
:1039A80007F01389019A9384C18A83D7C182138649
:1039B800D7FF42064182F917634BF600172502002C
:1039C800130585A4EF00E27513450401F5B5014719
:1039D8008146ED4503D5418A2315C100EF50705B40
:1039E8002AC67DD10356A100CA8597D0FF1FE7805C
:1039F80080EB2C0003D5418AEFF04FFD11C5ED4552
:103A08002800EF50D070C9B79C4003D7C182F51782
:103A1800BA9723A6F18A51BF7971170500001305DB
:103A280045E406D622D426D2EF005073938401824F
:103A3800994705442380A400231AF100100893072E
:103A48004006854513055030231CF10023088100EA
:103A5800EFB0A15D17F6FF1F13068681F145130528
:103A68007030EFB0815C138641829D45130560304C
:103A7800EFB0A15B5008894513051031EFB0E15A4A
:103A88003008894513052031EFB0215A9305000508
:103A98000D45EF20504B930500051145EF20B04A26
:103AA80030089145130570402304810023068100E6
:103AB8002308810002CC230A0100EFA0810F300007
:103AC800854513050040EFA0C10E7000854513051C
:103AD8001040EFA0010E5008854513052040EFA0C7
:103AE800410D1008854513055040EFA0810C7D5508
:103AF800EF5070127D55EF701059EFF00FC57D55DE
:103B0800EFF00FDF17E6FF1F13060675D5450145D1
:103B1800EF50007F89472306F1008D472308F10005
:103B28009147230AF10093870186984383C747008A
:103B38003000854501453ACC230EF100230481006D
:103B4800EFF0AFE0700085450545EFF00FE0100895
:103B580085450945EFF06FDF500885450D45EFF0C5
:103B6800CFDE300895451145EFF02FDEC16713878A
:103B7800418AF9171CC3232207001385C181EFF07E
:103B8800EFDB1385C189EF80515103C504008545DA
:103B9800952317050000130505AAEFE0602DB25024
:103BA800225492544561828041111305800406C64F
:103BB80097C0FF1FE780204F371700408327870AE9
:103BC8008D451305002093E707202324F70AEFF01B
:103BD8004F80EFF00F9B17250200130525C4EF0057
:103BE8004254EFF03F82EFF01F94EFB061782D352B
:103BF80097C0FF1FE780C07F23AC05FE1C4191E7FB
:103C0800010001000CC18280BA8703A787FF6DFFFE
:103C180023ACB7FE8280184183A785FF6319B700DC
:103C28001CC1FD5723AC05FE238FF5FE8280232C93
:103C3800F6FEC5BF411122C437E400E026C20440A5
:103C48003707200006C6F98C2320E4180F1000005F
:103C580009E9232094101545B240224492444101B9
:103C680082800347E5FF9307F00F6306F7002320E0
:103C780094101145D5B797E0FF1FE78060170145FD
:103C880023209410D1BF411126C2B7E400E04AC0F6
:103C980003A90400B707200006C622C43379F90037
:103CA80023A0F4180F10000009E923A02411B24042
:103CB800224492440249410182809565938505D04A
:103CC800C98D2A842105C2054205C181418197E039
:103CD800FF1FE780C00201CDFD57232005002312F6
:103CE80085002303F50023A024112105C9B723A0CB
:103CF800241101456DBF0111B7E700E04AC803A9C7
:103D080007004EC63707200006CE22CC26CAAA894D
:103D18003379E90023A0E7180F1000009727002047
:103D2800938747D980438144014619E499E8A165FE
:103D38004E85EF00300605A08347E4FF63993703FB
:103D480085CCA685172500201305C5D6E93565D08D
:103D5800A1654E854526F2406244B7E700E023A0FE
:103D6800271126854249D244B2490561828091E0F3
:103D78002286032484FF55BFA284E5BF41114AC0AF
:103D880037E900E022C4032409003707200006C6EB
:103D980026C2798C2320E9180F10000089E523201A
:103DA8008910154515A0AA849727002083C7D7D066
:103DB8002E8563F5F400894763EE9700A53DB7E7C4
:103DC80000E023A087100D45B240224492440249E6
:103DD8004101828083A785FF99E703C7E5FF930721
:103DE800F00F6308F700B935B7E700E023A08710A4
:103DF8004DBF238F95FE172500201305A5CBED3B5E
:103E0800A1652685C52C01452320891075BF9727F4
:103E1800002023A107CA828097270020938707CF15
:103E28009C4399E33E85828003D727006316B70039
:103E380003C70700E308A7FEDC47E5B7A5C10111E2
:103E480006CE22CC26CA8147C14633D7F540058B1A
:103E580029C312053E9531473305E502172700208F
:103E6800130707CF044305443314F4002EC6420455
:103E78004180AA949C40C8408297B24523A0040080
:103E880023A20400A18DF2406244D2442E8505612C
:103E980082808507E39BD7FA0144EDB72E8582809F
:103EA800C9C1797122D406D626D24AD04ECE014451
:103EB8004147B3D78540858BA5C312053147229565
:103EC8003305E50297270020938787C803A90700D1
:103ED8008544B3948400C204C180BE892A9903270B
:103EE800090011C7032549002EC60297B24531477C
:103EF8003304E40283A709003E941C4489E7232085
:103F0800090023220900B2502254A58D0259925467
:103F1800F2492E85456182800504E31CE4F881445A
:103F2800DDB72E8582804111B7E700E022C48043C7
:103F38003707200006C626C2798C23A0E7180F1081
:103F48000000972700209387A7BC9C539384018384
:103F580099C782979C403E9523A8A18239A09727AC
:103F68000020938727BA9C43EDF78840B7470300A2
:103F78009387D73F3305F502B7A72600938737EC19
:103F8800B24092443E9523A8A182B7E700E023A05F
:103F9800871022444101828001112E8626CAAA84F4
:103FA800131506019305F004418122CC06CE32C6D2
:103FB80097E0FF1FE780A0D42A8419C53246A6855A
:103FC80097D0FF1FE780208E2285F2406244D244BA
:103FD800056182807971B7E700E022D48043370811
:103FE800200006D626D24AD04ECE52CC56CA5AC83F
:103FF8005EC662C43374040123A007190F100000C1
:1040080005E123A087100945B25022549254025961
:10401800F249624AD24A424BB24B224C45618280F5
:1040280097270020938707AE9C43BA8A368AB28BBB
:104038002E8BAA89829797270020938767B1984388
:104048003E898144B146C147338CD4023306870187
:10405800104241EAC165938505F0414597E0FF1F8D
:10406800E780E0C905E197270020938767AA9C5B52
:1040780081C7814511458297B7E700E023A08710E3
:104088002D4559B797270020938747A8984331E7CC
:104098009727002023ACA7A6230005008327090043
:1040A800054733179700232605002324750123119C
:1040B800E50023225501E29723A0370123A26701D7
:1040C80023A4570163040A0023009A00B7E700E01D
:1040D80023A0871001450DBF3E875C47F5FF48C701
:1040E80065BF8504E392F4F6B7E700E023A08710E4
:1040F800214519BFB7E700E09843B706200023A081
:10410800D718758F0F1000009726002083C6D69AFF
:104118006373D502172600201306069F9316150011
:104128000842369583560500D58D2310B50023A087
:10413800E7100145828023A0E7100D458280B7E78C
:1041480000E09843B706200023A0D718758F0F10FA
:1041580000009726002083C636966375D502172679
:1041680000201306669A93161500084293C5F5FFBA
:10417800369583560500F58D2310B50023A0E7106A
:104188000145828023A0E7100D458280011137E7A1
:1041980000E026CA0443B706200006CE22CC4AC84F
:1041A8004EC652C4F58C2320D7180F1000001307F1
:1041B80005FF1377F70FFD4763E5E70AB146B30636
:1041C800D502972700209387A798984336971C43D2
:1041D800C9CB135A450005443D893315A40013146F
:1041E800050141802E895285A2853D31AA8929CDB4
:1041F800A2855285A937972700209387A7909C43CB
:1042080082979727002083D7E795338727032A8447
:10421800814613060064B3B7270313050732B33585
:10422800E500BE95EFF07119B307850097260020C9
:104238009386C6923E87D44263E4A70063E4D7001E
:104248003387D74023A4E900B7E700E023A09710FD
:104258000145F2406244D2444249B249224A0561CA
:104268008280B7E700E023A097100945DDB7011168
:10427800B7E700E026CA84433707200006CE22CCE1
:104288004AC84EC6F98C23A0E7180F100000BD4796
:1042980063E9A70431473307E5029727002093878E
:1042A800278B9C43BA979C438DCF05443314A400B5
:1042B800420441802E890145A285B93EAA8911C5CB
:1042C800A2850145AD3D23A42901B7E700E023A05D
:1042D80097100145F2406244D2444249B24905610F
:1042E8008280B7E700E023A097100945E5B7797108
:1042F8004AD037E900E026D283240900B707200016
:1043080006D622D44ECE52CC56CA5AC85EC6FD8CAA
:104318002320F9180F1000009717002083C7D779BA
:10432800637AF500971700209387C77D83AB070052
:1043380063970B00B7E700E023A09710A9A0172BFD
:104348000020130BAB81832A4B00B74736FE9387B7
:1043580007C82E8A9725002083D5C580BE9AB387C3
:10436800C5022A84B2898146B3B5C50213850732CE
:10437800B337F50013060064BE95EFF0110463F03F
:10438800AA02232099100145B2502254925402598E
:10439800F249624AD24A424BB24B45618280829BC3
:1043A8009715002083D5057CB38735032A89130622
:1043B80000648146B3B5350313850732B337F5007A
:1043C800BE95EFF0817FB30725013E8903274B0097
:1043D80063E4A70063E4E7003389E740D2852285D8
:1043E800253C09C923242501B7E700E023A097103D
:1043F800054559BF936504F0C205C181414597E061
:10440800FF1FE780C08F19E997170020938747702F
:104418009C5B8DD3A2851145829729BF97170020F1
:104428009387C76E9C4385E79717002023A0A76E44
:104438008547232605002324250123114501230050
:104448008500A300F5002322050079BFBA87D84765
:1044580075FFC8C7F1BF7971B7E700E026D284437A
:104468003707200006D622D44AD04ECE52CC56CAA0
:104478005AC85EC662C466C26AC0F98C23A0E7182F
:104488000F1000003DC14144B689B28A2E8A2A899C
:10449800B14C171B0020130BAB6B054D130C00031D
:1044A800B30B940303270B005E971C43A5E3937596
:1044B800F400B315BD0013554440C2055686C181AA
:1044C8001375F50F2D3539C183270B00DE9723A00F
:1044D800270123A247016384090023808900B7E7E5
:1044E80000E023A09710014521A023A097100945BB
:1044F800B250225492540259F249624AD24A424B6B
:10450800B24B224C924C024D456182800504E3195E
:1045180084F9B7E700E023A097102145D1BF011126
:10452800B7E700E026CA844322CC4AC84EC63707FC
:10453800200006CE2A84AE893289F98C23A0E71898
:104548000F1000006D332285CE85EFF0FF8C2A8492
:1045580005C59715002083D5E560B38725031306A5
:1045680000648146B3B5250313850732B337F500D8
:10457800BE95EFF0816448C013351400F2406244E0
:10458800B7E700E023A097104249D244B2490E058C
:10459800056182800111B7E700E04AC803A9070056
:1045A80022CC4EC63707200006CE26CAAA892E84FA
:1045B8003379E90023A0E7180F100000EFF0DF853A
:1045C800AA8419C123110500A2854E858D3E97172F
:1045D800002083C7674E639B37019717002083D756
:1045E80027525D8C97170020239C8750B7E700E07F
:1045F80023A02711014591E01945F2406244D244B5
:104608004249B2490561828001114AC837E900E090
:1046180022CC03240900B707200006CE26CA4EC6BE
:104628007D8C2320F9180F1000009307F00263E82F
:10463800A704B147B304F50297190020938949519B
:1046480083A70900A6979C439DCB9377F5008545E2
:10465800B395F500C205C18111812D3F83A70900DB
:104668000145A69723A0070023A20700232089104D
:10467800F2406244D2444249B24905618280B7E7B8
:1046880000E023A087100945E5B74111B7E700E02E
:1046980026C2844306C622C437072000F98C23A00B
:1046A800E7180F100000EFF02FF719E90145B240A5
:1046B8002244B7E700E023A097109244410182808A
:1046C80097170020938707449C43004582979717C4
:1046D80000209387A7486368A402D843B74636FEEC
:1046E800938606C83305A4403697E371E5FC1307A3
:1046F8000064B335E50203D6870081463305E50239
:10470800EFF0A14B6DB7D8433A94C1BF411122C411
:1047180026C21714002013046444971400209384BD
:10472800A43994485840971700209387A73D06C698
:104738009C436393E60882975440B74736FE9387B5
:1047480007C8B6973387A7003A856364F7006364A0
:10475800D7003305D740971400209384245ADC509F
:1047680081CF971700209387276194433707CDFFA0
:104778007D179C46F98F9CC611E148409717002089
:1047880093870739DC53829719E5DC508DC3EF40D6
:104798002178EF303148DC5099CB97170020938768
:1047A800A75D9843B70633001C47D58F1CC7B24096
:1047B8002244924441018280829794485840B387AA
:1047C800A6003E8563E4D700E3E7E7F83385E740D2
:1047D80059B7411106C69717002023AFA73602958F
:1047E800B2409717002023A5A72E014541018280DA
:1047F800994763E9B7008A05971700209387872EA2
:10480800BE9588C182809717002023A5A73411C5BB
:104818008547171700202306F72E8280411171461D
:104828008145171500201305E52B06C697170020AC
:1048380023AE072C9717002023A0073297170020D4
:1048480023A2072C97170020238D072A97170020EB
:1048580023A2073097C0FF1FE780000C13068002D1
:104868008145171500201305252597C0FF1FE780F0
:10487800A00AEFA0B139971700209387672903C5CD
:10488800C70383C7D70385453E958D473305F50292
:1048980039051375F50F971700202380A72299472C
:1048A8003305F5021305052497D0FF1FE78020453F
:1048B80017170020232EA72859CD9947171600202F
:1048C8000346A61F3306F60281451306062497C041
:1048D800FF1FE780600497170020938767279C4392
:1048E8009387072417170020232CF71E171700207B
:1048F8000347A71C0A07BA97171700202326F72093
:10490800EFF0EFD0E129971700209387671D9443B4
:104918009717002083C7571A13972700369717F65B
:10492800FFFF1306265810C3138717001377F70FD6
:104938000A07369717F6FFFF1306865010C313872A
:104948003700890793F7F70F8A0797150020A38583
:10495800E516B69790C3B2404101828097170020B0
:1049680083C79715171700200347271563F3E70236
:10497800171700201307C716184393861700171632
:104988000020A30BD61293962700369708C33E85BE
:1049980082809307F00FE5BF1C41638407164177B7
:1049A8007D8FB70600208947631ED714035745003B
:1049B800630A0714411122C419462A849305F00F8B
:1049C800610506C697C0FF1FE780000005478D47B1
:1049D8006304E5121C4481CB58589947630E0710AD
:1049E800185C630B07101306000481451715002097
:1049F8001305051297C0FF1FE78000F21306000495
:104A0800A285171500201305A51097C0FF1FE78082
:104A180080E99717002083D767101717002013071E
:104A2800270F99E793070010971600202398F60E92
:104A38009717002083C7A70E91E785479716002090
:104A4800238FF60C9717002083D7870D91E7ED4742
:104A5800971600202396F60C9717002083C7370C6B
:104A680091E7954797160020A38BF60A9717002021
:104A780083C7270B91E78547971600202383F60AFB
:104A88009717002083C7F70999E78347F700971618
:104A98000020A388F6089717002083C7B70881CF9E
:104AA80093F637008983171600202301D60A971634
:104AB8000020A38DF6089717002083C7A70691E763
:104AC800D54797160020238FF6048347640199E79A
:104AD8009307C003971600202387F6041C5791C735
:104AE800829797170020239DA7FCFD5717170020D2
:104AF800A30AF72E25338147B24022443E8541015F
:104B0800828089473E85828001114EC69719002010
:104B18009389C90483A7090006CE22CC26CA4AC8AD
:104B280052C4829713090064B335250303DA890058
:104B38008146528633052503EFF021089717002098
:104B4800938787F7804FAA840145630694023385CB
:104B58008440636E940003A5490052868146B335AC
:104B6800A9023305A902EFF04105018D2695971793
:104B7800002023AF97F4F2406244D2444249B2493C
:104B8800224A05618280011122CC0A852E84414681
:104B9800970502009385857006CEEFF0813B1808D3
:104BA80006043A94035504FF9717002083D7A7FB00
:104BB800F2406244AA9737450F0013050524335580
:104BC800F502056182809717002083D7C7F95147FE
:104BD8001D45637CF702794719456378F702130787
:104BE800200315456373F7021307B0041145637E6C
:104BF800F700130740060D456379F70013076009AE
:104C080009456374F70013B5B70F8280011122CCF0
:104C180006CE2A842EC6EFF00FB1B245F240818D40
:104C280033A5A502229562441375F50F05618280AC
:104C3800011122CC06CE2A842EC6EFF0CFAEB245A3
:104C4800F240818D33A5A502229562444205418137
:104C580005618280011122CC06CE2A842EC6EFF08F
:104C68008FACB245F240818D33B5A50222956244DE
:104C78000561828097170020938787E9985739CB79
:104C8800411122C426C206C6BE8402971717002007
:104C9800035707E32A8415CBBA876373A700AA874B
:104CA800C207C183BA866373E400A286C206C182C2
:104CB800958F5147635BF700DC5491C38297EF40AF
:104CC800E10D97170020239D87DEB24022449244CD
:104CD8004101828082809717002023AB07E897174D
:104CE80000209387E7E2DC57011106CEAA8581C729
:104CF8002AC68297B245CDC19C410545D9CBDC4136
:104D0800C9CB83D78500D1C783D7A500D9C351465E
:104D180017150020130585E497C0FF1FE780A0B88A
:104D280097170020238207E497170020938707E34B
:104D38009C43171700202327F7DC9717002083C709
:104D480097DE8DE79307805717150020035585E1F7
:104D58003305F50237460F001306062481468145C0
:104D6800EFE0B16597170020A38FA7DA1717002087
:104D7800034777DBA54763E7E700A9471717002034
:104D8800A303F7DA17050000130545D8EFF07FA451
:104D98000145F240056182809717002023AC07D2B5
:104DA80097C7FF1F938727FF171700202328F7DAD5
:104DB8007D579717002023A5E7DAB7873200938736
:104DC80027A19716002023AFF6D897170020238D28
:104DD80007D8B7C7004023A4E726B9B7011122CCEA
:104DE800171400201304C4D2084406CE26CA4AC8A1
:104DF80001E90545F2406244D24442490561828096
:104E08005C58E5DB185C75D77000854582971844B7
:104E1800B247E300F7FE9305E00417150020035599
:104E2800E5CF97D0FF1FE78080ED171700202325D7
:104E3800A7CA61D117160020035646CE9305F00F76
:104E480097C0FF1FE78040AD814417190020130960
:104E5800A9C69717002083C787CC0326090263C118
:104E6800F402328597D0FF1FE78080F80145971735
:104E7800002023A307C69717002023A107C69DBFBC
:104E88009715002083D585C9B38795020844185C17
:104E9800898185043E9508C2029765BF011156C2F3
:104EA800971A0020938ACAC683A78A0022CC4AC8C8
:104EB8004EC606CE26CA52C45AC0AA892E84328942
:104EC8006386072203A74A03630907141307F01F21
:104ED8006367A71497140020938404BE03AA0402EE
:104EE80063170A0A9565938515E017150020035581
:104EF800E5C297D0FF1FE78080E09717002023AD19
:104F0800A7BC2A86630B051083A74A0303A58A005A
:104F18009715002083D585C08981829783A78A0049
:104F280003AA040217170020232AF7BA8947639CAB
:104F3800F908C1476313F40E9715002083D505BE01
:104F4800938505FC9147B3C5F5028A05D29503C739
:104F580025009307A005631EF70A83D70500639A07
:104F6800370B4A852286910597C0FF1FE780A093DB
:104F78009C505285639347150145F2406244D244E0
:104F88004249B249224A924A024B05618280D8506E
:104F9800E38EE7F89565938525E0171500200355FE
:104FA800E5B797D0FF1FE78080D52A8A3DC52A86B6
:104FB80083A74A0303A58A009715002083D505B661
:104FC80089818297A5B78D47639DF900C14763160C
:104FD800F4049715002083D565B4938545FDF199B0
:104FE800B5B79147639AF900631934039715002000
:104FF80083D5C5B2A115E5B793070010639FF900E3
:10500800A14763EC87009715002083D525B1C1150A
:10501800F9B79C5052856396470D2945B9BF1D6A5B
:10502800568B6371450B130A05E01947334AEA02A8
:1050380017170020035787AE971A0020938ACAA72C
:10504800330AEA023E9A83A74A026395470183A47A
:105058000A029DE49305E00417150020035505ACEA
:1050680097D0FF1FE780A0C9AA8445D983274B039F
:105078009715002083D585AA2A868981528582972B
:1050880091451307A005898193972500A69783C6A4
:1050980027006393E60483D60700639C36038505DF
:1050A8008A052286A6954A8597B0FF1FE780A07FCC
:1050B80083A70A02E38297EC268597D0FF1FE78033
:1050C80020D35DBD21677917E369A7F4330A454109
:1050D80085B783C5370045BF83A70A02E38F97F2D8
:1050E800268597D0FF1FE780A0D005BF971700201F
:1050F8009387879C8C5395D191479306A005898304
:10510800139727002E9703462700E318D6F0035677
:105118000700631C360185078A072286BE954A85E3
:1051280097B0FF1FE780207881BD83473700C1BF54
:10513800971700209387C79D984739C79C5FA9C7D1
:1051480005476313E504411122C417140020130412
:10515800A496105006C60DC648509715002083D552
:10516800E59B89818297085097D0FF1FE78040C848
:105178009717002023A207969717002023A00796C9
:10518800B240224441018280828001111717002019
:10519800130707984EC68329870022CC26CA4AC817
:1051A80006CE52C456C2AA842E843289638B092043
:1051B8001C5FBA8A99EB2945F2406244D2444249BD
:1051C800B249224A924A056182805C5BEDD7930717
:1051D800F01F63EAA70E971900209389E98D83A72A
:1051E8000902B1CB03A58A0083A749026395A706E4
:1051F80089476393F408C147E31FF4FA17150020A1
:105208000355C5919147130505FC3345F5029317DE
:10521800250003A509022286CA853E959307A005A5
:105228002301F50023109500110597B0FF1FE780B3
:105238008067014551B79305E00417150020035511
:10524800E58D97D0FF1FE78080AB9717002023A537
:10525800A78849F98DB783A74A0303A609029715BA
:10526800002083D5A58B8981829783A78A00171789
:1052780000202325F786ADBF8D47639EF400C14704
:10528800E31BF4F21715002003554589130545FD66
:105298009377C5FFBDBF9147639AF400E31D94F06F
:1052A80017150020035585872115DDB793070010D2
:1052B800E393F4F0A147E3E087F0171500200355C6
:1052C800E5854115F1B79D676379F506930705E014
:1052D8001947B3C7E7021717002003572784170A8F
:1052E8000020130A6A7DB387E702BE9983270A0262
:1052F800A1CF83274A026399370703250A029146FB
:105308001308A0059305F00F93D7260013972700DD
:105318002A9703462700631F06078358070003469A
:10532800370063959806B306D64063CF8604850791
:105338008A072286CA853E95CDBD21677917E36C19
:10534800A7E6B307F54041BF9305E0041705002021
:105358000355C57C97D0FF1FE780609A9707002008
:1053680023ACA77659F581BD83A74A0303260A0211
:105378009705002083D5857A89814E85829797077E
:10538800002023AD377595BF2310B700931606018B
:10539800C1829DBFB3858600170600200356067894
:1053A8009105130606FCE368B6E013063400719A0B
:1053B8001106B2962301070123109700A301D70015
:1053C800BDB7970700209387276F9453BE89A9C25A
:1053D80003A5090291461308A0059305F00F93D77A
:1053E8002600139727002A97034627006318060507
:1053F800835807000346370063989800B306D640E1
:10540800E3D786F22310B70093160601C182C1BF05
:105418008357C70017050020034565709305E0040E
:105428003305F5024205418197D0FF1FE780208DA3
:105438009707002023A2A76A41FDB5BB17060020E5
:105448000356C66D9705002083C5656DB385C502F3
:10545800338686001106E3E0C5D681BF0145828008
:10546800011106CE2EC6EF80006F01C9B245F24089
:105478000355250005616FC0700CF2404945056170
:105488008280A38E018C238E018C23A2018C23A4FD
:10549800018C23A6018C23A8018C23A0018C23AEA8
:1054A800018A970700209387E76E93064038239177
:1054B800D702F1761307400B938606B82391E700CD
:1054C8002392D70211679D46130600059305000A2B
:1054D8001305007D2392E7002393D70241478546B1
:1054E800130810F82395E7002396E7002399E700AF
:1054F800239AE700239BE700239CE7002394E70215
:10550800239007002393B7002394B7002397C7007D
:105518002398C700239DA700239E0700239F070009
:10552800239007022395D7022396070323970702A0
:105538009308F007239807022392E7042393E704CC
:10554800239FE7042390E7062391E7062392E706C3
:10555800239917031307C01C239AD702239BD7024A
:10556800239C0702239D0702239E0702239F07020D
:10557800239007042391D704239407042395070451
:105588002396D7042397C7042398C7042399A7040D
:10559800239A0704239B0704239C0704239DC7041D
:1055A800239EC7042393A70623940706239507067B
:1055B800239607062397B7062398B7062399070665
:1055C800239AE7065147239DE7067D57239B070645
:1055D800239C0706239ED706239F070623900709C7
:1055E8002391E7088280011126CAAA84214522CC8A
:1055F80006CE2E8432C636C43AC2EFE0CFE81DC9C3
:10560800A24612473246930700FD2300F50099474A
:10561800A30095002301F5002303D500A303E500AB
:105628002312C500AA8522856244F240D24405614E
:105638006FE0CFF4F2406244D2440561828023A235
:10564800A18C828023A4A18C828023A6A18C828035
:1056580023A8A18C8280011122CC4AC806CE26CA72
:105668002A890144B30489006368B400F2406244A3
:10567800D2444249056182802EC6EFE0DF8A931743
:105688000501C183A183B2452380F4009307140068
:1056980093F7F70F850463F9B700CA9709042380C5
:1056A800A7001374F40F7DBF3E847DBFC167170543
:1056B80000200355854CFD176304F50241111706B8
:1056C8000020034626619385418D06C6EF8040265B
:1056D800B240FD57170700202311F74A4101828085
:1056E800828009C925151375F50F1335850E1345E5
:1056F800150082800145828023900500C9C6797112
:1057080022D426D24ECE52CC5AC806D64AD056CA31
:105718005EC63684328AAE892A8B814463F3440795
:10572800B307940083C70700138914004209939AAA
:10573800070193DA0A011359090163840A04CA9715
:105748006341FA04B307240183CB07005E85513F08
:105758000DC99387FAFF2390F90063906B03130533
:1057680019002295B250225492540259F249624AC1
:10577800D24A424BB24B45618280D694C204C18062
:1057880071BF0145C5B701458280411126C2AE846B
:1057980022C49707002023A9C73E9707002023A308
:1057A800B73E9707002023ADA73C2A8441469305BE
:1057B800F00F26854AC006C6054997B0FF1FE78047
:1057C800A02063102505970700209387A73A884BE8
:1057D800C145513541469305F00F228597B0FF1F0B
:1057E800E780801E854463189502224497070020AD
:1057F80093874738B24092440249C847C14541019E
:1058080099BD41468145268597B0FF1FE780C01B9B
:10581800E31225FD4DBF41468145228597B0FF1F04
:10582800E780801AE30395FCB2402244924402497F
:1058380041018280411122C426C22E84AA84130603
:1058480000028145170500201305C53206C697B02A
:10585800FF1FE780600C97070020A38E97309707FB
:105868000020238B8746EFC0604F854719C18147C9
:105878004945B240224417070020230DF72E9244D1
:1058880041018280814781CD19C98547631BF50095
:1058980083C7550093E707FCA382F50085473E853B
:1058A800828089476317F50083C7550093F7F7038C
:1058B800E5B70D478547E314E5FE03C755001377A1
:1058C800F70313670704A382E500D1BF81478DC1A1
:1058D80005C103C755009306000C85471377070CCD
:1058E8006308D700930600048D476303D7008947F0
:1058F8003E858280411122C4005D06C626C21DC8AD
:10590800AA84085009C597C0FF1FE780604E485019
:1059180009C597C0FF1FE780A04D085409C597C067
:10592800FF1FE780E04C228597C0FF1FE780404CAF
:1059380023AC0402B240224492444101828009ED22
:105948009707002083C72723170500201305052480
:1059580081CB1385418B8280170500201305052311
:1059680082801705002003450521828097070020C3
:1059780093874720C8478280970700209387871F0F
:10598800884B8280970700209387C71EDC4B88438B
:105998008280970700209387E71DD84B1C43850713
:1059A8001CC3170500200345151D9307F00F630559
:1059B800F50091656FE00FF48280011122CC06CECC
:1059C8002E8432C6EF80E0299147B245631FF50067
:1059D8009387018D9C438DC303A30700630E0300C7
:1059E80022856244F240056102839387818C9C433F
:1059F80081C703A34700DDB7F2406244054505614E
:105A08008280011122CC2A840355450006CE26CA7D
:105A18004AC84EC6EF80000335C52A89834405006D
:105A28008349C500C13D4A85EF8020630355440082
:105A3800EF80601E83C7C18DB1CB6399970483C57E
:105A4800D18D2685EFF0DFA119E1238E018C035556
:105A58004400EF8000219147631FF500035744007D
:105A68009707002083D767116317F700FD571707BB
:105A780000202314F710F2406244D2444249B2494C
:105A88000561828081499304F00F6DB79307F00F89
:105A9800E38FF4FA83466400035644000345240068
:105AA8004E87A685893665B779715EC6AA8B2E851D
:105AB80052CC56CA5AC806D622D426D24AD04ECE7E
:105AC800AE8A328B368AEF70F0777DC1045D2A8901
