:040000006F10C0704D
:10000400000000000000000090000020C202002058
:10001400A9BDF9F5780300200000000000000000ED
:100024007803002090000020000000000000000081
:10003400900000200000000090000020000000005C
:1000440090000020900000209000002090000020EC
:10005400900000207808002090000020000000009C
:1000640090000020900000209000002090000020CC
:10007400DE0300209000002090000020900000206B
:1000840090000020900000209000002090000020AC
:1000940001A04111B7170040985F3AC6945F3247F8
:1000A400E39CE6FE324541018280B7F70700011167
:1000B400944B13078008F337078093F787083EC2F1
:1000C4000F100000B71700401308700523800705C0
:1000D400930580FA2380B7040F10000003C6B70409
:1000E4001376F60DA385C7042380070412467326EE
:1000F40006800F1000001376050255CEF3360780F4
:1001040093F6860836C40F10000023800705238069
:10011400B7040F100000B70614007D89558D88C7F9
:10012400010001000100010023800704A246F3A698
:1001340006800F10000073370780137787083AC6CC
:100144000F100000238007052380B7040F10000060
:100154000F1000003727004093061005A303D78033
:1001640023800704B247F3A707800F10000093070A
:100174008008F3B7078093F787083ECE0F1000007E
:10018400B7170040130770052380E704130780FAAC
:100194002380E7040F10000003C7B70413670708A0
:1001A400A385E70423800704F247F3A707800F1011
:1001B4000000056182801376050459C273360780F6
:1001C4001376860832C80F100000238007052380A9
:1001D400B7040F10000037061400130606047D89C7
:1001E400518D88C70100010001000100238007042C
:1001F4004246732606800F1000007337078013777A
:1002040087083ACA0F100000238007052380B7042B
:100214000F100000A54793F6F60F639EF600B7276C
:10022400004013073005A383E780B71700402380FD
:100234000704D2470DBFB727004013072005E5B7D1
:1002440073370780137787083ACC0F100000238098
:1002540007052380B7040F10000098471367070CA5
:1002640098C723800704E247FDBD0111814601467A
:100274008145114506CE612C93078008F3B70780AA
:1002840093F787083EC60F100000B7170040130706
:1002940070052380E704130780FA2380E7040F1016
:1002A400000003C76704136717002383E704238050
:1002B4000704B247F3A707800F100000F24005615E
:1002C40082804111814601468145114589241307E5
:1002D4008008F337078093F787083EC40F100000A7
:1002E400B7170040130670052380C704930680FAED
:1002F4002380D7040F100000FD552396B7022380F6
:100304000704A245F3A505800F100000733707808A
:10031400137787083AC60F1000002380C704238090
:10032400D7040F10000003C7670413671700238363
:10033400E70423800704B247F3A707800F100000E7
:1003440001A0BD473305F50201007D1575FD8280CE
:10035400411122C426C206C6AA840144631794002C
:10036400B240224492444101828005041305803E38
:100374004204C13F4180DDB79305000273A045806C
:1003840082457390153492402242B2424243D24392
:100394006244F244025592552256B2564257D257FD
:1003A4006258F25806499649264AB64A464BD64BF5
:1003B400664CF64C065D965D265EB65E465FD65F7D
:1003C4000961730020304111B7170040985F3AC6A5
:1003D400945F3247E39CE6FE324541018280B717C1
:1003E4000040130700032388E702854723ACF1800C
:1003F40073002030BD6601471386E181938606A60B
:1004040085458347060093F7F70F91C3828005075C
:1004140001000100E3F7E6FE238FB180DDB7BD667E
:1004240001471386C181938606A685458347060046
:1004340093F7F70F91C38280050701000100E3F7EA
:10044400E6FE238EB180DDB7411106C6EF0040738E
:10045400F5BF2303048015472303E480010023022E
:10046400A480828083076480E3CE07FE2303048094
:10047400828083076480E3CE07FE03454480828044
:1004840083076480E3CE07FE2302A48082804111A7
:1004940026C44AC24EC006C61377F50BAD47AA89D7
:1004A4002E8995446306F70019456537653F8D44E9
:1004B4004E854537FD59FD1463983401B240A2447A
:1004C4001249824941018280135509011375F50FC0
:1004D400453F2209CDB7011126CC06CEB70408004A
:1004E40051371545BD37713769372AC6A53F32459F
:1004F4009377150089EB136515001375F50FF2401A
:10050400E24405618280FD14E9FC0145CDBF3971E7
:1005140026DC4ADA4ED852D656D45AD25ED006DEFB
:1005240062CE66CCB7E700E07D5783AA070022C6F7
:1005340003AA470023A0E71823A2E718B71700402F
:10054400130770052380E704130780FA2380E70468
:1005540083C74704930B75FFB684E20793FBFB0F35
:100564008546AA892E8B328937240040E1870157BA
:1005740063FA76016308D500894613070002631302
:10058400D5000157D98F93F7F70FB71C004023828A
:10059400FC0411472303E4801305F00F5D3D094C6F
:1005A400D135636D7C11B7050700DA9537870700ED
:1005B400795563F2E504B3879500636EF702370B50
:1005C4000800A94733EB65016399F90689E481447E
:1005D400513D26850DA0DA850945553D050903459C
:1005E400F9FFFD14050B693D81C49377FB0FFDF7FB
:1005F400DD3569FD7D55B71700401307700523806D
:10060400E704130780FA2380E70403C74704418BF8
:100614002382E704F250B7E700E023A0571123A296
:100624004711E25432445259C259325AA25A125B07
:10063400825B724CE24C21618280A5476395F90686
:1006440085691309F00FB3069900B3742B01B694AE
:100654001349F9FFB3749900856B33796901416BD0
:100664009387F9FFB3F7270199E363FC340193D926
:100674004900C147E3E637FF99BF0569C1697D19A0
:10068400D9B71305800D63886901130500026384DB
:10069400790113051008CA85DD3B353D21DD4E99EE
:1006A400B3843441D9B7DA852D45D533CA94E300F0
:1006B40099F205097D3BA30FA9FED5BF9387F9FFE6
:1006C40093F7F70F6361FC0C83C71C04130730080E
:1006D400631FF70437070800636BEB04B3079B0041
:1006E400B706100063F5D704334BEB0089476393D7
:1006F400F9068980D549E38C04ECDA850945413B48
:1007040011090327C9FF91472320E480030764806C
:10071400E34E07FE23033481FD17EDFBFD14110B9B
:1007240081C49377FB0FE9FF7D3371F5E1B5B7170A
:10073400004003C75704B70708001377070219E3FB
:10074400B78707007955E378FBEA33079B00E3FF9B
:10075400E7F855B58547E382F9F2DA852D45053B7F
:100764009389F4FFE38504E6293393F7390091EB89
:10077400832604800327090093074900E39AE6E4EB
:100784003E89CE84F1BFB5476396F9001305900BFB
:10079400C93135BDB1471305B00AE38BF9FE99475A
:1007A4006391F904B7050800B365BB002D45C53155
:1007B40081448D4BA1497539639674018327048064
:1007C4002320F9008504E39834FF8327048013175A
:1007D4002B01635507002312F900D5BB2322F9002E
:1007E400FDB39D476399F90281451305B004453172
:1007F400BD442320090023220900FD599D3993F7A4
:100804007400CA9703C70700FD14398D2380A7001D
:10081400E39634FF6DBBA1476392F9046D398144BB
:10082400630D0B008D479304C0036308FB0093041E
:10083400000563048B01930440041375C507E308A2
:1008440095D81945393139390545213126850D3970
:1008540009453D314931E31C05D669BB914763998C
:10086400F90013056006F536F53E130590090DB73A
:10087400E38F09D4F154A9BB197106C212C416C678
:100884001AC81ECA22CC26CE2AD02ED232D436D6AC
:100894003AD83EDA42DC46DECAC0CEC2D2C4D6C69C
:1008A400DAC8DECAE2CCE6CEEAD0EED2F2D4F6D68C
:1008B400FAD8FEDA938501818841E7000500924069
:1008C4002242B2424243D2436244F2440255925518
:1008D4002256B2564257D2576258F25806499649A0
:1008E400264AB64A464BD64B664CF64C065D965D98
:1008F400265EB65E465FD65F096173002030B7E7B7
:1009040000E09843B706200023A0D718758F0F1076
:10091400000001C599C1814711E6B7E700E023A0B3
:10092400E7108280B386F50003C80600B306F5001D
:10093400850723800601E317F6FEC5B737E700E015
:100944001C43B70620002320D718F58F0F10000092
:1009540001C53307C50011E637E700E02320F7108F
:1009640082800505A30FB5FEE31DE5FEF5B737E765
:1009740000E01C43B70620002320D718F58F0F1082
:10098400000001C599C1014711EA37E700E02320BF
:10099400F710054582800507E309E6FE3308E50004
:1009A400B386E5000348080083C60600E305D8FEC5
:1009B40037E700E02320F71001458280AA8701452C
:1009C40081CF09CE3E96850703C7F7FF6317B700AB
:1009D400E39BC7FE05458280828001458280797150
:1009E400972700009387476222D4804306D626D2F5
:1009F4004AD04ECE52CC56CA5AC85EC669C037C910
:100A0400C901014B972900009389895F1309F937BC
:100A1400172A0000130A8A5F972A0000938A8A59CA
:100A240097240000938444638357240095E35C4433
:100A3400631D0B00172700002328F75C832BC400D9
:100A44002285EF00D03B5E84A9A82326FB00FDB7D6
:100A540083A7090082971C443307F5406375F500AA
:100A6400D8401D8F2A976361E9089727000023ABBC
:100A740007548355240003450400972000E0E780D1
:100A8400A0595C405844B9C70C44D040AE97BE86C8
:100A940063E4B70063E4C700B386C74014C4228B81
:100AA4003A8459F0972700009387C7509C4B094715
:100AB4006373F708F917172700002325F750B2507E
:100AC400225492540259F249624AD24A424BB24BDE
:100AD4004561828063170B009727000023A6E75225
:100AE400B1BF2326EB0099BF03274A021DCF63E160
:100AF400A7043385A7408347040085E31727000034
:100B0400034737525917B307A7003E85D44063E41F
:100B1400E70063E4D7003385D74083A70A016376EF
:100B2400F5009727000023AFA748228B404495BFC8
:100B3400D840BA977DBF9727000023A5074841B73F
:100B4400972700009387C7509C4385C3411106C66D
:100B540082979727000083C7874A89E79727000071
:100B640023A8074EB240410182809727000083C723
:100B7400074991E79727000023AC074C82808280C5
:100B8400411122C417240000130484451C4006C6E6
:100B940026C24AC091C782979727000023A2074420
:100BA4009727000083C7574D858B17290000130929
:100BB400694C89CF8347790019476312F710972747
:100BC4000000A38B074AF9295C4482971C4491C313
:100BD4008297972400009384E442984017260000EB
:100BE4000346563D9727000083C7C73C93961700DA
:100BF400BA9683D60600E5C29727000083C7873BD1
:100C040063E5C70E972700002386073A1C40639EBE
:100C14000714972700009387A73E9C436387071414
:100C24009727000093874743DC4317270000232BB3
:100C3400F73875339727000083C777446397071203
:100C44009727000083C7974391CF8347790093F791
:100C5400F70F89EB97270000A3820742973000E043
:100C6400E780C055972700009387473ADC53638E8B
:100C7400070E972700009387E7339C4BFDC78347F4
:100C8400790015476363F70E9727000083C707446D
:100C9400918BE1EF9727000083C76736F9E790400F
:100CA4009726000083C6163163C7D70C2244B2408E
:100CB400924402494101172300E06700035D834722
:100CC40079001D47E314F7F097270000A386073A3D
:100CD400D12E1C48DDBD850793F7F70F972600003A
:100CE400238AF62CE3E0C7F001BF86073E978355BD
:100CF4000700231007009727000023910730972748
:100D040000009387A72D9C43172500000345852ADF
:100D140013172500BA979C4382979727000083D71F
:100D2400E72D172700000347E72893C7F7FF7D8DBA
:100D34009317170098403E97835707005D8D231043
:100D4400A7009727000083C7E72691C785071727C1
:100D540000002301F726172700000347A72597273C
:100D6400000083C73725E37FF7E8B240224492446A
:100D740002494101828013971700329703570700F5
:100D84006DF7850715B737C700408326C720B70717
:100D9400FCFFFD17F58F2326F7200100010097279C
:100DA400000093872721C84F832787262326D7202F
:100DB4006A0593C7F7FF99835D8D8280EFF05FD852
:100DC4007300000000000000972200009382222399
:100DD4000383020023800200630F0300F325103411
:100DE4002EC0970500009385A5FD73901534EF0080
:100DF400E0507300203086DCEF004050E6508280E3
:100E04000000172700001307A7261443411122C42A
:100E14009C5E4AC006C6998326C2858B3A841729EC
:100E240000001309E947D1CB930700069CDE17277E
:100E34000000034787249307000897240000938445
:100E44006423631BF700832709009C4393F707047B
:100E5400172700002303F72283C7040093F707042E
:100E64009DC3972700009387A7199C4382979727D0
:100E7400000023AFA72083C7040093F7F70B1727BD
:100E840000002309F71E83C7440093F7070495E77E
:100E9400854717270000A301F71E972700009387B3
:100EA400E71F9C433707020098C7130700FC9726E7
:100EB40000002383E61C9848F8D318401C5F9183F4
:100EC400858B8DC31C5F93E707011CDF9727000008
:100ED4009387C71C9C4323A2070685471727000056
:100EE400230CF71883270900D8430583058B19C7FA
:100EF400D843759BD8C3D843799BD8C3B240224406
:100F04009244024941018280ED3D730020309317E1
:100F1400D50063D3070297270000938727189C43C3
:100F24007D57B8D7972700009387C708DC4F8507FC
:100F340017270000232EF708937785009DCB97276A
:100F4400000083C7471393E7170017270000230403
:100F5400F712930700F817270000230FF7109727BD
:100F640000009387E71098435C57F19B93E71700C1
:100F74005CD7937715008DC79727000083C7970F19
:100F840093E7170017270000A306F70E9727000022
:100F94009387070E98435C57F19B93E717005CD740
:100FA4009377650095CB93774500172700001307C7
:100FB400670CCDCB8347070093E717001727000082
:100FC400230AF70A972700009387870A98435C57F8
:100FD400F19B93E717005CD79317F50063D40702DE
:100FE4001727000003478720418B9727000093872A
:100FF400671851C383C7870793E7070217270000C1
:101004002306F71E9317E50063D70702972700000E
:1010140083C78706E207E18763D707008547172759
:101024000000230BF70497270000938727079C43AE
:101034003707020098C79317C50063D40702172720
:1010440000000347B71A058B972700009387871280
:1010540029C383C7970793E7270017270000A3072F
:10106400F71882808347370093E71700172700009B
:10107400A303F70081BF03C7870789463D8B630835
:10108400D70083C787070D47BD8BE39DE7F69147DC
:10109400B5B703C79707118B69D783C7970793E73A
:1010A400870065BF97270000938747FF94439727DE
:1010B4000000938727FC03C70700058B11CB9727F4
:1010C4000000238B07FA97270000A38707FA828082
:1010D40003C71700058B65F7F85271FF83C75700E4
:1010E400DDB7172700001307A7F803280700832795
:1010F40088039583858BADEF11C683270803BD83D1
:101104002300F6009DC61C43985B4607935767016E
:101114006356070093E707C0C207C183039706001D
:10112400C207C18709C7BA970947B3C7E702239023
:10113400F6008DCD8345150095C99727000083C718
:10114400C7F393F7070413879500894585C33A9538
:10115400834705000547994593F6F7066398E6002B
:10116400E207E187814563D30700B9452E85828074
:101174008545EDBF411122C406C626C217240000CE
:101184001304C4F145E114402E87FC52FDFF972758
:101194000000238207EE97270000938727E7D453A4
:1011A400BE8495C6B7E700E0B706200023A0D72881
:1011B400B7F700E083A607D1ED9A23A8D7D083A67A
:1011C40007D193E6860323A8D7D0730050103A853D
:1011D400B285973000E0E78020EB972700009387E3
:1011E40027E99C43B70680009843558F98C3D85786
:1011F400719BD8D797270000A38007E897270000A2
:10120400A38A07E61C40094798C3DC5085CF37F70B
:1012140000E0832707D193E787002328F7D07300E2
:1012240050100DA08D476315F50497270000938790
:1012340027E49C43B70680009843558F98C3D8573A
:10124400719BD8D71440172700001307A7E28347E0
:101254002700858B89EB83473700858BC9CF972778
:101264000000238B07E0B240224492444101828073
:101274008547E319F5FC97270000938727D9D453B2
:101284003E8795C6B7E700E0B706200023A0D7281D
:10129400B7F700E083A607D1ED9A23A8D7D083A699
:1012A40007D193E6860323A8D7D0730050101440C7
:1012B4008177FD17D046F18FDCC60F100000144073
:1012C400B70702009CC6930700F897250000238502
:1012D400F5DA972700009387A7D99C439C439D8305
:1012E400858B99C793076019FCD2D0C65C5339BF6C
:1012F4009307E01BD5BFFC52B9FBB5B79727000095
:101304009387C7D99C438847D847798D09C988C72B
:101314009387418203A3070063030300028382804F
:10132400172700001307C7D78346B7019727000084
:1013340083C7D7D94C4BB697FD8B33D7F500972687
:101344000000A38FF6D497260000A381F6D8058B5E
:1013540015EF172700000347B7D7B3F7E702814615
:1013640001471305000233D6E500058A1378F70F09
:1013740019CA6397D70097270000A38307D38280F5
:10138400850693F6F60F0507E31FA7FC82809727CF
:10139400000083C777CEC9EB97270000938747C621
:1013A4009C43411122C426C206C682979727000097
:1013B400938707D18047BE846303A40663688504CA
:1013C400018D135455009727000083C707CF636826
:1013D400F404B93798449727000083C707CE93963F
:1013E400570036971D8C9726000023AFE6CCE37296
:1013F400F4FE2244B240924417250000034555CA26
:1014040081454101173300E06700E3499727000055
:10141400938787C4DC433384874022955DB7B24009
:10142400224492444101828082809727000093875E
:1014340027BD9C43011122CC4AC806CE26CA4EC6FB
:101444008297972700009387A7C7804701496301C4
:10145400A406BE8463668506018D13545500972740
:10146400000083C787C51379F5016360F4049729E5
:101474000000938969BE6D3503A884009726000097
:1014840083C6A6C3139756004297158C3A8683A544
:101494004900636407016364B7003306B7409727C4
:1014A400000023A3C7C2E378D4FC160433692401E3
:1014B400F24062444A85D2444249B249056182807D
:1014C40097270000938747B9DC43338487402295EC
:1014D40069B797270000938767BC98438967938708
:1014E40007F47CD397270000938787C09C4383A687
:1014F4000709139656006358060083A60709139636
:101504006600634406007453FDF282804111B7E71C
:1015140000E022C480433707200006C6798C23A04C
:10152400E7180F10000011C199E5B7E700E023A008
:10153400871001457DA893073500C207C183F19B3D
:10154400C207C183130740036369F702172700002A
:101554001307C7C10843172700001307A7C0144384
:101564006392A60217270000130747AA185B55DFEA
:10157400C207DD8D054502974DBF172700001307ED
:10158400A7BEC9BF035765002DEB0357450063662B
:10159400F706B306F7402146637CD602032805000C
:1015A400938687001D8FAA9661171726000003569D
:1015B400C6A02392E60023A006012393060014C1CB
:1015C4002312F500130786FF972600002397E69E53
:1015D4002313B5009725000083D5259EB387F540D6
:1015E40017270000231BF79CB7E700E023A0871010
:1015F4002105B240224441018280084195B7B7E7F2
:1016040000E08C433707200023A0E718F98D0F1062
:10161400000001E523A0B71082809727000093877C
:10162400E7B403A30700972700009387A7B383A811
:10163400070081469A8763F2170D03A807006361C8
:10164400F50C636FA80A138787006368E50A03D65D
:101654006700216705076317E60003C7A182050732
:101664002385E182172500001305C59403D647009E
:101674000357650023930700329742074183172ECF
:101684000000231CEE92638C6702172300001303EF
:10169400A3AD032303006304F30203D366006310C2
:1016A400030283D7460023A0060121073E962106A4
:1016B4002392C600972700002391E790B6879843AA
:1016C400630D170397260000938606AA94426306C7
:1016D400D7028356670095E283D647000356470036
:1016E4001843A106B2962392D70098C38357650086
:1016F400A107172700002312F78CB7E700E019BFF2
:08170400BE86C2870DBF000084
:10170C00971100209381C186175100201301C10E3F
:10171C001305400097F5FF1F9385058E17060020D3
:10172C00130606FE63FAC5008322050023A05500AC
:10173C0011059105E3EAC5FE178500001305C51BCD
:10174C00970500209385C5FB1386018163FAC500BC
:10175C008322050023A0550011059105E3EAC5FE7F
:10176C001385018197250020938545B36377B500D8
:10177C00232005001105E36DB5FEFD42739002BCFC
:10178C008D4273904280930280087390023097F2DE
:10179C00FF1F9382628693E232007390523097124D
:1017AC0000009382425973901234730020303D43F1
:1017BC002A876373C3029377F700BDEFADE5937689
:1017CC0006FF3D8ABA960CC34CC30CC74CC74107E5
:1017DC00E36BD7FE11E28280B306C3408A06970200
:1017EC00000096966780A6002307B700A306B700F3
:1017FC002306B700A305B7002305B700A304B70061
:10180C002304B700A303B7002303B700A302B70058
:10181C002302B700A301B7002301B700A300B70050
:10182C002300B700828093F5F50F93968500D58D34
:10183C0093960501D58D61B793962700970200000A
:10184C0096968682E78086FA9680C1171D8F3E9603
:10185C00E374C3F8A5B7B717004003C77705137730
:10186C00E70FA38BE704130700F8A38DE7043D47AC
:10187C00238CE70413075003A38CE70403C7A705C5
:10188C001377D70F238DE7048280B717004003C767
:10189C00E7020D8941111377C70F498F9306800812
:1018AC00F3B6068093F6860836C60F100000930632
:1018BC0070052380D704930680FA2380D7040F1079
:1018CC0000002387E70223800704B247F3A70780B1
:1018DC000F1000004101828041112A83014E930EAA
:1018EC00407E130F0019930F400663E56E129308A8
:1018FC00001913034006B3781503854E0D4FA14F05
:10190C00337365020D891335150063EFBE1213088E
:10191C00F6FF794672984208135808013307C7023C
:10192C0013D61700BE0732976146B3F6C6021306EC
:10193C008070B386C6023697A166F58F42075D8F1D
:10194C00B716004083C7F60293F70708A303F1000C
:10195C000346710083C7F60293F70708E394C7FEAA
:10196C0083477100B716004093F7F70F638807128F
:10197C0093078008F3B7078093F787083EC40F10CE
:10198C000000B7170040930670052380D704930618
:10199C0080FA2380D7040F10000023AA070383C604
:1019AC00170393E60608A388D70223800704A247EF
:1019BC00F3A707800F1000001166B71700407D16C3
:1019CC00D45BC85F93854703A98EF18EF5FA930615
:1019DC008008F3B6068093F6860836C60F10000012
:1019EC00930670052380D704930680FA2380D704CE
:1019FC000F10000098C103C7170313670704A388CF
:101A0C00E70223800704B247F3A707800F100000FA
:101A1C00410182807D133368E3039308E016630E63
:101A2C0008003368F3039308D01663080800937812
:101A3C00330093B818009388D81633081E01131E70
:101A4C000801135E0E0155B56393E50305486386E3
:101A5C0008000148630303002A8871087298FD1579
:101A6C00131E0801C205135E0E01C18179BD13F866
:101A7C00150063F4BF007908D5B713381800E5BF1B
:101A8C0083C7F60293F70708A303F100034671001E
:101A9C0083C7F60293F70708E394C7FE83477100E8
:101AAC0093F7F70FF1DFE9B5317126DB66CB06DF73
:101ABC0022DD4AD94ED752D556D35AD15ECF62CDFC
:101ACC006AC96EC7AA8C02D8EF00F012AA849307D9
:101ADC008008F3B7078093F787083EDA0F100000F1
:101AEC00B7170040130770052380E704130780FA2B
:101AFC002380E7040F10000003C7F7021377770F5A
:101B0C00A387E70203C7F70213678700A387E702DF
:101B1C0023800704D257F3A707800F100000054558
:101B2C00AD339305803EB3C6B4029307007D2167A5
:101B3C0013065002BD69930BA004116B014A814A34
:101B4C0013048008130970057D1BB387F602B3C715
:101B5C00E702130780C133C7E4023EC0FD873ECCC9
:101B6C00938709A68549B399990193D939403307CD
:101B7C00C7023347F7023386C6023AC27D873AC49E
:101B8C00B38B76033347F602B3CBFB023AC67D87A1
:101B9C003AC813D7FB413ACE37470F001307072437
:101BAC00B3C4E4020567130707FA33179701B3842C
:101BBC00E40213070010B3C4E40213070008B38453
:101BCC00B40233C7E402B7140040938D0404B38904
:101BDC00D9023ACA7D873AD013078052B389E902F9
:101BEC00B3C9F90293D7F9413ED2F336048093F688
:101BFC00860836DC0F100000930770052380FD006B
:101C0C00930680FA2380DD000F10000083C6340594
:101C1C0093F6860FA389D40483C6340593E6160085
:101C2C00A389D40423800D00E256F3A606800F107E
:101C3C000000130C80FA116DF336048093F68608BD
:101C4C0036DE0F100000930770052380FD00238003
:101C5C008D010F10000083C63405216693E6060241
:101C6C00A389D40483D60405B3E6A6012398D4042F
:101C7C0083D60405D18E2398D40423800D00F2560C
:101C8C00F3A606800F10000083C6340593F60602F7
:101C9C006389061803C63405218A6DDE0818612F86
:101CAC007336048013768608B2C20F1000002380AE
:101CBC002D0123808D010F100000B717004003C6C3
:101CCC0037051376F60DA389C70403C637051366CB
:101CDC000602A389C70483D604052166B3E6A601D0
:101CEC002398D40483D60405D18E2398D40423805E
:101CFC000D009646F3A606800F10000083C634052F
:101D0C0093F606026386061483C63405A18AEDFE9B
:101D1C0097E0FF1FE7806037AA8636D497E0FF1F55
:101D2C00E780A036A256E30AD5FE83D604054255B9
:101D3C00B3E6A6012398D404392F83C63405A18AAF
:101D4C00EDDE03D6040583C6240582473376CB002B
:101D5C00B306DB0293D5F641B296B388F640E24760
:101D6C0033B8C6002E983308F840A247B3B6160114
:101D7C003308D84063C70701631DF800924763FA24
:101D8C001701C247634DF80E63950701B24763E82C
:101D9C00F80E894663E7560FF2469315180013D3D5
:101DAC00F8015E8613951800B365B30042D646D48D
:101DBC00EF50B05B3258850A93FAFA0F6347000173
:101DCC0063120838A258638F083613081500B3360F
:101DDC00A800B69513D6F5013298B336C800AE9666
:101DEC0013581800FE06B3E606017336048013760A
:101DFC008608B2C60F10000023802D0123808D01B0
:101E0C000F10000003D6C402B296C206C1822396FC
:101E1C00D40223800D00B646F3A606800F100000F6
:101E2C0021BDF336048093F68608B6C00F1000006F
:101E3C0023802D0123808D010F10000083C63405F3
:101E4C0093E60602A389D40423800D0086460DBDBB
:101E5C00F336048093F68608B6C40F100000238076
:101E6C002D0123808D010F10000083C6340593E6ED
:101E7C000602A389D40423800D00A646A5BDE38DDC
:101E8C000AF0F336048093F68608B6C80F100000EB
:101E9C00930680FA23802D012380DD000F100000B3
:101EAC0083C6340593F5FC0F93F6860FA389D404EF
:101EBC0083C63405CD8EA389D40423800D00C64679
:101ECC00F3A606800F100000130580FA03C6340534
:101EDC00938634051D8A6314962973360480137611
:101EEC008608B2CC0F100000130680FA23802D0157
:101EFC002380CD000F10000003C606001376F60DEC
:101F0C002380C60003C60600136606022380C600A3
:101F1C0083D604051166D18E2398D40483D6040588
:101F2C002166D18E2398D40423800D00E646F3A6B7
:101F3C0006800F100000130680FA83C6340593F652
:101F4C0006026388062483C63405138C3405A18AE3
:101F5C00FDDA0818CD21F336048093F68608B6D046
:101F6C000F100000930680FA23802D012380DD00E2
:101F7C000F10000083460C00116693F6F60D23003B
:101F8C00DC0083460C0093E606022300DC0083D6BB
:101F9C000405D18E2398D40483D604052166D18EF2
:101FAC002398D40423800D008656F3A606800F10C8
:101FBC000000130680FA83C6340593F60602638587
:101FCC00062083C63405A18AEDFE97E0FF1FE7804B
:101FDC00C00B2A8C97E0FF1FE780200BE30C85FFDA
:101FEC0083D6040511664255D18E2398D404A521BD
:101FFC0083C6340513863405A18AFDDAF3360480D2
:10200C0093F68608B6D40F100000930680FA23804E
:10201C002D012380DD000F1000008346060093F68F
:10202C00F60D2300D60023800D00A656F3A60680DD
:10203C000F10000083D6040503C62405D247B376DF
:10204C00DB003306CB021305800C9355F641369614
:10205C00330DF6408257333CD6002E9C3336A60106
:10206C00330CFC40330CCC403308850392564E861F
:10207C00B335A5033305A503C295EF50102F634666
:10208C008001631E0C16630C0D16130615003335F8
:10209C00A6002E959356F5013696B335D600AA9523
:1020AC009396F50105828585D18E6346B000639DBC
:1020BC00051A638B061A03D6C40215823305D600A3
:1020CC003336C500B2956348B000639105241306FE
:1020DC00F00F637DA622894663F3461593078008AB
:1020EC00F3B7078093F78708BED60F100000371799
:1020FC000040930770052300F704930780FA230030
:10210C00F7040F1000008356C70289678117D58F1B
:10211C00C207C1832316F70223000704B657F3A79F
:10212C0007800F100000FA506A54DA544A59BA5911
:10213C002A5A9A5A0A5BFA4B6A4CDA4C4A4DBA4DF7
:10214C00296182801308F5FF3335A800FD152E9503
:10215C001356F5013298B336C800AA9651B1F3362E
:10216C00048093F68608B6CA0F10000023802D0158
:10217C002380AD000F10000083C63405CD8EA389DB
:10218C00D40423800D00D646F3A606800F10000061
:10219C0035BBF336048093F68608B6CE0F100000DC
:1021AC0023802D012380CD000F10000083C6340541
:1021BC0093E60602A389D40423800D00F646F3A609
:1021CC0006800F10000095BBF336048093F686084A
:1021DC00B6D20F10000023802D012380CD000F10EC
:1021EC00000083C6340593E60602A389D404238039
:1021FC000D009656F3A606800F1000006DBB9306DB
:10220C00F5FF33B5A600FD152E959355F501AE9649
:10221C00B3B5B600AA951396F501858269B5F33668
:10222C00048093F68608B6D80F100000930680FA47
:10223C0023802D012380DD000F10000083D6C40203
:10224C000566011693F6F60FD18EC206C18223964F
:10225C00D40223800D00C656F3A606800F10000092
:10226C00050A137AFA0F51B233E6B60045C203D60B
:10227C00C4023305D0403338A000B305B040B38559
:10228C00054115826345B000D1E16371A60889460A
:10229C0063F0460593078008F3B7078093F7870828
:1022AC00BEDA0F100000B71700401307700523802B
:1022BC00E704130780FA2380E7040F10000003D70C
:1022CC00C7027D8B2396E70223800704D65781BD76
:1022DC00F336048093F68608B6DC0F1000009306E4
:1022EC0080FA23802D012380DD000F10000083D69F
:1022FC00C4020566011693F6F60FD18EC206C18292
:10230C002396D40223800D00E656B9B793078008B4
:10231C00F3B7078093F78708BEDE0F10000037175E
:10232C000040930770052300F704930780FA2300FD
:10233C00F7040F1000000356C70293975600B2978C
:10234C00C207C1832316F70223000704F657C1BB4B
:10235C00914763EEB702177700001307272B8A0506
:10236C00BA959C41BA978287B717004003A7470BD1
:10237C001345F5FF698F23AAE70A03A7070B698F9B
:10238C0023A8E70A03A7070A798D23A0A70A82804E
:10239C00B717004083A6470B1347F5FFF98E23AA06
:1023AC00D70A83A6070B558D23A8A70A83A6070A6D
:1023BC00758F23A0E70A8280B717004003A7470B4D
:1023CC00498F23AAE70A03A7070B1345F5FF45BF5F
:1023DC00B717004083A6470B1347F5FF758F23AA49
:1023EC00E70A03A7070A598D4DB7B717004003A793
:1023FC00470B498FEDB7B71700408847420541811D
:10240C009377050491EB9377F5013755E8011305A4
:10241C0005803345F50282809377050C1307000481
:10242C006397E7009377F50137459C1CCDB7216581
:10243C00130505D0828037E700E01C435443A18389
:10244C00E206D58F1CC1FD572320F7182322F7185D
:10245C000F100000828013178500B7E700E023A05F
:10246C00E710618123A2A7108280B7F700E08847AC
:10247C00CC478280814737370040A14663C4C700F0
:10248C00328582800345B740E38EA6FE3385F50086
:10249C000345050085072304A740CDB797F7FF1F19
:1024AC009387072D9C4317170020130727DF3E95B2
:1024BC00636EE50017470020130707146368A70035
:1024CC0017F7FF1F2326A72A3E858280FD57EDBFF5
:1024DC00411122C406C62A84393F2947B307E502B5
:1024EC00B2408D83B3D7870222449507B3D7E70256
:1024FC0037370040C207C1832316F7404101828061
:10250C00716541111305052006C6D937B737004050
:10251C00130770F82381E7400D47A381E7401307A9
:10252C000004A380E74005472387E740B240410100
:10253C00828011456FF04FD7411193962500AA85E3
:10254C002D4506C697E0FF1FE780E0FBB240014532
:10255C0041018280011122CC06CE3714004026CADC
:10256C004AC84EC652C483447405034AB405834911
:10257C00840503499405EFF00FAE8347A40593F44B
:10258C00F40F137AFA0F93E71700230DF40493F961
:10259C00F90F1379F90FB717004003C7A705058B7F
:1025AC006DFF03D5C705A38D4705238C3705A38C79
:1025BC002705A38B9704F2406244D2444249B249A6
:1025CC00224A0561828041119397050122C406C6F7
:1025DC00C1872E8463DD0700EF00300219C1EF00C4
:1025EC00A07C2165218DB24022444101828093F769
:1025FC00150013C51500E5FB93F7250013C5250041
:10260C00FDF39397250163D00702EF20C00A15371D
:10261C0037F60200130606E0896503C54181EF0019
:10262C0030280965C1B7939715010145E3DD07FA19
:10263C001775000013054503EF50705E1306006418
:10264C00916503C54181EF00B025116561BF2D7106
:10265C00232A9110FD74E98C232C8110232821113D
:10266C00232631112A84AE893289930600100A86FA
:10267C00A6852D45232E111097E0FF1FE780A0E8BB
:10268C001315440151810A0513962900CA850A9530
:10269C0097E0FF1FE7802026A68585660146254525
:1026AC0097E0FF1FE78020E60A86A68593060010B8
:1026BC00294597E0FF1FE78000E58320C111032423
:1026CC00811183244111032901118329C110156142
:1026DC008280B7F7070003C70701411106C622C461
:1026EC0026C24AC0A547631AF7009537B240224468
:1026FC009244024901454101828013942500AA8429
:10270C003289A286AA850146254597E0FF1FE780FE
:10271C0080DFA2864A86A685294597E0FF1FE780C1
:10272C0080DEE9B71D71494697750000938545EF2A
:10273C00177500001305450086CE97E0FF1FE78054
:10274C00802201E9177500001305C5EEEF50304DDE
:10275C0001A0B7F600E0795798CAFD57DCCA0567A7
:10276C00B7E700E023A0E7101306F00290C223A005
:10277C00E7180F10000017E7FF1F1307676423A863
:10278C00E1804157A38AE7401306000481450808FD
:10279C0097E0FF1FE780001A97F7FF1F93878700CA
:1027AC003EC8896793870780231AF1009D673ECC4A
:1027BC00B7070105938707103ECEED472310F102B2
:1027CC0085472301F10297070000938727D7BEC2E4
:1027DC0097070000938727F0BEC48567938757D16E
:1027EC002312F10297070000938767C83ED8B7F50C
:1027FC00070097070000938727D63EDC8146970792
:10280C000000938747D33000E10519453EDE97E081
:10281C00FF1FE78040CF18088147994630003E964D
:10282C000346060085070507A30BC700E398D7FEF0
:10283C00C24791C70357410185676373F70001A035
:10284C008307410263D7070493078008F3B7078017
:10285C0093F787083EC40F100000B717004013070A
:10286C0070052380E704130780FA2380E7040F1018
:10287C000000B847B706100013670718B8C798537D
:10288C00558F98D323800704A247F3A707800F1016
:10289C0000000808EF001047AA8501C91775000051
:1028AC00130585DAEF50702301A0F6402561828074
:1028BC00411117050000130545D106C622C4EF00CF
:1028CC00B040138441812300A4001928034504005F
:1028DC002244B24013060032896541016F00407CEE
:1028EC00797106D613078008F337078093F78708AA
:1028FC003EC20F100000B7170040930570052380EF
:10290C00B704130680FA2380C7040F10000083C697
:10291C00F70293F6A60FA387D702238007049246EB
:10292C00F3A606800F100000733707801377870813
:10293C003AC40F1000002380B7042380C7040F1083
:10294C00000003C7F70213672700A387E702238061
:10295C000704A247F3A707800F1000000545EFE01E
:10296C00DFF2C13E81470147814605468545130587
:10297C00407EEFE07FF668005146814597E0FF1FEF
:10298C00E78040FBB707C0A83EC8B787E8033ECA3C
:10299C00680097E7FF1F938787A23EC6EF00106081
:1029AC00B2504561828041119397050122C406C63D
:1029BC00C1872E8463DB0700892111C1F5262165AF
:1029CC00218DB24022444101828093F7150091CBB6
:1029DC001306803E894503C5D181D92513451400C2
:1029EC00CDB793F72500A9C7EF30404E17F5FF1F61
:1029FC00130505D1834705009306F00F1306F00F5E
:102A0C00FD17A94517F7FF1F230CF7CE238F018065
:102A1C00EF20701309E597E0FF1FE780209D130658
:102A2C00803E894503C5D181A52D1345240051BF96
:102A3C0093F7450095CBEF30604917F5FF1F130551
:102A4C0025CC834705009306F00F1306F00F85077E
:102A5C00A94517F7FF1F2305F7CA238E0180EF2026
:102A6C00D03513454400B1BF93F785008DCB177556
:102A7C000000130565C9EF50901A4145EF206053D3
:102A8C0083C7D18109C913064006A1453E85092D8E
:102A9C00134584003DB71306803E8945C5BF93F7A7
:102AAC0005010145E38F07F017750000130585C775
:102ABC00EF50F0161305800CEF30607A11C9130635
:102ACC000019C14503C5D181E12B13450401D5BDC6
:102ADC009306F00F1306F00FA94517F5FF1F13050A
:102AEC0025C2238E0180EF20502DC5B7C547630941
:102AFC00F50A411106C622C426C24AC063E1A706E4
:102B0C008D472E84B2846308F51091476304F51841
:102B1C008947631EF5048547238FF180CDE183053A
:102B2C00060017750000130565B41779000013092A
:102B3C00A9B5EF50807A83C51400177500001305F2
:102B4C0025B4EF50807983C71400636FF4042244DA
:102B5C00B24092440249294541016F50007CD14753
:102B6C00630AF51263EBA700C9476300F508B2408E
:102B7C002244924402494101828093072002630A55
:102B8C00F50693074002E314F5FE177500001305D4
:102B9C0065B4EF50D0088547238EF180C145A5A0C0
:102BAC008547238FF1808280B387840083C52700FB
:102BBC004A850504EF5060721374F40F69B793F7EC
:102BCC00150099C717750000130545ACEF5030057B
:102BDC00098851DC2244B240924402491775000026
:102BEC00130585AB41016F5090038547238FF1800E
:102BFC00BDBF854717750000130545AB238FF180CA
:102C0C00EF50F001A1452244B2409244024903C561
:102C1C00D1814101D5AEA9ED97D0FF1FE780A07FF0
:102C2C008385040017750000130585A9177900002A
:102C3C00130989A5EF50606A83C51400177500004D
:102C4C00130505A4EF50606983C714006367F40093
:102C5C002945EF50806C91457DB7B387840083C5BF
:102C6C0027004A850504EF5040671374F40FE9BF41
:102C7C0093F7150099C717750000130525A1EF50A0
:102C8C00007A098869D8177500001305E5A0EF5084
:102C9C000079D1B78547238EF180D1BD79711306A8
:102CAC00000281450A8506D622D497E0FF1FE780F3
:102CBC0060C817050000130545CFEF00F000B747BB
:102CCC007671938797123EC4B75755009387575523
:102CDC003EC6FD573ECA85472300F100970700000A
:102CEC00938707E11384D1813EC8ED572300A400DC
:102CFC00230EF1000A859147A30CF100EF20A04AA6
:102D0C00AA85177500001305259EEF50005D97D01E
:102D1C00FF1FE7804070177500001305259EEF50CC
:102D2C00007003450400A145C524B25022544561EE
:102D3C00828041111305800406C697D0FF1FE780DF
:102D4C004036371700408327870A8D45130500202E
:102D5C0093E707202324F70AEFF08FDFEFF04FFA09
:102D6C00177500001305C59CEF50606B17750000BC
:102D7C001305859CEF50A06A75321D3EEF309032E2
:102D8C00313F97D0FF1FE780A06B184183A785FFC9
:102D9C006319B7001CC1FD5723AC05FE238FF5FE4C
:102DAC008280232CF6FEC5BF411122C437E400E01B
:102DBC0026C204403707200006C6F98C2320E418ED
:102DCC000F10000009E9232094101545B24022444D
:102DDC009244410182800347E5FF9307F00F63069D
:102DEC00F700232094101145D5B797F0FF1FE7800B
:102DFC008080014523209410D1BF0111B7E700E07A
:102E0C004AC803A907004EC63707200006CE22CCBD
:102E1C0026CAAA893379E90023A0E7180F1000000D
:102E2C00970700209387071880438144014611E4DB
:102E3C0091E8A1654E85C92E05A08347E4FF6399EF
:102E4C00370385CCA685170500201305A515353F3E
:102E5C006DD0A1654E854D2AF2406244B7E700E083
:102E6C0023A0271126854249D244B24905618280AC
:102E7C0091E02286032484FF5DBFA284E5BF9707FF
:102E8C00002023A107128280970700209387071741
:102E9C009C4399E33E85828003D727006316B700D5
:102EAC0003C70700E308A7FEDC47E5B7A5C101117E
:102EBC0006CE22CC26CA8147C14633D7F540058BB6
:102ECC0029C312053E9531473305E502170700204B
:102EDC0013070717044305443314F4002EC64204A9
:102EEC004180AA949C40C8408297B24523A004001C
:102EFC0023A20400A18DF2406244D2442E850561C8
:102F0C0082808507E39BD7FA0144EDB72E8582803A
:102F1C00C9C1797122D406D626D24AD04ECE0144EC
:102F2C004147B3D78540858BA5C312053147229500
:102F3C003305E502970700209387871003A9070044
:102F4C008544B3948400C204C180BE892A990327A6
:102F5C00090011C7032549002EC60297B245314717
:102F6C003304E40283A709003E941C4489E7232020
:102F7C00090023220900B2502254A58D0259925403
:102F8C00F2492E85456182800504E31CE4F88144F6
:102F9C00DDB72E8582804111B7E700E022C4804363
:102FAC003707200006C626C2798C23A0E7180F101D
:102FBC000000970700209387A7049C5393844180BB
:102FCC0099C782979C403E9523A2A18039A0970770
:102FDC000020938727029C43EDF78840B7470300F6
:102FEC009387D73F3305F502B7A72600938737ECB5
:102FFC00B24092443E9523A2A180B7E700E023A003
:10300C008710224441018280B7E700E09843B7065D
:10301C00200023A0D718758F0F10000097060020F2
:10302C0083C696F86373D502170600201306C6FCF8
:10303C00931615000842369583560500D58D23103E
:10304C00B50023A0E7100145828023A0E7100D45B1
:10305C008280B7E700E09843B706200023A0D7187A
:10306C00758F0F1000009706002083C6F6F363756A
:10307C00D50217060020130626F8931615000842F1
:10308C0093C5F5FF369583560500F58D2310B500D5
:10309C0023A0E7100145828023A0E7100D45828014
:1030AC0079714AD037E900E026D283240900B707AA
:1030BC00200006D622D44ECE52CC56CA5AC85EC672
:1030CC00FD8C2320F9180F1000009707002083C7F0
:1030DC00B7ED637AF500970700209387A7F183ABD0
:1030EC00070063970B00B7E700E023A09710A9A097
:1030FC00170B0020130B8BF5832A4B00B74736FEBA
:10310C00938707C82E8A9705002083D5A5F4BE9A0D
:10311C00B387C5022A84B2898146B3B5C50213852B
:10312C000732B337F50013060064BE95EF407061AB
:10313C0063F0AA02232099100145B25022549254F4
:10314C000259F249624AD24A424BB24B45618280E3
:10315C00829B9705002083D5E5EFB38735032A8939
:10316C00130600648146B3B5350313850732B337B4
:10317C00F500BE95EF40F05CB30725013E890327AF
:10318C004B0063E4A70063E4E7003389E740D28592
:10319C002285DD3909C923242501B7E700E023A0E6
:1031AC009710054559BF936504F0C205C18141458F
:1031BC0097E0FF1FE780003519E9970700209387F8
:1031CC0027E49C5B8DD3A2851145829729BF970775
:1031DC0000209387A7E29C4385E79707002023AF45
:1031EC00A7E085472326050023242501231145014B
:1031FC0023008500A300F5002322050079BFBA87C0
:10320C00D84775FFC8C7F1BF0111B7E700E04AC83E
:10321C0003A9070022CC4EC63707200006CE26CACB
:10322C00AA892E843379E90023A0E7180F10000037
:10323C00A139AA8419C123110500A2854E85113D1F
:10324C009707002083C747D6639B37019707002059
:10325C0083D707DA5D8C97070020239B87D8B7E7C5
:10326C0000E023A02711014591E01945F24062448A
:10327C00D2444249B24905618280411122C426C21E
:10328C0017040020130484DC970400209384C4D119
:10329C0094485840970700209387C7D506C69C438F
:1032AC006393E60882975440B74736FE938707C866
:1032BC00B6973387A7003A856364F7006364D70039
:1032CC003305D74097040020938404DADC5081CF77
:1032DC0097070020938707E194433707CDFF7D17AD
:1032EC009C46F98F9CC611E14840970700209387B4
:1032FC0027D1DC53829719E5DC508DC3EF10A05217
:10330C00EF001042DC5099CB97070020938787DDA4
:10331C009843B70633001C47D58F1CC7B2402244D4
:10332C00924441018280829794485840B387A6000A
:10333C003E8563E4D700E3E7E7F83385E74059B708
:10334C00411106C69707002023A0A7D00295B240D2
:10335C009707002023A6A7C6014541018280994703
:10336C0063E9B7008A05970700209387A7C6BE9527
:10337C0088C182809707002023A6A7CC11C585475A
:10338C00170700202307F7C682804111714681453B
:10339C0017050020130505C406C69707002023AFA8
:1033AC0007C49707002023A107CA9707002023A36F
:1033BC0007C497070020238E07C29707002023A37A
:1033CC0007C897D0FF1FE780E0561306800281459F
:1033DC0017050020130545BD97D0FF1FE7808055CA
:1033EC00EF40803F97070020938787C103C5C70331
:1033FC0083C7D70385453E958D473305F5023905BF
:10340C001375F50F970700202381A7BA9947330549
:10341C00F5021305052497E0FF1FE780A00E1707A0
:10342C000020232FA7C051CD994717060020034633
:10343C00C6B73306F60281451306062497D0FF1F44
:10344C00E780404F97070020938787BF9C43938763
:10345C00072417070020232DF7B617070020034772
:10346C00C7B40A07BA97170700202327F7B8013CFF
:10347C000529970700209387A7B594439707002049
:10348C0083C797B2139727003697170600001306C9
:10349C0066A810C3138717001377F70F0A07369720
:1034AC00170600001306C6A010C313873700890740
:1034BC0093F7F70F8A0797050020A387E5AEB69719
:1034CC0090C3B240410182809707002083C7D7ADDB
:1034DC0017070020034767AD63F3E70217070020C7
:1034EC00130707AF18439386170017060020A30D88
:1034FC00D6AA93962700369708C33E8582809307F9
:10350C00F00FE5BF1C416384071641777D8FB7062A
:10351C0000208947631ED71403574500630A07141C
:10352C00411122C419462A849305F00F610506C681
:10353C0097D0FF1FE780004805478D476304E512CD
:10354C001C4481CB58589947630E0710185C630BC9
:10355C00071013060004814517050020130545AA22
:10356C0097D0FF1FE780003D13060004A2851705C6
:10357C0000201305E5A897D0FF1FE780C0379707F9
:10358C00002083D7A7A817070020130767A799E780
:10359C009307001097060020239AF6A697070020A1
:1035AC0083C7E7A691E78547970600202381F6A6F7
:1035BC009707002083D7C7A591E7ED479706002012
:1035CC002398F6A49707002083C777A491E7954723
:1035DC0097060020A38DF6A29707002083C767A348
:1035EC0091E78547970600202385F6A297070020D0
:1035FC0083C737A299E78347F70097060020A38A71
:10360C00F6A09707002083C7F7A081CF93F6370069
:10361C008983170600202303D6A297060020A38FC8
:10362C00F6A09707002083C7E79E91E7D54797063A
:10363C0000202381F69E8347640199E79307C0031A
:10364C00970600202389F69C1C5791C782979707F1
:10365C000020239FA794FD5717070020A30EF7AC5B
:10366C002D338147B24022443E85410182808947F7
:10367C003E85828001114EC6970900209389099DD1
:10368C0083A7090006CE22CC26CA4AC852C4829708
:10369C0013090064B335250303DA89008146528689
:1036AC0033052503EF40F009970700209387C78F58
:1036BC00804FAA8401456306940233858440636E6F
:1036CC00940003A5490052868146B335A9023305FF
:1036DC00A902EF401007018D26959707002023A122
:1036EC00978EF2406244D2444249B249224A056163
:1036FC008280011122CC06CE2A842EC6EFF0BF891F
:10370C00B245F240818D33A5A50222956244137512
:10371C00F50F05618280011122CC06CE2A842EC6BB
:10372C00EFF07F87B245F240818D33A5A50222953B
:10373C00624442054181056182809707002093878E
:10374C00278C985739CB411122C426C206C6BE8499
:10375C000297170700200357A7852A8415CBBA8731
:10376C006373A700AA87C207C183BA866373E40098
:10377C00A286C206C182958F5147635BF700DC5469
:10378C0091C38297EF0030739707002023928782B2
:10379C00B2402244924441018280828097070020EB
:1037AC0023A0078C9707002093878785DC5701118E
:1037BC0006CEAA8581C72AC68297B245C5C19C414F
:1037CC000545D1CBDC41C1CB83D78500C9C783D795
:1037DC00A500D1C35146170500201305258797D0A6
:1037EC00FF1FE78040119707002023870786970764
:1037FC0000209387A7859C4317F7FF1F232CF77E88
:10380C009707002083C737818DE7930780571705EB
:10381C000020035525843305F50237460F001306A7
:10382C00062481468145EF40C07197F7FF1FA384A2
:10383C00A77E17F7FF1F0347177EA54763E7E7002F
:10384C00A94717F7FF1FA308F77C170500001305FE
:10385C00A5E2FD340145F2400561828097F7FF1F18
:10386C0023A2077697D7FF1F9387675117F7FF1F80
:10387C00232EF77C7D5797F7FF1F23ABE77CB78789
:10388C003200938727A197F6FF1F23A5F67C97F7A5
:10389C00FF1F2383077CB7C7004023A4E72681BF03
:1038AC00011122CC17F4FF1F13048475084406CEB3
:1038BC0026CA4AC801E90545F2406244D24442494D
:1038CC00056182805C58E5DB185C75D77000854516
:1038DC0082971844B247E300F7FE9305E00417F50E
:1038EC00FF1F0355A57297E0FF1FE780A0C117F7D4
:1038FC00FF1F232BA76C61D117F6FF1F0356067110
:10390C009305F00F97D0FF1FE780C002814417F991
:10391C00FF1F1309696997F7FF1F83C7476F0326BA
:10392C00090263C1F402328597E0FF1FE780A0CC47
:10393C00014597F7FF1F23A9076897F7FF1F23A7D8
:10394C0007689DBF97F5FF1F83D5456CB38795021C
:10395C000844185C898185043E9508C2029765BFAE
:10396C00011156C297FAFF1F938A8A6983A78A00AE
:10397C0022CC4AC84EC606CE26CA52C45AC0AA8900
:10398C002E8432896386072203A74A03630907142E
:10399C001307F01F6367A71497F4FF1F9384C46089
:1039AC0003AA040263170A0A9565938515E017F5B7
:1039BC00FF1F0355A56597E0FF1FE780A0B497F79D
:1039CC00FF1F23A3A7602A86630B051083A74A0356
:1039DC0003A58A0097F5FF1F83D5456389818297DC
:1039EC0083A78A0003AA040217F7FF1F2320F75EA0
:1039FC008947639CF908C1476313F40E97F5FF1FC1
:103A0C0083D5C560938505FC9147B3C5F5028A053E
:103A1C00D29503C725009307A005631EF70A83D729
:103A2C000500639A370B4A852286910597D0FF1FB4
:103A3C00E78060EC9C505285639347150145F2403A
:103A4C006244D2444249B249224A924A024B05612D
:103A5C008280D850E38EE7F89565938525E017F5BD
:103A6C00FF1F0355A55A97E0FF1FE780A0A92A8ADC
:103A7C003DC52A8683A74A0303A58A0097F5FF1F35
:103A8C0083D5C55889818297A5B78D47639DF90069
:103A9C00C1476316F40497F5FF1F83D5255793850B
:103AAC0045FDF199B5B79147639AF9006319340351
:103ABC0097F5FF1F83D58555A115E5B79307001022
:103ACC00639FF900A14763EC870097F5FF1F83D52F
:103ADC00E553C115F9B79C5052856396470D29459E
:103AEC00B9BF1D6A568B6371450B130A05E0194764
:103AFC00334AEA0217F7FF1F0357475197FAFF1F84
:103B0C00938A8A4A330AEA023E9A83A74A02639549
:103B1C00470183A40A029DE49305E00417F5FF1FF7
:103B2C000355C54E97E0FF1FE780C09DAA8445D979
:103B3C0083274B0397F5FF1F83D5454D2A86898133
:103B4C005285829791451307A0058981939725008B
:103B5C00A69783C627006393E60483D60700639C6D
:103B6C00360385058A052286A6954A8597D0FF1FC0
:103B7C00E78060D883A70A02E38297EC268597E05A
:103B8C00FF1FE78040A75DBD21677917E369A7F4A4
:103B9C00330A454185B783C5370045BF83A70A0261
:103BAC00E38F97F2268597E0FF1FE780C0A405BF3F
:103BBC0097F7FF1F9387473F8C5395D191479306F7
:103BCC00A0058983139727002E9703462700E31837
:103BDC00D6F003560700631C360185078A07228638
:103BEC00BE954A8597D0FF1FE780E0D081BD834703
:103BFC003700C1BF97F7FF1F93878740984739C796
:103C0C009C5FA9C705476313E504411122C417F44F
:103C1C00FF1F13046439105006C60DC6485097F5A3
:103C2C00FF1F83D5A53E89818297085097E0FF1F1F
:103C3C00E780609C97F7FF1F23A8073897F7FF1FB3
:103C4C0023A60738B24022444101828082800111B0
:103C5C0017F7FF1F1307C73A4EC68329870022CCDC
:103C6C0026CA4AC806CE52C456C2AA842E843289A9
:103C7C00638B09201C5FBA8A99EB2945F240624498
:103C8C00D2444249B249224A924A056182805C5B25
:103C9C00EDD79307F01F63EAA70E97F9FF1F9389DF
:103CAC00A93083A70902B1CB03A58A0083A74902D7
:103CBC006395A70689476393F408C147E31FF4FA99
:103CCC0017F5FF1F035585349147130505FC334544
:103CDC00F5029317250003A509022286CA853E9595
:103CEC009307A0052301F50023109500110597D02B
:103CFC00FF1FE78040C0014551B79305E00417F55D
:103D0C00FF1F0355A53097D0FF1FE780A07F97F7C3
:103D1C00FF1F23ABA72A49F98DB783A74A0303A634
:103D2C00090297F5FF1F83D5652E8981829783A79A
:103D3C008A0017F7FF1F232BF728ADBF8D47639E13
:103D4C00F400C147E31BF4F217F5FF1F0355052CD4
:103D5C00130545FD9377C5FFBDBF9147639AF400EA
:103D6C00E31D94F017F5FF1F0355452A2115DDB708
:103D7C0093070010E393F4F0A147E3E087F017F505
:103D8C00FF1F0355A5284115F1B79D676379F5060B
:103D9C00930705E01947B3C7E70217F7FF1F03574F
:103DAC00E72617FAFF1F130A2A20B387E702BE99EA
:103DBC0083270A02A1CF83274A0263993707032579
:103DCC000A0291461308A0059305F00F93D726001D
:103DDC00139727002A9703462700631F060783586B
:103DEC0007000346370063959806B306D64063CFA9
:103DFC00860485078A072286CA853E95CDBD216734
:103E0C007917E36CA7E6B307F54041BF9305E004CF
:103E1C0017F5FF1F0355851F97D0FF1FE780806E96
:103E2C0097F7FF1F23A2A71A59F581BD83A74A0351
:103E3C0003260A0297F5FF1F83D5451D89814E8500
:103E4C00829797F7FF1F23A3371995BF2310B7004D
:103E5C0093160601C1829DBFB385860017F6FF1F1E
:103E6C000356C61A9105130606FCE368B6E0130662
:103E7C003400719A1106B2962301070123109700A2
:103E8C00A301D700BDB797F7FF1F9387E711945392
:103E9C00BE89A9C203A5090291461308A005930582
:103EAC00F00F93D72600139727002A970346270075
:103EBC00631806058358070003463700639898007B
:103ECC00B306D640E3D786F22310B700931606014B
:103EDC00C182C1BF8357C70017F5FF1F03452513C8
:103EEC009305E0043305F5024205418197D0FF1F8D
:103EFC00E780406197F7FF1F23A8A70C41FDB5BBD6
:103F0C0017F6FF1F0356861097F5FF1F83C5251064
:103F1C00B385C502338686001106E3E0C5D681BFA2
:103F2C0097F7FF1F938707149C43B7068000B705CC
:103F3C0000829843FD15558F98C31307F00F98DF37
:103F4C0013070005D8DBD857B7060080558FD8D794
:103F5C00D45717F7FF1F0347E70B13168701137787
:103F6C00F703ED8E6607558FD8D7618617F7FF1FBD
:103F7C00130747179306A003184363DCC600744F5E
:103F8C0037060007D18E74CF370702001307C720FE
:103F9C0099A09306200263DAC600744F370600F925
:103FAC007D16F18E37060005F1BFB70600F9938533
:103FBC00F6FF744F6945ED8E6355C5003706000357
:103FCC00D1B7B7050001CD8E74CFE35F06FA370782
:103FDC00020013070721D8DF984B137707FC1367F0
:103FEC00E70098CB37E700E0D147A309F70497D750
:103FFC00FF1F9387E7F093E717007CD78280931716
:10400C008501E18763C807061377050499472DE3FB
:10401C001307A0039147636DA7041307A0028D47F4
:10402C006368A7041307200289476363A7046947E1
:10403C008547636FA70251478147636BA7024947C6
:10404C00FD576367A7023947F5576363A7022947F2
:10405C00ED57636FA7001947E157636BA700114732
:10406C00D9576367A7000947B1576373A700C557B2
:10407C003E858280A547EDBF938701829C4399CBF7
:10408C00944BD04B9842518F98C294439C47984282
:10409C00D98F9CC297F7FF1F9387C7FC17F7FF1F99
:1040AC00034727FD17F6FF1F130686FE05489C43A2
:1040BC001307E7091442631E0503884313650508BB
:1040CC0088C3C8468177FD17E98FDCC60F10000046
:1040DC001C42B7060200AD0594C7930600F817F60C
:1040EC00FF1F2305D6F88A05BA958605ECD3C8C7F9
:1040FC00828088431375F5F788C3C8468177FD170E
:10410C00E98FDCC60F1000001C42B7060200A9059F
:10411C0094C7930600F817F6FF1F2309D6F48E05F3
:10412C00E1B7938701829C4389CFD44303A88700CE
:10413C0098423367070198C2D447DC4B9842D98F19
:10414C009CC297F7FF1F9387E7F105479C439505A2
:10415C00631EE50298438E051367070898C3984FB2
:10416C00137707C01367A71398CF13078007A3898A
:10417C00E7009385C50397F7FF1F23AFB7EE11C672
:10418C00060697F7FF1F23A9C7EE82809843920576
:10419C001377F7F798C3984F137707C01367271354
:1041AC0098CF1307F007A389E700E1B7411106C6C2
:1041BC0017F7FF1F0347C7EBA1476311F70497F7E6
:1041CC00FF1F83C727ED858B17F6FF1F0346B6EE3F
:1041DC0097F6FF1F83C626EEBDC797F7FF1F938781
:1041EC0067EDC8432DC1834515000905EF10E03C70
:1041FC0011C5854717F7FF1FA30CF7E617F7FF1F2D
:10420C00034707E79947631CF70097F7FF1F93874E
:10421C00A7F5FC5F83C7B70095CBEF30900017F77D
:10422C00FF1F0347E7E49D476312F70297F7FF1F51
:10423C00938787F383A7070983C7770081CBB240A5
:10424C0041016F308066814501454DB7B240410157
:10425C00828017F7FF1F1307A7E31C43B44B93F699
:10426C00F68FB4CB944393E6860094C39C438D8322
:10427C00858B89C7010001000100010097F7FF1F22
:10428C00938747DE94439C4293F7F7CF93E707104D
:10429C009CC297F7FF1F9387E7E49043B706CEFFC6
:1042AC00FD161C46F58F1CC61C4337070300B8CB04
:1042BC00938701829C4399CBD44390479842518F6A
:1042CC0098C2944BDC4B9842D98F9CC297F7FF1F36
:1042DC00A38F07D8828097F7FF1F938767DB9C43D8
:1042EC009C438D8B638207104111B7E700E04AC0F5
:1042FC0003A9070026C23707200006C622C4AA84D9
:10430C003379E90023A0E7180F10000017F7FF1FFF
:10431C000347F7D58D4717F4FF1F1304E4D4631B31
:10432C00F70097F7FF1F9387E7D69C4B0146814513
:10433C00454582971947639BE40497F7FF1F83C792
:10434C0037D399CB97F7FF1F83C787D26396970014
:10435C0097F7FF1FA38E07D083477400214763187C
:10436C00F7009307801017F7FF1F2313F7D097F769
:10437C00FF1F238007C8F13DB2402244B7E700E09D
:10438C0023A0271192440249410182809D47639FDB
:10439C00F40097F7FF1F83C7B7CDDDDF17F7FF1FBB
:1043AC00034707CD8D47E319F7FA5DB783467400D1
:1043BC00630BD700034774006387E70083477400DF
:1043CC002147E316F7FA97F7FF1F83C777CAC5F3A0
:1043DC008347740017F7FF1F230CF7C8854717F79F
:1043EC00FF1FA307F7C861B782805D7156DA97FA91
:1043FC00FF1F938A2AC703A70A0086C6A2C4A6C2B7
:10440C00CAC04EDE52DC1C4317FAFF1F130A8ACDBA
:10441C0097F9FF1F9389C9C793F7F7CF93E7071055
:10442C001CC383260A003707CEFF7D179C4637092D
:10443C00030013068002F98F9CC683A709002A8407
:10444C00AE8423A8270593051008280097C0FF1FEA
:10445C00E780404E3545413583A70A009376F41F1B
:10446C003706330023A40700984B13098915617F85
:10447C001367F70398CBF84FCE88130510F8137712
:10448C0007E0558FF8CF9843D685528813670708F5
:10449C0098C317F7FF1FA30B07BC83A6090017F7D8
:1044AC00FF1FA30307BC054798C29843A16293035F
:1044BC00401F1377F7CF98C398437D1F8549137717
:1044CC00F7CF1367072098C303270A00930F8002C6
:1044DC001C47D18F1CC723A826050147340011495E
:1044EC001353370026938347030013767700B3D713
:1044FC00C740858BDDCF9C41832E080023AC07047D
:10450C0023A0070603AECE02137EDEFF23A6CE0346
:10451C0083AE0700137EF70793FE0EF833EECE0141
:10452C0023A0C70103AE4702336E5E0023A2C7036C
:10453C0083AE0800014E23A27E0603AA070663077A
:10454C004E0303AE0703038A0600135EFE00620EE1
:10455C00135E8E416358CA0103AE0703135EFE005F
:10456C002380C60103AE0706137EFE0F03AA4E0678
:10457C0063060A0003AA8705E37F49FB03AE4702E3
:10458C00337EEE0123A2C70383870600635CF4002D
:10459C00034E03003396C9001346F6FF3376C6016B
:1045AC002300C3003E8663D3A7002A861315860119
:1045BC00618505071377F70F8506E313F7F3984129
:1045CC001C4B93F707FC93E7E7001CCBB640264443
:1045DC0096440649F259625AD25A6161828001119D
:1045EC0026CA4AC84EC6C1643709006AB70900AC6E
:1045FC0022CC52C406CE0544FD141309690E9389CE
:10460C00E90C130A000205E49305000F4145EFF095
:10461C004F8EB7B7006A4205938767CE5D8DF24027
:10462C006244D2444249B249224A05618280A6853D
:10463C000145EFF04F8E9317850013F7071033E504
:10464C00270119C333E5370181470147E145B356CB
:10465C00F50085073356F500858A058A6307D60071
:10466C0005071377F70F63E4E504E39247FF8147EF
:10467C001306F003ED463357F5001377F70305CB1C
:10468C006307C7028507E398D7FE13578500937716
:10469C00F50F1377F70FE394E7F81357050113772A
:1046AC00F70FE39EE7F613578501E39AE7F6050447
:1046BC001374F40F89BF17F7FF1F0347579B9147DC
:1046CC006308F70C97F7FF1F9387C7BC9843B7C7CE
:1046DC00004093870730631DF70A0111354506CE5C
:1046EC0022CC26CA4AC84EC6FD3697F9FF1F9389BD
:1046FC006997152AEF20601FEFF09F8283A70900AE
:10470C0017F9FF1F1309099EB7063300984397F456
:10471C00FF1F9384E497370403001367070898C3BB
:10472C0098431377F7CF98C398431377F7CF136752
:10473C00072098C3032709001C47D58F1CC79C4032
:10474C0013078455B8CBEF206032EF30E004EF2034
:10475C000025EF20002E03A709001C4393F7F7CF89
:10476C0093E707101CC3832609003707CEFF7D177C
:10477C009C46F2404249F98F9CC69C40B249D244B7
:10478C00A0CB624497F7FF1FA383078E056182803D
:10479C008280B7C700401387073097F6FF1F23AB03
:1047AC00E6AE13870720411197F6FF1F23A2E68E72
:1047BC009387071037D7004022C497F6FF1F23A317
:1047CC00E69217F4FF1F1304248A17F7FF1F232BFD
:1047DC00F7888547A303F40097F7FF1F9387478259
:1047EC009C4306C65CD0938707111CD097C7FF1F4C
:1047FC009387677123A2F1827D3DB7E700E0A305A3
:10480C00040003C7574113670708A38AE740B24067
:10481C0037071000224423A0E7103707200023A0FD
:10482C00E7104101828017E7FF1F1307677D03071D
:10483C00470197F7FF1F9387A7859C43635A07048B
:10484C0013074008D8CBF8C313076007D8CFF8C7B5
:10485C009306C008D4D31307E006D8D7D4DBD8DF2F
:10486C00130780072393E700F84BB7060080558F9A
:10487C00F8CB5147F8CB17E7FF1F1307E77E5853C8
:10488C00F8DF7D5798C737071F003D07D8C78280D0
:10489C001307C00845BF97F7FF1F9387A78498435A
:1048AC0017E6FF1F1306067F97E7FF1F9387877B8B
:1048BC0094438347160013F8F707D9C588425C4226
:1048CC00137505F83365050188C213F5150001C988
:1048DC0093F5050341456386A506938787C14C571D
:1048EC004168130808A093E525004CD7B3D50703FE
:1048FC00B70810FEFD18B3F70703FD8913954501A2
:10490C006C43B3F51501C98D6CC39305A00F370526
:10491C00FCFFAA07B3D7B7026C43E98DBA07B9837A
:10492C00CD8F7CC383470600898B99CB9C4293F730
:10493C00F70713E707049C4293F707F8D98F9CC23B
:10494C0082809387078361BF5C57F59B5CD79C4241
:10495C0093F707F8B3E707019CC2E9B7411106C604
:10496C0097E7FF1F238F0774EFF0BF8EB24001450E
:10497C0041018280411197E7FF1F83C7176F06C65D
:10498C00858B95C7E13F97E7FF1FA380076E97E7DD
:10499C00FF1F238D076C97E7FF1F9387A76F03A358
:1049AC000701014681450545B2404101028397E765
:1049BC00FF1F9387E76D9C43FC5385E3453797E7CF
:1049CC00FF1F2385076A97E7FF1F9387A76C03A335
:1049DC000701014681454545C1BF97E7FF1F9387F6
:1049EC00A76883C777000D476317F700854717E75C
:1049FC00FF1F2300F760B24041018280411197E70D
:104A0C00FF1F83C7876626C206C622C4858B97E420
:104A1C00FF1F9384E467F5CB97E7FF1F2387076499
:104A2C0097E7FF1F9387076C984317E5FF1F034514
:104A3C00656617E4FF1F1304E4655C578583858B5B
:104A4C00B1CB504093760503C145930786C163945F
:104A5C00B60093070683C165938505A0B3D6B7024C
:104A6C00370810FE7D18B3F7B702FD8A139646017E
:104A7C007443B3F60601D18E74C39306A00F3706A8
:104A8C00FCFFAA07B3D7D7027443F18EBA07B983D8
:104A9C00D58F7CC31185014697E5FF1F83C5456102
:104AAC000D89EFF00FE8170500001305E50AEFE09C
:104ABC007F8C98408177FD175447F58F5CC70F109A
:104ACC0000009840B70702001CC7930700F817E6D0
:104ADC00FF1F230DF65897E7FF1F9387A7589C439A
:104AEC009C439D83858B99CF930760190323040105
:104AFC007CD354C70146814505452244B2409244BB
:104B0C00410102839307E01BD5B79C40FC5385E31E
:104B1C00B13597E7FF1F238B075497E7FF1F938748
:104B2C00675703A30701014681454545F9B797E748
:104B3C00FF1F9387675383C777000D476317F700F1
:104B4C00854717E7FF1F2306F74AB24022449244D9
:104B5C0041018280011197E7FF1F83C7175106CED1
:104B6C0022CC858B17E7FF1F13070750C1CF3A8460
:104B7C00F533485097E7FF1FA389074E81458146BF
:104B8C001306F10097E7FF1F2382074E97C0FF1F04
:104B9C00E780A05493158501E1858DE15C50930667
:104BAC00F00F03C70700630BD70097E7FF1F83C7FE
:104BBC0077506385D7006303F700894597E7FF1F9C
:104BCC009387474D03870700634707005850834678
:104BDC00F1002300D7009C4B505093F5F50F09457D
:104BEC00829797E7FF1F83C7A74D898B81CB85459C
:104BFC0017E5FF1F0345054DEFE00FC1F24062447E
:104C0C000561828097E7FF1F938787489C43FC537D
:104C1C0085E3A93397E7FF1F238A074497E7FF1F14
:104C2C00938747479C4B0146814549458297F9B785
:104C3C00834777000D47E313F7FC854717E7FF1F02
:104C4C002309F73A65BF011106CE22CC26CA4AC801
:104C5C004EC652C456C217E4FF1F1304A443AE89B8
:104C6C00B28A2A8AEFF0EFDE03451400814517E97A
:104C7C00FF1F1309E9410531034504008345C401B5
:104C8C00014611850D89EFF0CFC997E7FF1F938778
:104C9C00673D9C4318448326090097E4FF1F9384C7
:104CAC00644498C758443706330017E4FF1F1304B5
:104CBC00A43BD8C3D842D28513671700D8C29843F7
:104CCC001377F7CF98C398431377F7CF1367072061
:104CDC0098C3984008501C470905D18F1CC7B707CB
:104CEC00030093878715BCCA230F55FFA30F35FF0D
:104CFC004E8697C0FF1FE78000C098405C4393F737
:104D0C00F7EF5CC30100010098405C4393E7071088
:104D1C005CC317E7FF1F1307E7398347E70093E7E7
:104D2C0047002307F700832709003707020023A257
:104D3C00070698C723020400130700042300E400AD
:104D4C00A3020400A3000400F2406244054798C388
:104D5C00D2444249B249224A924A05618280797111
:104D6C0022D452CC56CA06D626D24AD04ECE5AC8D7
:104D7C0093070008AA8A2E84328A6319F602BD446E
:104D8C0097C0FF1FE780E069E3FCA4FE97E7FF1FD5
:104D9C0083C7E7319607C117E3E4A7FE97E7FF1F28
:104DAC009387072F9C4313078007F8D317E9FF1F3E
:104DBC001309492B03270900814597E4FF1F9384AE
:104DCC00242D5C5797E9FF1F9389C92CF19B93E71E
:104DDC0017005CD717E5FF1F0345D52B6D3C8327C8
:104DEC00090097E5FF1F9385E52F3706330098439D
:104DFC001377F7CF98C398431377F7CF1367072030
:104E0C0098C398411447D18E14C7944037060300B9
:104E1C0013068625B0CA03A6890090C703A6C9004D
:104E2C00D0C3DC4293E71700DCC25C4393F7F7EF87
:104E3C005CC301000100984197E9FF1F9389892702
:104E4C0017EBFF1F130B4B225C4393E707105CC35C
:104E5C0083C7E90093E7270017E7FF1F2303F72613
:104E6C009307FAFF93F7F70F05476369F70C0325D0
:104E7C000B022286D68523004501A3008500090577
:104E8C0097C0FF1FE78020A703270B029C409315B8
:104E9C000401C181B8DF17E7FF1F2308071C17E7C0
:104EAC00FF1FA304071C17E7FF1F2301071C0D4757
:104EBC0097E6FF1FA38DE61A13070008631EEA0886
:104ECC00F8537DFF97E7FF1F9387C7129C432EC6AD
:104EDC00829703A78900B2456368E506198D83277D
:104EEC000B02370480000D811307F42F6205598DD6
:104EFC0088C317E5FF1F0345E51911850D89EFF0F0
:104F0C00AF97832709009843418F98C3D857719B5B
:104F1C00D8D797E7FF1FA38B071497E7FF1FA3852D
:104F2C0007149C40094798C3B2502254925402591A
:104F3C00F249624AD24A424B45618280930700088B
:104F4C00E314FAF4094489B797E7FF1F9387071016
:104F5C00DC43998F3E9561B717E5FF1F0345851319
:104F6C0011850D89EFF04F9183270900B70680005A
:104F7C0017150000130525729843558F98C3D85701
:104F8C00719BD8D7EFE00FBF97E7FF1F238A07125B
:104F9C0097E7FF1FA38C070C97E7FF1FA386070C4F
:104FAC009C40094798C383C7C90093F7F70FE5DF07
:104FBC00A5BF797106D622D426D24AD04ECE52CC79
:104FCC0056CA5AC897E7FF1F83C7A702639C0712EC
:104FDC002A843545EFF02FB013067100994513055F
:104FEC000010EFE0FF9765E119469305F00F1305EC
:104FFC00710097C0FF1FE780E09B85476305F50CA8
:10500C0089472300F100194697E5FF1F9385C500DA
:10501C001305110097C0FF1FE780E08D17E5FF1FF8
:10502C00034545FFEFE0BFFD97E4FF1F9384840821
:10503C0083C7F40017E9FF1F1309C9FBA306A100DE
:10504C0017E7FF1FA308F704DC48017A856A17E706
:10505C00FF1F2325F70483270900216B97E9FF1F06
:10506C0093890903829797E7FF1F23A1A7067D1A4F
:10507C00938AEAEB130B0BD003460100B9450A8562
:10508C00F93983C7C40009476315F70603470100C4
:10509C0085470144631EF70017E6FF1F13064603FE
:1050AC00994513050010EFE09FBA0545EFE09FB45A
:1050BC002285B250225492540259F249624AD24A81
:1050CC00424B456182808547194697E5FF1F9385C2
:1050DC00A5F4130511002300F10097C0FF1FE78012
:1050EC0080811946974500009385856613057100EC
:1050FC0015B719C87D141374F40F19E497E7FF1F43
:10510C00238007FC05446DB783460100094783A73C
:10511C000900639EE604D847B3764701D4C70F1045
:10512C00000083A70900B706020094C7930600F895
:10513C0017E6FF1F230CD6F29306E06EF4D3D8C704
:10514C0003A709007C53FDFF832709008297984C25
:10515C006363E504198DE371ABF2EFE00FDE832797
:10516C000900829797E7FF1F23A2A7F631B7D8470C
:10517C00B3764701D4C70F10000083A70900B70608
:10518C00020094C7930600F817E6FF1F2300D6EE23
:10519C0023A257076DB797E7FF1F938727EBDC43D5
:1051AC00998F3E954DBF1C49638D0718411122C440
:1051BC0006C626C2834705002A8493F7070489C7CD
:1051CC005C410945638E071013060002814517E503
:1051DC00FF1F130525EC97B0FF1FE780A075130682
:1051EC000002A28517E5FF1F1305C5EA97B0FF1F44
:1051FC00E780607097E7FF1F83C757EB97E4FF1FAB
:10520C00938444E999E79307800217E7FF1FA30FE4
:10521C00F7E897E7FF1F83C787E991E7A14717E7EF
:10522C00FF1F2306F7E897E7FF1F83C757E891E7AF
:10523C00C54717E7FF1FA30CF7E697E7FF1F83C7C8
:10524C0027E791E7ED5717E7FF1F2303F7E697E7EB
:10525C00FF1F83C7F7E591E7ED5717E7FF1FA3097A
:10526C00F7E48347040093F7070491CFDC4037B78A
:10527C0024001307F7E9636AF7069307500217E750
:10528C00FF1FA309F7E097E7FF1F9387A7E2C84327
:10529C0009C597C0FF1FE780003697E7FF1F23ADB6
:1052AC0007E083C70400858B85C317E5FF1F034503
:1052BC0035E093059004090597C0FF1FE780802413
:1052CC0097E7FF1F23AAA7DE83C71400014517E742
:1052DC00FF1FA308F7DE9C4417E7FF1F2326F7DE0A
:1052EC00B240224492444101828037072500930644
:1052FC00F74863EDF6003767DBFF13070793BA97A0
:10530C001307007DB3D7E702FD1795BF13070749B5
:10531C006395E700930760029DB737D72500130705
:10532C00F777636DF7003767DBFF13070793BA97BF
:10533C001307007DB3D7E702F91791B793077002F3
:10534C003DBF05458280797126D297E4FF1F938477
:10535C0064D49C4406D622D44AD04ECE52CC56CAE3
:10536C005AC85EC662C46388072417E7FF1F034749
:10537C0017D09547AA8B17EAFF1F130AEACE0945E7
:10538C00630EF71E0D452E84328B368CEFE0BFF486
:10539C0097E7FF1F83C7C7D2898B97EAFF1F938AB2
:1053AC006AD185CB3D4997C0FF1FE7808007E37C1E
:1053BC00A9FE97E7FF1F83C787CF9607C117E3E4C2
:1053CC00A7FE97E7FF1F9387A7CC9C431307800783
:1053DC00F8D397E9FF1F9389E9C803A709005C5725
:1053EC00F19B93E717005CD783C7CA00898B99E7B9
:1053FC0083C7040093F70704639E0718814517E5DC
:10540C00FF1F034535C9EFF00FC983A7090097E5C6
:10541C00FF1F938525CD37063300984317E9FF1FEF
:10542C00130909C71377F7CF98C398431377F7CFAE
:10543C001367072098C398411447D18E14C783264D
:10544C0009003706030013068625B0CA904490C79E
:10545C00D044D0C383C7040013F61700DC42F99B79
:10546C00D18FDCC25C4393F7F7EF5CC30100010002
:10547C0098415C4393E707105CC383C7EA0093E74A
:10548C00270017E7FF1F230EF7C297E7FF1F2383A1
:10549C0067C397E7FF1FA38F87C163800B1003259A
:1054AC000A022286DE8523006501A300850009051A
:1054BC0097B0FF1FE780204483270A0203270900C7
:1054CC003CDF97E7FF1F238207BA97E7FF1FA38EE6
:1054DC0007B897E7FF1F238B07B88D4797E6FF1F89
:1054EC00A387F6B883C7CA00898B9DCB7C53FDFF7D
:1054FC0097E7FF1F938707B09C43829703A78A0007
:10550C006363E50A198D83270A0209041374F40FE7
:10551C00A38087000D81A29723800700A380A7009A
:10552C0017E5FF1F034505B711850D89A285EFE02F
:10553C00BFB483C7040017F5FFFF1305654C858BBB
:10554C0089E717F5FFFF13052543EFD0BFE283A7CB
:10555C000900B706800001459843558F98C3D8576A
:10556C00719BD8D797E7FF1FA38207B097E7FF1F60
:10557C00A38C07AE83270900094798C3B250225465
:10558C0092540259F249624AD24A424BB24B224CD3
:10559C00456182808945C840BDB583270A02014414
:1055AC0023A0670111BF97E7FF1F938727AADC434E
:1055BC00998F3E9589BF0545D1B77971B7E700E062
:1055CC0026D284433707200006D622D44AD04ECEAA
:1055DC0052CC56CAF98C23A0E7180F10000017E420
:1055EC00FF1F130424AB184409EF23A097100545A3
:1055FC00B250225492540259F249624AD24A45613D
:10560C00828017E7FF1F130727B60327470A09C72E
:10561C0023A097100945E9BF83470400328AB68955
:10562C00858B2E86AA8ABDC717E9FF1F130989A887
:10563C008327490095E317E5FF1F034575A72EC681
:10564C0009059305900497C0FF1FE780A0EB324635
:10565C0097E7FF1F23A2A7A68327490099E7B7E77F
:10566C0000E023A097100D4561B717E7FF1F034714
:10567C0087A42380E70083274900638F0A0429CE7F
:10568C00A380C70003254900D685090597B0FF1FE5
:10569C00E780602617E7FF1F0347779D9547630C4C
:1056AC00F70097E7FF1F83C7A79C19476385E7009F
:1056BC000D476396E70297E7FF1F83C7779B99E730
:1056CC009307801017E7FF1F2314F79AB7E700E042
:1056DC0023A09710014529BFA380070065BF17E9D8
:1056EC00FF1F1309E99A8327090098430D8B0DC7F7
:1056FC0017E7FF1F230F078EB84B1377F78FB8CB25
:10570C0098431367870098C39C438D83858B89C707
:10571C000100010001000100832709003707020086
:10572C0097EAFF1F938A0A9923A2070698C797E75F
:10573C00FF1F238D079297E7FF1F83C76798918BF5
:10574C0089EB97E5FF1F83C5E59493F70504639CEC
:10575C000712814517E5FF1F0345D593EFF0AF9373
:10576C0017E5FF1F034505931185014697E5FF1FBC
:10577C0083C505940D89EFE0DF9A17E7FF1F130728
:10578C00678E14441C4394C75444D4C38326090025
:10579C00834704003A8413F61700DC42F99BD18F3F
:1057AC00DCC283A74A00BCDE97E7FF1FA3854791A5
:1057BC0097E7FF1F2381379183C7EA0093E74700E0
:1057CC0097E6FF1F238FF68E9307000497E6FF1FC3
:1057DC00238CF68897E7FF1F238A0788A14797E653
:1057EC00FF1FA386F68897E7FF1F938767819C5757
:1057FC0091CB13060064C14517E5FF1F0345858C4B
:10580C00EFD01F8A83270900170500001305053305
:10581C00DC43858B89E7170500001305C507EFD01E
:10582C007FB5184097E6FF1F9386C68B370633006B
:10583C001C4393F7F7CF1CC31C4393F7F7CF93E7A5
:10584C0007201CC39C429847518F0326090098C718
:10585C00370703001307871538CA17E7FF1FA3077D
:10586C00078017E7FF1FA3010780054718C2D8431D
:10587C001377F7EFD8C30100010098425C4393E71C
:10588C0007105CC3A1B593F5050393E515004840DB
:10589C00F1B5011197D7FF1F83C7177D06CE22CC18
:1058AC0026CA4AC8858B17D7FF1F1307E77B63856A
:1058BC00072497D7FF1FA389077A3A84A30701000F
:1058CC004453EFF0AF8997D7FF1F83C7677F918B46
:1058DC0097D6FF1F9386067E17D9FF1F1309897B66
:1058EC006389071A83C71400A69703C70700930799
:1058FC000008631AF7008347090093E7870017D75E
:10590C00FF1F2309F7785C4C0D47637EF710F117E6
:10591C0017D7FF1F2328F7765C4C984663ECE710EB
:10592C003387E74083C7140003C6C600A69783C716
:10593C001700620661868E07635F061063F3E7103B
:10594C001D8F9306000263EBE600584C636EF70E56
:10595C00B307F74017D7FF1F2322F776894517D5D2
:10596C00FF1F03452576EFD02FEA83470900A18B53
:10597C00638C071097D7FF1F938787719443930706
:10598C00800C1307F00FFCD21C5037063300014576
:10599C0098C397D7FF1F238A076C97D7FF1FA3863F
:1059AC00076C97D7FF1F2383076C97D7FF1FA38F15
:1059BC00076A97D7FF1F9387E76A98431C4393F7AF
:1059CC00F7CF1CC31C4393F7F7CF93E707201CC3F7
:1059DC0097D7FF1F93870771984397D5FF1F83C5F0
:1059EC00656B91851C478D89D18F1CC7B707030048
:1059FC0093878725BCCA054697B0FF1FE7800077C1
:105A0C0083470900DD9B17D7FF1F2305F76897D63F
:105A1C00FF1F83C6466A17D6FF1F0346D66981450A
:105A2C000145613EE1A017D7FF1F130727625843BA
:105A3C00BA97F1BD17D6FF1F130646615042B297B5
:105A4C00C5B53387E740F5BD97D6FF1F9386066033
:105A5C00D4423697F5BD584C6361F702B307F74053
:105A6C0017D7FF1F232CF76483C7C60093E70708DB
:105A7C0017D7FF1F2306F764D5B517D6FF1F1306DC
:105A8C00E65C50423297D9BF83C71400F917A38044
:105A9C00F4004850814681451306F10097B0FF1F72
:105AAC00E780A0635C50931585019306F00F03C744
:105ABC000700E185630CD70097D7FF1F83C7B75F3B
:105ACC006386D7006304F70093E52500830709007C
