:040000006F20000667
:10000400000000000000000090000020AA02002070
:10001400A9BDF9F560030020000000000000000005
:100024006003002090000020000000000000000099
:10003400900000200000000090000020000000005C
:1000440090000020900000209000002090000020EC
:10005400900000200C080020900000200000000008
:1000640090000020900000209000002090000020CC
:10007400C603002090000020900000209000002083
:1000840090000020900000209000002090000020AC
:1000940001A0B7F707000111944B13078008F33749
:1000A400078093F787083EC20F100000B71700407F
:1000B4001308700523800705930580FA2380B7048D
:1000C4000F10000003C6B7041376F60DA385C7040A
:1000D400238007041246732606800F10000013764F
:1000E400050255CEF336078093F6860836C40F1002
:1000F4000000238007052380B7040F100000B70613
:1001040014007D89558D88C701000100010001009C
:1001140023800704A246F3A606800F10000073375D
:100124000780137787083AC60F100000238007055D
:100134002380B7040F1000000F1000003727004081
:1001440093061005A303D78023800704B247F3A7BF
:1001540007800F10000093078008F3B7078093F718
:1001640087083ECE0F100000B71700401307700534
:100174002380E704130780FA2380E7040F100000AC
:1001840003C7B70413670708A385E704238007049C
:10019400F247F3A707800F100000056182801376F1
:1001A400050459C2733607801376860832C80F10C7
:1001B4000000238007052380B7040F1000003706D2
:1001C4001400130606047D89518D88C701000100BF
:1001D40001000100238007044246732606800F10A5
:1001E400000073370780137787083ACA0F1000009E
:1001F400238007052380B7040F100000A54793F65A
:10020400F60F639EF600B727004013073005A3835B
:10021400E780B717004023800704D2470DBFB727F4
:10022400004013072005E5B7733707801377870865
:100234003ACC0F100000238007052380B7040F1069
:10024400000098471367070C98C723800704E24708
:10025400FDBD0111814601468145114506CE91241B
:1002640093078008F3B7078093F787083EC60F10FB
:100274000000B7170040130770052380E704130735
:1002840080FA2380E7040F10000003C76704136794
:1002940017002383E70423800704B247F3A70780EA
:1002A4000F100000F2400561828041118146014631
:1002B40081451145FD2213078008F337078093F722
:1002C40087083EC40F100000B717004013067005DE
:1002D4002380C704930680FA2380D7040F100000FC
:1002E400FD552396B70223800704A245F3A5058094
:1002F4000F10000073370780137787083AC60F1072
:1003040000002380C7042380D7040F10000003C714
:100314006704136717002383E70423800704B247A5
:10032400F3A707800F10000001A0BD473305F502B5
:1003340001007D1575FD8280411122C426C206C6C6
:10034400AA84014463179400B240224492444101B8
:10035400828005041305803E4204C13F4180DDB71D
:100364009305000273A04580824573901534924032
:100374002242B2424243D2436244F244025592556D
:100384002256B2564257D2576258F25806499649F5
:10039400264AB64A464BD64B664CF64C065D965DED
:1003A400265EB65E465FD65F096173002030411158
:1003B400B7170040985F3AC6945F3247E39CE6FE65
:1003C400324541018280B717004013070003238898
:1003D400E702854723A4F18473002030411106C647
:1003E400EF008079F5BF2303048015472303E480DD
:1003F40001002302A480828083076480E3CE07FE89
:1004040023030480828083076480E3CE07FE0345D0
:100414004480828083076480E3CE07FE2302A480A5
:100424008280411126C44AC24EC006C61377F50B1A
:10043400AD47AA892E8995446306F70019456537A7
:10044400653F8D444E854537FD59FD14639834014D
:10045400B240A244124982494101828013550901E4
:100464001375F50F453F2209CDB7011126CC06CEF1
:10047400B704080051371545BD37713769372AC6A7
:10048400A53F32459377150089EB13651500137565
:10049400F50FF240E24405618280FD14E9FC014558
:1004A400CDBF397126DC4ADA4ED852D656D45AD248
:1004B4005ED006DE62CE66CCB7E700E07D5783AA45
:1004C400070022C603AA470023A0E71823A2E718BF
:1004D400B7170040130770052380E704130780FA59
:1004E4002380E70483C74704930B75FFB684E207B0
:1004F40093FBFB0F8546AA892E8B32893724004053
:10050400E187015763FA76016308D500894613072A
:1005140000026313D5000157D98F93F7F70FB71C67
:1005240000402382FC0411472303E4801305F00FE9
:100534005D3D094CD135636D7C11B7050700DA9533
:1005440037870700795563F2E504B3879500636E36
:10055400F702370B0800A94733EB65016399F906E5
:1005640089E48144513D26850DA0DA850945553D30
:1005740005090345F9FFFD14050B693D81C4937713
:10058400FB0FFDF7DD3569FD7D55B71700401307F7
:1005940070052380E704130780FA2380E70403C768
:1005A4004704418B2382E704F250B7E700E023A01D
:1005B400571123A24711E25432445259C259325AB4
:1005C400A25A125B825B724CE24C21618280A54785
:1005D4006395F90685691309F00FB3069900B3749E
:1005E4002B01B6941349F9FFB3749900856B3379E1
:1005F4006901416B9387F9FFB3F7270199E363FC22
:10060400340193D94900C147E3E637FF99BF05692F
:10061400C1697D19D9B71305800D63886901130574
:1006240000026384790113051008CA85DD3B353D5A
:1006340021DD4E99B3843441D9B7DA852D45D533BC
:10064400CA94E30099F205097D3BA30FA9FED5BF27
:100654009387F9FF93F7F70F6361FC0C83C71C04BE
:1006640013073008631FF70437070800636BEB04B4
:10067400B3079B00B706100063F5D704334BEB00B8
:1006840089476393F9068980D549E38C04ECDA85BC
:100694000945413B11090327C9FF91472320E48001
:1006A40003076480E34E07FE23033481FD17EDFB4B
:1006B400FD14110B81C49377FB0FE9FF7D3371F5B2
:1006C400E1B5B717004003C75704B707080013770D
:1006D400070219E3B78707007955E378FBEA330784
:1006E4009B00E3FFE7F855B58547E382F9F2DA8525
:1006F4002D45053B9389F4FFE38504E6293393F7FD
:10070400390091EB832604800327090093074900ED
:10071400E39AE6E43E89CE84F1BFB5476396F900D7
:100724001305900BC93135BDB1471305B00AE38BEE
:10073400F9FE99476391F904B7050800B365BB0056
:100744002D45C53181448D4BA1497539639674019A
:10075400832704802320F9008504E39834FF83274A
:10076400048013172B01635507002312F900D5BB2E
:100774002322F900FDB39D476399F90281451305CE
:10078400B0044531BD442320090023220900FD594A
:100794009D3993F77400CA9703C70700FD14398D78
:1007A4002380A700E39634FF6DBBA1476392F9044D
:1007B4006D398144630D0B008D479304C0036308B6
:1007C400FB009304000563048B0193044004137538
:1007D400C507E30895D8194539313939054521311B
:1007E40026850D3909453D314931E31C05D669BBE0
:1007F40091476399F90013056006F536F53E130534
:1008040090090DB7E38F09D4F154A9BB197106C23D
:1008140012C416C61AC81ECA22CC26CE2AD02ED27C
:1008240032D436D63AD83EDA42DC46DECAC0CEC22C
:10083400D2C4D6C6DAC8DECAE2CCE6CEEAD0EED25C
:10084400F2D4F6D6FAD8FEDA938501848841E7001B
:10085400050092402242B2424243D2436244F244EF
:10086400025592552256B2564257D2576258F25800
:1008740006499649264AB64A464BD64B664CF64C30
:10088400065D965D265EB65E465FD65F09617300BF
:100894002030B7E700E09843B706200023A0D7181C
:1008A400758F0F10000001C599C1814711E6B7E7A4
:1008B40000E023A0E7108280B386F50003C8060099
:1008C400B306F500850723800601E317F6FEC5B7D6
:1008D40037E700E01C43B70620002320D718F58F24
:1008E4000F10000019C191C111E637E700E0232081
:1008F400F7108280910503A7C5FF11057D16232EED
:10090400E5FEDDB737E700E01C43B70620002320EF
:10091400D718F58F0F10000001C53307C50011E685
:1009240037E700E02320F71082800505A30FB5FE0A
:10093400E31DE5FEF5B781473307F500030707001C
:1009440019E33E8582808507C5BF37E700E01C4375
:10095400B70620002320D718F58F0F10000001C51B
:1009640099C1014711EA37E700E02320F710054554
:1009740082800507E309E6FE3308E500B386E50057
:100984000348080083C60600E305D8FE37E700E005
:100994002320F710014582809307F6FFBE952A961F
:1009A4006313C5008280FD1583C715000505A30FD9
:1009B400F5FEFDB7AA87014581CF09CE3E9685078E
:1009C40003C7F7FF6317B700E39BC7FE05458280A3
:1009D4008280014582807971973700009387C7210F
:1009E40022D4804306D626D24AD04ECE52CC56CA02
:1009F4005AC85EC669C037C9C901014B973900009E
:100A04009389091F1309F937173A0000130A0A1FBB
:100A1400973A0000938A0A19973400009384C422F9
:100A24008357240095E35C44631D0B0017370000D3
:100A34002324F71C832BC4002285EF00B02F5E848F
:100A4400A9A82326FB00FDB783A7090082971C44AD
:100A54003307F5406375F500D8401D8F2A9763610D
:100A6400E9089737000023A707148355240003459A
:100A74000400973000E0E780C0DA5C405844B9C70E
:100A84000C44D040AE97BE8663E4B70063E4C7006D
:100A9400B386C74014C4228B3A8459F097370000B8
:100AA400938747109C4B09476373F708F917173767
:100AB40000002321F710B250225492540259F249F3
:100AC400624AD24A424BB24B4561828063170B00A3
:100AD4009737000023A2E712B1BF2326EB0099BF8A
:100AE40003274A021DCF63E1A7043385A740834748
:100AF400040085E3173700000347B7115917B307FC
:100B0400A7003E85D44063E4E70063E4D70033855F
:100B1400D74083A70A016376F5009737000023AB1B
:100B2400A708228B404495BFD840BA977DBF97371A
:100B3400000023A1070841B79737000093874710A7
:100B44009C4385C3411106C682979737000083C72B
:100B5400070A89E79737000023A4070EB240410132
:100B640082809737000083C7870891E79737000092
:100B740023A8070C82808280411122C4173400000C
:100B8400130404051C4006C626C24AC091C78297B6
:100B94009737000023AE07029737000083C7572416
:100BA400858B173900001309692389CF834779009E
:100BB40019476312F71097370000A3830722F9231C
:100BC4005C4482971C4491C38297973400009384B9
:100BD40064029840173600000346D6FC973700009D
:100BE40083C747FC93961700BA9683D60600E5C2DE
:100BF4009737000083C707FB63E5C70E97370000EC
:100C0400238207FA1C40639E0714973700009387DA
:100C140027FE9C4363870714973700009387C70216
:100C2400DC43173700002327F7F8753397370000A4
:100C340083C7771B639707129737000083C7971AF8
:100C440091CF8347790093F7F70F89EB973700002B
:100C5400A38A0718977001E0E780A0679737000020
:100C64009387C7F9DC53638E070E97370000938789
:100C740067F39C4BFDC78347790015476363F70E01
:100C84009737000083C7071B918BE1EF973700006C
:100C940083C7E7F5F9E790409736000083C696F0DE
:100CA40063C7D70C2244B24092440249410117332E
:100CB40000E067008318834779001D47E314F7F0C9
:100CC40097370000A38E0710D1211C48DDBD85078E
:100CD40093F7F70F973600002386F6ECE3E0C7F0AE
:100CE40001BF86073E9783550700231007009737F7
:100CF4000000239D07EE97370000938727ED9C4360
:100D040017350000034505EA13172500BA979C43DD
:100D140082979737000083D767ED173700000347A2
:100D240067E893C7F7FF7D8D9317170098403E97A8
:100D3400835707005D8D2310A7009737000083C7F2
:100D440067E691C7850717370000230DF7E41737C7
:100D54000000034727E59737000083C7B7E4E37F24
:100D6400F7E8B24022449244024941018280139739
:100D740017003297035707006DF7850715B737C774
:100D840000408326C720B707FCFFFD17F58F2326F5
:100D9400F72001000100973700009387A7E0C84FB0
:100DA400832787262326D7206A0593C7F7FF9983CD
:100DB4005D8D8280011122CC604126CA4AC84EC68C
:100DC40052C406CEAA841D4A130965058549BC444C
:100DD4006364F4000545B9A003C7D4008347440005
:100DE400631A470503C784026304F7000040C5B7CC
:100DF4000347540083C75405E31AF7FE1946CA850E
:100E0400130564009936E31335FF0347C40083C711
:100E14009402E31DF7FC0357E40083D7A402E3170D
:100E2400F7FC0145F2406244D2444249B249224AA5
:100E340005618280E31CF7FA0347540083C7540515
:100E4400E316F7FA1946CA8513056400FD3CE31F4F
:100E540035F9C1BF0111973700009387A70922CC48
:100E640003A4070C26CA06CE2AC42EC6854419E458
:100E74000145F2406244D244056182808347910077
:100E840003471400858B6304F7000044CDB719466B
:100E94009305A100130524004D3CE31895FE054578
:100EA400C9BF0000EFF05FC973000000000000003C
:100EB400973200009382A2D30383020023800200AE
:100EC400630F0300F32510342EC0970500009385AB
:100ED400A5FD73901534EF00E0507300203086DCDC
:100EE400EF004050E65082800000173700001307DF
:100EF400A7EE1443411122C49C5E4AC006C69983DE
:100F040026C2858B3A84173900001309A9ECD1CB8A
:100F1400930700069CDE17370000034787EC93070E
:100F2400000897340000938464EB631BF700832765
:100F340009009C4393F70704173700002303F7EADB
:100F440083C7040093F707049DC397370000938772
:100F540027CA9C4382979737000023AFA7E883C72B
:100F6400040093F7F70B173700002309F7E683C74C
:100F7400440093F7070495E7854717370000A3015A
:100F8400F7E6973700009387E7E79C4337070200AB
:100F940098C7130700FC973600002383E6E49848BB
:100FA400F8D318401C5F9183858B8DC31C5F93E736
:100FB40007011CDF973700009387C7E49C4323A2F3
:100FC4000706854717370000230CF7E0832709003D
:100FD400D8430583058B19C7D843759BD8C3D84319
:100FE400799BD8C3B2402244924402494101828091
:100FF400ED3D730020309317D50063D30702973774
:101004000000938727E09C437D57B8D797370000AB
:10101400938747B9DC4F8507173700002322F7BAB7
:10102400937785009DCB9737000083C747DB93E711
:101034001700173700002304F7DA930700F817376F
:101044000000230FF7D8973700009387E7D8984319
:101054005C57F19B93E717005CD7937715008DC716
:101064009737000083C797D793E717001737000017
:10107400A306F7D697370000938707D698435C57A3
:10108400F19B93E717005CD79377650095CB937733
:10109400450017370000130767D4CDCB83470700FB
:1010A40093E7170017370000230AF7D29737000099
:1010B400938787D298435C57F19B93E717005CD7DB
:1010C4009317F50063D4070217370000034707EAB4
:1010D400418B973700009387E7E151C383C78707A4
:1010E40093E70702173700002302F7E89317E50098
:1010F40063D707029737000083C787CEE207E187EB
:1011040063D70700854717370000230BF7CC9737C1
:101114000000938727CF9C433707020098C7931793
:10112400C50063D4070217370000034737E4058B73
:1011340097370000938707DC29C383C7970793E792
:10114400270017370000A303F7E2828083473700A4
:1011540093E7170017370000A303F7C881BF03C73D
:10116400870789463D8B6308D70083C787070D47E8
:10117400BD8BE39DE7F69147B5B703C79707118B7E
:1011840069D783C7970793E7870065BF9737000040
:10119400938747C7944397370000938727C403C7AF
:1011A4000700058B11CB97370000238B07C29737B5
:1011B4000000A38707C2828003C71700058B65F769
:1011C400F85271FF83C75700DDB7173700001307C4
:1011D400A7C003280700832788039583858BADEF79
:1011E40011C683270803BD832300F6009DC61C4354
:1011F400985B4607935767016356070093E707C058
:10120400C207C18303970600C207C18709C7BA97FB
:101214000947B3C7E7022390F6008DCD8345150037
:1012240095C99737000083C7C7BB93F70704138793
:101234009500894585C33A95834705000547994537
:1012440093F6F7066398E600E207E187814563D3E6
:101254000700B9452E8582808545EDBF411122C422
:1012640006C626C2173400001304C4B945E114406D
:101274002E87FC52FDFF97370000238207B697376D
:1012840000009387A797D453BE8495C6B7E700E0C0
:10129400B706200023A0D728B7F700E083A607D11C
:1012A400ED9A23A8D7D083A607D193E6860323A873
:1012B400D7D0730050103A85B285977001E0E7806B
:1012C400A0E897370000938727B19C43B7068000B6
:1012D4009843558F98C3D857719BD8D79737000038
:1012E400A38007B097370000A38A07AE1C400947C4
:1012F40098C3DC5085CF37F700E0832707D193E705
:1013040087002328F7D0730050100DA08D47631574
:10131400F50497370000938727AC9C43B7068000F9
:101324009843558F98C3D857719BD8D71440173713
:1013340000001307A7AA83472700858B89EB8347FF
:101344003700858BC9CF97370000238B07A8B2409D
:1013540022449244410182808547E319F5FC973782
:1013640000009387A789D4533E8795C6B7E700E06A
:10137400B706200023A0D728B7F700E083A607D13B
:10138400ED9A23A8D7D083A607D193E6860323A892
:10139400D7D07300501014408177FD17D046F18FD9
:1013A400DCC60F1000001440B70702009CC6930768
:1013B40000F8973500002385F5A29737000093873E
:1013C400A7A19C439C439D83858B99C79307601970
:1013D400FCD2D0C65C5339BF9307E01BD5BFFC5287
:1013E400B9FBB5B7973700009387C7A19C438847DB
:1013F400D847798D09C988C79387418E03A307000D
:101404006303030002838280973700009387879FDA
:1014140098438967938707F47CD3973700009387B1
:10142400A7A39C4383A60709139656006358060096
:1014340083A6070913966600634406007453FDF2FD
:1014440082804111B7E700E022C4804337072000BF
:1014540006C6798C23A0E7180F10000011C199E586
:10146400B7E700E023A0871001457DA89307350066
:10147400C207C183F19BC207C18313074003636999
:10148400F70217370000130767A608431737000051
:10149400130747A514436392A602172700001307F6
:1014A400E775185B55DFC207DD8D054502974DBF13
:1014B40017370000130747A3C9BF035765002DEB77
:1014C400035745006366F706B306F7402146637C7D
:1014D400D60203280500938687001D8FAA966117FC
:1014E400172600000356666C2392E60023A006012B
:1014F4002393060014C12312F500130786FF9726D1
:1015040000002394E66A2313B5009725000083D5D1
:10151400C569B387F540172700002318F768B7E7B4
:1015240000E023A087102105B240224441018280BB
:10153400084195B7B7E700E08C433707200023A0A4
:10154400E718F98D0F10000001E523A0B710828081
:10155400973700009387879903A307009737000004
:101564009387479883A8070081469A8763F2170DEB
:1015740003A807006361F50C636FA80A138787004B
:101584006368E50A03D66700216705076317E60069
:1015940003C7C18D0507238EE18C172500001305B1
:1015A400656003D64700035765002393070032970D
:1015B40042074183172E00002319EE5E638C6702F5
:1015C4001733000013034392032303006304F3025D
:1015D40003D366006310030283D7460023A00601E9
:1015E40021073E9621062392C60097270000239EDA
:1015F400E75AB6879843630D17039736000093861E
:10160400A68E94426306D7028356670095E283D67A
:101614004700035647001843A106B2962392D70009
:1016240098C383576500A10717270000231FF756A7
:10163400B7E700E019BFBE86C2870DBF0327851137
:10164400630407120346E50485466300061241114C
:1016540022C406C68347C5002A8493F7C70F23060E
:10166400F500834597000358C700139585016185EC
:1016740063700609635905060345870093F5F5076A
:10168400A304B70093E527006314D50093E517007E
:101694002306B4005C4389075CC3A30AC400032582
:1016A40004114C430905EFF0CF9E832784110346B0
:1016B4005401D44303D7C700B296118FD4C32396E1
:1016C400E7008947A30DF40003476403972700004C
:1016D40083C7E7536377F7048347C40093E707019D
:1016E4002306F4003DA893E717002306F40075B71A
:1016F4001376F80F635D05020345870093E5270021
:101704006314D50093E517002306B400A30AC400AC
:10171400A30407008547A30DF400832784119C4389
:10172400C5F7B2402244814636854101828093E761
:1017340017002306F400A30AC400A304070003252A
:1017440004114C4342860905EFF0AF9483278411BA
:1017540003465401D44303D7C700B296118FD4C3B0
:101764002396E7008D4745BF8546368582809737A7
:1017740000009387E78A9C43411122C406C6858BE7
:101784002A84C5EF4165130525F5971002E0E7802B
:10179400809245C58347A5002315F50083270412CD
:1017A400BDE72320A4122322A41285472311F404A5
:1017B400232005008347640154412316F5000347A1
:1017C400D4002304E5000547A304E500172700001F
:1017D4001307C76058531385170215811C437D15E1
:1017E4001375F50F9CC25C43DCC21C479CC65C4766
:1017F400DCC61C4B9CCA5C4BDCCA1C4F9CCE5C4FA9
:10180400DCCE19CD9386060213070702C1BF8327D6
:10181400441288C3835724042322A412850779B76A
:101824009727000083D7876D8507172700002317A4
:10183400F76CB2402244410182808347C4002309EB
:101844000400054593C747002306F400DDB783472A
:10185400850193F7E70FD5EF83479501DDEB034649
:1018640025018346C50009CA83456503172700007F
:101874000347F73963E7E50013F7060141CF014752
:1018840009C6C18A0357651C81C68356A51C3697B1
:1018940051C31307C712172500000355653BB33521
:1018A400A70237460F00411113060624814622C4BD
:1018B40026C206C67D543305A702973002E0E780AE
:1018C40080039727000083C7D734B384A7009727E2
:1018D40000009387276203A787098327070963F317
:1018E40087003E84184375FB972700009387473091
:1018F4009C43829781476364A400B307A440B24029
:101904002244B3B7970093C7170092443E85410120
:10191400828081473E858280972700009387874E87
:1019240098433C5BFDFF010001008280011122CC41
:101934004AC84EC606CE26CA52C456C25AC0034727
:10194400B50085472A842E89832905096311F72662
:1019540083570508835AC503172A0000130ACA2EA1
:10196400172B0000035BCB2E63FB57218346050135
:101974006397E62003278511631307200327450A8D
:10198400631F071E8346F5001D47639AE61E03473F
:101994001401B38AFA4013950A01418121CF937748
:1019A400170099CB8357E40583560404958F63D5B8
:1019B400A7001395070141819377270099CB83579B
:1019C400E41283560404958F63D5A7001395070189
:1019D40041819377070199CB8357C4148356040438
:1019E400958F63D5A700139507014181218B11E3DE
:1019F40011E105450357A4039307204E83244409AA
:101A04003305A70237460F00814613060624330523
:101A1400F5029727000083C7C71FB3549502B33557
:101A2400AB02BE94C204C180231394083305AB02F5
:101A3400973002E0E78020ECB307350133B5A70007
:101A44002E953E8783264A0019E163E4D700338745
:101A5400D740B3846403B7460F009387F623938675
:101A640006242320E900A697B3D7D702D69763624A
:101A7400F7101D8F2320E900972900009389491747
:101A840083A7090083240900829763E5A4123385A0
:101A9400A4406354050C83A7090082970327090017
:101AA4006361E512198D8357E40317270000035778
:101AB400271A8E07B387E7021307003293870719A3
:101AC400B3D7E70263E7A710374A0F00130BFA23D3
:101AD400972A0000938A4A17130A0A248357040496
:101AE40085072310F4048347041499E322855922BB
:101AF400228597F001E0E780804F75E98326040989
:101B04008327C40803A74A00B6973E8563E4D70039
:101B140063E4E7003385E7408347F40183546408B2
:101B24002328A4088507A30FF4009727000083D770
:101B34002712B384F402DA94B3D444036368950C93
:101B4400B304954083A7090023209900829763E397
:101B5400A40C3385A440E34305F89727000083C70A
:101B6400570B63E7A7089727000023A58742014581
:101B740041A083264A00B387F6403E97E5BD8354CF
:101B8400640837470F009307F723B3846403BE94B4
:101B940093070724B3D7F40263E7F900B387F94046
:101BA4002320F900D1BD03274A00BA99C5BF23A059
:101BB4003501D9B59727000093870709DC43BE9404
:101BC400F9B59727000093872708DC43998F3E9542
:101BD400D9BDA145228597F001E0E780203AA3050D
:101BE400A40297270000938767019C5B81EF7D55D2
:101BF400F2406244D2444249B249224A924A024BD8
:101C040005618280894515458297D5B7B30497400D
:101C1400AA940DBF83A74A00BE9425BF39C90111F8
:101C24006C0022CC06CE2A8411331DCDFD576302ED
:101C3400F502B2479725000083C5B5FD63EFB700F1
:101C440003459402B385B7402EC6972000E0E78091
:101C5400E0D4F24062440561828017270000130734
:101C6400A7FE5843BA97E9BF970002E0E780A0F5C2
:101C7400CDB78280797126D206D622D44AD04ECEF0
:101C840052CC56CA5AC85EC68347550303447513DB
:101C9400AA843E941374F40F9307400263F68700FA
:101CA4001304B4FD1374F40F03AA841383AAC41396
:101CB400A38B841222865285D685973002E0E78072
:101CC40000BE058915E503CBD41201498149337B54
:101CD4006403930B50024A865285D685973002E0FE
:101CE400E780E0BB058915C5639169031374F90F97
:101CF400238B8412B250225492540259F249624AFC
:101D0400D24A424BB24B456182808509E20993D99C
:101D140089410509E31179FDE1BF8327850903564C
:101D24000504797193D60701BD8EC206C182358E32
:101D34001357764093575640898B058B5D8F935785
:101D44003640918B5D8F93571640A18B5D8F93170F
:101D54001600C18B5D8F9317360093F707025D8FD2
:101D6400931756009355860093F707041E065D8F5C
:101D74001376F60F518F93D7554013D63540118AF9
:101D8400898BD18F13D67540D18F13D61540218AF4
:101D9400D18F13961500418AD18F1396350013768F
:101DA4000602D18F13965500137606049E05D18F33
:101DB40093F5F50FCD8FA20745465D8F3307C70214
:101DC40022D42A8426D252CC56CA032A8413832AC4
:101DD400C4135AC806D636974207418393577740AF
:101DE400135557400989858BC98F1355374011897D
:101DF400C98F135517402189C98F131517004189BD
:101E0400C98F1315370013750502C98F13155700B1
:101E140093558700137505041E07C98F1377F70FB1
:101E2400D98F13D5354013D755401189098B498F64
:101E340013D57540498F13D515402189498F1395C2
:101E440015004189498F1395350013750502498F93
:101E540013955500137505049E05498F93F5F50FE9
:101E64004D8F2207D98FB387C7024AD04ECE5EC6A4
:101E740062C4B697C207C18313D7774013D55740BE
:101E84000989058B498F13D537401189498F13D59B
:101E940017402189498F139517004189498F13955C
:101EA400370013750502498F1395570093D58700A2
:101EB400137505049E07498F93F7F70FD98F13D530
:101EC400354013D755401189098B498F13D5754077
:101ED400498F13D515402189498F139515004189E0
:101EE400498F1395350013750502498F13955500D5
:101EF400137505049E05498F93F5F50F4D8F220741
:101F0400D98FB387C702130650025285D685B69778
:101F1400BD8E93940601C18033F6C402137BF60F81
:101F2400973002E0E780A09705890DED8347D4122E
:101F340001498149B3849702130C5002C1804A8637
:101F44005285D685973002E0E78060950589937BBA
:101F5400F90F11C563863403850993F9F90F05094F
:101F6400E31F89FD230B6413B25022549254025987
:101F7400F249624AD24A424BB24B224C45618280BA
:101F84005E8BCDB70111972700009387A7F622CC6B
:101F940003A4870C26CA4AC84EC606CEAA841309CF
:101FA4002500854915C083C7140003473400858B79
:101FB4006304F700405CFDB71946930544004A8565
:101FC400EFE0BF98E31835FF2285F2406244D24423
:101FD4004249B249056182804111972700009387E5
:101FE40067F122C403A4870C26C24AC006C6930420
:101FF4002500054901E82285B24022449244024961
:1020040041018280A6851305A402972002E0E7809F
:102014000043E30225FF405CF1BF41119727000014
:10202400938747ED22C403A4870C26C24AC006C680
:1020340093042500054901E82285B24022449244D4
:10204400024941018280A6851305A401972002E07C
:0C205400E780E03EE30225FF405CF1BFA6
:102060009711002093810196174100201301817977
:102070001305400097E5FF1F9385C5F8170600205C
:10208000130606FE63FAC5008322050023A055004F
:1020900011059105E3EAC5FE1755020013054598A1
:1020A000970500209385C5FB1386018463FAC5005C
:1020B0008322050023A0550011059105E3EAC5FE22
:1020C0001385018497250020938505F76377B50074
:1020D000232005001105E36DB5FEFD42739002BC9F
:1020E0008D4273904280930280087390023097E291
:1020F000FF1F938222F193E23200739052309712C5
:1021000000009382421D73901234730020303D43CF
:102110002A876373C3029377F700BDEFADE593762B
:1021200006FF3D8ABA960CC34CC30CC74CC7410787
:10213000E36BD7FE11E28280B306C3408A069702A2
:10214000000096966780A6002307B700A306B70095
:102150002306B700A305B7002305B700A304B70003
:102160002304B700A303B7002303B700A302B700FB
:102170002302B700A301B7002301B700A300B700F3
:102180002300B700828093F5F50F93968500D58DD7
:1021900093960501D58D61B79396270097020000AD
:1021A00096968682E78086FA9680C1171D8F3E96A6
:1021B000E374C3F8A5B7B717004003C777051377D3
:1021C000E70FA38BE704130700F8A38DE7043D474F
:1021D000238CE70413075003A38CE70403C7A70568
:1021E0001377D70F238DE704828041112A83014E94
:1021F000930E407E130F0019930F400663E56E1295
:102200009308001913034006B3781503854E0D4F4C
:10221000A14F337365020D891335150063EFBE12AC
:102220001308F6FF794672984208135808013307DD
:10223000C70213D61700BE0732976146B3F6C6022F
:1022400013068070B386C6023697A166F58F4207E3
:102250005D8FB716004083C7F60293F70708A30304
:10226000F1000346710083C7F60293F70708E39471
:10227000C7FE83477100B716004093F7F70F6388D6
:10228000071293078008F3B7078093F787083EC4C7
:102290000F100000B7170040930670052380D70485
:1022A000930680FA2380D7040F10000023AA0703A7
:1022B00083C6170393E60608A388D7022380070482
:1022C000A247F3A707800F1000001166B717004060
:1022D0007D16D45BC85F93854703A98EF18EF5FA0E
:1022E00093068008F3B6068093F6860836C60F106C
:1022F0000000930670052380D704930680FA23809C
:10230000D7040F10000098C103C717031367070411
:10231000A388E70223800704B247F3A707800F10C2
:102320000000410182807D133368E3039308E016C7
:10233000630E08003368F3039308D016630808009F
:102340009378330093B818009388D81633081E0189
:10235000131E0801135E0E0155B56393E50305488E
:10236000638608000148630303002A887108729895
:10237000FD15131E0801C205135E0E01C18179BD52
:1023800013F8150063F4BF007908D5B713381800A7
:10239000E5BF83C7F60293F70708A303F1000346DE
:1023A000710083C7F60293F70708E394C7FE8347DB
:1023B000710093F7F70FF1DFE9B5914763EEB702CC
:1023C00017470200130707C28A05BA959C41BA97BE
:1023D0008287B717004003A7470B1345F5FF698FA6
:1023E00023AAE70A03A7070B698F23A8E70A03A715
:1023F000070A798D23A0A70A8280B717004083A619
:10240000470B1347F5FFF98E23AAD70A83A6070BBC
:10241000558D23A8A70A83A6070A758F23A0E70A6C
:102420008280B717004003A7470B498F23AAE70A0A
:1024300003A7070B1345F5FF45BFB717004083A659
:10244000470B1347F5FF758F23AAE70A03A7070A6F
:10245000598D4DB7B717004003A7470B498FEDB70C
:10246000B71700408847420541819377050491EBF7
:102470009377F5013755E801130505803345F502DB
:1024800082809377050C130700046397E700937726
:10249000F50137459C1CCDB72165130505D0828019
:1024A000B7F700E08847CC47828081473737004044
:1024B000A14663C4C700328582800345B740E38EDE
:1024C000A6FE3385F5000345050085072304A740D4
:1024D000CDB7970700209387E7CE9C4317270020AE
:1024E000130787B53E95636EE50017470020130775
:1024F00067116368A700170700202325A7CC3E8536
:102500008280FD57EDBF411122C406C62A84893F4F
:102510002947B307E502B2408D83B3D7870222442F
:102520009507B3D7E70237370040C207C1832316A8
:10253000F74041018280716541111305052006C6EF
:10254000D937B7370040130770F82381E7400D47AC
:10255000A381E74013070004A380E74005472387D2
:10256000E740B24041018280411193962500AA853F
:102570002D4506C697E0FF1FE780E0F2B240014517
:1025800041018280011122CC06CE3714004026CAB8
:102590004AC84EC652C483447405034AB4058349ED
:1025A00084050349940501398347A40593F4F40F86
:1025B000137AFA0F93E71700230DF40493F9F90F38
:1025C0001379F90FB717004003C7A705058B6DFFF7
:1025D00003D5C705A38D4705238C3705A38C270595
:1025E000A38B9704F2406244D2444249B249224A42
:1025F0000561828001119397050122CC06CEC18727
:102600002E8463DD0700EF00B06119C1EF00305583
:102610002165218DF24062440561828093F71500A7
:1026200013C51500E5FB93F7250013C52500FDF341
:102630009397250163D30706EF60C12DB7170040BC
:1026400003C7E702930680081377C70F13671700C5
:10265000F3B6068093F6860836C60F100000930680
:1026600070052380D704930680FA2380D7040F10C7
:1026700000002387E70223800704B247F3A70780FF
:102680000F10000037F60200130606E0896503C547
:102690004184EF1060380965ADBF9397150101457E
:1026A000E3DA07F61745020013058599EF20E27A71
:1026B00013060064916503C54184EF10E035116590
:1026C00089BF2D71232A9110FD74E98C232C811070
:1026D00023282111232631112A84AE8932899306B9
:1026E00000100A86A6852D45232E111097E0FF1FA6
:1026F000E78060DB1315440151810A051396290018
:10270000CA850A9597E0FF1FE780E018A6858566D1
:102710000146254597E0FF1FE780E0D80A86A68599
:1027200093060010294597E0FF1FE780C0D783205C
:10273000C11103248111832441110329011183292B
:10274000C11015618280B7F7070003C70701411167
:1027500006C622C426C24AC0A547631AF7009537A9
:10276000B2402244924402490145410182801394BF
:102770002500AA843289A286AA850146254597E0CC
:10278000FF1FE78040D2A2864A86A685294597E0AA
:10279000FF1FE78040D1E9B71D7149469745020008
:1027A0009385858517450200130545DA86CE97E0A7
:1027B000FF1FE780C01901E91745020013050585D1
:1027C000EF20A26901A0B7F600E0795798CAFD573B
:1027D000DCCA0567B7E700E023A0E7101306F002A4
:1027E00090C223A0E7180F10000017E7FF1F130780
:1027F000676C23A0E1844157A38AE74013060004D5
:102800008145080897E0FF1FE78000109707002028
:10281000938747B43EC8896793870780231AF100DE
:102820009D673ECCB7070105938707103ECEED4765
:102830002310F10285472301F102970700009387D7
:10284000E7D2BEC297070000938727F0BEC4856712
:10285000938757D12312F102B7F5070097070000BD
:10286000938747C43ED88146970700009387C7D116
:102870003000E10519453EDC97E0FF1FE780A0C26C
:1028800018088147994630003E96034606008507A2
:102890000507A30BC700E398D7FEC24791C70357AC
:1028A000410185676373F70001A08307410263D785
:1028B000070493078008F3B7078093F787083EC49F
:1028C0000F100000B7170040130770052380E704BE
:1028D000130780FA2380E7040F100000B847B706FB
:1028E000100013670718B8C79853558F98D32380E3
:1028F0000704A247F3A707800F1000000808EF1095
:10290000407CAA8501C91735020013056571EF20C7
:10291000224301A0F6402561828041111705000085
:10292000130585CD06C622C4EF10E07513844184DB
:102930002300A4001928034504002244B2401306D2
:102940000032896541016F10200D797106D6130799
:102950008008F337078093F787083EC20F10000006
:10296000B7170040930570052380B704130680FA5B
:102970002380C7040F10000083C6F70293F6D60F1A
:10298000A387D702238007049246F3A606800F1080
:10299000000073370780137787083AC40F100000D0
:1029A0002380B7042380C7040F10000003C7F70279
:1029B00013675700A387E70223800704A247F3A702
:1029C00007800F1000008147014781460546854575
:1029D0001305407EEFF07F8168005146814597E006
:1029E000FF1FE78060F2B707C0A83EC8B787320074
:1029F0003ECA680097E7FF1F9387A79B3EC6EF106C
:102A00003020B25045618280411117450200130504
:102A1000658906C6EF20C232B2408547A388F1849B
:102A200041018280B305B04017450200130545926D
:102A30006F200231011122CC36C606CE2E84EF0063
:102A40003041B24637460F00130606243376C502DE
:102A500091CAB285174502001305858E32C6EF2054
:102A6000222E324622856244F240814505616FB0D4
:102A7000010681E9B28517450200130565856F20BF
:102A8000222C8547639DF5001745020013058585B7
:102A900009C6174502001305E5856F20023C8947EA
:102AA0006398F500174502001305C5857DD6828021
:102AB0008D47E39EF5FE174502001305A58571DEDF
:102AC000B285174502001305258655BF011122CC9A
:102AD00026CA4AC84EC606CEAA892E8981441384C6
:102AE000019403C5218563E3A4060E050905CE857F
:102AF0002295194697E0FF1FE780E0D983C521851D
:102B000093973500850593F5F50FA2971386F5FF8A
:102B1000A38027010E0622962389B184624483484C
:102B20007600034866008347560003474600834605
:102B30003600F240D2444249B249034626001735D6
:102B400002001305A56605616F20821F939534006E
:102B500089051946A2954E8597E0FF1FE78020DF83
:102B600009E5850493F4F40FADBFF2406244D2440A
:102B70004249B2490561828079719397050126D255
:102B800006D622D44AD0C187AE8463D2072803C5B3
:102B90008185EF00F0082A8415C5034705009307D7
:102BA000000B631EF70083C7318509478345450045
:102BB000130985006380E7024A85EF60A00622853D
:102BC000EF00E0792165258DB250225492540259CC
:102BD000456182800D476381E50205476390E50208
:102BE00003478500631AF7028345C50017350200C5
:102BF0001305054AEF20C214A3880184034744004B
:102C00009307F007631AF700835584001735020015
:102C100013058549EF20C212834744002D4763877F
:102C2000E7020547639CE70203478400A946631156
:102C3000D7048345C400173502001305A547EF20CC
:102C40002210A388018483454400BDB75C44173536
:102C500002001305254783C50700D5B74D47639389
:102C6000E7021735020013052548EF20021FD1BFE8
:102C7000C9466316D7028345C40017350200130501
:102C8000654575BF6D47639CE7005C4417350200DE
:102C90001305854683C50700EF20820A6DB703C779
:102CA000018555D385466319D7081D47639CE70204
:102CB0008357840085CB5C44173502001305054516
:102CC00083C5170003C6370003C7070083C7270063
:102CD000A2052206D98D5D8E239BB184239AC184DF
:102CE000EF200206834744001D476395E70403472E
:102CF0001400E947E399E7F483D76185A9D7231442
:102D0000F1009387418583D7070009472388E18431
:102D10002315F100F977938727102316F100FD574B
:102D200003C681852C0003D5A1802307F100EF5055
:102D3000502011BF05477DBF89466313D70825473B
:102D4000639EE7028357840095CB584493050004A3
:102D500013060064834717000347070003C58185F6
:102D6000A207D98F2397F184EF00104B83D5E1841C
:102D7000173502001305453CEF10927C8347440051
:102D80002547639DE70203471400E947E39DE7EA0F
:102D90008D472388F1849387618583D707002314A7
:102DA000F1009387418583D707002315F10093072E
:102DB00020202316F100930790029DB70547F9B72D
:102DC0008D46E312D7E825476390E70483578400D4
:102DD00085CF584493050008130600648347170005
:102DE0000347070003C58185A207D98F2396F18485
:102DF000A3880184EF00504283D5C18417350200B7
:102E000013050536EF10D273238801842DBD93F787
:102E1000150085C317F6FF1F1306462597F5FF1FFC
:102E20009385052403C58185EF90712213C5140095
:102E300061BB93F7052081CB41657D15EFB0B13EB5
:102E400013C5042051B393F7850085CB8157231414
:102E5000F10023970184239A0184239B01848547F1
:102E600083C6818509462C0003D5A1802388F1847F
:102E7000EF50702A13C5840081BB93F7050191CFF1
:102E800013078025814613064006D14503D5A1804E
:102E9000EFB0F13813C5040105BB93F705029DC3DC
:102EA000014789460946814503D5A180EFB0F13934
:102EB000AA85173502001305252EEF10726813C579
:102EC000040219B393F70504CDC383C71185A5E7A1
:102ED00003C7C18083D7E18403D5A1802DC7231404
:102EE000F1000147854781460546C9452318010081
:102EF0002315F100EF50F00B2AC615CD9307A0055E
:102F00002300F50003C681852C0003D5A180EF5076
:102F1000D0020DE58547A388F18483C7C18093B7AC
:102F20001700130600649305000403C581852386FA
:102F3000F180EF00702E13C5040479B1C945280053
:102F4000EF50504ECDBF03C681852C002314F100F5
:102F5000EF50E07D6DF18547A388F18483C7C18080
:102F600093B717002386F180F9B793F70508ADC32F
:102F700083C71185B1E79387C18483D707000147D1
:102F800081462314F10009468947C94503D5A1802C
:102F9000231801002315F100EF50B0012AC60DC11E
:102FA000054423008500B24703C681852C00A38019
:102FB000070003D5A180EF50407811E5A3888184F4
:102FC00013C5040811B1C9452800EF50B045CDBF65
:102FD00093F705100145E38907BE03D5A180EFB043
:102FE000D1230566130606969305001003C5818557
:102FF000EF00902213C50410C1BE83472500494746
:10300000636DF720173702001307C7038A07BA97C3
:103010009C43011122CC06CE26CA4AC8BA972A84FC
:103020008287173502001305E51AEF1012632C0092
:1030300013054030EFB0B10A2C000545EF40905722
:10304000014685450D45EF909109F2406244D24416
:1030500042490561828005041374F40F83C72185FA
:10306000637DF4009315340089051946A6954A85B9
:1030700097E0FF1FE780A08D79DD83C72185639CE2
:103080008702173502001305E515EF10125D0146A2
:1030900085450D4523890184EF90710417350200A1
:1030A00013054513EF10725B4DB7014493840194EF
:1030B0001389418065B7173502001305E513EF103A
:1030C000D259938701940E04930624003E9403463C
:1030D0001400BE9681450145EF90017D05661306FB
:1030E00006C89305002003C58185EF00F01217354F
:1030F0000200130565117DB79305002003C5818586
:10310000EF00F03B83451400BDE50355A40089475B
:10311000A389F1842395A1808547A388F18403C600
:103120008185DD472C002314F100EF502056130653
:103130000064A14503C58185EF00100E05641306E8
:1031400004C8C14503C58185EF00100D1306049620
:103150009305000203C58185EF00100C1306049649
:103160009305001003C58185EF00100B1735020091
:103170001305850A05BF173502001305E50AEF1090
:10318000323C173502001305E504EF10124D238978
:1031900001847DB5A3890184F9579305001003C507
:1031A00081852395F18023880184239701842389D5
:1031B0000184A3880184EF009030834564001735B3
:1031C000020013052508EF10B2371735020013056A
:1031D0006500EF109248ADB517350200130545089C
:1031E000D1B5173502001305A5086DBD17350200CE
:1031F00013050509EF10724603C72185A547E3E6CD
:10320000E7E48345440013055400EFF03F8C35BDDF
:10321000173502001305C507F1BF8280011117059C
:1032200000001305A59506CE22CCEF00D0651384CF
:10323000818585652300A400938505960945EF20C7
:103240003043D1451D45EF20B0429305400621454E
:10325000EF201042930540063545EF207041854729
:103260000D47700091451305F0402304F100A304BD
:10327000F1002305E100A305F10002C6EFA0912CA7
:103280003000854513058040EFA0D12B1306910037
:10329000854513059040EFA0F12A1306A10085454E
:1032A0001305A040EFA0112A1306B10085451305B0
:1032B000D040EFA03129EF60204803450400EF50D3
:1032C0001074034504008545992BF2406244056162
:1032D000828041111305800406C697D0FF1FE78046
:1032E00080DB371700408327870A8D4513050020B0
:1032F00093E707202324F70AEFF02F8CEFF0AFA31A
:103300001735020013058524EF103235EFF0CFC8D2
:10331000EFF0AFE0EFB0A173113797D0FF1FE78058
:10332000200C23AC05FE1C4191E7010001000CC1FB
:103330008280BA8703A787FF6DFF23ACB7FE828028
:10334000184183A785FF6319B7001CC1FD5723AC43
:1033500005FE238FF5FE8280232CF6FEC5BF4111AA
:1033600022C437E400E026C204403707200006C626
:10337000F98C2320E4180F10000009E92320941091
:103380001545B24022449244410182800347E5FF43
:103390009307F00F6306F700232094101145D5B76B
:1033A00097E0FF1FE7804019014523209410D1BF0B
:1033B000411126C2B7E400E04AC003A90400B707E0
:1033C000200006C622C43379F90023A0F4180F1098
:1033D000000009E923A02411B2402244924402498A
:1033E000410182809565938505D0C98D2A84210588
:1033F000C2054205C181418197E0FF1FE780A0041B
:1034000001CDFD5723200500231285002303F5007D
:1034100023A024112105C9B723A0241101456DBFA4
:103420000111B7E700E04AC803A907004EC63707F5
:10343000200006CE22CC26CAAA893379E90023A02F
:10344000E7180F10000097070020938767758043E7
:103450008144014619E499E8A1654E85EF003006E4
:1034600005A08347E4FF6399370385CCA68517053C
:1034700000201305E572E93565D0A1654E85452626
:10348000F2406244B7E700E023A0271126854249B5
:10349000D244B2490561828091E02286032484FFF0
:1034A00055BFA284E5BF41114AC037E900E022C4FC
:1034B000032409003707200006C626C2798C232082
:1034C000E9180F10000089E523208910154515A083
:1034D000AA849707002083C7F76C2E8563F5F40054
:1034E000894763EE9700A53DB7E700E023A087106A
:1034F0000D45B2402244924402494101828083A793
:1035000085FF99E703C7E5FF9307F00F6308F7000E
:10351000B935B7E700E023A087104DBF238F95FE94
:10352000170500201305C567ED3BA1652685C52C51
:1035300001452320891075BF9707002023A2076645
:103540008280970700209387276B9C4399E33E85F1
:10355000828003D727006316B70003C70700E3087C
:10356000A7FEDC47E5B7A5C1011106CE22CC26CACD
:103570008147C14633D7F540058B29C312053E95D7
:1035800031473305E502170700201307276B044373
:1035900005443314F4002EC642044180AA949C4092
:1035A000C8408297B24523A0040023A20400A18D45
:1035B000F2406244D2442E85056182808507E39BF8
:1035C000D7FA0144EDB72E858280C9C1797122D422
:1035D00006D626D24AD04ECE01444147B3D78540C5
:1035E000858BA5C31205314722953305E502970760
:1035F00000209387A76403A907008544B39484003F
:10360000C204C180BE892A990327090011C7032576
:1036100049002EC60297B24531473304E40283A71E
:1036200009003E941C4489E7232009002322090055
:10363000B2502254A58D02599254F2492E8545610B
:1036400082800504E31CE4F88144DDB72E85828086
:103650004111B7E700E022C480433707200006C6C7
:1036600026C2798C23A0E7180F10000097070020CE
:103670009387C7589C539384018199C782979C4034
:103680003E9523A8A18039A097070020938747562D
:103690009C43EDF78840B74703009387D73F330536
:1036A000F502B7A72600938737ECB24092443E95C7
:1036B00023A8A180B7E700E023A08710224441019E
:1036C000828001112E8626CAAA841315060193054D
:1036D000F004418122CC06CE32C697E0FF1FE7807E
:1036E00080D62A8419C53246A68597D0FF1FE78069
:1036F000801A2285F2406244D24405618280797149
:10370000B7E700E022D480433708200006D626D24F
:103710004AD04ECE52CC56CA5AC85EC662C4337422
:10372000040123A007190F10000005E123A0871052
:103730000945B250225492540259F249624AD24A7F
:10374000424BB24B224C4561828097070020938701
:10375000274A9C43BA8A368AB28B2E8BAA898297D3
:10376000970700209387874D98433E898144B1464F
:10377000C147338CD40233068701104241EAC16548
:10378000938505F0414597E0FF1FE780C0CB05E139
:1037900097070020938787469C5B81C78145114529
:1037A0008297B7E700E023A087102D4559B7970708
:1037B000002093876744984331E79707002023ADA3
:1037C000A742230005008327090005473317970008
:1037D00023260500232475012311E500232255012A
:1037E000E29723A0370123A2670123A457016304B2
:1037F0000A0023009A00B7E700E023A087100145E4
:103800000DBF3E875C47F5FF48C765BF8504E3925F
:10381000F4F6B7E700E023A08710214519BFB7E70A
:1038200000E09843B706200023A0D718758F0F102B
:1038300000009706002083C6F6366373D50217068C
:1038400000201306263B9316150008423695835632
:103850000500D58D2310B50023A0E7100145828017
:1038600023A0E7100D458280B7E700E09843B70634
:10387000200023A0D718758F0F1000009706002096
:1038800083C656326375D5021706002013068636A6
:1038900093161500084293C5F5FF3695835605002B
:1038A000F58D2310B50023A0E7100145828023A0E9
:1038B000E7100D458280011137E700E026CA044376
:1038C000B706200006CE22CC4AC84EC652C4F58C9C
:1038D0002320D7180F100000130705FF1377F70FE9
:1038E000FD4763E5E70AB146B306D5029707002016
:1038F0009387C734984336971C43C9CB135A450066
:1039000005443D893315A4001314050141802E8917
:103910005285A2853D31AA8929CDA2855285A93734
:10392000970700209387C72C9C4382979707002016
:1039300083D70732338727032A848146130600641E
:10394000B3B7270313050732B335E500BE95EF0083
:10395000527AB3078500970600209386E62E3E87AD
:10396000D44263E4A70063E4D7003387D74023A49D
:10397000E900B7E700E023A097100145F240624458
:10398000D2444249B249224A05618280B7E700E049
:1039900023A097100945DDB70111B7E700E026CA5B
:1039A00084433707200006CE22CC4AC84EC6F98C85
:1039B00023A0E7180F100000BD4763E9A7043147B3
:1039C0003307E50297070020938747279C43BA9760
:1039D0009C438DCF05443314A400420441802E89BA
:1039E0000145A285B93EAA8911C5A2850145AD3D13
:1039F00023A42901B7E700E023A097100145F24076
:103A00006244D2444249B24905618280B7E700E08E
:103A100023A097100945E5B779714AD037E900E04E
:103A200026D283240900B707200006D622D44ECE22
:103A300052CC56CA5AC85EC6FD8C2320F9180F1006
:103A400000009707002083C7F715637AF5009707F2
:103A500000209387E71983AB070063970B00B7E754
:103A600000E023A09710A9A0170B0020130BCB1D7B
:103A7000832A4B00B74736FE938707C82E8A9705DF
:103A8000002083D5E51CBE9AB387C5022A84B2897B
:103A90008146B3B5C50213850732B337F500130667
:103AA0000064BE95EF00F26463F0AA02232099102F
:103AB0000145B250225492540259F249624AD24A04
:103AC000424BB24B45618280829B9705002083D593
:103AD0002518B38735032A89130600648146B3B5D8
:103AE000350313850732B337F500BE95EF007260DA
:103AF000B30725013E8903274B0063E4A70063E475
:103B0000E7003389E740D2852285253C09C9232473
:103B10002501B7E700E023A09710054559BF93653D
:103B200004F0C205C181414597E0FF1FE780A091E5
:103B300019E9970700209387670C9C5B8DD3A285BA
:103B40001145829729BF970700209387E70A9C4376
:103B500085E79707002023A1A70A854723260500AC
:103B6000232425012311450123008500A300F5002E
:103B70002322050079BFBA87D84775FFC8C7F1BFB0
:103B80007971B7E700E026D284433707200006D6D4
:103B900022D44AD04ECE52CC56CA5AC85EC662C44F
:103BA00066C26AC0F98C23A0E7180F1000003DC15F
:103BB0004144B689B28A2E8A2A89B14C170B00205B
:103BC000130BCB07054D130C0003B30B9403032712
:103BD0000B005E971C43A5E39375F400B315BD007D
:103BE00013554440C2055686C1811375F50F2D3516
:103BF00039C183270B00DE9723A0270123A24701A9
:103C00006384090023808900B7E700E023A09710B0
:103C1000014521A023A097100945B2502254925487
:103C20000259F249624AD24A424BB24B224C924C60
:103C3000024D456182800504E31984F9B7E700E08D
:103C400023A097102145D1BF0111B7E700E026CA94
:103C5000844322CC4AC84EC63707200006CE2A84A9
:103C6000AE893289F98C23A0E7180F1000006D335C
:103C70002285CE85EFF0FF8C2A8405C597050020AC
:103C800083D505FDB3872503130600648146B3B5CC
:103C9000250313850732B337F500BE95EF00724553
:103CA00048C013351400F2406244B7E700E023A097
:103CB00097104249D244B2490E0505618280011134
:103CC000B7E700E04AC803A9070022CC4EC6370771
:103CD000200006CE26CAAA892E843379E90023A0C3
:103CE000E7180F100000EFF0DF85AA8419C1231137
:103CF0000500A2854E858D3E9707002083C787EA81
:103D0000639B37019707002083D747EE5D8C9707A9
:103D10000020239D87ECB7E700E023A02711014591
:103D200091E01945F2406244D2444249B2490561EA
:103D3000828001114AC837E900E022CC032409003F
:103D4000B707200006CE26CA4EC67D8C2320F91860
:103D50000F1000009307F00263E8A704B147B30413
:103D6000F50297090020938969ED83A70900A697BA
:103D70009C439DCB9377F5008545B395F500C2052F
:103D8000C18111812D3F83A709000145A69723A07A
:103D9000070023A2070023208910F2406244D24486
:103DA0004249B24905618280B7E700E023A087104D
:103DB0000945E5B74111B7E700E026C2844306C6CE
:103DC00022C437072000F98C23A0E7180F10000049
:103DD000EFF02FF719E90145B2402244B7E700E0C0
:103DE00023A0971092444101828097070020938777
:103DF00027E09C4300458297970700209387C7E4FC
:103E00006368A402D843B74636FE938606C83305D6
:103E1000A4403697E371E5FC13070064B335E5026F
:103E200003D6870081463305E502EF00922C6DB77B
:103E3000D8433A94C1BF411122C426C217040020BE
:103E4000130484E0970400209384C4D59448584018
:103E5000970700209387C7D906C69C436393E6085B
:103E600082975440B74736FE938707C8B697338783
:103E7000A7003A856364F7006364D7003305D74031
:103E800097040020938484F5DC5081CF97070020AD
:103E9000938787FC94433707CDFF7D179C46F98FA6
:103EA0009CC611E1484097070020938727D5DC5333
:103EB000829719E5DC508DC3EF40113DEF30F17E64
:103EC000DC5099CB97070020938707F99843B706F2
:103ED00033001C47D58F1CC7B24022449244410195
:103EE0008280829794485840B387A6003E8563E459
:103EF000D700E3E7E7F83385E74059B7411106C635
:103F00009707002023A0A7D40295B240970700206E
:103F100023A6A7CA014541018280994763E9B700FA
:103F20008A05970700209387A7CABE9588C182801B
:103F30009707002023A6A7D011C5854717070020A3
:103F40002307F7CA82804111714681451705002079
:103F5000130505C806C69707002023AF07C89707B3
:103F6000002023A107CE9707002023A307C89707A7
:103F70000020238E07C69707002023A307CC97D0E5
:103F8000FF1FE78060981306800281451705002017
:103F9000130545C197D0FF1FE7800097EFA051366A
:103FA00097070020938787C503C5C70383C7D70337
:103FB00085453E958D473305F50239051375F50F97
:103FC000970700202381A7BE99473305F502130503
:103FD000052497D0FF1FE780004717070020232FF5
:103FE000A7C459CD9947170600200346C6BB330620
:103FF000F60281451306062497D0FF1FE780C09084
:1040000097070020938787C39C439387072417074C
:104010000020232DF7BA170700200347C7B80A0767
:10402000BA97170700202327F7BCEFF0EFD0E1295C
:1040300097070020938787B994439707002083C789
:1040400077B613972700369717F6FFFF1306265803
:1040500010C3138717001377F70F0A07369717F661
:10406000FFFF1306865010C313873700890793F7A5
:10407000F70F8A0797050020A386E5B2B69790C38D
:10408000B240410182809707002083C7B7B117076C
:104090000020034747B163F3E70217070020130727
:1040A000E7B218439386170017060020A30CD6AE7C
:1040B00093962700369708C33E8582809307F00FBA
:1040C000E5BF1C416384071641777D8FB70600204A
:1040D0008947631ED71403574500630A071441112B
:1040E00022C419462A849305F00F610506C697D0AD
:1040F000FF1FE780608C05478D476304E5121C4471
:1041000081CB58589947630E0710185C630B071052
:1041100013060004814517050020130525AE97C03E
:10412000FF1FE780607E13060004A28517050020AC
:104130001305C5AC97C0FF1FE780E0759707002007
:1041400083D787AC17070020130747AB99E793077E
:104150000010970600202399F6AA9707002083C72E
:10416000C7AA91E78547970600202380F6AA9707FC
:10417000002083D7A7A991E7ED4797060020239752
:10418000F6A89707002083C757A891E79547970699
:104190000020A38CF6A69707002083C747A791E7C6
:1041A0008547970600202384F6A69707002083C73B
:1041B00017A699E78347F70097060020A389F6A47E
:1041C0009707002083C7D7A481CF93F63700898350
:1041D000170600202302D6A697060020A38EF6A479
:1041E0009707002083C7C7A291E7D547970600200D
:1041F0002380F6A28347640199E79307C0039706DB
:1042000000202388F6A01C5791C7829797070020AB
:10421000239EA798FD5717070020A305F7CA25334B
:104220008147B24022443E854101828089473E85D4
:10423000828001114EC6970900209389E9A083A7C7
:10424000090006CE22CC26CA4AC852C48297130956
:104250000064B335250303DA8900814652863305AD
:104260002503EF000269970700209387A793804FEB
:10427000AA8401456306940233858440636E9400EA
:1042800003A5490052868146B335A9023305A90228
:10429000EF002266018D26959707002023A09792B4
:1042A000F2406244D2444249B249224A05618280C6
:1042B000011122CC0A852E84414697250200938560
:1042C00065D106CEEF00721C180806043A94035517
:1042D00004FF9707002083D7C797F2406244AA974C
:1042E00037450F00130505243355F502056182801B
:1042F0009707002083D7E79551471D45637CF70258
:10430000794719456378F70213072003154563734E
:10431000F7021307B0041145637EF7001307400648
:104320000D456379F7001307600909456374F700C9
:1043300013B5B70F8280011122CC06CE2A842EC677
:10434000EFF00FB1B245F240818D33A5A502229561
:1043500062441375F50F05618280011122CC06CEEF
:104360002A842EC6EFF0CFAEB245F240818D33A540
:10437000A5022295624442054181056182800111B6
:1043800022CC06CE2A842EC6EFF08FACB245F24086
:10439000818D33B5A502229562440561828097071D
:1043A00000209387A785985739CB411122C426C294
:1043B00006C6BE84029717F7FF1F0357277F2A847C
:1043C00015CBBA876373A700AA87C207C183BA86D1
:1043D0006373E400A286C206C182958F5147635B76
:1043E000F700DC5491C38297EF40C15297F7FF1F4B
:1043F000239E877AB2402244924441018280828087
:104400009707002023AC078497F7FF1F9387077F48
:10441000DC57011106CEAA8581C72AC68297B2450C
:10442000CDC19C410545D9CBDC41C9CB83D78500A3
:10443000D1C783D7A500D9C351461705002013055E
:10444000A58097C0FF1FE7800045970700202383C2
:10445000078097F7FF1F9387277F9C4317F7FF1F5E
:104460002328F77897F7FF1F83C7B77A8DE793075D
:10447000805717F5FF1F0355A57D3305F502374615
:104480000F001306062481468145EF00824697F708
:10449000FF1FA380A77817F7FF1F03479777A5474C
:1044A00063E7E700A94717F7FF1FA304F77617058F
:1044B0000000130545D8EFF07FA40145F2400561E7
:1044C000828097F7FF1F23AD076E97D7FF1F938753
:1044D000478B17F7FF1F2329F7767D5797F7FF1FA5
:1044E00023A6E776B7873200938727A197F6FF1FA9
:1044F00023A0F67697F7FF1F238E0774B7C70040F7
:1045000023A4E726B9B7011122CC17F4FF1F130427
:10451000E46E084406CE26CA4AC801E90545F240C1
:104520006244D2444249056182805C58E5DB185CF4
:1045300075D77000854582971844B247E300F7FEAF
:104540009305E00417F5FF1F0355056C97D0FF1F77
:10455000E78060EF17F7FF1F2326A76661D117F6E4
:10456000FF1F0356666A9305F00F97C0FF1FE78091
:10457000A039814417F9FF1F1309C96297F7FF1F7C
:1045800083C7A7680326090263C1F402328597D066
:10459000FF1FE78060FA014597F7FF1F23A407621A
:1045A00097F7FF1F23A207629DBF97F5FF1F83D5D3
:1045B000A565B38795020844185C898185043E95FA
:1045C00008C2029765BF011156C297FAFF1F938A6E
:1045D000EA6283A78A0022CC4AC84EC606CE26CA03
:1045E00052C45AC0AA892E8432896386072203A73F
:1045F0004A03630907141307F01F6367A71497F4AE
:10460000FF1F9384245A03AA040263170A0A9565BC
:10461000938515E017F5FF1F0355055F97D0FF1F22
:10462000E78060E297F7FF1F23AEA7582A86630B47
:10463000051083A74A0303A58A0097F5FF1F83D5BA
:10464000A55C8981829783A78A0003AA040217F7D1
:10465000FF1F232BF7568947639CF908C147631353
:10466000F40E97F5FF1F83D5255A938505FC9147D6
:10467000B3C5F5028A05D29503C725009307A005A7
:10468000631EF70A83D70500639A370B4A85228693
:10469000910597C0FF1FE78000209C5052856393CF
:1046A00047150145F2406244D2444249B249224A88
:1046B000924A024B05618280D850E38EE7F89565F7
:1046C000938525E017F5FF1F0355055497D0FF1F6D
:1046D000E78060D72A8A3DC52A8683A74A0303A5B7
:1046E0008A0097F5FF1F83D5255289818297A5B748
:1046F0008D47639DF900C1476316F40497F5FF1FCA
:1047000083D58550938545FDF199B5B79147639A57
:10471000F9006319340397F5FF1F83D5E54EA11502
:10472000E5B793070010639FF900A14763EC87008A
:1047300097F5FF1F83D5454DC115F9B79C5052859C
:104740006396470D2945B9BF1D6A568B6371450BAA
:10475000130A05E01947334AEA0217F7FF1F035708
:10476000A74A97FAFF1F938AEA43330AEA023E9A5E
:1047700083A74A026395470183A40A029DE4930537
:10478000E00417F5FF1F0355254897D0FF1FE7806A
:1047900080CBAA8445D983274B0397F5FF1F83D588
:1047A000A5462A8689815285829791451307A005DF
:1047B000898193972500A69783C627006393E60413
:1047C00083D60700639C360385058A052286A69555
:1047D0004A8597C0FF1FE780000C83A70A02E38287
:1047E00097EC268597D0FF1FE78000D55DBD216738
:1047F0007917E369A7F4330A454185B783C53700C4
:1048000045BF83A70A02E38F97F2268597D0FF1F43
:10481000E78080D205BF97F7FF1F9387A7388C5397
:1048200095D191479306A0058983139727002E976A
:1048300003462700E318D6F003560700631C360131
:1048400085078A072286BE954A8597C0FF1FE780A5
:10485000800481BD83473700C1BF97F7FF1F93874F
:10486000E739984739C79C5FA9C705476313E50433
:10487000411122C417F4FF1F1304C432105006C69E
:104880000DC6485097F5FF1F83D50538898182975B
:10489000085097D0FF1FE78020CA97F7FF1F23A378
:1048A000073297F7FF1F23A10732B240224441018C
:1048B00082808280011117F7FF1F130727344EC62D
:1048C0008329870022CC26CA4AC806CE52C456C2C3
:1048D000AA842E843289638B09201C5FBA8A99EBE3
:1048E0002945F2406244D2444249B249224A924A9E
:1048F000056182805C5BEDD79307F01F63EAA70E2A
:1049000097F9FF1F9389092A83A70902B1CB03A551
:104910008A0083A749026395A70689476393F40831
:10492000C147E31FF4FA17F5FF1F0355E52D914723
:10493000130505FC3345F5029317250003A509026D
:104940002286CA853E959307A0052301F500231012
:104950009500110597C0FF1FE780E0F3014551B7AF
:104960009305E00417F5FF1F0355052A97D0FF1F95
:10497000E78060AD97F7FF1F23A6A72449F98DB7FD
:1049800083A74A0303A6090297F5FF1F83D5C5270E
:104990008981829783A78A0017F7FF1F2326F722B2
:1049A000ADBF8D47639EF400C147E31BF4F217F5DA
:1049B000FF1F03556525130545FD9377C5FFBDBF53
:1049C0009147639AF400E31D94F017F5FF1F035518
:1049D000A5232115DDB793070010E393F4F0A14759
:1049E000E3E087F017F5FF1F035505224115F1B7E6
:1049F0009D676379F506930705E01947B3C7E7029A
:104A000017F7FF1F0357472017FAFF1F130A8A19CA
:104A1000B387E702BE9983270A02A1CF83274A0200
:104A20006399370703250A0291461308A0059305E9
:104A3000F00F93D72600139727002A9703462700E5
:104A4000631F0607835807000346370063959806DF
:104A5000B306D64063CF860485078A072286CA85B7
:104A60003E95CDBD21677917E36CA7E6B307F54006
:104A700041BF9305E00417F5FF1F0355E51897D0D4
:104A8000FF1FE780409C97F7FF1F23ADA71259F542
:104A900081BD83A74A0303260A0297F5FF1F83D52A
:104AA000A51689814E85829797F7FF1F23AE371190
:104AB00095BF2310B70093160601C1829DBFB38531
:104AC000860017F6FF1F035626149105130606FCF1
:104AD000E368B6E013063400719A1106B29623011A
:104AE000070123109700A301D700BDB797F7FF1F59
:104AF0009387470B9453BE89A9C203A50902914627
:104B00001308A0059305F00F93D7260013972700ED
:104B10002A970346270063180605835807000346B3
:104B2000370063989800B306D640E3D786F2231087
:104B3000B70093160601C182C1BF8357C70017F59E
:104B4000FF1F0345850C9305E0043305F50242057C
:104B5000418197D0FF1FE780008F97F7FF1F23A3A6
:104B6000A70641FDB5BB17F6FF1F0356E60997F5EB
:104B7000FF1F83C58509B385C502338686001106EC
:104B8000E3E0C5D681BF01458280011106CE2EC665
:104B9000EF80F03101C9B245F240035525000561AF
:104BA0006FC07074F240494505618280A38201881C
:104BB0002382018823A6018623A8018623AA0186D1
:104BC00023AC018623A4018623A2018697F7FF1F49
:104BD0009387070B930640382391D702F17613078A
:104BE000400B938606B82391E7002392D702116702
:104BF0009D46130600059305000A1305007D2392C8
:104C0000E7002393D70241478546130810F8239500
:104C1000E7002396E7002399E700239AE700239B08
:104C2000E700239CE7002394E702239007002393E7
:104C3000B7002394B7002397C7002398C700239D8C
:104C4000A700239E0700239F0700239007022395B8
:104C5000D70223960703239707029308F0072398A8
:104C600007022392E7042393E704239FE70423909A
:104C7000E7062391E7062392E70623991703130714
:104C8000C01C239AD702239BD702239C0702239D93
:104C90000702239E0702239F070223900704239104
:104CA000D70423940704239507042396D704239756
:104CB000C7042398C7042399A704239A0704239BB6
:104CC0000704239C0704239DC704239EC704239342
:104CD000A70623940706239507062396070623971E
:104CE000B7062398B70623990706239AE706514784
:104CF000239DE7067D57239B0706239C0706239EDB
:104D0000D706239F0706239007092391E70882808F
:104D1000011126CAAA84214522CC06CE2E8432C691
:104D200036C43AC2EFE0CFE81DC9A2461247324668
:104D3000930700FD2300F5009947A3009500230188
:104D4000F5002303D500A303E5002312C500AA85BF
:104D500022856244F240D24405616FE0CFF4F24014
:104D60006244D2440561828023A6A186828023A862
:104D7000A186828023AAA186828023ACA18682801C
:104D8000011122CC4AC806CE26CA2A890144B3049E
:104D900089006368B400F2406244D244424905612C
:104DA00082802EC6EFE0DF8A93170501C183A183BD
:104DB000B2452380F4009307140093F7F70F85049E
:104DC00063F9B700CA9709042380A7001374F40F8E
:104DD0007DBF3E847DBFC16717F5FF1F0355A5E862
:104DE000FD176304F502411117F6FF1F034646FD48
:104DF0009385C18706C6EF802069B240FD5717F73B
:104E0000FF1F2312F7E641018280828009C9251520
:104E10001375F50F1335850E134515008280014576
:104E2000828023900500C9C6797122D426D24ECE45
:104E300052CC5AC806D64AD056CA5EC63684328A82
:104E4000AE892A8B814463F34407B307940083C778
:104E50000700138914004209939A070193DA0A01A3
:104E60001359090163840A04CA976341FA04B3071A
:104E7000240183CB07005E85513F0DC99387FAFF5C
:104E80002390F90063906B03130519002295B2502B
:104E9000225492540259F249624AD24A424BB24BCE
:104EA00045618280D694C204C18071BF0145C5B7F7
:104EB00001458280411126C2AE8422C497F7FF1FAC
:104EC00023AAC7DA97F7FF1F23A4B7DA97F7FF1FC4
:104ED00023AEA7D82A8441469305F00F26854AC001
:104EE00006C6054997C0FF1FE78000AD6310250582
:104EF00097F7FF1F9387C7D6884BC1455135414669
:104F00009305F00F228597C0FF1FE780E0AA854434
:104F100063189502224497F7FF1F938767D4B24026
:104F200092440249C847C145410199BD4146814566
:104F3000268597C0FF1FE78020A8E31225FD4DBFFF
:104F400041468145228597C0FF1FE780E0A6E30325
:104F500095FCB240224492440249410182804111B1
:104F600022C426C22E84AA8413060002814517F5A6
:104F7000FF1F1305E5CE06C697C0FF1FE780C09848
:104F800097F7FF1FA38F97CC97F7FF1F238C87E21C
:104F9000EFC0B037854719C181474945B240224427
:104FA00017F7FF1F230EF7CA924441018280814701
:104FB00081CD19C98547631BF50083C7550093E769
:104FC00007FCA382F50085473E85828089476317E9
:104FD000F50083C7550093F7F703E5B70D478547FD
:104FE000E314E5FE03C755001377F70313670704BF
:104FF000A382E500D1BF81478DC105C103C755001C
:105000009306000C85471377070C6308D7009306B7
:1050100000048D476303D70089473E858280411194
:1050200022C4005D06C626C21DC8AA84085009C550
:1050300097C0FF1FE7804050485009C597C0FF1F29
:10504000E780804F085409C597C0FF1FE780C04E16
:10505000228597C0FF1FE780204E23AC0402B24098
:10506000224492444101828009ED97F7FF1F83C7D4
:1050700047BF17F5FF1F130525C081CB1385C185D9
:10508000828017F5FF1F130525BF828017F5FF1FCC
:10509000034525BD828097F7FF1F938767BCC847EC
:1050A000828097F7FF1F9387A7BB884B828097F773
:1050B000FF1F9387E7BADC4B8843828097F7FF1F77
:1050C000938707BAD84B1C4385071CC317F5FF1FEE
:1050D000034535B99307F00F6305F50091656FE05F
:1050E0000FF48280011122CC06CE2E8432C6EF80CE
:1050F000C06C9147B245631FF500938781879C433D
:105100008DC303A30700630E030022856244F240AF
:1051100005610283938701879C4381C703A34700EE
:10512000DDB7F2406244054505618280011122CC61
:105130002A840355450006CE26CA4AC84EC6EF80CB
:10514000E04535C52A89834405008349C500C13D32
:105150004A85EF80B02103554400EF80406183C74A
:105160004188B1CB6399970483C551882685EFF0B8
:10517000DFA119E12382018803554400EF80E06339
:105180009147631FF5000357440097F7FF1F83D72C
:1051900087AD6317F700FD5717F7FF1F2315F7AC0F
:1051A000F2406244D2444249B24905618280814959
:1051B0009304F00F6DB79307F00FE38FF4FA834673
:1051C000640003564400034524004E87A6858936B3
:1051D00065B779715EC6AA8B2E8552CC56CA5AC85D
:1051E00006D622D426D24AD04ECEAE8A328B368A0A
:1051F000EF80C03A7DC1045D2A89E5C09C506145BD
:1052000099C3130540039C5481C751054205418150
:1052100063050A00710542054181DC5081C75D05C7
:1052200042054181EFE0CF982A8445C96146814516
:1052300097B0FF1FE780406D97F9FF1F83C949A70B
:105240006394090083490900930700FD2300F400DB
:10525000A947A30074012301F400230364018C50C7
:10526000231254011305840191C908C47146930A9D
:10527000440397B0FF1FE780006256858C5491C9A4
:1052800048C45146930A450197B0FF1FE780A060CC
:105290005685630C0A0008C87146D285930AC50179
:1052A00097B0FF1FE780205F5685CC5099C548C84E
:1052B0005D4697B0FF1FE780005EA2854E85EFE058
:1052C0008F9E2254B2509254F249624AD24A424BC3
:1052D000B24B4A850259456199B3B2502254925457
:1052E0000259F249624AD24A424BB24B456182802E
:1052F00001114EC6AA892E854AC806CE22CC26CADE
:105300002E89EF80A02921C997F4FF1F83C4449AF6
:1053100099E0834405001945EFE08F892A8405CD83
:105320008145194697B0FF1FE780005E930700FD97
:105330002300F400B947A30034012301F400231231
:105340002401A2856244F2404249B2492685D244F2
:1053500005616FE04F95F2406244D2444249B24940
:105360000561828039715ECEAA8B2E8526DA4ED6F3
:1053700052D456D25AD006DE22DC4AD8AE84328BC2
:10538000B68A3A8ABE8942C6EF80402121CD2A8959
:105390004145EFE0EF812A8431C54146814597B010
:1053A000FF1FE780605617F5FF1F0345659019E161
:1053B00003450900930700FD2300F400BD472301C6
:1053C000F400B247A3007401231294002304640183
:1053D000A304540123054401A30534015CC4A28540
:1053E000EFE06F8CF2506254D2544259B259225AB3
:1053F000925A025BF24B21618280797126D2AA8493
:1054000039454AD04ECE06D622D42EC6B289368928
:10541000EFD01FFA21C1B2459307000D2310F5000C
:10542000B1472A842312B5002301F500CE85190562
:10543000194697B0FF1FE780004623062401A28586
:105440002254B2500259F24913F5F40F92544561B7
:105450006FE06F85B250225492540259F24945616F
:10546000828017E7FF1F0347D77F9307F00F630D75
:10547000F706411126C2AA84394522C406C64AC08D
:10548000EFD01FF32A8439C9930700FD2300F500EC
:10549000A30095002301050097E5FF1F9385C57DB7
:1054A0000D05194697B0FF1FE780E03E17E9FF1F83
:1054B0001309097B83578900A28517E5FF1F034560
:1054C000557A2315F400834719002306F40022447B
:1054D000B2409244024941016FD0FFFCB2402244E5
:1054E0009244024941018280828001115AC02A8B74
:1054F000314526CA4EC652C456C206CE22CC4AC830
:10550000AE84B28A368ABA89EFD09FEA35CD2A8432
:105510002685EF80A00811C50347C500A147631485
:10552000F70417E9FF1F0349D973930700FD230010
:10553000F4009D47A30064012301F40023129400AA
:10554000231354012314440123153401A28562441A
:10555000F240D244B249224A924A024B4A85424919
:1055600005616FD05FF417F9FF1F0349B985E31E8A
:105570000BFA938701929C439C47C5DBCE865286EB
:10558000D6852685829755B7F2406244D244424977
:10559000B249224A924A024B05618280011122CC13
:1055A0002A84214506CE2EC6EFD09FE021C1B24508
:1055B000930700FD2300F500C5472301F50083C7CD
:1055C0003500A301F50083D745002312F50083C7FA
:1055D00065002303F50083C77500AA85A303F500C2
:1055E00022856244F24005616FD0FFEBF2406244D5
:1055F00005618280397162CC2A8C594526DA4AD8F5
:105600004ED652D456D25AD05ECE06DE22DCAE84BE
:1056100032C636C4BA8B3E8BC28A468A835901048D
:1056200003494104EFD0DFD825C93246930700FD76
:10563000A2462300F5009547A301C500A3008501FC
:105640002301F5002A8419461105A9C2B68597B031
:10565000FF1FE780402423066401230A2401231549
:105660007401231754012318440123193401A2851E
:105670006254F2504259B259225A925A025BF24B8A
:10568000624C2685D25421616FD0FFE1814597B0ED
:10569000FF1FE7806027C1B7F2506254D2544259CD
:1056A000B259225A925A025BF24B624C21618280BB
:1056B00097E7FF1F83C7E75A8DCB4111AA8519468B
:1056C0001385C18506C697B0FF1FE780C01C938570
:1056D000C18517E5FF1F0345C558EFF05F8DB24048
:1056E0001385C18541016FC000430145828017E7E2
:1056F000FF1F034717579307F00F6305F708411182
:1057000026C2AA84294522C406C6EFD07FCA2A84AD
:1057100029C1930700FD2300F500A1472301F500EF
:10572000A300950097E7FF1F9387875383C7270040
:105730009385C1851105A30FF5FE194697B0FF1F8C
:10574000E7806015A28517E5FF1F03459551EFD04F
:105750009FD517E7FF1F0347C7508D47631FF7000B
:10576000938741879C4391CB03A387006307030082
:105770002244B240924441010283B2402244924406
:105780004101828017E7FF1F0347A74D8D47631A2A
:10579000F700938741879C4389C703A38700E31DD4
:1057A00003FC8280797122D406D626D24AD04ECE0E
:1057B00052CC094455CD2A89035505002E8A5144FF
:1057C000EF70D05DAA844DC597E7FF1F83C7875F41
:1057D000FD1793F7F70F05474944637BF708034725
:1057E000C500A1476314F70063140A089C5C454494
:1057F000C1E39165938545711305C00297C0FF1FF2
:10580000E78060C488DCAA894D443DC11306C0020C
:10581000814597B0FF1FE780200F835709009386CB
:10582000490036852391F90071469305490036C633
:1058300097B0FF1FE780200689472380F90003C542
:10584000C400B24603560900611597E5FF1F83C5E2
:10585000255713351500EF80D0772A8463060A0098
:10586000D2852685EF80606001C42685EFF02FFB8E
:105870002285B250225492540259F249624A45613B
:10588000828097E7FF1F83C7E753FD1793F7F70F52
:1058900005476378F708894751C6011122CC26CA0B
:1058A0004AC84EC652C406CEAA89368AB2842E8908
:1058B000EF70D04E2A84D14729C9485509C597C0F1
:1058C000FF1FE78060C7F1452685EFD09FDF48D4F2
:1058D000CD4705CD8346C40021478147639FE6003D
:1058E000630D0A000347A501035605019306250130
:1058F000AA854E85EF80205FAA8703474400630F87
:105900000900136767002302E400F2406244D244B6
:105910004249B249224A3E850561828013674700A9
:10592000DDB7C9473E8582809307000463EBA7007B
:1059300097E7FF1F9387C73406053E95035505007B
:10594000828041657D158280011122CC2A842E85BA
:1059500026CA06CEAE84EF7070441DCDB7470F0047
:105960009387F723094563E4870281450A85414609
:1059700097B0FF1FE78040F9A685231081000A85B4
:10598000418023018100A3010100EF803050F240EB
:105990006244D244056182804945D5BF97E7FF1F25
:1059A0002381A74282806F80F05C797152CC2A8A71
:1059B000328522D426D24AD04ECE56CA5AC85EC6A6
:1059C00006D662C4AE8BB28A368BBA843E89C2894F
:1059D0004684EF70B03C15C92A8C63140A02137711
:1059E0004B008347450015CF93E727012302FC00B6
:1059F0008DEC631C0902639A090205E8ED9B230202
:105A0000FC00832B8C03639F0B06B25022549254EC
:105A10000259F249624AD24A424BB24B224C45618A
:105A20008280F59B93E70701D1B793E747002302F4
:105A3000FC0001CC1C484146A2852324FC0213052E
:105A40008C0197B0FF1FE78000E563910B02D5D86A
:105A50000325CC0209C597C0FF1FE780E0ADF145E3
:105A60002685EFD01FC62326AC0261BFE30B09F8E1
:105A70000325CC0209C597C0FF1FE780E0ABF145C5
:105A80004A85C5B79DC483A70B0299EB91659385A1
:105A90003571714597C0FF1FE780E09A23A0AB02E4
:105AA00003A50B0219C57146A68597B0FF1FE780B5
:105AB00080DE6388090283A74B0299EB9165938589
:105AC00025715D4597C0FF1FE780E09723A2AB02D9
:105AD00003A54B0219C55D46CE8597B0FF1FE78031
