:040000006F208048A5
:1000040000000000000000009000002054090020BF
:10001400A9BDF9F5900000200000000000000000D8
:10002400900000209000002000000000000000006C
:10003400900000200000000090000020000000005C
:1000440090000020900000209000002090000020EC
:10005400820500201C060020FC1D0020000000007A
:10006400900000209000002090000020FE0C002052
:1000740090000020900000209000002090000020BC
:1000840090000020900000209000002090000020AC
:1000940001A083A6C18705459C5E9583858B95EF5A
:1000A40009C69C5ABD832300F60083A7C187985BC9
:1000B4004607935767016353070293E707C0938684
:1000C40001822391F1820397060009C7BA97094771
:1000D400B3C7E7022390F60001458280C207C187B7
:1000E400F9BF37470020832747C994438D8A89CEB7
:1000F400B44B93F6F68FB4CB944393E6860094C343
:100104000100010001000100B747002003A607DD3C
:10011400B706CEFFFD161C46F58F1CC683A6C18705
:100124009C4293F7F7CF93E707109CC2032747C974
:10013400B7070F00938707083CCBB74700202382FB
:1001440007CA828019C1814799E982803387F50003
:10015400834607003307F50085072300D700E3979C
:10016400C7FEE5B72A9609E582800505A30FB5FE0B
:10017400E31DC5FED5BF1C4999CFAA85374500208C
:100184004111130545C71306000206C6653FB24078
:1001940001454101828005458280797126D2B744A8
:1001A400002083A744C94AD04ECE9C4306D622D40D
:1001B40052CC56CA8D8B2A89AE8991C736C632C4B1
:1001C4000D37B246224683A7C18737083200374429
:1001D4000020D857930AC4C91304C4C9719B136778
:1001E4001700D8D783A544C91307000AF8D1984348
:1001F4001377F7CF98C398431377F7CF98C337474C
:100204000020032507DD18453367070118C5374566
:10021400002037070F00130845C71307872DB8C9F7
:10022400034718009378F7039843137707FC336761
:10023400170198C398431367070498C303278800DA
:1002440098C70327C800D8C3DC41034745C7F99BB7
:1002540013781700B3E70701DCC113672700230AEB
:10026400E5C6930700F803A58A022381FA00B7477D
:100274000020A38CC7C88145B7470020130610107F
:10028400238CD7C8A3810A00F13D03A54A02138633
:100294002900CA85453D83A744C9F8531DEF83A6A9
:1002A400C1870145D856719BD8D6094798C31547CD
:1002B4002304E4007D57F8D721671307C764F8D3F4
:1002C400930700F82302F400B250225492540259C6
:1002D400F249624AD24A4561828001006DBF797158
:1002E40026D2B744002083A744C94ECE52CC9C43A7
:1002F40006D622D44AD056CA8D8BAA892E8A91C793
:1003040036C632C4F93BB2462246B74500201389AB
:1003140045C783A7C1870327890003A544C9374478
:10032400002098C70327C900D8C35C4103C745C749
:10033400F99B13781700B3E707015CC1B7470020A6
:100344002384C790B7470020A384D790930700F86D
:10035400230EF4C81304C4C9085413674700238A3E
:10036400E5C69947A3000400130610108145230431
:10037400F40023020400FD33485013062A00CE85FE
:10038400D13383A644C98547B70532009CC283A7ED
:10039400C187014598431377F7CF98C398431377E0
:1003A400F7CF98C337470020032607DD18464D8F43
:1003B40018C637070F001307871DB8CA034719006B
:1003C4009376F7039843137707FC558F98C39843A4
:1003D4001367070498C3B250225492540259F24945
:1003E400624AD24A4561828037470020834747C723
:1003F400411106C6E59B230AF7C6B7470020938739
:10040400C7C923820700F139B24001454101828006
:10041400411122C4374400209307C4C906C626C22A
:1004240083C7870015471304C4C96392E710B74410
:10043400002083C744C7858BDDC783472400858B91
:1004440099CFB747002003A747C9A5672301040034
:10045400938707CF7CD3930700F82302F4008347E4
:10046400340093F7F70F9DCBA301040083472400C6
:1004740093F7F70FE5DF8D3F938444C79C4801460B
:1004840081450545829710548145328519319C4830
:100494001054AA8509458297230204008347440027
:1004A400858BC9C323020400813783472400374462
:1004B4000020130444C793F7F70F85E31C48014653
:1004C4008145054582970323040101468145494539
:1004D4002244B240924441010283032304010146B1
:1004E40081454545F5B78347340093F7F70F99CB1A
:1004F400A3010400D53D938744C79C4B0146814525
:100504000545829783474400858B89CF23020400E5
:10051400938444C7D13D9C48014681454545829713
:1005240023020400B24022449244410182801947CC
:10053400E39AE7FE8347140093F7F70FE5D7A30088
:1005440004005D3508549306F00F81440347050009
:10055400630BD700B747002083C787906385D70014
:100564006303F7008944014681452536B3E5A400B9
:10057400B747002003A347C8105493F5F50F0D4562
:1005840081BF83A7C187985F1983058B29C3985FAF
:1005940085461377F7FB98DF985F1377F7FD98DFAD
:1005A400374700201307C7C9A304D7008346470071
:1005B40093F6060489EEB746002003A646C985666D
:1005C4009386060474D2930600FC2302D700985F36
:1005D4001D83058B09C7985F1377F7F798DF985F3A
:1005E4001183058B11CF985F379500001305C5243F
:1005F4003D9B98DF83C53703975000E0E78000AF49
:1006040083A78187D8430583058B19C7D843759B76
:10061400D8C3D843799BD8C373002030B747002090
:1006240083A747C998470983058B19CF114798C7F2
:10063400374700208346C7C993E61600230ED7C860
:100644001307C7C9A300070098470D83058B0DC383
:10065400F457374700201307C7C914CFA14694C7DE
:100664008346270093E616002301D700A301070061
:1006740098470583058B11CFF4573747002013079C
:10068400C7C954C7894694C78546A301D700230127
:1006940007009847058B11CF854694C7374700203C
:1006A400230E07C81307C7C9A300D70094C32302A6
:1006B400070098479316F70063D40600416798C76C
:1006C40098479316E70063D206023707020098C7DB
:1006D400374700201307C7C983464700E206E1866F
:1006E40063D5060085462302D70098479316D700A2
:1006F40063DC06003707040098C737470020130758
:10070400C7C98546A302D70098479316B70063DC90
:1007140006003707100098C7B74700209387C7C95A
:1007240005472383E70073002030B747002003A761
:1007340007DDB75702009387079F8326070913969F
:10074400560063580600832607091396660063441F
:100754000600FD17FDF38280011113078008F337AB
:10076400078093F787083EC201000100B7170040D5
:10077400930570052380B704130680FA2380C70409
:100784000100010083C6B70493F6F60DA385D704D0
:10079400238007049246F3A60680010001009376A5
:1007A4000502D5CEF336078093F6860836C40100D9
:1007B40001002380B7042380C70401000100B706A9
:1007C40014007D89558D88C70100010001000100D6
:1007D40023800704A246F3A60680010001007337B4
:1007E4000780137787083AC6010001002380B70405
:1007F4002380C704010001000100010037270040E5
:1008040093061005A303D78023800704B247F3A7F8
:1008140007800100010093078008F3B7078093F76E
:1008240087083ECE01000100B7170040130770058A
:100834002380E704130780FA2380E7040100010002
:1008440003C7B70413670708A385E70423800704D5
:10085400F247F3A7078001000100056182809376C7
:100864000504BDC6F336078093F6860836C8010032
:1008740001002380B7042380C70401000100B706E8
:100884001400938606047D89558D88C701000100F4
:100894000100010023800704C246F3A6068001007C
:1008A400010073370780137787083ACA01000100F3
:1008B4002380B7042380C7040100010037270040C8
:1008C40093062005A303D78023800704D24781B76A
:1008D40073370780137787083ACC0100010023801F
:1008E400B7042380C7040100010098471367070C6D
:1008F40098C723800704E24719BF011181460146C6
:100904008145114506CEEF10F00093078008F3B738
:10091400078093F787083EC601000100B71700401F
:10092400130770052380E704130780FA2380E70484
:100934000100010003C76704136717002383E7045A
:1009440023800704B247F3A7078001000100F240A7
:100954000561828041118146014681451145EF10B0
:10096400607B13078008F337078093F787083EC43A
:1009740001000100B7170040130670052380C70467
:10098400930680FA2380D70401000100FD552396C5
:10099400B70223800704A245F3A5058001000100E6
:1009A40073370780137787083AC601000100238054
:1009B400C7042380D7040100010003C76704136739
:1009C40017002383E70423800704B247F3A70780B3
:1009D4000100010001A0BD473305F50201007D15AA
:1009E40075FD8280411122C426C206C6AA84014430
:1009F40063179400B240224492444101828005046A
:100A04001305803E4204C13F4180DDB7B737004043
:100A14002147B736004091E1828003C6B740E30C1A
:100A2400C7FE05050346F5FFFD15C2052384C64030
:100A3400C181D5B7B78700402384A70203C7A702A3
:100A44001377C70F2385E70282808D476308F50873
:100A540063E9A7008547630CF50289476304F5063B
:100A64008280C9476306F506D1476305F5009147BF
:100A74006313F50C37250020930705489306F00F00
:100A84001306F00F83C51700130505485DA0411137
:100A940022C403C4818006C66312A402B1329387C0
:100AA40081849843050798C323878184B74700202E
:100AB40003A747C98967938707713CDBB240224487
:100AC4004101828089C9938741829843050798C36D
:100AD40023A80184828093870184C5BF83C7818052
:100AE400B9EB85ED9387818398439386C18305078A
:100AF40098C383A7C1879C5BBD8313F7F70F930744
:100B04000010998F9842BA979CC2B747002003A758
:100B140047C9E1679387076A3CD7372500209307C5
:100B2400055983C517009306F00F1306F00F13053C
:100B340005596FF0CFFA82808146B73800202143EF
:100B440063E3B600828083D7E88801480146138EA8
:100B5400E88813F7170033170701598E13D7470096
:100B64003D8F220713770710858305081376F60F48
:100B7400D98FE31068FE2310FE00B307D500850665
:100B84002380C70093F6F60F65BF0147B7380020EE
:100B94001163214E6363B700828083D7C8880146FE
:100BA4008146938EC88813F817003318C800B366BB
:100BB400D80013D81700B347F800BA07B3F7670093
:100BC400050693F6F60FB3E70701E31EC6FD23906F
:100BD400FE00B307E50005072380D7001377F70F5E
:100BE40055BF411122C426C206C6834705001D47CE
:100BF4002A84AE84636BF70025678A071307471DB1
:100C0400BA979C4382870905053FA3009400B2402C
:100C140022449244410182803306F4002300D6002A
:100C24008507E3EBE7FED5B7894713874500C1562F
:100C3400CDBF3306F4002300D6008507E3EBE7FEBF
:100C4400E9B78947138745009306A0FAC5BF09058C
:100C54002D3F65BF3306F4002300D6008507E3EB80
:100C6400E7FE65B7894713874500FD56CDBFB30638
:100C7400F400238006008507E3EBE7FE79B7894794
:100C840013874500D5BF3306F4002300D60085073B
:100C9400E3EBE7FE9DBF894713874500BD46CDBF03
:100CA4003306F4002300D6008507E3EBE7FEB1BF6B
:100CB40089471387450093065005C5BF79710A8596
:100CC40013060002814506D6EFF0CFC9B7C7898E57
:100CD400938767ED3EC4B7575500938757553EC673
:100CE40093073002A300F100B71700209387A7A44D
:100CF4000A853EC8EFF02FC8B2504561828037376D
:100D04000040834747408546BD8B638BD7028347AA
:100D140047401147BD8B6385E70031476392E70283
:100D240041114800973000E0E780E0C11376F50FE9
:100D34004C001385C185EF10C00C410173002030B5
:100D440073002030011122CC26CA4AC84EC6B749C6
:100D54000020B744002006CE52C4A5462A8483A7A7
:100D640009DD03A7C18783A544C963E1A608945F8D
:100D7400370608FF7D16F18E94DF1443370A0F00FF
:100D840093F6F6CF14C3144393F6F6CF14C39847DF
:100D9400B7063200558F98C793078A5DBCC9972060
:100DA40000E0E78040B0972000E0E78020A497208F
:100DB40000E0E780C0AB83A609DD3707CEFF7D17CF
:100DC4009C46130A0A08F98F03A7C1879CC61C43D3
:100DD40093F7F7CF93E707101CC383A744C923A84D
:100DE40047056DCC7D141374F40FC5A0B70608FF36
:100DF4001386F6FF945F370A0F005545F18E3706C8
:100E04008000D18E94DF144393F6F6CF14C31443B9
:100E140093F6F6CF14C39847B7063200558F98C798
:100E240093078A5DBCC9636C8504972000E0E78062
:100E340080A7972000E0E780609B972000E0E78090
:100E440000A383A609DD3707CEFF7D179C46130A4E
:100E54000A08F98F03A7C1879CC61C4393F7F7CFF1
:100E640093E707101CC383A744C923A84705B147C8
:100E74006309F406AD47E3F787F67914ADB7972015
:100E840000E0E78040A2972000E0E78020969720CA
:100E940000E0E780C09D83A609DD3707CEFF7D17FC
:100EA4009C46130A0A08F98F03A7C1879CC61C43F2
:100EB40093F7F7CF93E707101CC383A744C923A86C
:100EC400470593077002E31AF4FA2285F24062445C
:100ED400D2444249B249224A056182801304500235
:100EE400EDB713046002D5B7B747002083A747DDE9
:100EF400411122C42E862E84AA851385070406C6B2
:100F0400973000E0E780207422852244B2404101FA
:100F140015B65D71A2C4A6C29384C185D84886C69D
:100F2400CAC04EDE52DC56DA5AD85ED662D48D4739
:100F340063F0E70281451385C185EF10800F854773
:100F44002A896303F50285451385C185EF10C00224
:100F5400B640264496440649F259625AD25A425B34
:100F6400B25B225C616182808D451385C185EF107F
:100F7400400CDC48130A4500A289E3EB47FD528686
:100F84002C001385C185EF007078A5651146938503
:100F9400857A2800B7240020973000E0E780406875
:100FA4001384046A63180510EFF00FC493076010EC
:100FB4002311F40083479100230304002302F40067
:100FC4008347A100A302F4009387418403C7070069
:100FD4006311270323800700B747002083A707DD99
:100FE40003A78182F8CF03A7C18298CB03A701830B
:100FF40098C713898180034709008547938A8184B0
:10100400375C0020B74B0020138B81836310F704F7
:1010140083A70A00A5451385046AA303F400A183EA
:101024002304F400E532A5451385046A753DFD5794
:10103400230A0C3A23830BDE23200B0023A00A008F
:101044002300F900D2851385C18509B783270B00D6
:10105400A5451385046AA303F400A1832304F400C3
:101064007532A5451385046A413583A7C187B70640
:10107400004098431384C180558F98C39843B706A2
:101084000080558F98C3084023AE0182973000E05A
:10109400E7808020B737002003A6078A83A6478A03
:1010A400973000E0E7800097973000E0E780C02E9B
:1010B40008C0B5BFA56511469385457A28009730C9
:1010C40000E0E780E0555DE9930740102311F40048
:1010D400834791009D451385046A2302F4008347E6
:1010E400A10023030400A302F4000D329D451385DF
:1010F400046ADD3B0345C100B131B7570020238AA0
:10110400A73AB747002083A707DD7176F44F13068B
:10111400F60F1375F50323A4D182944B620523A61D
:10112400D182944723A8D18223822185F84FB70620
:10113400F9FFFD1613674700F8CF984B758FB70674
:101144000200558F98CB9386864F94C7984BE176CF
:10115400FD16758F98CB03A7C1875857944B6583A9
:101164001377F703F18E2207558F98CB984BB70668
:1011740000C1FD16758F598D88CBE9B5A56511465B
:101184009385857B2800973000E0E780604921E95A
:10119400930740102311F400834791009D45138564
:1011A400046A2302F4008347A10023030400A3027A
:1011B400F400EFF0BF859D451385046A3533B757B6
:1011C4000020238A073AB7470020238307DE23AC95
:1011D4000182239601847D572384E180A5B5A5650A
:1011E40011469385457B2800973000E0E780404313
:1011F400631D050C37D9004083278904370707008E
:10120400D98F2324F9048327C90493E707072326E6
:10121400F904EFF06F9D930740102311F400834706
:1012240091001385046A9D452302F4008347A100BD
:1012340023030400A302F400EFF04FFD9D45138542
:10124400046A5D310345C100F53C0347C100B7574B
:101254000020238AA73AB74700202383E7DE83A729
:10126400C1879306F00F1306F00F98431377F7F72F
:1012740098C3984F137707C01367271398CF1307A2
:10128400F007A389E70023AC018223960184B747C2
:101294000020A38AA7C68327C90345777D17F98F42
:1012A400232EF9028327C9030D6737250020D98F20
:1012B400232EF902238401809307055983C517005F
:1012C40013050559EFF0AF81B5BBA56511469385AC
:1012D400457C2800973000E0E780803451EDEFF042
:1012E400AF90930740102311F400834791001385B6
:1012F400046A9D452302F4008347A10023030400EC
:10130400A302F400EFF08FF01385046A9D45E93ED3
:101314000347C100B7470020372400202383E7DEBA
:1013240003A7C18793040459130504591C4393F775
:10133400F7F71CC38347E1008345D1002380F40001
:1013440023AC018223960184B757002003C7473B8F
:10135400B7470020A380B400A38AE7C6593083C5E9
:101364001400238421819306F00F1306F00F130554
:101374000459EFE09FE2F9B1A56511469385C57B59
:101384002800973000E0E780A02963100512930736
:1013940040102311F400834791009D451385046A8E
:1013A4002302F4008347A10023030400A302F400F2
:1013B400EFF0CFE59D451385046A3D368345C100B2
:1013C40003A7C18793F7F503939697015C573706F4
:1013D40000827D16F18FD58F5CD79307F003938637
:1013E400418363FDB7065C573706007ED18F5CD717
:1013F40037D600403C4637570020232CF73AB7171E
:101404000040AC471307873B4CC38C530CC7B7C58C
:10141400004003A5C51348C7384637050080498FE7
:1014240038C6130770052380E704130780FA238066
:10143400E704B8473706100013670718B8C798536E
:1014440023800704518F98D3B7070200938707219D
:1014540023AEF51285472380F600EDB683C7060058
:1014640093F7F70FE38007BEB757002023800600E9
:1014740083A6873B37D700409387873B34C737170A
:101484000040930670052300D704930680FA2300D6
:10149400D704D44334C794472300070414D3D8474C
:1014A400B7C7004023AEE71271BEA5651146938508
:1014B400C57A2800973000E0E78080162DE5930771
:1014C40040102311F400834791009D451385046A5D
:1014D4002302F4008347A10023030400A302F400C1
:1014E400EFF0CFD29D451385046AFD3AB71700404B
:1014F400130770052380E704130780FA2380E704A9
:1015040003C7E7041377F7082387E7040347C100F9
:1015140083C6E7041207558F1377F70F2387E70471
:101524002380070405B6A56509469385057B280035
:10153400973000E0E780C00E63130510B7D7004072
:10154400B847B7060700558FB8C7F84713670707AA
:10155400F8C7EFE01FB9930740102311F400834745
:1015640091009D451385046A2302F4008347A1007A
:1015740023030400A302F400EFF04FC99D45138533
:10158400046A9D320345C100EFF0CFFB0347C1005D
:10159400B7570020238AA73AB74700202383E7DE02
:1015A4008347D1000547639AE70683A7C187984319
:1015B4001377F7F798C3984F137707C01367271368
:1015C40098CF1307F007A389E70023AC0182239681
:1015D4000184B7470020A38AA7C6B7D70040D85FC5
:1015E400C576FD16758FD8DFD85F8D663725002048
:1015F400558FD8DF9307055983C51700138481805D
:101604009306F00F1306F00F130505592300040089
:10161400EFE0FFCC2300040035B40947E397E7FA71
:1016240083A7C18798431367070898C3984F137714
:1016340007C01367A71398CF1307800769B7A56579
:1016440009469385057C2800973000E0E78040FD3B
:1016540071E1EFE01FA9930740102311F4008347C1
:1016640091001385046A9D452302F4008347A10079
:1016740023030400A302F400EFF04FB99D45138542
:10168400046A9D300345C10037240020B75400206C
:10169400EFF04FEB0347C100B74700208345D1006B
:1016A4002383E7DE0347E10093070459238AA43A1E
:1016B40013050459A380B7002380E700EFF06FD22D
:1016C4008347F100054793050459639CE70203A788
:1016D400C1871C4393F7F7F71CC303C7443B23ACF0
:1016E400018223960184B7470020A38AE7C60547F1
:1016F4002384E1809306F00F1306F00F83C51500D1
:10170400BDB10947E39BE7FC03A7C1871C4393E7EB
:101714000708D9B7930740102311F40083479100B9
:101724001385046A9D452302F4008347A100230323
:101734000400A302F400EFF06FAD9D451385046A25
:10174400EFF08FFA6FF01F90411122C4372400206C
:101754004AC006C626C213040459EFE07FCB938423
:10176400E184EFF00FFB83C70400E5DB0545EFF0F0
:101774008FA683451400228523800400EFF06FC6F2
:10178400834514009306F00F1306F00F2285EFE053
:10179400DFA0E1B7411106C622C4930770053714D0
:1017A40000402300F404930780FA2300F4048347E1
:1017B400E4041305800493F7F7082307F40483472C
:1017C400E40493E707022307F40423000404EFE08E
:1017D400BFF885457D55972000E0E78000E7854503
:1017E4007D55972000E0E78060F00545EFF08F9F7E
:1017F4008327840C8D451305000893E707082324E9
:10180400F40C972000E0E78060EE972000E0E7808A
:1018140000068327840A11678D45D98F2324F40A8F
:101824001165972000E0E78040E2C1450545972017
:1018340000E0E780C0F50545EFF0CF9A8327840ADE
:1018440085451305001093E707202324F40A972005
:1018540000E0E78080DF8D4513050020972000E03D
:10186400E780A0DE972000E0E78080060945972006
:1018740000E0E780000985450545972000E0E78002
:10188400E009B755002013060040938585F21385BF
:10189400C185972000E0E7808016971000E0E7807C
:1018A40040D437E400E0B70700082320F410B7075A
:1018B40020002320F410B70710002320F410B7579A
:1018C400002037470020938787DE232EF7DCB757A5
:1018D400002037470020938787EA2320F7DEB75795
:1018E40000203747002093878732232AF7DCB75735
:1018F4000020374700209387873C232CF7DC972070
:1019040000E0E780E006B70740002320F410EFF082
:10191400EFBA83A6C187370700827D17DC56F98F9B
:101924003707002AD98FDCD60535B747002083A5B1
:1019340047DD2A861385C185E9A1B787004003C71F
:1019440067001377F70F93762700638F064601111C
:1019540006CE22CC26CA4AC84EC652C403C7770054
:101964009306000313770703630BD70203C77700BB
:1019740091461377F7036309D72063EAE60C85469B
:101984006302D71E6306071E8946630AD71A8D466B
:10199400630AD71CB787004009472383E7003787CA
:1019A400004083477700E207E18763D6072E930759
:1019B40020FC2301F702B746002003A5C6DD374407
:1019C400002037460020034775008347650022073F
:1019D4005D8F2315E4DE834715002306F6DE834975
:1019E400050013F60906630B061E1307000C639D1E
:1019F400E9329306F005375700206394D71AA56798
:101A0400938787792322F7DE81440946832547DEBD
:101A1400973000E0E78020C39307F00F6382F42639
:101A24008357A4DE930600043E8763F4F60013078D
:101A3400000442074183998F9376F70F2315F4DE50
:101A4400B78700402380D702130700FC35AC930608
:101A540020026300D71063E3E602930600026306E4
:101A6400D70493061002E317D7F203C7670213776C
:101A7400C70F136727002383E70229BF93063002A9
:101A8400630BD70E93064002E316D7F003C7270370
:101A9400134707042389E70203C727031377C70FF4
:101AA400136727002389E702F5B53747002003476A
:101AB400C7DE95466305D7069946631FD706B74424
:101AC400002003D4A4DE9307000463F48700130406
:101AD400000437590020B747002003A5C7DD42049E
:101AE400832549DE41802286973000E0E780A0B557
:101AF40083D7A4DE9379F40F818F2395F4DE8327B3
:101B040049DE3E94232289DEB787004023803703D1
:101B140003C72702134707042381E702A5BD03C7B0
:101B24003700B746002083C6A6DE13770708558F13
:101B3400A381E7000947CDB723800702E5BF03C7A8
:101B4400770013770704E30707E403C58700F13B35
:101B540091B503C7A7021377C70F1367270023851F
:101B6400E7020DBD03C7770013770704E30407E218
:101B740083C7870005B503C7E7021377C70F136749
:101B840027002387E70239B503C7770013770704D3
:101B9400E30207E003C72703134707082389E70283
:101BA400C1BF930650099304F00F6397D70283478C
:101BB400350083462500A207D58FE1466396D700FA
:101BC400A5679387C7793DBD994681446396D7003D
:101BD400A5679387077A3DB501460DBD2946636124
:101BE400F60A25668A071306461FB2979C43828726
:101BF40083473500834625000946A207D58F93D62F
:101C04008700375900206380C60A6368D600854779
:101C1400638FF6009304F00F09A88D45638EB60810
:101C2400930720028144E397F6FE814701A8A56744
:101C34009387C72A2322F9DE8144C947C207C18397
:101C440063F4E7002315F4DE0356A4DE93070004CF
:101C540063F4C70013060004131A0601832549DE42
:101C6400135A0A015286973000E0E780C09D03268C
:101C740049DE9307F00F52962322C9DE6396F40AD5
:101C8400B78700401307F0FC2381E702B7870040C1
:101C940009472383E700F2406244D2444249B249EF
:101CA400224A05618280A567938747282322F9DEAB
:101CB40081449307700259B793F7F70F8546638DF4
:101CC400D7009DC3E398C7F4A5679387072D232204
:101CD400F9DE8144F1479DB7A5679387072C23223A
:101CE400F9DE8144B94799BFA567938747792322D1
:101CF400F9DE8144914799B7834725002315F4DE23
:101D040025A0B747002083C787DE2300F5000357CB
:101D1400A4DE854763FAE7008547CDB7034725006E
:101D2400B74700202384E7DEE20993D98941E3C958
:101D340009CE814631B313F7F9018947E312F7F469
:101D4400834745006381E704636CF7000547E39923
:101D5400E7F2378700408347670293F7370799A074
:101D6400130710086388E70213072008E39AE7F0D3
:101D7400378700408347A70293F7C70B93E72700F1
:101D84002305F70255B7378700408347A70293F727
:101D94003707FDB7378700408347670293F7C70BC0
:101DA40093E727002303F70241B72300050085B713
:101DB4002300050083A7C6DDA38007000357A4DE24
:101DC4008947E3F3E7F61DBF937617008DC2A3811D
:101DD400070009472381E70249472383E702238554
:101DE400E7022387E70205472383E700828093768F
:101DF4004700FDDA03C757001147FDB73D3E7300A6
:101E040020301C4963EFC70658415C45998FB3865F
:101E1400F5003387C50063E8C702638FE5025C41C0
:101E240085059386170054C183C6F5FF2380D70028
:101E3400EDB758418505130817002322050103C88F
:101E4400F5FF23000701E396D5FE1841B307F640DA
:101E540058C10147636AF7001C49918F1CC95C494A
:101E64003E9650C9014582804C41138815002322B7
:101E740005013388E60003480800050723800501AF
:101E8400D1BF054582805C4963E0C70818455C45BD
:101E9400998FB386F5003387C50063E8C702638F63
:101EA400E5021C4585059386170014C583C7070002
:101EB400A38FF5FEEDB718458505130817002324F5
:101EC400050103470700A38FE5FEE396D5FE1841FD
:101ED400B307F64018C50147636BF7001C49B29776
:101EE4001CC95C493386C74050C9014582800C45F2
:101EF400138815002324050103C80500B385E600F3
:101F0400050723800501C9BF054582805C4963E359
:101F1400C70614455C45958F63E1C7048147638C0C
:101F2400C7023387F600034507003387F5008507AA
:101F34002300A700EDB73388E60083480800338800
:101F4400E500050723001801E317F7FE08410147E0
:101F54001D8E6366C700014582800147F5B7B3064D
:101F6400E50003C80600B306F700AE962380060119
:101F74000507C5B7054582805C4963E6B7021C4581
:101F840058451D8FAE976376B7001C413387E540F3
:101F9400BA971CC51C49AE971CC95C49B385B740A8
:101FA4004CC901458280054582801C4963E1C7080C
:101FB40018411C45998FB386F5003387C50063E843
:101FC400C7026381E5041C4585059386F7FF14C5A4
:101FD40083C6F5FF2380D700EDB7184585051308A0
:101FE400F7FF2324050103C8F5FF23000701E39647
:101FF400D5FE0C4D1841B307F6402E9718C501477E
:10200400636AF7001C49918F1CC95C493E9650C90C
:10201400014582800C451388F5FF2324050133888C
:10202400E60003480800050723800501D1BF0545E4
:10203400828018491C4D637FF7001C4558451D8F4D
:1020440063E4E5001C41998DBE9503C50500137535
:10205400F50F828001458280230304801547230302
:10206400E48001002302A480828083076480E3CE9D
:1020740007FE23030480828083076480E3CE07FE87
:1020840003454480828083076480E3CE07FE2302F5
:10209400A4808280411126C44AC24EC006C613776A
:1020A400F50BAD47AA892E8995446306F7001945B7
:1020B4006537653F8D444E854537FD59FD1463985A
:1020C4003401B240A244124982494101828013552D
:1020D40009011375F50F453F2209CDB7011126CC2F
:1020E40006CEB704080051371545BD377137693737
:1020F4002AC6A53F32459377150089EB1365150071
:102104001375F50FF240E24405618280FD14E9FC89
:102114000145CDBF397126DC4ADA4ED852D656D4A1
:102124005AD25ED006DE62CE66CCB7E700E07D57B9
:1021340083AA070022C603AA470023A0E71823A204
:10214400E718B7170040130770052380E704130747
:1021540080FA2380E70483C74704930B75FFB68492
:10216400E20793FBFB0F8546AA892E8B328937241D
:102174000040E187015763FA76016308D500894678
:10218400130700026313D5000157D98F93F7F70F94
:10219400B71C00402382FC0411472303E480130589
:1021A400F00F5D3D094CD135636D7C11B705070017
:1021B400DA9537870700795563F2E504B38795000C
:1021C400636EF702370B0800A94733EB6501639987
:1021D400F90689E48144513D26850DA0DA85094537
:1021E400553D05090345F9FFFD14050B693D81C4FF
:1021F4009377FB0FFDF7DD3569FD7D55B71700407B
:10220400130770052380E704130780FA2380E7048B
:1022140003C74704418B2382E704F250B7E700E089
:1022240023A0571123A24711E25432445259C259F0
:10223400325AA25A125B825B724CE24C2161828058
:10224400A5476395F90685691309F00FB30699004C
:10225400B3742B01B6941349F9FFB3749900856BD9
:1022640033796901416B9387F9FFB3F7270199E348
:1022740063FC340193D94900C147E3E637FF99BFB2
:102284000569C1697D19D9B71305800D6388690192
:10229400130500026384790113051008CA85DD3B28
:1022A400353D21DD4E99B3843441D9B7DA852D45C6
:1022B400D533CA94E30099F205097D3BA30FA9FE27
:1022C400D5BF9387F9FF93F7F70F6361FC0C83C7BE
:1022D4001C0413073008631FF70437070800636BF7
:1022E400EB04B3079B00B706100063F5D704334B28
:1022F400EB0089476393F9068980D549E38C04ECA4
:10230400DA850945413B11090327C9FF9147232079
:10231400E48003076480E34E07FE23033481FD1742
:10232400EDFBFD14110B81C49377FB0FE9FF7D33A3
:1023340071F5E1B5B717004003C75704B7070800A4
:102344001377070219E3B78707007955E378FBEAA7
:1023540033079B00E3FFE7F855B58547E382F9F2BD
:10236400DA852D45053B9389F4FFE38504E629339B
:1023740093F7390091EB8326048003270900930720
:102384004900E39AE6E43E89CE84F1BFB5476396FB
:10239400F9001305900BC93135BDB1471305B00AD7
:1023A400E38BF9FE99476391F904B7050800B36517
:1023B400BB002D45C53181448D4BA14975396396C8
:1023C4007401832704802320F9008504E39834FFF3
:1023D4008327048013172B01635507002312F90088
:1023E400D5BB2322F900FDB39D476399F9028145CA
:1023F4001305B0044531BD442320090023220900FC
:10240400FD599D3993F77400CA9703C70700FD145B
:10241400398D2380A700E39634FF6DBBA1476392F7
:10242400F9046D398144630D0B008D479304C00397
:102434006308FB009304000563048B0193044004C8
:102444001375C507E30895D8194539313939054558
:10245400213126850D3909453D314931E31C05D625
:1024640069BB91476399F90013056006F536F53E9B
:10247400130590090DB7E38F09D4F154A9BB0000EB
:1024880097110020938101C01741002013010137E3
:102498001305400097E5FF1F938545B617060020F2
:1024A8001306C6FD63FAC5008322050023A0550064
:1024B80011059105E3EAC5FE177500001305C5303F
:1024C80097050020938585FB1386018263FAC50072
:1024D8008322050023A0550011059105E3EAC5FEF6
:1024E8001385018297350020938505F66377B5003B
:1024F800232005001105E36DB5FEFD42739002BC73
:102508008D4273904280930280087390023097E264
:10251800FF1F9382A2AE93E232007390523097F27B
:10252800FF1F9382E22673901234730020303D43DC
:102538002A876373C3029377F700BDEFADE59376FF
:1025480006FF3D8ABA960CC34CC30CC74CC741075B
:10255800E36BD7FE11E28280B306C3408A06970276
:10256800000096966780A6002307B700A306B70069
:102578002306B700A305B7002305B700A304B700D7
:102588002304B700A303B7002303B700A302B700CF
:102598002302B700A301B7002301B700A300B700C7
:1025A8002300B700828093F5F50F93968500D58DAB
:1025B80093960501D58D61B7939627009702000081
:1025C80096968682E78086FA9680C1171D8F3E967A
:1025D800E374C3F8A5B7B7C700409386073023ACA8
:1025E800D186138707202C4B01113795000026CA86
:1025F8004EC652C4B7490020374A0020B7D600401B
:10260800938707101305052206CE22CC4AC823AAB1
:10261800E9C82328DADC23AEF186EF20702C83A7E3
:1026280049C9B74600209386C690374400203747EB
:102638000020B4DF1304C4C91307C7A1F8DF54D0BE
:1026480018D413074006D8CB9306100BD4CFD8D391
:1026580013066009D0D7D8DBD0DFF8C3F4C7370733
:10266800030023A207003D07D8C703A7C187930625
:1026780000043706008254DB54577D16B7050080E6
:10268800F18E3706002ED18E54D75057379500005B
:10269800130585234D8E50D714433706004037095C
:1026A8000F00CD8E14C31443D18E14C323AA07047C
:1026B8000C53EF20F02283A7C187B7063200984B4E
:1026C800137707FC1367E70098CB98431377F7F75E
:1026D80098C398431377F7CF98C398431377F7CFE6
:1026E80098C303270ADD1C47D58F1CC783A749C990
:1026F8001307895D13090908B8CB9120792ACD20E1
:102708008D2283260ADD3707CEFF7D179C46F98F79
:1027180003A7C1879CC61C4393F7F7CF93E707101D
:102728001CC383A749C923040400F240624423A8B8
:102738002705D2444249B249224A05618280B747F7
:10274800002083A707DD13070048B70600F998D7CC
:10275800D85FFD1637060002758F518FD8DFD85F16
:10276800370600400E070D83518FD8DFF84B4576AA
:102778007D16419B13679700F8CBD85F718F15665C
:10278800518FD8DF985B1D661367077098DB985BDD
:10279800518F98DB985B37060700518F98DB985B61
:1027A800370600907D16718F37060010518F98DB21
:1027B800F8473706F9FF7D16619BF8C7F84F718F08
:1027C8004166518FF8CFF84F370690FF7D16718F0D
:1027D80037061000518FF8CFF84FF98EF4CF82806A
:1027E80037470020832707DD41767D16B44BF18EED
:1027F800B4CB944737062000D18E94C7D44793E6CC
:102808000601D4C7D447BD9AD4C70100010001000E
:102818000100832607DD0566DC4693E70701DCC671
:10282800DC42D18FDCC283A7C609A183858BE5DF93
:102838000100010001000100832707DD416603A7AD
:10284800C709B44BD18EB4CB9376F701B84B019B33
:10285800558FB8CB9847B706E0FFFD16758F98C718
:102868008280B747002083A707DD41777D17B44FE3
:102878004166F98EB4CF9447D18E94C7D44793F666
:10288800F6EFD4C7D443758FD8C3D44793E6061060
:10289800D4C7D843518FD8C382801D71CEC6B749DB
:1028A800002083A709DD86CEA2CCA6CACAC8D2C496
:1028B800D6C2DAC05EDE62DC66DA6AD86ED6D84383
:1028C8007D7A9306FAFF1377F7EFD8C39857017408
:1028D8001304F40F758F98D7D857B7060200B16460
:1028E8003D9BD8D79847356BB96B558F98C7D84358
:1028F800794CF54C13670701D8C3D843714D799BC0
:10290800D8C3945FE18EC58E94DFD8439384046066
:1029180013671700D8C397E0FF1FE780C0E083A7BD
:1029280009DD83A6070993FAF60383A64709A98256
:1029380013F7F6073AC4D843799BD8C3985F618FD9
:10294800458F98DFD84313671700D8C397E0FF1F58
:10295800E78060DD83A709DD93060BC0130B0B30FE
:1029680003A807091379F80303A847091358A8000F
:102978001377F8073AC6D843799BD8C3985F618F15
:10298800558F98DFD84313671700D8C397E0FF1F08
:10299800E78060D983A709DD83A8070993F4F803C2
:1029A80083A8470993D8A80013F7F8073AC8D8436B
:1029B800799BD8C3945F13870B70938B0BD0E18EF0
:1029C800D98E94DFD84313671700D8C397E0FF1F49
:1029D800E78060D583A709DD03A507091377F50309
:1029E80003A547093ACA29811377F5073ACCD84392
:1029F800799BD8C3985F618F3367770198DFD84395
:102A0800CD4B13671700D8C397E0FF1FE780A0D10D
:102A180083A709DD03A70709937DF70303A74709E0
:102A280029831377F7073ACED843799BD8C3985FA1
:102A3800798C3364640180DFD84313671700D8C3E7
:102A480097E0FF1FE78020CE83A709DD130550021A
:102A58001303FA0F03AB070903A4470903A7070ADF
:102A6800137BFB03B3866A4113F6F600419B518F33
:102A780023A0E70A130760023387E60213067002F1
:102A880083A5070A13084002C57F93F5F5F0FD1FDB
:102A980093083002370FF1FF7D1F3347C702130E2B
:102AA8002002B70E10FFFD1E93021002FD43D54A07
:102AB80029801374F4073D8B12074D8F23A0E70A72
:102AC8003387A60283A5070AB3F565003347C70213
:102AD8003D8B22074D8F23A0E70A3387060383A582
:102AE800070A330869413949B3F5F5013347C70285
:102AF8003D8B32074D8F23A0E70A3387160383A542
:102B0800070ADD48B3F5E5013347C7023D8B4207A5
:102B18004D8F23A0E70A3387C60383A5070A370E1C
:102B280000F17D1EB3F5D5013347C7023D8B52072F
:102B38004D8F23A0E70A3387560283A5070AB702F9
:102B48000010FD12B3F5C5013347C7023D8B62077C
:102B58004D8F93955600B3C5C50223A0E70A03A776
:102B6800070A33775700F2054D8FB385760223A005
:102B7800E70A03A7470AD943419BB3C5C502BD89E4
:102B88004D8F23A2E70A3387860383A5470A154C8E
:102B980093F5F5F03347C7023D8B12074D8F23A2FB
:102BA800E70A3387960383A5470AA94CB3F565005E
:102BB8003347C7023D8B22074D8F23A2E70A33878D
:102BC800A60383A5470AB3F5F5013347C7023D8B32
:102BD80032074D8F23A2E70A6D473387E60283A5A4
:102BE800470AB3F5E5013347C7023D8B42074D8FCE
:102BF80023A2E70A03A7470A9375F800D20533779B
:102C0800D7014D8FE54523A2E70A3307B802E94506
:102C180003A5470A3375C5013347B7023D8B6207E1
:102C2800498F61453305A80223A2E70A03A7470A8B
:102C3800337757003345B5027205498F33051803BA
:102C480023A2E70A03A7870ABD48419B3345B5027B
:102C58003D89498F23A4E70A3307780203A5870A29
:102C6800D1431375F5F03347B7023D8B1207498FEF
:102C780023A4E70A3307580303A5870A33756500B9
:102C88003347B7023D8B2207498F23A4E70A33074E
:102C9800780203A5870A3375F5013347B7023D8BE0
:102CA8003207498F23A4E70A3307780303A5870A65
:102CB800A54B3375E5013347B7023D8B4207498F72
:102CC80023A4E70A49473307E80203A5870A3375AF
:102CD800D5013347B7023D8B5207498F454523A499
:102CE800E70A3307A80203A5870A3375C5013347E6
:102CF800B7023D8B6207498F131548003345B5026B
:102D080023A4E70A03A7870A337757007205498F78
:102D18003305180323A4E70A03A7C70AB388644145
:102D2800B144419B3345B5023D89498F23A6E70A43
:102D38003307280303A5C70A1375F5F03347B7020D
:102D48003D8B1207498F23A6E70A03A7C70A13F585
:102D5800F800220533776700498F23A6E70A3387EF
:102D68009802354503A9C70A3379F9013347A70201
:102D78003D8B32073367E9002D4923A6E70A3387DD
:102D8800280383A9C70AB3F9E9013347A7023D8B92
:102D9800420733E7E90023A6E70A3387980383A9A4
:102DA800C70AB3F9D9013347A7023D8B520733E766
:102DB800E90023A6E70A3387780383A9C70AB3F98A
:102DC800C9013347A7023D8B620733E7E9009399AE
:102DD8003800B3C9A90223A6E70A03A7C70A3377AD
:102DE8005700F209336737019D49338A380323A610
:102DF800E70A03A7070B419B334AAA02137AFA0092
:102E080033674701194A23A8E70A3387480383AA87
:102E1800070B93FAFAF03347A7023D8B120733E703
:102E2800EA0023A8E70A3387880383AA070BB3FAC3
:102E38006A003347A7023D8B220733E7EA0023A83D
:102E4800E70A139728003347A70283AA070BB3FAA8
:102E5800FA013D8B320733E7EA008D4A23A8E70AD7
:102E68003387580303AD070B337DED013347A702C2
:102E78003D8B42073367ED0023A8E70A1397180034
:102E88003347A70203AD070B337DDD013D8B5207A6
:102E98003367ED0033CDA80223A8E70A03A7070B81
:102EA8003377C701137DFD00620D3367A70123A89F
:102EB800E70A03A7070B3377570023A8E70A330766
:102EC800BB41B34D770203AD470B137D0DFFB30A2A
:102ED800570393FDFD00336DBD0123AAA70B03AD76
:102EE800470BC94D137DFDF0B34C9703B3CA7A0263
:102EF80093FCFC00920CB36C9D0123AA970B83AC46
:102F0800470B714DB3FC6C00334C870393FAFA00FE
:102F1800A20AB3EA5C0123AA570B83AA470BF54C14
:102F2800B3FAFA01330A4703137CFC00320C33EC82
:102F38008A01914A23AA870B03AC470B337CEC0127
:102F4800B34A5703B309370393FAFA00C20AB36ABC
:102F58005C0123AA570B83AA470B794CB3FADA0111
:102F6800334A7A02B3C97902137AFA00520A33EA69
:102F78004A0123AA470B03AA470B337ACA01B30BAA
:102F8800770393F9F900E209B3693A01131A370094
:102F980023AA370B83A9470BB3F95900334A7A029E
:102FA800B3CB7B02720AB3E9490123AA370B83A981
:102FB800870B93F909FF3309270393FBFB00B3EB56
:102FC8007901894923AC770B03AA870BCD4B137A78
:102FD800FAF0B34A3703B304970293FAFA00920A55
:102FE800336A5A0123AC470B03AA870BD54A337AB5
:102FF8006A00334979023305A7021379F9002209D7
:1030080033692A0123AC270B03A9870B594A337963
:10301800F901B3C4740233457502BD88B204B364C0
:10302800990023AC970A83A4870B3949B3F4E401C8
:103038003D894205458D23ACA70A3305270383A4A0
:10304800870BB3F4D401334575023D895205458D8C
:10305800BD4423ACA70A3305970283A4870BB3F4B6
:10306800C401334575023D896205458D93144700B7
:10307800B3C4740223ACA70A03A5870B33755500A4
:10308800F204458D23ACA70A45453305A70283A45E
:10309800C70BC198334575023D89458D23AEA70AF4
:1030A8003305B70383A4C70BED4D93F4F4F0334510
:1030B80075023D891205458D23AEA70A33057703AE
:1030C800B343750203A5C70B3375650093F3F3008B
:1030D800A203B363750023AE770AD24B83A3C70B51
:1030E80033057B41B3493503B3F3F301FD4BB30417
:1030F800550393F9F900B209B3E933019303800248
:1031080023AE370B03A9C70BDD49930A10023379A5
:10311800E901B3C47402BD88C20433699900B304D9
:10312800450323AE270B03A9C70B130A20023379E3
:10313800D901B3C47402BD88D20433699900B304B9
:10314800350323AE270B03A9C70B93093002337944
:10315800C901B3C47402BD88E2043369990023AE7F
:10316800270B6149B304250303A9C70B3379590019
:10317800B3C47402F20433699900E544B3049502B8
:1031880023AE270B03A9070C137909FFB305B50272
:10319800B3C47402B3C57502BD88B364990023A093
:1031A800970C83A4070C1309400293F4F4F0BD892B
:1031B8009205C58D23A0B70CB305B50383A4070CEE
:1031C800B3F46400B3C57502BD89A205CD8CB305FF
:1031D800A50323A0970C83A4070CB3F4F401B3C58B
:1031E8007502BD89B205CD8CB305950323A0970C54
:1031F80083A4070CB3F4E401B3C57502BD89C20505
:10320800C58D23A0B70CB305850383A4070CB3F4BD
:10321800D401B3C57502BD89D205C58D23A0B70CED
:10322800B305750383A4070CB3F4C401B3C57502D1
:10323800BD89E205C58D93145500B3C4740223A05B
:10324800B70C83A5070CB3F55500F204C58D23A070
:10325800B70CB305550383A4470CC198B3C57502D1
:10326800BD89C58D23A2B70CB305450383A4470CBC
:1032780093F4F4F0B3C57502BD899205C58D23A2F8
:10328800B70CB305350383A4470CB3F46400B3C586
:103298007502BD89A205C58D23A2B70CB305250308
:1032A80083A4470CB3F4F401B3C57502BD89B20514
:1032B800C58D9304500223A2B70CB305950283A4CD
:1032C800470CB3F4E401B3C57502BD89C205C58DC9
:1032D80023A2B70C93056002B305B50283A4470C7B
:1032E800B3F4D4013306C502B3C57502334676027A
:1032F800BD89D205C58D23A2B70C83A5470CA94467
:10330800B3F5C5013D8A62064D8E23A2C70C03A6FC
:10331800470C9315C501337656004D8E23A2C70C72
:10332800130690023306C50283A5870CC19933465C
:1033380076023D8A4D8E23A4C70C1306A0023306DD
:10334800C502B343760203A6870C1376F6F093F30F
:10335800F3009203B363760023A4770C624683A339
:10336800870C3306C440B3059602B3F36300B3C5B4
:10337800A50293E58500BD89A205B3E5B30023A4A2
:10338800B70CA545B303B60203A9870C3379F90135
:10339800B3C3A30293E3830093F3F300B203B363CD
:1033A800790023A4770C93133600B3C3A30203A9AF
:1033B800870C3379E90193E3830093F3F300C203A5
:1033C800B363790023A4770C9D433309760283A95C
:1033D800870CB3F9D9013349A90213698900137914
:1033E800F900520933E9290123A4270D19493306A5
:1033F80026033345A60203A6870C3376C601136558
:1034080085003D896205518D23A4A70C7246154598
:1034180003AA870C3306C440B309A602337A5A00BC
:10342800B3C9E90293E98900F209B3693A0123A40F
:10343800370D93192600B3C9E90203AAC70C137AFA
:103448000AFF93E9890093F9F900B3693A0123A6C1
:10345800370D8D49330A360383AAC70C93FAFAF05D
:10346800334AEA02136A8A00137AFA00120A33EA24
:103478004A0123A6470D131A1600334AEA0283AA03
:10348800C70CB3FA6A003347E602136A8A00137A54
:10349800FA00220A33EA4A0123A6470D03A6C70CFD
:1034A8003376F601136787003D8B3207518F23A6C9
:1034B800E70C03A7C70C3377E70123A6E70C4247BD
:1034C800018F334617033D8A131A460103A6C70C1A
:1034D8003376D6013366460123A6C70C13161700A8
:1034E8003307370303AAC70C337ACA0133461603D6
:1034F800B34817033D8A62063366CA0023A6C70C81
:1035080003A7C70CB3725700F208B3E8120123A649
:10351800170D3247018F3305A702131627003346CC
:103528000603330927039378F60003A6070D419A8B
:103538003366160123A8C70C03A6070D33450503F8
:103548001376F6F0334809033D891205518D23A8F7
:10355800A70C03A7070D337367001378F800220838
:103568003368030123A8070D224703A6070D018F1F
:10357800B3037702B37FF601131637006204B3C3AF
:10358800D302B305B70293F3F300B203B3E37F00AA
:1035980023A8770C03A5070D337FE5013346D60230
:1035A800B30497023D8A42063366CF0023A8C70CAE
:1035B80003A6070DB37ED601B3C5D502B3C6D402A0
:1035C800BD89D205B3E5BE0023A8B70C03A7070D34
:1035D800337EC701BD8AE206B366DE0023A8D70C96
:1035E800D84385663D9BD8C3D843799BD8C39857A1
:1035F800558F98D7D857B7060081FD16136707016E
:10360800D8D7985F137707FC336B670123AC670340
:10361800985F758F598C80DFD84313670710D8C31C
:10362800F6406644D6444649B649264A964A064B69
:10363800F25B625CD25C425DB25D2561828091473B
:1036480063ECB702A5679387C7258A05BE959C4199
:103658008287B717004003A7470B1345F5FF698F0B
:1036680023AAE70A03A7070B698F23A8E70A03A77A
:10367800070A798D23A0A70A8280B717004083A67E
:10368800470B1347F5FFF98E23AAD70A83A6070B22
:10369800558D23A8A70A83A6070A758F23A0E70AD2
:1036A8008280B717004003A7470B498F23AAE70A70
:1036B80003A7070B1345F5FF45BFB717004083A6BF
:1036C800470B1347F5FF758F23AAE70A03A7070AD5
:1036D800598D4DB7B717004003A7470B498FEDB772
:1036E800914763ECB702A567938707278A05BE95BC
:1036F8009C418287B717004003A7470D1345F5FF84
:10370800698F23AAE70C03A7070D698F23A8E70C85
:1037180003A7070C798D23A0A70C8280B717004058
:1037280083A6470D1347F5FFF98E23AAD70C83A666
:10373800070D558D23A8A70C83A6070C758F23A00A
:10374800E70C8280B717004003A7470D498F23AACB
:10375800E70C03A7070D1345F5FF45BFB717004052
:1037680083A6470D1347F5FF758F23AAE70C03A718
:10377800070C598D4DB7B717004003A7470D498F60
:10378800EDB7B717004003D7870109C5D98D239C2A
:10379800B700828093C5F5FFF98DD5BFB7170040F4
:1037A8008847420541819377050491EB9377F501AA
:1037B8003755E801130505803345F5028280937774
:1037C800050C130700046397E7009377F501374565
:1037D8009C1CCDB72165130505D0828081473737FA
:1037E8000040A14663C4C700328582800345B70004
:1037F800E38EA6FE3385F5000345050085072304FF
:10380800A700CDB737370020130787881C43B75662
:1038180000209386C6443E95636BD500B7660020AA
:103828009386066063E5A60008C33E858280FD573F
:10383800EDBF411122C406C62A848D372947B30734
:10384800E502B2408D83B3D7870222449507B3D7E8
:10385800E70237370040C207C1832316F70041014A
:103868008280716541111305052006C6D937B7371F
:103878000040130770F82381E7000D47A381E70094
:1038880013070004A380E70005472387E700B24039
:1038980041018280411122C406C62A840137294782
:1038A800B307E502B2408D83B3D787022244950758
:1038B800B3D7E70237370040C207C1832316F74062
:1038C80041018280716541111305052006C6D9376B
:1038D800B7370040130770F82381E7400D47A381ED
:1038E800E74013070004A380E74005472387E74024
:1038F800B2404101828037370040834727401A058C
:1039080093F7F703C98F93F7F70F2301F7408280E6
:10391800B737004003C7174019C9D98DA380B740EE
:1039280003C70740136787002380E740828093C559
:10393800F5FFF98DA380B74082808147B7360040F4
:1039480003C7A6401396070141821377F70F19E3BF
:103958003285828003C686403307F5008507230039
:10396800C700F9BFB7870040238007001307C0FCD2
:103978002386E700A386E700374700200357C7DD03
:1039880089462398E70037470020035707DE239A24
:10399800E70037470020035747DD239CE7003747F8
:1039A8000020035787DD239EE7002381D70249477C
:1039B8002383E7022385E7022387E7022389D702C7
:1039C800A3810700130790022380E700B716004081
:1039D80003D7A6011367070C239DE6007D572383B1
:1039E800E700130710F8A380E7001D472381E700CD
:1039F800828010C90CC14CC10CC5232A0500B295A0
:103A08004CC510CD8280000037081000130101FE5C
:103A18001308F8FF3377B800232A91003378D800C9
:103A280093D4450113D34601131E370023263101D1
:103A38001357D501131838009357D60193F4F47F20
:103A48001373F37F232E1100232C810023282101D7
:103A580093D9F50193DEF6013367C701131F3500CB
:103A680033E80701931F3600338E64406384D91D01
:103A78006358C017630A0320B70680009307F07FD6
:103A88003368D800638EF4409307800363CAC73D48
:103A98009307F00163C6C755130500023305C541F6
:103AA800B3D7CF01B316A8003399AF00B3E6F60039
:103AB80033392001B357C80133E926013307F740EA
:103AC80033092F41B3372F013306F7409317860088
:103AD80063D2072A370780001307F7FF3374E6001D
:103AE800630E043413050400EF009029130785FFC3
:103AF80093070002B387E740B357F9003316E40091
:103B0800B3E7C7003319E900634C97303305974092
:103B1800130615001307F0016346C7441307000294
:103B28003307C740B356C9003319E9003397E70094
:103B38003367D700333920013369270133D6C700EB
:103B48009304000093777900638007021377F900E4
:103B580093074000630AF700130749003339270128
:103B680033062601130907009317860063D8072038
:103B7800138514009307F07F93850900630CF524DF
:103B8800B70780FF9387F7FFB377F6009398D701BD
:103B98001359390093979700B3E8280193D7C700C2
:103BA8001375F57F9396C700131545018320C1014E
:103BB8000324810193D6C6009395F501B3E6A600C8
:103BC800B3E6B60083244101032901018329C1001A
:103BD8001385080093850600130101026780000021
:103BE80063140E0C138314001373E37F631003280C
:103BF800B367E701B368F8016396041E6380074C56
:103C0800638808503309FF41B307074133362F0152
:103C18003386C7409317860063D4075A3389EF4128
:103C2800B307E84033B62F013386C74093890E00A7
:103C38006FF05FF1635AC00F6308030CB70680008A
:103C48009307F07F3368D800638EF44493078003AA
:103C580063CCC7159307F00163DAC73F13090EFE5B
:103C680093070002B3562801630AFE0013090004F3
:103C78003309C94133192801B3EF2F013339F00152
:103C88003369D9006F00C012B367F8016386072251
:103C98009307FEFF638407449306F07F6302DE20E8
:103CA800138E07006FF05FDEB30593406396042818
:103CB800B367E7016382073C9387F5FF638C07507E
:103CC8009306F07F6382D5289385070093078003C6
:103CD80063CEB7329307F00163C2B74A9307000275
:103CE800B387B7403319F700B356BF00B317FF00C7
:103CF8003369D900B337F0003357B7003369F90097
:103D08003308E8406F000031B367F8016384073E69
:103D18009307FEFF638207289306F07F6304DE386B
:103D2800138E07006FF09FF263160E1A9386140025
:103D380093F7E67F639A073EB367E701639E04340F
:103D48006388074AB367F8016384073C3309FF01B6
:103D5800B3070701333FE9013386E701931786006C
:103D680063DA0700B70780FF9387F7FF3376F6001B
:103D78009304100093777900E39A07DC9317D60130
:103D880093583900B3E8F800935736001307F07FCB
:103D9800638AE4069397C70093D7C70013F5F47FA7
:103DA800938509006FF01FE03369F801333920016A
:103DB8003309E901B337E9013386E7009317860031
:103DC800E3DA07FA938414009307F07F6396F41EEE
:103DD800938509001305F07F9307000093080000FE
:103DE8006FF05FDC639C070A63840846931636000D
:103DF8009317D80193D63600B3E8D70093890E00FD
:103E080093573800B3E7F800E38407FC93050000F4
:103E18001305F07FB7070800930800006FF09FD8DC
:103E2800370680FF1306F6FF33F6C700937779004D
:103E3800B384E440E39C07D06FF05FF413050900F6
:103E4800EF000074130785019307F001E3D2E7CA76
:103E5800130685FFB317C900130900006FF0DFCA06
:103E68003369F801333920016FF09FC53309FF41E9
:103E78003306074133342F013304864093178400F7
:103E880063CC072CB3688900E39C08C4930700003F
:103E980093090000930400006FF0DFEFE39808F641
:103EA800131535009317D70113553500B3E8A7004C
:103EB800935737006FF01FF5131535009317D70187
:103EC80013553500B3E8A70093040E009357370045
:103ED8006FF0DFEB33059340638A0414B706800064
:103EE8009307F07F3367D7006306F338930780039F
:103EF80063C0A7289307F00163C6A732930700029F
:103F0800B387A7403319F700B356AF00B317FF00C4
:103F18003369D900B337F0003357A7003369F90084
:103F28003308E8003309F901B337F901338607018B
:103F3800930403006FF09FE8B70680009307F07FB3
:103F48003367D700E314F3D89317360093D73700B5
:103F58009318D801B3E8170193890E0093573800D6
:103F68006FF05FEA130715FE9306000233D7E700E8
:103F7800630AD600930600043386C6403396C7000A
:103F88003369C900333920013369E9001306000099
:103F9800930400006FF01FDE3309FF01B307070128
:103FA8003336E9013386C70093178600930410005F
:103FB800E3D207DC93042000B70780FF9387F7FF5D
:103FC800B377F600135719001379190033692701DD
:103FD8009398F70133E9280113D617006FF09FB6BD
:103FE80013090EFE93070002B3562801630AFE0068
:103FF800130900043309C94133192801B3EF2F010C
:104008003339F0013369D9006FF09FAB3369E701A9
:104018003339200133892F41B3B72F013306F840D4
:104028009304030093890E006FF05FAAB367E7015A
:10403800638C071C9307F5FF638407229306F07FC0
:104048006304D516138507006FF05FEA9307000233
:10405800B387C741B316F8003399FF0033D6CF01B1
:10406800B3E6C60033392001B357C80133E9260146
:104078003307F7006FF0DFD39317360093D7370075
:104088009318D801B3E817019384050093573800B3
:1040980093890E006FF09FCF638807103369F8018A
:1040A800E31609D6131535009317D70113553500B4
:1040B800B368F500935737006FF0DFD463860810B4
:1040C800931636009317D80193D63600B3E8D70075
:1040D80093890E00935738006FF0DFCB3309FF4107
:1040E800B3070741333F2F013386E741930410009C
:1040F8006FF0DF9D131535009317D7011355350061
:10410800B368F50093040E00935737006FF01FC88B
:10411800131535009317D70113553500B3E8A700D9
:10412800935737006FF01FC79307F07FE382F6CAF3
:104138003309FF013336E901B3070701B387C70025
:104148009398F7011359190033E9280113D617007A
:10415800938406006FF01FC23389EF413307E840AC
:1041680033B62F013304C74093890E006FF05F9771
:104178003369E701333920016FF0DFDA938705FEF1
:1041880093060002B357F700638AD500930600042C
:10419800B385B6403317B700336FEF003339E0010A
:1041A8003369F9006FF01FE79317360093D737008C
:1041B8009318D801B3E81701935738006FF09FC4DC
:1041C800B368C900E39808BA930700009309000090
:1041D8006FF05FBC3389EF41B307E84033B62F0176
:1041E8003386C74093890E00930410006FF01F8E2A
:1041F800931636009317D80193D63600B3E8D70044
:10420800935738006FF01FB9931636009317D801EB
:1042180093D63600B3E8D7009304050093573800C7
:104228006FF0DFB6930705FE93060002B357F70059
:10423800630AD500930600043385A6403317A70008
:10424800336FEF003339E0013369F9006FF09FCD28
:10425800930500001305F07FB70708006FF09F94DF
:104268003309FF01B30707013336F9013386C70065
:104278006FF09FD3931636009317D80193D6360064
:10428800B3E8D700935738006FF0DFB713577501BD
:104298001377F70F130101FF9307170023248100F9
:1042A80023229100131495002326110093F7E70F9A
:1042B800135494009354F501638207049357340010
:1042C800130707381314D4019397C700131747012E
:1042D80093D7C7001395F401B3E7E700B3E7A70046
:1042E8008320C100130504000324810083244100B6
:1042F800938507001301010167800000631207041A
:104308006308040613050400EF0080279307A00044
:1043180063C6A7061307B0003307A74093075501E4
:104328003357E4003314F4009317C7001307903889
:104338003307A74093D7C7001377F77F6FF0DFF8ED
:104348006302040213573400B7070800B367F70085
:104358009397C7001314D40193D7C7001307F07FAE
:104368006FF09FF61307F07F930700006FF0DFF5FB
:1043780013070000930700006FF01FF5130755FFA0
:104388003317E400130400006FF01FFA93D64501B9
:104398009397C50093F6F67F93D7C7001386160048
:1043A800939737001357D5011376E67F93D5F50118
:1043B8003367F700931835006304060A138806C8A4
:1043C8009307E00F63D40703930700001395970042
:1043D8009306F00F93967601135595009395F50182
:1043E8003365D5003365B50067800000635E000F54
:1043F8009317650013173700B337F000B3E7E700EA
:1044080093D8D801B3E7170113F7770063060716A7
:1044180013F7F700930640006304D700938747001B
:104428003707000433F7E700630807141307180079
:104438001306F00F9376F70FE308C7F89397670012
:1044480093D7970013959700939676011355950087
:104458009395F5013365D5003365B5006780000095
:10446800B3671701639A0602638E07049307500027
:104478009397670093D797001395970093F6F60FD5
:1044880093967601135595009395F5013365D500FC
:104498003365B50067800000E38807F2B70740007E
:1044A800139597009306F00F9396760193050000F5
:1044B800135595009395F5013365D5003365B5001F
:1044C800678000009307000013959700930600008B
:1044D80093967601135595009395F5013365D500AC
:1044E8003365B50067800000930790FE6342F806C5
:1044F8009307E00137068000B38707411305F001F1
:104508003366C700635AF5041307E0FF3307074112
:10451800130500023357E6006388A700938626CA6E
:10452800B316D600B3E8D800B3371001B3E7E700F5
:1045380013F7770013080000E31C07EC13975700E4
:1045480093061000E34C07EE930600006FF05FF24D
:10455800930600006FF09FF1938626C83397D80022
:104568003337E000B316D600B3D8F800B367D700E6
:10457800B3E7F8006FF0DFFB930608006FF05FEF1A
:10458800B70701006374F5049307F00F13070002DF
:1045980063EEA70097570000938707D5B387A70056
:1045A80003C507003305A740678000001355850041
:1045B80097570000938747D3B387A70003C5070021
:1045C800130780013305A74067800000B707000183
:1045D8006362F50213558501975700009387C7D08A
:1045E800B387A70003C50700130780003305A7405A
:1045F8006780000013550501975700009387C7CEC1
:10460800B387A70003C50700130700013305A740B8
:104618006780000001476314E60001458280B30704
:10462800E5000507B386E50083C7070083C6F6FFE4
:10463800E383D7FE3385D7408280B3C7A5008D8B2F
:104648003307C50081E78D4763EEC700AA8763700B
:10465800E50A83C6050085078505A38FD7FEE3EA2B
:10466800E7FE828093763500AA8791CA83C6050043
:1046780085078505A38FD7FE93F63700FDB7937698
:10468800C7FF138606FE63F0C70683A3050083A24F
:10469800450083AF850003AFC50083AE050103AEB7
:1046A800450103A3850183A8C5019385450223A07D
:1046B800770003A8C5FF23A2570023A4F70123A668
:1046C800E70123A8D70123AAC70123AC670023AEBB
:1046D80017019387470223AE07FF75B790419107EB
:1046E800910523AEC7FEE3EBD7FEE3E4E7F682804D
:1046F800797122D44AD052CC56CA5AC806D626D284
:104708004ECE3A8AAE8A32843689428B0147635844
:104718000600370700803344C7001307D002238000
:10472800E70093F4F8FD930760048D466388F4006E
:104738009307500489466393F4000509DA879308C0
:10474800C100130881004A87D6852286EF003032DF
:1047580093077004AA896396F400137A1A00630A0F
:104768000A0493076004338A29016397F40203C794
:10477800090093070003631EF7000146814656852A
:10478800A285EF30E03611C58547338927412320BC
:104798002B0183270B003E9A014681465685A28548
:1047A800EF30003511E152C613070003B24763E248
:1047B8004703B2474257B2502254B38737411CC30C
:1047C8004E8592540259F249624AD24A424B456197
:1047D80082809386170036C62380E700C1BF230076
:1047E800C500130725009307B00263D60500B3057B
:1047F800B0409307D002A300F500A54763DAB704D9
:1048080041119307F100BE88294813033006B3E627
:1048180005031386F7FF93860603A38FD7FEB3C657
:104828000503634DB30093860603F917A30FD6FE5D
:1048380063E917013305A74041018280B287B68535
:10484800F9B7850783C6F7FF0507A30FD7FECDB7CE
:104858009307000313074500938505032301F5001B
:10486800A301B5003305A740828019713ACE86DED0
:10487800A2DCA6DA2E84CAD8CED6D2D4B689DAD0AB
:10488800DECEE2CC3289D6D2E6CAEAC8EEC6AA841F
:10489800EF107001832B05005E85EF009008032B55
:1048A8000400724702DC93760B102A8C034A8401B9
:1048B8001C43F1CA9386470014C39C4308109843CD
:1048C8003AD0D8433AD298473AD4DC473ED6EF405C
:1048D800E05B28C46CC4832CC4041757000013077A
:1048E800E7B0832A8404032D0700832D470093979C
:1048F8001C0085836A86EE865685BE853ECEEF40CF
:10490800603441EDF2476A86EE865685BE85EF3003
:10491800E0356354A008014681465685E685EF30A8
:10492800E034635605009307D002A301F40493070B
:104938007004975A0000938AEAAB63F64701975AC6
:104948000000938A6AAB137BBBFF8D472320640169
:104958001CC8014B4E87CA867018A2852685F12689
:10496800FD5C631C95157D55F6506654D654465922
:10497800B659265A965A065BF64B664CD64C464DA7
:10498800B64D096182809D07E19B9386870014C319
:104998009843DC4338C47CC43DBF5686E6865685BA
:1049A800E685EF40202A11CD93077004975A00003E
:1049B800938ACAA4E3F947F9975A0000938A4AA44C
:1049C80059B75C407D57137DFA0D6393E708994703
:1049D8005CC0544013670B403C18D6853EC018C0D5
:1049E8009307310302C2D2881308410366862685DD
:1049F800013393077004AA8AD255631BFD00F5574B
:104A080063C5F5005C4063D7B708791A137AFA0FC3
:104A18009307500663E54705FD15528613050405FF
:104A28002EDA753B625785462A8BB307A7001CC848
:104A380063C5E6001840058B19C385071CC8834762
:104A48003103E38907F09307D002A301F40419B7EF
:104A580013077004E31FEDF6ADFF854795BF930775
:104A68006006631BFA025C40635BB0000CC881E718
:104A78001840058B09CF8507AE971CC809A889E798
:104A880018408546058B19C39386270014C82CCC7B
:104A9800014B75B7130A7006E25763C9F5001C404D
:104AA8000CC8858BEDD793871500C1BF05476344B4
:104AB800B00009470D8FBA97C9B71C4013F70740D4
:104AC80015E314485686CA8526858299E30D95E92B
:104AD8001C40898B63960724F2574844E356F5E84F
:104AE8003E8559B513075006637B471928446C4423
:104AF80001468146EF20D07F39E9854617560000E8
:104B080013064690CA8526858299E30E95E5525785
:104B1800E2576345F7001C40858BDDDBE2865E8645
:104B2800CA8526858299FD57E30FF5E2014A930A63
:104B3800A4017D5BE257FD17E35CFAF885465686CB
:104B4800CA8526858299E30065E3050AE5B7D25749
:104B58006346F0068546175600001306A68ACA85DE
:104B680026858299E30195E1D2576257D98F81E76B
:104B78001C40858BB1DFE2865E86CA8526858299D0
:104B8800FD57E302F5DE014A130BA401FD5BD25782
:104B9800B307F040634BFA00E2565686CA8526856D
:104BA8008299FD57E316F5F27DBB85465A86CA857C
:104BB80026858299E30975DB050AD1BF3C4C625A08
:104BC80063D347013E8A635A4001D2865686CA8516
:104BD80026858299FD57E308F5D8814C130DA40169
:104BE800FD5D09A885466A86CA8526858299E30CF3
:104BF800B5D7850C032B8405D28763530A008147F8
:104C0800B307FB40E3C0FCFE5257E257634DF7027F
:104C18001C40858B8DEBE2575257338AE74063443B
:104C2800EB00338A6741635B4001D28633866A01B1
:104C3800CA8526858299FD57E307F5D2814A130B69
:104C4800A401FD5B15A0E2865E86CA852685829949
:104C5800FD57E312F5FC01BB85465A86CA852685B1
:104C68008299E30275D1850A5257E257998F528784
:104C780063530A000147998FE3C0FAFE91BDE256DB
:104C880005476344D700858BB5C785465686CA85D0
:104C9800268582997D5AE30845CDE2865E86CA85D7
:104CA80026858299E30145CD28446C440146814616
:104CB800EF2010641DC9E25613861A00CA85FD1636
:104CC80026858299E30145CBDA8613060405F9B5F2
:104CD80085465686CA8526858299E30675C9050ADA
:104CE800E257FD17E346FAFEC5B7014A930AA40145
:104CF800FD5BFDB785465686CA8526858299E315EC
:104D080095FD95B185465686CA8526858299E30C18
:104D180065C5050A5C447257998FE345FAFE6DBB79
:104D2800014A930A94017D5BF5B7797156CA9C498B
:104D3800BA8A984522D426D24ECE52CC06D64AD02C
:104D48005AC85EC6AA892E84B284368A63D3E7001D
:104D5800BA879CC00347340419C385079CC01C400C
:104D680093F7070281C79C4089079CC00329040068
:104D780013796900631A0900130B9401FD5B5C4405
:104D88009840998F634CF9041C408346340493F788
:104D98000702B336D000A5EB13063404D2854E853E
:104DA800829AFD576303F5041C4011469840998B7D
:104DB800544481446397C700B384E64063D3040036
:104DC80081441C4418486354F700998FBE940149E4
:104DD80069047D5B63982405014509A885465A86C0
:104DE800D2854E85829A631E75017D55B250225434
:104DF80092540259F249624AD24A424BB24B456137
:104E080082800509ADBF3307D40013060003A30150
:104E1800C7040347540493871600A2978906A38101
:104E2800E7049DBF85462286D2854E85829AE30E89
:104E380065FB050945B7797122D426D24AD04ECEF2
:104E480006D652CC56CA5AC8B68983C68501930776
:104E580090063289AA842E8413863504638DF6025F
:104E680063E2D706930780056388F61863EDD700D9
:104E78006381062293073004638FF60A930A240499
:104E88002301D404D1A0930730066386F60A93075A
:104E98004006E395F6FE1C40084393F60708930581
:104EA8004500CDC61C410CC363D807001307D002C8
:104EB800B307F040A301E404974600009386C65464
:104EC800294775A8930700076384F61663E5D70298
:104ED8009307E006638BF6189307F006E390F6FA5B
:104EE8000C401C4313F8050813854700630808069F
:104EF80008C39C4395A893075007E383F6FE9307DE
:104F08008007638BF61293073007E399F6F61C4384
:104F1800D04181459386470014C383AA070056856C
:104F2800EF10A01A01C53305554148C05C401CC8A4
:104F3800A301040471A81C43930A24049386470020
:104F48009C4314C32301F4048547D5B793F607049B
:104F58001C410CC3B1DAC207C187B9B793F5050480
:104F680008C3C1D983D707001307F0066387E60E85
:104F780097460000938646492947A30104044C40FC
:104F88000CC463C5050008406D9908C099E3B28A4E
:104F980091CDB28AB3F5E702FD1AB69583C505002F
:104FA8002380BA00B3D5E70263FFE70AA147631E6F
:104FB800F7001C40858B91CB58401C4863C7E7001D
:104FC80093070003A38FFAFEFD1A3306564110C853
:104FD8004E87CA867000A2852685813B7D5A631E4E
:104FE800450B7D55B250225492540259F249624AF7
:104FF800D24A424B45618280A382D504974600007D
:10500800938686400C40084313F805081C41110597
:10501800630D080208C313F7150001C793E50502DD
:105028000CC04147B9FB0C4093F5F5FD0CC0B1B776
:105038009C4193E707029CC193078007A302F404ED
:10504800974600009386863D75BF13F8050408C38C
:10505800E30308FCC207C1837DBF9746000093861F
:10506800A63A214719BFAE8735B794411C43CC49AE
:1050780013F80608138547006306080008C39C4315
:105088008CC301A808C393F606049C43F5DA239061
:10509800B70023280400B28A25BF14485686CA855B
:1050A80026858299E30F45F31C40898B8DE7B2472B
:1050B8004844E359F5F23E8535B785465686CA8594
:1050C80026858299E30F65F1050A5C443247998F7A
:1050D800E345FAFEE9BF014A930A94017D5BF5B7FF
:1050E80039713EDA2ED232D436D63AD842DC46DE90
:1050F8009387018122CC804326CA06CEAA8411C494
:105108001C4C81E72285EF00B0620C4454102686BF
:10511800228536C6EF10500BF2406244D24421611A
:105128008280AA87850703C7F7FF6DFF3385A740ED
:105138007D158280011122CC1C49804906CE26CAE1
:105148004AC84EC652C456C263C187127D1413188A
:10515800240093894501338A0901130945014A98B6
:1051680083270A00032708008507B354F7026366FC
:10517800F706C1684E834A8E814E014FFD18110310
:105188000326C3FF110E33771601418233079702B6
:1051980033069602769793560701B3771701B3073C
:1051A800FF4036968326CEFF935E060133761601BE
:1051B80033F71601BA97C18213D70741918EBA9671
:1051C80013DF0641B3F71701C206D58F232EFEFE63
:1051D800E3776AFA83270800BDCBAA8AEF10C03E9E
:1051E8006349050441668504CA8501457D16910910
:1051F80003A8C9FF98419105B376C800158DB37609
:10520800C700AA96935707011358080113D70641F8
:10521800B3870741BA9713D50741F18EC207D58FD7
:1052280023AEF5FEE3753AFD93172400CA97984319
:105238001DC72685F2406244D2444249B249224AF7
:10524800924A056182808327080089E77D147118D6
:10525800E36B09FF00C951B7984309E77D14F117BB
:10526800E36CF9FE23A88A00E9B70145E1B7757137
:105278003ED85C5122C526C34AC1CEDED2DCE2D478
:1052880006C7D6DADAD8DED6E6D2EAD0EECE36C20D
:105298003AC646CAAA842E843289C2892E8A328C9A
:1052A80089EF4145EF00B061C8D0232205002324CF
:1052B80005002320050023260500DC508C4389CDFA
:1052C800D84385472685B397E7009CC5D8C1EF002A
:1052D800D069DC5023A00700635309048547131CD9
:1052E800190023A0F900135C1C00B707F07F33777F
:1052F800FC006314F70642578967320C9387F770EE
:10530800135CCC001CC3336C8C00E3090C30D2470F
:1053180091EB97470000938727173EC039A823A031
:105328000900E1B797470000938707163EC09747E3
:1053380000009387971552471CC3BA402A44024578
:105348009A440A49F659665AD65A465BB65B265CB1
:10535800965C065DF64D496182800146814622854C
:10536800E28522CE62D4EF20A07805E14257854736
:105378001CC3974700009387E7083EC0D247D5DF94
:1053880097470000938717087DB7B800F400628636
:10539800A285268513594C01EF1020351379F97F22
:1053A800AA89A64A630D0910A2577245130919C0A4
:1053B8009395C700B181B707F03FDD8D02DC9747B1
:1053C8000000938727079043D443EF20F07F974747
:1053D80000009387A7069043D443EF20F01897471F
:1053E8000000938727069043D443EFE0EFE12A8B30
:1053F8004A85AE8BEF3090129747000093870705D8
:105408009043D443EF2050162A86AE865A85DE850F
:10541800EFE08FDF2A8BAE8BEF3010082A8401462D
:1054280081465A85DE85EF207004635B050022857E
:10543800EF30D00E5A86DE86EF20806B11C17D14C6
:105448000547D9473AD663E38702131734009747CD
:1054580000009387270CBA979043D4437245A2550E
:10546800EF20D000635305007D1402D633892A410A
:10547800930BF9FF014B63D60B00054B330B2B4104
:10548800814B634E0406A29B22CC814A1247A54752
:1054980063E5E7149547854C63D6E7009307C7FF94
:1054A8003EC2814C12478D47630EF71063CFE70465
:1054B800894702C8630DF70685473EC88DA036495F
:1054C8009307000256991307294363D5E70213058A
:1054D8000004198D930729413315AC003354F400A7
:1054E800418DEF30B00FB70710FEBE9585477D1987
:1054F8003EDCF1B53385E7403315A400DDB7330B47
:105508008B40B30A804002CC51B712479147630ED3
:10551800F70005473AC8124795476306F70AFD574B
:105528003EC4FD5DC94702C619A885473EC8B247B3
:105538006348F00A854705473EC4854D3AC603A926
:105548004402114723220900930647018325490095
:1055580063FCD7082685EF00F038DC502320A9002B
:105568009C433EC0B94763E6B71D63840C1C635E69
:10557800800A9377F40013973700935C4440974769
:105588000000938727F9BA9793F60C0198430949C5
:10559800DC4385C697460000938646F590527245CF
:1055A800D452A2553AD03ED2EF10D05A0257925751
:1055B80093FCFC002A8A2E8C0D49174D0000130D10
:1055C800EDF289A802C8B247A2973EC4938D17008E
:1055D800EE87E346B0F785479DB7854C02C2E9BD23
:1055E800B2473EC4BE8DA1BF85052322B900060778
:1055F800A1BF93F61C0081CE03260D0083264D0023
:105608003A85BE85EF20407605092A87AE8793DC68
:105618001C40210DE39F0CFC3A86BE865285E2852C
:10562800EF1050532A8A2E8C81A0094915CCB30C4F
:10563800804093F7FC001397370097470000938743
:1056480067EDBA979043D4437245A25593DC4C401A
:10565800174D0000130D8DE9EF2000712A8A2E8C5A
:105668008147639C0C12DDFFB25763870714174705
:105678000000130727DE104354435285E28552D0B9
:10568800EF20C05E635A0512638B0D12A247635068
:10569800F00A17470000130767DC8257104354438A
:1056A8003E85E285EF20406CA247130DF4FF2A8A5D
:1056B8002E8C050962874A853EDE52DABA8C3AD0CA
:1056C800EF30C065525802573709C0FC4286BA8687
:1056D800EF208069974600009386C6D89042D4424E
:1056E800528CEFE06FB2F2572A8A2E99E1EF974772
:1056F80000009387A7D7525802579043D443428556
:10570800BA85EF20704C5286CA862A8CAE8CEF2060
:10571800E0466344A054B7070080B3C72701528608
:10572800BE866285E685EF20605463450552724A5D
:10573800225CB64763C7073039476344873013177D
:105748003400974700009387E7DCBA9703AB07005C
:1057580083AB4700B24763D207206340B021639B05
:105768000D4E97470000938767D09043D4435A85DE
:10577800DE85EF20605F5286E286EF202040814A76
:1057880001496354054A824702470504138A1700F2
:10579800930710032300F70069A913F71C0009CB2E
:1057A80003260D0083264D000509EF20E05B8547A1
:1057B80093DC1C40210D75B5228DEE87E5BD228D49
:1057C8008147CDBD9386F7FF1396360097460000B4
:1057D800938646D4B2968842CC428246B6973EDA41
:1057E800C247E9C3974700009387C7C82A86AE8691
:1057F8008843CC434ADE52D0EF10D0350258725756
:1058080017490000130989C54286BA86EF20D03BA4
:10581800024A2AD02ED2E6856285EF30E0472ADE9A
:10582800EF30C04F2A86AE866285E685EF20D039F4
:10583800F2572A8CAE8C2A86AE8602559255050AF6
:1058480093870703A30FFAFEEF2040336348A00EA7
:1058580097470000938707C08843CC436286E68653
:10586800EF2090362A86AE8602559255EF200031F9
:105878006342A018D257E30CFAEA032609008326EC
:10588800490002559255EF20204E03260900832631
:1058980049002AD02ED26285E685EF20E04C2A8C7A
:1058A800AE8C95BF5286CA86EF20004C525A0249E8
:1058B8002AD02ED2E6856285EF30003E2ADEEF3010
:1058C800E0452A86AE866285E685EF20F02F72577E
:1058D800D257050913070703A30FE9FE2A8CAE8CDC
:1058E8006312F906174900001309C9B8032609000D
:1058F8008326490002559255EFE00F912A86AE861D
:105908006285E685EF2080276346A00E02569256F0
:105918000325090083254900EF20102B2A86AE862F
:105928006285E685EF20803493070003E35105E0A4
:105938000347FAFF9306FAFF6304F7006A8459A83D
:10594800368AFDB797470000938747B19043D44301
:10595800EF2080412A8CAE8CB1BFE287BE8C824793
:10596800528C974A0000938A6AAF13891700BE9D2C
:105978005A86DE866285E685EF10D01DEF30C0318D
:105988002A8DEF30A0395A86DE86EF20E03D2A8640
:10599800AE866285E685EF20302393070D03A30FBB
:1059A800F9FE2A86AE864A8A639E2D07EFE0CF85E8
:1059B8005A86DE862A8CAE8CEF20401C634BA002F0
:1059C8005A86DE866285E685EF20801201E59377A8
:1059D8001D0085E3CE852685EF002079C257230078
:1059E8000A00050480C3D247E389079423A047012E
:1059F800A9B2228D130790038346FAFF9307FAFF93
:105A0800639AE6008246639DF60013070003050DBE
:105A18002380E60003C7070005072380E70039BF96
:105A28003E8AD9BF03A60A0083A64A000509EF20CB
:105A3800A033014681462A8CAE8CEF20600B0DF90D
:105A480051BF424763000710924605476345D70C8C
:105A580062579387374309E7264793076003998F6F
:105A6800568DDA8C854526853E9BBE9BEF005008F7
:105A78002A89635E9001635C7001E68763D39B01AA
:105A8800DE87330BFB40B38CFC40B38BFB40638059
:105A98000A04C247C5CF6354A003CA856A8626850F
:105AA800EF00D01A4E86AA852A892685EF00F005D0
:105AB8002ACECE852685EF00406BF247BE89338615
:105AC800AA4111C6CE852685EF005018AA898545BA
:105AD8002685EF00F001E247AA8A635BF0063E865E
