:040000006F20803FAE
:10000400000000000000000090000020C202002058
:10001400A9BDF9F5780300200000000000000000ED
:100024007803002090000020000000000000000081
:10003400900000200000000090000020000000005C
:1000440090000020900000209000002090000020EC
:1000540090000020700B00209000002000000000A1
:1000640090000020900000209000002090000020CC
:10007400DE0300209000002090000020900000206B
:1000840090000020900000209000002090000020AC
:1000940001A04111B7170040985F3AC6945F3247F8
:1000A400E39CE6FE324541018280B7F70700011167
:1000B400944B13078008F337078093F787083EC2F1
:1000C4000F100000B71700401308700523800705C0
:1000D400930580FA2380B7040F10000003C6B70409
:1000E4001376F60DA385C7042380070412467326EE
:1000F40006800F1000001376050255CEF3360780F4
:1001040093F6860836C40F10000023800705238069
:10011400B7040F100000B70614007D89558D88C7F9
:10012400010001000100010023800704A246F3A698
:1001340006800F10000073370780137787083AC6CC
:100144000F100000238007052380B7040F10000060
:100154000F1000003727004093061005A303D78033
:1001640023800704B247F3A707800F10000093070A
:100174008008F3B7078093F787083ECE0F1000007E
:10018400B7170040130770052380E704130780FAAC
:100194002380E7040F10000003C7B70413670708A0
:1001A400A385E70423800704F247F3A707800F1011
:1001B4000000056182801376050459C273360780F6
:1001C4001376860832C80F100000238007052380A9
:1001D400B7040F10000037061400130606047D89C7
:1001E400518D88C70100010001000100238007042C
:1001F4004246732606800F1000007337078013777A
:1002040087083ACA0F100000238007052380B7042B
:100214000F100000A54793F6F60F639EF600B7276C
:10022400004013073005A383E780B71700402380FD
:100234000704D2470DBFB727004013072005E5B7D1
:1002440073370780137787083ACC0F100000238098
:1002540007052380B7040F10000098471367070CA5
:1002640098C723800704E247FDBD0111814601467A
:100274008145114506CE912493078008F3B7078082
:1002840093F787083EC60F100000B7170040130706
:1002940070052380E704130780FA2380E7040F1016
:1002A400000003C76704136717002383E704238050
:1002B4000704B247F3A707800F100000F24005615E
:1002C400828041118146014681451145FD22130773
:1002D4008008F337078093F787083EC40F100000A7
:1002E400B7170040130670052380C704930680FAED
:1002F4002380D7040F100000FD552396B7022380F6
:100304000704A245F3A505800F100000733707808A
:10031400137787083AC60F1000002380C704238090
:10032400D7040F10000003C7670413671700238363
:10033400E70423800704B247F3A707800F100000E7
:1003440001A0BD473305F50201007D1575FD8280CE
:10035400411122C426C206C6AA840144631794002C
:10036400B240224492444101828005041305803E38
:100374004204C13F4180DDB79305000273A045806C
:1003840082457390153492402242B2424243D24392
:100394006244F244025592552256B2564257D257FD
:1003A4006258F25806499649264AB64A464BD64BF5
:1003B400664CF64C065D965D265EB65E465FD65F7D
:1003C4000961730020304111B7170040985F3AC6A5
:1003D400945F3247E39CE6FE324541018280B717C1
:1003E4000040130700032388E702854723AAF18806
:1003F40073002030411106C6EF00502EF5BF2303D1
:10040400048015472303E48001002302A480828032
:1004140083076480E3CE07FE23030480828083077E
:100424006480E3CE07FE03454480828083076480B2
:10043400E3CE07FE2302A4808280411126C44AC26F
:100444004EC006C61377F50BAD47AA892E8995448D
:100454006306F70019456537653F8D444E8545377A
:10046400FD59FD1463983401B240A24412498249F3
:1004740041018280135509011375F50F453F220987
:10048400CDB7011126CC06CEB70408005137154567
:10049400BD37713769372AC6A53F324593771500B2
:1004A40089EB136515001375F50FF240E2440561FD
:1004B4008280FD14E9FC0145CDBF397126DC4ADA9E
:1004C4004ED852D656D45AD25ED006DE62CE66CC10
:1004D400B7E700E07D5783AA070022C603AA4700B6
:1004E40023A0E71823A2E718B717004013077005E5
:1004F4002380E704130780FA2380E70483C74704B3
:10050400930B75FFB684E20793FBFB0F8546AA891C
:100514002E8B328937240040E187015763FA760134
:100524006308D5008946130700026313D5000157F9
:10053400D98F93F7F70FB71C00402382FC041147AF
:100544002303E4801305F00F5D3D094CD135636D41
:100554007C11B7050700DA9537870700795563F2F0
:10056400E504B3879500636EF702370B0800A947CB
:1005740033EB65016399F90689E48144513D26858D
:100584000DA0DA850945553D05090345F9FFFD141C
:10059400050B693D81C49377FB0FFDF7DD3569FDDC
:1005A4007D55B7170040130770052380E704130730
:1005B40080FA2380E70403C74704418B2382E704BE
:1005C400F250B7E700E023A0571123A24711E254E9
:1005D40032445259C259325AA25A125B825B724C4B
:1005E400E24C21618280A5476395F9068569130968
:1005F400F00FB3069900B3742B01B6941349F9FFB5
:10060400B3749900856B33796901416B9387F9FF62
:10061400B3F7270199E363FC340193D94900C14737
:10062400E3E637FF99BF0569C1697D19D9B7130599
:10063400800D638869011305000263847901130541
:100644001008CA85DD3B353D21DD4E99B384344124
:10065400D9B7DA852D45D533CA94E30099F2050953
:100664007D3BA30FA9FED5BF9387F9FF93F7F70F3F
:100674006361FC0C83C71C0413073008631FF70471
:1006840037070800636BEB04B3079B00B706100041
:1006940063F5D704334BEB0089476393F9068980EC
:1006A400D549E38C04ECDA850945413B110903275C
:1006B400C9FF91472320E48003076480E34E07FECB
:1006C40023033481FD17EDFBFD14110B81C49377D3
:1006D400FB0FE9FF7D3371F5E1B5B717004003C7A0
:1006E4005704B70708001377070219E3B787070011
:1006F4007955E378FBEA33079B00E3FFE7F855B548
:100704008547E382F9F2DA852D45053B9389F4FFA9
:10071400E38504E6293393F7390091EB83260480BB
:100724000327090093074900E39AE6E43E89CE844F
:10073400F1BFB5476396F9001305900BC93135BD78
:10074400B1471305B00AE38BF9FE99476391F904A5
:10075400B7050800B365BB002D45C53181448D4BF9
:10076400A149753963967401832704802320F90015
:100774008504E39834FF8327048013172B01635502
:1007840007002312F900D5BB2322F900FDB39D47CE
:100794006399F90281451305B0044531BD44232012
:1007A400090023220900FD599D3993F77400CA9763
:1007B40003C70700FD14398D2380A700E39634FF97
:1007C4006DBBA1476392F9046D398144630D0B003D
:1007D4008D479304C0036308FB009304000563047E
:1007E4008B01930440041375C507E30895D8194594
:1007F400393139390545213126850D3909453D31D0
:100804004931E31C05D669BB91476399F900130587
:100814006006F536F53E130590090DB7E38F09D44C
:10082400F154A9BBBD660147174600001306462EC6
:10083400938606A685458347060093F7F70F91C371
:1008440082800507E3F9E6FE974700002382B72C70
:10085400DDB77D166206618693178601E18763D44E
:10086400070001458280931726003307F500AE97F1
:1008740018439C4363E7E7007D16E37FF7FC7D554F
:10088400828005458280FD15E205E1851397850187
:10089400618793F7F50F63480700FD15139725004B
:1008A4002A97584365D713851700620561858280AE
:1008B4003308B5021C4283A80600B335B502C297BB
:1008C40033B50701AE98469585486367B5006394D0
:1008D400A50063E3070181480C43C6950CC388C295
:1008E4001CC2828081471397870161876343B700E5
:1008F4008280139727002A97232007008507E5B7EE
:100904008147014793968701E18663C5B600133595
:100914001700828093962700AA9694428507558FE4
:10092400D5B793D755408A07AA979C4305453315F5
:10093400B5007D8D8280172300E0E70203BA2A8484
:10094400993705C5931725003E940327C4FF8147B3
:1009540011EB7D1516053E9542054185172300E0F0
:100964006700E3B905838507E5B70145C5BF81473E
:100974001397870161876343C70082801397270019
:10098400B386E50094422A97850714C3D5B77D162C
:1009940062066186014793178601E18763D50700E4
:1009A40013351700828093172600B306F500AE971F
:1009B40094429C437D16B58F5D8FF1BF8A05AA953D
:1009C40001476363B500828083A6C5FFF11593D701
:1009D4001600D98F9CC11397F601E5B72A83014805
:1009E400014701456343D7008280B387050183A88B
:1009F4000700B30706019C43C697AA976384F800CF
:100A040033B517010507B3080301620723A0F800F3
:100A140061871108C1BF2A8301478147014563C328
:100A2400D70082803388E50083280800330EE6006F
:100A3400032E0E003388A8403308C841638408019C
:100A440033B508018507B308E300E20723A00801D2
:100A5400E1871107E9B7172300E0E70203A80111B2
:100A6400B286B2842E86AA850A8575372A84A6851D
:100A74000A85793533348000060413351500018D59
:100A84000561172300E0670083A7172300E0E7024E
:100A940043A24111AA89AE8A328BB68402C202C42F
:100AA40002C60144131C8401135C8C4163499C02FB
:100AB400939B1400FD1B0549138CF4FFF15C330474
:100AC400890162046184634D740592478E04CE9457
:100AD40023AEF4FE4101172300E0670003A11319BC
:100AE4002400B30B2B01014A93172A00D69783A540
:100AF4000B0088437800340050005D3B050A9317CF
:100B04008A01E187F11BE351FCFE92474E990504EB
:100B14002320F900A2473EC2B24702C63EC459B7D9
:100B2400131A8901135A8A41131D240093178A0149
:100B3400E18763CF970092470A044E941CC0A247F2
:100B440005091379F90F3EC2B24702C63EC485BFF8
:100B5400B3079A0313152A00569508417800340008
:100B64005000050AEA97DA978C439933C1B700001D
:100B7400197106C212C416C61AC81ECA22CC26CEC1
:100B84002AD02ED232D436D63AD83EDA42DC46DEE9
:100B9400CAC0CEC2D2C4D6C6DAC8DECAE2CCE6CE59
:100BA400EAD0EED2F2D4F6D6FAD8FEDA9385C1882A
:100BB4008841E700050092402242B2424243D243B8
:100BC4006244F244025592552256B2564257D257C5
:100BD4006258F25806499649264AB64A464BD64BBD
:100BE400664CF64C065D965D265EB65E465FD65F45
:100BF400096173002030B7E700E09843B70620008E
:100C040023A0D718758F0F10000001C599C1814723
:100C140011E6B7E700E023A0E7108280B386F50071
:100C240003C80600B306F500850723800601E31711
:100C3400F6FEC5B737E700E01C43B70620002320C3
:100C4400D718F58F0F10000019C191C111E637E7CD
:100C540000E02320F7108280910503A7C5FF11054A
:100C64007D16232EE5FEDDB737E700E01C43B7060B
:100C740020002320D718F58F0F10000001C533077B
:100C8400C50011E637E700E02320F7108280050550
:100C9400A30FB5FEE31DE5FEF5B781473307F50065
:100CA4000307070019E33E8582808507C5BF37E740
:100CB40000E01C43B70620002320D718F58F0F103F
:100CC400000001C599C1014711EA37E700E023207C
:100CD400F710054582800507E309E6FE3308E500C1
:100CE400B386E5000348080083C60600E305D8FE82
:100CF40037E700E02320F710014582809307F6FFD1
:100D0400BE952A966313C5008280FD1583C715001E
:100D14000505A30FF5FEFDB7AA87014581CF09CECE
:100D24003E96850703C7F7FF6317B700E39BC7FE2B
:100D34000545828082800145828079719747000051
:100D44009387473322D4804306D626D24AD04ECE48
:100D540052CC56CA5AC85EC669C037C9C901014BCC
:100D640097490000938989301309F937174A00001D
:100D7400130A8A30974A0000938A8A2A974400000B
:100D8400938444348357240095E35C44631D0B002F
:100D9400174700002320F72E832BC4002285EF0081
:100DA40010375E84A9A82326FB00FDB783A709009A
:100DB40082971C443307F5406375F500D8401D8FB6
:100DC4002A976361E9089747000023A30726835500
:100DD400240003450400977001E0E78060C15C4093
:100DE4005844B9C70C44D040AE97BE8663E4B700FC
:100DF40063E4C700B386C74014C4228B3A8459F015
:100E0400974700009387C7219C4B09476373F708F2
:100E1400F91717470000232DF720B250225492549B
:100E24000259F249624AD24A424BB24B456182802E
:100E340063170B009747000023AEE722B1BF2326B8
:100E4400EB0099BF03274A021DCF63E1A704338552
:100E5400A7408347040085E317470000034737236F
:100E64005917B307A7003E85D44063E4E70063E461
:100E7400D7003385D74083A70A016376F5009747E7
:100E8400000023A7A71A228B404495BFD840BA97E5
:100E94007DBF9747000023AD071841B7974700006F
:100EA4009387C7219C4385C3411106C68297974700
:100EB400000083C7871B89E79747000023A007200A
:100EC400B240410182809747000083C7071A91E727
:100ED4009747000023A4071E82808280411122C408
:100EE40017440000130484161C4006C626C24AC0D8
:100EF40091C782979747000023AA071497470000D9
:100F040083C79735858B174900001309A93489CF06
:100F14008347790019476312F71097470000A38DA0
:100F240007323D235C4482971C4491C382979744C3
:100F340000009384E4139840174600000346560EBD
:100F44009747000083C7C70D93961700BA9683D6B8
:100F54000600E5C29747000083C7870C63E5C70E08
:100F640097470000238E070A1C40639E0714974787
:100F740000009387A70F9C436387071497470000DB
:100F840093874714DC43174700002323F70A75337C
:100F94009747000083C7B72C639707129747000051
:100FA40083C7D72B91CF8347790093F7F70F89EB4A
:100FB40097470000A384072A977002E0E780A057B0
:100FC400974700009387470BDC53638E070E9747C0
:100FD40000009387E7049C4BFDC7834779001547BE
:100FE4006363F70E9747000083C7472C918BE1EFAB
:100FF4009747000083C76707F9E7904097460000CA
:1010040083C6160263C7D70C2244B24092440249F5
:101014004101177301E067004300834779001D47CE
:10102400E314F7F097470000A388072215211C4812
:10103400DDBD850793F7F70F974600002382F6FE80
:10104400E3E0C7F001BF86073E97835507002310EE
:1010540007009747000023990700974700009387EC
:10106400A7FE9C4317450000034585FB1317250085
:10107400BA979C4382979747000083D7E7FE1747A8
:1010840000000347E7F993C7F7FF7D8D9317170017
:1010940098403E97835707005D8D2310A70097471C
:1010A400000083C7E7F791C78507174700002309A6
:1010B400F7F6174700000347A7F69747000083C7D2
:1010C40037F6E37FF7E8B2402244924402494101F3
:1010D4008280139717003297035707006DF785072F
:1010E40015B737C700408326C720B707FCFFFD1795
:1010F400F58F2326F720010001009747000093870E
:1011040027F2C84F832787262326D7206A0593C74B
:10111400F7FF99835D8D82800111974700009387C3
:10112400E72422CC03A4070C26CA06CE2AC42EC662
:10113400854419E40145F2406244D2440561828049
:101144008347910003471400858B6304F700004430
:10115400CDB719469305A10013052400893EE31871
:1011640095FE0545C9BF0000EFF05FD37300000092
:101174000000000097420000938222EF03830200E4
:1011840023800200630F0300F32510342EC097055B
:1011940000009385A5FD73901534EF00E0507300B3
:1011A400203086DCEF004050E65082800000174774
:1011B40000001307E7091443411122C49C5E4AC08E
:1011C40006C6998326C2858B3A8417490000130901
:1011D400E907D1CB930700069CDE174700000347BD
:1011E400C70793070008974400009384A406631B71
:1011F400F700832709009C4393F70704174700006F
:10120400230DF70483C7040093F707049DC397478E
:1012140000009387A7E59C4382979747000023A982
:10122400A70483C7040093F7F70B174700002303B1
:10123400F70283C7440093F7070495E785471747E8
:101244000000A30BF70097470000938727039C43F4
:101254003707020098C7130700FC97460000238D48
:10126400E6FE9848F8D318401C5F9183858B8DC3A4
:101274001C5F93E707011CDF974700009387070073
:101284009C4323A207068547174700002306F7FC63
:1012940083270900D8430583058B19C7D843759B59
:1012A400D8C3D843799BD8C3B2402244924402495C
:1012B40041018280ED3D730020309317D50063D344
:1012C400070297470000938767FB9C437D57B8D775
:1012D400974700009387C7D4DC4F85071747000062
:1012E400232EF7D4937785009DCB9747000083C7BF
:1012F40087F693E7170017470000230EF7F49307C8
:1013040000F8174700002309F7F497470000938774
:1013140027F498435C57F19B93E717005CD79377C6
:1013240015008DC79747000083C7D7F293E71700CE
:1013340017470000A300F7F297470000938747F18F
:1013440098435C57F19B93E717005CD7937765004C
:1013540095CB93774500174700001307A7EFCDCB34
:101364008347070093E71700174700002304F7EEAD
:10137400974700009387C7ED98435C57F19B93E729
:1013840017005CD79317F50063D4070217470000D2
:1013940003474705418B97470000938727FD51C3B7
:1013A40083C7870793E7070217470000230CF70258
:1013B4009317E50063D707029747000083C7C7E97F
:1013C400E207E18763D70700854717470000230535
:1013D400F7E897470000938767EA9C4337070200C2
:1013E40098C79317C50063D4070217470000034743
:1013F40077FF058B97470000938747F729C383C777
:10140400970793E7270017470000A30DF7FC828096
:101414008347370093E7170017470000A30DF7E24F
:1014240081BF03C7870789463D8B6308D70083C7FD
:1014340087070D47BD8BE39DE7F69147B5B703C713
:101444009707118B69D783C7970793E7870065BF11
:1014540097470000938787E2944397470000938758
:1014640067DF03C70700058B11CB9747000023856F
:1014740007DE97470000A38107DE828003C71700B9
:10148400058B65F7F85271FF83C75700DDB717471F
:1014940000001307E7DB03280700832788039583ED
:1014A400858BADEF11C683270803BD832300F600A7
:1014B4009DC61C43985B4607935767016356070014
:1014C40093E707C0C207C18303970600C207C18719
:1014D40009C7BA970947B3C7E7022390F6008DCD31
:1014E4008345150095C99747000083C707D793F72D
:1014F400070413879500894585C33A9583470500FA
:101504000547994593F6F7066398E600E207E187F5
:10151400814563D30700B9452E8582808545EDBF9B
:10152400411122C406C626C217440000130404D580
:1015340045E114402E87FC52FDFF97470000238CA1
:1015440007D097470000938727B3D453BE8495C62A
:10155400B7E700E0B706200023A0D728B7F700E0DC
:1015640083A607D1ED9A23A8D7D083A607D193E603
:10157400860323A8D7D0730050103A85B28597709C
:1015840002E0E780A0E297470000938767CC9C4382
:10159400B70680009843558F98C3D857719BD8D706
:1015A40097470000A38A07CA97470000A38407CA85
:1015B4001C40094798C3DC5085CF37F700E08327E8
:1015C40007D193E787002328F7D0730050100DA0AC
:1015D4008D476315F50497470000938767C79C43BD
:1015E400B70680009843558F98C3D857719BD8D7B6
:1015F4001440174700001307E7C583472700858B6E
:1016040089EB83473700858BC9CF97470000238533
:1016140007C4B24022449244410182808547E319C1
:10162400F5FC97470000938727A5D4533E8795C6BA
:10163400B7E700E0B706200023A0D728B7F700E0FB
:1016440083A607D1ED9A23A8D7D083A607D193E622
:10165400860323A8D7D07300501014408177FD1758
:10166400D046F18FDCC60F1000001440B70702000B
:101674009CC6930700F897450000238FF5BC974755
:1016840000009387E7BC9C439C439D83858B99C74B
:1016940093076019FCD2D0C65C5339BF9307E01B93
:1016A400D5BFFC52B9FBB5B797470000938707BD78
:1016B4009C438847D847798D09C988C79387019483
:1016C40003A307006303030002838280174700001B
:1016D400130707BB8346B7019747000083C717BDAD
:1016E4004C4BB697FD8B33D7F50097460000A38982
:1016F400F6B897460000A38BF6BA058B15EF17478B
:1017040000000347F7BAB3F7E70281460147130520
:10171400000233D6E500058A1378F70F19CA6397D8
:10172400D70097470000A38D07B58280850693F6FE
:10173400F60F0507E31FA7FC8280974700009387F5
:10174400E7929C43011122CC4AC806CE26CA4EC653
:101754008297974700009387A7B4804701496301A4
:10176400A406BE8463668506018D1354550097470D
:10177400000083C787B21379F5016360F4049749C5
:10178400000093892994993703A8840097460000A0
:1017940083C6A6B0139756004297158C3A8683A544
:1017A4004900636407016364B7003306B740974791
:1017B400000023ABC7AEE378D4FC160433692401DC
:1017C400F24062444A85D2444249B249056182806A
:1017D400974700009387078FDC4333848740229523
:1017E40069B797470000938767A9984389679387E8
:1017F40007F47CD397470000938787AD9C4383A667
:101804000709139656006358060083A60709139622
:101814006600634406007453FDF282804111B7E709
:1018240000E022C480433707200006C6798C23A039
:10183400E7180F10000011C199E5B7E700E023A0F5
:10184400871001457DA893073500C207C183F19B2A
:10185400C207C183130740036369F70217470000F7
:10186400130747B0084317470000130727AF144373
:101874006392A6021747000013070780185B55DF21
:10188400C207DD8D054502974DBF174700001307BA
:1018940027ADC9BF035765002DEB035745006366A9
:1018A400F706B306F7402146637CD60203280500F9
:1018B400938687001D8FAA9661171736000003567A
:1018C40086762392E60023A006012393060014C122
:1018D4002312F500130786FF973600002395E6745C
:1018E4002313B5009735000083D5E573B387F5401E
:1018F400173700002319F772B7E700E023A0871019
:101904002105B240224441018280084195B7B7E7DE
:1019140000E08C433707200023A0E718F98D0F104F
:10192400000001E523A0B710828097470000938749
:1019340067A303A3070097470000938727A283A800
:10194400070081469A8763F2170D03A807006361B5
:10195400F50C636FA80A138787006368E50A03D64A
:101964006700216705076317E60003C7819305072E
:10197400238CE192173500001305856A03D64700CE
:101984000357650023930700329742074183173EAC
:101994000000231AEE68638C6702174300001303E8
:1019A400239C032303006304F30203D36600631040
:1019B400030283D7460023A0060121073E96210691
:1019C4002392C60097370000239FE764B6879843A5
:1019D400630D170397460000938686989442630626
:1019E400D7028356670095E283D647000356470023
:1019F4001843A106B2962392D70098C38357650073
:101A0400A107173700002310F762B7E700E019BFFA
:101A1400BE86C2870DBF03278511630407120346E0
:101A2400E504854663000612411122C406C68347B5
:101A3400C5002A8493F7C70F2306F5008345970052
:101A44000358C700139585016185637006096359BE
:101A540005060345870093F5F507A304B70093E54E
:101A640027006314D50093E517002306B4005C43F4
:101A740089075CC3A30AC400032504114C43090568
:101A8400EFF06F978327841103465401D44303D79F
:101A9400C700B296118FD4C32396E7008947A30DDC
:101AA400F400034764039737000083C7075E637736
:101AB400F7048347C40093E707012306F4003DA815
:101AC40093E717002306F40075B71376F80F635DE8
:101AD40005020345870093E527006314D50093E5C9
:101AE40017002306B400A30AC400A3040700854713
:101AF400A30DF400832784119C43C5F7B24022440C
:101B0400814636854101828093E717002306F4005D
:101B1400A30AC400A3040700032504114C4342860E
:101B24000905EFF04F8D8327841103465401D443F4
:101B340003D7C700B296118FD4C32396E7008D470D
:101B440045BF854636858280974700009387C794B2
:101B54009C43411122C406C6858B2A84C5EF416586
:101B6400130525F5974003E0E780E0BA45C58347B0
:101B7400A5002315F50083270412BDE72320A41232
:101B84002322A41285472311F4042320050083474C
:101B9400640154412316F5000347D4002304E500EF
:101BA4000547A304E500173700001307A76A585335
:101BB4001385170215811C437D151375F50F9CC2FF
:101BC4005C43DCC21C479CC65C47DCC61C4B9CCAFD
:101BD4005C4BDCCA1C4F9CCE5C4FDCCE19CD93868B
:101BE400060213070702C1BF8327441288C3835721
:101BF40024042322A412850779B79737000083D7DA
:101C040067778507173700002316F776B24022441A
:101C1400410182808347C40023090400054593C71A
:101C240047002306F400DDB78347850193F7E70FE8
:101C3400D5EF83479501DDEB034625018346C500B7
:101C440009CA83456503173700000347174463E750
:101C5400E50013F7060141CF014709C6C18A0357BE
:101C6400651C81C68356A51C369751C31307C7123A
:101C74001735000003558545B335A70237460F00D5
:101C8400411113060624814622C426C206C67D5489
:101C94003305A702977003E0E780008497370000BC
:101CA40083C7F73EB384A700973700009387076C78
:101CB40003A787098327070963F387003E84184332
:101CC40075FB973700009387673A9C438297814757
:101CD4006364A400B307A440B2402244B3B797009E
:101CE40093C7170092443E854101828081473E8517
:101CF4008280973700009387675898433C5BFDFFC9
:101D0400010001008280011122CC4AC84EC606CED1
:101D140026CA52C456C25AC00347B50085472A840E
:101D24002E89832905096311F72683570508835AE9
:101D3400C503173A0000130AEA38173B0000035B97
:101D4400EB3863FB5721834605016397E62003279D
:101D54008511631307200327450A631F071E834663
:101D6400F5001D47639AE61E03471401B38AFA403F
:101D740013950A01418121CF9377170099CB83579B
:101D8400E40583560404958F63D5A70013950701D2
:101D940041819377270099CB8357E4128356040437
:101DA400958F63D5A70013950701418193770701A8
:101DB40099CB8357C41483560404958F63D5A70025
:101DC400139507014181218B11E311E10545035767
:101DD400A4039307204E832444093305A7023746FE
:101DE4000F008146130606243305F50297370000D9
:101DF40083C7E729B3549502B335AB02BE94C2043A
:101E0400C180231394083305AB02976003E0E78095
:101E1400A06CB307350133B5A7002E953E87832602
:101E24004A0019E163E4D7003387D740B3846403DD
:101E3400B7460F009387F623938606242320E900F0
:101E4400A697B3D7D702D6976362F7101D8F2320C6
:101E5400E900973900009389692183A70900832445
:101E64000900829763E5A4123385A4406354050CEA
:101E740083A709008297032709006361E512198D7E
:101E84008357E40317370000035747248E07B387AB
:101E9400E7021307003293870719B3D7E70263E712
:101EA400A710374A0F00130BFA23973A0000938ABE
:101EB4006A21130A0A248357040485072310F404AF
:101EC4008347041499E3228559222285972003E04D
:101ED400E780E07775E9832604098327C40803A70C
:101EE4004A00B6973E8563E4D70063E4E700338590
:101EF400E7408347F401835464082328A408850732
:101F0400A30FF4009737000083D7471CB384F4026F
:101F1400DA94B3D444036368950CB304954083A75F
:101F2400090023209900829763E3A40C3385A4401D
:101F3400E34305F89737000083C7771563E7A708DD
:101F44009737000023A4874C014541A083264A000B
:101F5400B387F6403E97E5BD8354640837470F00C6
:101F64009307F723B3846403BE9493070724B3D77A
:101F7400F40263E7F900B387F9402320F900D1BDE7
:101F840003274A00BA99C5BF23A03501D9B59737AD
:101F9400000093872713DC43BE94F9B597370000FC
:101FA40093874712DC43998F3E95D9BDA14522857D
:101FB400972003E0E7808062A305A402973700001E
:101FC4009387870B9C5B81EF7D55F2406244D2443A
:101FD4004249B249224A924A024B056182808945AC
:101FE40015458297D5B7B3049740AA940DBF83A72C
:101FF4004A00BE9425BF39C901116C0022CC06CE1B
:102004002A8411331DCDFD576302F502B24797357B
:10201400000083C5D50763EFB70003459402B38579
:10202400B7402EC6976001E0E78060B4F240624496
:1020340005618280173700001307C7085843BA9711
:10204400E9BF973003E0E780001ECDB78280797145
:1020540026D206D622D44AD04ECE52CC56CA5AC81C
:102064005EC68347550303447513AA843E941374D0
:10207400F40F9307400263F687001304B4FD13744E
:10208400F40F03AA841383AAC413A38B8412228695
:102094005285D685976003E0E7800001058915E540
:1020A40003CBD41201498149337B6403930B50025F
:1020B4004A865285D685976003E0E780E0FE05896D
:1020C40015C5639169031374F90F238B8412B250FD
:1020D400225492540259F249624AD24A424BB24BB8
:1020E400456182808509E20993D989410509E31193
:1020F40079FDE1BF8327850903560504797193D6D9
:102104000701BD8EC206C182358E135776409357A0
:102114005640898B058B5D8F93573640918B5D8F2D
:1021240093571640A18B5D8F93171600C18B5D8F5B
:102134009317360093F707025D8F93175600935554
:10214400860093F707041E065D8F1376F60F518FF2
:1021540093D7554013D63540118A898BD18F13D626
:102164007540D18F13D61540218AD18F139615004F
:10217400418AD18F1396350013760602D18F1396B8
:102184005500137606049E05D18F93F5F50FCD8F78
:10219400A20745465D8F3307C70222D42A8426D27C
:1021A40052CC56CA032A8413832AC4135AC806D6A7
:1021B400369742074183935777401355574009890F
:1021C400858BC98F135537401189C98F1355174013
:1021D4002189C98F131517004189C98F1315370039
:1021E40013750502C98F131557009355870013758E
:1021F40005041E07C98F1377F70FD98F13D5354000
:1022040013D755401189098B498F13D57540498FD0
:1022140013D515402189498F139515004189498F9C
:102224001395350013750502498F139555001375E1
:1022340005049E05498F93F5F50F4D8F2207D98F1D
:10224400B387C7024AD04ECE5EC662C4B697C207F1
:10225400C18313D7774013D557400989058B498F1C
:1022640013D537401189498F13D517402189498FD8
:10227400139517004189498F13953700137505028B
:10228400498F1395570093D58700137505049E074E
:10229400498F93F7F70FD98F13D5354013D755408E
:1022A4001189098B498F13D57540498F13D5154072
:1022B4002189498F139515004189498F139535005C
:1022C40013750502498F13955500137505049E0572
:1022D400498F93F5F50F4D8F2207D98FB387C70226
:1022E400130650025285D685B697BD8E9394060187
:1022F400C18033F6C402137BF60F976003E0E780D6
:10230400A0DA05890DED8347D41201498149B384CC
:102314009702130C5002C1804A865285D685976075
:1023240003E0E78060D80589937BF90F11C56386C4
:102334003403850993F9F90F0509E31F89FD230B7C
:102344006413B250225492540259F249624AD24A56
:10235400424BB24B224C456182805E8BCDB701115A
:10236400973700009387870022CC03A4870C26CAE2
:102374004AC84EC606CEAA8413092500854915C04D
:1023840083C7140003473400858B6304F700405C63
:10239400FDB71946930544004A85EFE05F91E318C1
:1023A40035FF2285F2406244D2444249B249056174
:1023B4008280411197370000938747FB22C403A40E
:1023C400870C26C24AC006C693042500054901E8C5
:1023D4002285B24022449244024941018280A6856A
:1023E4001305A402974003E0E780A042E30225FF1F
:0423F400405CF1BF99
:1023F80097110020938181E31741002013010140C8
:102408001305400097E5FF1F938545BF1706002079
:10241800130606FE63FAC5008322050023A05500B3
:1024280011059105E3EAC5FE17950300130505306C
:1024380097050020938505FC1386018763FAC5007C
:102448008322050023A0550011059105E3EAC5FE86
:102458001385018797350020938505056377B500B7
:10246800232005001105E36DB5FEFD42739002BC03
:102478008D4273904280930280087390023097E2F5
:10248800FF1F9382A2B793E23200739052309722D3
:102498000000938282677390123473002030397180
:1024A80001436EC619A0397141536AC866CA62CC25
:1024B8005ECE19A0397101535AD056D252D44ED695
:1024C8004AD826DA22DC06DE3301614082824111D5
:1024D8004AC026C222C406C68282B24D4101024DBC
:1024E800924C224CB24B4101024B924A224AB249C9
:1024F8004101024992442244B240410182803D4355
:102508002A876373C3029377F700BDEFADE593762F
:1025180006FF3D8ABA960CC34CC30CC74CC741078B
:10252800E36BD7FE11E28280B306C3408A069702A6
:10253800000096966780A6002307B700A306B70099
:102548002306B700A305B7002305B700A304B70007
:102558002304B700A303B7002303B700A302B700FF
:102568002302B700A301B7002301B700A300B700F7
:102578002300B700828093F5F50F93968500D58DDB
:1025880093960501D58D61B79396270097020000B1
:1025980096968682E78086FA9680C1171D8F3E96AA
:1025A800E374C3F8A5B73367B500FD530D8B79E71E
:1025B800B7877F7F9387F7F710419441B372F6008E
:1025C8003363F600BE92B3E262006397720C63183D
:1025D800D6065041D441B372F6003363F600BE927A
:1025E800B3E262006398720A631BD60410459445EF
:1025F800B372F6003363F600BE92B3E262006391F1
:10260800720A631ED6025045D445B372F60033638E
:10261800F600BE92B3E26200639A72086311D602B2
:1026280010499449B372F6003363F600BE92B3E2E0
:102638006200639372085105D105E30FD6F61317AC
:10264800060193970601631CF7001357060193D7F9
:1026580006013305F7409375F50F91E982804183B0
:10266800C1833305F7409375F50F91E182801377A5
:10267800F70F93F7F70F3305F740828003460500FD
:1026880083C60500050585056313D60065FA33057D
:10269800D640828011059105E312D6FE014582805D
:1026A8002105A105E31CD6FC014582803105B10551
:1026B800E316D6FC014582804105C105E310D6FC2E
:1026C80001458280B717004003C777051377E70FE6
:1026D800A38BE704130700F8A38DE7043D47238C79
:1026E800E70413075003A38CE70403C7A705137770
:1026F800D70F238DE7048280B717004003C7E7028E
:102708000D8941111377C70F498F93068008F3B6D7
:10271800068093F6860836C60F10000093067005EB
:102728002380D704930680FA2380D7040F10000073
:102738002387E70223800704B247F3A707800F1017
:1027480000004101828041112A83014E930E407E90
:10275800130F0019930F400663E56E1293080019D2
:1027680013034006B3781503854E0D4FA14F3373FD
:1027780065020D891335150063EFBE121308F6FFC5
:10278800794672984208135808013307C70213D6CE
:102798001700BE0732976146B3F6C602130680706B
:1027A800B386C6023697A166F58F42075D8FB716C6
:1027B800004083C7F60293F70708A303F100034616
:1027C800710083C7F60293F70708E394C7FE8347AF
:1027D8007100B716004093F7F70F63880712930745
:1027E8008008F3B7078093F787083EC40F100000EE
:1027F800B7170040930670052380D704930680FA24
:102808002380D7040F10000023AA070383C61703E9
:1028180093E60608A388D70223800704A247F3A7F4
:1028280007800F1000001166B71700407D16D45BB3
:10283800C85F93854703A98EF18EF5FA9306800841
:10284800F3B6068093F6860836C60F100000930686
:1028580070052380D704930680FA2380D7040F10CD
:10286800000098C103C7170313670704A388E7028A
:1028780023800704B247F3A707800F100000410127
:1028880082807D133368E3039308E016630E080023
:102898003368F3039308D01663080800937833006D
:1028A80093B818009388D81633081E01131E080120
:1028B800135E0E0155B56393E5030548638608006A
:1028C8000148630303002A8871087298FD15131ED6
:1028D8000801C205135E0E01C18179BD13F8150008
:1028E80063F4BF007908D5B713381800E5BF83C76C
:1028F800F60293F70708A303F1000346710083C7A4
:10290800F60293F70708E394C7FE8347710093F72D
:10291800F70FF1DFE9B531714AD966CB06DF22DD61
:1029280026DB4ED752D556D35AD15ECF62CD6AC96F
:102938006EC7AA8C02D8EF00901C2A8993078008DA
:10294800F3B7078093F787083EDA0F100000B71730
:102958000040130770052380E704130780FA2380DB
:10296800E7040F10000003C7F7021377770FA38758
:10297800E70203C7F70213678700A387E7022380EC
:102988000704D257F3A707800F1000000545AD33A1
:10299800130780C13347E902116A93070AE89306CF
:1029A8005002BD69930BA004814A014B13048008AF
:1029B800930470057D1AB347F9023307D7023EC066
:1029C800FD873ECC938709A69309803E3347F702DB
:1029D8003AC27D873AC4334739038549B399990187
:1029E80093D93940B306D702B30B7703B3C6F602BF
:1029F800B3CBFB0236C6FD8636C893D6FB4136CE2E
:102A0800B7460F00938606243349D9028566938614
:102A180006FAB3969601B389E9021307805233097F
:102A2800D90293060010B389E9023349D902B3C920
:102A3800F9029316390036CA37190040FD8636D098
:102A4800930D090493D7F9413ED2F336048093F6E7
:102A5800860836DC0F100000930770052380FD0000
:102A6800930680FA2380DD000F10000083463905A5
:102A780093F6860FA309D9048346390593E6160011
:102A8800A309D90423800D00E256F3A606800F108F
:102A98000000130C80FA116DF336048093F6860853
:102AA80036DE0F100000930770052380FD00238099
:102AB8008D010F10000083463905216693E6060252
:102AC800A309D90483560905B3E6A6012318D90436
:102AD80083560905D18E2318D90423800D00F25698
:102AE800F3A606800F1000008346390593F6060208
:102AF800638A061803463905218A6DDE0818EF0037
:102B080010047336048013768608B2C20F100000D2
:102B180023809D0023808D010F100000B71700400F
:102B280003C637051376F60DA389C70403C6370510
:102B380013660602A389C704835609052166B3E60E
:102B4800A6012318D90483560905D18E2318D90460
:102B580023800D009646F3A606800F1000008346DA
:102B6800390593F606026386061483463905A18A59
:102B7800EDFE97D0FF1FE7808051AA8636D497D004
:102B8800FF1FE780C050A256E30AD5FE8356090509
:102B98004255B3E6A6012318D904D127834639053F
:102BA800A18AEDDE03560905834629058247337657
:102BB800CA00B306DA0293D5F641B296B388F64056
:102BC800E24733B8C6002E983308F840A247B3B698
:102BD80016013308D84063C70701631DF800924700
:102BE80063FA1701C247634DF80E63950701B247B0
:102BF80063E8F80E894663E7660FF24693151800F6
:102C080013D3F8015E8613951800B365B30042D656
:102C180046D4EF50234E3258050B137BFB0F634706
:102C2800000163120838A258638F0836130815008C
:102C3800B336A800B69513D6F5013298B336C80056
:102C4800AE9613581800FE06B3E6060173360480E4
:102C580013768608B2C60F10000023809D002380DB
:102C68008D010F1000000356C902B296C206C18238
:102C78002316D90223800D00B646F3A606800F104E
:102C8800000019BDF336048093F68608B6C00F100D
:102C9800000023809D0023808D010F1000008346D3
:102CA800390593E60602A309D90423800D00864658
:102CB80005BDF336048093F68608B6C40F100000ED
:102CC80023809D0023808D010F1000008346390565
:102CD80093E60602A309D90423800D00A646A5BDE4
:102CE800E30D0BF0F336048093F68608B6C80F1090
:102CF8000000930680FA23809D002380DD000F10DA
:102D080000008346390593F5FC0F93F6860FA30957
:102D1800D90483463905CD8EA309D90423800D0033
:102D2800C646F3A606800F100000130580FA034676
:102D38003905930639051D8A63149629733604806C
:102D480013768608B2CC0F100000130680FA238091
:102D58009D002380CD000F10000003C606001376E7
:102D6800F60D2380C60003C60600136606022380FC
:102D7800C600835609051166D18E2318D9048356D7
:102D880009052166D18E2318D90423800D00E64653
:102D9800F3A606800F100000130680FA8346390553
:102DA80093F606026388062483463905130C390511
:102DB800A18AFDDA08186123F336048093F68608A1
:102DC800B6D00F100000930680FA23809D00238060
:102DD800DD000F10000083460C00116693F6F60D17
:102DE8002300DC0083460C0093E606022300DC0087
:102DF80083560905D18E2318D904835609052166FF
:102E0800D18E2318D90423800D008656F3A6068098
:102E18000F100000130680FA8346390593F6060260
:102E28006385062083463905A18AEDFE97D0FF1FEA
:102E3800E780E0252A8C97D0FF1FE7804025E30C28
:102E480085FF8356090511664255D18E2318D9048A
:102E580039238346390513063905A18AFDDAF33685
:102E6800048093F68608B6D40F100000930680FA03
:102E780023809D002380DD000F100000834606009C
:102E880093F6F60D2300D60023800D00A656F3A670
:102E980006800F1000008356090503462905D2470E
:102EA800B376DA003306CA021305800C9355F6414F
:102EB8003696330DF6408257333CD6002E9C333677
:102EC800A601330CFC40330CCC40330885039256E2
:102ED8004E86B335A5033305A503C295EF5083216C
:102EE80063468001631E0C16630C0D16130615004D
:102EF8003335A6002E959356F5013696B335D60090
:102F0800AA959396F50105828585D18E6346B00012
:102F1800639D051A638B061A0356C9021582330589
:102F2800D6003336C500B2956348B00063910524D6
:102F38001306F00F637DA622894663F3561593079F
:102F48008008F3B7078093F78708BED60F100000F4
:102F580037170040930770052300F704930780FA9A
:102F68002300F7040F1000008356C70289678117F2
:102F7800D58FC207C1832316F70223000704B6576B
:102F8800F3A707800F100000FA506A54DA544A5920
:102F9800BA592A5A9A5A0A5BFA4B6A4CDA4C4A4D81
:102FA800BA4D296182801308F5FF3335A800FD1555
:102FB8002E951356F5013298B336C800AA9651B12A
:102FC800F336048093F68608B6CA0F1000002380F3
:102FD8009D002380AD000F10000083463905CD8E7B
:102FE800A309D90423800D00D646F3A606800F1046
:102FF800000035BBF336048093F68608B6CE0F1072
:10300800000023809D002380CD000F100000834620
:10301800390593E60602A309D90423800D00F64674
:10302800F3A606800F10000095BBF336048093F6D4
:103038008608B6D20F10000023809D002380CD00A3
:103048000F1000008346390593E60602A309D90448
:1030580023800D009656F3A606800F1000006DBB66
:103068009306F5FF33B5A600FD152E959355F5018A
:10307800AE96B3B5B600AA951396F501858269B5E3
:10308800F336048093F68608B6D80F10000093062E
:1030980080FA23809D002380DD000F1000008356F6
:1030A800C9020566011693F6F60FD18EC206C182D3
:1030B8002316D90223800D00C656F3A606800F10EA
:1030C8000000850A93FAFA0F49B233E6B60045C202
:1030D8000356C9023305D0403338A000B305B040C9
:1030E800B385054115826345B000D1E16371A60837
:1030F800894663F0560593078008F3B7078093F76E
:103108008708BEDA0F100000B717004013077005D4
:103118002380E704130780FA2380E7040F100000D8
:1031280003D7C7027D8B2396E70223800704D6576F
:1031380081BDF336048093F68608B6DC0F100000D4
:10314800930680FA23809D002380DD000F10000085
:103158008356C9020566011693F6F60FD18EC2068C
:10316800C1822316D90223800D00E656B9B793070A
:103178008008F3B7078093F78708BEDE0F100000BA
:1031880037170040930770052300F704930780FA68
:103198002300F7040F1000000356C7029397560048
:1031A800B297C207C1832316F70223000704F65714
:1031B800C1BB914763EEB70217770300130787B3C4
:1031C8008A05BA959C41BA978287B717004003A72A
:1031D800470B1345F5FF698F23AAE70A03A7070BD7
:1031E800698F23A8E70A03A7070A798D23A0A70AEE
:1031F8008280B717004083A6470B1347F5FFF98E67
:1032080023AAD70A83A6070B558D23A8A70A83A646
:10321800070A758F23A0E70A8280B717004003A723
:10322800470B498F23AAE70A03A7070B1345F5FFA6
:1032380045BFB717004083A6470B1347F5FF758FA7
:1032480023AAE70A03A7070A598D4DB7B717004005
:1032580003A7470B498FEDB7914763EEB70217777E
:103268000300130767AA8A05BA959C41BA97828713
:10327800B717004003A7470D1345F5FF698F23AA29
:10328800E70C03A7070D698F23A8E70C03A7070C12
:10329800798D23A0A70C8280B717004083A6470D1D
:1032A8001347F5FFF98E23AAD70C83A6070D558D72
:1032B80023A8A70C83A6070C758F23A0E70C828090
:1032C800B717004003A7470D498F23AAE70C03A7A8
:1032D800070D1345F5FF45BFB717004083A6470DF7
:1032E8001347F5FF758F23AAE70C03A7070C598D21
:1032F8004DB7B717004003A7470D498FEDB7B7176C
:1033080000408847420541819377050491EB937704
:10331800F5013755E801130505803345F50282802C
:103328009377050C130700046397E7009377F5017B
:1033380037459C1CCDB72165130505D0828037E73A
:1033480000E01C435443A183E206D58F1CC1FD57FE
:103358002320F7182322F7180F1000008280131774
:103368008500B7E700E023A0E710618123A2A7103A
:103378008280B7F700E08847CC478280814737379B
:103388000040A14663C4C700328582800345B74028
:10339800E38EA6FE3385F500034505008507230463
:1033A800A740CDB797F7FF1F938747689C43172718
:1033B80000201307670F3E95636EE500173700205E
:1033C8001307C7236368A70017F7FF1F2320A76603
:1033D8003E858280FD57EDBF411122C406C62A846E
:1033E800393F2947B307E502B2408D83B3D7870237
:1033F80022449507B3D7E70237370040C207C18395
:103408002316F7404101828071654111130505209B
:1034180006C6D937B7370040130770F82381E7404D
:103428000D47A381E74013070004A380E740054741
:103438002387E740B240410182802D4549E703C711
:1034480005008947631DF706D841411106C6834721
:103458001700034707003285A207D98F4167130673
:1034680027FE6384C7046369F60005176382E702D1
:103478002390060029453DA0130647FE638CC7022A
:103488001517E397E7FE95472390F600154629A000
:10349800D5472390F6005546CC4597D0FF1FE780C7
:1034A80040750145B2404101828085472390F6006E
:1034B8000546DDB7CD472390F6004D46F1BF239072
:1034C800060005458280828083C7850093F707023E
:1034D800E1E3411106C622C426C24AC003C9050059
:1034E80009432E888547631B690203A3450032847C
:1034F800B6848347130003430300A207B3E76700BA
:103508004163130E13FE6382C7030D13638B6704B5
:103518000D681308289063850707A947B24022441D
:10352800924402493E8541018280AD4765FB55477B
:10353800B547E365D7FE0325C8005546A28597D051
:10354800FF1FE780006B01499387018898438147F3
:1035580071D7184361D72686A2854A850297814785
:1035680075BFAD4745FF5547B547E369D7FA03250A
:10357800C8005546A28597D0FF1FE7808067E9B746
:103588002244B24092440249854741016FA0C12BB1
:10359800A1473E85828041677917630CE502411196
:1035A80022C406C685472A84639AF50022852244E8
:1035B800B2409385418741016FB0117B894763967B
:1035C800F5008545EFE0613675D1B24022444101EE
:1035D80082808280411122C42A8441659385418773
:1035E8007D1506C6EFB05178170500001305E5FAFA
:1035F8000588EFE0C12A05C02244B24097F6FF1FB4
:10360800938646F04146C54517F5FF1F130585DE2D
:1036180041016FB0916AB240224401454101828064
:1036280009C523A0A18801458280454582801147AC
:10363800636EA706976603009386466E0A0536955D
:103648001841411106C63697AE87B285028755479D
:103658006145639AE70055461385C19897D0FF1FC7
:10366800E78020590145B240410182800547614504
:10367800E39BE7FE054613850187CDB755476145AE
:10368800E393E7FE55461385419AC9BF4D47614507
:10369800E39BE7FC4D461385C19BC9B715476145B8
:1036A800E393E7FC1546138581874DBF0945828062
:1036B800411122C42E849385418726C206C6AA8456
:1036C800EFA04113058915C197F7FF1F938787D28C
:1036D80083D7A70BA285B2402310F4002244268585
:1036E8009244014641016FA0B178B240224492440D
:1036F8004945410182802382018823A40188B717A4
:10370800004003A7070CB706C0FFFD16758F23A05E
:10371800E70C03A7070DB7064000558F23A8E70C51
:1037280003A7070C3D9B23A0E70C03A7070D13670E
:10373800070123A8E70C828023A4A188130640066A
:10374800894503C501896F40014AB717004003A5A1
:10375800470C83A7470C598113451500C18B058970
:1037680099E31365250083C74188638CA7002382EA
:10377800A18801C99387818803A307006303030015
:103788000283828011456FF00F99411193962500AD
:10379800AA852D4506C697D0FF1FE780C0D1B24045
:1037A800014541018280011122CC06CE3714004028
:1037B80026CA4AC84EC652C483447405034AB4058F
:1037C8008349840503499405EFE0DFEF8347A405A7
:1037D80093F4F40F137AFA0F93E71700230DF40408
:1037E80093F9F90F1379F90FB717004003C7A70525
:1037F800058B6DFF03D5C705A38D4705238C3705BA
:10380800A38C2705A38B9704F2406244D244424913
:10381800B249224A0561828041119397050122C469
:1038280006C6C1872E8463DA0700EF30315819C104
:10383800EF30B14B2165218D1DA093F7150013C5FD
:10384800150091EF93F7250099CF01371306000A69
:10385800894503C50189EF40013913452400B24069
:103868002244410182809397250163D00702EF50DB
:103878002230093F37F60200130606E0896503C5C2
:103888000189EF40413609657DB7939715010145D8
:10389800E3D707FC176503001305054EEF50831E99
:1038A80013060064916503C50189EF40C1331165B2
:1038B80059B72D71232A9110FD74E98C232C81109E
:1038C80023282111232631112A84AE8932899306AF
:1038D80000100A86A6852D45232E111097D0FF1FAC
:1038E800E78060BD1315440151810A05139629002C
:1038F800CA850A9597D0FF1FE780A02FA685856601
:103908000146254597D0FF1FE780E0BA0A86A685BD
:1039180093060010294597D0FF1FE780C0B9832080
:10392800C111032481118324411103290111832921
:10393800C11015618280B7F7070003C7070141115D
:1039480006C622C426C24AC0A547631AF70095379F
:10395800B2402244924402490145410182801394B5
:103968002500AA843289A286AA850146254597D0D2
:10397800FF1FE78040B4A2864A86A685294597D0CE
:10398800FF1FE78040B3E9B71D71494697650300FB
:103998009385053A177503001305C57E86CE97D023
:1039A800FF1FE780803001E917650300130585399B
:1039B800EF50430D01A0B7F600E0795798CAFD57BC
:1039C800DCCA0567B7E700E023A0E7101306F0029A
:1039D80090C223A0E7180F10000017D7FF1F130786
:1039E800277923A6E1884157A38AE74013060004F4
:1039F8008145080897D0FF1FE780C0269707002059
:103A08009387C7AA3EC8856713870740231AE10032
:103A18001D673ACC37070105130707103ACE93877D
:103A280057D16D472310E1022312F102054797078A
:103A38000000938747942301E1023ED8170700004E
:103A48001307E7D497070000938727D6B7F5070031
:103A5800BAC23EDC17070000130727EE97070000DD
:103A6800938787D281463000E1051945BAC43EDE06
:103A780097D0FF1FE78020A4180881479946300097
:103A88003E960346060085070507A30BC700E39883
:103A9800D7FEC24791C70357410185676373F70093
:103AA80001A08307410263D7070493078008F3B78F
:103AB800078093F787083EC40F100000B71700402F
:103AC800130770052380E704130780FA2380E704AF
:103AD8000F100000B847B706100013670718B8C7DB
:103AE8009853558F98D323800704A247F3A70780DC
:103AF8000F1000000808EF40417AAA8501C9176530
:103B0800030013056525EF40B36301A0F640256166
:103B18008280411117050000130545D006C622C44E
:103B2800EF40E173138401892300A4002128E136C2
:103B3800034504002244B24013060032896541015E
:103B48006F40610A797106D613078008F33707803A
:103B580093F787083EC20F100000B717004093057F
:103B680070052380B704130680FA2380C7040F105A
:103B7800000083C6F70293F6A60FA387D702238017
:103B880007049246F3A606800F10000073370780DB
:103B9800137787083AC40F1000002380B7042380E6
:103BA800C7040F10000003C7F70213672700A38795
:103BB800E70223800704A247F3A707800F1000003D
:103BC8000545EFE07FB37D3E8147014781460546C5
:103BD80085451305407EEFE01FB7680051468145D3
:103BE80097D0FF1FE7800008B707C0A83EC8B7876F
:103BF800E803938707D03ECA680097C7FF1F9387DB
:103C0800477C3EC6EF40711DB2504561828041112C
:103C1800976503009385C51917650300130545309B
:103C280006C6EF40F3511765030013056530EF40F2
:103C380033512945EF40D354B24041016F30401A07
:103C48004111976503009385E51417650300130573
:103C5800252D06C6EF40D34E13050002EF40535200
:103C68002945EF40F351EF30F13785671386077721
:103C78003376C502B2409387873803C58189854565
:103C880041013E966F303176411197650300938567
:103C9800E50E176503001305A52806C6EF40534A2D
:103CA80013050002EF40D34D2945EF40734DB24054
:103CB80003C58189854541016F40A11D97170020E3
:103CC80083C7D7CB411193F7E70F06C61717002014
:103CD800A306F7CAEFA0C01005E1EF209032EF303D
:103CE800006CB2403726090003C581891306067C9B
:103CF800854541016F30316FB240410182804111E9
:103D0800976503009385050A176503001305452188
:103D180006C6EF40F3422945EF409346B2404101C1
:103D280071BF411197650300938505061765030068
:103D38001305051F06C622C426C24AC0EF405340D9
:103D48002945EF40F343EFA0A00919E52244B2400A
:103D58009244024941019DB797F4FF1F9384C48B95
:103D6800BC48757471797D142390270123918700CD
:103D780017F5FF1F1305458EEFD09000FC4417F58B
:103D8800FF1F1305658D23900700EFD0C07DBC5839
:103D980017F5FF1F1305458E2390270123918700F0
:103DA800EFD0007EFC5417F5FF1F1305E58C239018
:103DB8000700EFD0407B83A7040917F5FF1F130501
:103DC800A58D2390270123918700EFD0607B83A7DF
:103DD800C40817F5FF1F1305258C97F4FF1F93845C
:103DE800648E23900700EFD000789C4826852390A6
:103DF800270123918700EFD0A078DC442244B24009
:103E08000249268592442390070041016FD0A0758E
:103E1800411197650300938565FA1765030013053B
:103E2800251006C622C426C2EF4093312945EF402B
:103E38003335EF90F07A05E997650300938505F827
:103E4800176503001305C50DEF40932F1765030091
:103E58001305C50FEF40D32E2244B24092442945A2
:103E680041016F40F33113050002EF10200E2A8440
:103E780005E197650300938565F41765030013054D
:103E8800250AEF40F32B176503001305A50DD9B7D5
:103E9800A547A300F5009307C0125CC1FD57230690
:103EA800F500EF1080092300A400084CB705D400E2
:103EB8009385851A3105EF10705C084C8345040022
:103EC8003105EF30806A084C930500103105EF305A
:103ED800006B044C0565EF00D026B104AA85268541
:103EE800EF30A068084C930510123105EF302069B7
:103EF800084CC165FD153105EF306068084C930525
:103F080020123105EF30A067084C9565938505E2CE
:103F18003105EF30C06622852244B2409244410107
:103F28006F10600893F71500B9CB411122C41765CB
:103F380003001305E5FE2E8497650300938545EC81
:103F480006C6EF40F31F2945EF409323EF905069D1
:103F580001C97D3D13451400B240224441018280CD
:103F68009717002083C797A193F7E70F93E71700E8
:103F780017170020A304F7A0EF20300AE1BF01457E
:103F88008280797197650300938585E4176503003E
:103F9800130505F906D6EF40B31A2945EF40531E1D
:103FA800614681452800EFE08FD5EF001079A547DD
:103FB800A304F1009307C0123EC6FD572304A100D5
:103FC800230AF100EF90D0611DE597650300938502
:103FD80025E0176503001305A5F4EF407316176570
:103FE80003001305A5F6EF40B3152945EF40531913
:103FF800B250456182802800EF00D07B2800EF1086
:1040080040042800EF10C00CE5B741119765030084
:10401800938505DD17650300130585F006C622C4E0
:10402800EF4013122945EF40B315EF90705B1DE583
:10403800976503009385C5DA17650300130545EEF8
:10404800EF40131017650300130545F0EF40530FB9
:104058002244B240294541016F4093124145EF0087
:10406800F06E2A8405E197650300938565D7176587
:1040780003001305E5EAEF40B30C176503001305C9
:1040880065EEE9B7A547A300F5009307C0125CC128
:1040980097770300938747645CC9FD572306F500AB
:1040A800EF00B0692300A400084CB705D40093853D
:1040B800851A3105EF10903C084C83450400310502
:1040C800EF30A04A084CBD65A5053105EF30204BFF
:1040D800084C930530023105EF30204922852244EF
:1040E800B24041016F00306C411122C49765030052
:1040F800938545D02A8417650300130565E206C633
:10410800EF401304A28517650300130565E3EF402C
:1041180033032945EF40D30685476309F4008947EF
:10412800630AF400B2402244410182802244B24032
:10413800410181BD2244B2404101C1BD0111354652
:1041480097650300938545D3176503001305054E4E
:1041580006CE22CC97D0FF1FE78020B50DE59765E6
:1041680003009385E5CA17650300130565DBEF4077
:10417800237D176503001305E5BCEF40B3102945FF
:10418800EF40130001A097F7FF1F938727A73EC4AE
:104198008567938707803400177603001306465413
:1041A800976503009385050817650300130505093E
:1041B8003EC6EF20F00E2A840DC99765030093854B
:1041C80025C5176503001305A5D5EF406377A285BC
:1041D80017650300130545CBEF4083762945EF406B
:1041E800237AF240624405618280EF80901B176554
:1041F80003001305E5C2EF10D02EEF509011EFF039
:10420800002C17E5FF1F1305254BEFF0E018176585
:1042180003001305E5C1EFF0402C2A84EF20400984
:10422800EFA0904CEF10414AEF30E01EEF20806481
:10423800EFD0A03097650300938585BD176503000F
:10424800130505CE09C8EF40A36FA28517650300C3
:104258001305C5C551B7EF40A36E176503001305D5
:1042680025C7EF40E36D2945EF408371EFD0401338
:10427800EF90103729C597650300938565B91765D1
:1042880003001305E5C9EF40A36B17650300130589
:10429800A5C5EF40E36A2945EF40836E97650300A3
:1042A800938505B717650300130585C7EF40436974
:1042B80017650300130585C5EF40836805B7EFF060
:1042C800FF9FE9BF411106C6EFB0525BEF10C03047
:1042D80017050000130545C5EF307178238CA188B8
:1042E80017E5FF1F1305053EEF007067813DEFF0EE
:1042F8008FC017050000130565DFEFF0EFC3B2406C
:10430800814505654101B1A5411197650300938574
:10431800E5C6176503001305A5C006C622C4EF400D
:1043280023621384E1818355040017650300130594
:10433800E5D3EF40E3602945EF408364035504006B
:10434800B24022444101828039711C0822DC3EC2FD
:104358002E84B7072000A16526DA93850526AA844E
:104368003EC448001C0806DE3EC6EF103011056545
:10437800613FAA854800EF30802097650300938548
:10438800E5C0176503001305A5B9EF40635B8355C6
:1043980084000356640017650300130525CAA1812C
:1043A80093F5F507EF40C3592945EF40635D83470F
:1043B80094000147814693F7F707D917B337F00000
:1043C800B307F0402305F4005000A2852685EF10BE
:1043D800502B15C52A8497650300938525BB17655F
:1043E80003001305E5B3EF40A355A2851765030045
:1043F800130545C6EF40C3542945EF406358F250B2
:104408006254D25421618280411122C426C22A8476
:10441800AE84176503001305A5B09765030093855F
:1044280025B806C6EF40C35113050002EF404355B7
:104438002945EF40E35422852244B240A6859244A0
:10444800410119B7397122DC4AD82E844ED68145EC
:104458003289AA896146280006DE26DA52D456D265
:10446800EFE0EF89EF00702DA547A304F100930753
:10447800C0123EC62304A100EF30C13693072003C3
:104488003375F50297650300938585B28144976A71
:104498000300938AEAB9154A2AC817650300130569
:1044A80025A8EF40E3498327090083558400830644
:1044B800840003C7270083C7370003566400A1811F
:1044C800A2075D8F93F5F50717650300130585B3FC
:1044D800EF4003472945EF40A34A83270900568543
:1044E800A69783C507008504EF408345E39744FFFB
:1044F800032709008347370003472700A207D98FFE
:10450800239FF18083479400294793F7F707638532
:10451800E700FD57230AF100831764006359F00090
:10452800FD57230AF1009307400602C83EC628003B
:10453800EF00103AA2854E85013DF2506254D254E4
:104548004259B259225A925A2161828001119765C3
:1045580003009385E5A6176503001305659C32C61D
:1045680006CEEF40E33D13050002EF4063412945C5
:10457800EF4003410565493B32461842834717001F
:1045880083460700A207DD8E6307D50003470700AF
:10459800D98F239FF180F24005618280239FB180EB
:1045A8008280411197650300938545AD1765030027
:1045B8001305059706C622C4EF4083381384018289
:1045C8008355040017650300130545B9EF404337C9
:1045D8002945EF40E33A03550400B2402244410123
:1045E800828039711C0822DC3EC22E84B707200065
:1045F800A16526DA9385E524AA843EC448001C08F0
:1046080006DE3EC6EF1080670565613FAA85480053
:10461800EF20F07697650300938585A7176503005B
:1046280013050590EF40C331835584000356640099
:1046380017650300130585A0A18193F5F507EF40E1
:1046480023302945EF40C33383479400014781460F
:1046580093F7F707D917B337F000B307F0402305EE
:10466800F4005000A2852685EF10B00115C52A84F4
:10467800976503009385C5A1176503001305458A4F
:10468800EF40032CA285176503001305A59CEF4096
:10469800232B2945EF40C32EF2506254D254216196
:1046A8008280411122C426C22A84AE841765030081
:1046B80013050587976503009385059F06C6EF4098
:1046C800232813050002EF40A32B2945EF40432B75
:1046D80022852244B240A6859244410119B7397116
:1046E80022DC4AD82E844ED681453289AA89614671
:1046F800280006DE26DA52D456D2EFD05FE0EF006B
:10470800D003A547A304F1009307C0123EC62304B3
:10471800A100EF30210D930720033375F50297654B
:1047280003009385A5998144976A0300938ACAA1D7
:10473800154A2AC8175503001305857EEF40432004
:1047480083270900835584008306840003C7070074
:1047580083C7170003566400A181A2075D8F93F5F4
:10476800F507176503001305259BEF40631D2945D1
:10477800EF400321832709005685A69783C50700C4
:104788008504EF40E31BE39744FF032709008347B1
:10479800170003470700A207D98F2390F1828347A8
:1047A8009400294793F7F7076385E700FD57230A25
:1047B800F100831764006359F000FD57230AF100E4
:1047C8009307400602C83EC62800EF009007A2855E
:1047D8004E85013DF2506254D2544259B259225A80
:1047E800925A216182800111976503009385458E55
:1047F800175503001305C57232C606CEEF404314A1
:1048080013050002EF40C3172945EF4063170565FC
:10481800493B324618428347170083460700A207E0
:10482800DD8E6307D50003470700D98F2390F182F7
:10483800F240056182802390B182828039711C0820
:1048480022DC3EC22E84B7072000A16526DA3EC4CA
:10485800AA841C0893854520480006DE3EC6EF1052
:10486800E041B717004083A5470C4800B18193C5C4
:1048780015008589EF20704F976503009385458F54
:10488800175503001305C569EF40830B8355840052
:1048980003566400175503001305457AA18193F563
:1048A800F507EF40E3092945EF40830D834794005E
:1048B8000147814693F7F707D917B337F000B307D5
:1048C800F0402305F4005000A2852685EF10605BB8
:1048D80015C52A84976503009385858917550300B4
:1048E80013050564EF40C305A2851755030013059A
:1048F8006576EF40E3042945EF408308F25062549F
:10490800D25421618280411122C426C22A84AE84F5
:10491800175503001305C5609765030093858586C1
:1049280006C6EF40E30113050002EF406305294581
:10493800EF40030522852244B240A68592444101F6
:10494800F5BDB717004083A7470C7D8D13351500BB
:104958008280411126C2AE848D4522C406C62A84AF
:10496800EFE09F8FB717004099C803A5C70C418D8A
:1049780023A6A70CB240224492444101828003A599
:10498800870C418D23A4A70CF5B701119765030087
:1049980093854581175503001305855832C606CE01
:1049A800EF30137A13050002EF30937D2945EF307D
:1049B800337D3246B717004083A7470C1842B183AE
:1049C8008345070093C71700858B6386F500F2407F
:1049D80005650561BDBFF24005618280797122D409
:1049E80026D22E844AD081453289AA84614628007D
:1049F80006D6EFD0DFB09123A547A304F1009307B3
:104A0800C0123EC62304A100EF20D15D9307200306
:104A18003375F502975503009385C5772AC817554E
:104A280003001305E54FEF30B37183558400830607
:104A3800840003566400A18193F5F5071755030018
:104A48001305857AEF30D36F2945EF3073738327C9
:104A58000900056583C50700ED3D83479400294794
:104A680093F7F7076385E700FD57230AF1008317DB
:104A780064006359F000FD57230AF10093074006CC
:104A880002C83EC628003D23A2852685453BB25074
:104A98002254925402594561828041118D4522C4A5
:104AA80006C62A84EFE04FFBB717004003A5870C22
:104AB800B240218D224423A4A70C41018280011118
:104AC8003546975503009385253B17650300130565
:104AD800E5B506CE97C0FF1FE780201D01E91755F1
:104AE80003001305A572EF30F37901A0EF50D2341B
:104AF8002AC6EF00717FEF00B15EEF704045F240CB
:104B080032450561828041111305800406C697B0BD
:104B1800FF1FE7804059371700408327870A8D45D4
:104B28001305002093E707202324F70AEFE06FE836
:104B3800EFE09F8D176503001305C564EF3093748C
:104B480017650300130585AEEF30D373EFE0DFE39D
:104B5800EFE03FFCAD37EFF0EFF697C0FF1FE780BF
:104B6800208901458280B7F7070003C70701A547D9
:104B7800AE866316F7009397450191C301A0AA85F5
:104B88000146254517C3FF1F6700E3924111B2860E
:104B98002E86AA852D4506C697C0FF1FE780A091DF
:104BA800B2400145410182809307000463E6C702D1
:104BB8001D71A2CC2A84080886CE32C6EF30F34C89
:104BC800B2461008A285294597C0FF1FE780A08E2E
:104BD800F6406644256182803955828001479756A0
:104BE80003009386267F3388E5008347080005077E
:104BF80009059183B69783C70700230FF5FE8347FE
:104C08000800BD8BB69783C70700A30FF5FE93175F
:104C18000701C183E3E9C7FC82804111975503006E
:104C28009385456A175503001305852F06C6EF308F
:104C3800335113050002EF30B354B2402945410106
:104C48006F3013544111975503009385A565175587
:104C580003001305E52C06C6EF30934E130500023A
:104C6800EF301352B240294541016F307351411161
:104C7800975503009385C561175503001305452A09
:104C880006C6EF30F34B13050002EF30734FB24006
:104C9800294541016F30D34E411197550300938543
:104CA800655E175503001305A52706C6EF3053495F
:104CB80013050002EF30D34CB240294541016F3053
:104CC800334C4111975503009385055B1755030035
:104CD8001305052506C6EF30B34613050002EF306D
:104CE800334AB240294541016F3093495C4941112B
:104CF80022C406C62A8491C7DC4381C72E850C4886
:104D080082971C4CC84BEF20417E1C4CB240224479
:104D180023AA0700410182804111328506C622C4B8
:104D280026C22E844AC0EF20B00EAA8497550300ED
:104D380093854558175503001305851EEF305340DA
:104D4800030784000356640083554400A68617555C
:104D580003001305656BEF30B33E2945EF3053422E
:104D6800170400201304C4B917090020130949BF08
:104D780083470400639B970081452285853F8345CF
:104D8800C40103C5A189EF30C11013040402E31163
:104D980024FFB240224492440249410182801D719D
:104DA8009707002083C787B7CEC686CEA2CCA6CAEF
:104DB800CAC8D2C4ED8F97090020938969B4D9EF86
:104DC8009707002083C787B7ED8FD9EB9707002097
:104DD80083C7C7B8ED8F0145B5CB89479394570072
:104DE8001C103EC4B70720003EC617EAFF1F130A6F
:104DF8006A8D1C103EC88327CA0002CA02CC02CEA4
:104E080083D7070033849900184C231BF100FD77E2
:104E1800231CF1005C4B2E89B1E79755030093855D
:104E2800654D175503001305A50FEF30733117555E
:104E380003001305E554EF30B3302945EF30533400
:104E4800B387990003C5C7013345A900F6406644F6
:104E5800D6444649B649264A256182808147BDBF66
:104E68008547ADBF83471400A555B9CFFD17035635
:104E780007014C47A300F4008347C4002800230F10
:104E8800F100EF20A06C5285228797760300938665
:104E9800A68530004C08EF00D07E2A8A55D1975558
:104EA8000300938525451755030013056507EF3063
:104EB8003329D285175503001305454DEF30532884
:104EC8002945EF30F32BD55522850D3595BF9C4DDF
:104ED800DC4B81CBD04183C5C50103C5A1896F20B7
:104EE800915082801C4EDC4BA1CBB9C5411126C222
:104EF800175503001305C502AE8497550300938523
:104F0800A53E06C622C43284EF309323A6851755E2
:104F180003001305654DEF30B3222945EF305326C2
:104F28008345C4012244B240924403C5A1891306B3
:104F3800400641016F20314B82809387918903C5D8
:104F48000700130715002380E7008280011122CC97
:104F5800170400201304C49A26CA044C06CE4AC873
:104F6800DC484EC699CF045CDC4895CB244CDC4821
:104F78008DCB0145F2406244D2444249B2490561B1
:104F880082800149AA891609EF20415BC8C8330508
:104F980024011C4D23993701DC4BE9FFD9BF054992
:104FA800D5B70949C5B710458345C50103C5A189CA
:104FB8006F207143411126C2AA84414506C622C406
:104FC800713705E9975503009385C53317550300D5
:104FD800130505F5EF30D31617550300130585F8AB
:104FE800EF3013162244B2409244294541016F30F4
:104FF80033196146A6852A84EF303309084CB70572
:10500800D4009385851A3105EF005047084C83C5B5
:1050180004003105EF206055084C93050010310558
:10502800EF20E055044C0565EFF0BF91B104AA8567
:105038002685EF20805322852244B24092444101C4
:105048009DB7411126C2AA84414506C622C4FD3D2A
:1050580005E9975503009385252C1755030013057B
:1050680025ECEF30F30D175503001305A5EFEF30CE
:10507800330D2244B2409244294541016F30531008
:105088006146A6852A84EF305300084CB705D40042
:105098009385851A3105EF00703E084C83C50400DE
:1050A8003105EF20804C084C930510123105EF2094
:1050B800004D044C0565EFF0CFCEB104AA852685D6
:1050C800EF20E04B22852244B24092444101E1BDE9
:1050D800411126C2AA84414506C622C4853D05E978
:1050E800975503009385C52417550300130545E319
:1050F800EF301305175503001305C5E6EF305304C9
:105108002244B2409244294541016F3073076146F9
:10511800A6852A84EF306377084CB705D4009385B9
:10512800851A3105EF009035084C83C50400310518
:10513800EF20A043084C930520123105EF202044AE
:10514800044C0565EFF04F9CB104AA852685EF2035
:10515800004322852244B24092444101A9B5B707D1
:10516800B1809387871A170700202323F780B7A7F2
:105178000017938787AA17F7FF1F232DF77EB79786
:10518800EB3D15719387570317F7FF1F2326F77E0B
:1051980088109307002586CF17F7FF1F2320F77E77
:1051A800A2CDEF00F13FB7A7A880938707A01146CB
:1051B8004C0028103EC2EFF07FA29755030093855C
:1051C80065180818EF30D30C1946975503009385D6
:1051D800A51E13051103EFF07FA0975503009385D3
:1051E80065161305D103EF30B30A414697550300FE
:1051F8009385E51C1305E103EFF05F9E130660033A
:105208002C108810EF00914085476308F50A9755E0
:1052180003009385250C17550300130565D0EF305F
:1052280023721755030013052512EF3063712945C2
:10523800EF300375EF20015B9357850003C7918911
:10524800AA97BA9713570501BA976181AA97A38CB1
:10525800F18897F7FF1F9387676517F7FF1F232DBF
:10526800F76A854717F7FF1F230AF76A97F7FF1FA3
:105278009387876517F7FF1F2320F76C894717F770
:10528800FF1F230DF76A97F7FF1F9387A76517F787
:10529800FF1F2323F76C17050000130585B09147FE
:1052A80017F7FF1F230CF76AEF20717BFE406E444F
:1052B800238DA18801452D6182802A848C102800C5
:1052C800EF00F13A63018502975503009385850045
:1052D800175503001305C5C4EF308366175503003F
:1052E8001305050899B741462C0017F5FF1F13054C
:1052F8002567EF3083593DBF2A86B305B04017555F
:1053080003001305E51B6F30A36383D7418A6390BD
:10531800A7022393B18A2394C18A2395D18A2E8622
:10532800175503001305C517BE856F306361175500
:105338000300130565186F30E374797106D619C533
:1053480089476308F50CB25045618280280097C0F0
:10535800FF1FE780008A8345810017550300130566
:105368002523EF30E35D8347810005476383E70426
:105378008DCF09476387E706EFE0BFC017550300E5
:105388001305C521EF30037083D50182175503003B
:1053980013058522EF30C35A83D5E18117550300E1
:1053A8001305C522EF30C35979BF0565EFF0EFEE5D
:1053B800E1B70565EFF0EFD861D1416783D7018286
:1053C800130767D79305F0286367F7009387972833
:1053D80093950701C18105652390B182EFF0AFC5B0
:1053E80061BF0565EFF0EFD541D983D5E18193071A
:1053F800904963FCB700938525F4C205C181056512
:10540800239FB180EFF08F9985BF9565938505CA75
:10541800FDB7280097B0FF1FE780A07DEFE0FFBE33
:10542800175503001305851BEF30C36529BF0357C4
:105438004500011106CE83D7418A631FF702C16771
:10544800F917894503C5C18223A2F18A23A4018AD9
:10545800EF203124914503C5C182EF209123854770
:105468001306F100854513055030A307F100EFA09E
:10547800920CF24005618280175503001305C5039D
:10548800EF304360FDB77D15954763E6A7141757BE
:105498000300130767FF0A053A951C41011122CC46
:1054A80006CEBA972E8482872C0013054030EFA0D1
:1054B800C2742C000545EF60B17D17550300130534
:1054C800A501EF30235CE5A003C725009947631CBD
:1054D800F7002E85A93F834564001755030013057F
:1054E800A500EF30E345175503001305A501D1BF0B
:1054F80003C7250095476312F702C16703D7418A9E
:10550800F91703D5A500630FF700EFA0F23417557C
:10551800030013052500EF30E35617550300130564
:10552800E50145B72392A18A83D7E50009661306EA
:1055380006902393F18A83D7050103C5C18223947A
:10554800F18A83D72501A1452395F18AEF20A16926
:105558000566130606C8914503C5C182EF20A168F8
:105568000356E4008355A400175503001305C5FB33
:10557800EF30033D5DB7175503001305E5FC91B700
:1055880083C5250091476397F50017550300130558
:1055980025FD05BF99476390F5022285493D83455E
:1055A800640017550300130525F4EF306339F24002
:1055B8006244056182809547639AF5008347140029
:1055C800E9F717550300130565FBE5BD17550300FB
:1055D800130545FBD9BF82801D711705000013050F
:1055E800651E86CEA2CCA6CAEF2071479384C182DD
:1055F800994705442380A4002310F1027000930703
:105608004006854513055030231CF102230681000E
:10561800EFA0627217D6FF1F1306060FF145130598
:105628007030EFA04271138601839D4513056030E9
:10563800EFA062701010894513051031EFA0A26F1A
:105648003018894513052031EFA0E26E9305000557
:105658000D45EF40B14E930500051145EF40114E41
:105668003018914513057040230081002302810002
:105678002306810002DC23000102EF9042240A86FF
:10568800854513050040EF9082235000854513059A
:105698001040EF90C2221010854513052040EF906E
:1056A80002227000854513055040EF9042217D5538
:1056B800EF7091167D55EF9011687D55EFD09FF1F1
:1056C80017D6FF1F1306C602D5450145EF707103B3
:1056D800554681450810EFC09FE2894755468145E8
:1056E8002818230081022300F100EFC05FE18D47F5
:1056F8004D4681456800230CF102EFC05FE09147F9
:105708002306F10093878186984383C747001010CA
:10571800D54501453AC22304F100EFD05FF10A866E
:1057280085450545EFD0BFF03018D5450945EFD080
:105738001FF07000CD450D45EFD07FEF5000954527
:105748001145EFD0DFEEC1671387418AF9171CC3F3
:105758002322070013858182EFD09FEC1385C1892E
:10576800EF70726403C504008545EF20A127F64059
:105778006644D64425618280011122CC2E862A8473
:105788002315B10001478146ED4503D5418A06CE70
:10579800EF7051400356A100A2852AC697B0FF1F9B
:1057A800E78020452C0003D5418AEFD07FF009C55A
:1057B800ED452800EF70D155F240624405618280C2
:1057C80079719397050122D406D6C1872E8463DFA9
:1057D800070003C5C182EF10715D19C1EF10F150C8
:1057E8002165218DB25022544561828093F71500BE
:1057F80085C317D6FF1F1306E6EE97F5FF1F93859F
:10580800E51803C5C182EFA0621F13451400D9BF74
:1058180093F725009DC713060064894503C5C18217
:10582800EF20613C4D4681456800EFC05FCD93078E
:1058380080F86800CD452306F1003D3F134524005C
:1058480055B793F7850085C383C7C1821307400600
:10585800814613064006994503D5418AEFA0621593
:105868001345840041B793F745000145A5DF03D5EB
:10587800418AEFA0227E0566130606C8914503C536
:10588800C182EF20413613454400A9BFEFC29FC231
:105898002A8408452E89B28909C900C197050000E4
:1058A8009385A5746105EFF0107581447D5AEF105A
:1058B800A00563C3A4048144EF10000663C6A404D2
:1058C80097F7FF1F9387470D9C43DC47B307F940C1
:1058D80091872302F400638109048327C900B30771
:1058E800F4409587A302F4001C4C89C79C4799C3D0
:1058F800228582976FC05FBF5C44139714008504AC
:10590800BA972390470165B71C481397140085047C
:10591800BA97239007004DB7832789000547B30737
:10592800F4409587A302F40083570400638EE702CE
:105938008DC309476384E7040D47E397E7FA975750
:1059480003009387671D1CCC975703009387C71DD7
:1059580011A8975703009387A7E31CCC9757030018
:10596800938707E45CC849B797570300938747CFE5
:105978001CCC975703009387A7CFEDB79757030021
:105988009387471E1CCC975703009387A71ED9BF40
:1059980085E1EFC2DFB3004618448347940075835E
:1059A8009D8B6315F700EF00F01A48C46FC07FB4F1
:1059B8008280EFC23FB013893500C16442094111AA
:1059C800AA890144F11413590901054A2EC6EF00AA
:1059D800B073B2456346A400014541016FC0DFB012
:1059E80083A7090013171400BA9783D707006388A1
:1059F800B7006394970063742A010504C1BF054585
:105A0800E9BFEFC25FAAAA892E89328BB6843A8A87
:105A1800BE8AEF80E03C55C12685EF10102F8D47D8
:105A280063E5A7007D556FC09FAB83DB4400EF00A3
:105A3800B0732A84EF0090749307740031443305DF
:105A4800850263C5A702EF003072EF00F0712A8467
:105A5800EF00D0729307740031443305850263CD9B
:105A6800A702EF0070709307450019A8EF001071A6
:105A7800330585021307F0179307C017E357A7FCF0
:105A88002D55E3C277FB63000B02D6865286A685A6
:105A98004A85EFE0F05741BFEF00506E33058502AD
:105AA8009307C5FFF1BF832749001385C90083D534
:105AB8002700EFF01FF071F9B5B76955ADB797F743
:105AC800FF1F239DA7EC97F7FF1F9387E7EC9043F1
