:040000006F20000667
:10000400000000000000000090000020AA02002070
:10001400A9BDF9F560030020000000000000000005
:100024006003002090000020000000000000000099
:10003400900000200000000090000020000000005C
:1000440090000020900000209000002090000020EC
:10005400900000200C080020900000200000000008
:1000640090000020900000209000002090000020CC
:10007400C603002090000020900000209000002083
:1000840090000020900000209000002090000020AC
:1000940001A0B7F707000111944B13078008F33749
:1000A400078093F787083EC20F100000B71700407F
:1000B4001308700523800705930580FA2380B7048D
:1000C4000F10000003C6B7041376F60DA385C7040A
:1000D400238007041246732606800F10000013764F
:1000E400050255CEF336078093F6860836C40F1002
:1000F4000000238007052380B7040F100000B70613
:1001040014007D89558D88C701000100010001009C
:1001140023800704A246F3A606800F10000073375D
:100124000780137787083AC60F100000238007055D
:100134002380B7040F1000000F1000003727004081
:1001440093061005A303D78023800704B247F3A7BF
:1001540007800F10000093078008F3B7078093F718
:1001640087083ECE0F100000B71700401307700534
:100174002380E704130780FA2380E7040F100000AC
:1001840003C7B70413670708A385E704238007049C
:10019400F247F3A707800F100000056182801376F1
:1001A400050459C2733607801376860832C80F10C7
:1001B4000000238007052380B7040F1000003706D2
:1001C4001400130606047D89518D88C701000100BF
:1001D40001000100238007044246732606800F10A5
:1001E400000073370780137787083ACA0F1000009E
:1001F400238007052380B7040F100000A54793F65A
:10020400F60F639EF600B727004013073005A3835B
:10021400E780B717004023800704D2470DBFB727F4
:10022400004013072005E5B7733707801377870865
:100234003ACC0F100000238007052380B7040F1069
:10024400000098471367070C98C723800704E24708
:10025400FDBD0111814601468145114506CE91241B
:1002640093078008F3B7078093F787083EC60F10FB
:100274000000B7170040130770052380E704130735
:1002840080FA2380E7040F10000003C76704136794
:1002940017002383E70423800704B247F3A70780EA
:1002A4000F100000F2400561828041118146014631
:1002B40081451145FD2213078008F337078093F722
:1002C40087083EC40F100000B717004013067005DE
:1002D4002380C704930680FA2380D7040F100000FC
:1002E400FD552396B70223800704A245F3A5058094
:1002F4000F10000073370780137787083AC60F1072
:1003040000002380C7042380D7040F10000003C714
:100314006704136717002383E70423800704B247A5
:10032400F3A707800F10000001A0BD473305F502B5
:1003340001007D1575FD8280411122C426C206C6C6
:10034400AA84014463179400B240224492444101B8
:10035400828005041305803E4204C13F4180DDB71D
:100364009305000273A04580824573901534924032
:100374002242B2424243D2436244F244025592556D
:100384002256B2564257D2576258F25806499649F5
:10039400264AB64A464BD64B664CF64C065D965DED
:1003A400265EB65E465FD65F096173002030411158
:1003B400B7170040985F3AC6945F3247E39CE6FE65
:1003C400324541018280B717004013070003238898
:1003D400E702854723AEF18873002030411106C639
:1003E400EF008079F5BF2303048015472303E480DD
:1003F40001002302A480828083076480E3CE07FE89
:1004040023030480828083076480E3CE07FE0345D0
:100414004480828083076480E3CE07FE2302A480A5
:100424008280411126C44AC24EC006C61377F50B1A
:10043400AD47AA892E8995446306F70019456537A7
:10044400653F8D444E854537FD59FD14639834014D
:10045400B240A244124982494101828013550901E4
:100464001375F50F453F2209CDB7011126CC06CEF1
:10047400B704080051371545BD37713769372AC6A7
:10048400A53F32459377150089EB13651500137565
:10049400F50FF240E24405618280FD14E9FC014558
:1004A400CDBF397126DC4ADA4ED852D656D45AD248
:1004B4005ED006DE62CE66CCB7E700E07D5783AA45
:1004C400070022C603AA470023A0E71823A2E718BF
:1004D400B7170040130770052380E704130780FA59
:1004E4002380E70483C74704930B75FFB684E207B0
:1004F40093FBFB0F8546AA892E8B32893724004053
:10050400E187015763FA76016308D500894613072A
:1005140000026313D5000157D98F93F7F70FB71C67
:1005240000402382FC0411472303E4801305F00FE9
:100534005D3D094CD135636D7C11B7050700DA9533
:1005440037870700795563F2E504B3879500636E36
:10055400F702370B0800A94733EB65016399F906E5
:1005640089E48144513D26850DA0DA850945553D30
:1005740005090345F9FFFD14050B693D81C4937713
:10058400FB0FFDF7DD3569FD7D55B71700401307F7
:1005940070052380E704130780FA2380E70403C768
:1005A4004704418B2382E704F250B7E700E023A01D
:1005B400571123A24711E25432445259C259325AB4
:1005C400A25A125B825B724CE24C21618280A54785
:1005D4006395F90685691309F00FB3069900B3749E
:1005E4002B01B6941349F9FFB3749900856B3379E1
:1005F4006901416B9387F9FFB3F7270199E363FC22
:10060400340193D94900C147E3E637FF99BF05692F
:10061400C1697D19D9B71305800D63886901130574
:1006240000026384790113051008CA85DD3B353D5A
:1006340021DD4E99B3843441D9B7DA852D45D533BC
:10064400CA94E30099F205097D3BA30FA9FED5BF27
:100654009387F9FF93F7F70F6361FC0C83C71C04BE
:1006640013073008631FF70437070800636BEB04B4
:10067400B3079B00B706100063F5D704334BEB00B8
:1006840089476393F9068980D549E38C04ECDA85BC
:100694000945413B11090327C9FF91472320E48001
:1006A40003076480E34E07FE23033481FD17EDFB4B
:1006B400FD14110B81C49377FB0FE9FF7D3371F5B2
:1006C400E1B5B717004003C75704B707080013770D
:1006D400070219E3B78707007955E378FBEA330784
:1006E4009B00E3FFE7F855B58547E382F9F2DA8525
:1006F4002D45053B9389F4FFE38504E6293393F7FD
:10070400390091EB832604800327090093074900ED
:10071400E39AE6E43E89CE84F1BFB5476396F900D7
:100724001305900BC93135BDB1471305B00AE38BEE
:10073400F9FE99476391F904B7050800B365BB0056
:100744002D45C53181448D4BA1497539639674019A
:10075400832704802320F9008504E39834FF83274A
:10076400048013172B01635507002312F900D5BB2E
:100774002322F900FDB39D476399F90281451305CE
:10078400B0044531BD442320090023220900FD594A
:100794009D3993F77400CA9703C70700FD14398D78
:1007A4002380A700E39634FF6DBBA1476392F9044D
:1007B4006D398144630D0B008D479304C0036308B6
:1007C400FB009304000563048B0193044004137538
:1007D400C507E30895D8194539313939054521311B
:1007E40026850D3909453D314931E31C05D669BBE0
:1007F40091476399F90013056006F536F53E130534
:1008040090090DB7E38F09D4F154A9BB197106C23D
:1008140012C416C61AC81ECA22CC26CE2AD02ED27C
:1008240032D436D63AD83EDA42DC46DECAC0CEC22C
:10083400D2C4D6C6DAC8DECAE2CCE6CEEAD0EED25C
:10084400F2D4F6D6FAD8FEDA938541898841E700D6
:10085400050092402242B2424243D2436244F244EF
:10086400025592552256B2564257D2576258F25800
:1008740006499649264AB64A464BD64B664CF64C30
:10088400065D965D265EB65E465FD65F09617300BF
:100894002030B7E700E09843B706200023A0D7181C
:1008A400758F0F10000001C599C1814711E6B7E7A4
:1008B40000E023A0E7108280B386F50003C8060099
:1008C400B306F500850723800601E317F6FEC5B7D6
:1008D40037E700E01C43B70620002320D718F58F24
:1008E4000F10000019C191C111E637E700E0232081
:1008F400F7108280910503A7C5FF11057D16232EED
:10090400E5FEDDB737E700E01C43B70620002320EF
:10091400D718F58F0F10000001C53307C50011E685
:1009240037E700E02320F71082800505A30FB5FE0A
:10093400E31DE5FEF5B781473307F500030707001C
:1009440019E33E8582808507C5BF37E700E01C4375
:10095400B70620002320D718F58F0F10000001C51B
:1009640099C1014711EA37E700E02320F710054554
:1009740082800507E309E6FE3308E500B386E50057
:100984000348080083C60600E305D8FE37E700E005
:100994002320F710014582809307F6FFBE952A961F
:1009A4006313C5008280FD1583C715000505A30FD9
:1009B400F5FEFDB7AA87014581CF09CE3E9685078E
:1009C40003C7F7FF6317B700E39BC7FE05458280A3
:1009D4008280014582807971974700009387076080
:1009E40022D4804306D626D24AD04ECE52CC56CA02
:1009F4005AC85EC669C037C9C901014B974900008E
:100A04009389495D1309F937174A0000130A4A5DAF
:100A1400974A0000938A4A579744000093840461DC
:100A24008357240095E35C44631D0B0017470000C3
:100A34002326F75A832BC4002285EF00B02F5E844F
:100A4400A9A82326FB00FDB783A7090082971C44AD
:100A54003307F5406375F500D8401D8F2A9763610D
:100A6400E9089747000023A907528355240003454A
:100A74000400974000E0E78000CC5C405844B9C7CC
:100A84000C44D040AE97BE8663E4B70063E4C7006D
:100A9400B386C74014C4228B3A8459F097470000A8
:100AA4009387874E9C4B09476373F708F9171747D9
:100AB40000002323F74EB250225492540259F249B3
:100AC400624AD24A424BB24B4561828063170B00A3
:100AD4009747000023A4E750B1BF2326EB0099BF3A
:100AE40003274A021DCF63E1A7043385A740834748
:100AF400040085E3174700000347F74F5917B3076E
:100B0400A7003E85D44063E4E70063E4D70033855F
:100B1400D74083A70A016376F5009747000023AD09
:100B2400A746228B404495BFD840BA977DBF9747CC
:100B3400000023A3074641B7974700009387874ED9
:100B44009C4385C3411106C682979747000083C71B
:100B5400474889E79747000023A6074CB240410164
:100B640082809747000083C7C74691E797470000F4
:100B740023AA074A82808280411122C417440000BC
:100B8400130444431C4006C626C24AC091C7829738
:100B94009747000023A007429747000083C7976246
:100BA400858B174900001309A96189CF8347790010
:100BB40019476312F71097470000A3850760F923CC
:100BC4005C4482971C4491C38297974400009384A9
:100BD400A4409840174600000346163B9747000080
:100BE40083C7873A93961700BA9683D60600E5C260
:100BF4009747000083C7473963E5C70E974700004E
:100C0400238407381C40639E07149747000093878A
:100C1400673C9C4363870714974700009387074109
:100C2400DC43174700002329F73675339747000044
:100C340083C7B759639707129747000083C7D758EC
:100C440091CF8347790093F7F70F89EB974700001B
:100C5400A38C0756979001E0E78040659747000012
:100C640093870738DC53638E070E974700009387FA
:100C7400A7319C4BFDC78347790015476363F70E83
:100C84009747000083C74759918BE1EF97470000CE
:100C940083C72734F9E790409746000083C6D62ED1
:100CA40063C7D70C2244B24092440249410117431E
:100CB40000E06700E309834779001D47E314F7F078
:100CC40097470000A3800750D1211C48DDBD85074C
:100CD40093F7F70F974600002388F62AE3E0C7F05E
:100CE40001BF86073E9783550700231007009747E7
:100CF4000000239F072C974700009387672B9C4392
:100D0400174500000345452813172500BA979C434F
:100D140082979747000083D7A72B17470000034704
:100D2400A72693C7F7FF7D8D9317170098403E972A
:100D3400835707005D8D2310A7009747000083C7E2
:100D4400A72491C7850717470000230FF7221747E9
:100D54000000034767239747000083C7F722E37F18
:100D6400F7E8B24022449244024941018280139739
:100D740017003297035707006DF7850715B737C774
:100D840000408326C720B707FCFFFD17F58F2326F5
:100D9400F72001000100974700009387E71EC84F22
:100DA400832787262326D7206A0593C7F7FF9983CD
:100DB4005D8D8280011122CC604126CA4AC84EC68C
:100DC40052C406CEAA841D4A130965058549BC444C
:100DD4006364F4000545B9A003C7D4008347440005
:100DE400631A470503C784026304F7000040C5B7CC
:100DF4000347540083C75405E31AF7FE1946CA850E
:100E0400130564009936E31335FF0347C40083C711
:100E14009402E31DF7FC0357E40083D7A402E3170D
:100E2400F7FC0145F2406244D2444249B249224AA5
:100E340005618280E31CF7FA0347540083C7540515
:100E4400E316F7FA1946CA8513056400FD3CE31F4F
:100E540035F9C1BF0111974700009387A74722CCFA
:100E640003A4070C26CA06CE2AC42EC6854419E458
:100E74000145F2406244D244056182808347910077
:100E840003471400858B6304F7000044CDB719466B
:100E94009305A100130524004D3CE31895FE054578
:100EA400C9BF0000EFF05FC973000000000000003C
:100EB400974200009382E211038302002380020020
:100EC400630F0300F32510342EC0970500009385AB
:100ED400A5FD73901534EF00E0507300203086DCDC
:100EE400EF004050E65082800000174700001307CF
:100EF400E72C1443411122C49C5E4AC006C6998360
:100F040026C2858B3A84174900001309E92AD1CBFC
:100F1400930700069CDE174700000347C72A930780
:100F24000008974400009384A429631BF7008327D7
:100F340009009C4393F70704174700002305F7288B
:100F440083C7040093F707049DC397470000938762
:100F540067089C4382979747000023A1A72883C76B
:100F6400040093F7F70B17470000230BF72483C7FC
:100F7400440093F7070495E7854717470000A30348
:100F8400F72497470000938727269C4337070200DE
:100F940098C7130700FC974600002385E62298486B
:100FA400F8D318401C5F9183858B8DC31C5F93E736
:100FB40007011CDF97470000938707239C4323A264
:100FC4000706854717470000230EF71E83270900ED
:100FD400D8430583058B19C7D843759BD8C3D84319
:100FE400799BD8C3B2402244924402494101828091
:100FF400ED3D730020309317D50063D30702974764
:1010040000009387671E9C437D57B8D7974700001D
:10101400938787F7DC4F8507174700002324F7F8E9
:10102400937785009DCB9747000083C7871993E783
:101034001700174700002306F718930700F817470F
:1010440000002301F7189747000093872717984358
:101054005C57F19B93E717005CD7937715008DC716
:101064009747000083C7D71593E717001747000079
:10107400A308F714974700009387471498435C57D5
:10108400F19B93E717005CD79377650095CB937733
:101094004500174700001307A712CDCB834707006D
:1010A40093E7170017470000230CF7109747000039
:1010B4009387C71098435C57F19B93E717005CD75D
:1010C4009317F50063D40702174700000347072866
:1010D400418B974700009387E71F51C383C7870756
:1010E40093E70702174700002302F7269317E5004A
:1010F40063D707029747000083C7C70CE207E1875D
:1011040063D70700854717470000230DF70A974761
:1011140000009387670D9C433707020098C7931715
:10112400C50063D407021747000003473722058B25
:10113400974700009387071A29C383C7970793E744
:10114400270017470000A303F72082808347370056
:1011540093E7170017470000A305F70681BF03C7ED
:10116400870789463D8B6308D70083C787070D47E8
:10117400BD8BE39DE7F69147B5B703C79707118B7E
:1011840069D783C7970793E7870065BF9747000030
:10119400938787059443974700009387670203C7A3
:1011A4000700058B11CB97470000238D0700974755
:1011B4000000A3890700828003C71700058B65F729
:1011C400F85271FF83C75700DDB7174700001307B4
:1011D400E7FE03280700832788039583858BADEFFB
:1011E40011C683270803BD832300F6009DC61C4354
:1011F400985B4607935767016356070093E707C058
:10120400C207C18303970600C207C18709C7BA97FB
:101214000947B3C7E7022390F6008DCD8345150037
:1012240095C99747000083C707FA93F70704138704
:101234009500894585C33A95834705000547994537
:1012440093F6F7066398E600E207E187814563D3E6
:101254000700B9452E8582808545EDBF411122C422
:1012640006C626C217440000130404F845E11440DE
:101274002E87FC52FDFF97470000238407F497470D
:1012840000009387E7D5D453BE8495C6B7E700E042
:10129400B706200023A0D728B7F700E083A607D11C
:1012A400ED9A23A8D7D083A607D193E6860323A873
:1012B400D7D0730050103A85B285979001E0E7804B
:1012C40040E697470000938767EF9C43B70680008A
:1012D4009843558F98C3D857719BD8D79747000028
:1012E400A38207EE97470000A38C07EC1C40094734
:1012F40098C3DC5085CF37F700E0832707D193E705
:1013040087002328F7D0730050100DA08D47631574
:10131400F50497470000938767EA9C43B70680006B
:101324009843558F98C3D857719BD8D71440174703
:1013340000001307E7E883472700858B89EB834781
:101344003700858BC9CF97470000238D07E6B2404D
:1013540022449244410182808547E319F5FC974772
:1013640000009387E7C7D4533E8795C6B7E700E0EC
:10137400B706200023A0D728B7F700E083A607D13B
:10138400ED9A23A8D7D083A607D193E6860323A892
:10139400D7D07300501014408177FD17D046F18FD9
:1013A400DCC60F1000001440B70702009CC6930768
:1013B40000F8974500002387F5E0974700009387DE
:1013C400E7DF9C439C439D83858B99C793076019F2
:1013D400FCD2D0C65C5339BF9307E01BD5BFFC5287
:1013E400B9FBB5B797470000938707E09C4388474C
:1013F400D847798D09C988C79387C19303A3070088
:101404006303030002838280974700009387C7DD4C
:1014140098438967938707F47CD3974700009387A1
:10142400E7E19C4383A60709139656006358060018
:1014340083A6070913966600634406007453FDF2FD
:1014440082804111B7E700E022C4804337072000BF
:1014540006C6798C23A0E7180F10000011C199E586
:10146400B7E700E023A0871001457DA89307350066
:10147400C207C183F19BC207C18313074003636999
:10148400F702174700001307A7E4084317470000B3
:10149400130787E314436392A60217470000130758
:1014A40027B4185B55DFC207DD8D054502974DBF94
:1014B40017470000130787E1C9BF035765002DEBE9
:1014C400035745006366F706B306F7402146637C7D
:1014D400D60203280500938687001D8FAA966117FC
:1014E400174600000356A6AA2392E60023A006018D
:1014F4002393060014C12312F500130786FF9746B1
:1015040000002396E6A82313B5009745000083D571
:1015140005A8B387F54017470000231AF7A6B7E7D5
:1015240000E023A087102105B240224441018280BB
:10153400084195B7B7E700E08C433707200023A0A4
:10154400E718F98D0F10000001E523A0B710828081
:10155400974700009387C7D703A307009747000066
:10156400938787D683A8070081469A8763F2170D6D
:1015740003A807006361F50C636FA80A138787004B
:101584006368E50A03D66700216705076317E60069
:1015940003C741930507238AE19217450000130509
:1015A400A59E03D64700035765002393070032978F
:1015B40042074183174E0000231BEE9C638C670295
:1015C40017430000130383D0032303006304F302CF
:1015D40003D366006310030283D7460023A00601E9
:1015E40021073E9621062392C600974700002390C8
:1015F400E79AB6879843630D1703974600009386CE
:10160400E6CC94426306D7028356670095E283D6FC
:101614004700035647001843A106B2962392D70009
:1016240098C383576500A107174700002311F79655
:10163400B7E700E019BFBE86C2870DBF0327851137
:10164400630407120346E50485466300061241114C
:1016540022C406C68347C5002A8493F7C70F23060E
:10166400F500834597000358C700139585016185EC
:1016740063700609635905060345870093F5F5076A
:10168400A304B70093E527006314D50093E517007E
:101694002306B4005C4389075CC3A30AC400032582
:1016A40004114C430905EFF0CF9E832784110346B0
:1016B4005401D44303D7C700B296118FD4C32396E1
:1016C400E7008947A30DF40003476403974700002C
:1016D40083C727926377F7048347C40093E707011E
:1016E4002306F4003DA893E717002306F40075B71A
:1016F4001376F80F635D05020345870093E5270021
:101704006314D50093E517002306B400A30AC400AC
:10171400A30407008547A30DF400832784119C4389
:10172400C5F7B2402244814636854101828093E761
:1017340017002306F400A30AC400A304070003252A
:1017440004114C4342860905EFF0AF9483278411BA
:1017540003465401D44303D7C700B296118FD4C3B0
:101764002396E7008D4745BF854636858280974797
:1017740000009387E7C89C43411122C406C6858BA9
:101784002A84C5EF4165130525F5976002E0E780DB
:10179400C02345C58347A5002315F50083270412FC
:1017A400BDE72320A4122322A41285472311F404A5
:1017B400232005008347640154412316F5000347A1
:1017C400D4002304E5000547A304E50017470000FF
:1017D4001307079F58531385170215811C437D1562
:1017E4001375F50F9CC25C43DCC21C479CC65C4766
:1017F400DCC61C4B9CCA5C4BDCCA1C4F9CCE5C4FA9
:10180400DCCE19CD9386060213070702C1BF8327D6
:10181400441288C3835724042322A412850779B76A
:101824009747000083D787AB850717470000231726
:10183400F7AAB2402244410182808347C4002309AD
:101844000400054593C747002306F400DDB783472A
:10185400850193F7E70FD5EF83479501DDEB034649
:1018640025018346C50009CA83456503173700006F
:101874000347377863E7E50013F7060141CF0147D3
:1018840009C6C18A0357651C81C68356A51C3697B1
:1018940051C31307C712173500000355A579B33593
:1018A400A70237460F00411113060624814622C4BD
:1018B40026C206C67D543305A70297A002E0E7803E
:1018C40040FE9737000083C71773B384A700974778
:1018D4000000938727A003A787098327070963F3D9
:1018E40087003E84184375FB973700009387876E03
:1018F4009C43829781476364A400B307A440B24029
:101904002244B3B7970093C7170092443E85410120
:10191400828081473E858280974700009387C78CE9
:1019240098433C5BFDFF010001008280011122CC41
:101934004AC84EC606CE26CA52C456C25AC0034727
:10194400B50085472A842E89832905096311F72662
:1019540083570508835AC503173A0000130A0A6D12
:10196400173B0000035B0B6D63FB572183460501A6
:101974006397E62003278511631307200327450A8D
:10198400631F071E8346F5001D47639AE61E03473F
:101994001401B38AFA4013950A01418121CF937748
:1019A400170099CB8357E40583560404958F63D5B8
:1019B400A7001395070141819377270099CB83579B
:1019C400E41283560404958F63D5A7001395070189
:1019D40041819377070199CB8357C4148356040438
:1019E400958F63D5A700139507014181218B11E3DE
:1019F40011E105450357A4039307204E83244409AA
:101A04003305A70237460F00814613060624330523
:101A1400F5029737000083C7075EB3549502B335C8
:101A2400AB02BE94C204C180231394083305AB02F5
:101A340097A002E0E780E0E6B307350133B5A700DD
:101A44002E953E8783264A0019E163E4D700338745
:101A5400D740B3846403B7460F009387F623938675
:101A640006242320E900A697B3D7D702D69763624A
:101A7400F7101D8F2320E9009739000093898955B9
:101A840083A7090083240900829763E5A4123385A0
:101A9400A4406354050C83A7090082970327090017
:101AA4006361E512198D8357E40317370000035768
:101AB40067588E07B387E702130700329387071925
:101AC400B3D7E70263E7A710374A0F00130BFA23D3
:101AD400973A0000938A8A55130A0A248357040408
:101AE40085072310F4048347041499E322855922BB
:101AF4002285975002E0E780C0E075E98326040957
:101B04008327C40803A74A00B6973E8563E4D70039
:101B140063E4E7003385E7408347F40183546408B2
:101B24002328A4088507A30FF4009737000083D760
:101B34006750B384F402DA94B3D444036368950C15
:101B4400B304954083A7090023209900829763E397
:101B5400A40C3385A440E34305F89737000083C7FA
:101B6400974963E7A7089747000023A587800145A5
:101B740041A083264A00B387F6403E97E5BD8354CF
:101B8400640837470F009307F723B3846403BE94B4
:101B940093070724B3D7F40263E7F900B387F94046
:101BA4002320F900D1BD03274A00BA99C5BF23A059
:101BB4003501D9B59737000093874747DC43BE9476
:101BC400F9B59737000093876746DC43998F3E95B4
:101BD400D9BDA1452285975002E0E78060CBA305DB
:101BE400A402973700009387A73F9C5B81EF7D5544
:101BF400F2406244D2444249B249224A924A024BD8
:101C040005618280894515458297D5B7B30497400D
:101C1400AA940DBF83A74A00BE9425BF39C90111F8
:101C24006C0022CC06CE2A8411331DCDFD576302ED
:101C3400F502B2479735000083C5F53B63EFB70063
:101C440003459402B385B7402EC6973000E0E78081
:101C540020C6F240624405618280173700001307F2
:101C6400E73C5843BA97E9BF976002E0E780E08613
:101C7400CDB78280797126D206D622D44AD04ECEF0
:101C840052CC56CA5AC85EC68347550303447513DB
:101C9400AA843E941374F40F9307400263F68700FA
:101CA4001304B4FD1374F40F03AA841383AAC41396
:101CB400A38B841222865285D68597A002E0E78002
:101CC400C0B8058915E503CBD41201498149337B9A
:101CD4006403930B50024A865285D68597A002E08E
:101CE400E780A0B6058915C5639169031374F90FDC
:101CF400238B8412B250225492540259F249624AFC
:101D0400D24A424BB24B456182808509E20993D99C
:101D140089410509E31179FDE1BF8327850903564C
:101D24000504797193D60701BD8EC206C182358E32
:101D34001357764093575640898B058B5D8F935785
:101D44003640918B5D8F93571640A18B5D8F93170F
:101D54001600C18B5D8F9317360093F707025D8FD2
:101D6400931756009355860093F707041E065D8F5C
:101D74001376F60F518F93D7554013D63540118AF9
:101D8400898BD18F13D67540D18F13D61540218AF4
:101D9400D18F13961500418AD18F1396350013768F
:101DA4000602D18F13965500137606049E05D18F33
:101DB40093F5F50FCD8FA20745465D8F3307C70214
:101DC40022D42A8426D252CC56CA032A8413832AC4
:101DD400C4135AC806D636974207418393577740AF
:101DE400135557400989858BC98F1355374011897D
:101DF400C98F135517402189C98F131517004189BD
:101E0400C98F1315370013750502C98F13155700B1
:101E140093558700137505041E07C98F1377F70FB1
:101E2400D98F13D5354013D755401189098B498F64
:101E340013D57540498F13D515402189498F1395C2
:101E440015004189498F1395350013750502498F93
:101E540013955500137505049E05498F93F5F50FE9
:101E64004D8F2207D98FB387C7024AD04ECE5EC6A4
:101E740062C4B697C207C18313D7774013D55740BE
:101E84000989058B498F13D537401189498F13D59B
:101E940017402189498F139517004189498F13955C
:101EA400370013750502498F1395570093D58700A2
:101EB400137505049E07498F93F7F70FD98F13D530
:101EC400354013D755401189098B498F13D5754077
:101ED400498F13D515402189498F139515004189E0
:101EE400498F1395350013750502498F13955500D5
:101EF400137505049E05498F93F5F50F4D8F220741
:101F0400D98FB387C702130650025285D685B69778
:101F1400BD8E93940601C18033F6C402137BF60F81
:101F240097A002E0E780609205890DED8347D41203
:101F340001498149B3849702130C5002C1804A8637
:101F44005285D68597A002E0E78020900589937B8F
:101F5400F90F11C563863403850993F9F90F05094F
:101F6400E31F89FD230B6413B25022549254025987
:101F7400F249624AD24A424BB24B224C45618280BA
:101F84005E8BCDB70111973700009387A73422CC1D
:101F940003A4870C26CA4AC84EC606CEAA841309CF
:101FA4002500854915C083C7140003473400858B79
:101FB4006304F700405CFDB71946930544004A8565
:101FC400EFE0BF98E31835FF2285F2406244D24423
:101FD4004249B249056182804111973700009387D5
:101FE400672F22C403A4870C26C24AC006C69304E2
:101FF4002500054901E82285B24022449244024961
:1020040041018280A6851305A402978002E0E7803F
:1020140060FAE30225FF405CF1BF411197370000ED
:102024009387472B22C403A4870C26C24AC006C642
:1020340093042500054901E82285B24022449244D4
:10204400024941018280A6851305A401978002E01C
:0C205400E78040F6E30225FF405CF1BF8E
:1020600097110020938101C7174100201301817946
:102070001305400097E5FF1F9385C5F8170600205C
:10208000130606FE63FAC5008322050023A055004F
:1020900011059105E3EAC5FE17C502001305C5D277
:1020A000970500209385C5FB1386018763FAC50059
:1020B0008322050023A0550011059105E3EAC5FE22
:1020C0001385018797350020938505356377B50023
:1020D000232005001105E36DB5FEFD42739002BC9F
:1020E0008D4273904280930280087390023097E291
:1020F000FF1F938222F193E23200739052309712C5
:1021000000009382A2D673901234730020303D43B6
:102110002A876373C3029377F700BDEFADE593762B
:1021200006FF3D8ABA960CC34CC30CC74CC7410787
:10213000E36BD7FE11E28280B306C3408A069702A2
:10214000000096966780A6002307B700A306B70095
:102150002306B700A305B7002305B700A304B70003
:102160002304B700A303B7002303B700A302B700FB
:102170002302B700A301B7002301B700A300B700F3
:102180002300B700828093F5F50F93968500D58DD7
:1021900093960501D58D61B79396270097020000AD
:1021A00096968682E78086FA9680C1171D8F3E96A6
:1021B000E374C3F8A5B7B717004003C777051377D3
:1021C000E70FA38BE704130700F8A38DE7043D474F
:1021D000238CE70413075003A38CE70403C7A70568
:1021E0001377D70F238DE704828041112A83014E94
:1021F000930E407E130F0019930F400663E56E1295
:102200009308001913034006B3781503854E0D4F4C
:10221000A14F337365020D891335150063EFBE12AC
:102220001308F6FF794672984208135808013307DD
:10223000C70213D61700BE0732976146B3F6C6022F
:1022400013068070B386C6023697A166F58F4207E3
:102250005D8FB716004083C7F60293F70708A30304
:10226000F1000346710083C7F60293F70708E39471
:10227000C7FE83477100B716004093F7F70F6388D6
:10228000071293078008F3B7078093F787083EC4C7
:102290000F100000B7170040930670052380D70485
:1022A000930680FA2380D7040F10000023AA0703A7
:1022B00083C6170393E60608A388D7022380070482
:1022C000A247F3A707800F1000001166B717004060
:1022D0007D16D45BC85F93854703A98EF18EF5FA0E
:1022E00093068008F3B6068093F6860836C60F106C
:1022F0000000930670052380D704930680FA23809C
:10230000D7040F10000098C103C717031367070411
:10231000A388E70223800704B247F3A707800F10C2
:102320000000410182807D133368E3039308E016C7
:10233000630E08003368F3039308D016630808009F
:102340009378330093B818009388D81633081E0189
:10235000131E0801135E0E0155B56393E50305488E
:10236000638608000148630303002A887108729895
:10237000FD15131E0801C205135E0E01C18179BD52
:1023800013F8150063F4BF007908D5B713381800A7
:10239000E5BF83C7F60293F70708A303F1000346DE
:1023A000710083C7F60293F70708E394C7FE8347DB
:1023B000710093F7F70FF1DFE9B5914763EEB702CC
:1023C00017B702001307C7BC8A05BA959C41BA9794
:1023D0008287B717004003A7470B1345F5FF698FA6
:1023E00023AAE70A03A7070B698F23A8E70A03A715
:1023F000070A798D23A0A70A8280B717004083A619
:10240000470B1347F5FFF98E23AAD70A83A6070BBC
:10241000558D23A8A70A83A6070A758F23A0E70A6C
:102420008280B717004003A7470B498F23AAE70A0A
:1024300003A7070B1345F5FF45BFB717004083A659
:10244000470B1347F5FF758F23AAE70A03A7070A6F
:10245000598D4DB7B717004003A7470B498FEDB70C
:10246000B71700408847420541819377050491EBF7
:102470009377F5013755E801130505803345F502DB
:1024800082809377050C130700046397E700937726
:10249000F50137459C1CCDB72165130505D0828019
:1024A000B7F700E08847CC47828081473737004044
:1024B000A14663C4C700328582800345B740E38EDE
:1024C000A6FE3385F5000345050085072304A740D4
:1024D000CDB7970700209387E7FF9C43173700206D
:1024E000130787F33E95636EE50017470020130737
:1024F00067116368A70017070020232DA7FC3E85FE
:102500008280FD57EDBF411122C406C62A84893F4F
:102510002947B307E502B2408D83B3D7870222442F
:102520009507B3D7E70237370040C207C1832316A8
:10253000F74041018280716541111305052006C6EF
:10254000D937B7370040130770F82381E7400D47AC
:10255000A381E74013070004A380E74005472387D2
:10256000E740B24041018280CC41411106C632852C
:1025700003C6150083C5050022064D8E42068D65F3
:102580004186138875A2630C060F6348C80413883C
:1025900045A26306060B634AC800938535A263090A
:1025A000B60623900600294679A0138855A2630831
:1025B000060B938565A2E316B6FEC1451D4663EC86
:1025C000E5064546198E63F3C7003E862390C60094
:1025D00097B502009385059E89A8138895A263008C
:1025E000060F634E060B1388A5A2630A060F938598
:1025F00005A5E318B6FA99451D4663EEE502198E66
:1026000063F3C7003E862390C6009385C18031A83E
:102610009D451D4663E1E5022146198E63F3C7001F
:102620003E862390C60093850187BA9597E0FF1FE9
:10263000E78060260146B240328541018280AD4587
:102640001D46E3EAE5FE3146198E63F3C7003E8678
:102650002390C60097B5020093858599F9B7B145D7
:102660001D46E3EAE5FC3546198E63F3C7003E8656
:102670002390C60097B50200938585987DB7C14524
:102680001D46E3EAE5FA4546198E63F3C7003E8628
:102690002390C60097B502009385059379B7C1458D
:1026A0001D46E3EAE5F84546198E63F3C7003E860A
:1026B0002390C60097B5020093858595BDB7C145A7
:1026C0001D46E3EAE5F64546198E63F3C7003E86EC
:1026D0002390C60097B5020093854590B9B7B545DC
:1026E0001D46E3EAE5F43946198E63F3C7003E86DA
:1026F0002390C60097B502009385C58A3DB797061B
:1027000000209386E6A84146CD4517050020130515
:1027100025956FA010072D453DEF03C5050009471E
:102720006317E5063285D041411106C603471600FE
:102730000346060041682207518F130628FE6308EE
:10274000C7026369E60005186303070323900600C8
:1027500029451DA8130648FE630BC7001518E3178B
:1027600007FF15473E866377F700154621A03E8692
:1027700091C30546CC452390C6004206418297E0AE
:10278000FF1FE78040110145B24041018280239044
:10279000060005458280828083C7850093F7070283
:1027A000E1E3411106C622C426C24AC003C905009E
:1027B00009432E888547631B690203A345003284C1
:1027C000B6848347130003430300A207B3E76700FF
:1027D0004163130E13FE6382C7030D13638B6704FB
:1027E0000D681308289063850707A947B240224463
:1027F000924402493E8541018280AD4765FB054711
:10280000B547E365D7FE0325C8000546A28597E0D6
:10281000FF1FE7804008014993870189984381475A
:1028200071D7184361D72686A2854A8502978147CA
:1028300075BFAD4745FF0547B547E369D7FA03259F
:10284000C8000546A28597E0FF1FE780C004E9B7EE
:102850002244B24092440249854741016F8030369C
:10286000A1473E85828041677917630CE5024111DB
:1028700022C406C685472A84639AF500228522442D
:10288000B2409385819941016FA0807A8947639610
:10289000F5008545EFC0F03575D1B24022444101C5
:1028A00082808280411122C42A8441659385819966
:1028B0007D1506C6EFA0C077170500001305E5FAE1
:1028C0000588EFC0502A05C02244B2409706002078
:1028D0009386C69D4146C545170500201305058C06
:1028E00041016FA0006AB24022440145410182804B
:1028F00009C523A8A18801458280454582801147EA
:10290000636EA70697A602009386C6710A053695E0
:102910001841411106C63697AE87B2850287054732
:102920006145639AE70005461385818797E0FF1F9D
:10293000E78060F60145B24041018280054761456C
:10294000E39BE7FE05461385C187CDB70547614583
:10295000E393E7FE054613850188C9BF0547614536
:10296000E39BE7FC054613854188C9B715476145D8
:10297000E393E7FC1546138581884DBF09458280A6
:10298000411122C42E849385819926C206C6AA8449
:10299000EF80B01D058915C1970700209387078038
:1029A00083D7A70BA285B2402310F40022442685CA
:1029B0009244014641016F902078B24022449244F3
:1029C000494541018280411193962500AA852D45F4
:1029D00006C697E0FF1FE78000ADB2400145410108
:1029E0008280011122CC06CE3714004026CA4AC884
:1029F0004EC652C483447405034AB4058349840512
:102A000003499405EFF02FFB8347A40593F4F40FDB
:102A1000137AFA0F93E71700230DF40493F9F90FD3
:102A20001379F90FB717004003C7A705058B6DFF92
:102A300003D5C705A38D4705238C3705A38C270530
:102A4000A38B9704F2406244D2444249B249224ADD
:102A50000561828001119397050122CC06CEC187C2
:102A60002E8463DD0700EF10F00C19C1EF10700029
:102A70002165218DF24062440561828093F7150043
:102A800013C51500E5FB93F7250013C52500FDF3DD
:102A90009397250163D30706EF707165B717004060
:102AA00003C7E702930680081377C70F1367170061
:102AB000F3B6068093F6860836C60F10000093061C
:102AC00070052380D704930680FA2380D7040F1063
:102AD00000002387E70223800704B247F3A707809B
:102AE0000F10000037F60200130606E0896503C5E3
:102AF0008189EF10B0630965ADBF9397150101455A
:102B0000E3DA07F617A5020013058557EF90A22F09
:102B100013060064916503C58189EF10306111656A
:102B200089BF2D71232A9110FD74E98C232C81100B
:102B300023282111232631112A84AE893289930654
:102B400000100A86A6852D45232E111097E0FF1F41
:102B5000E78060951315440151810A0513962900F9
:102B6000CA850A9597E0FF1FE780E0D2A6858566B3
:102B70000146254597E0FF1FE780E0920A86A6857B
:102B800093060010294597E0FF1FE780C09183203E
:102B9000C1110324811183244111032901118329C7
:102BA000C11015618280B7F7070003C70701411103
:102BB00006C622C426C24AC0A547631AF700953745
:102BC000B24022449244024901454101828013945B
:102BD0002500AA843289A286AA850146254597E068
:102BE000FF1FE780408CA2864A86A685294597E08C
:102BF000FF1FE780408BE9B71D71494697A502008A
:102C00009385854317B502001305C5BE86CE97E0B0
:102C1000FF1FE780C0D301E917A502001305054394
:102C2000EF90621E01A0B7F600E0795798CAFD57F1
:102C3000DCCA0567B7E700E023A0E7101306F0023F
:102C400090C223A0E7180F10000017E7FF1F13071B
:102C5000672623AAE1884157A38AE74013060004A8
:102C60008145080897E0FF1FE78000CA970700200A
:102C7000938787A03EC88D6793870780231AF1004A
:102C80009D673ECCB7070105938707103ECEED4701
:102C90002310F10285472301F10297070000938773
:102CA000C7D2BEC297070000938727F0BEC48567CE
:102CB000938757F12312F102B7F5070097F7FFFF4B
:102CC0009387477E3ED88146970700009387A7D118
:102CD0003000E10519453EDC97D0FF1FE780A07C5E
:102CE00018088147994630003E960346060085073E
:102CF0000507A30BC700E398D7FEC24791C7035748
:102D0000410185676373F70001A08307410263D720
:102D1000070493078008F3B7078093F787083EC43A
:102D20000F100000B7170040130770052380E70459
:102D3000130780FA2380E7040F100000B847B70696
:102D4000100013670718B8C79853558F98D323807E
:102D50000704A247F3A707800F1000000808EF2020
:102D6000A027AA8501C917A502001305652FEF80CA
:102D7000F27701A0F640256182804111170500001D
:102D8000130585CD06C622C4EF2040211384818916
:102D90002300A4001928034504002244B24013066E
:102DA0000032896541016F107038797106D61307BA
:102DB0008008F337078093F787083EC20F100000A2
:102DC000B7170040930570052380B704130680FAF7
:102DD0002380C7040F10000083C6F70293F6D60FB6
:102DE000A387D702238007049246F3A606800F101C
:102DF000000073370780137787083AC40F1000006C
:102E00002380B7042380C7040F10000003C7F70214
:102E100013675700A387E70223800704A247F3A79D
:102E200007800F1000008147014781460546854510
:102E30001305407EEFF06FBB68005146814597E077
:102E4000FF1FE78060ACB707C0A83EC8B787320055
:102E50003ECA680097D7FF1F9387A7553EC6EF204D
:102E6000804BB2504561828041111305800406C633
:102E700097D0FF1FE7802022371700408327870A5B
:102E80008D451305002093E707202324F70AEFF070
:102E9000CFD2EFF04FEA17B502001305A595EF80EA
:102EA0009276993BD93DEFE0B13FEFE07146EF10EC
:102EB000C01CEF00D02097D0FF1FE78060528280B7
:102EC0002A86B305B04017A502001305254E6F8072
:102ED000F261011122CC36C606CE2E84EF10806836
:102EE000B24637460F00130606243376C50291CA50
:102EF000B28517A502001305654A32C6EF80125F3E
:102F0000324622856244F240814505616FD0411509
:102F1000011122CC26CA06CE4AC817270020034733
:102F2000A7F5AE8417240020130404F5814763013C
:102F3000A70217270020034787F58547630AA700E4
:102F400017270020034707F689476303A7008D472B
:102F500013F7840029C301572312E1005947B387AF
:102F6000E70283C6118A09464C003E9403552400AB
:102F70008547231904002318040023170400A30520
:102F8000F400EF70C03913C58400F2406244D244AB
:102F900042490561828013F7040245C75947B38748
:102FA000E7023E948347C400BDE303C7C181835752
:102FB00024010355240025C70549014781460546DC
:102FC000C945231601002312F10023132101EF70DC
:102FD000C01E2AC40DCD9307A0052300F50003559C
:102FE000240003C6118A4C00EF70A01505E50345C7
:102FF000040083C7C18193B7170023062401130679
:10300000006493050002238EF180EF10301213C587
:103010000402A5BFC9454800EF704061CDBF03C69B
:10302000118A4C002312F100EF70E0106DF185471A
:103030002306F40083C7C18193B71700238EF18064
:10304000F9B713F704103DC35947B387E7023E941D
:103050008347C400A1E78357440103552400014777
:103060002312F100814689470946C945231601000C
:103070002313F100EF7060142AC40DC10549230029
:103080002501A24703C6118A4C00A38007000355FF
:103090002400EF70000B11E52306240113C5041072
:1030A000EDB5C9454800EF706058CDBF13F7040176
:1030B00015C35947B387E7028146130780251306D6
:1030C0004006D1453E9403552400EFE0711A13C524
:1030D000040165BD13F704040145E30807EA5947F5
:1030E000B387E7023E9403552400EFE0311803450F
:1030F000040005661306069693050004EF101003FE
:1031000013C5040459B581E9AA8517A50200130562
:10311000E51A6F80B23D0547639EE500AA8517A5B5
:1031200002001305251C09C617A502001305C51DBD
:103130006F80D23B09476399E5000DE6AA8517A584
:1031400002001305651EEDB70D47639DE500AA85D6
:1031500017A502001305851F61DE17A502001305E0
:10316000652145BF828039711397050126DA06DE95
:1031700022DC4AD84ED652D456D24187AE84635F01
:103180000724EF10201B2A84630D05360347050032
:103190009307000B6314F736835725001727002089
:1031A0000357A7CD17290020130909CD6303F72A78
:1031B000172700200357C7CD6300F73617270020D5
:1031C000035767CE631CF732894A894969A45C4476
:1031D00017A502001305C5F183C5070019A64D47C1
:1031E0006393E7029305A00517A50200130585F276
:1031F000CDACC9466316D7028345C40017A50200AB
:10320000130505F0F9AC6D47639CE7005C4417A516
:103210000200130525F183C50700EF80322DD1ACE4
:103220005947B389E902CA9903C7B9006303072C58
:1032300063910A2C172700200347B7C48546631201
:10324000D70A1D476390E7048357840085CF5C4409
:1032500017A50200130545EE83C5170003C7070035
:10326000A205D98D17270020231FB7C003C637003A
:1032700083C7270022065D8E972700202396C7C0AC
:10328000EF80D226834744001D47639AE704034733
:103290001400E947639FE7249727002083D7A7BE40
:1032A000638907242314F1008357090109479726EE
:1032B0000020A388E6BC2315F100F9779387271037
:1032C0002316F100FD5703C6118A2C001725002094
:1032D0000355A5BA2307F100EF60306619AC054726
:1032E00055BF8946631BD70825476398E704835772
:1032F0008400A1C758449305000213060064834765
:10330000170003470700172500200345E5B6A2076D
:10331000D98F17270020231AF7B697270020238379
:1033200007B6EF10A0609725002083D505B617A536
:103330000200130525E3EF80721B834744002547F5
:10334000639BE70203471400E9476394E71A8D473C
:1033500017270020A307F7B28357E9002314F100D1
:10336000835709012315F100930720202316F1004C
:103370009307900289BF0547C9BF8D46631BD716C7
:1033800025476398E70483578400A1C758449305F1
:103390000010130600648347170003470700172532
:1033A0000020034565ADA207D98F17270020231FF2
:1033B000F7AC97270020238707ACEF1020579725FD
:1033C000002083D5A5AC17A50200130525DCEF80EE
:1033D000F21197270020A38607AA21AA13F7150048
:1033E00005C317F6FF1F130666F597F5FF1F9385B4
:1033F00025F403C5118AEFB0511C13C5140021A296
:1034000013F7050801CB41657D15EFE0E16613C5B3
:103410000408D5A817270020034707A6AA87631624
:10342000A700A6853E85ED34F9A81727002003479D
:1034300007A6E308A7FE172700200347A7A6E30275
:10344000A7FE17270020034747A70145631DF70A7A
:10345000C9BF814A8149D947B387F90209478345E2
:103460004400130A8400CA9783C747006395E7089E
:103470000D476381E50205476394E5020347840035
:10348000631EF7028345C40017A50200130505C398
:10349000EF80D205D947B387F902CA972386070080
:1034A000034744009307F007631AF700835584002D
:1034B00017A50200130505C2EF805203834744009D
:1034C0002D47E386E7D00547E39BE7D00347840019
:1034D000A946E310D7D28345C40017A502001305FF
:1034E00025C0EF80B200D947B389F9024E9923066F
:1034F0000900834544005285EF7040132285EF0098
:1035000050572165258DF2506254D2544259B25918
:10351000225A925A21618280854A85492DBF83476C
:1035200025003547636CF73817A70200130787B5E6
:103530008A07BA979C43797122D406D626D24AD0FC
:103540004ECE52CC56CABA972A84828717A502005B
:10355000130545C7EF80320B2C0013054030EFE018
:10356000410B2C000545EF509040014685450D4527
:10357000EFB0B10DB5A803C7018AA54763EAE70616
:103580000349450093095500814417240020130482
:10359000E49203C5018A63E6A4060E0509051946EF
:1035A000CE85229597D0FF1FE780E02E83C5018A44
:1035B00093973500850593F5F50F1386F5FFA297D0
:1035C0000E062296A38027012380B18A83487600C5
:1035D000034866008347560003474600834636008B
:1035E0000346260017A502001305C5BEEF80027032
:1035F000B250225492540259F249624AD24A456169
:1036000082809395340089051946A2954E8597D0FE
:10361000FF1FE780C03369FD850493F4F40F95BF65
:103620000144172900201309698997F9FF1F93891D
:10363000E9CE17FAFF1F130ACACE97FAFF1F938A23
:10364000AACE83C7018A637FF402931434008904ED
:10365000CA941946A6854E8597D0FF1FE780202F74
:1036600015E11946A685528597D0FF1FE780202EC9
:1036700011E91946A685568597D0FF1FE780202DB2
:10368000630A052283C7018A6396870217A5020091
:103690001305C5B6EF802277014685450D45238089
:1036A000018AEFB0817A17A502001305A5B1EF805A
:1036B00082753DBF17A50200130585B5EF80A27482
:1036C000971700209387877F0E04930624003E946B
:1036D00003461400BE9681450145EFB0A17305660F
:1036E000130606C89305000803C5118AEF100024CD
:1036F00017A502001305C5B25DBF9305000803C5F9
:10370000118AEF10204D83441400639E040EC1679C
:103710001717002003576776F9178355A40063072E
:10372000F702171700200357A7766300F702171751
:103730000020035747776306F70C2E85EFE0C1336F
:1037400017A502001305C5AE9DB78544D947338739
:10375000F402971700209387277217A5020013051C
:1037600065AEBA9709472382E7000356E400239128
:10377000B700EF80A257B9E0854713060064A14562
:10378000171500200345456F17170020230CF76E0F
:103790000564EF10A019130604C8C14517150020D1
:1037A0000345856DEF1080181306049693050004F9
:1037B000171500200345456CEF10401717A50200B0
:1037C000130585A9EF802264C167171700200357EE
:1037D000C76AF917630EF700171700200357476BE6
:1037E0006308F700171700200357E76BE312F7E0B1
:1037F00017A502001305059DEF80E2602380018A72
:10380000ADB38944A1B7A68517A502001305C5A5C8
:10381000EF80C24DF1BF83574500171700200357B3
:10382000C76581446301F7021717002003574766F5
:103830008544630AF700171700200357C7668D44B5
:103840006313F7008944D947B387F4029714002023
:10385000938484620346640017A50200130585A2C1
:10386000BE9483D52400EF80624803C50400F95755
:103870002391F40023820400A3850400239904000B
:1038800023860400930500042380018AEF1080340E
:1038900017A5020013050593EF80E256F9B1035610
:1038A00065008355450017A502001305A59FEF800D
:1038B000E2433DBB05041374F40F61B38280797158
:1038C000170500001305658A06D622D426D24AD0F1
:1038D0004ECEEF10A06C8565A380A18A93850596D6
:1038E0000945EF30604AD1451D45EF30E049930569
:1038F00040062145EF304049930540063545EF30FD
:10390000A04885470D47700091451305F0402304FA
:10391000F100A304F1002305E100A305F10002C6B4
:10392000EFC0711B3000854513058040EFC0B11A10
:1039300013069100854513059040EFC0D119130679
:10394000A10085451305A040EFC0F1181306B10092
:1039500085451305D040EFC011181714002013043B
:10396000A451971400209384445597F9FFFF93893D
:10397000C97F79594E85EF1060622300A40023119E
:10398000240123020400A3050400230604002319D4
:103990000400231A04002317040023180400590408
:1039A000E31A94FCEF70C07903C5118AEF70A0256B
:1039B000854503C5118AEF00D057B2502254925466
:1039C0000259F249456182802A86B305B04017A5A5
:1039D0000200130565AB6F806231411106C622C437
:1039E00026C29717002083D747536380A7029717F3
:1039F000002083D727536385A7069717002083D716
:103A000007536391A706894411A08144A947B3874E
:103A1000F40297140020938424502E84AA8517A5BD
:103A200002001305E5A4BE94239284002393C400EE
:103A30002394D40022863114EF80422B420441802B
:103A40009307000563F08702224403C50400B240D7
:103A50009244096613060690A14541016F00106D5E
:103A600085446DB7B240224492444101828083571D
:103A70004500011122CC06CE171700200357E74955
:103A800001446301F702171700200357A7490544B3
:103A9000630AF70017170020035767490D446313A3
:103AA000F7000944A947B307F402171400201304D0
:103AB000A44689453E9403450400F9572311F400B8
:103AC000231204002313040023140400EF108010B9
:103AD000034504009145EF10E00F17A50200130500
:103AE000E58FEF80423285471306F10085451305C7
:103AF0005030A307F100EFD09145F24062440561D8
:103B000082803D897D15954763EFA72217A70200A4
:103B10001307478B0A053A951C41797122D406D6C2
:103B200026D24AD04ECE52CC56CABA972E8482871D
:103B30002C0013054030EFD0D12D2C000545EF505F
:103B4000006317A502001305A595EF80C22B05A8F9
:103B500083C7250019476391E7022E85093F8345F6
:103B6000640017A502001305A594EF80221817A57D
:103B700002001305A595D1BF0D47E38AE7FEB250B9
:103B8000225492540259F249624AD24A45618280D3
:103B900003C725009547E314F7FEC16717170020F8
:103BA0000357A737F917630DF702171700200357BC
:103BB00067376304F7101717002003574737630070
:103BC000F71003D5A500EFD0316B17950200130550
:103BD0002566EF80422317A502001305E593B5B7CC
:103BE0008144A68517A502001305458FEF800210BA
:103BF000A947B387F402971400209384E431130695
:103C000000648945056917AA0200130A2A8E97AA3B
:103C10000200938A2A8F8D49BE948357A40003C55E
:103C200004002391F4008357E4002392F4008357A7
:103C300004012393F400835724012394F400DD4707
:103C40002398F182EF00904E03C504000966130625
:103C50000690A145EF00904D03C50400130609C866
:103C6000C145EF00B04C03C50400130609C89145D7
:103C7000EF00D04B0356E4008355A40017950200D3
:103C80001305455C4169EF80620697140020938418
:103C9000A42801447919A2855285EF80220583D595
:103CA00024005685EF80820483D72400638D270784
:103CB0000504A904E31134FF39BF85441DB78944C5
:103CC0000DB703C725008D4717A50200130585858D
:103CD000E317F7EA9DBD83C5250091476397F5007B
:103CE00017A50200130585858DB59947639DF500DD
:103CF0002285B53B83456400179502001305457B7B
:103D0000EF70D27EADBD9547639AF50083471400EE
:103D1000E1FB17A502001305258405BD17A50200C8
:103D200013050584F1BF179502001305256BEF807D
:103D3000820D854730008545130550302304F1007E
:103D4000EFD0F12049BD8280011106CE22CC01C9FD
:103D500089476304F502F24062440561828068008D
:103D6000328497D0FF1FE78000B3A2851795020029
:103D70001305C57FEF709277F9BF680097D0FF1FDA
:103D8000E78060B117A502001305C580EF80A20788
:103D9000D9B70111930780F82302F10006CE22CC97
:103DA00003D701838D4763ECE700179502001305E5
:103DB000256BEF804205F2406244056182808547B1
:103DC000014781460546ED452A842315F100EF6041
:103DD000C03E0356A1004C002AC697D0FF1FE780C3
:103DE00080AB2C002285EFE0BFB971D5ED452800EE
:103DF000EF60D003C9B741119397050122C406C6ED
:103E000026C2C1872E8463DF07082D23AA8439C503
:103E1000834705001307000B6385E7061307000DB2
:103E2000639CE7028347250045476381E7046547B4
:103E30006394E7020348A500834795000347850084
:103E400083467500034665008345550017950200BB
:103E50001305C559EF709269268521292167218FA5
:103E6000B240224492443A85410182800346650073
:103E700083457500179502001305455AEF701267C8
:103E8000E1BF034745009307F007E317F7FC8355AD
:103E90008500179502001305255A2398B182EF700B
:103EA000F2645DBF93F7150085C317E6FF1F130685
:103EB000A649971500209385650503C54182EFD07B
:103EC00061551347140069BF9717002083C7C704C3
:103ED0006393A70A13F7250011CF130600648945E1
:103EE000EF00D02417150020035525035D35134737
:103EF0002400BDB713F7850005C3130740068146AC
:103F000013064006D1451715002003550501EFD0D3
:103F1000C14B13478400A9B793F705018DC701472B
:103F200089460946814517150020035505FFEFD046
:103F3000F136AA851795020013054551EF70125B03
:103F40001347040131BF93F745000147E38A07F0A7
:103F500017150020035565FCEFD051310566130697
:103F600006C8914517150020034505FBEF00101CFE
:103F700013474400F5B59717002083C787FA639D60
:103F8000A70613F7250019CB130600648945EF0037
:103F9000F019171500200355E5F889BF13F78500C0
:103FA00001CF13074006814613064006D145171579
:103FB0000020035525F7A1BF93F7050191CB0147D9
:103FC000894609468145171500200355A5F585B793
:103FD00093F745000147E38507E8171500200355CF
:103FE00065F4EFD0B1280566130606C8914517158C
:103FF0000020034505F39DBF9717002083C707F3F3
:104000000147E39FA7E493F6250099CA13060064CD
:104010008945EF00B01117150020035545F1F9B59A
:1040200093F6850081CE13074006814613064006AD
:10403000D14517150020035585EFD1BD93F7050134
:1040400091CB014789460946814517150020035544
:1040500005EEF1BD93F74500E38407E01715002056
:104060000355E5ECEFD091200566130606C891458F
:1040700017150020034585EBD5BD397117050000E4
:104080001305A5D706DE22DC26DA4AD84ED6EF0085
:10409000F0702382A182D1470544231AF100100851
:1040A00093074006854513055030231CF100230873
:1040B0008100EFD0C16917E6FF1F1306262BF145DB
:1040C00013057030EFD0A168138681829D451305DA
:1040D0006030EFD0C1675008894513051031EFD02B
:1040E00001673008894513052031EFD041669305FB
:1040F00000050D45EF205049930500051145EF20BF
:10410000B04885457945EF20304830089145130582
:10411000704023048100230681002308810002CC23
:10412000230A0100EFC0211B300085451305004024
:10413000EFC0611A7000854513051040EFC0A1194A
:104140005008854513052040EFC0E118100885454B
:1041500013055040EFC021187D55EF50D0397D55E3
:10416000EF80F069EFE0AFD97D55EFE0AFF317E6F0
:10417000FF1F1306261ED5450145EF5070268947BF
:104180002306F1008D472308F1009147230AF1002F
:1041900093878186984383C7470030008545014552
:1041A0003ACC230EF10023048100EFE04FF57000BC
:1041B00085450545EFE0AFF4100885450945EFE07A
:1041C0000FF4500885450D45EFE06FF33008954535
:1041D0001145EFE0CFF2171400201304E4D3971435
:1041E0000020938444D597090000938909C1795927
:1041F0004E85EF00B05A2300A4002311240123129E
:10420000040023130400231404002904E31294FE81
:1042100013850182EFE0CFED1385418AEFA0F11CF9
:10422000854503C541823123F2506254D25442592C
:10423000B2592161828023AC05FE1C4191E7010047
:1042400001000CC18280BA8703A787FF6DFF23ACF2
:10425000B7FE8280184183A785FF6319B7001CC190
:10426000FD5723AC05FE238FF5FE8280232CF6FE3E
:10427000C5BF411122C437E400E026C2044037071D
:10428000200006C6F98C2320E4180F10000009E96D
:10429000232094101545B24022449244410182806B
:1042A0000347E5FF9307F00F6306F7002320941000
:1042B0001145D5B797D0FF1FE7800028014523207F
:1042C0009410D1BF411126C2B7E400E04AC003A94F
:1042D0000400B707200006C622C43379F90023A0E2
:1042E000F4180F10000009E923A02411B240224461
:1042F00092440249410182809565938505D0C98D1C
:104300002A842105C2054205C181418197D0FF1F42
:10431000E780601301CDFD5723200500231285009F
:104320002303F50023A024112105C9B723A02411DC
:1043300001456DBF0111B7E700E04AC803A90700B6
:104340004EC63707200006CE22CC26CAAA8933796A
:10435000E90023A0E7180F100000971700209387AB
:1043600067C280438144014619E499E8A1654E85FE
:10437000EF00500605A08347E4FF6399370385CC1F
:10438000A685171500201305E5BFE93565D0A165A1
:104390004E854526F2406244B7E700E023A027118E
:1043A00026854249D244B2490561828091E0228645
:1043B000032484FF55BFA284E5BF41114AC037E9F9
:1043C00000E022C4032409003707200006C626C2E5
:1043D000798C2320E9180F10000089E5232089102B
:1043E000154515A0AA849717002083C7F7B92E8515
:1043F00063F5F400894763EE9700A53DB7E700E059
:1044000023A087100D45B240224492440249410145
:10441000828083A785FF99E703C7E5FF9307F00F25
:104420006308F700B935B7E700E023A087104DBF58
:10443000238F95FE171500201305C5B4ED3BA1652C
:104440002685C52C01452320891075BF97170020AC
:1044500023AA07B2828097170020938727B89C432E
:1044600099E33E85828003D727006316B70003C710
:104470000700E308A7FEDC47E5B7A5C1011106CE9A
:1044800022CC26CA8147C14633D7F540058B29C3C4
:1044900012053E9531473305E50217170020130733
:1044A00027B8044305443314F4002EC64204418067
:1044B000AA949C40C8408297B24523A0040023A23E
:1044C0000400A18DF2406244D2442E8505618280B1
:1044D0008507E39BD7FA0144EDB72E858280C9C1D9
:1044E000797122D406D626D24AD04ECE0144414715
:1044F000B3D78540858BA5C3120531472295330577
:10450000E502971700209387A7B103A90700854408
:10451000B3948400C204C180BE892A99032709008C
:1045200011C7032549002EC60297B245314733040F
:10453000E40283A709003E941C4489E72320090074
:1045400023220900B2502254A58D02599254F249F7
:104550002E85456182800504E31CE4F88144DDB7C3
:104560002E8582804111B7E700E022C480433707DF
:10457000200006C626C2798C23A0E7180F10000081
:10458000971700209387C7A59C539384418399C7AD
:1045900082979C403E9523AAA18239A097170020BC
:1045A000938747A39C43EDF78840B7470300938761
:1045B000D73F3305F502B7A72600938737ECB24003
:1045C00092443E9523AAA182B7E700E023A087107A
:1045D00022444101828001112E8626CAAA84131525
:1045E00006019305F004418122CC06CE32C697D055
:1045F000FF1FE78040E52A8419C53246A68597C08B
:10460000FF1FE78040292285F2406244D2440561C1
:1046100082807971B7E700E022D480433708200018
:1046200006D626D24AD04ECE52CC56CA5AC85EC6FC
:1046300062C43374040123A007190F10000005E1C0
:1046400023A087100945B250225492540259F249CE
:10465000624AD24A424BB24B224C45618280971744
:104660000020938727979C43BA8A368AB28B2E8B79
:10467000AA898297971700209387879A98433E8943
:104680008144B146C147338CD402330687011042BE
:1046900041EAC165938505F0414597D0FF1FE7804A
:1046A00080DA05E197170020938787939C5B81C789
:1046B000814511458297B7E700E023A087102D457B
:1046C00059B79717002093876791984331E7971759
:1046D000002023A5A7902300050083270900054794
:1046E0003317970023260500232475012311E500C5
:1046F00023225501E29723A0370123A2670123A4B7
:10470000570163040A0023009A00B7E700E023A0E2
:10471000871001450DBF3E875C47F5FF48C765BF61
:104720008504E392F4F6B7E700E023A08710214563
:1047300019BFB7E700E09843B706200023A0D718B9
:10474000758F0F1000009716002083C6F6836373E1
:10475000D502171600201306268893161500084266
:10476000369583560500D58D2310B50023A0E7109C
:104770000145828023A0E7100D458280B7E700E065
:104780009843B706200023A0D718758F0F1000009C
:104790009706002083C6567F6375D5021716002042
:1047A0001306868393161500084293C5F5FF3695C8
:1047B00083560500F58D2310B50023A0E7100145B1
:1047C000828023A0E7100D458280011137E700E0C9
:1047D00026CA0443B706200006CE22CC4AC84EC6DD
:1047E00052C4F58C2320D7180F100000130705FFC3
:1047F0001377F70FFD4763E5E70AB146B306D50225
:10480000971700209387C781984336971C43C9CBDD
:10481000135A450005443D893315A40013140501BE
:1048200041802E895285A2853D31AA8929CDA28554
:104830005285A937970700209387C7799C438297B1
:104840009707002083D7077F338727032A84814671
:1048500013060064B3B7270313050732B335E50029
:10486000BE95EF70C203B3078500970600209386BC
:10487000E67B3E87D44263E4A70063E4D700338736
:10488000D74023A4E900B7E700E023A09710014533
:10489000F2406244D2444249B249224A05618280D0
:1048A000B7E700E023A097100945DDB70111B7E78E
:1048B00000E026CA84433707200006CE22CC4AC82F
:1048C0004EC6F98C23A0E7180F100000BD4763E91E
:1048D000A70431473307E502970700209387477401
:1048E0009C43BA979C438DCF05443314A4004204E3
:1048F00041802E890145A285B93EAA8911C5A285AC
:104900000145AD3D23A42901B7E700E023A097109E
:104910000145F2406244D2444249B2490561828075
:10492000B7E700E023A097100945E5B779714AD0B1
:1049300037E900E026D283240900B707200006D615
:1049400022D44ECE52CC56CA5AC85EC6FD8C232005
:10495000F9180F1000009707002083C7F762637AE9
:10496000F500970700209387E76683AB07006397FE
:104970000B00B7E700E023A09710A9A0170B0020B9
:10498000130BCB6A832A4B00B74736FE938707C8C1
:104990002E8A9705002083D5E569BE9AB387C502A4
:1049A0002A84B2898146B3B5C50213850732B3376D
:1049B000F50013060064BE95EF60726E63F0AA0204
:1049C000232099100145B250225492540259F249C1
:1049D000624AD24A424BB24B45618280829B970524
:1049E000002083D52565B38735032A891306006423
:1049F0008146B3B5350313850732B337F500BE954D
:104A0000EF60F269B30725013E8903274B0063E499
:104A1000A70063E4E7003389E740D2852285EFF001
:104A20009FA309C923242501B7E700E023A097101D
:104A3000054551BF936504F0C205C181414597D03A
:104A4000FF1FE78040A019E9970700209387475987
:104A50009C5B85D3A2851145829721BF97070020D3
:104A60009387C7579C4385E79707002023A8A7563D
:104A70008547232605002324250123114501230012
:104A80008500A300F5002322050079BFBA87D84727
:104A900075FFC8C7F1BF7971B7E700E026D284433C
:104AA0003707200006D622D44AD04ECE52CC56CA62
:104AB0005AC85EC662C466C26AC0F98C23A0E718F1
:104AC0000F1000003DC14144B689B28A2E8A2A895E
:104AD000B14C170B0020130BAB54054D130C000306
:104AE000B30B940303270B005E971C43A5E3937558
:104AF000F400B315BD0013554440C2055686C1816C
:104B00001375F50F253539C183270B00DE9723A0D8
:104B1000270123A247016384090023808900B7E7A6
:104B200000E023A09710014521A023A0971009457C
:104B3000B250225492540259F249624AD24A424B2C
:104B4000B24B224C924C024D456182800504E31920
:104B500084F9B7E700E023A097102145D1BF0111E8
:104B6000B7E700E026CA844322CC4AC84EC63707BE
:104B7000200006CE2A84AE893289F98C23A0E7185A
:104B80000F10000065332285CE85EFF0DF8C2A847C
:104B900005C59705002083D5E549B387250313068E
:104BA00000648146B3B5250313850732B337F5009A
:104BB000BE95EF60D24E48C013351400F2406244F7
:104BC000B7E700E023A097104249D244B2490E054E
:104BD000056182800111B7E700E04AC803A9070018
:104BE00022CC4EC63707200006CE26CAAA892E84BC
:104BF0003379E90023A0E7180F100000EFF0BF851C
:104C0000AA8419C123110500A2854E85853E970708
:104C1000002083C76737639B37019707002083D73E
:104C2000273B5D8C970700202394873AB7E700E085
:104C300023A02711014591E01945F2406244D24476
:104C40004249B2490561828001114AC837E900E052
:104C500022CC03240900B707200006CE26CA4EC680
:104C60007D8C2320F9180F1000009307F00263E8F1
:104C7000A704B147B304F502970900209389493A84
:104C800083A70900A6979C439DCB9377F5008545A4
:104C9000B395F500C205C18111812D3F83A709009D
:104CA0000145A69723A0070023A20700232089100F
:104CB000F2406244D2444249B24905618280B7E77A
:104CC00000E023A087100945E5B74111B7E700E0F0
:104CD00026C2844306C622C437072000F98C23A0CD
:104CE000E7180F100000EFF00FF719E90145B24087
:104CF0002244B7E700E023A097109244410182804C
:104D0000970700209387072D9C43004582979707BC
:104D100000209387A7316368A402D843B74636FEC4
:104D2000938606C83305A4403697E371E5FC130764
:104D30000064B335E50203D6870081463305E502FA
:104D4000EF60F2356DB7D8433A94C1BF411122C428
:104D500026C2170400201304642D970400209384B6
:104D6000A42294485840970700209387A72606C698
:104D70009C436393E60882975440B74736FE938777
:104D800007C8B6973387A7003A856364F700636462
:104D9000D7003305D7409704002093846442DC5049
:104DA00081CF970700209387674994433707CDFF4A
:104DB0007D179C46F98F9CC611E14840970700205B
:104DC00093870722DC53829719E5DC508DC3EF509F
:104DD0005149EF50210BDC5099CB97070020938766
:104DE000E7459843B70633001C47D58F1CC7B24030
:104DF0002244924441018280829794485840B3876C
:104E0000A6003E8563E4D700E3E7E7F83385E74093
:104E100059B7411106C69707002023A7A72002957E
:104E2000B2409707002023ADA716014541018280BB
:104E3000994763E9B7008A0597070020938787178A
:104E4000BE9588C182809707002023ADA71C11C59D
:104E5000854717070020230EF716828041117146FF
:104E60008145170500201305E51406C697070020A5
:104E700023A607169707002023A8071A97070020E4
:104E800023AA0714970700202385071497070020FB
:104E900023AA071897C0FF1FE78000A71306800208
:104EA0008145170500201305250E97C0FF1FE780D9
:104EB000A0A5EFC01151970700209387671203C583
:104EC000C70383C7D70385453E958D473305F50254
:104ED00039051375F50F970700202388A70A99470E
:104EE0003305F5021305052497C0FF1FE780A05581
:104EF000170700202326A71259CD9947170600202F
:104F00000346A6083306F60281451306062497C019
:104F1000FF1FE780609F97070020938767109C43DF
:104F200093870724170700202324F708170700207A
:104F30000347A7050A07BA9717070020232EF7088B
:104F4000EFF0CFD0E12997070020938767069443BD
:104F50009707002083C7570313972700369717F644
:104F6000FFFF1306065810C3138717001377F70FB8
:104F70000A07369717F6FFFF1306665010C313870C
:104F80003700890793F7F70F8A0797050020A38D4D
:104F9000E5FEB69790C3B24041018280970700209A
:104FA00083C797FE17070020034727FE63F3E70236
:104FB000170700201307C7FF18439386170017062B
:104FC0000020A303D6FC93962700369708C33E859E
:104FD00082809307F00FE5BF1C4163840716417779
:104FE0007D8FB70600208947631ED71403574500FD
:104FF000630A0714411122C419462A849305F00F4D
:10500000610506C697C0FF1FE780009B05478D47D7
:105010006304E5121C4481CB58589947630E07106E
:10502000185C630B07101306000481451705002068
:10503000130505FB97C0FF1FE780008D13060004D2
:10504000A285170500201305A5F997C0FF1FE7806B
:1050500080849707002083D767F91707002013077C
:1050600027F899E793070010970600202390F6F899
:105070009707002083C7A7F791E785479706002089
:105080002387F6F69707002083D787F691E7ED4749
:1050900097060020239EF6F49707002083C737F574
:1050A00091E7954797060020A383F6F49707002021
:1050B00083C727F491E7854797060020238BF6F2F4
:1050C0009707002083C7F7F299E78347F700970611
:1050D0000020A380F6F29707002083C7B7F181CFA5
:1050E00093F637008983170600202309D6F2970626
:1050F0000020A385F6F29707002083C7A7EF91E76A
:10510000D547970600202387F6EE8347640199E789
:105110009307C00397060020238FF6EC1C5791C716
:105120008297970700202395A7E6FD5717070020D1
:10513000A30CF71625338147B24022443E85410136
:10514000828089473E85828001114EC697090020E2
:105150009389C9ED83A7090006CE22CC26CA4AC886
:1051600052C4829713090064B335250303DA89001A
:105170008146528633052503EF606272970700204F
:10518000938787E0804FAA840145630694023385A4
:105190008440636E940003A5490052868146B3356E
:1051A000A9023305A902EF60826F018D269597074A
:1051B000002023A797DEF2406244D2444249B2491C
:1051C000224A05618280011122CC0A852E84414643
:1051D000978502009385C5DA06CEEF60D2251808C0
:1051E00006043A94035504FF9707002083D7A7E4E9
:1051F000F2406244AA9737450F0013050524335542
:10520000F502056182809707002083D7C7E25147E6
:105210001D45637CF702794719456378F702130748
:10522000200315456373F7021307B0041145637E2D
:10523000F700130740060D456379F700130760096F
:1052400009456374F70013B5B70F8280011122CCB2
:1052500006CE2A842EC6EFF0EFB0B245F240818D23
:1052600033A5A502229562441375F50F056182806E
:10527000011122CC06CE2A842EC6EFF0AFAEB24585
:10528000F240818D33A5A5022295624442054181F9
:1052900005618280011122CC06CE2A842EC6EFF051
:1052A0006FACB245F240818D33B5A50222956244C0
:1052B0000561828097070020938787D2985739CB62
:1052C000411122C426C206C6BE84029717070020D9
:1052D000035707CC2A8415CBBA876373A700AA8724
:1052E000C207C183BA866373E400A286C206C18284
:1052F000958F5147635BF700DC5491C38297EF5061
:10530000015F97070020239587C8B240224492444A
:105310004101828082809707002023A307D297074C
:1053200000209387E7CBDC57011106CEAA8581C701
:105330002AC68297B245CDC19C410545D9CBDC41F7
:10534000C9CB83D78500D1C783D7A500D9C3514620
:1053500017050020130585CD97B0FF1FE780A053E8
:1053600097070020238A07CC97070020938707CC54
:105370009C4317070020232FF7C49707002083C7FB
:1053800097C78DE79307805717050020035585CAF7
:105390003305F50237460F00130606248146814582
:1053A000EF60E24F97070020A387A7C417070020EC
:1053B000034777C4A54763E7E700A947170700201D
:1053C000A30BF7C217050000130545D8EFF07FA423
:1053D0000145F240056182809707002023A407BCA5
:1053E00097C7FF1F9387E799170700202320F7C46B
:1053F0007D579707002023ADE7C2B7873200938718
:1054000027A19706002023A7F6C29707002023852F
:1054100007C2B7C7004023A4E726B9B7011122CCC1
:10542000170400201304C4BB084406CE26CA4AC889
:1054300001E90545F2406244D24442490561828057
:105440005C58E5DB185C75D7700085458297184479
:10545000B247E300F7FE9305E0041705002003556B
:10546000E5B897C0FF1FE78000FE17070020232D37
:10547000A7B261D117060020035646B79305F00F77
:1054800097B0FF1FE78040488144170900201309A7
:10549000A9AF9707002083C787B50326090263C118
:1054A000F402328597C0FF1FE78000090145970786
:1054B000002023AB07AE9707002023A907AE9DBFAE
:1054C0009705002083D585B2B38795020844185C00
:1054D000898185043E9508C2029765BF011156C2B5
:1054E000970A0020938ACAAF83A78A0022CC4AC8B1
:1054F0004EC606CE26CA52C45AC0AA892E84328904
:105500006386072203A74A03630907141307F01FE2
:105510006367A71497040020938404A703AA0402D6
:1055200063170A0A9565938515E017050020035552
:10553000E5AB97C0FF1FE78000F19707002023A588
:10554000A7A62A86630B051083A74A0303A58A0032
:105550009705002083D585A98981829783A78A0032
:1055600003AA0402170700202322F7A48947639C9B
:10557000F908C1476313F40E9705002083D505A7EA
:10558000938505FC9147B3C5F5028A05D29503C7FB
:1055900025009307A005631EF70A83D70500639AC9
:1055A000370B4A852286910597B0FF1FE780A02E12
:1055B0009C505285639347150145F2406244D244A2
:1055C0004249B249224A924A024B05618280D85030
:1055D000E38EE7F89565938525E0170500200355D0
:1055E000E5A097C0FF1FE78000E62A8A3DC52A860E
:1055F00083A74A0303A58A009705002083D5059F4A
:1056000089818297A5B78D47639DF900C1476316CD
:10561000F4049705002083D5659D938545FDF19998
:10562000B5B79147639AF9006319340397050020D1
:1056300083D5C59BA115E5B793070010639FF900BB
:10564000A14763EC87009705002083D5259AC115F3
:10565000F9B79C5052856396470D2945B9BF1D6A1D
:10566000568B6371450B130A05E01947334AEA026A
:105670001707002003578797970A0020938ACA903C
:10568000330AEA023E9A83A74A026395470183A43C
:105690000A029DE49305E0041705002003550595D3
:1056A00097C0FF1FE78020DAAA8445D983274B03E0
:1056B0009705002083D585932A8689815285829714
:1056C00091451307A005898193972500A69783C666
:1056D00027006393E60483D60700639C36038505A1
:1056E0008A052286A6954A8597B0FF1FE780A01AF3
:1056F00083A70A02E38297EC268597C0FF1FE78005
:10570000A0E35DBD21677917E369A7F4330A45413A
:1057100085B783C5370045BF83A70A02E38F97F299
:10572000268597C0FF1FE78020E105BF970700206F
:10573000938787858C5395D191479306A0058983DC
:10574000139727002E9703462700E318D6F0035639
:105750000700631C360185078A072286BE954A85A5
:1057600097B0FF1FE780201381BD83473700C1BF7B
:10577000970700209387C786984739C79C5FA9C7BA
:1057800005476313E504411122C417F4FF1F1304F6
:10579000A47F105006C60DC648509705002083D53B
:1057A000E58489818297085097C0FF1FE780C0D8A1
:1057B00097F7FF1F23AA077E97F7FF1F23A8077EEF
:1057C000B2402244410182808280011117070020EB
:1057D000130707814EC68329870022CC26CA4AC8F0
:1057E00006CE52C456C2AA842E843289638B092005
:1057F0001C5FBA8A99EB2945F2406244D24442497F
:10580000B249224A924A056182805C5BEDD79307D8
:10581000F01F63EAA70E97F9FF1F9389E97683A724
:105820000902B1CB03A58A0083A749026395A706A5
:1058300089476393F408C147E31FF4FA17F5FF1F84
:105840000355C57A9147130505FC3345F5029317B7
:10585000250003A509022286CA853E959307A00567
:105860002301F50023109500110597B0FF1FE78075
:105870008002014551B79305E00417F5FF1F03555A
:10588000E57697C0FF1FE78000BC97F7FF1F23ADA9
:10589000A77049F98DB783A74A0303A6090297F5B4
:1058A000FF1F83D5A5748981829783A78A0017F784
:1058B000FF1F232DF76EADBF8D47639EF400C147D8
:1058C000E31BF4F217F5FF1F03554572130545FD61
:1058D0009377C5FFBDBF9147639AF400E31D94F031
:1058E00017F5FF1F035585702115DDB793070010CD
:1058F000E393F4F0A147E3E087F017F5FF1F0355AA
:10590000E56E4115F1B79D676379F506930705E0EC
:105910001947B3C7E70217F7FF1F0357276D17FA99
:10592000FF1F130A6A66B387E702BE9983270A023C
:10593000A1CF83274A026399370703250A029146BC
:105940001308A0059305F00F93D72600139727009F
:105950002A9703462700631F06078358070003465C
:10596000370063959806B306D64063CF8604850753
:105970008A072286CA853E95CDBD21677917E36CDB
:10598000A7E6B307F54041BF9305E00417F5FF1FF5
:105990000355C56597C0FF1FE780E0AA97F7FF1F73
:1059A00023A4A76059F581BD83A74A0303260A02F1
:1059B00097F5FF1F83D5856389814E85829797F779
:1059C000FF1F23A5375F95BF2310B700931606016D
:1059D000C1829DBFB385860017F6FF1F035606617F
:1059E0009105130606FCE368B6E013063400719ACD
:1059F0001106B2962301070123109700A301D700D7
:105A0000BDB797F7FF1F938727589453BE89A9C244
:105A100003A5090291461308A0059305F00F93D73B
:105A20002600139727002A970346270063180605C8
:105A3000835807000346370063989800B306D640A2
:105A4000E3D786F22310B70093160601C182C1BFC7
:105A50008357C70017F5FF1F034565599305E004F9
:105A60003305F5024205418197C0FF1FE780A09DE5
:105A700097F7FF1F23AAA75241FDB5BB17F6FF1FDB
:105A80000356C65697F5FF1F83C56556B385C502F5
:105A9000338686001106E3E0C5D681BF01458280CA
:105AA000011106CE2EC6EF90900201C9B245F24018
:105AB0000355250005616FD03050F240494505611E
:105AC0008280A38A018C238A018C23AE018A23A0C1
:105AD000018C23A2018C23A4018C23AC018A23AA6C
