:040000006F0010215C
:10000400000000000000000090000020DE0400203A
:10001400A9BDF9F3900000200000000000000000DA
:10002400900000209000002000000000000000006C
:10003400900000200000000090000020000000005C
:1000440090000020900000209000002090000020EC
:1000540090000020900000209000002090000020DC
:1000640090000020900000209000002090000020CC
:1000740090000020900000209000002090000020BC
:1000840090000020900000209000002090000020AC
:1000940001A073270080218B97170000938787970F
:1000A40019CB732700809716000023A5E696984382
:1000B4005D9B731007800F100000371700409306F4
:1000C40070052300D704930680FA2300D7040F1089
:1000D40000008346B70493F6F60DA305D704230066
:1000E4000704732600809443A18AD18E73900680FE
:1000F4009716000023A006920F10000093760502C5
:100104006384061A0347A700118B25EB732700802D
:10011400218B19CB732700809716000023ACE68E41
:1001240098435D9B731007800F1000003717004041
:10013400930670052300D704930680FA2300D7049E
:100144000F1000008346A70093E646002305D7005E
:1001540023000704F32600809843218B558F7310E6
:100164000780171700002327078A0F1000001307C2
:10017400004B010001007D176DFF73270080218B68
:1001840019CB732700809716000023A5E6889843AF
:100194005D9B731007800F10000037170040930613
:1001A40070052300D704930680FA2300D7040F10A8
:1001B40000007D892314A700010001000100010053
:1001C40023000704F32600809843218B558F731076
:1001D400078017170000232F07820F1000007327D2
:1001E4000080218B19CB732700809716000023A36E
:1001F400E68298435D9B731007800F100000371749
:100204000040930670052300D704930680FA230068
:10021400D7040F1000000F100000B726004013068B
:100224001005A383C68023000704F32600809843A7
:10023400218B558F7310078017070000232C077C30
:100244000F10000073270080218B19CB73270080C7
:100254009706000023A0E67C98435D9B73100780FB
:100264000F10000037170040930670052300D704D1
:10027400930680FA2300D7040F1000008346B704C6
:1002840093E60608A305D704230007047327008018
:100294009C43A18BD98F739007809707000023ABF1
:1002A40007760F1000008280937605046387061694
:1002B4000347A700418B25EB73270080218B19CBC3
:1002C400732700809706000023A6E67498435D9B7D
:1002D400731007800F100000371700409306700555
:1002E4002300D704930680FA2300D7040F100000DC
:1002F4008346A70093E606012305D70023000704DD
:10030400F32600809843218B558F731007801707BD
:100314000000232107700F1000001307007D010067
:1003240001007D176DFF73270080218B19CB732784
:1003340000809706000023AFE66C98435D9B731022
:1003440007800F1000003717004093067005230044
:10035400D704930680FA2300D7040F100000937685
:10036400F50193E606042314D700010001000100FF
:10037400010023000704F32600809843218B558F46
:100384007310078017070000232607680F1000006A
:10039400130760046312E50473270080218B19CBD3
:1003A400732700809706000023A6E66698435D9BAA
:1003B400731007800F100000371700409306700574
:1003C4002300D704930680FA2300D7040F100000FB
:1003D400B72600400946B1B573270080218B19CB9D
:1003E400732700809706000023A6E66298435D9B6E
:1003F400731007800F100000371700409306700534
:100404002300D704930680FA2300D7040F100000BA
:10041400B72600401306200529B573270080218BD9
:1004240019CB732700809706000023A5E65E984346
:100434005D9B731007800F10000037170040930670
:1004440070052300D704930680FA2300D7040F1005
:1004540000008356870093E6060C2314D700E1B30B
:100464004111814601468145114506C61D2CF327DD
:100474000080A18B970600009386C65999CBF32779
:100484000080170700002327F7589C42DD9B7390D8
:1004940007800F100000B717004013077005238072
:1004A400E704130780FA2380E7040F10000003C752
:1004B4006704136717002383E70423800704732763
:1004C40000809C42A18BD98F73900780970700000E
:1004D40023A207540F100000B240410182808146DC
:1004E400014681451145752AF3270080A18B170722
:1004F40000001307275299CBF327008097060000CA
:1005040023AAF6501C43DD9B739007800F10000054
:10051400B7170040930670052380D704930680FA2A
:100524002380D7040F100000FD562396D7022380A2
:100534000704F32600801C43A18BD58F739007809A
:100544009707000023A8074C0F100000F327008032
:10055400A18B99CBF32700809706000023ACF64AC1
:100564001C43DD9B739007800F100000B7170040F9
:10057400930670052380D704930680FA2380D7045A
:100584000F10000083C6670493E616002383D70484
:1005940023800704F32600801C43A18BD58F73901E
:1005A40007809707000023A707460F10000001A04B
:1005B400BD473305F50201007D1575FD82804111AB
:1005C40022C426C206C6AA84014463179400B2401A
:1005D400224492444101828005041305803E420472
:1005E400C13F4180DDB72303048015472303E48022
:1005F40001002302A480828083076480E3CE07FE87
:1006040023030480828083076480E3CE07FE0345CE
:100614004480828083076480E3CE07FE2302A480A3
:100624008280411126C44AC24EC006C61377F50B18
:10063400AD47AA892E8995446306F70019456537A5
:10064400653F8D444E854537FD59FD14639834014B
:10065400B240A244124982494101828013550901E2
:100664001375F50F453F2209CDB7011126CC06CEEF
:10067400B704080051371545BD37713769372AC6A5
:10068400A53F32459377150089EB13651500137563
:10069400F50FF240E24405618280FD14E9FC014556
:1006A400CDBF397126DC4ADA4ED852D656D45AD246
:1006B4005ED006DE62CE66CCB7E700E07D5783AA43
:1006C400070022C603AA470023A0E71823A2E718BD
:1006D400B7170040130770052380E704130780FA57
:1006E4002380E70483C74704930B75FFB684E207AE
:1006F40093FBFB0F8546AA892E8B32893724004051
:10070400E187015763FA76016308D5008946130728
:1007140000026313D5000157D98F93F7F70FB71C65
:1007240000402382FC0411472303E4801305F00FE7
:100734005D3D094CD135636D7C11B7050700DA9531
:1007440037870700795563F2E504B3879500636E34
:10075400F702370B0800A94733EB65016399F906E3
:1007640089E48144513D26850DA0DA850945553D2E
:1007740005090345F9FFFD14050B693D81C4937711
:10078400FB0FFDF7DD3569FD7D55B71700401307F5
:1007940070052380E704130780FA2380E70403C766
:1007A4004704418B2382E704F250B7E700E023A01B
:1007B400571123A24711E25432445259C259325AB2
:1007C400A25A125B825B724CE24C21618280A54783
:1007D4006395F90685691309F00FB3069900B3749C
:1007E4002B01B6941349F9FFB3749900856B3379DF
:1007F4006901416B9387F9FFB3F7270199E363FC20
:10080400340193D94900C147E3E637FF99BF05692D
:10081400C1697D19D9B71305800D63886901130572
:1008240000026384790113051008CA85DD3B353D58
:1008340021DD4E99B3843441D9B7DA852D45D533BA
:10084400CA94E30099F205097D3BA30FA9FED5BF25
:100854009387F9FF93F7F70F6361FC0C83C71C04BC
:1008640013073008631FF70437070800636BEB04B2
:10087400B3079B00B706100063F5D704334BEB00B6
:1008840089476393F9068980D549E38C04ECDA85BA
:100894000945413B11090327C9FF91472320E480FF
:1008A40003076480E34E07FE23033481FD17EDFB49
:1008B400FD14110B81C49377FB0FE9FF7D3371F5B0
:1008C400E1B5B717004003C75704B707080013770B
:1008D400070219E3B78707007955E378FBEA330782
:1008E4009B00E3FFE7F855B58547E382F9F2DA8523
:1008F4002D45053B9389F4FFE38504E6293393F7FB
:10090400390091EB832604800327090093074900EB
:10091400E39AE6E43E89CE84F1BFB5476396F900D5
:100924001305900BC93135BDB1471305B00AE38BEC
:10093400F9FE99476391F904B7050800B365BB0054
:100944002D45C53181448D4BA14975396396740198
:10095400832704802320F9008504E39834FF832748
:10096400048013172B01635507002312F900D5BB2C
:100974002322F900FDB39D476399F90281451305CC
:10098400B0044531BD442320090023220900FD5948
:100994009D3993F77400CA9703C70700FD14398D76
:1009A4002380A700E39634FF6DBBA1476392F9044B
:1009B4006D398144630D0B008D479304C0036308B4
:1009C400FB009304000563048B0193044004137536
:1009D400C507E30895D81945393139390545213119
:1009E40026850D3909453D314931E31C05D669BBDE
:1009F40091476399F90013056006F536F53E130532
:0C0A040090090DB7E38F09D4F154A9BB91
:100A10009711002093810180177100201301815EDE
:100A20001305400097F5FF1F9385C55D170600204D
:100A3000130606FE63FAC5008322050023A05500B5
:100A400011059105E3EAC5FE170500001305C53839
:100A5000970500209385C5FB17060020130686FB2B
:100A600063FAC5008322050023A0550011059105F6
:100A7000E3EAC5FE170500201305C5F99705002018
:100A8000938585F96377B500232005001105E36D93
:100A9000B5FEFD42739002BC8D427390428093027A
:100AA00080087390023097F2FF1F9382A25593E261
:100AB00032007390523037170040930770052300BF
:100AC000F704930780FA2300F7040F1000003C4757
:100AD000B70600FAE116F58FB70600069506D58F22
:100AE0003CC7970200009382020173901234730096
:100AF000203041111305800406C626C24AC022C414
:100B000097F0FF1FE7802059371700408327870A97
:100B100085451305001093E707202324F70AB92021
:100B20008D45130500209920092485454145D52090
:100B3000D94517050000130525250D240547B714D1
:100B40000040170900001309A92583A7440CC18B95
:100B50003334F00009C781E7B5454A850124514582
:100B600097000020E780E0A52287C5B7914763EE94
:100B7000B702170700001307A7238A05BA959C41FF
:100B8000BA978287B717004003A7470B1345F5FFB5
:100B9000698F23AAE70A03A7070B698F23A8E70A2F
:100BA00003A7070A798D23A0A70A8280B717004000
:100BB00083A6470B1347F5FFF98E23AAD70A83A60E
:100BC000070B558D23A8A70A83A6070A758F23A0B4
:100BD000E70A8280B717004003A7470B498F23AA73
:100BE000E70A03A7070B1345F5FF45BFB7170040FA
:100BF00083A6470B1347F5FF758F23AAE70A03A7C0
:100C0000070A598D4DB7B717004003A7470B498F07
:100C1000EDB7914763EEB702170700001307871A75
:100C20008A05BA959C41BA978287B717004003A7F7
:100C3000470D1345F5FF698F23AAE70C03A7070D9E
:100C4000698F23A8E70C03A7070C798D23A0A70CB5
:100C50008280B717004083A6470D1347F5FFF98E32
:100C600023AAD70C83A6070D558D23A8A70C83A60E
:100C7000070C758F23A0E70C8280B717004003A7ED
:100C8000470D498F23AAE70C03A7070D1345F5FF6E
:100C900045BFB717004083A6470D1347F5FF758F73
:100CA00023AAE70C03A7070C598D4DB7B7170040CF
:100CB00003A7470D498FEDB7B717004003D587004D
:100CC000420541819377050491EB9377F501375500
:100CD000E801130505803345F50282809377050C02
:100CE000130700046397E7009377F50137459C1CD1
:100CF000CDB72165130505D08280411122C406C6F7
:100D00002A845D3F2947B307E502B2408D83B3D7FC
:100D1000870222449507B3D7E70237370040C2075E
:100D2000C1832316F740410182807165411113058B
:100D3000052006C6D937B7370040130770F823815E
:100D4000E7400D47A381E74013070004A380E74075
:100D500005472387E740B24041018280B737004012
:100D60002147B736004091E1828003C6B740E30CCB
:100D7000C7FE05050346F5FFFD15C2052384C640E1
:100D8000C181D5B74750494F204B657920546573D1
:100D9000742053746172740D0A0000006B65792031
:100DA000707265737365640D0A000000D8FDFFFF63
:100DB00000FEFFFF28FEFFFF40FEFFFF5AFEFFFF81
:100DC0006AFEFFFF92FEFFFFBAFEFFFFD2FEFFFFAB
:040DD000ECFEFFFF37
:00000001FF
