:100000006F000067000000003201000034010000B2
:1000100000000000000000000000000000000000E0
:1000200000000000000000000000000000000000D0
:100030006E060000000000006E06000000000000D8
:100040006E0600006E0600006E0600006E060000E0
:100050006E0600006E0600006E0600006E060000D0
:100060006E0600006E0600006E0600006E060000C0
:100070006E0600006E0600006E0600006E060000B0
:100080006E0600006E0600006E0600006E060000A0
:100090006E0600006E0600006E0600000000000004
:1000A000511126C022C206C4828282441244A24058
:1000B00031018280634E050263C305042E86AA8542
:1000C0007D5515C285466378B6006356C0000606A6
:1000D0008606E36CB6FE014563E4C500918D558D3F
:1000E00085820582F5FA82808682C93F2E858282CA
:1000F0003305A04063D70500B305B040C1B7B305D1
:10010000B0408682653F3305A0408282868263C705
:100110000500634905005D372E858282B305B04036
:10012000E35B05FE3305A040513F3305B0408282BA
:10013000000001A0B707EFBE37E700E0938707088C
:100140003CC701A0EFF2DFF51165111185451305DC
:10015000050202C002C202C402C602C802CA02CC20
:10016000EF002071930700027C80371401408D4717
:100170003EC28A85E147130504403EC455239307D8
:1001800000047C808A859147130504403EC4492BB6
:10019000F16737440140938707203EC66C00B707DC
:1001A0000C00130504803ECA02C8231C0100EF00A6
:1001B000B001854513050480EF00D00D7101F5B540
:1001C000EFF21FEE797102CA02CC02CE02D002D247
:1001D00002D402D602C402C623180100AE848547A9
:1001E00001C90967130707F4AA876373A700BA87D1
:1001F00093955700370700209D8D8A0503278701B7
:10020000BE958E0505456366B7003A853EC07D35CF
:1002100082479306803E1307F5FF268463F4960019
:100220001304803E05658545130505813AC23EC02D
:100230008925A146F482E14636CE4C088D46371515
:10024000014036CCF12937350140130505C0814501
:10025000EF0020721247420441803A85416782478D
:100260006364E5001305F7FFB734014068841307A2
:10027000703E2C00138504C03EC03AC62315010011
:10028000012D4167130707060C10138504C03AD0EF
:1002900023138102231401029925138504C0854587
:1002A000EF00A06E138504C08145EF000071138537
:1002B00004C08545EF00C06E8545138504C0EF007E
:1002C000406B8247370700202322F700B707002042
:1002D000239087004561D1BBEFF29FDC374401409A
:1002E000AA84930704803E8593050008EF00E07C14
:1002F000B7470140938707807DD5A6851305048005
:10030000EF00A07A5DB3EFF2BFD92A8403050400A1
:1003100011E161BB1375F50F05047D3FC5BFEFF219
:100320003FD8411111E5130500037D374101B5BBED
:10033000AA8458000144A94526853AC0753302476E
:1003400013050503A94508A326858D3B0247A5464D
:100350000504050763E996007D145C00A2978823D5
:10036000A53F7DF8E1B7AA84F9B703C30181B707B8
:1003700000200547014593870704A5429376F70FB0
:1003800063E86604EFF2DFD19C231307600493F760
:10039000F70D6391E70637040020130404000E20D4
:1003A000053537150000130585AFB13FB7070020AD
:1003B00003A54700AD3737150000130505B0A13779
:1003C0000A20B13F371500001305C5B02D3FF1B924
:1003D000B386E70090220507930606FD93F6F60F15
:1003E00063E3D206931525002E950605130505FD3A
:1003F000329569B7130740046392E7049307803E80
:1004000063F4A7001305803E370400201304440062
:10041000931505010840C1816533371500001305A8
:1004200085AFD5350840E53D37150000130505B00B
:10043000D93DB707002003D5070061B73715000085
:10044000130545B161B78280EFF29FC50545B92616
:10045000692A8D2DC539B707002083D50700B70756
:10046000002003A54700A93B37150000130545B23E
:10047000593D371500001305C5B371353715000018
:100480001305C5B54935B7440140938704803E85BF
:10049000930500021D25B74701409387078065D962
:1004A0001385048039251375F50FB54793840181B1
:1004B0006305F500A9476318F5009C2091C37535C5
:1004C00023800400C9B79820B947E3EEE7FA930701
:1004D00017009CA0B707002093870704BA9788A34A
:1004E0005DB7EFF2FFBB371402401C403707FFF83F
:1004F000611193E717001CC05C404145F98F5CC057
:100500001C403707F7FE7D17F98F1CC01C403707CA
:10051000FCFF7D17F98F1CC05C4041777D17F98F78
:100520005CC0B7079F001CC4AD2C1C4C37060200F2
:1005300093E707021CCCB717014003A70740938637
:1005400007401377F7F023A0E74003A7074013679E
:10055000070823A0E74089479CCA02C002C21C4C7E
:1005600037070140A16693E717001CCC5C43D58F89
:100570005CC31C404167B7160240D98F1CC0096795
:100580009C42F18F3EC2824785073EC0924781E779
:100590008247E397E7FEB71702409C431397E700B3
:1005A0006353070485473EC212478547631BF70222
:1005B000B72702409843B7160240719B98C39843EF
:1005C00098C3B7170240D843D8C3D843719BD8C348
:1005D000D84313671700D8C31147DC42B18BE39EA1
:1005E000E7FE2101D9B402C2C1B7EFF27FAB3717E2
:1005F00002405C43370400209146B18B1304840110
:100600006383D704A1466385D704B7376E01938708
:1006100007601CC0B7160240DC420840918313F704
:10062000F700B707002093878700BA978C23DC4236
:1006300093F5F50F93F707083357B50099E3BD3CE1
:100640002A8718C09DB4B7177A0093870720D1B7BF
:100650005C431397F70063470700B777DC02938783
:1006600007C045BFB727F400938707405DB701A0D7
:10067000970100209381011D138101FC1305000ADD
:100680009705002093850598170600201306869786
:1006900063FAC5008322050023A0550011059105CA
:1006A000E3EAC5FE170500001305C54D97050020B8
:1006B00093854595170600201306C69863FAC50072
:1006C0008322050023A0550011059105E3EAC5FE2C
:1006D00017050020130505979385C1816377B50041
:1006E000232005001105E36DB5FEB72200009382BB
:1006F0000288739002308D4273904280970200000E
:100700009382429093E2320073905230EFF07FDD9B
:1007100097020000938282D37390123473002030CA
:10072000944593F7060193F2F60081C7DC41B3E2EA
:10073000F20083D3050093F7F30FA5C3032305004D
:10074000611122C226C081471304800293048004F1
:1007500005473316F70033F7C3006312E60293959B
:1007600027003D473317B7001347F7FF3373670080
:10077000B395B20033E36500639D860050C98507D9
:100780002147E397E7FC12442320650082442101BE
:100790008280E39696FE10C9DDB7828023AAA180ED
:1007A0008280371702401C430E0593F777F05D8D6A
:1007B00008C38280EFF2DF8E371702405C43914618
:1007C0002A84B18B6383D708A1466385D708B737DE
:1007D0006E01938707601CC0B7160240DC4291830C
:1007E00013F7F700B707002093870703BA978C2306
:1007F000DC42184093F5F50F93F707083355B7001F
:1008000081E73A85EFF09F8B48C008C448C4B7170A
:100810000240DC438D46AD83FD8B13D737008A073A
:10082000F18BD98F13F6370113F7370063F4C60045
:10083000138747FFB70700209387C701BA978C2318
:10084000EFF0DF8708C86FF05F86B7177A009387ED
:10085000072051B75C431397F70063470700B7774A
:10086000DC02938707C085BFB727F4009387074052
:100870009DB799C5371702401C4F5D8D08CF828008
:10088000B7170240984F1345F5FF798D88CF8280C6
:100890001E2137370140130707C0C207C183630613
:1008A000E500370700406316E500BA2193F7F7F833
:1008B000D98FFA2193F7F7CFC207C183D98F1EA131
:1008C000DE215EB59E211EB5B7370140938707C074
:1008D0006314F5009C251EB985475EA982801E31F0
:1008E000922103D38500C207C18393F7F7EFC207B4
:1008F000C1831EB11E3156215A2DC207C183420742
:1009000041831377C7F8518FB22193F7F7DFC206FF
:10091000336666002206D18F13960701B737014070
:10092000938707C0C1824182631FF502FD779387D9
:10093000F77FF18FB22503D3C5002206D18FD221D4
:10094000C207C183220693F7F7BFD18F1396070121
:10095000F577FD17FD8EFE254182B3E7670092070C
:10096000DD8EC206C182FE2156A15AAD5CDD12B1F8
:1009700082801E2189C593E717001EA18280C207CD
:10098000C183F99BC207C183CDBF8357450491C57D
:100990002167D98F2312F5048280C607C583DDBF86
:1009A0001E2189C593E707081EA18280C207C18363
:1009B00093F7F7F7C207C183C5BF5E2DC207C18396
:1009C000DD9BDD8D4EAD8280EFF28FED1629F57740
:1009D000FD17F58FF621DA252111D58F1EA9562591
:1009E000FD779387379FF58FD6212A842EC0D58F28
:1009F0009625D58FB625D58F5EA55E29C207C18302
:100A000093F7F7CF5D8F5AA948006D33B747014080
:100A10009387078082456312F406C2475A241395D0
:100A200017003E9542070E0541873E958C4163585D
:100A300007048605EFF08FE8930540062AC0EFF023
:100A4000EFE7824793144500930540063E85EFF09B
:100A5000AFE95E24C207C18763D507020E0593057F
:100A6000400613052503EFF06FE51D89C98CC2040C
:100A7000C18006A461016FF04FE3B24745B78A0514
:100A800055BF12059305400613052503EFF00FE34C
:100A90003D89E9BF91C55E250967D98F5EA5828032
:100AA0005A25F977FD17F98FD5BF93F5F51F4EA19C
:100AB00082804A211375F51F82800A216D8D33359E
:100AC000A0008280EFF2CFDDB707002003A58701E9
:100AD000B7157A0093850520EFF04FDE1375F50FFB
:100AE000238DA18093175500898F8A073E950E05A7
:100AF000239CA1806FF06FDB467265713D000000A2
:100B0000487A2C20447574793D0000002F31303034
:100B1000300D0A00756E6B6E6F776E20636D640D1D
:100B20000A0000000D0A3D3D3D2030315F64656DD7
:100B30006F5F70776D203D3D3D0D0A00463C66724B
:100B400065713E20736574206672657175656E63AC
:100B5000792028487A290D0A00000000443C647579
:100B600074793E2073657420647574792028302D63
:100B7000313030302C20302E3125290D0A00000074
:100B8000F4010000E8030000010203040506070861
:100B9000010203040506070800127A000204060891
:100BA00004080C10081018201020304020406080ED
:100BB00001020304050607080102030405060708ED
:00000001FF
