:040000006F1000730A
:10000400000000000000000090000020C202002058
:10001400A9BDF9F5780300200000000000000000ED
:100024007803002090000020000000000000000081
:10003400900000200000000090000020000000005C
:1000440090000020900000209000002090000020EC
:1000540090000020240800209000002000000000F0
:1000640090000020900000209000002090000020CC
:10007400DE0300209000002090000020900000206B
:1000840090000020900000209000002090000020AC
:1000940001A04111B7170040985F3AC6945F3247F8
:1000A400E39CE6FE324541018280B7F70700011167
:1000B400944B13078008F337078093F787083EC2F1
:1000C4000F100000B71700401308700523800705C0
:1000D400930580FA2380B7040F10000003C6B70409
:1000E4001376F60DA385C7042380070412467326EE
:1000F40006800F1000001376050255CEF3360780F4
:1001040093F6860836C40F10000023800705238069
:10011400B7040F100000B70614007D89558D88C7F9
:10012400010001000100010023800704A246F3A698
:1001340006800F10000073370780137787083AC6CC
:100144000F100000238007052380B7040F10000060
:100154000F1000003727004093061005A303D78033
:1001640023800704B247F3A707800F10000093070A
:100174008008F3B7078093F787083ECE0F1000007E
:10018400B7170040130770052380E704130780FAAC
:100194002380E7040F10000003C7B70413670708A0
:1001A400A385E70423800704F247F3A707800F1011
:1001B4000000056182801376050459C273360780F6
:1001C4001376860832C80F100000238007052380A9
:1001D400B7040F10000037061400130606047D89C7
:1001E400518D88C70100010001000100238007042C
:1001F4004246732606800F1000007337078013777A
:1002040087083ACA0F100000238007052380B7042B
:100214000F100000A54793F6F60F639EF600B7276C
:10022400004013073005A383E780B71700402380FD
:100234000704D2470DBFB727004013072005E5B7D1
:1002440073370780137787083ACC0F100000238098
:1002540007052380B7040F10000098471367070CA5
:1002640098C723800704E247FDBD0111814601467A
:100274008145114506CE912493078008F3B7078082
:1002840093F787083EC60F100000B7170040130706
:1002940070052380E704130780FA2380E7040F1016
:1002A400000003C76704136717002383E704238050
:1002B4000704B247F3A707800F100000F24005615E
:1002C400828041118146014681451145FD22130773
:1002D4008008F337078093F787083EC40F100000A7
:1002E400B7170040130670052380C704930680FAED
:1002F4002380D7040F100000FD552396B7022380F6
:100304000704A245F3A505800F100000733707808A
:10031400137787083AC60F1000002380C704238090
:10032400D7040F10000003C7670413671700238363
:10033400E70423800704B247F3A707800F100000E7
:1003440001A0BD473305F50201007D1575FD8280CE
:10035400411122C426C206C6AA840144631794002C
:10036400B240224492444101828005041305803E38
:100374004204C13F4180DDB79305000273A045806C
:1003840082457390153492402242B2424243D24392
:100394006244F244025592552256B2564257D257FD
:1003A4006258F25806499649264AB64A464BD64BF5
:1003B400664CF64C065D965D265EB65E465FD65F7D
:1003C4000961730020304111B7170040985F3AC6A5
:1003D400945F3247E39CE6FE324541018280B717C1
:1003E4000040130700032388E702854723A0F18414
:1003F40073002030411106C6EF008079F5BF230356
:10040400048015472303E48001002302A480828032
:1004140083076480E3CE07FE23030480828083077E
:100424006480E3CE07FE03454480828083076480B2
:10043400E3CE07FE2302A4808280411126C44AC26F
:100444004EC006C61377F50BAD47AA892E8995448D
:100454006306F70019456537653F8D444E8545377A
:10046400FD59FD1463983401B240A24412498249F3
:1004740041018280135509011375F50F453F220987
:10048400CDB7011126CC06CEB70408005137154567
:10049400BD37713769372AC6A53F324593771500B2
:1004A40089EB136515001375F50FF240E2440561FD
:1004B4008280FD14E9FC0145CDBF397126DC4ADA9E
:1004C4004ED852D656D45AD25ED006DE62CE66CC10
:1004D400B7E700E07D5783AA070022C603AA4700B6
:1004E40023A0E71823A2E718B717004013077005E5
:1004F4002380E704130780FA2380E70483C74704B3
:10050400930B75FFB684E20793FBFB0F8546AA891C
:100514002E8B328937240040E187015763FA760134
:100524006308D5008946130700026313D5000157F9
:10053400D98F93F7F70FB71C00402382FC041147AF
:100544002303E4801305F00F5D3D094CD135636D41
:100554007C11B7050700DA9537870700795563F2F0
:10056400E504B3879500636EF702370B0800A947CB
:1005740033EB65016399F90689E48144513D26858D
:100584000DA0DA850945553D05090345F9FFFD141C
:10059400050B693D81C49377FB0FFDF7DD3569FDDC
:1005A4007D55B7170040130770052380E704130730
:1005B40080FA2380E70403C74704418B2382E704BE
:1005C400F250B7E700E023A0571123A24711E254E9
:1005D40032445259C259325AA25A125B825B724C4B
:1005E400E24C21618280A5476395F9068569130968
:1005F400F00FB3069900B3742B01B6941349F9FFB5
:10060400B3749900856B33796901416B9387F9FF62
:10061400B3F7270199E363FC340193D94900C14737
:10062400E3E637FF99BF0569C1697D19D9B7130599
:10063400800D638869011305000263847901130541
:100644001008CA85DD3B353D21DD4E99B384344124
:10065400D9B7DA852D45D533CA94E30099F2050953
:100664007D3BA30FA9FED5BF9387F9FF93F7F70F3F
:100674006361FC0C83C71C0413073008631FF70471
:1006840037070800636BEB04B3079B00B706100041
:1006940063F5D704334BEB0089476393F9068980EC
:1006A400D549E38C04ECDA850945413B110903275C
:1006B400C9FF91472320E48003076480E34E07FECB
:1006C40023033481FD17EDFBFD14110B81C49377D3
:1006D400FB0FE9FF7D3371F5E1B5B717004003C7A0
:1006E4005704B70708001377070219E3B787070011
:1006F4007955E378FBEA33079B00E3FFE7F855B548
:100704008547E382F9F2DA852D45053B9389F4FFA9
:10071400E38504E6293393F7390091EB83260480BB
:100724000327090093074900E39AE6E43E89CE844F
:10073400F1BFB5476396F9001305900BC93135BD78
:10074400B1471305B00AE38BF9FE99476391F904A5
:10075400B7050800B365BB002D45C53181448D4BF9
:10076400A149753963967401832704802320F90015
:100774008504E39834FF8327048013172B01635502
:1007840007002312F900D5BB2322F900FDB39D47CE
:100794006399F90281451305B0044531BD44232012
:1007A400090023220900FD599D3993F77400CA9763
:1007B40003C70700FD14398D2380A700E39634FF97
:1007C4006DBBA1476392F9046D398144630D0B003D
:1007D4008D479304C0036308FB009304000563047E
:1007E4008B01930440041375C507E30895D8194594
:1007F400393139390545213126850D3909453D31D0
:100804004931E31C05D669BB91476399F900130587
:100814006006F536F53E130590090DB7E38F09D44C
:10082400F154A9BB197106C212C416C61AC81ECA4D
:1008340022CC26CE2AD02ED232D436D63AD83EDA9C
:1008440042DC46DECAC0CEC2D2C4D6C6DAC8DECACC
:10085400E2CCE6CEEAD0EED2F2D4F6D6FAD8FEDA7C
:10086400938581838841E700050092402242B24289
:100874004243D2436244F244025592552256B25640
:100884004257D2576258F25806499649264AB64A00
:10089400464BD64B664CF64C065D965D265EB65EC0
:1008A400465FD65F096173002030B7E700E09843E4
:1008B400B706200023A0D718758F0F10000001C5BC
:1008C40099C1814711E6B7E700E023A0E7108280D1
:1008D400B386F50003C80600B306F5008507238038
:1008E4000601E317F6FEC5B737E700E01C43B70679
:1008F40020002320D718F58F0F10000019C191C1D3
:1009040011E637E700E02320F7108280910503A762
:10091400C5FF11057D16232EE5FEDDB737E700E0A0
:100924001C43B70620002320D718F58F0F100000B2
:1009340001C53307C50011E637E700E02320F710AF
:1009440082800505A30FB5FEE31DE5FEF5B78147DB
:100954003307F5000307070019E33E858280850706
:10096400C5BF37E700E01C43B70620002320D71893
:10097400F58F0F10000001C599C1014711EA37E74F
:1009840000E02320F710054582800507E309E6FE11
:100994003308E500B386E5000348080083C6060073
:1009A400E305D8FE37E700E02320F71001458280F5
:1009B4009307F6FFBE952A966313C5008280FD1542
:1009C40083C715000505A30FF5FEFDB7AA870145EA
:1009D40081CF09CE3E96850703C7F7FF6317B7009B
:1009E400E39BC7FE05458280828001458280797140
:1009F400973700009387478922D4804306D626D2AE
:100A04004AD04ECE52CC56CA5AC85EC669C037C9FF
:100A1400C901014B97390000938989861309F93775
:100A2400173A0000130A8A86973A0000938A8A804C
:100A3400973400009384448A8357240095E35C44EC
:100A4400631D0B00173700002320F784832BC40099
:100A54002285EF00B02F5E84A9A82326FB00FDB7F2
:100A640083A7090082971C443307F5406375F5009A
:100A7400D8401D8F2A976361E9089727000023A3B4
:100A8400077C8355240003450400972000E0E78099
:100A940000655C405844B9C70C44D040AE97BE864C
:100AA40063E4B70063E4C700B386C74014C4228B71
:100AB4003A8459F0972700009387C7779C4B0947DE
:100AC4006373F708F91717270000232DF776B25040
:100AD400225492540259F249624AD24A424BB24BCE
:100AE4004561828063170B009727000023AEE778E7
:100AF400B1BF2326EB0099BF03274A021DCF63E150
:100B0400A7043385A7408347040085E31727000023
:100B1400034737795917B307A7003E85D44063E4E8
:100B2400E70063E4D7003385D74083A70A016376DF
:100B3400F5009727000023A7A770228B404495BF98
:100B4400D840BA977DBF9727000023AD076E41B701
:100B5400972700009387C7779C4385C3411106C636
:100B640082979727000083C7877189E7972700003A
:100B740023A00776B240410182809727000083C7F3
:100B8400077091E79727000023A40774828082806E
:100B9400411122C4172400001304846C1C4006C6AF
:100BA40026C24AC091C782979727000023AA076AE2
:100BB4009737000083C7978B858B1739000013097B
:100BC400A98A89CF8347790019476312F7109737A9
:100BD4000000A38D0788F9235C4482971C4491C3C9
:100BE4008297972400009384E469984017260000B4
:100BF400034656649727000083C7C763939617007C
:100C0400BA9683D60600E5C29727000083C7876299
:100C140063E5C70E97270000238E07601C40639E80
:100C24000714972700009387A7659C4363870714DD
:100C3400972700009387476ADC4317270000232384
:100C4400F76075339737000083C7B782639707123D
:100C54009737000083C7D78191CF8347790093F7F3
:100C6400F70F89EB97370000A3840780970001E012
:100C7400E780203B9727000093874761DC53638E0E
:100C8400070E972700009387E75A9C4BFDC78347BD
:100C9400790015476363F70E9737000083C74782CF
:100CA400918BE1EF9727000083C7675DF9E79040D8
:100CB4009726000083C6165863C7D70C2244B24057
:100CC400924402494101173300E06700C3A28347FD
:100CD40079001D47E314F7F097270000A3880778ED
:100CE400D1211C48DDBD850793F7F70F9726000037
:100CF4002382F654E3E0C7F001BF86073E9783558D
:100D04000700231007009727000023990756972709
:100D140000009387A7549C43172500000345855181
:100D240013172500BA979C4382979727000083D70F
:100D3400E754172700000347E74F93C7F7FF7D8D5C
:100D44009317170098403E97835707005D8D231033
:100D5400A7009727000083C7E74D91C7850717278A
:100D640000002309F74C172700000347A74C9727D7
:100D7400000083C7374CE37FF7E8B2402244924433
:100D840002494101828013971700329703570700E5
:100D94006DF7850715B737C700408326C720B70707
:100DA400FCFFFD17F58F2326F7200100010097278C
:100DB400000093872748C84F832787262326D720F8
:100DC4006A0593C7F7FF99835D8D8280011122CC58
:100DD400604126CA4AC84EC652C406CEAA841D4AD9
:100DE400130965058549BC446364F4000545B9A04D
:100DF40003C7D40083474400631A470503C784022A
:100E04006304F7000040C5B70347540083C7540583
:100E1400E31AF7FE1946CA85130564009936E313ED
:100E240035FF0347C40083C79402E31DF7FC03574F
:100E3400E40083D7A402E317F7FC0145F2406244BF
:100E4400D2444249B249224A05618280E31CF7FA3E
:100E54000347540083C75405E316F7FA1946CA85B5
:100E640013056400FD3CE31F35F9C1BF0111972749
:100E740000009387A77022CC03A4070C26CA06CED1
:100E84002AC42EC6854419E40145F2406244D24482
:100E9400056182808347910003471400858B6304B6
:100EA400F7000044CDB719469305A10013052400AB
:100EB4004D3CE31895FE0545C9BF0000EFF05FC93E
:100EC4007300000000000000972200009382223B80
:100ED4000383020023800200630F0300F325103410
:100EE4002EC0970500009385A5FD73901534EF007F
:100EF400E0507300203086DCEF004050E6508280E2
:100F04000000172700001307E7551443411122C4BA
:100F14009C5E4AC006C6998326C2858B3A841729EB
:100F240000001309E953D1CB930700069CDE172771
:100F340000000347C75393070008972400009384D5
:100F4400A452631BF700832709009C4393F707040B
:100F540017270000230DF75083C7040093F70704F5
:100F64009DC3972700009387A7319C4382979727B7
:100F7400000023A9A75083C7040093F7F70B172792
:100F840000002303F74E83C7440093F7070495E753
:100F9400854717270000A30BF74C9727000093877A
:100FA400274F9C433707020098C7130700FC972676
:100FB4000000238DE64A9848F8D318401C5F9183BB
:100FC400858B8DC31C5F93E707011CDF9727000007
:100FD4009387074C9C4323A20706854717270000E5
:100FE4002306F74883270900D8430583058B19C7CF
:100FF400D843759BD8C3D843799BD8C3B240224405
:101004009244024941018280ED3D730020309317E0
:10101400D50063D3070297270000938767479C4353
:101024007D57B8D7972700009387C720DC4F8507E3
:1010340017270000232EF720937785009DCB972751
:10104400000083C7874293E7170017270000230E89
:10105400F740930700F8172700002309F740972764
:1010640000009387274098435C57F19B93E7170050
:101074005CD7937715008DC79727000083C7D73EA9
:1010840093E7170017270000A300F73E97270000F7
:101094009387473D98435C57F19B93E717005CD7D0
:1010A4009377650095CB93774500172700001307C6
:1010B400A73BCDCB8347070093E717001727000012
:1010C4002304F73A972700009387C73998435C575E
:1010D400F19B93E717005CD79317F50063D40702DD
:1010E4001727000003470751418B97270000938778
:1010F400E74851C383C7870793E707021727000010
:10110400230AF74E9317E50063D7070297270000D9
:1011140083C7C735E207E18763D7070085471727E9
:1011240000002305F73497270000938767369C4314
:101134003707020098C79317C50063D4070217271F
:1011440000000347374B058B97270000938707431D
:1011540029C383C7970793E7270017270000A30B2A
:10116400F74882808347370093E71700172700006A
:10117400A30DF72E81BF03C7870789463D8B6308FC
:10118400D70083C787070D47BD8BE39DE7F69147DB
:10119400B5B703C79707118B69D783C7970793E739
:1011A400870065BF972700009387872E944397276E
:1011B40000009387672B03C70700058B11CB972784
:1011C40000002385072A97270000A381072A82802D
:1011D40003C71700058B65F7F85271FF83C75700E3
:1011E400DDB7172700001307E72703280700832725
:1011F40088039583858BADEF11C683270803BD83D0
:101204002300F6009DC61C43985B4607935767016D
:101214006356070093E707C0C207C183039706001C
:10122400C207C18709C7BA970947B3C7E702239022
:10123400F6008DCD8345150095C99727000083C717
:10124400072393F7070413879500894585C33A95C7
:10125400834705000547994593F6F7066398E6002A
:10126400E207E187814563D30700B9452E85828073
:101274008545EDBF411122C406C626C217240000CD
:101284001304042145E114402E87FC52FDFF9727E7
:101294000000238C071C97270000938727FFD45353
:1012A400BE8495C6B7E700E0B706200023A0D72880
:1012B400B7F700E083A607D1ED9A23A8D7D083A679
:1012C40007D193E6860323A8D7D0730050103A853C
:1012D400B285970001E0E78080C1972700009387DB
:1012E40067189C43B70680009843558F98C3D85716
:1012F400719BD8D797270000A38A07169727000069
:10130400A38407161C40094798C3DC5085CF37F7E0
:1013140000E0832707D193E787002328F7D07300E1
:1013240050100DA08D476315F5049727000093878F
:1013340067139C43B70680009843558F98C3D857CA
:10134400719BD8D71440172700001307E711834770
:101354002700858B89EB83473700858BC9CF972777
:10136400000023850710B240224492444101828048
:101374008547E319F5FC97270000938727F1D45399
:101384003E8795C6B7E700E0B706200023A0D7281C
:10139400B7F700E083A607D1ED9A23A8D7D083A698
:1013A40007D193E6860323A8D7D0730050101440C6
:1013B4008177FD17D046F18FDCC60F100000144072
:1013C400B70702009CC6930700F897250000238FF7
:1013D400F508972700009387E7089C439C439D8367
:1013E400858B99C793076019FCD2D0C65C5339BF6B
:1013F4009307E01BD5BFFC52B9FBB5B79727000094
:10140400938707099C438847D847798D09C988C7BA
:101414009387818A03A30700630303000283828006
:10142400972700009387C70698438967938707F433
:101434007CD3972700009387E70A9C4383A6070978
:10144400139656006358060083A607091396660090
:10145400634406007453FDF282804111B7E700E053
:1014640022C480433707200006C6798C23A0E718DE
:101474000F10000011C199E5B7E700E023A0871021
:1014840001457DA893073500C207C183F19BC207BC
:10149400C183130740036369F7021727000013078A
:1014A400A70D0843172700001307870C1443639202
:1014B400A60217270000130767DD185B55DFC20774
:1014C400DD8D054502974DBF172700001307870AD6
:1014D400C9BF035765002DEB035745006366F70644
:1014E400B306F7402146637CD602032805009386A1
:1014F40087001D8FAA966117172600000356E6D3AE
:101504002392E60023A006012393060014C12312AC
:10151400F500130786FF972600002390E6D22313D5
:10152400B5009725000083D545D1B387F54017272B
:1015340000002314F7D0B7E700E023A087102105AB
:10154400B240224441018280084195B7B7E700E0E8
:101554008C433707200023A0E718F98D0F100000F3
:1015640001E523A0B7108280972700009387C70066
:1015740003A3070097270000938787FF83A807002A
:1015840081469A8763F2170D03A807006361F50C7F
:10159400636FA80A138787006368E50A03D66700A8
:1015A400216705076317E60003C7018A050723803F
:1015B400E18A172500001305E5C703D64700035742
:1015C400650023930700329742074183172E0000DA
:1015D4002315EEC6638C670217230000130383F9F7
:1015E400032303006304F30203D3660063100302BE
:1015F40083D7460023A0060121073E9621062392A5
:10160400C60097270000239AE7C2B6879843630D64
:101614001703972600009386E6F594426306D702E3
:101624008356670095E283D6470003564700184364
:10163400A106B2962392D70098C383576500A107E9
:1016440017270000231BF7BEB7E700E019BFBE86CB
:10165400C2870DBF011197270000938727F222CC80
:1016640003A4870C26CA4AC84EC606CEAA84130908
:101674002500854915C083C7140003473400858BB2
:101684006304F700405CFDB71946930544004A859E
:10169400EFF02FADE31835FF2285F2406244D244C7
:1016A4004249B2490561828041119727000093871E
:1016B400E7EC22C403A4870C26C24AC006C69304DE
:1016C4002500054901E82285B2402244924402499A
:1016D40041018280A6851305A40297A001E0E7805A
:1016E4008033E30225FF405CF1BF411197270000DE
:1016F4009387C7E822C403A4870C26C24AC006C63F
:1017040093042500054901E82285B240224492440D
:10171400024941018280A6851305A40197A001E036
:0C172400E780602FE30225FF405CF1BF6E
:101730009711002093818194175100201301810C8F
:101740001305400097F5FF1F9385C58B17060020F2
:10175000130606FE63FAC5008322050023A0550088
:1017600011059105E3EAC5FE17D501001305051320
:10177000970500209385C5FB1386818363FAC50016
:101780008322050023A0550011059105E3EAC5FE5B
:101790001385818397250020938545F26377B500F3
:1017A000232005001105E36DB5FEFD42739002BCD8
:1017B0008D4273904280930280087390023097F2BA
:1017C000FF1F9382228493E232007390523097126B
:1017D00000009382623C73901234730020303D43CA
:1017E0002A876373C3029377F700BDEFADE5937665
:1017F00006FF3D8ABA960CC34CC30CC74CC74107C1
:10180000E36BD7FE11E28280B306C3408A069702DB
:10181000000096966780A6002307B700A306B700CE
:101820002306B700A305B7002305B700A304B7003C
:101830002304B700A303B7002303B700A302B70034
:101840002302B700A301B7002301B700A300B7002C
:101850002300B700828093F5F50F93968500D58D10
:1018600093960501D58D61B79396270097020000E6
:1018700096968682E78086FA9680C1171D8F3E96DF
:10188000E374C3F8A5B7B717004003C7770513770C
:10189000E70FA38BE704130700F8A38DE7043D4788
:1018A000238CE70413075003A38CE70403C7A705A1
:1018B0001377D70F238DE7048280B717004003C743
:1018C000E7020D8941111377C70F498F93068008EE
:1018D000F3B6068093F6860836C60F10000093060E
:1018E00070052380D704930680FA2380D7040F1055
:1018F00000002387E70223800704B247F3A707808D
:101900000F1000004101828041112A83014E930E85
:10191000407E130F0019930F400663E56E12930883
:10192000001913034006B3781503854E0D4FA14FE0
:10193000337365020D891335150063EFBE1213086A
:10194000F6FF794672984208135808013307C70218
:1019500013D61700BE0732976146B3F6C6021306C8
:101960008070B386C6023697A166F58F42075D8FF9
:10197000B716004083C7F60293F70708A303F100E8
:101980000346710083C7F60293F70708E394C7FE86
:1019900083477100B716004093F7F70F638807126B
:1019A00093078008F3B7078093F787083EC40F10AA
:1019B0000000B7170040930670052380D7049306F4
:1019C00080FA2380D7040F10000023AA070383C6E0
:1019D000170393E60608A388D70223800704A247CB
:1019E000F3A707800F1000001166B71700407D169F
:1019F000D45BC85F93854703A98EF18EF5FA9306F1
:101A00008008F3B6068093F6860836C60F100000ED
:101A1000930670052380D704930680FA2380D704A9
:101A20000F10000098C103C7170313670704A388AA
:101A3000E70223800704B247F3A707800F100000D6
:101A4000410182807D133368E3039308E016630E3F
:101A500008003368F3039308D016630808009378EE
:101A6000330093B818009388D81633081E01131E4C
:101A70000801135E0E0155B56393E50305486386BF
:101A800008000148630303002A8871087298FD1555
:101A9000131E0801C205135E0E01C18179BD13F842
:101AA000150063F4BF007908D5B713381800E5BFF7
:101AB00083C7F60293F70708A303F10003467100FA
:101AC00083C7F60293F70708E394C7FE83477100C4
:101AD00093F7F70FF1DFE9B531714AD966CB06DF2D
:101AE00022DD26DB4ED752D556D35AD15ECF62CDFA
:101AF0006AC96EC7AA8C02D8EF0010122A89930710
:101B00008008F3B7078093F787083EDA0F100000CC
:101B1000B7170040130770052380E704130780FA06
:101B20002380E7040F10000003C7F7021377770F35
:101B3000A387E70203C7F70213678700A387E702BB
:101B400023800704D257F3A707800F100000054534
:101B5000AD33130780C13347E902116A93070AE8DE
:101B600093065002BD69930BA004814A014B1304F4
:101B70008008930470057D1AB347F9023307D70232
:101B80003EC0FD873ECC938709A69309803E33472C
:101B9000F7023AC27D873AC4334739038549B3997E
:101BA000990193D93940B306D702B30B7703B3C673
:101BB000F602B3CBFB0236C6FD8636C893D6FB4190
:101BC00036CEB7460F00938606243349D902856680
:101BD000938606FAB3969601B389E90213078052F9
:101BE0003309D90293060010B389E9023349D902B7
:101BF000B3C9F9029316390036CA37190040FD8679
:101C000036D0930D090493D7F9413ED2F3360480C0
:101C100093F6860836DC0F100000930770052380CA
:101C2000FD00930680FA2380DD000F10000083463C
:101C3000390593F6860FA309D9048346390593E63F
:101C40001600A309D90423800D00E256F3A60680EE
:101C50000F100000130C80FA116DF336048093F618
:101C6000860836DE0F100000930770052380FD0004
:101C700023808D010F10000083463905216693E60D
:101C80000602A309D90483560905B3E6A601231861
:101C9000D90483560905D18E2318D90423800D0059
:101CA000F256F3A606800F1000008346390593F61E
:101CB00006026389061803463905218A6DDE081875
:101CC000612F7336048013768608B2C20F100000AD
:101CD00023809D0023808D010F100000B717004066
:101CE00003C637051376F60DA389C70403C6370567
:101CF00013660602A389C704835609052166B3E665
:101D0000A6012318D90483560905D18E2318D904B6
:101D100023800D009646F3A606800F100000834630
:101D2000390593F606026386061483463905A18AAF
:101D3000EDFE97E0FF1FE7800036AA8636D497E0D5
:101D4000FF1FE7804035A256E30AD5FE83560905FA
:101D50004255B3E6A6012318D904392F8346390525
:101D6000A18AEDDE035609058346290582473376AD
:101D7000CA00B306DA0293D5F641B296B388F640AC
:101D8000E24733B8C6002E983308F840A247B3B6EE
:101D900016013308D84063C70701631DF800924756
:101DA00063FA1701C247634DF80E63950701B24706
:101DB00063E8F80E894663E7660FF246931518004C
:101DC00013D3F8015E8613951800B365B30042D6AD
:101DD00046D4EFA0310F3258050B137BFB0F63473E
:101DE000000163120838A258638F083613081500E3
:101DF000B336A800B69513D6F5013298B336C800AD
:101E0000AE9613581800FE06B3E60601733604803A
:101E100013768608B2C60F10000023809D00238031
:101E20008D010F1000000356C902B296C206C1828E
:101E30002316D90223800D00B646F3A606800F10A4
:101E4000000021BDF336048093F68608B6C00F105B
:101E5000000023809D0023808D010F100000834629
:101E6000390593E60602A309D90423800D008646AE
:101E70000DBDF336048093F68608B6C40F1000003B
:101E800023809D0023808D010F10000083463905BB
:101E900093E60602A309D90423800D00A646A5BD3A
:101EA000E30D0BF0F336048093F68608B6C80F10E6
:101EB0000000930680FA23809D002380DD000F1030
:101EC00000008346390593F5FC0F93F6860FA309AE
:101ED000D90483463905CD8EA309D90423800D008A
:101EE000C646F3A606800F100000130580FA0346CD
:101EF0003905930639051D8A6314962973360480C3
:101F000013768608B2CC0F100000130680FA2380E7
:101F10009D002380CD000F10000003C6060013763D
:101F2000F60D2380C60003C6060013660602238052
:101F3000C600835609051166D18E2318D90483562D
:101F400009052166D18E2318D90423800D00E646A9
:101F5000F3A606800F100000130680FA83463905A9
:101F600093F606026388062483463905130C390567
:101F7000A18AFDDA0818CD21F336048093F686088D
:101F8000B6D00F100000930680FA23809D002380B6
:101F9000DD000F10000083460C00116693F6F60D6D
:101FA0002300DC0083460C0093E606022300DC00DD
:101FB00083560905D18E2318D90483560905216655
:101FC000D18E2318D90423800D008656F3A60680EF
:101FD0000F100000130680FA8346390593F60602B7
:101FE0006385062083463905A18AEDFE97E0FF1F31
:101FF000E780600A2A8C97E0FF1FE780C009E30CA6
:1020000085FF8356090511664255D18E2318D904E0
:10201000A5218346390513063905A18AFDDAF33671
:10202000048093F68608B6D40F100000930680FA59
:1020300023809D002380DD000F10000083460600F2
:1020400093F6F60D2300D60023800D00A656F3A6C6
:1020500006800F1000008356090503462905D24764
:10206000B376DA003306CA021305800C9355F641A5
:102070003696330DF6408257333CD6002E9C3336CD
:10208000A601330CFC40330CCC4033088503925638
:102090004E86B335A5033305A503C295EFA0816233
:1020A00063468001631E0C16630C0D1613061500A3
:1020B0003335A6002E959356F5013696B335D600E6
:1020C000AA959396F50105828585D18E6346B00069
:1020D000639D051A638B061A0356C90215823305E0
:1020E000D6003336C500B2956348B000639105242D
:1020F0001306F00F637DA622894663F356159307F6
:102100008008F3B7078093F78708BED60F1000004A
:1021100037170040930770052300F704930780FAF0
:102120002300F7040F1000008356C7028967811748
:10213000D58FC207C1832316F70223000704B657C1
:10214000F3A707800F100000FA506A54DA544A5976
:10215000BA592A5A9A5A0A5BFA4B6A4CDA4C4A4DD7
:10216000BA4D296182801308F5FF3335A800FD15AB
:102170002E951356F5013298B336C800AA9651B180
:10218000F336048093F68608B6CA0F100000238049
:102190009D002380AD000F10000083463905CD8ED1
:1021A000A309D90423800D00D646F3A606800F109C
:1021B000000035BBF336048093F68608B6CE0F10C8
:1021C000000023809D002380CD000F100000834677
:1021D000390593E60602A309D90423800D00F646CB
:1021E000F3A606800F10000095BBF336048093F62B
:1021F0008608B6D20F10000023809D002380CD00FA
:102200000F1000008346390593E60602A309D9049E
:1022100023800D009656F3A606800F1000006DBBBC
:102220009306F5FF33B5A600FD152E959355F501E0
:10223000AE96B3B5B600AA951396F501858269B539
:10224000F336048093F68608B6D80F100000930684
:1022500080FA23809D002380DD000F10000083564C
:10226000C9020566011693F6F60FD18EC206C18229
:102270002316D90223800D00C656F3A606800F1040
:102280000000850A93FAFA0F51B233E6B60045C250
:102290000356C9023305D0403338A000B305B0401F
:1022A000B385054115826345B000D1E16371A6088D
:1022B000894663F0560593078008F3B7078093F7C4
:1022C0008708BEDA0F100000B7170040130770052B
:1022D0002380E704130780FA2380E7040F1000002F
:1022E00003D7C7027D8B2396E70223800704D657C6
:1022F00081BDF336048093F68608B6DC0F1000002B
:10230000930680FA23809D002380DD000F100000DB
:102310008356C9020566011693F6F60FD18EC206E2
:10232000C1822316D90223800D00E656B9B7930760
:102330008008F3B7078093F78708BEDE0F10000010
:1023400037170040930770052300F704930780FABE
:102350002300F7040F1000000356C702939756009E
:10236000B297C207C1832316F70223000704F6576A
:10237000C1BB914763EEB70217C70100130707E01F
:102380008A05BA959C41BA978287B717004003A780
:10239000470B1345F5FF698F23AAE70A03A7070B2D
:1023A000698F23A8E70A03A7070A798D23A0A70A44
:1023B0008280B717004083A6470B1347F5FFF98EBD
:1023C00023AAD70A83A6070B558D23A8A70A83A69D
:1023D000070A758F23A0E70A8280B717004003A77A
:1023E000470B498F23AAE70A03A7070B1345F5FFFD
:1023F00045BFB717004083A6470B1347F5FF758FFE
:1024000023AAE70A03A7070A598D4DB7B71700405B
:1024100003A7470B498FEDB7B71700408847420520
:1024200041819377050491EB9377F5013755E801E6
:10243000130505803345F50282809377050C130759
:1024400000046397E7009377F50137459C1CCDB7EF
:102450002165130505D0828037E700E01C43544313
:10246000A183E206D58F1CC1FD572320F718232234
:10247000F7180F100000828013178500B7E700E0FF
:1024800023A0E710618123A2A7108280B7F700E0A4
:102490008847CC478280814737370040A14663C4D4
:1024A000C700328582800345B740E38EA6FE3385A0
:1024B000F5000345050085072304A740CDB797F72E
:1024C000FF1F9387A73B9C43171700201307071F85
:1024D0003E95636EE500174700201307A712636857
:1024E000A70017F7FF1F232BA7383E858280FD57D3
:1024F000EDBF411122C406C62A84393F2947B307DC
:10250000E502B2408D83B3D7870222449507B3D743
:10251000E70237370040C207C1832316F740410165
:102520008280716541111305052006C6D937B7377A
:102530000040130770F82381E7400D47A381E7406F
:1025400013070004A380E74005472387E740B24014
:102550004101828011456FF02FD8411193962500DB
:10256000AA852D4506C697E0FF1FE78040F5B240DB
:10257000014541018280011122CC06CE3714004072
:1025800026CA4AC84EC652C483447405034AB405D9
:102590008349840503499405EFF0EFAE8347A40512
:1025A00093F4F40F137AFA0F93E71700230DF40452
:1025B00093F9F90F1379F90FB717004003C7A7056F
:1025C000058B6DFF03D5C705A38D4705238C370504
:1025D000A38C2705A38B9704F2406244D24442495E
:1025E000B249224A0561828041119397050122C4B4
:1025F00006C6C1872E8463DB0700CD2511C1312DAE
:102600002165218DB24022444101828093F715005B
:1026100013C51500E5FB93F7250013C52500FDF351
:102620009397250163D00702EFF0C003253737F6F3
:102630000200130606E0896503C5C183EF009049D7
:102640000965C1B7939715010145E3DD07FA17C581
:102650000100130565B8EFA03112130600649165FF
:1026600003C5C183EF001047116561BF2D71232A97
:102670009110FD74E98C232C81102328211123262D
:1026800031112A84AE893289930600100A86A68504
:102690002D45232E111097E0FF1FE78040E2131510
:1026A000440151810A0513962900CA850A9597E0CD
:1026B000FF1FE780C01FA68585660146254597E078
:1026C000FF1FE780C0DF0A86A68593060010294514
:1026D00097E0FF1FE780A0DE8320C1110324811152
:1026E00083244111032901118329C11015618280BE
:1026F000B7F7070003C70701411106C622C426C267
:102700004AC0A547631AF7009537B2402244924465
:10271000024901454101828013942500AA8432892F
:10272000A286AA850146254597E0FF1FE78020D9AC
:10273000A2864A86A685294597E0FF1FE78020D814
:10274000E9B71D71494697C50100938565A417C572
:1027500001001305A5BB86CE97E0FF1FE780A020F0
:1027600001E917C501001305E5A3EFA0F10001A0E1
:10277000B7F600E0795798CAFD57DCCA0567B7E796
:1027800000E023A0E7101306F00290C223A0E71890
:102790000F10000017E7FF1F1307477323ACE182F8
:1027A0004157A38AE740130600048145080897E0D3
:1027B000FF1FE780E01697F7FF1F9387A7223EC809
:1027C000896793870780231AF1009D673ECCB7077E
:1027D0000105938707103ECEED472310F102854790
:1027E0002301F10297070000938767D7BEC29707BE
:1027F0000000938727F0BEC48567938757D12312C3
:10280000F102970700009387A7C83ED8B7F50700E5
:1028100097070000938767D63EDC81469707000044
:10282000938787D33000E10519453EDE97E0FF1F0F
:10283000E780E0C818088147994630003E96034675
:10284000060085070507A30BC700E398D7FEC2471C
:1028500091C70357410185676373F70001A08307A0
:10286000410263D7070493078008F3B7078093F703
:1028700087083EC40F100000B7170040130770050B
:102880002380E704130780FA2380E7040F10000079
:10289000B847B706100013670718B8C79853558F85
:1028A00098D323800704A247F3A707800F100000E6
:1028B0000808EF10C00CAA8501C917C5010013054F
:1028C000A58FEFA0215701A0F6402561828041111C
:1028D00017050000130585D106C622C4EF10600657
:1028E0001384C1832300A400192803450400224453
:1028F000B24013060032896541016F00B01D797145
:1029000006D613078008F337078093F787083EC27F
:102910000F100000B7170040930570052380B7041F
:10292000130680FA2380C7040F10000083C6F70245
:1029300093F6A60FA387D702238007049246F3A637
:1029400006800F10000073370780137787083AC49A
:102950000F1000002380B7042380C7040F1000006D
:1029600003C7F70213672700A387E7022380070442
:10297000A247F3A707800F1000000545EFE0FFF323
:10298000D13E814701478146054685451305407E76
:10299000EFE09FF768005146814597E0FF1FE78011
:1029A00020F8B707C0A83EC8B787E803938707D0C9
:1029B0003ECA680097E7FF1F938727A13EC6EF1026
:1029C000E02BB2504561828041119397050122C4EA
:1029D00006C6C1872E8463DD070003C55184FD2C24
:1029E00011C1252C2165218DB240224441018280F4
:1029F00093F715000145EDDB17C50100130545E60A
:102A0000EF40E15B13451400C5B78347250079719A
:102A100022D406D626D24AD04ECE52CC56CA5AC856
:102A200005472A846388E70A91CF35476381E70425
:102A3000B250225492540259F249624AD24A424B4D
:102A40004561828017B5010013054579EFA0C15299
:102A50002C0013054030EF40A1682C000545EF40E5
:102A60003044014685450D45EF408157D1B703C736
:102A700041849D47E3EEE7FA834945001309550079
:102A800001449384819203C541846366A4020E05C8
:102A9000090526951946CA8597E0FF1FE78020E1C2
:102AA00083C7418413973700BA948507A380340104
:102AB0002382F184B5BF9315340089051946A69584
:102AC0004A8597E0FF1FE78000EA3DF10504137493
:102AD000F40F55BF17B5010013054571EFA0C149AB
:102AE00083473400A1EB014685450D45EF40414F3A
:102AF00017B501001305C570EFA0C13315BFA6853A
:102B00004E85EFA02133139B340001495C40528570
:102B1000DA97CA9783C527000509EFA0A131E3170B
:102B200059FF2945EFA00135850483473400E3C8E8
:102B3000F4FC55BF814497B901009389A96D17BA78
:102B40000100130A2A6E994ACDB70111170500003A
:102B50001305C5E706CE22CCEF00B05E1384518486
:102B6000A1471306F1002300A40085451305E030BA
:102B7000A307F100EF40816A85659385052C09451F
:102B8000EF20702B034504008545812BF240624401
:102B90000561828041111305800406C697D0FF1F8E
:102BA000E780E050371700408327870A8D451305DB
:102BB000002093E707202324F70AEFF08FFB9532DC
:102BC00017B5010013058574EFA0013B9D3E01334D
:102BD000EF40B1169D3F97E0FF1FE780E08123ACF7
:102BE00005FE1C4191E7010001000CC18280BA87FB
:102BF00003A787FF6DFF23ACB7FE8280184183A730
:102C000085FF6319B7001CC1FD5723AC05FE238F58
:102C1000F5FE8280232CF6FEC5BF411122C437E4A5
:102C200000E026C204403707200006C6F98C2320A6
:102C3000E4180F10000009E9232094101545B24054
:102C400022449244410182800347E5FF9307F00F3D
:102C50006306F700232094101145D5B797F0FF1FA6
:102C6000E780008F014523209410D1BF411126C277
:102C7000B7E400E04AC003A90400B707200006C675
:102C800022C43379F90023A0F4180F10000009E9D9
:102C900023A02411B240224492440249410182807F
:102CA0009565938505D0C98D2A842105C205420505
:102CB000C181418197E0FF1FE780607A01CDFD5718
:102CC00023200500231285002303F50023A02411EF
:102CD0002105C9B723A0241101456DBF0111B7E734
:102CE00000E04AC803A907004EC63707200006CEF9
:102CF00022CC26CAAA893379E90023A0E7180F104D
:102D00000000970700209387A75280438144014623
:102D100019E499E8A1654E85EF00300605A08347C8
:102D2000E4FF6399370385CCA685170500201305BA
:102D30002550E93565D0A1654E854526F2406244AF
:102D4000B7E700E023A0271126854249D244B249C3
:102D50000561828091E02286032484FF55BFA2840E
:102D6000E5BF41114AC037E900E022C4032409004D
:102D70003707200006C626C2798C2320E9180F10D9
:102D8000000089E523208910154515A0AA8497071E
:102D9000002083C7374A2E8563F5F400894763EE28
:102DA0009700A53DB7E700E023A087100D45B2408E
:102DB0002244924402494101828083A785FF99E71A
:102DC00003C7E5FF9307F00F6308F700B935B7E7CE
:102DD00000E023A087104DBF238F95FE170500202C
:102DE00013050545ED3BA1652685C52C014523202E
:102DF000891075BF9707002023AC07428280970790
:102E00000020938767489C4399E33E85828003D7DF
:102E100027006316B70003C70700E308A7FEDC47D7
:102E2000E5B7A5C1011106CE22CC26CA8147C1460D
:102E300033D7F540058B29C312053E95314733053D
:102E4000E5021707002013076748044305443314BD
:102E5000F4002EC642044180AA949C40C840829748
:102E6000B24523A0040023A20400A18DF2406244D5
:102E7000D2442E85056182808507E39BD7FA014401
:102E8000EDB72E858280C9C1797122D406D626D2AB
:102E90004AD04ECE01444147B3D78540858BA5C368
:102EA0001205314722953305E502970700209387E5
:102EB000E74103A907008544B3948400C204C1809C
:102EC000BE892A990327090011C7032549002EC688
:102ED0000297B24531473304E40283A709003E94C8
:102EE0001C4489E72320090023220900B250225400
:102EF000A58D02599254F2492E85456182800504C0
:102F0000E31CE4F88144DDB72E8582804111B7E7E8
:102F100000E022C480433707200006C626C2798C11
:102F200023A0E7180F1000009707002093870736AB
:102F30009C539384418099C782979C403E9523A2DD
:102F4000A18039A097070020938787339C43EDF732
:102F50008840B74703009387D73F3305F502B7A7EB
:102F60002600938737ECB24092443E9523A2A1807D
:102F7000B7E700E023A087102244410182800111BD
:102F80002E8626CAAA84131506019305F0044181F2
:102F900022CC06CE32C697E0FF1FE780404C2A8441
:102FA00019C53246A68597E0FF1FE780409022852D
:102FB000F2406244D244056182807971B7E700E053
:102FC00022D480433708200006D626D24AD04ECEDF
:102FD00052CC56CA5AC85EC662C43374040123A0D8
:102FE00007190F10000005E123A087100945B25012
:102FF000225492540259F249624AD24A424BB24B8D
:10300000224C4561828097070020938767279C4365
:10301000BA8A368AB28B2E8BAA89829797070020AC
:103020009387C72A98433E898144B146C147338C70
:10303000D40233068701104241EAC165938505F049
:10304000414597E0FF1FE780804105E19707002099
:103050009387C7239C5B81C7814511458297B7E75A
:1030600000E023A087102D4559B7970700209387CC
:10307000A721984331E79707002023A7A720230023
:10308000050083270900054733179700232605000D
:10309000232475012311E50023225501E29723A083
:1030A000370123A2670123A4570163040A00230008
:1030B0009A00B7E700E023A0871001450DBF3E87C7
:1030C0005C47F5FF48C765BF8504E392F4F6B7E7B0
:1030D00000E023A08710214519BFB7E700E098431F
:1030E000B706200023A0D718758F0F100000970691
:1030F000002083C636146373D5021706002013061A
:103100006618931615000842369583560500D58D2E
:103110002310B50023A0E7100145828023A0E7100B
:103120000D458280B7E700E09843B706200023A052
:10313000D718758F0F1000009706002083C6960FD2
:103140006375D502170600201306C61393161500E3
:10315000084293C5F5FF369583560500F58D23107B
:10316000B50023A0E7100145828023A0E7100D459C
:103170008280011137E700E026CA0443B706200029
:1031800006CE22CC4AC84EC652C4F58C2320D7188E
:103190000F100000130705FF1377F70FFD4763E5D6
:1031A000E70AB146B306D5029707002093870712B6
:1031B000984336971C43C9CB135A450005443D89B3
:1031C0003315A4001314050141802E895285A28570
:1031D0003D31AA8929CDA2855285A93797070020BC
:1031E0009387070A9C4382979707002083D7470F4E
:1031F000338727032A84814613060064B3B7270365
:1032000013050732B335E500BE95EF903109B307DA
:103210008500970600209386260C3E87D44263E4FF
:10322000A70063E4D7003387D74023A4E900B7E7BA
:1032300000E023A097100145F2406244D244424985
:10324000B249224A05618280B7E700E023A09710C7
:103250000945DDB70111B7E700E026CA8443370707
:10326000200006CE22CC4AC84EC6F98C23A0E7180F
:103270000F100000BD4763E9A70431473307E5029B
:1032800097070020938787049C43BA979C438DCF70
:1032900005443314A400420441802E890145A285CF
:1032A000B93EAA8911C5A2850145AD3D23A42901D6
:1032B000B7E700E023A097100145F2406244D244F2
:1032C0004249B24905618280B7E700E023A0971028
:1032D0000945E5B779714AD037E900E026D2832461
:1032E0000900B707200006D622D44ECE52CC56CACB
:1032F0005AC85EC6FD8C2320F9180F1000009707EE
:10330000002083C737F3637AF5009707002093877F
:1033100027F783AB070063970B00B7E700E023A014
:103320009710A9A0170B0020130B0BFB832A4B004F
:10333000B74736FE938707C82E8A9705002083D5A6
:1033400025FABE9AB387C5022A84B2898146B3B5ED
:10335000C50213850732B337F50013060064BE9526
:10336000EF90C17363F0AA02232099100145B25077
:10337000225492540259F249624AD24A424BB24B09
:1033800045618280829B9705002083D565F5B387D0
:1033900035032A89130600648146B3B535031385C6
:1033A0000732B337F500BE95EF90416FB3072501A3
:1033B0003E8903274B0063E4A70063E4E7003389F9
:1033C000E740D2852285253C09C923242501B7E79A
:1033D00000E023A09710054559BF936504F0C2058E
:1033E000C181414597E0FF1FE780600719E9970712
:1033F00000209387A7E99C5B8DD3A2851145829716
:1034000029BF97070020938727E89C4385E7970704
:10341000002023ABA7E685472326050023242501AA
:103420002311450123008500A300F5002322050098
:1034300079BFBA87D84775FFC8C7F1BF7971B7E7B9
:1034400000E026D284433707200006D622D44AD093
:103450004ECE52CC56CA5AC85EC662C466C26AC054
:10346000F98C23A0E7180F1000003DC14144B68934
:10347000B28A2E8A2A89B14C170B0020130B0BE558
:10348000054D130C0003B30B940303270B005E9749
:103490001C43A5E39375F400B315BD0013554440D8
:1034A000C2055686C1811375F50F2D3539C18327A5
:1034B0000B00DE9723A0270123A2470163840900A4
:1034C00023808900B7E700E023A09710014521A0E1
:1034D00023A097100945B250225492540259F24940
:1034E000624AD24A424BB24B224C924C024D456149
:1034F00082800504E31984F9B7E700E023A0971060
:103500002145D1BF0111B7E700E026CA844322CC90
:103510004AC84EC63707200006CE2A84AE893289B3
:10352000F98C23A0E7180F1000006D332285CE859B
:10353000EFF0FF8C2A8405C59705002083D545DA76
:10354000B3872503130600648146B3B525031385AD
:103550000732B337F500BE95EF90415448C013359C
:103560001400F2406244B7E700E023A097104249FC
:10357000D244B2490E05056182800111B7E700E02F
:103580004AC803A9070022CC4EC63707200006CE42
:1035900026CAAA892E843379E90023A0E7180F10E0
:1035A0000000EFF0DF85AA8419C123110500A28570
:1035B0004E858D3E9707002083C7C7C7639B3701A1
:1035C0009707002083D787CB5D8C97070020239730
:1035D00087CAB7E700E023A02711014591E019450C
:1035E000F2406244D2444249B249056182800111ED
:1035F0004AC837E900E022CC03240900B7072000BD
:1036000006CE26CA4EC67D8C2320F9180F10000066
:103610009307F00263E8A704B147B304F5029709E2
:1036200000209389A9CA83A70900A6979C439DCB34
:103630009377F5008545B395F500C205C1811181E9
:103640002D3F83A709000145A69723A0070023A2C9
:10365000070023208910F2406244D2444249B24913
:1036600005618280B7E700E023A087100945E5B730
:103670004111B7E700E026C2844306C622C43707DB
:103680002000F98C23A0E7180F100000EFF02FF7AF
:1036900019E90145B2402244B7E700E023A09710A2
:1036A00092444101828097070020938767BD9C4325
:1036B0000045829797070020938707C26368A4029A
:1036C000D843B74636FE938606C83305A4403697DE
:1036D000E371E5FC13070064B335E50203D6870008
:1036E00081463305E502EF90613B6DB7D8433A94CC
:1036F000C1BF411122C426C2170400201304C4BD57
:1037000097040020938404B39448584097070020FE
:10371000938707B706C69C436393E6088297544095
:10372000B74736FE938707C8B6973387A7003A8511
:103730006364F7006364D7003305D7409704002023
:10374000938484D2DC5081CF97070020938787D958
:1037500094433707CDFF7D179C46F98F9CC611E136
:10376000484097070020938767B2DC53829719E59A
:10377000DC508DC3EFE04006EFD0A05BDC5099CB6E
:1037800097070020938707D69843B70633001C4756
:10379000D58F1CC7B2402244924441018280829757
:1037A00094485840B387A6003E8563E4D700E3E71A
:1037B000E7F83385E74059B7411106C6970700205F
:1037C00023AAA7B00295B2409707002023A0A7A87C
:1037D000014541018280994763E9B7008A0597074F
:1037E00000209387E7A7BE9588C1828097070020B5
:1037F00023A0A7AE11C58547170700202301F7A80E
:10380000828041117146814517050020130545A5A9
:1038100006C69707002023A907A69707002023AB19
:1038200007AA9707002023AD07A497070020238845
:1038300007A49707002023AD07A897D0FF1FE780B4
:10384000200E130680028145170500201305859E72
:1038500097D0FF1FE780C00CEF30F157970700208B
:103860009387C7A203C5C70383C7D70385453E9582
:103870008D473305F50239051375F50F97070020BD
:10388000238BA79A99473305F5021305052497E082
:10389000FF1FE780C0BC170700202329A7A259CD2E
:1038A000994717060020034606993306F60281451C
:1038B0001306062497D0FF1FE78080069707002095
:1038C0009387C7A09C4393870724170700202327CB
:1038D000F79817070020034707960A07BA971707B4
:1038E00000202321F79AEFF0EFD059299707002005
:1038F0009387C79694439707002083C7B79313977E
:103900002700369717F6FFFF1306265810C31387B4
:1039100017001377F70F0A07369717F6FFFF1306FE
:10392000865010C313873700890793F7F70F8A076C
:1039300097050020A380E590B69790C3B24041015F
:1039400082809707002083C7F78E17070020034760
:10395000878E63F3E70217070020130727901843A9
:103960009386170017060020A306D68C939627008F
:10397000369708C33E8582809307F00FE5BF1C4150
:103980006384071641777D8FB70600208947631E41
:10399000D71403574500630A0714411122C419467E
:1039A0002A849305F00F610506C697D0FF1FE780B4
:1039B000200205478D476304E5121C4481CB58580B
:1039C0009947630E0710185C630B07101306000479
:1039D0008145170500201305658B97D0FF1FE780F1
:1039E00020F413060004A285170500201305058A9C
:1039F00097D0FF1FE780A0EB9707002083D7C789E8
:103A0000170700201307878899E793070010970688
:103A100000202393F6889707002083C7078891E743
:103A2000854797060020238AF6869707002083D7CC
:103A3000E78691E7ED47970600202391F6869707E2
:103A4000002083C7978591E7954797060020A386B6
:103A5000F6849707002083C7878491E785479706F8
:103A60000020238EF6829707002083C7578399E7AB
:103A70008347F70097060020A383F682970700206C
:103A800083C7178281CF93F63700898317060020FA
:103A9000230CD68297060020A388F6829707002081
:103AA00083C7078091E7D54797F6FF1F238AF67EE5
:103AB0008347640199E79307C00397F6FF1F2382AA
:103AC000F67E1C5791C7829797F7FF1F2398A7761A
:103AD000FD5717070020A30DF7A625338147B240F5
:103AE00022443E854101828089473E8582800111C2
:103AF0004EC697F9FF1F9389297E83A7090006CE3A
:103B000022CC26CA4AC852C4829713090064B3352E
:103B1000250303DA89008146528633052503EF80A9
:103B2000F17797F7FF1F9387E770804FAA840145CD
:103B30006306940233858440636E940003A54900B4
:103B400052868146B335A9023305A902EF8011756B
:103B5000018D269597F7FF1F23AA976EF2406244C6
:103B6000D2444249B249224A0561828097F7FF1F39
:103B700083D7277751471D45637CF702794719455D
:103B80006378F7021307200315456373F7021307E1
:103B9000B0041145637EF700130740060D456379B5
:103BA000F7001307600909456374F70013B5B70FF1
:103BB0008280011122CC06CE2A842EC6EFF00FB5EA
:103BC000B245F240818D33A5A5022295624413755A
:103BD000F50F05618280011122CC06CE2A842EC603
:103BE000EFF0CFB2B245F240818D33A5A502229508
:103BF00062444205418105618280011122CC06CEDA
:103C00002A842EC6EFF08FB0B245F240818D33B5D5
:103C1000A502229562440561828097F7FF1F938772
:103C2000E766985739CB411122C426C206C6BE8426
:103C3000029717F7FF1F035767602A8415CBBA87CF
:103C40006373A700AA87C207C183BA866373E400BF
:103C5000A286C206C182958F5147635BF700DC5490
:103C600091C38297EFD0102097F7FF1F2398875CAE
:103C7000B2402244924441018280828097F7FF1F24
:103C800023A6076697F7FF1F93874760DC5701114C
:103C900006CEAA8581C72AC68297B245C5C19C4176
:103CA0000545D1CBDC41C1CB83D78500C9C783D7BC
:103CB000A500D1C3514617F5FF1F1305E56197D045
:103CC000FF1FE780C0BE97F7FF1F238D076097F7A0
:103CD000FF1F938767609C4317F7FF1F2322F75A44
:103CE00097F7FF1F83C7F75B8DE79307805717F59B
:103CF000FF1F0355E55E3305F50237460F00130637
:103D0000062481468145EF80715997F7FF1FA38AEA
:103D1000A75817F7FF1F0347D758A54763E7E700E2
:103D2000A94717F7FF1FA30EF75617050000130545
:103D300045DC59340145F2400561828097F7FF1F49
:103D400023A8075097D7FF1F9387270517F7FF1F53
:103D50002324F7587D5797F7FF1F23A1E758B7870C
:103D60003200938727A197F6FF1F23ABF65697F7EC
:103D7000FF1F23890756B7C7004023A4E72681BF4A
:103D8000011122CC17F4FF1F13044450084406CE3F
:103D900026CA4AC801E90545F2406244D244424974
:103DA000056182805C58E5DB185C75D7700085453D
:103DB00082971844B247E300F7FE9305E00417F535
:103DC000FF1F0355654D97D0FF1FE780406917F728
:103DD000FF1F2321A74861D117F6FF1F0356C64BCB
:103DE0009305F00F97D0FF1FE78080B3814417F948
:103DF000FF1F1309294497F7FF1F83C7074A0326AC
:103E0000090263C1F402328597D0FF1FE780407436
:103E1000014597F7FF1F23AF074297F7FF1F23AD19
:103E200007429DBF97F5FF1F83D50547B3879502CE
:103E30000844185C898185043E9508C2029765BFD5
:103E4000011156C297FAFF1F938A4A4483A78A003A
:103E500022CC4AC84EC606CE26CA52C45AC0AA8927
:103E60002E8432896386072203A74A036309071455
:103E70001307F01F6367A71497F4FF1F9384843B15
:103E800003AA040263170A0A9565938515E017F5DE
:103E9000FF1F0355654097D0FF1FE780405C97F7F1
:103EA000FF1F23A9A73A2A86630B051083A74A039D
:103EB00003A58A0097F5FF1F83D5053E8981829768
:103EC00083A78A0003AA040217F7FF1F2326F738E7
:103ED0008947639CF908C1476313F40E97F5FF1FE8
:103EE00083D5853B938505FC9147B3C5F5028A05CB
:103EF000D29503C725009307A005631EF70A83D751
:103F00000500639A370B4A852286910597D0FF1FDB
:103F1000E780E0999C505285639347150145F24034
:103F20006244D2444249B249224A924A024B056154
:103F30008280D850E38EE7F89565938525E017F5E4
:103F4000FF1F0355653597D0FF1FE78040512A8A30
:103F50003DC52A8683A74A0303A58A0097F5FF1F5C
:103F600083D5853389818297A5B78D47639DF900F5
:103F7000C1476316F40497F5FF1F83D5E531938598
:103F800045FDF199B5B79147639AF9006319340378
:103F900097F5FF1F83D54530A115E5B793070010AE
:103FA000639FF900A14763EC870097F5FF1F83D556
:103FB000A52EC115F9B79C5052856396470D29452A
:103FC000B9BF1D6A568B6371450B130A05E019478B
:103FD000334AEA0217F7FF1F0357072C97FAFF1F10
:103FE000938A4A25330AEA023E9A83A74A026395D6
:103FF000470183A40A029DE49305E00417F5FF1F1F
:104000000355852997D0FF1FE7806045AA8445D9CD
:1040100083274B0397F5FF1F83D505282A868981BF
:104020005285829791451307A005898193972500B2
:10403000A69783C627006393E60483D60700639C94
:10404000360385058A052286A6954A8597D0FF1FE7
:10405000E780E08583A70A02E38297EC268597D064
:10406000FF1FE780E04E5DBD21677917E369A7F484
:10407000330A454185B783C5370045BF83A70A0288
:10408000E38F97F2268597D0FF1FE780604C05BF2E
:1040900097F7FF1F9387071A8C5395D19147930683
:1040A000A0058983139727002E9703462700E3185E
:1040B000D6F003560700631C360185078A0722865F
:1040C000BE954A8597C0FF1FE780607E81BD83470C
:1040D0003700C1BF97F7FF1F9387471B984739C722
:1040E0009C5FA9C705476313E504411122C417F477
:1040F000FF1F13042414105006C60DC6485097F530
:10410000FF1F83D5651989818297085097D0FF1FBB
:10411000E780004497F7FF1F23AE071297F7FF1FB2
:1041200023AC0712B24022444101828082800111F7
:1041300017F7FF1F130787154EC68329870022CC68
:1041400026CA4AC806CE52C456C2AA842E843289D0
:10415000638B09201C5FBA8A99EB2945F2406244BF
:10416000D2444249B249224A924A056182805C5B4C
:10417000EDD79307F01F63EAA70E97F9FF1F938906
:10418000690B83A70902B1CB03A58A0083A7490263
:104190006395A70689476393F408C147E31FF4FAC0
:1041A00017F5FF1F0355450F9147130505FC3345D0
:1041B000F5029317250003A509022286CA853E95BC
:1041C0009307A0052301F50023109500110597C062
:1041D000FF1FE780C06D014551B79305E00417F557
:1041E000FF1F0355650B97D0FF1FE780402797F708
:1041F000FF1F23A1A70649F98DB783A74A0303A68A
:10420000090297F5FF1F83D525098981829783A726
:104210008A0017F7FF1F2321F704ADBF8D47639E68
:10422000F400C147E31BF4F217F5FF1F0355C50661
:10423000130545FD9377C5FFBDBF9147639AF40011
:10424000E31D94F017F5FF1F035505052115DDB794
:1042500093070010E393F4F0A147E3E087F017F52C
:10426000FF1F035565034115F1B79D676379F50697
:10427000930705E01947B3C7E70217F7FF1F035776
:10428000A70117FAFF1F130AEAFAB387E702BE99DC
:1042900083270A02A1CF83274A02639937070325A0
:1042A0000A0291461308A0059305F00F93D7260044
:1042B000139727002A9703462700631F0607835892
:1042C00007000346370063959806B306D64063CFD0
:1042D000860485078A072286CA853E95CDBD21675B
:1042E0007917E36CA7E6B307F54041BF9305E004F7
:1042F00017F5FF1F035545FA97D0FF1FE7802016DB
:1043000097F7FF1F23A8A7F459F581BD83A74A0398
:1043100003260A0297F5FF1F83D505F889814E858C
:10432000829797F7FF1F23A937F395BF2310B70094
:1043300093160601C1829DBFB385860017F6FF1F45
:10434000035686F59105130606FCE368B6E01306EE
:104350003400719A1106B2962301070123109700C9
:10436000A301D700BDB797F7FF1F9387A7EC94531E
:10437000BE89A9C203A5090291461308A0059305A9
:10438000F00F93D72600139727002A97034627009C
:1043900063180605835807000346370063989800A2
:1043A000B306D640E3D786F22310B7009316060172
:1043B000C182C1BF8357C70017F5FF1F0345E5ED55
:1043C0009305E0043305F5024205418197D0FF1FB4
:1043D000E780E00897F7FF1F23AEA7E641FDB5BBD6
:1043E00017F6FF1F035646EB97F5FF1F83C5E5EA57
:1043F000B385C502338686001106E3E0C5D681BFCA
:1044000001458280011106CE2EC6EF50405E01C9E3
:10441000B245F2400355250005616F90301FF24010
:10442000494505618280A38801862388018623ACE3
:10443000018423AE018423A0018623A2018623AA3E
:10444000018423A8018497F7FF1F938767EC9306E5
:1044500040382391D702F1761307400B938606B8B4
:104460002391E7002392D70211679D4613060005AA
:104470009305000A1305007D2392E7002393D702DA
:1044800041478546130810F82395E7002396E70077
:104490002399E700239AE700239BE700239CE7008A
:1044A0002394E702239007002393B7002394B700D7
:1044B0002397C7002398C700239DA700239E0700CA
:1044C000239F0700239007022395D7022396070313
:1044D000239707029308F007239807022392E70423
:1044E0002393E704239FE7042390E7062391E7063D
:1044F0002392E706239917031307C01C239AD702B8
:10450000239BD702239C0702239D0702239E0702B9
:10451000239F0702239007042391D70423940704C1
:10452000239507042396D7042397C7042398C70429
:104530002399A704239A0704239B0704239C0704B9
:10454000239DC704239EC7042393A706239407062D
:1045500023950706239607062397B7062398B706E1
:1045600023990706239AE7065147239DE7067D57BF
:10457000239B0706239C0706239ED706239F070637
:10458000239007092391E7088280011126CAAA8493
:10459000214522CC06CE2E8432C636C43AC2EFE084
:1045A000EFEC1DC9A24612473246930700FD2300D7
:1045B000F5009947A30095002301F5002303D500DA
:1045C000A303E5002312C500AA8522856244F240B8
:1045D000D24405616FE0EFF8F2406244D2440561D5
:1045E000828023ACA184828023AEA184828023A018
:1045F000A186828023A2A1868280011122CC4AC892
:1046000006CE26CA2A890144B30489006368B4002F
:10461000F2406244D2444249056182802EC6EFE0F6
:10462000FF8E93170501C183A183B2452380F40057
:104630009307140093F7F70F850463F9B700CA973F
:1046400009042380A7001374F40F7DBF3E847DBF4F
:10465000C16717F5FF1F035505CAFD176304F5026F
:10466000411117F6FF1F0346A6DE9385818606C615
:10467000EF508015B240FD5717F7FF1F231DF7C6F7
:1046800041018280828009C925151375F50F133504
:10469000850E134515008280014582802390050018
:1046A000C9C6797122D426D24ECE52CC5AC806D66B
:1046B0004AD056CA5EC63684328AAE892A8B814475
:1046C00063F34407B307940083C7070013891400FA
:1046D0004209939A070193DA0A0113590901638485
:1046E0000A04CA976341FA04B307240183CB070085
:1046F0005E85513F0DC99387FAFF2390F9006390BF
:104700006B03130519002295B2502254925402599A
:10471000F249624AD24A424BB24B45618280D694FA
:10472000C204C18071BF0145C5B7014582804111F6
:1047300026C2AE8422C497F7FF1F23A5C7BC97F7F4
:10474000FF1F23AFB7BA97F7FF1F23A9A7BA2A8481
:1047500041469305F00F26854AC006C6054997C015
:10476000FF1FE780E0266310250597F7FF1F93875B
:1047700027B8884BC145513541469305F00F228536
:1047800097C0FF1FE780C024854463189502224428
:1047900097F7FF1F9387C7B5B24092440249C847B5
:1047A000C145410199BD41468145268597C0FF1FFE
:1047B000E7800022E31225FD4DBF41468145228559
:1047C00097C0FF1FE780C020E30395FCB24022445E
:1047D0009244024941018280411122C426C22E84A2
:1047E000AA8413060002814517F5FF1F130545B083
:1047F00006C697C0FF1FE780A01297F7FF1FA38A86
:1048000097AE97F7FF1F238787C4EF9020628547F5
:1048100019C181474945B240224417F7FF1F2309B8
:10482000F7AC924441018280814781CD19C9854707
:10483000631BF50083C7550093E707FCA382F500CF
:1048400085473E85828089476317F50083C75500F9
:1048500093F7F703E5B70D478547E314E5FE03C774
:1048600055001377F70313670704A382E500D1BF50
:1048700081478DC105C103C755009306000C8547CC
:104880001377070C6308D700930600048D47630372
:10489000D70089473E858280411122C4005D06C64B
:1048A00026C21DC8AA84085009C597D0FF1FE780FB
:1048B00020CA485009C597D0FF1FE78060C9085437
:1048C00009C597D0FF1FE780A0C8228597D0FF1F9A
:1048D000E78000C823AC0402B24022449244410164
:1048E000828009ED97F7FF1F83C7A7A017F5FF1F69
:1048F000130585A181CB13858184828017F5FF1F65
:10490000130585A0828017F5FF1F0345859E8280D1
:1049100097F7FF1F9387C79DC847828097F7FF1FB0
:104920009387079D884B828097F7FF1F9387479C4B
:10493000DC4B8843828097F7FF1F9387679BD84B98
:104940001C4385071CC317F5FF1F0345959A930762
:10495000F00F6305F50091656FE02FF8828001117B
:1049600022CC06CE2E8432C6EF5020199147B24594
:10497000631FF500938741869C438DC303A3070003
:10498000630E030022856244F2400561028393872F
:10499000C1859C4381C703A34700DDB7F240624451
:1049A000054505618280011122CC2A84035545000A
:1049B00006CE26CA4AC84EC6EF40507235C52A896F
:1049C000834405008349C500C13D4A85EF50004E30
:1049D00003554400EF50A00D83C70187B1CB639905
:1049E000970483C511872685EFF0DFA119E123889D
:1049F000018603554400EF5040109147631FF500B6
:104A00000357440097F7FF1F83D7E78E6317F7001C
:104A1000FD5717F7FF1F2310F78EF2406244D24470
:104A20004249B2490561828081499304F00F6DB714
:104A30009307F00FE38FF4FA8346640003564400B3
:104A4000034524004E87A685893665B779715EC611
:104A5000AA8B2E8552CC56CA5AC806D622D426D244
:104A60004AD04ECEAE8A328B368AEF4030677DC157
:104A7000045D2A89E5C09C50614599C31305400334
:104A80009C5481C751054205418163050A007105A7
:104A900042054181DC5081C75D0542054181EFE05F
:104AA000EF9C2A8445C96146814597C0FF1FE78076
:104AB00020E797F9FF1F83C9A988639409008349F8
:104AC0000900930700FD2300F400A947A300740127
:104AD0002301F400230364018C50231254011305B5
:104AE000840191C908C47146930A440397C0FF1F0B
:104AF000E780E0DB56858C5491C948C45146930A3F
:104B0000450197C0FF1FE78080DA5685630C0A00D5
:104B100008C87146D285930AC50197C0FF1FE78078
:104B200000D95685CC5099C548C85D4697C0FF1F2F
:104B3000E780E0D7A2854E85EFE0AFA22254B250C5
:104B40009254F249624AD24A424BB24B4A850259C8
:104B5000456199B3B250225492540259F249624AC3
:104B6000D24A424BB24B4561828001114EC6AA899E
:104B70002E854AC806CE22CC26CA2E89EF40105672
:104B800021C997E4FF1F83C4A47B99E083440500F7
:104B90001945EFE0AF8D2A8405CD8145194697C0B0
:104BA000FF1FE780E0D7930700FD2300F400B9471B
:104BB000A30034012301F40023122401A2856244DE
:104BC000F2404249B2492685D24405616FE06F99AF
:104BD000F2406244D2444249B2490561828039714F
:104BE0005ECEAA8B2E8526DA4ED652D456D25AD015
:104BF00006DE22DC4AD8AE84328BB68A3A8ABE8977
:104C000042C6EF40B04D21CD2A894145EFE00F86E5
:104C10002A8431C54146814597C0FF1FE78040D0B7
:104C200017E5FF1F0345C57119E103450900930707
:104C300000FD2300F400BD472301F400B247A300A8
:104C400074012312940023046401A3045401230576
:104C50004401A30534015CC4A285EFE08F90F250BB
:104C60006254D2544259B259225A925A025BF24BC0
:104C700021618280797126D2AA8439454AD04ECEEC
:104C800006D622D42EC6B2893689EFD03FFE21C186
:104C9000B2459307000D2310F500B1472A84231273
:104CA000B5002301F500CE851905194697C0FF1FF1
:104CB000E780E0BF23062401A2852254B2500259A6
:104CC000F24913F5F40F925445616FE08F89B250A9
:104CD000225492540259F2494561828017E7FF1F1E
:104CE000034737619307F00F630DF706411126C2A2
:104CF000AA84394522C406C64AC0EFD03FF72A84A9
:104D000039C9930700FD2300F500A3009500230196
:104D1000050097E5FF1F9385255F0D05194697C090
:104D2000FF1FE780C0B817E9FF1F1309695C8357AD
:104D30008900A28517E5FF1F0345B55B2315F40025
:104D4000834719002306F4002244B24092440249EA
:104D500041016FE00F81B240224492440249410177
:104D60008280828001115AC02A8B314526CA4EC6E4
:104D700052C456C206CE22CC4AC8AE84B28A368A03
:104D8000BA89EFD0BFEE35CD2A842685EF401035A5
:104D900011C50347C500A1476314F70417E9FF1FB6
:104DA00003493955930700FD2300F4009D47A300F4
:104DB00064012301F40023129400231354012314EB
:104DC000440123153401A2856244F240D244B24921
:104DD000224A924A024B4A85424905616FD07FF8C8
:104DE00017E9FF1F03491967E31E0BFA9387418EEA
:104DF0009C439C47C5DBCE865286D6852685829706
:104E000055B7F2406244D2444249B249224A924ADA
:104E1000024B05618280011122CC2A84214506CEF5
:104E20002EC6EFD0BFE421C1B245930700FD230099
:104E3000F500C5472301F50083C73500A301F50040
:104E400083D745002312F50083C765002303F500CF
:104E500083C77500AA85A303F50022856244F2404A
:104E600005616FD01FF0F2406244056182803971A4
:104E700062CC2A8C594526DA4AD84ED652D456D21C
:104E80005AD05ECE06DE22DCAE8432C636C4BA8B81
:104E90003E8BC28A468A8359010403494104EFD0FC
:104EA000FFDC25C93246930700FDA2462300F5002A
:104EB0009547A301C500A30085012301F5002A84BD
:104EC00019461105A9C2B68597C0FF1FE780209E2D
:104ED00023066401230A24012315740123175401B6
:104EE0002318440123193401A2856254F250425917
:104EF000B259225A925A025BF24B624C2685D25426
:104F000021616FD01FE6814597C0FF1FE78040A158
:104F1000C1B7F2506254D2544259B259225A925AED
:104F2000025BF24B624C2161828097E7FF1F83C7CF
:104F3000473C8DCB4111AA8519461385818406C64D
:104F400097C0FF1FE780A0969385818417E5FF1F18
:104F50000345253AEFF05F8DB2401385818441010E
:104F60006F80506D0145828017E7FF1F0347773838
:104F70009307F00F6305F708411126C2AA8429455B
:104F800022C406C6EFD09FCE2A8429C1930700FD14
:104F90002300F500A1472301F500A300950097E742
:104FA000FF1F9387E73483C727009385818411050A
:104FB000A30FF5FE194697C0FF1FE780408FA2851B
:104FC00017E5FF1F0345F532EFD0BFD917E7FF1FE5
:104FD000034727328D47631FF700938701869C4361
:104FE00091CB03A38700630703002244B24092449D
:104FF00041010283B240224492444101828017E77A
:10500000FF1F0347072F8D47631AF7009387018619
:105010009C4389C703A38700E31D03FC8280797149
:1050200022D406D626D24AD04ECE52CC094455CDF3
:105030002A89035505002E8A5144EF40300AAA847C
:105040004DC597E7FF1F83C7E740FD1793F7F70F9D
:1050500005474944637BF7080347C500A14763142C
:10506000F70063140A089C5C4544C1E3916593858D
:1050700045711305C00297C0FF1FE780403E88DCE2
:10508000AA894D443DC11306C002814597C0FF1F48
:10509000E78000898357090093864900368523916C
:1050A000F90071469305490036C697C0FF1FE78097
:1050B000008089472380F90003C5C400B246035627
:1050C0000900611597E5FF1F83C585381335150065
:1050D000EF5030242A8463060A00D2852685EF50DB
:1050E000C00C01C42685EFF02FFB2285B25022545C
:1050F00092540259F249624A4561828097E7FF1F44
:1051000083C74735FD1793F7F70F05476378F7080F
:10511000894751C6011122CC26CA4AC84EC652C47C
:1051200006CEAA89368AB2842E89EF40207B2A8453
:10513000D14729C9485509C597C0FF1FE78040419D
:10514000F1452685EFD0BFE348D4CD4705CD834652
:10515000C40021478147639FE600630D0A000347AF
:10516000A5010356050193062501AA854E85EF503A
:10517000800BAA8703474400630F09001367670089
:105180002302E400F2406244D2444249B249224A36
:105190003E850561828013674700DDB7C9473E85BC
:1051A00082809307000463EBA70097E7FF1F9387B4
:1051B000271606053E9503550500828041657D153D
:1051C0008280011122CC2A842E8526CA06CEAE8486
:1051D000EF40C0701DCDB7470F009387F7230945F7
:1051E00063E4870281450A85414697B0FF1FE78047
:1051F0002073A685231081000A8541802301810048
:10520000A3010100EF50807CF2406244D24405616A
:1052100082804945D5BF97E7FF1F238CA722828054
:105220006F505009797152CC2A8A328522D426D205
:105230004AD04ECE56CA5AC85EC606D662C4AE8B97
:10524000B28A368BBA843E89C2894684EF400069AF
:1052500015C92A8C63140A0213774B008347450053
:1052600015CF93E727012302FC008DEC631C090294
:10527000639A090205E8ED9B2302FC00832B8C0353
:10528000639F0B06B250225492540259F249624A6B
:10529000D24A424BB24B224C45618280F59B93E748
:1052A0000701D1B793E747002302FC0001CC1C485B
:1052B0004146A2852324FC0213058C0197B0FF1FF1
:1052C000E780E05E63910B02D5D80325CC0209C5C7
:1052D00097C0FF1FE780C027F1452685EFD03FCA62
:1052E0002326AC0261BFE30B09F80325CC0209C5F4
:1052F00097C0FF1FE780C025F1454A85C5B79DC40B
:1053000083A70B0299EB916593853571714597C021
:10531000FF1FE780C01423A0AB0203A50B0219C531
:105320007146A68597B0FF1FE78060586388090221
:1053300083A74B0299EB9165938525715D4597C0D5
:10534000FF1FE780C01123A2AB0203A54B0219C5C2
:105350005D46CE8597B0FF1FE78060551DC483A7CB
:105360008B0299EB916593851571514597C0FF1F8D
:10537000E780E00E23A4AB0203A58B0219C55146BA
:10538000A28597B0FF1FE78080522254B2509254FA
:10539000F249B24B224CCA865A860259424BD685F4
:1053A0005285D24A624A45616FF04FEA011126CA1E
:1053B00052C406CE22CC4AC84EC62A8AAE84EF40DA
:1053C000E05125C5AA893945EFD05F8A2A8431CDBD
:1053D00017E9FF1F0349C9F66314090003C909004F
:1053E0009307000D2310F400AD472301F4009385CB
:1053F000690013053400194697B0FF1FE780204B62
:1054000093F71400858085882306F400A306940092
:1054100023154401A2856244F240D244B249224A93
:105420004A85424905616FD0DF93F2406244D2441D
:105430004249B249224A0561828001114EC652C4D6
:1054400056C206CE22CC26CA4AC8AA8A2E8AB28959
:10545000EF40C0482DCD2A891305C002EFD01F812F
:105460002A8435C597E4FF1F83C484ED99E0834403
:1054700009009307000D2310F400E9472301F4000D
:105480009305690013053400194697B0FF1FE780A4
:105490000042D285231554011305C400414697B03C
:1054A000FF1FE780C040CE851305C401414697B079
:1054B000FF1FE780C03FA2856244F2404249B249E3
:1054C000224A924A2685D24405616FD09F89F240D4
:1054D0006244D2444249B249224A924A05618280DA
:1054E00093870185884301CD411106C697C0FF1FF0
:1054F000E7800006B24023A80184410182808280B7
:10550000011106CE22CC26CA4AC82EC6EF40003D65
:1055100039CDB24517E9FF1F034989E2AA840CD5AA
:1055200063140900034905004145EFD02FF42A8494
:105530001DCD9307000D2310F500A5472301F500AD
:1055400083C75400938564001105A30FF5FE194627
:1055500097B0FF1FE780A0359C54A285F2405CC441
:105560006244D2444A85424905616FD08FFFF240C0
:105570006244D244424905618280797122D406D6C0
:105580002A842EC6EF40803501CDB2452285230EF8
:10559000B1006C08EF40F03DB2502254456182806A
:1055A0005145DDBF6F40204AC1671387E7FF639411
:1055B000E5029387C1859C4391EB4945828049452B
:1055C000B2402244924402494101828003A3070071
:1055D000E30503FE0283411122C426C24AC006C667
:1055E000FD172A892E84B2846395F5029387C185BD
:1055F0009C4391CB9C4381CB829711E523882187E3
:10560000A388918675BFA6854A85EFE0BFDF4DF977
:10561000F5B72E85EF40802C5DD1834705000D4501
:10562000E39027FB22852244B2400249A68592449A
:1056300041016F80A07D9307000463E2A70641113A
:10564000C16722C406C626C2FD172A8409456382A3
:10565000F502C547AE846313F4022E85EF80100275
:1056600017E5FF1F1305C5CA06042A9423109400EA
:105670000145B24022449244410182809307A00335
:105680006316F4002E85EF80E078D9BF9307B0034E
:10569000E318F4FC13F5F50FEF800078D1B7094556
:1056A0008280411106C622C42A84EFE0DFD7EF20B2
:1056B0004014EF10A06FEF10511A814517E5FF1F3E
:1056C000130505C31306000297B0FF1FE7804025AE
:1056D00097E7FF1F9387C7C1130700F02391E700E7
:1056E000238207007D5797E7FF1F938767D62381A3
:1056F000E7002380870022852244B240954541017E
:105700006F207030597193970501CAD086D6A2D404
:10571000A6D2CECED2CCD6CADAC8DEC6E2C4E6C2A3
:10572000EAC06EDEC1872E8963D1075A17E5FF1FD5
:10573000034505D2EFD08FDA8964416A856A797BA7
:105740002A84938BD4007D1AA50A130CABFF1DE0AD
:1057500021653345A900B650265496540659F6499A
:10576000664AD64A464BB64B264C964C064DF25DE1
:1057700065618280834704001307200A639DE70068
:105780000355240097E9FF1F83C9B9B62286D28545
:10579000EFF0EF9C59A21307100997E9FF1F83C987
:1057A00049CB6398E7188347140015476390E702D5
:1057B0002285EFF04F9F2285EFD02FC617E5FF1F00
:1057C000034505C9EFD08FD12A8451B73947639B70
:1057D000E71803554400631B55050C4483CC0500B2
:1057E000639D0C00850591C9194617E5FF1F130538
:1057F000A5B197B0FF1FE780800B17E7FF1F034796
:1058000027AF85476317F712638A0C0097E7FF1FDE
:10581000238007AE6685EFF06FCC71BF894717E72D
:10582000FF1F2307F7ACEF80A06071B793872400B8
:10583000631AF506832C8400638D0C0E83C70C005D
:105840008DE383C72C0003C71C00A207D98F17E77D
:10585000FF1F2313F7AA83C73C0017E7FF1FA30905
:10586000F7A817E7FF1F0347A7A889476313F70C9B
:1058700083C70C0081CB97E7FF1F238B07A603C5C7
:105880000C0051BF8D4797E5FF1F83C575A617E52F
:10589000FF1F035565A617E7FF1F230BF7A4EF2093
:1058A0009019F1BF938754006318F5001C4403C599
:1058B0000700EFF06FEB01B7B3078501C207C183A3
:1058C00011476372F7049307ABFCAA97139707017C
:1058D0004183F14763F1E7029387B4006312F50453
:1058E000938781859C43E38807EC9C43A285E384EE
:1058F00007EC82971DA0B70700189387F770B3D7FE
:10590000E700858BB9CB938701869C43E38507EA43
:105910009C43E38207EA22858297E31E05E811A8EB
:105920009387C4006310F5021C4483C70700E38417
:1059300007E89307F00FE380F9E8A2854E85EFD0E2
:105940004FC2ADBD9387E4006319F5009387C1850D
:105950009C43E38207E6DC4351BF93871404E301D1
:10596000F5F8C1BF3D476397E70403554400E30FD3
:1059700075FD93879401E30BF5FC93873401E31ADB
:10598000F5FA97E7FF1F83D70797639E4701938731
:10599000C1859C43E38107E2DC43E38E07E0A285F7
:1059A00013853401B9B7938741869C43E38507E0AB
:1059B0009C43E5B71307E003E39DE7F68347240024
:1059C00005476397E70E83476400938D0185F1E3F4
:1059D00083A70D00D5CB83CC0700A14903457400F4
:1059E000130D8400EA85EFE0BFE883474401A30379
:1059F000A400835804010358E400035744002A8696
:105A0000034534003EC283572401EA86E6853EC042
:105A1000CE87EFF0CFC58347340095E7DD47835845
:105A200004010358E40083467400835544003EC2D9
:105A3000835724016A8705463EC06685CE87EF40BE
:105A4000601EA301A40083A70D0081C71145EFF0DC
:105A50003FA903C50187E30005D683C51187EFE0A1
:105A60007F9AE30A05D48346340093071003638AC0
:105A7000F600035644004E8783C501873685EFE064
:105A8000DFB02388018605BB97ECFF1F83CC7C86A3
:105A9000A9B7938701869C4397ECFF1F83CC7C8535
:105AA00091498DDFDC439DDB8145014582973DB700
:105AB00029476391E70C83476400138D0185C1E793
:105AC00083270D00A5CF83CC0700A14903457400AF
:105AD0009306840093772500D1C713761500930DA4
