:100000006F00A03A0000000032010000340100003F
:1000100000000000000000000000000000000000E0
:1000200000000000000000000000000000000000D0
:10003000A803000000000000A8030000000000006A
:10004000A8030000A8030000A8030000A803000004
:10005000A8030000A8030000A8030000A8030000F4
:10006000A8030000A8030000A8030000A8030000E4
:10007000A8030000A8030000A8030000A8030000D4
:10008000A8030000A8030000A8030000A8030000C4
:10009000A8030000A8030000A8030000000000005F
:1000A000511126C022C206C4828282441244A24058
:1000B00031018280634E050263C305042E86AA8542
:1000C0007D5515C285466378B6006356C0000606A6
:1000D0008606E36CB6FE014563E4C500918D558D3F
:1000E00085820582F5FA82808682C93F2E858282CA
:1000F0003305A04063D70500B305B040C1B7B305D1
:10010000B0408682653F3305A0408282868263C705
:100110000500634905005D372E858282B305B04036
:10012000E35B05FE3305A040513F3305B0408282BA
:10013000000001A0B707EFBE37E700E0938707088C
:100140003CC701A0EFF2DFF51165111185451305DC
:10015000050202C002C202C402C602C802CA02CC20
:100160009921930700027C80371401408D473EC2DD
:100170008A85E147130504403EC4F12C930700042F
:100180007C808A859147130504403EC4E924F167C9
:1001900037440140938707203EC66C00B7070C0028
:1001A000130504803ECA02C8231C0100212985458D
:1001B00013050480C1297101CDBDEFF27FEE054525
:1001C000092EB7040020B92AF521AD3F374401407C
:1001D000930704803E8593050002C129B74701407B
:1001E0009387078065D9130504806529374401404A
:1001F000238CA402130704803A8593050008752117
:10020000B747014013870780B7070020938787030C
:1002100065D58C231305048049214DBFEFF25FE8BB
:10022000371402401C403707FFF8611193E71700AD
:100230001CC05C404145F98F5CC01C403707F7FE8D
:100240007D17F98F1CC01C403707FCFF7D17F98F05
:100250001CC05C4041777D17F98F5CC0B7079F00D9
:100260001CC4AD2C1C4C3706020093E707021CCCC3
:10027000B717014003A70740938607401377F7F0AD
:1002800023A0E74003A707401367070823A0E74020
:1002900089479CCA02C002C21C4C37070140A166B4
:1002A00093E717001CCC5C43D58F5CC31C404167AF
:1002B000B7160240D98F1CC009679C42F18F3EC21D
:1002C000824785073EC0924781E78247E397E7FE72
:1002D000B71702409C431397E70063530704854711
:1002E0003EC212478547631BF702B7270240984377
:1002F000B7160240719B98C3984398C3B717024042
:10030000D843D8C3D843719BD8C3D84313671700C9
:10031000D8C31147DC42B18BE39EE7FE210171B3E4
:1003200002C2C1B7EFF2DFD7371702405C43370490
:1003300000209146B18B130404016383D704A146C6
:100340006385D704B7376E01938707601CC0B71663
:100350000240DC420840918313F7F700B707002002
:1003600093870700BA978C23DC4293F5F50F93F738
:1003700007083357B50099E391332A8718C035B37E
:10038000B7177A0093870720D1B75C431397F7001C
:1003900063470700B777DC02938707C045BFB727DD
:1003A000F400938707405DB701A097010020938177
:1003B000E148138181FC1305000A9705002093850D
:1003C00065C4170600201306E6C363FAC50083223E
:1003D000050023A0550011059105E3EAC5FE1305AC
:1003E000406E970500209385E5C11706002013068F
:1003F000E6C463FAC5008322050023A05500110559
:100400009105E3EAC5FE17050020130525C3938572
:10041000C1806377B500232005001105E36DB5FEAB
:10042000B722000093820288739002308D4273904D
:100430004280970200009382E2BC93E23200739004
:100440005230EFF0BFDD97020000938242D77390E5
:10045000123473002030944593F7060193F2F600AE
:1004600081C7DC41B3E2F20083D3050093F7F30FB9
:10047000A5C303230500611122C226C081471304CE
:1004800080029304800405473316F70033F7C30056
:100490006312E602939527003D473317B7001347D1
:1004A000F7FF33736700B395B20033E36500639DD4
:1004B000860050C985072147E397E7FC12442320B3
:1004C0006500824421018280E39696FE10C9DDB763
:1004D0008280B707002023AEA70282803717024030
:1004E0001C430E0593F777F05D8D08C38280EFF211
:1004F0003FBB371702405C4391462A84B18B63802F
:10050000D708A1466382D708B7376E019387076083
:100510001CC0B7160240DC42918313F7F700B707FF
:10052000002093878702BA978C23DC42184093F50A
:10053000F50F93F707083355B70099E33A85BD3EA9
:1005400048C008C448C4B7170240DC438D46AD8399
:10055000FD8B13D737008A07F18BD98F13F637013C
:1005600013F7370063F4C600138747FFB70700206F
:1005700093874701BA978C23913608C83DB6B717C1
:100580007A009387072069B75C431397F7006347A6
:100590000700B777DC02938707C09DBFB727F40039
:1005A00093870740B5B799C5371702401C4F5D8D3B
:1005B00008CF8280B7170240984F1345F5FF798D19
:1005C00088CF8280EFF2DFAD1629F577FD17F58F22
:1005D000F621DA252111D58F1EA95625FD7793879F
:1005E000379FF58FD6212A842EC0D58F9625D58F9B
:1005F000B625D58F5EA55E29C207C18393F7F7CFD5
:100600005D8F5AA94800E535B747014093870780B9
:100610008245631DF404C2475A24139517003E9582
:1006200042070E0541873E958C41635307048605BA
:100630007134930540062AC0513482479314450013
:10064000930540063E854D345E24C207C18763D3BF
:1006500007020E05930540061305250385341D8901
:10066000C98CC204C18006A4610181B4B2476DB7D0
:100670008A057DBF120593054006130525033D3C01
:100680003D89F9BF91C55E250967D98F5EA5828036
:100690005A25F977FD17F98FD5BF93F5F51F4EA1B0
:1006A00082804A211375F51F82800A216D8D3335B2
:1006B000A0008280EFF2DF9EB707002003A50701AC
:1006C000B7157A0093850520D53A1375F50F238564
:1006D000A18093175500898F8A073E950E052394B4
:0406E000A180E1B262
:1006E40001020304050607080102030405060708BE
:1006F40000127A000204060804080C1008101820DE
:1007040010203040204060800102030405060708E1
:080714000102030405060708B9
:00000001FF
