:081000006F00500C20520000AB
:10100800000000000000000090200020C222002004
:10101800A9BDF9F5782300200000000000000000B9
:10102800782300209020002000000000000000002D
:101038009020002000000000902000200000000008
:101048009020002090200020902000209020002058
:101058009020002030280020902000200000000070
:101068009020002090200020902000209020002038
:10107800DE230020902000209020002090200020D7
:101088009020002090200020902000209020002018
:1010980001A04111B7170040985F3AC6945F3247E4
:1010A800E39CE6FE324541018280B7F70700011153
:1010B800944B13078008F337078093F787083EC2DD
:1010C8000F100000B71700401308700523800705AC
:1010D800930580FA2380B7040F10000003C6B704F5
:1010E8001376F60DA385C7042380070412467326DA
:1010F80006800F1000001376050255CEF3360780E0
:1011080093F6860836C40F10000023800705238055
:10111800B7040F100000B70614007D89558D88C7E5
:10112800010001000100010023800704A246F3A684
:1011380006800F10000073370780137787083AC6B8
:101148000F100000238007052380B7040F1000004C
:101158000F1000003727004093061005A303D7801F
:1011680023800704B247F3A707800F1000009307F6
:101178008008F3B7078093F787083ECE0F1000006A
:10118800B7170040130770052380E704130780FA98
:101198002380E7040F10000003C7B704136707088C
:1011A800A385E70423800704F247F3A707800F10FD
:1011B8000000056182801376050459C273360780E2
:1011C8001376860832C80F10000023800705238095
:1011D800B7040F10000037061400130606047D89B3
:1011E800518D88C701000100010001002380070418
:1011F8004246732606800F10000073370780137766
:1012080087083ACA0F100000238007052380B70417
:101218000F100000A54793F6F60F639EF600B72758
:10122800004013073005A383E780B71700402380E9
:101238000704D2470DBFB727004013072005E5B7BD
:1012480073370780137787083ACC0F100000238084
:1012580007052380B7040F10000098471367070C91
:1012680098C723800704E247FDBD01118146014666
:101278008145114506CEB92493078008F3B7078046
:1012880093F787083EC60F100000B71700401307F2
:1012980070052380E704130780FA2380E7040F1002
:1012A800000003C76704136717002383E70423803C
:1012B8000704B247F3A707800F100000F24005614A
:1012C800828041118146014681451145E52A13076F
:1012D8008008F337078093F787083EC40F10000093
:1012E800B7170040130670052380C704930680FAD9
:1012F8002380D7040F100000FD552396B7022380E2
:101308000704A245F3A505800F1000007337078076
:10131800137787083AC60F1000002380C70423807C
:10132800D7040F10000003C767041367170023834F
:10133800E70423800704B247F3A707800F100000D3
:1013480001A0BD473305F50201007D1575FD8280BA
:10135800411122C426C206C6AA8401446317940018
:10136800B240224492444101828005041305803E24
:101378004204C13F4180DDB79305000273A0458058
:1013880082457390153492402242B2424243D2437E
:101398006244F244025592552256B2564257D257E9
:1013A8006258F25806499649264AB64A464BD64BE1
:1013B800664CF64C065D965D265EB65E465FD65F69
:1013C8000961730020304111B7170040985F3AC691
:1013D800945F3247E39CE6FE324541018280B717AD
:1013E8000040130700032388E7028547171700000A
:1013F800232AF78873002030411122C406C6370417
:1014080000201C408297F5BF23030480154723035F
:10141800E48001002302A480828083076480E3CEF5
:1014280007FE23030480828083076480E3CE07FEDF
:1014380003454480828083076480E3CE07FE23024D
:10144800A4808280411126C44AC24EC006C61377C2
:10145800F50BAD47AA892E8995446306F70019450F
:101468006537653F8D444E854537FD59FD146398B2
:101478003401B240A2441249824941018280135585
:1014880009011375F50F453F2209CDB7011126CC87
:1014980006CEB704080051371545BD37713769378F
:1014A8002AC6A53F32459377150089EB13651500C9
:1014B8001375F50FF240E24405618280FD14E9FCE2
:1014C8000145CDBF397126DC4ADA4ED852D656D4FA
:1014D8005AD25ED006DE62CE66CCB7E700E07D5712
:1014E80083AA070022C603AA470023A0E71823A25D
:1014F800E718B7170040130770052380E7041307A0
:1015080080FA2380E70483C74704930B75FFB684EA
:10151800E20793FBFB0F8546AA892E8B3289372475
:101528000040E187015763FA76016308D5008946D0
:10153800130700026313D5000157D98F93F7F70FEC
:10154800B71C00402382FC0411472303E4801305E1
:10155800F00F5D3D094CD135636D7C11B70507006F
:10156800DA9537870700795563F2E504B387950064
:10157800636EF702370B0800A94733EB65016399DF
:10158800F90689E48144513D26850DA0DA8509458F
:10159800553D05090345F9FFFD14050B693D81C457
:1015A8009377FB0FFDF7DD3569FD7D55B7170040D3
:1015B800130770052380E704130780FA2380E704E4
:1015C80003C74704418B2382E704F250B7E700E0E2
:1015D80023A0571123A24711E25432445259C25949
:1015E800325AA25A125B825B724CE24C21618280B1
:1015F800A5476395F90685691309F00FB3069900A5
:10160800B3742B01B6941349F9FFB3749900856B31
:1016180033796901416B9387F9FFB3F7270199E3A0
:1016280063FC340193D94900C147E3E637FF99BF0A
:101638000569C1697D19D9B71305800D63886901EA
:10164800130500026384790113051008CA85DD3B80
:10165800353D21DD4E99B3843441D9B7DA852D451E
:10166800D533CA94E30099F205097D3BA30FA9FE7F
:10167800D5BF9387F9FF93F7F70F6361FC0C83C716
:101688001C0413073008631FF70437070800636B4F
:10169800EB04B3079B00B706100063F5D704334B80
:1016A800EB0089476393F9068980D549E38C04ECFC
:1016B800DA850945413B11090327C9FF91472320D2
:1016C800E48003076480E34E07FE23033481FD179B
:1016D800EDFBFD14110B81C49377FB0FE9FF7D33FC
:1016E80071F5E1B5B717004003C75704B7070800FD
:1016F8001377070219E3B78707007955E378FBEA00
:1017080033079B00E3FFE7F855B58547E382F9F215
:10171800DA852D45053B9389F4FFE38504E62933F3
:1017280093F7390091EB8326048003270900930778
:101738004900E39AE6E43E89CE84F1BFB547639653
:10174800F9001305900BC93135BDB1471305B00A2F
:10175800E38BF9FE99476391F904B7050800B3656F
:10176800BB002D45C53181448D4BA1497539639620
:101778007401832704802320F9008504E39834FF4B
:101788008327048013172B01635507002312F900E0
:10179800D5BB2322F900FDB39D476399F902814522
:1017A8001305B0044531BD44232009002322090054
:1017B800FD599D3993F77400CA9703C70700FD14B4
:1017C800398D2380A700E39634FF6DBBA147639250
:1017D800F9046D398144630D0B008D479304C003F0
:1017E8006308FB009304000563048B019304400421
:1017F8001375C507E30895D81945393139390545B1
:10180800213126850D3909453D314931E31C05D67D
:1018180069BB91476399F90013056006F536F53EF3
:10182800130590090DB7E38F09D4F154A9BB000043
:10183800197106C212C416C61AC81ECA22CC26CEF0
:101848002AD02ED232D436D63AD83EDA42DC46DE18
:10185800CAC0CEC2D2C4D6C6DAC8DECAE2CCE6CE88
:10186800EAD0EED2F2D4F6D6FAD8FEDA970500001E
:101878009385C5408841E700050092402242B24264
:101888004243D2436244F244025592552256B2561C
:101898004257D2576258F25806499649264AB64ADC
:1018A800464BD64B664CF64C065D965D265EB65E9C
:0C18B800465FD65F09617300203000001D
:1018C400970100209381C17317510020130141F344
:1018D40017F5FFFF1305457397050020938545729F
:1018E40017160020130686FD63FAC500832205003F
:1018F40023A0550011059105E3EAC5FE1745000034
:101904001305859297150020938545FB1716002033
:101914001306063463FAC5008322050023A055008C
:1019240011059105E3EAC5FE17150020130545329C
:1019340097350020938585B86377B500232005008B
:101944001105E36DB5FEFD42739002BC8D427390A8
:101954004280B722000093828288739002309702FB
:1019640000209382E26993E232007390523097220E
:101974000000938262D7739012346FE02068730082
:1019840020303D432A876373C3029377F700BDEF8A
:10199400ADE5937606FF3D8ABA960CC34CC30CC7DB
:1019A4004CC74107E36BD7FE11E28280B306C34004
:1019B4008A069702000096966780A6002307B70060
:1019C400A306B7002306B700A305B7002305B70095
:1019D400A304B7002304B700A303B7002303B7008D
:1019E400A302B7002302B700A301B7002301B70085
:1019F400A300B7002300B700828093F5F50F9396F8
:101A04008500D58D93960501D58D61B793962700F2
:101A14009702000096968682E78086FA9680C11720
:101A24001D8F3E96E374C3F8A5B7B717004003C7EC
:101A340077051377E70FA38BE704130700F8A38D4B
:101A4400E7043D47238CE70413075003A38CE70402
:101A540003C7A7051377D70F238DE7048280B71731
:101A6400004003C7E7020D8941111377C70F498F5F
:101A740093068008F3B6068093F6860836C60F10E0
:101A84000000930670052380D704930680FA238010
:101A9400D7040F1000002387E70223800704B2470E
:101AA400F3A707800F1000004101828041112A83AF
:101AB400014E930E407E130F0019930F400663E509
:101AC4006E129308001913034006B3781503854E6C
:101AD4000D4FA14F337365020D891335150063EF64
:101AE400BE121308F6FF794672984208135808018B
:101AF4003307C70213D61700BE0732976146B3F601
:101B0400C60213068070B386C6023697A166F58FA7
:101B140042075D8FB716004083C7F60293F70708A4
:101B2400A303F1000346710083C7F60293F7070885
:101B3400E394C7FE83477100B716004093F7F70F8D
:101B44006388071293078008F3B7078093F7870821
:101B54003EC40F100000B7170040930670052380A1
:101B6400D704930680FA2380D7040F10000023AA19
:101B7400070383C6170393E60608A388D7022380C6
:101B84000704A247F3A707800F1000001166B717D8
:101B940000407D16D45BC85F93854703A98EF18E00
:101BA400F5FA93068008F3B6068093F6860836C6DF
:101BB4000F100000930670052380D704930680FA63
:101BC4002380D7040F10000098C103C717031367BD
:101BD4000704A388E70223800704B247F3A707801A
:101BE4000F100000410182807D133368E3039308E2
:101BF400E016630E08003368F3039308D0166308F5
:101C040008009378330093B818009388D8163308E3
:101C14001E01131E0801135E0E0155B56393E503FF
:101C24000548638608000148630303002A88710895
:101C34007298FD15131E0801C205135E0E01C181C1
:101C440079BD13F8150063F4BF007908D5B71338CC
:101C54001800E5BF83C7F60293F70708A303F10052
:101C64000346710083C7F60293F70708E394C7FE9F
:101C74008347710093F7F70FF1DFE9B531714AD962
:101C840066CB06DF22DD26DB4ED752D556D35AD19A
:101C94005ECF62CD6AC96EC7AA8C02D8EF0010125B
:101CA4002A8993078008F3B7078093F787083EDAF9
:101CB4000F100000B7170040130770052380E704D6
:101CC400130780FA2380E7040F10000003C7F7020C
:101CD4001377770FA387E70203C7F7021367870019
:101CE400A387E70223800704D257F3A707800F10C6
:101CF40000000545AD33130780C13347E902116A7B
:101D040093070AE893065002BD69930BA004814A25
:101D1400014B13048008930470057D1AB347F9023C
:101D24003307D7023EC0FD873ECC938709A69309AB
:101D3400803E3347F7023AC27D873AC433473903BA
:101D44008549B399990193D93940B306D702B30BA6
:101D54007703B3C6F602B3CBFB0236C6FD8636C89C
:101D640093D6FB4136CEB7460F00938606243349FB
:101D7400D9028566938606FAB3969601B389E90279
:101D8400130780523309D90293060010B389E9027C
:101D94003349D902B3C9F9029316390036CA37193F
:101DA4000040FD8636D0930D090493D7F9413ED205
:101DB400F336048093F6860836DC0F100000930790
:101DC40070052380FD00930680FA2380DD000F1048
:101DD40000008346390593F6860FA309D904834688
:101DE400390593E61600A309D90423800D00E256B1
:101DF400F3A606800F100000130C80FA116DF33661
:101E0400048093F6860836DE0F10000093077005F1
:101E14002380FD0023808D010F10000083463905C7
:101E2400216693E60602A309D90483560905B3E69D
:101E3400A6012318D90483560905D18E2318D90481
:101E440023800D00F256F3A606800F10000083468F
:101E5400390593F606026389061803463905218A73
:101E64006DDE0818612F7336048013768608B2C2BB
:101E74000F10000023809D0023808D010F100000AF
:101E8400B717004003C637051376F60DA389C704B8
:101E940003C6370513660602A389C70483560905DA
:101EA4002166B3E6A6012318D90483560905D18E09
:101EB4002318D90423800D009646F3A606800F103C
:101EC40000008346390593F60602638606148346AA
:101ED4003905A18AEDFE97000020E780801BAA86C1
:101EE40036D497000020E780C01AA256E30AD5FE34
:101EF400835609054255B3E6A6012318D904392FA0
:101F040083463905A18AEDDE035609058346290572
:101F140082473376CA00B306DA0293D5F641B29605
:101F2400B388F640E24733B8C6002E983308F84029
:101F3400A247B3B616013308D84063C70701631D2F
:101F4400F800924763FA1701C247634DF80E639590
:101F54000701B24763E8F80E894663E7660FF24665
:101F64009315180013D3F8015E8613951800B36512
:101F7400B30042D646D4EF10C07B3258050B137B16
:101F8400FB0F6347000163120838A258638F0836B9
:101F940013081500B336A800B69513D6F501329888
:101FA400B336C800AE9613581800FE06B3E6060111
:101FB4007336048013768608B2C60F10000023809F
:101FC4009D0023808D010F1000000356C902B296B4
:101FD400C206C1822316D90223800D00B646F3A699
:101FE40006800F10000021BDF336048093F68608A6
:101FF400B6C00F10000023809D0023808D010F10B8
:1020040000008346390593E60602A309D904238018
:102014000D0086460DBDF336048093F68608B6C4DB
:102024000F10000023809D0023808D010F100000FD
:102034008346390593E60602A309D90423800D00DB
:10204400A646A5BDE30D0BF0F336048093F686088F
:10205400B6C80F100000930680FA23809D002380E9
:10206400DD000F1000008346390593F5FC0F93F64D
:10207400860FA309D90483463905CD8EA309D90453
:1020840023800D00C646F3A606800F10000013053A
:1020940080FA03463905930639051D8A6314962987
:1020A4007336048013768608B2CC0F100000130632
:1020B40080FA23809D002380CD000F10000003C60A
:1020C40006001376F60D2380C60003C606001366C9
:1020D40006022380C600835609051166D18E231893
:1020E400D904835609052166D18E2318D904238087
:1020F4000D00E646F3A606800F100000130680FAD2
:102104008346390593F60602638806248346390517
:10211400130C3905A18AFDDA0818CD21F3360480A1
:1021240093F68608B6D00F100000930680FA238039
:102134009D002380DD000F10000083460C00116613
:1021440093F6F60D2300DC0083460C0093E60602AA
:102154002300DC0083560905D18E2318D904835645
:1021640009052166D18E2318D90423800D008656D3
:10217400F3A606800F100000130680FA8346390583
:1021840093F606026385062083463905A18AEDFE8F
:1021940097000020E780E0EF2A8C97000020E7807A
:1021A40040EFE30C85FF8356090511664255D18E35
:1021B4002318D904A5218346390513063905A18AB4
:1021C400FDDAF336048093F68608B6D40F100000C7
:1021D400930680FA23809D002380DD000F10000009
:1021E4008346060093F6F60D2300D60023800D00E7
:1021F400A656F3A606800F10000083560905034671
:102204002905D247B376DA003306CA021305800CD7
:102214009355F6413696330DF6408257333CD6003B
:102224002E9C3336A601330CFC40330CCC403308CF
:10223400850392564E86B335A5033305A503C2958F
:10224400EF10204F63468001631E0C16630C0D16BD
:10225400130615003335A6002E959356F5013696D0
:10226400B335D600AA959396F50105828585D18E5E
:102274006346B000639D051A638B061A0356C902B0
:1022840015823305D6003336C500B2956348B000D5
:10229400639105241306F00F637DA622894663F338
:1022A400561593078008F3B7078093F78708BED6BF
:1022B4000F10000037170040930770052300F70440
:1022C400930780FA2300F7040F1000008356C70217
:1022D40089678117D58FC207C1832316F7022300AC
:1022E4000704B657F3A707800F100000FA506A548A
:1022F400DA544A59BA592A5A9A5A0A5BFA4B6A4C1E
:10230400DA4C4A4DBA4D296182801308F5FF333502
:10231400A800FD152E951356F5013298B336C80062
:10232400AA9651B1F336048093F68608B6CA0F1004
:10233400000023809D002380AD000F100000834621
:102344003905CD8EA309D90423800D00D646F3A602
:1023540006800F10000035BBF336048093F6860820
:10236400B6CE0F10000023809D002380CD000F10F7
:1023740000008346390593E60602A309D9042380A5
:102384000D00F646F3A606800F10000095BBF33649
:10239400048093F68608B6D20F10000023809D00B7
:1023A4002380CD000F1000008346390593E6060212
:1023B400A309D90423800D009656F3A606800F10B6
:1023C40000006DBB9306F5FF33B5A600FD152E95F1
:1023D4009355F501AE96B3B5B600AA951396F501DB
:1023E400858269B5F336048093F68608B6D80F1053
:1023F4000000930680FA23809D002380DD000F10E7
:1024040000008356C9020566011693F6F60FD18EB5
:10241400C206C1822316D90223800D00C656F3A634
:1024240006800F100000850A93FAFA0F51B233E6C2
:10243400B60045C20356C9023305D0403338A00064
:10244400B305B040B385054115826345B000D1E1C1
:102454006371A608894663F0560593078008F3B7AD
:10246400078093F78708BEDA0F100000B717004003
:10247400130770052380E704130780FA2380E70419
:102484000F10000003D7C7027D8B2396E702238039
:102494000704D65781BDF336048093F68608B6DC6C
:1024A4000F100000930680FA23809D002380DD0036
:1024B4000F1000008356C9020566011693F6F60F45
:1024C400D18EC206C1822316D90223800D00E6569E
:1024D400B9B793078008F3B7078093F78708BEDE80
:1024E4000F10000037170040930770052300F7040E
:1024F400930780FA2300F7040F1000000356C70265
:1025040093975600B297C207C1832316F70223009C
:102514000704F657C1BB914763EEB70217370000B3
:10252400130787888A05BA959C41BA978287B7179B
:10253400004003A7470B1345F5FF698F23AAE70A59
:1025440003A7070B698F23A8E70A03A7070A798D56
:1025540023A0A70A8280B717004083A6470B13471E
:10256400F5FFF98E23AAD70A83A6070B558D23A856
:10257400A70A83A6070A758F23A0E70A8280B717E4
:10258400004003A7470B498F23AAE70A03A7070BB9
:102594001345F5FF45BFB717004083A6470B134704
:1025A400F5FF758F23AAE70A03A7070A598D4DB7CC
:1025B400B717004003A7470B498FEDB7B717004083
:1025C4008847420541819377050491EB9377F501A0
:1025D4003755E801130505803345F502828093776A
:1025E400050C130700046397E7009377F50137455B
:1025F4009C1CCDB72165130505D0828037E700E028
:102604001C435443A183E206D58F1CC1FD572320EC
:10261400F7182322F7180F10000082801317850083
:10262400B7E700E023A0E710618123A2A71082800E
:10263400B7F700E08847CC478280814737370040AE
:10264400A14663C4C700328582800345B740E38E48
:10265400A6FE3385F5000345050085072304A7403E
:10266400CDB7970700209387275B9C43172700204B
:102674001307C7E43E95636EE50017470020130770
:1026840027F86368A700170700202327A7583E856B
:102694008280FD57EDBF411122C406C62A84393F0A
:1026A4002947B307E502B2408D83B3D7870222449A
:1026B4009507B3D7E70237370040C207C183231613
:1026C400F74041018280716541111305052006C65A
:1026D400D937B7370040130770F82381E7400D4717
:1026E400A381E74013070004A380E740054723873D
:1026F400E740B24041018280CC41411106C6328597
:1027040003C6150083C5050022064D8E42068D655D
:102714004186138875A263070611634AC8041388A7
:1027240045A2630D060B634AC800938535A2630F67
:10273400B60623900600294671A8138855A26301A2
:10274400060D938565A2E316B6FEC1451D4663E3F7
:10275400E5084546198E63F3C7003E86C16723909A
:10276400C600FC4797250000938545668DA0138815
:1027740095A2630D060F6349060D1388A5A263098C
:102784000611938505A5E316B6FA99451D4663E33C
:10279400E504198E63F3C7003E86C1672390C60023
:1027A400FC47970500209385E54715A09D451D46E8
:1027B40063E2E5022146198E63F3C7003E86C167D2
:1027C400FC472390C6009705002093856548BA9579
:1027D40082970146B240328541018280AD451D4653
:1027E400E3EAE5FE3146198E63F3C7003E86C1670E
:1027F4002390C600FC47972500009385E560C1BF80
:10280400B1451D46E3E8E5FC3546198E63F3C70080
:102814003E86C1672390C600FC4797250000938538
:10282400A55F75B7C1451D46E3E6E5FA4546198E31
:1028340063F3C7003E86C1672390C600FC47972513
:1028440000009385E55961B7C1451D46E3E4E5F809
:102854004546198E63F3C7003E86C1672390C600C0
:10286400FC47972500009385255C95B7C1451D4617
:10287400E3E2E5F64546198E63F3C7003E86C16779
:102884002390C600FC47972500009385A55681B781
:10289400B5451D46E3E0E5F43946198E63F3C700F8
:1028A4003E86C1672390C600FC47972500009385A8
:1028B400E55031BFC16703A3071397060020938631
:1028C400E6124146CD4517050020130525FF028376
:1028D4002D4549E703C505000947631DE50603A81F
:1028E4004500411106C60347180032850346080017
:1028F40022074168518F930828FE630E170363E98A
:10290400E80005186309070323900600294581A000
:10291400130648FE6301C7021518E31707FF15469F
:102924003E876373F6001547C1672390E600FC47B2
:102934001316070109A83E8691C30546C167FC47E3
:102944002390C6004206CC45418282970145B2409D
:10295400410182802390060005458280828083C7DE
:10296400850093F70702F1E3411106C622C426C28B
:102974004AC003C9050089482E888547631C19038A
:1029840083A845003284B68483C7180083C808002E
:10299400A207B3E71701C168138E18FE6383C70348
:1029A400138E38FE638CC7050D6813082890638561
:1029B4000707A947B2402244924402493E85410197
:1029C4008280AD4765FB0547B547E365D7FE83A71E
:1029D400C8040325C8000546A285829701499707C4
:1029E4000020938727299843814769D7184379D3CF
:1029F4002686A2854A85029781476DBFAD475DFB58
:102A04000547B547E368D7FA83A7C8040325C80078
:102A14000546A2858297E1B72244B2409244024916
:102A240003A34814854741010283A1473E85828060
:102A340041679306E7FF6301D504411122C406C62A
:102A440085472A84639EF500C16722852244B240EB
:102A540003A3871397050020938505214101028371
:102A640089476397F5008327070B8545829769DDBE
:102A7400B2402244410182808280411122C44164D7
:102A84008327841306C626C2970500209385C51D97
:102A9400AA841305F4FF82978327C40A170500004C
:102AA400130545F98588829795C0032304132244AE
:102AB400B240924497060020938606054146C545D8
:102AC40017050020130545F341010283B240224457
:102AD400924401454101828019C59707002023AB28
:102AE400A71801458280454582801147636FA70876
:102AF40097260000938686340A05369518414111BD
:102B040006C63697AE87B285028705476145639B43
:102B1400E700C167FC470546170500201305C513E8
:102B240082970145B2404101828005476145E39B9C
:102B3400E7FEC167FC47054617050020130505128B
:102B4400C5B705476145E39FE7FCC167FC470546F8
:102B5400170500201305C510E1B705476145E39348
:102B6400E7FCC167FC470546170500201305850FE0
:102B740045BF15476145E397E7FAC167FC4715462A
:102B8400170500201305850E61BF09458280411198
:102B940026C2C16483A7C41322C44AC006C62E84B5
:102BA400970500209385450C2A898297058905C5D8
:102BB40097070020938747E483D7A70BA28503A335
:102BC400440D2310F4002244B24092444A85024941
:102BD400014641010283B2402244924402494945DC
:102BE4004101828011456FF06F8941119396250050
:102BF400AA852D4506C697000020E780A08CB24028
:102C0400014541018280011122CC06CE37140040D7
:102C140026CA4AC84EC652C483447405034AB4053E
:102C24008349840503499405EFE03FE08347A40505
:102C340093F4F40F137AFA0F93E71700230DF404B7
:102C440093F9F90F1379F90FB717004003C7A705D4
:102C5400058B6DFF03D5C705A38D4705238C370569
:102C6400A38C2705A38B9704F2406244D2444249C3
:102C7400B249224A0561828041119397050122C419
:102C840006C626C2C1872E8463DF0700C164FC54D4
:102C9400829719C1BC5482972165218DB240224488
:102CA40092444101828093F7150013C51500FDF786
:102CB40093F7250013C52500F5F39397250163D4F5
:102CC4000702C16483A7C41E8297293FBC4C37F610
:102CD4000200130606E0896517050020034505FA7E
:102CE400829709655DBF939715010145E3D807FAFB
:102CF400172500001305451AEF001073C167BC4F78
:102D040013060064916517050020034525F7829793
:102D1400116561B72D71232A9110FD74E98C232C60
:102D2400811023282111232631112A84AE89328966
:102D3400930600100A86A6852D45232E111097F0C0
:102D4400FF1FE780207813154401C167FC475181B8
:102D54000A0513962900CA850A958297A685856671
:102D64000146254597F0FF1FE780C0750A86A685B2
:102D740093060010294597F0FF1FE780A074832075
:102D8400C1110324811183244111032901118329D1
:102D9400C11015618280B7F7070003C7070141110D
:102DA40006C622C426C24AC0A547631AF7009D3747
:102DB400B240224492440249014541018280139465
:102DC4002500AA843289A286AA850146254597F062
:102DD400FF1FE780206FA2864A86A685294597F0C3
:102DE400FF1FE780206EE9B71D71A2CC41645C5CD3
:102DF400485886CE494697250000938565058297F5
:102E040001E9172500001305E505EF00F06101A0B5
:102E1400B7F600E0795798CAFD57DCCA0567B7E7EB
:102E240000E023A0E7101306F00290C223A0E718E5
:102E34000F100000370700201847130600048145CF
:102E44009706002023AAE6E24157A38AE7403C44C0
:102E54000808829797070020938707E63EC889678A
:102E640093870780231AF1009D673ECCB7070105BD
:102E7400938707103ECEED472310F10285472301C7
:102E8400F10297070000938787D6BEC29707000018
:102E94009387A7F0BEC48567938757D12312F102A5
:102EA40097F7FFFF938707793ED8B7F50700970791
:102EB4000000938787D53EDC8146970700009387FF
:102EC400A7D23000E10519453EDE97F0FF1FE780E9
:102ED400605F18088147994630003E960346060015
:102EE40085070507A30BC700E398D7FEC24791C720
:102EF4000357410185676373F70001A0830741020B
:102F040063D7070493078008F3B7078093F787080C
:102F14003EC40F100000B71700401307700523804C
:102F2400E704130780FA2380E7040F100000B84772
:102F3400B706100013670718B8C79853558F98D36E
:102F440023800704A247F3A707800F100000C1677E
:102F540083A7470A08088297AA8501C91725000094
:102F6400130585F1EF00703A01A0F640664425612F
:102F74008280411126C2C16483A7040806C622C404
:102F840017050000130585CF82971704002013044A
:102F9400E4CE2300A400292803450400224403A30B
:102FA4008405B240924413060032896541010283CC
:102FB400797106D622D413078008F337078093F774
:102FC40087083EC20F100000B71700409305700534
:102FD4002380B704130680FA2380C7040F1000006F
:102FE40083C6F70293F6A60FA387D70223800704AC
:102FF4009246F3A606800F100000733707801377FC
:1030040087083AC40F1000002380B7042380C70444
:103014000F10000003C7F70213672700A387E70216
:1030240023800704A247F3A707800F10000005457B
:10303400EFE0FFA2453E01478146814705468545AD
:103044001305407EEFE09FA641643C44680051466E
:1030540081458297B707C0A83EC8B787E80393871E
:1030640007D03ECA97F7FF1F9387E7353EC67C58C3
:1030740068008297B2502254456182802A86B30543
:10308400B040172500001305A5E96F001028035769
:103094004500011106CE22CC9707002083D707BF35
:1030A400631AF70441649307E4FF17070020232FF2
:1030B400F7BC9707002023AD07BC7C4C8945170556
:1030C4000020034565B782977C4C91451705002085
:1030D400034585B682978547A307F10083274417E4
:1030E4001306F1008545130550308297F24062447F
:1030F40005618280172500001305C5DBEF00D0327F
:10310400F5B73D897D15954763E4A7181727000097
:103114001307C7D80A053A951C41011122CC06CEE3
:1031240026CABA972E8482874164832784172C0089
:103134001305403082978327C4152C0005458297D8
:1031440017250000130545DFEF00102E29AA03C739
:1031540025009947631CF7002E85153F83456400BD
:1031640017250000130545DEEF00301A172500006F
:10317400130545DFD1BF03C7250095476316F70242
:10318400C16417070020035767B09387E4FF03D592
:10319400A5006300F70283A7C417829717250000D0
:1031A400130545DDEF00502817250000130505DF42
:1031B40061BF97070020239BA7AC83D7E5001306C4
:1031C400006417050020034525A7170700202310D6
:1031D400F7AC83D7050117070020231BF7AA83D771
:1031E40025018945170700202315F7AABC4C8297AF
:1031F400BC4C096613060690A1451705002003453B
:10320400A5A38297BC4C0566130606C8914517050D
:103214000020034565A282970356E4008355A40069
:1032240017250000130545D6EF00300EB5BF17254E
:103234000000130565D709BF83C52500914763972F
:10324400F500172500001305A5D7FDBD9947639127
:10325400F50222852D3D83456400172500001305E2
:10326400A5CEEF00900AF2406244D2440561828008
:103274009547639AF50083471400E1F7172500008A
:103284001305C5D5D1B5172500001305A5D5D1BFA4
:1032940082809707002083D7679F6396A70217074A
:1032A40000202316B79E170700202313C79E170775
:1032B40000202310D79E2E86172500001305C5C4B1
:1032C400BE856F009004172500001305A5BE6F008E
:1032D400B01501119397050126CA06CE22CCC187E9
:1032E400AE8463D10708C167FC5717050020034566
:1032F400A59482972A8429C5034705009307000DE6
:10330400631CF7028347250045476382E70465474A
:103314006394E7020348A5008347950003478500AB
:103324008346750003466500834555001725000054
:103334001305C5B8EF00607DC167BC57228582972D
:103344002165258DF2406244D244056182800346A2
:1033540065008345750017250000130525B9EF00A6
:10336400C07AD9BF93F7150085C7C16783A7471AE9
:1033740017060020130646809705002093850592C2
:10338400170500200345458B829713C514005DBFC4
:1033940093F72500BDC341643C4C13060064894582
:1033A40017050020034545898297930780F8230277
:1033B400F10085472315F1008327841201478146D4
:1033C4000546ED45170500200355458C82977C443E
:1033D4000356A1002AC64C0082972C001705002032
:1033E4000355C58AEFF0AFFA11C58327C412ED4522
:1033F4002800829713C52400B1B793F7850095C7B9
:10340400C16703A8871A130740069707002083C7DC
:10341400A7828146130640069945170500200355E7
:10342400E586029813C5840031BF93F74500014532
:1034340091DB416483270418170500200355058593
:1034440082973C4C0566130606C8914517F5FF1F85
:103454000345857E829713C54400EDB5797122D466
:1034640041648327040806D626D24AD017050000F3
:10347400130565E68297854417F9FF1F1309C97B75
:1034840099472300A90023089100231AF100930708
:103494004006231CF10083274417100885451305B3
:1034A400503082978327441717F6FF1F1306066FC1
:1034B400F1451305703082978327441717F6FF1FD1
:1034C4001306C6779D4513056030829783274417FA
:1034D4005008894513051031829783274417300813
:1034E40089451305203182978327441593050005E8
:1034F4000D4582978327441593050005114582974E
:103504008327441585457945829723049100230632
:1035140091002308910002CC230A0100832784161A
:103524003008914513057040829783278416300034
:1035340085451305004082978327841670008545CE
:103544001305104082978327841650088545130578
:103554002040829783278416100885451305504020
:103564008297832704157D558297832744137D55BD
:103574008297EFF02FB47D55EFF02FD0832784147A
:1035840017F6FF1F13060660D54501458297894744
:103594002306F1008D472308F1009147230AF10027
:1035A40097F7FF1F9387476A984383C74700300004
:1035B400854501453ACC230EF10023049100EFF038
:1035C400CFD2700085450545EFF02FD21008854510
:1035D4000945EFF08FD1500885450D45EFF0EFD048
:1035E400300895451145EFF04FD01307E4FF97F7E6
:1035F400FF1F9387A76998C323A2070017F5FF1F2E
:1036040013054563EFF04FCD8327C41D17F5FF1F46
:103614001305456782973C48034509008545829711
:10362400B25022549254025945618280411191460C
:1036340017F6FF1F1306466799652D4506C697F0D2
:10364400FF1FE78020E8B7F7070003C70701A54776
:103654006313F70001A09306001001469965254500
:1036640097F0FF1FE78000E68D47914617F6FF1F8E
:10367400130686639965294517F7FF1F2306F7622A
:1036840097F0FF1FE78000E4B240410117F3FF1FEA
:103694006700A3BD011106CE19C58947630FF50064
:1036A400F24005618280C167FC4768008297172554
:1036B40000001305E5938D2BE5B7C167FC4768004F
:1036C40082971725000013056594B92B1725000070
:1036D40013058595912B154597F0FF1FE78040C78B
:1036E400B1377DBF41111305800406C622C497F08B
:1036F400FF1FE780809B371700408327870A8D458B
:103704001305002093E707202324F70AEFE0BFE026
:103714004164EFE05FFB4858012BEFF0EFECEFF072
:103724005F858327041A8297153B97F0FF1FE78074
:10373400A0CC014863C6050E63DB06003306C04017
:10374400B337C000B306D0401348F8FF9D8EB68748
:103754003283AA8EAE886391061863FCC50C416758
:103764006361E61EB70700016365F636935686016A
:10377400E147172700001307E78B36970347070035
:10378400BA97130700021D8F19CBB395E500B35701
:10379400F5003313E600B3E8B700B31EE500135693
:1037A4000301B3D7C80293160301C18213D70E01D4
:1037B400B3F5C8023385F602C205B3E8E50063FA3F
:1037C400A8009A981387F7FF63E4680063E9A832B6
:1037D400BA87B388A840B3D5C802C20E93DE0E01DF
:1037E400B3F8C802B386B602C208B3E8D80163FBD3
:1037F400D8009A981387F5FF63E56800F91563E329
:10380400D800BA85139507014D8D814563090800D9
:103814003305A040B337A000B305B0409D8D82802E
:103824003305A040B337A000B305B0409D8D7D584B
:1038340021B701E605433353D3024167636AE30EBC
:10384400B7070001636BF32893568301E147171709
:1038540000001307277E369703470700BA9713071C
:1038640000021D8F65EB93180301B3866540135F57
:10387400030193D80801854513D70E01B3D7E60396
:10388400B3F6E60333861703C206558F637AC7007F
:103894001A979386F7FF636467006365C726B68744
:1038A400118FB356E703C20E93DE0E013377E7039D
:1038B400B388160342073367D701637B17011A974E
:1038C4001386F6FF63656700F91663631701B28612
:1038D40013950701558D1DBF63E1D504C16763E1ED
:1038E400F604B707000163E2F61E93D88601614728
:1038F4009717000093870774C69703C307009307BD
:1039040000023A93B3876740E9EB63ECB61C3335A6
:10391400C500134515008145D5BD81450145FDB55B
:103924009307F00F63F2D71C93D886002147C9B7D9
:103934001307F00F9A86E37C67F093568300A14740
:1039440039B71307F00FB286E375C7E293568600C2
:10395400A14705B53313E30033D6F500135F030124
:10396400335EE603B396E500B357F500DD8E931896
:10397400030193D80801B31EE50093D50601B3777C
:10398400E6033387C803C207CD8F63FBE7009A972A
:103994001306FEFF63E3671663F1E716791E9A9731
:1039A400998F33D6E703139706014183B3F7E703EF
:1039B4003385C80293960701D98E63FBA6009A96B5
:1039C4009307F6FF63E7661263F5A61279169A96D3
:1039D40093150E01898ED18D45B533576600B39684
:1039E400F600D98EB3D8650013DF0601B3DEE80311
:1039F400139E060133536500135E0E01B395F50063
:103A0400B365B30013D705013316F600B3F8E80322
:103A14003303DE03C20833E7E800637B67003697AD
:103A24009388FEFF6369D70C6377670CF91E36979A
:103A3400330767403353E703C205C1813377E70394
:103A4400B3086E024207D98D63FB1501B6951307BF
:103A5400F3FF63EED50863FC15097913B695C20E1E
:103A6400416FB3EE6E001307FFFFB3F6EE0013D3FE
:103A74000E01718F4182338EE602B3851541B38600
:103A8400C60293580E013307E302BA96C69633066C
:103A9400C30263F3E6007A9613D306011A9663E22F
:103AA400C5026385C500768581458DB341677D1761
:103AB400F98EC206337EEE00B317F500F296E3F4F6
:103AC400D7FE1385FEFF814591B393D80601414784
:103AD40005B593560601C14769B993560301C14719
:103AE400BDB3814505451DB3B688014711B53A8379
:103AF400BDB73E86F1BDC68E25BF328E55B5F917CA
:103B04009A98C1B9F9171A9761BB39713EDA2ED266
:103B140032D436D63AD842DC46DE97F7FF1F938775
:103B2400671222CC804326CA06CEAA8409C41C4C40
:103B340099E3228535230C4454102686228536C603
:103B4400EF00F018F2406244D244216182800111F6
:103B540026CA4AC806CE22CC4EC652C4AA842E898E
:103B640001C51C4D91E3ED299C4C804499E32685C5
:103B7400C529971700009387E75D631CF402C040D2
:103B84008357C400A18BB1C71C48A1C7FD59294A5A
:103B94001C4483450900FD17B1E91CC463DE070614
:103BA4002286A94526854128FD576308F502294543
:103BB40035A0971700009387E75B6314F4008044F3
:103BC400C1B7971700009387E756E31BF4FAC04484
:103BD40045BFA2852685052255D97D55F24062440C
:103BE400D2444249B249224A056182801CC4050973
:103BF40063D70700184C63CBE700638945011C4079
:103C04001387170018C02380B70059B7228626856A
:103C14001D20E31F35F7D1B71C401387170018C0C8
:103C240029472380E70061B797F7FF1F9387870130
:103C3400AA85884329BF011122CC26CA4AC806CEC8
:103C44004EC6AA842E89328401C51C4D91E30929EC
:103C540097170000938707506319F406C0401C4C63
:103C64001CC48357C400A18BC9C31C48BDCF1C48C6
:103C740008409379F90F1379F90F1D8D5C48634659
:103C8400F500A2852685752C2DE51C440505FD1738
:103C94001CC41C401387170018C0238037015C48DC
:103CA4006389A7008357C400858B81CBA94763161A
:103CB400F900A285268571240DEDF24062444A85FF
:103CC400D2444249B2490561828097170000938724
:103CD400674A6314F400804459B797170000938728
:103CE4006745E31EF4F6C0449DBFA28526852120C6
:103CF4003DDD7D59D9B7411197F7FF1F938787F4AD
:103D040026C2844322C44AC006C62A892E8489C492
:103D14009C4C99E32685A92697170000938787432F
:103D2400631CF402C0400317C40093170701C18346
:103D340093F68700B5EE93F607019DEEA547232081
:103D4400F900136707042316E4007D55B2402244AA
:103D5400924402494101828097170000938787416A
:103D64006314F4008044C1B7971700009387873C1D
:103D7400E31BF4FAC04445BF918B8DC74C5889C9E5
:103D8400930744046384F5004A859123232A04029B
:103D94008357C4002322040093F7B7FD2316F400CD
:103DA4001C481CC08357C40093E787002316F40003
:103DB4001C4881EF8357C4001307002093F707289A
:103DC4006385E700A2854A85A5218357C40013F7BC
:103DD400170005C75C4823240400B307F0401CCC3B
:103DE4001C480145A5F78317C40013F7070839DFFA
:103DF40093E707042316F40089BF898B014791E3F5
:103E0400584818C4F1BF83D7C500011122CC26CA73
:103E140006CE4AC84EC613F78700AA842E8471EFD3
:103E2400D841634DE000B841634AE0000145F240E7
:103E34006244D2444249B2490561828058547DD7D4
:103E440003A904009396370123A0040063DD06064A
:103E540070488357C400918B99C75C401D8E5C5891
:103E640099C33C401D8E5C540C5081462685829734
:103E7400FD570357C400631DF5009440F54763E8FC
:103E8400D706B70740208507B3D7D700858BA5C3CE
:103E94001C48232204001CC09317370163D8070071
:103EA400FD576314F5009C4091E368C84C5823A067
:103EB4002401ADDD930744046384F50026850129BC
:103EC400232A0402A5B70C5001468546268502978D
:103ED400FD572A86E31FF5F69C40A5DF75476385E9
:103EE400E70059476394E70423A0240181B71367CB
:103EF40007042316E4007D551DBF83A90501E3874C
:103F040009F203A905008D8B23A03501330939413A
:103F1400014791E3D84918C4E35A20F11C540C50CA
:103F2400CA864E86268582976349A0008357C400BB
:103F340093E707042316F4007DBFAA993309A94027
:103F4400E1BF9C49B9CF011122CC06CE2A8411C508
:103F54001C4D81E72EC62922B2459717000093878E
:103F6400671F639BF5004C408397C50095C7228566
:103F74006244F240056141BD971700009387871F93
:103F84006394F5000C44CDB7971700009387871A04
:103F9400E39CF5FC4C44C9BFF24062440145056111
:103FA400828001458280411122C406C62A842316D8
:103FB400B5002317C5002320050023220500232470
:103FC40005002322050623280500232A0500232CA7
:103FD4000500214681451305C505EFD09F9A971723
:103FE40000009387E7B65CD097170000938747B922
:103FF4001CD497170000938787BD5CD497170000E3
:10400400938747C000D01CD8B2402244410182802B
:1040140097050000938525F389AA411126C213064A
:1040240080069384F5FFB384C4024AC02E8922C457
:1040340006C693854407A1262A8401CD23200500C2
:1040440023222501310508C4138684068145EFD057
:104054005F932285B2402244924402494101828006
:104064001C4DBDE3411106C622C497070000938787
:1040740067FA1CD5971700009387C71A9C4323241B
:10408400050423260504232805046314F500854745
:104094001CCD2A841D2848C02285052808C42285F1
:1040A4002D2048C4484001469145F53D0844054645
:1040B400A545D53D48440946C945F53585471CCC39
:1040C400B24022444101828082804111971700004E
:1040D4009387471526C284434AC006C69C4C22C413
:1040E4002A8999E32685AD3F938484048044DC4087
:1040F400FD1763D607009C40B9CF8440C5BF0317A2
:10410400C40039E7C177850723220406232004006D
:1041140023220400232404005CC423280400232A4B
:104124000400232C0400214681451305C405EFD067
:104134005F85232A0402232C040223240404232657
:1041440004042285B24022449244024941018280FF
:104154001304840671BF91454A85C13588C051FD59
:10416400B1472320F9000144E9BF797122D44AD030
:1041740052CC56CA5AC85EC606D626D24ECE2A8A13
:10418400AE8A130485040149054BFD5B09ECB2506A
:1041940022544A8592540259F249624AD24A424B05
:1041A400B24B45618280044483294400FD1963D4E1
:1041B40009000040E1BF83D7C400637BFB00839701
:1041C400E40063877701A6855285829A3369A90042
:1041D40093848406E1BF1971A6DAAE848395E50061
:1041E400A2DC86DE328463DC050083D7C40023A00E
:1041F400060093F7070885E7930700401DA03008E1
:1042040036C6EF00B026B246E34105FE7247BD67ED
:10421400F98F7977BA9793B717009CC2F1BF9307C8
:1042240000041CC0F6506654D654014509618280CE
:1042340083D7C500011122CC06CE26CA4AC8898B71
:104244002E8489CF930774041CC01CC885475CC89E
:10425400F2406244D24442490561828074003000D5
:10426400AA84953FA2452A892685112A01ED831740
:10427400C40013F7072069FFF19B93E72700231677
:10428400F400C9B7970700009387C7D89CD4835715
:10429400C40008C008C893E707082316F400A2471F
:1042A4005CC8B24791CF8315E4002685EF00301F28
:1042B40001C98357C400F19B93E717002316F40048
:1042C4008357C4003369F9002316240151B7DDC5AF
:1042D40083A7C5FF411122C406C626C21384C5FFA5
:1042E40063D307003E94AA84EF00502397F7FF1F7F
:1042F4009387479A9C4391EF2322040097F7FF1F6B
:1043040023AA87982244B2402685924441016F0033
:104314001021637EF40014403307D4006396E70051
:104324009843DC43369718C05CC0C9BFBA87D843EA
:1043340019C3E37DE4FE94433386D700631F8600EC
:104344001040B29694C33386D700E31DC7FA1043D6
:104354005843B29694C3D8C375B76375C400B147C4
:104364009CC04DB71040B306C4006316D700144375
:104374005843B29614C058C0C0C369B782800111B3
:1043840026CA93843500F19806CE22CC4AC84EC67C
:10439400A104B14763F9F404B14463E8B4042A897D
:1043A400EF00D01797F7FF1F9387C78E98433A847F
:1043B40039E497F7FF1F9387278E9C4381EB814550
:1043C4004A85A12F97F7FF1F23A8A78CA6854A85A6
:1043D400A927FD59631B3507B1472320F9004A85F6
:1043E400EF00F01329A0E3DA04FAB1471CC1014538
:1043F400F2406244D2444249B249056182801C4081
:10440400858F63C10704AD4663F6F6001CC03E9475
:1044140004C001A85C406315870217F7FF1F232B14
:10442400F7864A85EF00B00F1305B40093074400E4
:1044340061993307F5404DDF3A94898F1CC04DBF15
:104444005CC3C5B722874040A5B7130435007198F3
:10445400E30085FCB305A4404A85C125E31A35FB76
:10446400A5BF1C46FD171CC663DA0700184E63C5BA
:10447400E700A9476394F5006FF0EFFB1C422E851B
:104484001387170018C22380B7008280011122CC41
:1044940026CA4AC84EC652C406CE2A89AE89328478
:1044A400B304D6007D5A63149400014509A88345DA
:1044B40004004E864A8575370504E31645FFF2402D
:1044C4006244D2444249B249224A0561828035712C
:1044D40022CD26CB4AC94EC706CF52C556C35AC1B0
:1044E400DEDEE2DCE6DAAA89AE843289368401C5EE
:1044F4001C4D91E3B536971700009387A7C5639BBE
:10450400F40C83A4490083D7C400A18BF5C79C484D
:10451400E5C793070002A304F1029307000302D244
:104524002305F10222C6930B5002971A0000938AC6
:104534006AC6054C294B4A848347040099C3639097
:10454400770FB30C2441638D0C00E6864A86A6855A
:104554004E852D3FFD576306F51E9256E69636D2DC
:1045640083470400638F071CFD571309140002C816
:1045740002CE3ECA02CCA309010482D483450900B9
:1045840015465685BD2F13041900C24759E913F780
:10459400070109C713070002A309E10413F7870001
:1045A40009C71307B002A309E104834609001307EE
:1045B400A0026380E608F2474A8481462546034701
:1045C400040093051400130707FD6379E60AB5CACE
:1045D4003ECE85A8971700009387C7B96395F4006A
:1045E40083A489000DB7971700009387A7B4E39CB1
:1045F400F4F083A4C90001BFA6854E85EFF0AFEFA8
:1046040009D97D55FA406A44DA444A49BA492A4AE2
:104614009A4A0A4BF65B665CD65C0D61828005049F
:1046240021BF330555413315AC00C98F3EC82289DB
:10463400B1B7324793064700184336C663490702A9
:104644003ACE034704009307E002631FF7040347CD
:1046540014009307A002631BF702B24709041387EF
:1046640047009C433AC663C107023ECA35A83307D4
:10467400E04093E727003ACE3EC8E1B7B38767032B
:1046840085462E84BA9725BFFD57C5B7050402CACF
:104694008146814725460347040093051400130708
:1046A40007FD6376E606F1F2834504000D4617150F
:1046B40000001305A5AEB12511CD9717000093870F
:1046C400E7AD1D8D93070004B397A7004245050489
:1046D4005D8D2AC88345040019461715000013058B
:1046E40025AC130914002304B102212D3DC197C741
:1046F400FFFF9387E79095E74247B2471377071088
:1047040009CF91073EC69257D2973ED22DB5B387B3
:10471400670385462E84BA97BDBF9D07E19BA10719
:10472400D5B7780097060000938686D626860C08AF
:104734004E8597000000E7000000FD572A8AE31425
:10474400F5FC83D7C40093F70704E39C07EA1255EA
:1047540055BD780097060000938686D326860C08FC
:104764004E85012AD9BF797156CA9C49BA8A98459F
:1047740022D426D24ECE52CC06D64AD05AC85EC6D1
:10478400AA892E84B284368A63D3E700BA879CC090
:104794000347340419C385079CC01C4093F70702E0
:1047A40081C79C4089079CC00329040013796900D0
:1047B400631A0900130B9401FD5B5C449840998FC4
:1047C400634CF9041C408346340493F70702B33660
:1047D400D000A5EB13063404D2854E85829AFD578A
:1047E4006303F5041C4011469840998B544481445A
:1047F4006397C700B384E64063D3040081441C4438
:1048040018486354F700998FBE94014969047D5B8D
:1048140063982405014509A885465A86D2854E85A4
:10482400829A631E75017D55B250225492540259E6
:10483400F249624AD24A424BB24B45618280050931
:10484400ADBF3307D40013060003A301C704034715
:10485400540493871600A2978906A381E7049DBF99
:1048640085462286D2854E85829AE30E65FB05092C
:1048740045B7797122D426D24AD04ECE06D652CC30
:1048840056CA5AC8B68983C68501930790063289E9
:10489400AA842E8413863504638DF60263E2D70658
:1048A400930780056387F61863EDD70063800622BB
:1048B40093073004638EF60A930A24042301D40474
:1048C400C9A0930730066385F60A93074006E3956B
:1048D400F6FE1C40084393F6070893054500C5C639
:1048E4001C410CC363D807001307D002B307F04080
:1048F400A301E404971600009386068B29476DA84C
:10490400930700076383F61663E5D7029307E0066F
:10491400638AF6189307F006E390F6FA0C401C43FA
:1049240013F80508138547006307080608C39C436A
:104934008DA893075007E383F6FE93078007638AE5
:10494400F61293073007E399F6F61C43D0418145EC
:104954009386470014C383AA070056855D2601C5C4
:104964003305554148C05C401CC8A301040471A828
:104974001C43930A2404938647009C4314C32301D5
:10498400F4048547D5B793F607041C410CC3B9DA80
:10499400C207C18781BF93F5050408C3C9D983D76A
:1049A40007001307F0066387E60E97060000938658
:1049B400A67F2947A30104044C400CC463C5050029
:1049C40008406D9908C099E3B28A91CDB28AB3F5D3
:1049D400E702FD1AB69583C505002380BA00B3D556
:1049E400E70263FFE70AA147631EF7001C40858BBB
:1049F40091CB58401C4863C7E70093070003A38F7B
:104A0400FAFEFD1A3306564110C84E87CA86700056
:104A1400A2852685893B7D5A631E450B7D55B25080
:104A2400225492540259F249624AD24A424B456195
:104A34008280A382D504970600009386E6760C4014
:104A4400084313F805081C411105630D080208C347
:104A540013F7150001C793E505020CC04147B9FBE4
:104A64000C4093F5F5FD0CC0B1B79C4193E70702E8
:104A74009CC193078007A302F40497060000938661
:104A8400E67375BF13F8050408C3E30308FCC20703
:104A9400C1837DBF9706000093860671214719BF25
:104AA400AE8735B794411C43CC4913F806081385E7
:104AB40047006306080008C39C438CC301A808C3CD
:104AC40093F606049C43F5DA2390B70023280400E8
:104AD400B28A25BF14485686CA8526858299E30F73
:104AE40045F31C40898B8DE7B2474844E359F5F2FE
:104AF4003E8535B785465686CA8526858299E30F55
:104B040065F1050A5C443247998FE345FAFEE9BF33
:104B1400014A930A94017D5BF5B7411122C42A84AA
:104B24002E859707002023A9079806C6EFD07FB3E8
:104B3400FD576319F500970700209387E7979C4377
:104B440091C31CC0B240224441018280411122C45D
:104B54002E848395E50006C6E122634905007C485E
:104B6400AA977CC8B2402244410182808357C40082
:104B74007D777D17F98F2316F400EDB783D7C50031
:104B8400011122CC26CA4AC84EC606CE93F7071096
:104B9400AA842E843289B68991C78395E500894613
:104BA400014635228357C4007D777D17F98F23167C
:104BB400F4008315E4006244F240CE864A86B2498A
:104BC40042492685D24405613DA8411122C42E8460
:104BD4008395E50006C6E528FD570357C400631B0B
:104BE400F500FD77FD17F98F2316F400B240224437
:104BF400410182808567D98F2316F40068C8FDB708
:104C04008395E50025A8411122C42A842E85B28506
:104C140036869707002023A1078A06C6EFD0FFA196
:104C2400FD576319F500970700209387E7889C4395
:104C340091C31CC0B240224441018280411122C46C
:104C44002A842E859707002023A8078606C61922E2
:104C5400FD576319F500970700209387E7859C4368
:104C640091C31CC0B240224441018280411122C43C
:104C74002A842E85B2859707002023AF078206C6B3
:104C8400D520FD576319F500970700209387C78245
:104C94009C4391C31CC0B240224441018280411113
:104CA40022C42A842E859707002023A7078006C6DE
:104CB400D120FD576319F50097F7FF1F9387C77F2E
:104CC4009C4391C31CC0B2402244410182804111E3
:104CD40022C42A842E85B285368697F7FF1F23AD1A
:104CE400077C06C64520FD576319F50097F7FF1F9B
:104CF4009387877C9C4391C31CC0B24022444101EA
:104D0400828093F5F50F2A966314C50001458280CD
:104D140083470500E38DB7FE0505FDB782808280D9
:104D2400411122C42A842E85B285368697F7FF1F47
:104D340023A4077806C6B928FD576319F50097F729
:104D4400FF1F938767779C4391C31CC0B2402244E2
:104D5400410182809307800517F7FF1F232EF77404
:104D64007D5582809307800517F7FF1F2326F7746C
:104D74007D5582809307800517F7FF1F232EF77256
:104D8400014582809307800517F7FF1F2326F772DA
:104D94007D5582809307800517F7FF1F232EF77038
:104DA4007D5582808AD7FFFFB2D7FFFFDAD7FFFF96
:104DB400F2D7FFFF0CD8FFFFFE00657870657269BB
:104DC4006D656E74616C00004669726D7761726521
:104DD400205265766973696F6E00000048617264E1
:104DE40077617265205265766973696F6E000000A1
:104DF4004D616E756661637475726572204E616D86
:104E0400650000004D6F64656C204E756D626572BF
:104E14000000000053657269616C204E756D626517
:104E240072000000536F6674776172652052657674
:104E34006973696F6E000000D2DCFFFFF2DCFFFFD4
:104E44000ADDFFFF22DDFFFF3ADDFFFF434835396E
:104E5400785F424C455F4C49425F56312E34000026
:104E6400686561642066696C65206572726F722E74
:104E74002E2E00004C494220696E697420657272BE
:104E84006F7220636F64653A202578202E2E2E0AD7
:104E9400000000002A20000090E2FFFFB6E2FFFFBE
:104EA400A0E3FFFFDEE2FFFF96E3FFFFE4E3FFFF83
:104EB4004552522E2E0000005265636569766520C6
:104EC4007363616E207265712066726F6D20257840
:104ED40020257820257820257820257820257820FD
:104EE400202E2E0A0000000050687920757064613D
:104EF40074652052783A25782054783A2578202E03
:104F04002E0A0000557064617465202578202D20D8
:104F1400496E74202578200A00000000525353493A
:104F2400202D256420644220436F6E6E2020257856
:104F3400200A0000496E697469616C697A65642E9F
:104F44002E000000446973636F6E6E65637465645C
:104F54002E2E20526561736F6E3A25780A00000088
:104F64004164766572746973696E672E2E00000061
:104F7400436F6E6E656374696F6E206D61782E2E5B
:104F84002E000000436F6E6E202578202D20496E80
:104F940074202578200A0000436F6E6E6563746583
:104FA400642E2E00436F6E6E6563746564204164E5
:104FB400766572746973696E672E2E005761697421
:104FC400696E6720666F72206164766572746973B6
:104FD400696E672E2E0000004572726F722E2E00CD
:104FE4004572726F722E2E25780A000070726F66F9
:104FF400696C65204368616E67654342204348419C
:1050040052312E2E2000000070726F66696C65208C
:105014004368616E676543422043484152332E2EF4
:10502400000000006A756D70204F5441200000009C
:10503400000102020303030304040404040404043B
:10504400050505050505050505050505050505050C
:1050540006060606060606060606060606060606EC
:1050640006060606060606060606060606060606DC
:1050740007070707070707070707070707070707BC
:1050840007070707070707070707070707070707AC
:10509400070707070707070707070707070707079C
:1050A400070707070707070707070707070707078C
:1050B400080808080808080808080808080808086C
:1050C400080808080808080808080808080808085C
:1050D400080808080808080808080808080808084C
:1050E400080808080808080808080808080808083C
:1050F400080808080808080808080808080808082C
:10510400080808080808080808080808080808081B
:10511400080808080808080808080808080808080B
:1051240008080808080808080808080808080808FB
:10513400000000000000000000000000000000006B
:10514400000000000000000000000000000000005B
:10515400000000000000000000000000000000004B
:10516400000000000000000000000000000000003B
:10517400000000000000000000000000000000002B
:10518400000000000000000000000000000000001B
:10519400232D302B20000000686C4C0065666745A9
:1051A40046470000303132333435363738394142DE
:1051B400434445460000000030313233343536373D
:1051C4003839616263646566000000002A2A0000C1
:1051D400262A0000272A0000292A0000242A000089
:1051E400502A0000252A00000A18000002000000CE
:1051F400EC510000282A0000232A0000E0FF0000F0
:105204000200000000520000E1FF0000E2FF000085
:10521400E3FF0000E4FF0000E5FF0000FFFFFFFFE5
:04522400B82B002083
:10522800020000000C00010001000000F051000025
:105238000200000012000100010000002E2C0020D6
:1052480002000000FC51000001000000502C00206A
:10525800020000001200010001000000202C0020C4
:1052680002000000E051000001000000084E0000AC
:105278000200000012000100010000002C2C002098
:1052880002000000E851000001000000184E000074
:105298000200000012000100010000001D2C002087
:1052A80002000000D451000001000000CC4D0000B5
:1052B8000200000012000100010000001E2C002066
:1052C80002000000D851000001000000E04D00007D
:1052D8000200000012000100010000002D2C002037
:1052E80002000000F851000001000000284E0000F4
:1052F8000200000012000100010000001F2C002025
:1053080002000000DC51000001000000F44D000024
:105318000200000012000100010000001C2C002007
:1053280002000000D051000001000000BC4D000048
:105338000200000012000100010000002B2C0020D8
:1053480002000000E451000001000000242C0020AD
:10535800FC26000000000000000000000200000021
:105368000C000100010000000452000002000000CF
:1053780012000100010000002F2C00200200000094
:105388000C52000003000000582C0020020000000E
:105398001600010001000000142B0020020000008C
:1053A8001200010001000000302C00200200000063
:1053B80010520000010000005C2C002002000000D8
:1053C8001600010001000000282B00200200000048
:1053D8001200010001000000312C00200200000032
:1053E8001452000002000000602C0020020000009F
:1053F80016000100010000003C2B00200200000004
:105408001200010001000000322C00200200000000
:105418001852000000000000642C00200200000068
:105428001800010003000000682C002002000000A2
:105438001600010001000000502B002002000000AF
:105448001200010001000000332C002002000000BF
:105458001C520000040000006C2C00200200000018
:105468001600010001000000642B0020D428000071
:10547800622900000000000043686172616374657E
:1054880072697374696320310000000043686172B7
:105498006163746572697374696320320000000087
:1054A80043686172616374657269737469632033F8
:1054B8000000000043686172616374657269737407
:1054C8006963203400000000436861726163746599
:1054D80072697374696320350000000006310000AA
:1054E800803000009632000053696D706C65205062
:1054F80065726970686572616C00000000000000E8
:10550800120953696D706C65205065726970686521
:1055180072616C051206006400020A0000000000B7
:105528005451000074510000345100000000000084
:105538000000000000000000000000000000000063
:105548000000000000000000000000000000000053
:105558000000000000000000000000000000000043
:105568000000000000000000000000000000000033
:10557800000000000000000000000000BC44002003
:10558800020202020200000001D707000010010217
:105598000202020A0208100298360000FF0000000A
:1055A8000201060302E0FF00B82B002001020304F9
:0455B80005000000EA
:0400000300001000E9
:00000001FF
