:040000006F10107DF0
:10000400000000000000000090000020C202002058
:10001400A9BDF9F5780300200000000000000000ED
:100024007803002090000020000000000000000081
:10003400900000200000000090000020000000005C
:1000440090000020900000209000002090000020EC
:10005400900000205C0800209000002000000000B8
:1000640090000020900000209000002090000020CC
:10007400DE0300209000002090000020900000206B
:1000840090000020900000209000002090000020AC
:1000940001A04111B7170040985F3AC6945F3247F8
:1000A400E39CE6FE324541018280B7F70700011167
:1000B400944B13078008F337078093F787083EC2F1
:1000C4000F100000B71700401308700523800705C0
:1000D400930580FA2380B7040F10000003C6B70409
:1000E4001376F60DA385C7042380070412467326EE
:1000F40006800F1000001376050255CEF3360780F4
:1001040093F6860836C40F10000023800705238069
:10011400B7040F100000B70614007D89558D88C7F9
:10012400010001000100010023800704A246F3A698
:1001340006800F10000073370780137787083AC6CC
:100144000F100000238007052380B7040F10000060
:100154000F1000003727004093061005A303D78033
:1001640023800704B247F3A707800F10000093070A
:100174008008F3B7078093F787083ECE0F1000007E
:10018400B7170040130770052380E704130780FAAC
:100194002380E7040F10000003C7B70413670708A0
:1001A400A385E70423800704F247F3A707800F1011
:1001B4000000056182801376050459C273360780F6
:1001C4001376860832C80F100000238007052380A9
:1001D400B7040F10000037061400130606047D89C7
:1001E400518D88C70100010001000100238007042C
:1001F4004246732606800F1000007337078013777A
:1002040087083ACA0F100000238007052380B7042B
:100214000F100000A54793F6F60F639EF600B7276C
:10022400004013073005A383E780B71700402380FD
:100234000704D2470DBFB727004013072005E5B7D1
:1002440073370780137787083ACC0F100000238098
:1002540007052380B7040F10000098471367070CA5
:1002640098C723800704E247FDBD0111814601467A
:100274008145114506CEB52C93078008F3B7078056
:1002840093F787083EC60F100000B7170040130706
:1002940070052380E704130780FA2380E7040F1016
:1002A400000003C76704136717002383E704238050
:1002B4000704B247F3A707800F100000F24005615E
:1002C4008280411181460146814511451D24130751
:1002D4008008F337078093F787083EC40F100000A7
:1002E400B7170040130670052380C704930680FAED
:1002F4002380D7040F100000FD552396B7022380F6
:100304000704A245F3A505800F100000733707808A
:10031400137787083AC60F1000002380C704238090
:10032400D7040F10000003C7670413671700238363
:10033400E70423800704B247F3A707800F100000E7
:1003440001A0BD473305F50201007D1575FD8280CE
:10035400411122C426C206C6AA840144631794002C
:10036400B240224492444101828005041305803E38
:100374004204C13F4180DDB79305000273A045806C
:1003840082457390153492402242B2424243D24392
:100394006244F244025592552256B2564257D257FD
:1003A4006258F25806499649264AB64A464BD64BF5
:1003B400664CF64C065D965D265EB65E465FD65F7D
:1003C4000961730020304111B7170040985F3AC6A5
:1003D400945F3247E39CE6FE324541018280B717C1
:1003E4000040130700032388E702854723ACF18606
:1003F40073002030411122C426C206C685441384EA
:10040400318AEF00607C0145974000E0E78000C836
:10041400E31995FE834704009305000803C5918101
:1004240093F7F70F93B71700A381F18A974000E081
:10043400E7806023F9B72303048015472303E4808E
:1004440001002302A480828083076480E3CE07FE38
:1004540023030480828083076480E3CE07FE034580
:100464004480828083076480E3CE07FE2302A48055
:100474008280411126C44AC24EC006C61377F50BCA
:10048400AD47AA892E8995446306F7001945653757
:10049400653F8D444E854537FD59FD1463983401FD
:1004A400B240A24412498249410182801355090194
:1004B4001375F50F453F2209CDB7011126CC06CEA1
:1004C400B704080051371545BD37713769372AC657
:1004D400A53F32459377150089EB13651500137515
:1004E400F50FF240E24405618280FD14E9FC014508
:1004F400CDBF397126DC4ADA4ED852D656D45AD2F8
:100504005ED006DE62CE66CCB7E700E07D5783AAF4
:10051400070022C603AA470023A0E71823A2E7186E
:10052400B7170040130770052380E704130780FA08
:100534002380E70483C74704930B75FFB684E2075F
:1005440093FBFB0F8546AA892E8B32893724004002
:10055400E187015763FA76016308D50089461307DA
:1005640000026313D5000157D98F93F7F70FB71C17
:1005740000402382FC0411472303E4801305F00F99
:100584005D3D094CD135636D7C11B7050700DA95E3
:1005940037870700795563F2E504B3879500636EE6
:1005A400F702370B0800A94733EB65016399F90695
:1005B40089E48144513D26850DA0DA850945553DE0
:1005C40005090345F9FFFD14050B693D81C49377C3
:1005D400FB0FFDF7DD3569FD7D55B71700401307A7
:1005E40070052380E704130780FA2380E70403C718
:1005F4004704418B2382E704F250B7E700E023A0CD
:10060400571123A24711E25432445259C259325A63
:10061400A25A125B825B724CE24C21618280A54734
:100624006395F90685691309F00FB3069900B3744D
:100634002B01B6941349F9FFB3749900856B337990
:100644006901416B9387F9FFB3F7270199E363FCD1
:10065400340193D94900C147E3E637FF99BF0569DF
:10066400C1697D19D9B71305800D63886901130524
:1006740000026384790113051008CA85DD3B353D0A
:1006840021DD4E99B3843441D9B7DA852D45D5336C
:10069400CA94E30099F205097D3BA30FA9FED5BFD7
:1006A4009387F9FF93F7F70F6361FC0C83C71C046E
:1006B40013073008631FF70437070800636BEB0464
:1006C400B3079B00B706100063F5D704334BEB0068
:1006D40089476393F9068980D549E38C04ECDA856C
:1006E4000945413B11090327C9FF91472320E480B1
:1006F40003076480E34E07FE23033481FD17EDFBFB
:10070400FD14110B81C49377FB0FE9FF7D3371F561
:10071400E1B5B717004003C75704B70708001377BC
:10072400070219E3B78707007955E378FBEA330733
:100734009B00E3FFE7F855B58547E382F9F2DA85D4
:100744002D45053B9389F4FFE38504E6293393F7AC
:10075400390091EB8326048003270900930749009D
:10076400E39AE6E43E89CE84F1BFB5476396F90087
:100774001305900BC93135BDB1471305B00AE38B9E
:10078400F9FE99476391F904B7050800B365BB0006
:100794002D45C53181448D4BA1497539639674014A
:1007A400832704802320F9008504E39834FF8327FA
:1007B400048013172B01635507002312F900D5BBDE
:1007C4002322F900FDB39D476399F902814513057E
:1007D400B0044531BD442320090023220900FD59FA
:1007E4009D3993F77400CA9703C70700FD14398D28
:1007F4002380A700E39634FF6DBBA1476392F904FD
:100804006D398144630D0B008D479304C003630865
:10081400FB009304000563048B01930440041375E7
:10082400C507E30895D819453931393905452131CA
:1008340026850D3909453D314931E31C05D669BB8F
:1008440091476399F90013056006F536F53E1305E3
:1008540090090DB7E38F09D4F154A9BB197106C2ED
:1008640012C416C61AC81ECA22CC26CE2AD02ED22C
:1008740032D436D63AD83EDA42DC46DECAC0CEC2DC
:10088400D2C4D6C6DAC8DECAE2CCE6CEEAD0EED20C
:10089400F2D4F6D6FAD8FEDA938501878841E700C8
:1008A400050092402242B2424243D2436244F2449F
:1008B400025592552256B2564257D2576258F258B0
:1008C40006499649264AB64A464BD64B664CF64CE0
:1008D400065D965D265EB65E465FD65F096173006F
:1008E4002030B7E700E09843B706200023A0D718CC
:1008F400758F0F10000001C599C1814711E6B7E754
:1009040000E023A0E7108280B386F50003C8060048
:10091400B306F500850723800601E317F6FEC5B785
:1009240037E700E01C43B70620002320D718F58FD3
:100934000F10000019C191C111E637E700E0232030
:10094400F7108280910503A7C5FF11057D16232E9C
:10095400E5FEDDB737E700E01C43B706200023209F
:10096400D718F58F0F10000001C53307C50011E635
:1009740037E700E02320F71082800505A30FB5FEBA
:10098400E31DE5FEF5B781473307F50003070700CC
:1009940019E33E8582808507C5BF37E700E01C4325
:1009A400B70620002320D718F58F0F10000001C5CB
:1009B40099C1014711EA37E700E02320F710054504
:1009C40082800507E309E6FE3308E500B386E50007
:1009D4000348080083C60600E305D8FE37E700E0B5
:1009E4002320F710014582809307F6FFBE952A96CF
:1009F4006313C5008280FD1583C715000505A30F89
:100A0400F5FEFDB7AA87014581CF09CE3E9685073D
:100A140003C7F7FF6317B700E39BC7FE0545828052
:100A2400828001458280797197470000938787F41B
:100A340022D4804306D626D24AD04ECE52CC56CAB1
:100A44005AC85EC669C037C9C901014B974900003D
:100A54009389C9F11309F937174A0000130ACAF137
:100A6400974A0000938ACAEB97440000938484F564
:100A74008357240095E35C44631D0B001747000073
:100A8400232AF7EE832BC4002285EF00B0255E8471
:100A9400A9A82326FB00FDB783A7090082971C445D
:100AA4003307F5406375F500D8401D8F2A976361BD
:100AB400E9089747000023AD07E683552400034562
:100AC4000400974000E0E78000BA5C405844B9C78E
:100AD4000C44D040AE97BE8663E4B70063E4C7001D
:100AE400B386C74014C4228B3A8459F09747000058
:100AF400938707E39C4B09476373F708F917174774
:100B040000002327F7E2B250225492540259F249CA
:100B1400624AD24A424BB24B4561828063170B0052
:100B24009747000023A8E7E4B1BF2326EB0099BF51
:100B340003274A021DCF63E1A7043385A7408347F7
:100B4400040085E317470000034777E45917B30708
:100B5400A7003E85D44063E4E70063E4D70033850F
:100B6400D74083A70A016376F5009747000023A1C5
:100B7400A7DC228B404495BFD840BA977DBF9747E6
:100B8400000023A707DA41B797470000938707E3DC
:100B94009C4385C3411106C682979747000083C7CB
:100BA400C7DC89E79747000023AA07E0B240410168
:100BB40082809747000083C747DB91E7974700008F
:100BC40023AE07DE82808280411122C417440000D4
:100BD4001304C4D71C4006C626C24AC091C78297D4
:100BE4009747000023A407D69747000083C7D7F68A
:100BF400858B174900001309E9F589CF83477900EC
:100C040019476312F71097470000A38707F43D23A1
:100C14005C4482971C4491C3829797440000938458
:100C240024D5984017460000034696CF9747000006
:100C340083C707CF93961700BA9683D60600E5C2FA
:100C44009747000083C7C7CD63E5C70E97470000E9
:100C5400238807CC1C40639E0714974700009387A2
:100C6400E7D09C436387071497470000938787D591
:100C7400DC4317470000232DF7CA7533974700005C
:100C840083C7F7ED639707129747000083C717EDF3
:100C940091CF8347790093F7F70F89EB97470000CB
:100CA400A38E07EA974001E0E7804042974700009F
:100CB400938787CCDC53638E070E97470000938796
:100CC40027C69C4BFDC78347790015476363F70E1E
:100CD4009747000083C787ED918BE1EF97470000AA
:100CE40083C7A7C8F9E790409746000083C656C358
:100CF40063C7D70C2244B2409244024941011743CE
:100D040000E06700E3F7834779001D47E314F7F039
:100D140097470000A38207E415211C48DDBD850721
:100D240093F7F70F97460000238CF6BEE3E0C7F075
:100D340001BF86073E978355070023100700974796
:100D44000000239307C2974700009387E7BF9C43A3
:100D5400174500000345C5BC13172500BA979C43EB
:100D640082979747000083D727C01747000003479F
:100D740027BB93C7F7FF7D8D9317170098403E97C5
:100D8400835707005D8D2310A7009747000083C792
:100D940027B991C78507174700002303F7B81747FA
:100DA40000000347E7B79747000083C777B7E37F9F
:100DB400F7E8B240224492440249410182801397E9
:100DC40017003297035707006DF7850715B737C724
:100DD40000408326C720B707FCFFFD17F58F2326A5
:100DE400F7200100010097470000938767B3C84FBD
:100DF400832787262326D7206A0593C7F7FF99837D
:100E04005D8D8280011197470000938727E622CCED
:100E140003A4070C26CA06CE2AC42EC6854419E4A8
:100E24000145F2406244D2440561828083479100C7
:100E340003471400858B6304F7000044CDB71946BB
:100E44009305A10013052400893EE31895FE05458A
:100E5400C9BF0000EFF05FD3730000000000000082
:100E640097420000938262B0038302002380020051
:100E7400630F0300F32510342EC0970500009385FB
:100E8400A5FD73901534EF00E0507300203086DC2C
:100E9400EF004050E650828000001747000013071F
:100EA40027CB1443411122C49C5E4AC006C69983D1
:100EB40026C2858B3A8417490000130929C9D1CB6E
:100EC400930700069CDE17470000034707C99307F2
:100ED4000008974400009384E4C7631BF70083274A
:100EE40009009C4393F70704174700002307F7C63C
:100EF40083C7040093F707049DC3974700009387B3
:100F0400E7A69C4382979747000023A3A7C683C7FD
:100F1400040093F7F70B17470000230DF7C283C7AC
:100F2400440093F7070495E7854717470000A30596
:100F3400F7C297470000938767C49C4337070200B2
:100F440098C7130700FC974600002387E6C098481B
:100F5400F8D318401C5F9183858B8DC31C5F93E786
:100F640007011CDF97470000938747C19C4323A2D6
:100F740007068547174700002300F7BE83270900AB
:100F8400D8430583058B19C7D843759BD8C3D84369
:100F9400799BD8C3B24022449244024941018280E1
:100FA400ED3D730020309317D50063D307029747B4
:100FB40000009387A7BC9C437D57B8D79747000090
:100FC40093870796DC4F8507174700002328F79679
:100FD400937785009DCB9747000083C7C7B793E7F6
:100FE4001700174700002308F7B6930700F81747C0
:100FF40000002303F7B697470000938767B598432B
:101004005C57F19B93E717005CD7937715008DC766
:101014009747000083C717B493E7170017470000EA
:10102400A30AF7B297470000938787B298435C57A7
:10103400F19B93E717005CD79377650095CB937783
:101044004500174700001307E7B0CDCB83470700DF
:1010540093E7170017470000230EF7AE97470000E9
:10106400938707AF98435C57F19B93E717005CD7CE
:101074009317F50063D4070217470000034787C698
:10108400418B97470000938767BE51C383C7870787
:1010940093E70702174700002306F7C49317E500F8
:1010A40063D707029747000083C707ABE207E187CE
:1010B40063D70700854717470000230FF7A8974712
:1010C40000009387A7AB9C433707020098C7931788
:1010D400C50063D40702174700000347B7C0058B58
:1010E40097470000938787B829C383C7970793E777
:1010F400270017470000A307F7BE82808347370005
:1011040093E7170017470000A307F7A481BF03C79D
:10111400870789463D8B6308D70083C787070D4738
:10112400BD8BE39DE7F69147B5B703C79707118BCE
:1011340069D783C7970793E7870065BF9747000080
:101144009387C7A39443974700009387A7A003C737
:101154000700058B11CB97470000238F079E974705
:101164000000A38B079E828003C71700058B65F7D9
:10117400F85271FF83C75700DDB717470000130704
:10118400279D03280700832788039583858BADEF6C
:1011940011C683270803BD832300F6009DC61C43A4
:1011A400985B4607935767016356070093E707C0A8
:1011B400C207C18303970600C207C18709C7BA974C
:1011C4000947B3C7E7022390F6008DCD8345150088
:1011D40095C99747000083C7479893F70704138777
:1011E4009500894585C33A95834705000547994588
:1011F40093F6F7066398E600E207E187814563D337
:101204000700B9452E8582808545EDBF411122C472
:1012140006C626C2174400001304449645E1144050
:101224002E87FC52FDFF97470000238607929737CD
:10123400000093876774D453BE8495C6B7E700E073
:10124400B706200023A0D728B7F700E083A607D16C
:10125400ED9A23A8D7D083A607D193E6860323A8C3
:10126400D7D0730050103A85B285974001E0E780EB
:1012740040CD974700009387A78D9C43B706800015
:101284009843558F98C3D857719BD8D79747000078
:10129400A384078C97470000A38E078A1C40094744
:1012A40098C3DC5085CF37F700E0832707D193E755
:1012B40087002328F7D0730050100DA08D476315C5
:1012C400F504974700009387A7889C43B7068000DE
:1012D4009843558F98C3D857719BD8D71440174754
:1012E40000001307278783472700858B89EB8347F3
:1012F4003700858BC9CF97470000238F0784B240FE
:1013040022449244410182808547E319F5FC9737D2
:10131400000093876766D4533E8795C6B7E700E01D
:10132400B706200023A0D728B7F700E083A607D18B
:10133400ED9A23A8D7D083A607D193E6860323A8E2
:10134400D7D07300501014408177FD17D046F18F29
:10135400DCC60F1000001440B70702009CC69307B8
:1013640000F8973500002389F57E973700009387AE
:10137400277E9C439C439D83858B99C79307601963
:10138400FCD2D0C65C5339BF9307E01BD5BFFC52D7
:10139400B9FBB5B7973700009387477E9C438847CE
:1013A400D847798D09C988C79387819303A3070018
:1013B4006303030002838280973700009387077CCE
:1013C40098438967938707F47CD3974700009387F2
:1013D40027809C4383A6070913965600635806008A
:1013E40083A6070913966600634406007453FDF24E
:1013F40082804111B7E700E022C480433707200010
:1014040006C6798C23A0E7180F10000011C199E5D6
:10141400B7E700E023A0871001457DA893073500B6
:10142400C207C183F19BC207C183130740036369E9
:10143400F702174700001307E78208431747000025
:101444001307C78114436392A602173700001307DA
:10145400A752185B55DFC207DD8D054502974DBFC6
:10146400173700001307C77FC9BF035765002DEB6B
:10147400035745006366F706B306F7402146637CCD
:10148400D60203280500938687001D8FAA9661174C
:1014940017360000035626492392E60023A00601CE
:1014A4002393060014C12312F500130786FF973611
:1014B4000000239AE6462313B5009735000083D530
:1014C4008546B387F54017370000231EF744B7E776
:1014D40000E023A087102105B2402244410182800C
:1014E400084195B7B7E700E08C433707200023A0F5
:1014F400E718F98D0F10000001E523A0B7108280D2
:10150400973700009387077603A3070097370000F7
:101514009387C77483A8070081469A8763F2170DDF
:1015240003A807006361F50C636FA80A138787009B
:101534006368E50A03D66700216705076317E600B9
:1015440003C7019305072388E192173500001305AB
:10155400253D03D6470003576500239307003297C0
:1015640042074183173E0000231FEE3A638C670253
:10157400173300001303C36E032303006304F30251
:1015840003D366006310030283D7460023A0060139
:1015940021073E9621062392C60097370000239424
:1015A400E738B6879843630D170397360000938690
:1015B400266B94426306D7028356670095E283D66E
:1015C4004700035647001843A106B2962392D7005A
:1015D40098C383576500A107173700002315F73414
:1015E400B7E700E019BFBE86C2870DBF0327851188
:1015F400630407120346E50485466300061241119D
:1016040022C406C68347C5002A8493F7C70F23065E
:10161400F500834597000358C7001395850161853C
:1016240063700609635905060345870093F5F507BA
:10163400A304B70093E527006314D50093E51700CE
:101644002306B4005C4389075CC3A30AC4000325D2
:1016540004114C430905EFF0CFA8832784110346F6
:101664005401D44303D7C700B296118FD4C3239631
:10167400E7008947A30DF40003476403973700008C
:1016840083C7A7306377F7048347C40093E7070150
:101694002306F4003DA893E717002306F40075B76A
:1016A4001376F80F635D05020345870093E5270071
:1016B4006314D50093E517002306B400A30AC400FD
:1016C400A30407008547A30DF400832784119C43DA
:1016D400C5F7B2402244814636854101828093E7B2
:1016E40017002306F400A30AC400A304070003257B
:1016F40004114C4342860905EFF0AF9E8327841101
:1017040003465401D44303D7C700B296118FD4C300
:101714002396E7008D4745BF8546368582809737F7
:101724000000938767679C43411122C406C6858BDA
:101734002A84C5EF4165130525F5970002E0E7808B
:1017440000BD45C58347A5002315F5008327041272
:10175400BDE72320A4122322A41285472311F404F5
:10176400232005008347640154412316F5000347F1
:10177400D4002304E5000547A304E500173700005F
:101784001307473D58531385170215811C437D15D4
:101794001375F50F9CC25C43DCC21C479CC65C47B6
:1017A400DCC61C4B9CCA5C4BDCCA1C4F9CCE5C4FF9
:1017B400DCCE19CD9386060213070702C1BF832727
:1017C400441288C3835724042322A412850779B7BB
:1017D4009737000083D7074A850717370000231B74
:1017E400F748B2402244410182808347C400230960
:1017F4000400054593C747002306F400DDB783477B
:10180400850193F7E70FD5EF83479501DDEB034699
:1018140025018346C50009CA8345650317370000BF
:101824000347B71663E7E50013F7060141CF014705
:1018340009C6C18A0357651C81C68356A51C369701
:1018440051C31307C7121735000003552518B335C4
:10185400A70237460F00411113060624814622C40D
:1018640026C206C67D543305A702973002E0E780FE
:1018740020869737000083C79711B384A700973752
:1018840000009387A73E03A787098327070963F30B
:1018940087003E84184375FB973700009387070D34
:1018A4009C43829781476364A400B307A440B24079
:1018B4002244B3B7970093C7170092443E85410171
:1018C400828081473E858280973700009387072B6B
:1018D40098433C5BFDFF010001008280011122CC92
:1018E4004AC84EC606CE26CA52C456C25AC0034778
:1018F400B50085472A842E89832905096311F726B3
:1019040083570508835AC503173A0000130A8A0B44
:10191400173B0000035B8B0B63FB572183460501D8
:101924006397E62003278511631307200327450ADD
:10193400631F071E8346F5001D47639AE61E03478F
:101944001401B38AFA4013950A01418121CF937798
:10195400170099CB8357E40583560404958F63D508
:10196400A7001395070141819377270099CB8357EB
:10197400E41283560404958F63D5A70013950701D9
:1019840041819377070199CB8357C4148356040488
:10199400958F63D5A700139507014181218B11E32E
:1019A40011E105450357A4039307204E83244409FA
:1019B4003305A70237460F00814613060624330574
:1019C400F5029737000083C787FCB3549502B335FB
:1019D400AB02BE94C204C180231394083305AB0246
:1019E400972002E0E780C06EB307350133B5A70046
:1019F4002E953E8783264A0019E163E4D700338796
:101A0400D740B3846403B7460F009387F6239386C5
:101A140006242320E900A697B3D7D702D69763629A
:101A2400F7101D8F2320E90097390000938909F4EA
:101A340083A7090083240900829763E5A4123385F0
:101A4400A4406354050C83A7090082970327090067
:101A54006361E512198D8357E403173700000357B8
:101A6400E7F68E07B387E702130700329387071957
:101A7400B3D7E70263E7A710374A0F00130BFA2323
:101A8400973A0000938A0AF4130A0A248357040439
:101A940085072310F4048347041499E3228559220B
:101AA400228597E001E0E780007A75E9832604093E
:101AB4008327C40803A74A00B6973E8563E4D7008A
:101AC40063E4E7003385E7408347F4018354640803
:101AD4002328A4088507A30FF4009737000083D7B1
:101AE400E7EEB384F402DA94B3D444036368950C48
:101AF400B304954083A7090023209900829763E3E8
:101B0400A40C3385A440E34305F89737000083C74A
:101B140017E863E7A7089737000023A9871E014544
:101B240041A083264A00B387F6403E97E5BD83541F
:101B3400640837470F009307F723B3846403BE9404
:101B440093070724B3D7F40263E7F900B387F94096
:101B54002320F900D1BD03274A00BA99C5BF23A0A9
:101B64003501D9B5973700009387C7E5DC43BE94A8
:101B7400F9B5973700009387E7E4DC43998F3E95E6
:101B8400D9BDA145228597E001E0E780A064A305C3
:101B9400A40297370000938727DE9C5B81EF7D5575
:101BA400F2406244D2444249B249224A924A024B28
:101BB40005618280894515458297D5B7B30497405E
:101BC400AA940DBF83A74A00BE9425BF39C9011149
:101BD4006C0022CC06CE2A8411331DCDFD5763023E
:101BE400F502B2479735000083C575DA63EFB70095
:101BF40003459402B385B7402EC6973000E0E780D2
:101C040020BEF2406244056182801737000013074A
:101C140067DB5843BA97E9BF97F001E0E7802020DB
:101C2400CDB78280797126D206D622D44AD04ECE40
:101C340052CC56CA5AC85EC683475503034475132B
:101C4400AA843E941374F40F9307400263F687004A
:101C54001304B4FD1374F40F03AA841383AAC413E6
:101C6400A38B841222865285D685972002E0E780D2
:101C74002003058915E503CBD41201498149337B3F
:101C84006403930B50024A865285D685972002E05E
:101C9400E7800001058915C5639169031374F90F81
:101CA400238B8412B250225492540259F249624A4C
:101CB400D24A424BB24B456182808509E20993D9ED
:101CC40089410509E31179FDE1BF8327850903569D
:101CD4000504797193D60701BD8EC206C182358E83
:101CE4001357764093575640898B058B5D8F9357D6
:101CF4003640918B5D8F93571640A18B5D8F931760
:101D04001600C18B5D8F9317360093F707025D8F22
:101D1400931756009355860093F707041E065D8FAC
:101D24001376F60F518F93D7554013D63540118A49
:101D3400898BD18F13D67540D18F13D61540218A44
:101D4400D18F13961500418AD18F139635001376DF
:101D54000602D18F13965500137606049E05D18F83
:101D640093F5F50FCD8FA20745465D8F3307C70264
:101D740022D42A8426D252CC56CA032A8413832A14
:101D8400C4135AC806D636974207418393577740FF
:101D9400135557400989858BC98F135537401189CD
:101DA400C98F135517402189C98F1315170041890D
:101DB400C98F1315370013750502C98F1315570002
:101DC40093558700137505041E07C98F1377F70F02
:101DD400D98F13D5354013D755401189098B498FB5
:101DE40013D57540498F13D515402189498F139513
:101DF40015004189498F1395350013750502498FE4
:101E040013955500137505049E05498F93F5F50F39
:101E14004D8F2207D98FB387C7024AD04ECE5EC6F4
:101E240062C4B697C207C18313D7774013D557400E
:101E34000989058B498F13D537401189498F13D5EB
:101E440017402189498F139517004189498F1395AC
:101E5400370013750502498F1395570093D58700F2
:101E6400137505049E07498F93F7F70FD98F13D580
:101E7400354013D755401189098B498F13D57540C7
:101E8400498F13D515402189498F13951500418930
:101E9400498F1395350013750502498F1395550025
:101EA400137505049E05498F93F5F50F4D8F220791
:101EB400D98FB387C702130650025285D685B697C9
:101EC400BD8E93940601C18033F6C402137BF60FD2
:101ED400972002E0E780C0DC05890DED8347D4122A
:101EE40001498149B3849702130C5002C1804A8688
:101EF4005285D685972002E0E78080DA0589937BB6
:101F0400F90F11C563863403850993F9F90F05099F
:101F1400E31F89FD230B6413B250225492540259D7
:101F2400F249624AD24A424BB24B224C456182800A
:101F34005E8BCDB7011197370000938727D322CC4E
:101F440003A4870C26CA4AC84EC606CEAA8413091F
:101F54002500854915C083C7140003473400858BC9
:101F64006304F700405CFDB71946930544004A85B5
:101F7400EFE0BFA2E31835FF2285F2406244D24469
:101F84004249B24905618280411197370000938725
:101F9400E7CD22C403A4870C26C24AC006C6930414
:101FA4002500054901E82285B240224492440249B1
:101FB40041018280A6851305A402970002E0E78010
:0C1FC400C044E30225FF405CF1BF0000B8
:101FD00097110020938101B31751002013018182D2
:101FE0001305400097E5FF1F9385C50117060020E4
:101FF000130606FE63FAC5008322050023A05500E0
:1020000011059105E3EAC5FE174502001305853A5F
:10201000970500209385C5FB1386818663FAC5006A
:102020008322050023A0550011059105E3EAC5FEB2
:102030001385818697350020938585D76377B50012
:10204000232005001105E36DB5FEFD42739002BC2F
:102050008D4273904280930280087390023097E221
:10206000FF1F938222FA93E232007390523097223C
:1020700000009382620873901234730020303D4355
:102080002A876373C3029377F700BDEFADE59376BC
:1020900006FF3D8ABA960CC34CC30CC74CC7410718
:1020A000E36BD7FE11E28280B306C3408A06970233
:1020B000000096966780A6002307B700A306B70026
:1020C0002306B700A305B7002305B700A304B70094
:1020D0002304B700A303B7002303B700A302B7008C
:1020E0002302B700A301B7002301B700A300B70084
:1020F0002300B700828093F5F50F93968500D58D68
:1021000093960501D58D61B793962700970200003D
:1021100096968682E78086FA9680C1171D8F3E9636
:10212000E374C3F8A5B7B717004003C77705137763
:10213000E70FA38BE704130700F8A38DE7043D47DF
:10214000238CE70413075003A38CE70403C7A705F8
:102150001377D70F238DE7048280B717004003C79A
:10216000E7020D8941111377C70F498F9306800845
:10217000F3B6068093F6860836C60F100000930665
:1021800070052380D704930680FA2380D7040F10AC
:1021900000002387E70223800704B247F3A70780E4
:1021A0000F1000004101828041112A83014E930EDD
:1021B000407E130F0019930F400663E56E129308DB
:1021C000001913034006B3781503854E0D4FA14F38
:1021D000337365020D891335150063EFBE121308C2
:1021E000F6FF794672984208135808013307C70270
:1021F00013D61700BE0732976146B3F6C602130620
:102200008070B386C6023697A166F58F42075D8F50
:10221000B716004083C7F60293F70708A303F1003F
:102220000346710083C7F60293F70708E394C7FEDD
:1022300083477100B716004093F7F70F63880712C2
:1022400093078008F3B7078093F787083EC40F1001
:102250000000B7170040930670052380D70493064B
:1022600080FA2380D7040F10000023AA070383C637
:10227000170393E60608A388D70223800704A24722
:10228000F3A707800F1000001166B71700407D16F6
:10229000D45BC85F93854703A98EF18EF5FA930648
:1022A0008008F3B6068093F6860836C60F10000045
:1022B000930670052380D704930680FA2380D70401
:1022C0000F10000098C103C7170313670704A38802
:1022D000E70223800704B247F3A707800F1000002E
:1022E000410182807D133368E3039308E016630E97
:1022F00008003368F3039308D01663080800937846
:10230000330093B818009388D81633081E01131EA3
:102310000801135E0E0155B56393E5030548638616
:1023200008000148630303002A8871087298FD15AC
:10233000131E0801C205135E0E01C18179BD13F899
:10234000150063F4BF007908D5B713381800E5BF4E
:1023500083C7F60293F70708A303F1000346710051
:1023600083C7F60293F70708E394C7FE834771001B
:1023700093F7F70FF1DFE9B531714AD966CB06DF84
:1023800022DD26DB4ED752D556D35AD15ECF62CD51
:102390006AC96EC7AA8C02D8EF00901C2A899307DD
:1023A0008008F3B7078093F787083EDA0F10000024
:1023B000B7170040130770052380E704130780FA5E
:1023C0002380E7040F10000003C7F7021377770F8D
:1023D000A387E70203C7F70213678700A387E70213
:1023E00023800704D257F3A707800F10000005458C
:1023F000AD33130780C13347E902116A93070AE836
:1024000093065002BD69930BA004814A014B13044B
:102410008008930470057D1AB347F9023307D70289
:102420003EC0FD873ECC938709A69309803E334783
:10243000F7023AC27D873AC4334739038549B399D5
:10244000990193D93940B306D702B30B7703B3C6CA
:10245000F602B3CBFB0236C6FD8636C893D6FB41E7
:1024600036CEB7460F00938606243349D9028566D7
:10247000938606FAB3969601B389E9021307805250
:102480003309D90293060010B389E9023349D9020E
:10249000B3C9F9029316390036CA37190040FD86D0
:1024A00036D0930D090493D7F9413ED2F336048018
:1024B00093F6860836DC0F10000093077005238022
:1024C000FD00930680FA2380DD000F100000834694
:1024D000390593F6860FA309D9048346390593E697
:1024E0001600A309D90423800D00E256F3A6068046
:1024F0000F100000130C80FA116DF336048093F670
:10250000860836DE0F100000930770052380FD005B
:1025100023808D010F10000083463905216693E664
:102520000602A309D90483560905B3E6A6012318B8
:10253000D90483560905D18E2318D90423800D00B0
:10254000F256F3A606800F1000008346390593F675
:102550000602638A061803463905218A6DDE0818CB
:10256000EF0010047336048013768608B2C20F1091
:10257000000023809D0023808D010F100000B717FD
:10258000004003C637051376F60DA389C70403C6BA
:10259000370513660602A389C70483560905216619
:1025A000B3E6A6012318D90483560905D18E231852
:1025B000D90423800D009646F3A606800F10000074
:1025C0008346390593F60602638606148346390569
:1025D000A18AEDFE97E0FF1FE780E0ABAA8636D424
:1025E00097E0FF1FE78020ABA256E30AD5FE835693
:1025F00009054255B3E6A6012318D904D12783461D
:102600003905A18AEDDE035609058346290582476F
:102610003376CA00B306DA0293D5F641B296B38890
:10262000F640E24733B8C6002E983308F840A24778
:10263000B3B616013308D84063C70701631DF8001D
:10264000924763FA1701C247634DF80E639507017D
:10265000B24763E8F80E894663E7660FF2469315C2
:10266000180013D3F8015E8613951800B365B30004
:1026700042D646D4EF1002683258050B137BFB0F8D
:102680006347000163120838A258638F08361308A5
:102690001500B336A800B69513D6F5013298B336B7
:1026A000C800AE9613581800FE06B3E6060173364E
:1026B000048013768608B2C60F10000023809D00A8
:1026C00023808D010F1000000356C902B296C20686
:1026D000C1822316D90223800D00B646F3A60680D8
:1026E0000F10000019BDF336048093F68608B6C0BB
:1026F0000F10000023809D0023808D010F1000002B
:102700008346390593E60602A309D90423800D0008
:10271000864605BDF336048093F68608B6C40F10CE
:10272000000023809D0023808D010F100000834650
:10273000390593E60602A309D90423800D00A646B5
:10274000A5BDE30D0BF0F336048093F68608B6C8FA
:102750000F100000930680FA23809D002380DD0087
:102760000F1000008346390593F5FC0F93F6860F92
:10277000A309D90483463905CD8EA309D904238042
:102780000D00C646F3A606800F100000130580FA60
:1027900003463905930639051D8A63149629733655
:1027A000048013768608B2CC0F100000130680FA5E
:1027B00023809D002380CD000F10000003C606007B
:1027C0001376F60D2380C60003C6060013660602C4
:1027D0002380C600835609051166D18E2318D904BB
:1027E000835609052166D18E2318D90423800D0054
:1027F000E646F3A606800F100000130680FA834613
:10280000390593F606026388062483463905130CBE
:102810003905A18AFDDA08186123F336048093F69E
:102820008608B6D00F100000930680FA23809D0022
:102830002380DD000F10000083460C00116693F624
:10284000F60D2300DC0083460C0093E6060223000D
:10285000DC0083560905D18E2318D9048356090557
:102860002166D18E2318D90423800D008656F3A645
:1028700006800F100000130680FA8346390593F690
:1028800006026385062083463905A18AEDFE97E09E
:10289000FF1FE78040802A8C97D0FF1FE780A07F32
:1028A000E30C85FF8356090511664255D18E231826
:1028B000D90439238346390513063905A18AFDDA7F
:1028C000F336048093F68608B6D40F100000930602
:1028D00080FA23809D002380DD000F1000008346D6
:1028E000060093F6F60D2300D60023800D00A656B1
:1028F000F3A606800F10000083560905034629053C
:10290000D247B376DA003306CA021305800C93551A
:10291000F6413696330DF6408257333CD6002E9C56
:102920003336A601330CFC40330CCC40330885030E
:1029300092564E86B335A5033305A503C295EF1015
:10294000623B63468001631E0C16630C0D16130672
:1029500015003335A6002E959356F5013696B335FE
:10296000D600AA959396F50105828585D18E63469A
:10297000B000639D051A638B061A0356C9021582BF
:102980003305D6003336C500B2956348B000639175
:1029900005241306F00F637DA622894663F35615BE
:1029A00093078008F3B7078093F78708BED60F1008
:1029B000000037170040930770052300F7049307C2
:1029C00080FA2300F7040F1000008356C7028967BE
:1029D0008117D58FC207C1832316F702230007048E
:1029E000B657F3A707800F100000FA506A54DA5464
:1029F0004A59BA592A5A9A5A0A5BFA4B6A4CDA4C23
:102A00004A4DBA4D296182801308F5FF3335A8007D
:102A1000FD152E951356F5013298B336C800AA96C7
:102A200051B1F336048093F68608B6CA0F10000041
:102A300023809D002380AD000F10000083463905E0
:102A4000CD8EA309D90423800D00D646F3A60680B7
:102A50000F10000035BBF336048093F68608B6CE1F
:102A60000F10000023809D002380CD000F10000078
:102A70008346390593E60602A309D90423800D0095
:102A8000F646F3A606800F10000095BBF3360480CF
:102A900093F68608B6D20F10000023809D00238095
:102AA000CD000F1000008346390593E60602A30906
:102AB000D90423800D009656F3A606800F1000005F
:102AC0006DBB9306F5FF33B5A600FD152E95935506
:102AD000F501AE96B3B5B600AA951396F5018582B9
:102AE00069B5F336048093F68608B6D80F10000057
:102AF000930680FA23809D002380DD000F100000E4
:102B00008356C9020566011693F6F60FD18EC206EA
:102B1000C1822316D90223800D00C656F3A6068073
:102B20000F100000850A93FAFA0F49B233E6B60097
:102B300045C20356C9023305D0403338A000B3055F
:102B4000B040B385054115826345B000D1E16371A2
:102B5000A608894663F0560593078008F3B70780F7
:102B600093F78708BEDA0F100000B717004013076D
:102B700070052380E704130780FA2380E7040F1011
:102B8000000003D7C7027D8B2396E702238007044A
:102B9000D65781BDF336048093F68608B6DC0F1055
:102BA0000000930680FA23809D002380DD000F1033
:102BB00000008356C9020566011693F6F60FD18E02
:102BC000C206C1822316D90223800D00E656B9B78A
:102BD00093078008F3B7078093F78708BEDE0F10CE
:102BE000000037170040930770052300F704930790
:102BF00080FA2300F7040F1000000356C7029397D2
:102C00005600B297C207C1832316F70223000704B8
:102C1000F657C1BB914763EEB7021737020013079F
:102C200067C58A05BA959C41BA978287B717004055
:102C300003A7470B1345F5FF698F23AAE70A03A7EC
:102C4000070B698F23A8E70A03A7070A798D23A03A
:102C5000A70A8280B717004083A6470B1347F5FFEA
:102C6000F98E23AAD70A83A6070B558D23A8A70A96
:102C700083A6070A758F23A0E70A8280B717004052
:102C800003A7470B498F23AAE70A03A7070B13459E
:102C9000F5FF45BFB717004083A6470B1347F5FF65
:102CA000758F23AAE70A03A7070A598D4DB7B717EF
:102CB000004003A7470B498FEDB7914763EEB7027A
:102CC00017370200130747BC8A05BA959C41BA978B
:102CD0008287B717004003A7470D1345F5FF698F9B
:102CE00023AAE70C03A7070D698F23A8E70C03A706
:102CF000070C798D23A0A70C8280B717004083A60C
:102D0000470D1347F5FFF98E23AAD70C83A6070DAD
:102D1000558D23A8A70C83A6070C758F23A0E70C5D
:102D20008280B717004003A7470D498F23AAE70CFD
:102D300003A7070D1345F5FF45BFB717004083A64E
:102D4000470D1347F5FF758F23AAE70C03A7070C60
:102D5000598D4DB7B717004003A7470D498FEDB701
:102D6000B71700408847420541819377050491EBEE
:102D70009377F5013755E801130505803345F502D2
:102D800082809377050C130700046397E70093771D
:102D9000F50137459C1CCDB72165130505D0828010
:102DA00037E700E01C435443A183E206D58F1CC1E2
:102DB000FD572320F7182322F7180F1000008280F8
:102DC00013178500B7E700E023A0E710618123A275
:102DD000A7108280B7F700E08847CC478280814700
:102DE00037370040A14663C4C7003285828003455F
:102DF000B740E38EA6FE3385F50003450500850741
:102E00002304A740CDB797F7FF1F9387A74F9C4395
:102E1000172700201307C7F93E95636EE5001737A3
:102E200000201307277E6368A70017F7FF1F232BD7
:102E3000A74C3E858280FD57EDBF411122C406C6D6
:102E40002A84393F2947B307E502B2408D83B3D7BF
:102E5000870222449507B3D7E70237370040C207FD
:102E6000C1832316F740410182807165411113052A
:102E7000052006C6D937B7370040130770F82381FD
:102E8000E7400D47A381E74013070004A380E74014
:102E900005472387E740B24041018280CC41411180
:102EA00006C6328503C6150083C5050022064D8E71
:102EB00042068D654186138875A2630C060F634830
:102EC000C804138845A26306060B634AC8009385AD
:102ED00035A26309B60623900600294679A0138817
:102EE00055A26308060B938565A2E316B6FEC1459D
:102EF0001D4663ECE5064546198E63F3C7003E8622
:102F00002390C600973502009385459A89A81388B7
:102F100095A26300060F634E060B1388A5A2630AF1
:102F2000060F938505A5E318B6FA99451D4663EE8D
:102F3000E502198E63F3C7003E862390C600938591
:102F4000C18031A89D451D4663E1E5022146198EE9
:102F500063F3C7003E862390C60093858186BA95A9
:102F600097E0FF1FE78020980146B240328541017B
:102F70008280AD451D46E3EAE5FE3146198E63F3D6
:102F8000C7003E862390C600973502009385C595FD
:102F9000F9B7B1451D46E3EAE5FC3546198E63F302
:102FA000C7003E862390C600973502009385C594DE
:102FB0007DB7C1451D46E3EAE5FA4546198E63F340
:102FC000C7003E862390C600973502009385458F43
:102FD00079B7C1451D46E3EAE5F84546198E63F326
:102FE000C7003E862390C600973502009385C591A1
:102FF000BDB7C1451D46E3EAE5F64546198E63F3C4
:10300000C7003E862390C600973502009385858CC5
:10301000B9B7B5451D46E3EAE5F43946198E63F3C1
:10302000C7003E862390C60097350200938505872A
:103030003DB797F6FF1F9386A60C4146CD4517F581
:10304000FF1F1305E5F86F90600111456FF0CFB2D7
:10305000411193962500AA852D4506C697D0FF1FDE
:10306000E7806049B240014541018280011122CCD4
:1030700006CE3714004026CA4AC84EC652C48344FE
:103080007405034AB4058349840503499405EFF0A8
:103090008F898347A40593F4F40F137AFA0F93E70B
:1030A0001700230DF40493F9F90F1379F90FB717EB
:1030B000004003C7A705058B6DFF03D5C705A38D8A
:1030C0004705238C3705A38C2705A38B9704F24073
:1030D0006244D2444249B249224A05618280411188
:1030E0009397050122C406C6C1872E8463DD0700BD
:1030F000EF10401719C1EF10C00A2165218DB240B1
:1031000022444101828093F7150013C51500E5FBA9
:1031100093F7250013C52500FDF39397250163D090
:103120000702EF20C15E153737F60200130606E0EE
:10313000896503C54187EF1060720965C1B7939730
:1031400015010145E3DD07FA1735020013058581F6
:10315000EF10E25013060064916503C54187EF103C
:10316000E06F116561BF2D71232A9110FD74E98C08
:10317000232C811023282111232631112A84AE8982
:103180003289930600100A86A6852D45232E11103C
:1031900097D0FF1FE78020361315440151810A059F
:1031A00013962900CA850A9597D0FF1FE780A07360
:1031B000A68585660146254597D0FF1FE780A03389
:1031C0000A86A68593060010294597D0FF1FE78041
:1031D00080328320C11103248111832441110329EA
:1031E00001118329C11015618280B7F7070003C759
:1031F0000701411106C622C426C24AC0A547631A68
:10320000F7009537B24022449244024901454101FA
:10321000828013942500AA843289A286AA85014659
:10322000254597D0FF1FE780002DA2864A86A685F8
:10323000294597D0FF1FE780002CE9B71D7149464B
:10324000972502009385856D17350200130585BB10
:1032500086CE97D0FF1FE780807401E91725020012
:103260001305056DEF10A23F01A0B7F600E07957F6
:1032700098CAFD57DCCA0567B7E700E023A0E7104E
:103280001306F00290C223A0E7180F10000017E702
:10329000FF1F130727BD23A8E1864157A38AE740F4
:1032A000130600048145080897D0FF1FE780C06A15
:1032B000970700209387C7E13EC8896793870780F7
:1032C000231AF1009D673ECCB707010593870710CD
:1032D0003ECEED472310F10285472301F102970707
:1032E0000000938727D7BEC297070000938727F077
:1032F000BEC48567938757D12312F1029707000058
:10330000938787AD3ED8B7F50700970700009387EE
:1033100027D63EDC814697070000938747D33000CD
:10332000E10519453EDE97D0FF1FE780C01C180855
:103330008147994630003E960346060085070507FB
:10334000A30BC700E398D7FEC24791C703574101BB
:1033500085676373F70001A08307410263D7070401
:1033600093078008F3B7078093F787083EC40F10D0
:103370000000B7170040130770052380E704130708
:1033800080FA2380E7040F100000B847B70610004A
:1033900013670718B8C79853558F98D3238007042D
:1033A000A247F3A707800F1000000808EF10D035E0
:1033B000AA8501C9172502001305C558EF10E215AB
:1033C00001A0F64025618280411117050000130518
:1033D00045D106C622C4EF10702F13844187230005
:1033E000A4001928034504002244B2401306003209
:1033F000896541016F108046797106D613078008F0
:10340000F337078093F787083EC20F100000B71705
:103410000040930570052380B704130680FA2380CB
:10342000C7040F10000083C6F70293F6A60FA38708
:10343000D702238007049246F3A606800F100000EF
:1034400073370780137787083AC40F100000238072
:10345000B7042380C7040F10000003C7F7021367E7
:103460002700A387E70223800704A247F3A707806A
:103470000F1000000545EFE05FCEC13E81470147D8
:103480008146054685451305407EEFE0FFD1680083
:103490005146814597D0FF1FE780004CB707C0A871
:1034A0003EC8B787E803938707D03ECA680097D71E
:1034B000FF1F938787F13EC6EF10F058B250456169
:1034C0008280797126D206D622D44AD04ECE52CCF2
:1034D00003C88500A144137808026311080683C855
:1034E000050009482E848144639A080503A8450015
:1034F000AA89328A83471800034808003689A20740
:10350000B3E70701C2070D68C187130828906380DD
:10351000070581440357A40097F7FF1F83D7A7C46B
:10352000631EF7009387C1879C4389CB0D473AC23E
:103530002316210152C44C004E858297B25022546A
:10354000268502599254F249624A45618280854734
:10355000EF609074AA845DFD9387C187984355DB23
:1035600083471A0083460A004C00A207D58FB33761
:10357000F00085073EC24E85029769BF01111725ED
:1035800002001305653E22CC2EC6328436C406CE18
:10359000EF10E20CB2458947A24603C60500631945
:1035A000F602D8418347170003470700A207D98FC7
:1035B000C2070D67C18713072790639BE700CC45BF
:1035C0002390C6002285094697D0FF1FE780A031CF
:1035D000F240624401450561828041677917630CBE
:1035E000E502411122C406C685472A84639AF50084
:1035F00022852244B2409385419841016F80F0308A
:1036000089476396F5008545EFA0506C75D1B240AF
:103610002244410182808280411126C2AA844165F0
:10362000938541987D1506C622C4EF80102E17059C
:1036300000001305C5FAEFA0B06097F6FF1F938650
:10364000E6B24146994517F5FF1F130525ACEF80FB
:10365000F0202A8419C5172502001305A531EF10A3
:1036600002002285B240224423AE91869244410159
:10367000828041119385419806C6EF60B05CB240EC
:103680007D151335150041018280411122C42E841D
:103690009385419826C206C6AA84EF60B05A058970
:1036A00015C197F7FF1F938767A683D7A702A28547
:1036B000B2402310F4002244268592440146410181
:1036C0006F703035B24022449244494541018280B6
:1036D00083572500035505003385A74042054181E6
:1036E0008280AA8705C21307F6FFB376C700054597
:1036F00099EA23A00700CCC32394C7002395E700D1
:103700000145828005458280035705008356A50048
:10371000AA873376D70054410507B29603C5060041
:103720002390E7008280232005008280AA8711452C
:10373000B5C72DC683D6070003D787000D4536973A
:1037400083D62700158F4207418329CB0145B9C590
:10375000835606006373D700BA86C206C18201474A
:103760001315070141816366D5002310D60001457A
:1037700082803385E5008348050003D8A70003D580
:103780002700050733780501C8434295230015013A
:1037900003D5270005052391A700D9B78280AA8702
:1037A0001145B1CF29CE83D6070003D72700158F47
:1037B00083560600420741836373D700BA86C20668
:1037C000C18209450DCF01476366D7002310D6009B
:1037D0000145828003D5070003D8A700337805018F
:1037E000C8434295034805003385E50005072300DB
:1037F000050103D5070005052390A700F1B78280D6
:103800002A86B305B040172502001305652D6F0009
:10381000D2509C41011106CE22CC09476389E702B0
:103820000D476386E7040547639FE700AA851725D0
:1038300002001305E520EF00524E9305000403C576
:103840009181EF10202CF240624405618280AA85AC
:103850001725020013054521EF00324C13060064C2
:103860009305000403C59181EF00507FE9BF2E84CA
:1038700083D585001725020013058521EF00F24945
:10388000835784004C401306E1001385013A231747
:10389000F100693D094693050002E9B783D78189A4
:1038A0006390A702239DB188239EC188239FD1885E
:1038B0002E86172502001305251FBE856F00F245D1
:1038C000172502001305C51F6F00725903574500E5
:1038D000011106CE83D781896313F704C167F917F5
:1038E00023ACF18823AE0188854785451306F10096
:1038F00013055030A307F100EF8021043717004073
:103900008327870A9305000493E707012324F70A16
:1039100003C59181EF10001FF240056182801725D9
:1039200002001305A508EF009253FDB73D897D15F0
:10393000954763EEA712172702001307A7050A058C
:103940003A951C41011122CC06CEBA972E8482876B
:103950002C0013054030EF70916A2C000545EF50A4
:1039600020781725020013052519EF00524FE1A812
:1039700003C7250099476314F7002E85813F17255B
:10398000020013056518D5B703C725009547631CCA
:10399000F70AC16703D78189F91703D5A500630F1B
:1039A000F700EF80612B172502001305E516EF00E5
:1039B000124B172502001305A51845BF239CA188AB
:1039C00083D7E500096613060690239DF18883D707
:1039D000050103C59181239EF18883D72501A14567
:1039E000239FF188EF0090670356E4008355A400FD
:1039F0001725020013058513EF00323237170040F8
:103A00008327C70A93E707012326F70A5DB717251F
:103A100002001305A51391BF83C525009147639745
:103A2000F500172502001305E51381B79947639048
:103A3000F5022285613D83456400172502001305C8
:103A40002514EF00922DF240624405618280954773
:103A5000639AF50083471400E9F717250200130560
:103A6000E51321B7172502001305C513D9BF8280BE
:103A70000111130600209385C13A1385C15A06CE61
:103A800022CC26CAB93905661306068097F5FF1FB2
:103A9000938545C11385013AA93117050000130527
:103AA0004526EF10A04293849181994705442380D5
:103AB000A4002315F100130691009307803E85456D
:103AC000130550302316F100A3048100EF70F16656
:103AD00017E6FF1F1306866CED4513057030EF7077
:103AE000D1651386C1819D4513056030EF70F16487
:103AF0001306A100894513051031EF7011647000A1
:103B0000894513052031EF7051639305000A0D4577
:103B1000EF3040489305000A1145EF30A047700090
:103B2000914513057040A303810023048100A30481
:103B3000810002C623050100EF60B1181306710071
:103B4000854513050040EF60D1173000854513050A
:103B50001040EF6011171306A100854513052040A2
:103B6000EF60311613069100854513055040EF6054
:103B700051157D55EF60400F7D55EF80E055EFF01A
:103B80004FCB17050000130505C9793417E6FF1F51
:103B90001306465FD5450145EF50B07BC1671387DB
:103BA0008189F9171CC32322070013854188EF5030
:103BB000C15F03C504008545EF00B02AF2406244AE
:103BC000D24405618280014781476344B7003E8546
:103BD0008280B306E50083C606000507B69793F713
:103BE000F70FE5B7630F060C797152CC2A8A13855B
:103BF000760006D622D426D24AD0AE8436894ECE5E
:103C0000B289CD2B930730032300F500A301950063
:103C10009307C0FC930465002A84A300F5004A863C
:103C2000A30225012301450123020500CE85268537
:103C300097D0FF1FE78020CBCA94B385844093F5CB
:103C4000F50F228549372380A4008504818C93F4E5
:103C5000F40F1306E100A2851385C15A23179100C2
:103C6000F1348355E10017250200130565DB81441B
:103C7000EF00B20A17290200130909DC8357E1009B
:103C800063E6F4022945EF00520D0946C14503C51C
:103C90009181EF00B03C22852923B25022549254E6
:103CA0000259F249624A014545618280B307940096
:103CB00083C507004A858504EF00320693F4F40FAC
:103CC00075BF0545828001CD834705003717004049
:103CD00085C38327C70A93E707022326F70AB71786
:103CE000004003A5470A1581134515000589828008
:103CF0008327870A93E707022324F70ACDB71D71AC
:103D000093970501A2CC86CEA6CACAC8CEC6D2C495
:103D1000D6C2DAC05EDE62DC66DA6AD86ED6C187E9
:103D20002E8463D8070203C591812D2B11C19529DB
:103D30002165218DF6406644D6444649B649264A57
:103D4000964A064BF25B625CD25C425DB25D2561D5
:103D5000828093F7150091CF17E6FF1F1306C64127
:103D60009385419903C59181EF7091091345140022
:103D7000D1B793F7850099CF83C791811307400688
:103D800081465146A14503D58189EF70D102134583
:103D900084004DB793F70501638007189387C182AC
:103DA0009C4385446389970081C70D496377F91067
:103DB0001345040141B703D58189EFF09F8B03D7E9
:103DC000818911E9C167F917E314F7FE1385C15A18
:103DD000EFF07F95F1BF3A85EF10B05A751523903B
:103DE000A18A1385C15AEFF0BF8E83D7018A636F12
:103DF000F5081385C15AEFF0BF8DAA85172502007B
:103E0000130545BBEF0062711386018A9385815BC0
:103E10001385C15AEFF0BF981375F50F23A60188DB
:103E200041F903D6018A01478146ED4503D58189D1
:103E30002399C188EF60001B23AAA188630A050C9F
:103E400003D621899385815B97D0FF1FE780A0A9C6
:103E500093850189014603D58189EFF01F83AA85E7
:103E600039C5172502001305E5B5EF00026B8D4734
:103E700023A6F182ED4513850189EF60602E094686
:103E8000C14503C59181EF00701D1DB79384C188A2
:103E90009840A947E3EAE7F61146C14503C5918179
:103EA000EF00D01B9C40850723A6F18811B78547FA
:103EB00023A6F1822390018AD9B703D6018A01474C
:103EC0008146ED4503D581892399C188EF60801132
:103ED00023AAA18815CD03D621899385815B97D02C
:103EE000FF1FE78040A093850189014603D58189A2
:103EF000EFF0AFF9AA8511C917250200130545ADEA
:103F0000EF00A26123A62183B5B723A691825DB7F6
:103F1000894723A6F182A5B793F7050263830710AB
:103F20001389013A93894182130AF01F994A130BAE
:103F3000B00B930B4004172C0200130C2CAA4A85DB
:103F4000EFF00FF911E52394018213450402DDB36C
:103F500083D781826363FA0C83A409004A85BE94E7
:103F6000EFF08FFA83D749002380A4008507C207AA
:103F7000C1832394F182E3F4FAFC83AC090003C704
:103F80000C00E31E67FB03C71C00E31A77FB93F4E6
:103F9000F70F9385F4FF93F5F50F66852D31B38701
:103FA0009C0083C7F7FFE39CA7F803CD2C0083C7D1
:103FB0003C006285EA853EC683C44C0083CD5C002C
:103FC000EF00A255B24717250200130525A2BE85B2
:103FD000EF00A25493958400B3E5B50117250200C4
:103FE000130505A2EF00625385476315FD0283C5E3
:103FF0006C00172502001305A5A1EF0002521385DE
:104000006C00D131A30FA10085461306F10185454F
:104010000545C93E239401821DB74A85EFF0AFF0F4
:10402000D5BF93F70504B9C3B717004083A7470A64
:1040300085461306F101958393C71700858B854547
:104040000545A30FF100793E85461386318A8545E3
:104050000945493E05661306062C9305000403C571
:104060009181EF00A07F13450404E9B193F705089F
:104070000145E38107CC85461386318A854509458C
:104080009536134504087DB1B717004083A7470C48
:104090004111C18B3EC685476319F50083D7018363
:1040A00089E7930740062398F18283D7018395CB54
:1040B000324705EBFD17C207C1832398F18203C580
:1040C000218A05476315E50081EB41018280930752
:1040D00040062398F18205452381A18A1305F00F3C
:1040E000EDB7B2471305F00FE5DB930740062398C1
:1040F000F182DDB741111305800406C622C497C0C2
:10410000FF1FE780C0FA371400408327840A8D45DB
:104110001305002093E707202324F40AEFE09FAF64
:10412000EFE0BFD4172502001305C5CDEF002253E1
:104130008D4513050003EFE0FFAD8327840A854515
:10414000414593E707032324F40AEFE01FB7EFF09C
:10415000EF8EEFF06FA7EF707132EFF07F9197C0A5
:10416000FF1FE780602923AC05FE1C4191E7010099
:1041700001000CC18280BA8703A787FF6DFF23ACC3
:10418000B7FE8280184183A785FF6319B7001CC161
:10419000FD5723AC05FE238FF5FE8280232CF6FE0F
:1041A000C5BF411122C437E400E026C204403707EE
:1041B000200006C6F98C2320E4180F10000009E93E
:1041C000232094101545B24022449244410182803C
:1041D0000347E5FF9307F00F6306F70023209410D1
:1041E0001145D5B797D0FF1FE78000300145232048
:1041F0009410D1BF411126C2B7E400E04AC003A920
:104200000400B707200006C622C43379F90023A0B2
:10421000F4180F10000009E923A02411B240224431
:1042200092440249410182809565938505D0C98DEC
:104230002A842105C2054205C181418197D0FF1F13
:10424000E780601B01CDFD57232005002312850068
:104250002303F50023A024112105C9B723A02411AD
:1042600001456DBF0111B7E700E04AC803A9070087
:104270004EC63707200006CE22CC26CAAA8933793B
:10428000E90023A0E7180F1000009707002093878C
:10429000E76880438144014619E499E8A1654E85A9
:1042A000EF00500605A08347E4FF6399370385CCF0
:1042B000A6851705002013056566E93565D0A1655B
:1042C0004E854526F2406244B7E700E023A027115F
:1042D00026854249D244B2490561828091E0228616
:1042E000032484FF55BFA284E5BF41114AC037E9CA
:1042F00000E022C4032409003707200006C626C2B6
:10430000798C2320E9180F10000089E523208910FB
:10431000154515A0AA849707002083C777602E85CE
:1043200063F5F400894763EE9700A53DB7E700E029
:1043300023A087100D45B240224492440249410116
:10434000828083A785FF99E703C7E5FF9307F00FF6
:104350006308F700B935B7E700E023A087104DBF29
:10436000238F95FE170500201305455BED3BA165E6
:104370002685C52C01452320891075BF970700208D
:1043800023AE07588280970700209387A75E9C433F
:1043900099E33E85828003D727006316B70003C7E1
:1043A0000700E308A7FEDC47E5B7A5C1011106CE6B
:1043B00022CC26CA8147C14633D7F540058B29C395
:1043C00012053E9531473305E50217070020130714
:1043D000A75E044305443314F4002EC64204418012
:1043E000AA949C40C8408297B24523A0040023A20F
:1043F0000400A18DF2406244D2442E850561828082
:104400008507E39BD7FA0144EDB72E858280C9C1A9
:10441000797122D406D626D24AD04ECE01444147E5
:10442000B3D78540858BA5C3120531472295330547
:10443000E502970700209387275803A907008544C2
:10444000B3948400C204C180BE892A99032709005D
:1044500011C7032549002EC60297B24531473304E0
:10446000E40283A709003E941C4489E72320090045
:1044700023220900B2502254A58D02599254F249C8
:104480002E85456182800504E31CE4F88144DDB794
:104490002E8582804111B7E700E022C480433707B0
:1044A000200006C626C2798C23A0E7180F10000052
:1044B000970700209387474C9C539384418399C767
:1044C00082979C403E9523AAA18239A0970700209D
:1044D0009387C7499C43EDF78840B747030093870C
:1044E000D73F3305F502B7A72600938737ECB240D4
:1044F00092443E9523AAA182B7E700E023A087104B
:1045000022444101828001112E8626CAAA841315F5
:1045100006019305F004418122CC06CE32C697D025
:10452000FF1FE78040ED2A8419C53246A68597C053
:10453000FF1FE780403B2285F2406244D244056180
:1045400082807971B7E700E022D4804337082000E9
:1045500006D626D24AD04ECE52CC56CA5AC85EC6CD
:1045600062C43374040123A007190F10000005E191
:1045700023A087100945B250225492540259F2499F
:10458000624AD24A424BB24B224C45618280970725
:1045900000209387A73D9C43BA8A368AB28B2E8B24
:1045A000AA898297970700209387074198433E89FD
:1045B0008144B146C147338CD4023306870110428F
:1045C00041EAC165938505F0414597D0FF1FE7801B
:1045D00080E205E1970700209387073A9C5B81C73B
:1045E000814511458297B7E700E023A087102D454C
:1045F00059B7970700209387E737984331E7970724
:10460000002023A9A73623000500832709000547BA
:104610003317970023260500232475012311E50095
:1046200023225501E29723A0370123A2670123A487
:10463000570163040A0023009A00B7E700E023A0B3
:10464000871001450DBF3E875C47F5FF48C765BF32
:104650008504E392F4F6B7E700E023A08710214534
:1046600019BFB7E700E09843B706200023A0D7188A
:10467000758F0F1000009706002083C6762A63739B
:10468000D502170600201306A62E93161500084221
:10469000369583560500D58D2310B50023A0E7106D
:1046A0000145828023A0E7100D458280B7E700E036
:1046B0009843B706200023A0D718758F0F1000006D
:1046C0009706002083C6D6256375D50217060020FD
:1046D0001306062A93161500084293C5F5FF369572
:1046E00083560500F58D2310B50023A0E710014582
:1046F000828023A0E7100D458280011137E700E09A
:1047000026CA0443B706200006CE22CC4AC84EC6AD
:1047100052C4F58C2320D7180F100000130705FF93
:104720001377F70FFD4763E5E70AB146B306D502F5
:104730009707002093874728984336971C43C9CB97
:10474000135A450005443D893315A400131405018F
:1047500041802E895285A2853D31AA8929CDA28525
:104760005285A93797070020938747209C4382975B
:104770009707002083D78725338727032A8481461C
:1047800013060064B3B7270313050732B335E500FA
:10479000BE95EFF0B113B30785009706002093860E
:1047A00066223E87D44263E4A70063E4D7003387E0
:1047B000D74023A4E900B7E700E023A09710014504
:1047C000F2406244D2444249B249224A05618280A1
:1047D000B7E700E023A097100945DDB70111B7E75F
:1047E00000E026CA84433707200006CE22CC4AC800
:1047F0004EC6F98C23A0E7180F100000BD4763E9EF
:10480000A70431473307E502970700209387C71AAB
:104810009C43BA979C438DCF05443314A4004204B3
:1048200041802E890145A285B93EAA8911C5A2857C
:104830000145AD3D23A42901B7E700E023A097106F
:104840000145F2406244D2444249B2490561828046
:10485000B7E700E023A097100945E5B779714AD082
:1048600037E900E026D283240900B707200006D6E6
:1048700022D44ECE52CC56CA5AC85EC6FD8C2320D6
:10488000F9180F1000009707002083C77709637A93
:10489000F500970700209387670D83AB07006397A8
:1048A0000B00B7E700E023A09710A9A0170B00208A
:1048B000130B4B11832A4B00B74736FE938707C86B
:1048C0002E8A9705002083D56510BE9AB387C5024E
:1048D0002A84B2898146B3B5C50213850732B3373E
:1048E000F50013060064BE95EFF0417E63F0AA0266
:1048F000232099100145B250225492540259F24992
:10490000624AD24A424BB24B45618280829B9705F4
:10491000002083D5A50BB38735032A8913060064CD
:104920008146B3B5350313850732B337F500BE951D
:10493000EFF0C179B30725013E8903274B0063E4FB
:10494000A70063E4E7003389E740D2852285EFF0D2
:104950009FA309C923242501B7E700E023A09710EE
:10496000054551BF936504F0C205C181414597D00B
:10497000FF1FE78040A819E9970700209387C7FF2A
:104980009C5B85D3A2851145829721BF97070020A4
:10499000938747FE9C4385E79707002023ACA7FC3D
:1049A00085472326050023242501231145012300E3
:1049B0008500A300F5002322050079BFBA87D847F8
:1049C00075FFC8C7F1BF7971B7E700E026D284430D
:1049D0003707200006D622D44AD04ECE52CC56CA33
:1049E0005AC85EC662C466C26AC0F98C23A0E718C2
:1049F0000F1000003DC14144B689B28A2E8A2A892F
:104A0000B14C170B0020130B2BFB054D130C0003AF
:104A1000B30B940303270B005E971C43A5E3937528
:104A2000F400B315BD0013554440C2055686C1813C
:104A30001375F50F253539C183270B00DE9723A0A9
:104A4000270123A247016384090023808900B7E777
:104A500000E023A09710014521A023A0971009454D
:104A6000B250225492540259F249624AD24A424BFD
:104A7000B24B224C924C024D456182800504E319F1
:104A800084F9B7E700E023A097102145D1BF0111B9
:104A9000B7E700E026CA844322CC4AC84EC637078F
:104AA000200006CE2A84AE893289F98C23A0E7182B
:104AB0000F10000065332285CE85EFF0DF8C2A844D
:104AC00005C59705002083D565F0B3872503130638
:104AD00000648146B3B5250313850732B337F5006B
:104AE000BE95EFF0A15E48C013351400F240624459
:104AF000B7E700E023A097104249D244B2490E051F
:104B0000056182800111B7E700E04AC803A90700E8
:104B100022CC4EC63707200006CE26CAAA892E848C
:104B20003379E90023A0E7180F100000EFF0BF85EC
:104B3000AA8419C123110500A2854E85853E9707D9
:104B4000002083C7E7DD639B37019707002083D7E9
:104B5000A7E15D8C97070020239887E0B7E700E086
:104B600023A02711014591E01945F2406244D24447
:104B70004249B2490561828001114AC837E900E023
:104B800022CC03240900B707200006CE26CA4EC651
:104B90007D8C2320F9180F1000009307F00263E8C2
:104BA000A704B147B304F502970900209389C9E02F
:104BB00083A70900A6979C439DCB9377F500854575
:104BC000B395F500C205C18111812D3F83A709006E
:104BD0000145A69723A0070023A2070023208910E0
:104BE000F2406244D2444249B24905618280B7E74B
:104BF00000E023A087100945E5B74111B7E700E0C1
:104C000026C2844306C622C437072000F98C23A09D
:104C1000E7180F100000EFF00FF719E90145B24057
:104C20002244B7E700E023A097109244410182801C
:104C300097070020938787D39C4300458297970767
:104C40000020938727D86368A402D843B74636FE6E
:104C5000938606C83305A4403697E371E5FC130735
:104C60000064B335E50203D6870081463305E502CB
:104C7000EFF0C1456DB7D8433A94C1BF411122C48A
:104C800026C2170400201304E4D397040020938461
:104C900024C99448584097070020938727CD06C61B
:104CA0009C436393E60882975440B74736FE938748
:104CB00007C8B6973387A7003A856364F700636433
:104CC000D7003305D740970400209384A4E8DC5034
:104CD00081CF970700209387A7EF94433707CDFF35
:104CE0007D179C46F98F9CC611E14840970700202C
:104CF000938787C8DC53829719E5DC508DC3EF009A
:104D00005138EF004108DC5099CB9707002093877A
:104D100027EC9843B70633001C47D58F1CC7B24019
:104D20002244924441018280829794485840B3873C
:104D3000A6003E8563E4D700E3E7E7F83385E74064
:104D400059B7411106C69707002023ABA7C60295A5
:104D5000B2409707002023A1A7BE014541018280F0
:104D6000994763E9B7008A0597070020938707BE34
:104D7000BE9588C182809707002023A1A7C411C5D2
:104D80008547170700202302F7BE82804111714634
:104D9000814517050020130565BB06C6970700204F
:104DA00023AA07BC9707002023AC07C09707002061
:104DB00023AE07BA97070020238907BA9707002078
:104DC00023AE07BE97C0FF1FE78000B9130680021D
:104DD0008145170500201305A5B497C0FF1FE78084
:104DE000A0B7EF607173970700209387E7B803C5FA
:104DF000C70383C7D70385453E958D473305F50225
:104E000039051375F50F97070020238CA7B0994734
:104E10003305F5021305052497C0FF1FE780A05D49
:104E200017070020232AA7B859CD99471706002055
:104E3000034626AF3306F60281451306062497C0C3
:104E4000FF1FE78060B1970700209387E7B69C4378
:104E500093870724170700202328F7AE17070020A1
:104E6000034727AC0A07BA97170700202322F7B099
:104E7000EFF0CFD0E129970700209387E7AC944368
:104E80009707002083C7D7A913972700369717F6EF
:104E9000FFFF1306065810C3138717001377F70F89
:104EA0000A07369717F6FFFF1306665010C31387DD
:104EB0003700890793F7F70F8A0797050020A3812A
:104EC000E5A6B69790C3B2404101828097070020C3
:104ED00083C717A5170700200347A7A463F3E702BA
:104EE00017070020130747A61843938617001706D5
:104EF0000020A307D6A293962700369708C33E85C5
:104F000082809307F00FE5BF1C4163840716417749
:104F10007D8FB70600208947631ED71403574500CD
:104F2000630A0714411122C419462A849305F00F1D
:104F3000610506C697C0FF1FE78000AD05478D4796
:104F40006304E5121C4481CB58589947630E07103F
:104F5000185C630B07101306000481451705002039
:104F6000130585A197C0FF1FE780009F130600046B
:104F7000A28517050020130525A097C0FF1FE78015
:104F800080969707002083D7E79F17070020130715
:104F9000A79E99E793070010970600202394F69E9A
:104FA0009707002083C7279E91E785479706002033
:104FB000238BF69C9707002083D7079D91E7ED4749
:104FC000970600202392F69C9707002083C7B79B83
:104FD00091E7954797060020A387F69A9707002048
:104FE00083C7A79A91E7854797060020238FF698F5
:104FF0009707002083C7779999E78347F7009706BB
:105000000020A384F6989707002083C7379881CFA4
:1050100093F63700898317060020230DD69897064C
:105020000020A389F6989707002083C7279691E769
:10503000D54797060020238BF6948347640199E7B0
:105040009307C003970600202383F6941C5791C74B
:105050008297970700202399A78CFD5717070020F8
:10506000A30EF7BC25338147B24022443E8541015F
:10507000828089473E85828001114EC697090020B3
:105080009389499483A7090006CE22CC26CA4AC830
:1050900052C4829713090064B335250303DA8900EB
:1050A0008146528633052503EFF041029707002021
:1050B00093870787804FAA8401456306940233854E
:1050C0008440636E940003A5490052868146B3353F
:1050D000A9023305A902EFE0717F018D269597079C
:1050E000002023AB9784F2406244D2444249B24943
:1050F000224A05618280011122CC0A852E84414614
:10510000970502009385057606CEEFF0A1351808C5
:1051100006043A94035504FF9707002083D7278B92
:10512000F2406244AA9737450F0013050524335512
:10513000F502056182809707002083D74789514790
:105140001D45637CF702794719456378F702130719
:10515000200315456373F7021307B0041145637EFE
:10516000F700130740060D456379F7001307600940
:1051700009456374F70013B5B70F8280011122CC83
:1051800006CE2A842EC6EFF0EFB0B245F240818DF4
:1051900033A5A502229562441375F50F056182803F
:1051A000011122CC06CE2A842EC6EFF0AFAEB24556
:1051B000F240818D33A5A5022295624442054181CA
:1051C00005618280011122CC06CE2A842EC6EFF022
:1051D0006FACB245F240818D33B5A5022295624491
:1051E0000561828097F7FF1F93870779985739CB1E
:1051F000411122C426C206C6BE84029717F7FF1FBC
:10520000035787722A8415CBBA876373A700AA87CE
:10521000C207C183BA866373E400A286C206C18254
:10522000958F5147635BF700DC5491C38297EF0081
:10523000014E97F7FF1F2399876EB2402244924494
:1052400041018280828097F7FF1F23A7077897F795
:10525000FF1F93876772DC57011106CEAA8581C7AD
:105260002AC68297B245CDC19C410545D9CBDC41C8
:10527000C9CB83D78500D1C783D7A500D9C35146F1
:1052800017F5FF1F1305057497B0FF1FE780A06592
:1052900097F7FF1F238E077297F7FF1F9387877279
:1052A0009C4317F7FF1F2323F76C97F7FF1F83C754
:1052B000176E8DE79307805717F5FF1F035505718C
:1052C0003305F50237460F00130606248146814553
:1052D000EFE0D15F97F7FF1FA38BA76A17F7FF1FB8
:1052E0000347F76AA54763E7E700A94717F7FF1FDA
:1052F000A30FF76817050000130545D8EFF07FA44A
:105300000145F2400561828097F7FF1F23A80762DD
:1053100097C7FF1F9387E7AB17F7FF1F2324F76A91
:105320007D5797F7FF1F23A1E76AB787320093875E
:1053300027A197F6FF1F23ABF66897F7FF1F238976
:105340000768B7C7004023A4E726B9B7011122CCEC
:1053500017F4FF1F13044462084406CE26CA4AC845
:1053600001E90545F2406244D24442490561828028
:105370005C58E5DB185C75D770008545829718444A
:10538000B247E300F7FE9305E00417F5FF1F03554E
:10539000655F97C0FF1FE780000617F7FF1F2321F7
:1053A000A75A61D117F6FF1F0356C65D9305F00F8C
:1053B00097B0FF1FE780405A814417F9FF1F130978
:1053C000295697F7FF1F83C7075C0326090263C1AD
:1053D000F402328597C0FF1FE7800011014597F75F
:1053E000FF1F23AF075497F7FF1F23AD07549DBF3F
:1053F00097F5FF1F83D50559B38795020844185CBC
:10540000898185043E9508C2029765BF011156C285
:1054100097FAFF1F938A4A5683A78A0022CC4AC86C
:105420004EC606CE26CA52C45AC0AA892E843289D4
:105430006386072203A74A03630907141307F01FB3
:105440006367A71497F4FF1F9384844D03AA040293
:1054500063170A0A9565938515E017F5FF1F035535
:10546000655297C0FF1FE78000F997F7FF1F23A938
:10547000A74C2A86630B051083A74A0303A58A005D
:1054800097F5FF1F83D505508981829783A78A00EE
:1054900003AA040217F7FF1F2326F74A8947639CD4
:1054A000F908C1476313F40E97F5FF1F83D5854DA7
:1054B000938505FC9147B3C5F5028A05D29503C7CC
:1054C00025009307A005631EF70A83D70500639A9A
:1054D000370B4A852286910597B0FF1FE780A040D1
:1054E0009C505285639347150145F2406244D24473
:1054F0004249B249224A924A024B05618280D85001
:10550000E38EE7F89565938525E017F5FF1F0355B2
:10551000654797C0FF1FE78000EE2A8A3DC52A86AF
:1055200083A74A0303A58A0097F5FF1F83D5854506
:1055300089818297A5B78D47639DF900C14763169E
:10554000F40497F5FF1F83D5E543938545FDF19955
:10555000B5B79147639AF9006319340397F5FF1FB4
:1055600083D54542A115E5B793070010639FF90065
:10557000A14763EC870097F5FF1F83D5A540C115B0
:10558000F9B79C5052856396470D2945B9BF1D6AEE
:10559000568B6371450B130A05E01947334AEA023B
:1055A00017F7FF1F0357073E97FAFF1F938A4A37E3
:1055B000330AEA023E9A83A74A026395470183A40D
:1055C0000A029DE49305E00417F5FF1F0355853B90
:1055D00097C0FF1FE78020E2AA8445D983274B03A9
:1055E00097F5FF1F83D5053A2A86898152858297D0
:1055F00091451307A005898193972500A69783C637
:1056000027006393E60483D60700639C3603850571
:105610008A052286A6954A8597B0FF1FE780A02CB1
:1056200083A70A02E38297EC268597C0FF1FE780D5
:10563000A0EB5DBD21677917E369A7F4330A454103
:1056400085B783C5370045BF83A70A02E38F97F26A
:10565000268597C0FF1FE78020E905BF97F7FF1F4A
:105660009387072C8C5395D191479306A005898386
:10567000139727002E9703462700E318D6F003560A
:105680000700631C360185078A072286BE954A8576
:1056900097B0FF1FE780202581BD83473700C1BF3A
:1056A00097F7FF1F9387472D984739C79C5FA9C776
:1056B00005476313E504411122C417F4FF1F1304C7
:1056C0002426105006C60DC6485097F5FF1F83D5F7
:1056D000652B89818297085097C0FF1FE780C0E043
:1056E00097F7FF1F23AE072497F7FF1F23AC07246C
:1056F000B2402244410182808280011117F7FF1FCE
:10570000130787274EC68329870022CC26CA4AC89A
:1057100006CE52C456C2AA842E843289638B0920D5
:105720001C5FBA8A99EB2945F2406244D24442494F
:10573000B249224A924A056182805C5BEDD79307A9
:10574000F01F63EAA70E97F9FF1F9389691D83A7CE
:105750000902B1CB03A58A0083A749026395A70676
:1057600089476393F408C147E31FF4FA17F5FF1F55
:10577000035545219147130505FC3345F502931761
:10578000250003A509022286CA853E959307A00538
:105790002301F50023109500110597B0FF1FE78046
:1057A0008014014551B79305E00417F5FF1F035519
:1057B000651D97C0FF1FE78000C497F7FF1F23A157
:1057C000A71849F98DB783A74A0303A6090297F5DD
:1057D000FF1F83D5251B8981829783A78A0017F72E
:1057E000FF1F2321F716ADBF8D47639EF400C1470D
:1057F000E31BF4F217F5FF1F0355C518130545FD0C
:105800009377C5FFBDBF9147639AF400E31D94F001
:1058100017F5FF1F035505172115DDB79307001076
:10582000E393F4F0A147E3E087F017F5FF1F03557A
:1058300065154115F1B79D676379F506930705E096
:105840001947B3C7E70217F7FF1F0357A71317FA44
:10585000FF1F130AEA0CB387E702BE9983270A02E7
:10586000A1CF83274A026399370703250A0291468D
:105870001308A0059305F00F93D726001397270070
:105880002A9703462700631F06078358070003462D
:10589000370063959806B306D64063CF8604850724
:1058A0008A072286CA853E95CDBD21677917E36CAC
:1058B000A7E6B307F54041BF9305E00417F5FF1FC6
:1058C0000355450C97C0FF1FE780E0B297F7FF1F15
:1058D00023A8A70659F581BD83A74A0303260A0218
:1058E00097F5FF1F83D5050A89814E85829797F723
:1058F000FF1F23A9370595BF2310B7009316060194
:10590000C1829DBFB385860017F6FF1F0356860729
:105910009105130606FCE368B6E013063400719A9D
:105920001106B2962301070123109700A301D700A7
:10593000BDB797F7FF1F9387A7FE9453BE89A9C2EF
:1059400003A5090291461308A0059305F00F93D70C
:105950002600139727002A97034627006318060599
:10596000835807000346370063989800B306D64073
:10597000E3D786F22310B70093160601C182C1BF98
:105980008357C70017F5FF1F0345E5FF9305E004A4
:105990003305F5024205418197C0FF1FE780A0A5AE
:1059A00097F7FF1F23AEA7F841FDB5BB17F6FF1F02
:1059B000035646FD97F5FF1F83C5E5FCB385C50279
:1059C000338686001106E3E0C5D681BF014582809B
:1059D00083C705002300F50083D72500A300F50049
:1059E00083D72500A1832301F50083C74500A301C8
:1059F000F5001145828023A4018A23A2018A8280B6
:105A000029C1411126C206C622C4AA8401458DC5FA
:105A10002E8422854146970502009385651997B02B
:105A2000FF1FE78040EC83C7040005452306F40010
:105A300083C71400A306F400B240224492444101FB
:105A4000828001458280011122CC26CA06CE0947F8
:105A5000AA8432846381E50441468147639BC50083
:105A6000638FE6006397B6000DA841478147638EB8
:105A7000E600F2406244D2443E85056182808A8518
:105A80002285BD3F41468A8519A88A85953F4146B2
:105A90008A85228531A0E39AB6FC2E86A2852685CA
:105AA00097B0FF1FE780A0EFAA87E1B723A4A18AE0
:105AB0008280011122CC0354650006CE26CA4AC852
:105AC0004EC641C083298500AE842A8803C90900D7
:105AD000814713178901618763550702B14705455F
