:040000006F10107AF3
:10000400000000000000000090000020CC0200204E
:10001400A9BDF9F5840300200000000000000000E1
:100024008403002090000020000000000000000075
:10003400900000200000000090000020000000005C
:1000440090000020900000209000002090000020EC
:1000540090000020280800209000002000000000EC
:1000640090000020900000209000002090000020CC
:10007400EA0300209000002090000020900000205F
:1000840090000020900000209000002090000020AC
:1000940001A0411106C6EF00F02FF5BF4111B717BB
:1000A4000040985F3AC6945F3247E39CE6FE3245CF
:1000B40041018280B7F707000111944B13078008B0
:1000C400F337078093F787083EC20F100000B71775
:1000D40000401308700523800705930580FA2380E8
:1000E400B7040F10000003C6B7041376F60DA385FA
:1000F400C704238007041246732606800F100000ED
:100104001376050255CEF336078093F6860836C477
:100114000F100000238007052380B7040F10000090
:10012400B70614007D89558D88C7010001000100C0
:10013400010023800704A246F3A606800F100000E6
:1001440073370780137787083AC60F10000023809F
:1001540007052380B7040F1000000F100000372795
:10016400004093061005A303D78023800704B247F9
:10017400F3A707800F10000093078008F3B70780E8
:1001840093F787083ECE0F100000B71700401307FF
:1001940070052380E704130780FA2380E7040F1017
:1001A400000003C7B70413670708A385E704238087
:1001B4000704F247F3A707800F100000056182804F
:1001C4001376050459C2733607801376860832C83D
:1001D4000F100000238007052380B7040F100000D0
:1001E40037061400130606047D89518D88C7010063
:1001F40001000100010023800704424673260680A3
:100204000F10000073370780137787083ACA0F105E
:100214000000238007052380B7040F100000A547C2
:1002240093F6F60F639EF600B727004013073005D8
:10023400A383E780B717004023800704D2470DBF8C
:10024400B727004013072005E5B7733707801377F6
:1002540087083ACC0F100000238007052380B704D9
:100264000F10000098471367070C98C723800704F2
:10027400E247FDBD0111814601468145114506CE87
:10028400352C93078008F3B7078093F787083EC699
:100294000F100000B7170040130770052380E70410
:1002A400130780FA2380E7040F10000003C76704D4
:1002B400136717002383E70423800704B247F3A7D7
:1002C40007800F100000F2400561828041118146D1
:1002D400014681451145DD2213078008F337078065
:1002E40093F787083EC40F100000B71700401306A9
:1002F40070052380C704930680FA2380D7040F1067
:100304000000FD552396B70223800704A245F3A5F8
:1003140005800F10000073370780137787083AC6EB
:100324000F1000002380C7042380D7040F1000009F
:1003340003C76704136717002383E70423800704B4
:10034400B247F3A707800F10000001A0BD47330593
:10035400F50201007D1575FD8280411122C426C27B
:1003640006C6AA84014463179400B240224492440E
:100374004101828005041305803E4204C13F41804F
:10038400DDB700009305000273A045808245739099
:10039400153492402242B2424243D2436244F24470
:1003A400025592552256B2564257D2576258F258C5
:1003B40006499649264AB64A464BD64B664CF64CF5
:1003C400065D965D265EB65E465FD65F0961730084
:1003D40020304111B7170040985F3AC6945F324706
:1003E400E39CE6FE324541018280B71700401307C3
:1003F40000032388E702854723A0F1887300203097
:100404002303048015472303E48001002302A4800E
:10041400828083076480E3CE07FE23030480828006
:1004240083076480E3CE07FE03454480828083070C
:100434006480E3CE07FE2302A4808280411126C497
:100444004AC24EC006C61377F50BAD47AA892E895A
:1004540095446306F70019456537653F8D444E851D
:100464004537FD59FD1463983401B240A244124942
:10047400824941018280135509011375F50F453FE7
:100484002209CDB7011126CC06CEB7040800513796
:100494001545BD37713769372AC6A53F324593776D
:1004A400150089EB136515001375F50FF240E2444E
:1004B40005618280FD14E9FC0145CDBF397126DC5C
:1004C4004ADA4ED852D656D45AD25ED006DE62CE1E
:1004D40066CCB7E700E07D5783AA070022C603AACB
:1004E400470023A0E71823A2E718B7170040130713
:1004F40070052380E704130780FA2380E70483C789
:100504004704930B75FFB684E20793FBFB0F854604
:10051400AA892E8B328937240040E187015763FA78
:1005240076016308D5008946130700026313D500DA
:100534000157D98F93F7F70FB71C00402382FC04AF
:1005440011472303E4801305F00F5D3D094CD135B9
:10055400636D7C11B7050700DA9537870700795575
:1005640063F2E504B3879500636EF702370B080066
:10057400A94733EB65016399F90689E48144513D48
:1005840026850DA0DA850945553D05090345F9FF82
:10059400FD14050B693D81C49377FB0FFDF7DD3531
:1005A40069FD7D55B7170040130770052380E704E4
:1005B400130780FA2380E70403C74704418B23828F
:1005C400E704F250B7E700E023A0571123A2471134
:1005D400E25432445259C259325AA25A125B825BD3
:1005E400724CE24C21618280A5476395F9068569C6
:1005F4001309F00FB3069900B3742B01B694134991
:10060400F9FFB3749900856B33796901416B938762
:10061400F9FFB3F7270199E363FC340193D9490047
:10062400C147E3E637FF99BF0569C1697D19D9B7A9
:100634001305800D63886901130500026384790141
:1006440013051008CA85DD3B353D21DD4E99B38481
:100654003441D9B7DA852D45D533CA94E30099F2EC
:1006640005097D3BA30FA9FED5BF9387F9FF93F737
:10067400F70F6361FC0C83C71C0413073008631F66
:10068400F70437070800636BEB04B3079B00B70656
:10069400100063F5D704334BEB0089476393F906E5
:1006A4008980D549E38C04ECDA850945413B11097D
:1006B4000327C9FF91472320E48003076480E34EA6
:1006C40007FE23033481FD17EDFBFD14110B81C4D8
:1006D4009377FB0FE9FF7D3371F5E1B5B717004060
:1006E40003C75704B70708001377070219E3B7874E
:1006F40007007955E378FBEA33079B00E3FFE7F84B
:1007040055B58547E382F9F2DA852D45053B938992
:10071400F4FFE38504E6293393F7390091EB83264C
:1007240004800327090093074900E39AE6E43E891D
:10073400CE84F1BFB5476396F9001305900BC93118
:1007440035BDB1471305B00AE38BF9FE99476391B0
:10075400F904B7050800B365BB002D45C5318144D4
:100764008D4BA14975396396740183270480232036
:10077400F9008504E39834FF8327048013172B01C1
:10078400635507002312F900D5BB2322F900FDB3FA
:100794009D476399F90281451305B0044531BD4471
:1007A4002320090023220900FD599D3993F7740081
:1007B400CA9703C70700FD14398D2380A700E39669
:1007C40034FF6DBBA1476392F9046D398144630D15
:1007D4000B008D479304C0036308FB0093040005DA
:1007E40063048B01930440041375C507E30895D88B
:1007F4001945393139390545213126850D390945E0
:100804003D314931E31C05D669BB91476399F90031
:1008140013056006F536F53E130590090DB7E38F11
:1008240009D4F154A9BB0000197106C212C416C63A
:100834001AC81ECA22CC26CE2AD02ED232D436D6FC
:100844003AD83EDA42DC46DECAC0CEC2D2C4D6C6EC
:10085400DAC8DECAE2CCE6CEEAD0EED2F2D4F6D6DC
:10086400FAD8FEDA938581878841E7000500924033
:100874002242B2424243D2436244F2440255925568
:100884002256B2564257D2576258F25806499649F0
:10089400264AB64A464BD64B664CF64C065D965DE8
:1008A400265EB65E465FD65F096173002030B7E707
:1008B40000E09843B706200023A0D718758F0F10C7
:1008C400000001C599C1814711E6B7E700E023A004
:1008D400E7108280B386F50003C80600B306F5006E
:1008E400850723800601E317F6FEC5B737E700E066
:1008F4001C43B70620002320D718F58F0F100000E3
:1009040019C191C111E637E700E02320F710828076
:10091400910503A7C5FF11057D16232EE5FEDDB75E
:1009240037E700E01C43B70620002320D718F58FD3
:100934000F10000001C53307C50011E637E700E0DA
:100944002320F71082800505A30FB5FEE31DE5FE05
:10095400F5B781473307F5000307070019E33E8520
:1009640082808507C5BF37E700E01C43B706200037
:100974002320D718F58F0F10000001C599C1014736
:1009840011EA37E700E02320F710054582800507C8
:10099400E309E6FE3308E500B386E50003480800F2
:1009A40083C60600E305D8FE37E700E02320F710EE
:1009B400014582809307F6FFBE952A966313C5000E
:1009C4008280FD1583C715000505A30FF5FEFDB74D
:1009D400AA87014581CF09CE3E96850703C7F7FF55
:1009E4006317B700E39BC7FE0545828082800145FB
:1009F40082807971973700009387C75822D4804347
:100A040006D626D24AD04ECE52CC56CA5AC85EC654
:100A140069C037C9C901014B973900009389095648
:100A24001309F937173A0000130A0A56973A0000D7
:100A3400938A0A50973400009384C459835724003E
:100A440095E35C44631D0B0017370000232CF75219
:100A5400832BC4002285EF00B0255E84A9A8232639
:100A6400FB00FDB783A7090082971C443307F540B8
:100A74006375F500D8401D8F2A976361E90897379D
:100A8400000023AF074A8355240003450400974020
:100A940000E0E780E0C25C405844B9C70C44D04051
:100AA400AE97BE8663E4B70063E4C700B386C7406D
:100AB40014C4228B3A8459F0973700009387474730
:100AC4009C4B09476373F708F9171737000023296C
:100AD400F746B250225492540259F249624AD24A19
:100AE400424BB24B4561828063170B00973700007D
:100AF40023AAE748B1BF2326EB0099BF03274A0284
:100B04001DCF63E1A7043385A7408347040085E331
:100B1400173700000347B7485917B307A7003E85A6
:100B2400D44063E4E70063E4D7003385D74083A768
:100B34000A016376F5009737000023A3A740228BB0
:100B4400404495BFD840BA977DBF9737000023A98A
:100B5400073E41B797370000938747479C4385C3B7
:100B6400411106C682979737000083C7074189E77A
:100B74009737000023AC0744B24041018280973785
:100B8400000083C7873F91E79737000023A00744FD
:100B940082808280411122C4173400001304043C73
:100BA4001C4006C626C24AC091C7829797370000E8
:100BB40023A6073A9737000083C7175B858B17393D
:100BC40000001309295A89CF834779001947631212
:100BD400F71097370000A38907583D235C44829798
:100BE4001C4491C3829797340000938464399840DD
:100BF400173600000346D6339737000083C74733C0
:100C040093961700BA9683D60600E5C2973700007C
:100C140083C7073263E5C70E97370000238A07307E
:100C24001C40639E071497370000938727359C4325
:100C340063870714973700009387C739DC43173756
:100C44000000232FF72E75339737000083C73752E0
:100C5400639707129737000083C7575191CF834793
:100C6400790093F7F70F89EB97370000A3800750BB
:100C7400975001E0E7808002973700009387C730E0
:100C8400DC53638E070E973700009387672A9C4BCB
:100C9400FDC78347790015476363F70E9737000054
:100CA40083C7C751918BE1EF9737000083C7E72CC7
:100CB400F9E790409736000083C6962763C7D70CA0
:100CC4002244B240924402494101174300E06700C4
:100CD400C300834779001D47E314F7F097370000FA
:100CE400A384074815211C48DDBD850793F7F70F3A
:100CF40097360000238EF622E3E0C7F001BF860793
:100D04003E9783550700231007009737000023956B
:100D1400072697370000938727249C431735000044
:100D24000345052113172500BA979C4382979737EB
:100D3400000083D76724173700000347671F93C752
:100D4400F7FF7D8D9317170098403E978357070050
:100D54005D8D2310A7009737000083C7671D91C7D7
:100D64008507173700002305F71C173700000347D2
:100D7400271C9737000083C7B71BE37FF7E8B2400F
:100D8400224492440249410182801397170032970A
:100D9400035707006DF7850715B737C7004083264B
:100DA400C720B707FCFFFD17F58F2326F7200100A6
:100DB4000100973700009387A717C84F832787261A
:100DC4002326D7206A0593C7F7FF99835D8D828018
:100DD4000111973700009387674A22CC03A4070CBC
:100DE40026CA06CE2AC42EC6854419E40145F2401B
:100DF4006244D24405618280834791000347140012
:100E0400858B6304F7000044CDB719469305A10010
:100E140013052400893EE31895FE0545C9BF00006B
:100E2400EFF05FD373000000000000009732000071
:100E34009382A2140383020023800200630F030041
:100E4400F32510342EC0970500009385A5FD7390FB
:100E54001534EF00E0507300203086DCEF00405082
:100E6400E65082800000173700001307672F1443F1
:100E7400411122C49C5E4AC006C6998326C2858B52
:100E84003A84173900001309692DD1CB9307000662
:100E94009CDE173700000347472D9307000897345B
:100EA40000009384242C631BF700832709009C43D0
:100EB40093F70704173700002309F72A83C70400B0
:100EC40093F707049DC3973700009387270B9C4330
:100ED40082979737000023A5A72A83C7040093F7B6
:100EE400F70B17370000230FF72683C7440093F747
:100EF400070495E7854717370000A307F7269737B8
:100F040000009387A7289C433707020098C713075C
:100F140000FC973600002389E6249848F8D318404B
:100F24001C5F9183858B8DC31C5F93E707011CDFD6
:100F340097370000938787259C4323A2070685479C
:100F4400173700002302F72283270900D8430583BB
:100F5400058B19C7D843759BD8C3D843799BD8C38D
:100F6400B24022449244024941018280ED3D730023
:100F740020309317D50063D3070297370000938777
:100F8400E7209C437D57B8D797370000938747FAEB
:100F9400DC4F850717370000232AF7FA937785007B
:100FA4009DCB9737000083C7071C93E717001737BB
:100FB4000000230AF71A930700F8173700002305E7
:100FC400F71A973700009387A71998435C57F19B4A
:100FD40093E717005CD7937715008DC79737000008
:100FE40083C7571893E7170017370000A30CF716A9
:100FF400973700009387C71698435C57F19B93E794
:1010040017005CD79377650095CB93774500173726
:10101400000013072715CDCB8347070093E717007C
:10102400173700002300F7149737000093874713FE
:1010340098435C57F19B93E717005CD79317F5002F
:1010440063D40702173700000347C72A418B973739
:1010540000009387A72251C383C7870793E707023A
:10106400173700002308F7289317E50063D7070212
:101074009737000083C7470FE207E18763D707006C
:101084008547173700002301F70E97370000938731
:10109400E70F9C433707020098C79317C50063D432
:1010A4000702173700000347F724058B9737000022
:1010B4009387C71C29C383C7970793E7270017376C
:1010C4000000A309F72282808347370093E71700C3
:1010D40017370000A309F70881BF03C787078946AC
:1010E4003D8B6308D70083C787070D47BD8BE39DFE
:1010F400E7F69147B5B703C79707118B69D783C73D
:10110400970793E7870065BF973700009387070821
:101114009443973700009387E70403C70700058BC0
:1011240011CB973700002381070497370000A38D64
:101134000702828003C71700058B65F7F85271FF19
:1011440083C75700DDB7173700001307670103286B
:101154000700832788039583858BADEF11C683270A
:101164000803BD832300F6009DC61C43985B460715
:10117400935767016356070093E707C0C207C1830B
:1011840003970600C207C18709C7BA970947B3C7BF
:10119400E7022390F6008DCD8345150095C9973756
:1011A400000083C787FC93F70704138795008945DC
:1011B40085C33A95834705000547994593F6F70695
:1011C4006398E600E207E187814563D30700B945E8
:1011D4002E8582808545EDBF411122C406C626C2F4
:1011E40017340000130484FA45E114402E87FC529E
:1011F400FDFF97370000238807F697370000938791
:10120400A7D8D453BE8495C6B7E700E0B70620003C
:1012140023A0D728B7F700E083A607D1ED9A23A827
:10122400D7D083A607D193E6860323A8D7D073002B
:1012340050103A85B285975001E0E780808D97374A
:1012440000009387E7F19C43B70680009843558FCD
:1012540098C3D857719BD8D797370000A38607F057
:1012640097370000A38007F01C40094798C3DC505F
:1012740085CF37F700E0832707D193E7870023283A
:10128400F7D0730050100DA08D476315F504973700
:1012940000009387E7EC9C43B70680009843558F82
:1012A40098C3D857719BD8D7144017370000130739
:1012B40067EB83472700858B89EB83473700858B52
:1012C400C9CF97370000238107EAB24022449244F1
:1012D400410182808547E319F5FC97370000938725
:1012E400A7CAD4533E8795C6B7E700E0B7062000E7
:1012F40023A0D728B7F700E083A607D1ED9A23A847
:10130400D7D083A607D193E6860323A8D7D073004A
:10131400501014408177FD17D046F18FDCC60F10B2
:1013240000001440B70702009CC6930700F89735E5
:101334000000238BF5E297370000938767E29C4314
:101344009C439D83858B99C793076019FCD2D0C6B3
:101354005C5339BF9307E01BD5BFFC52B9FBB5B74B
:1013640097370000938787E29C438847D847798D55
:1013740009C988C79387419103A307006303030046
:101384000283828097370000938747E098438967F8
:10139400938707F47CD397370000938767E49C43D3
:1013A40083A60709139656006358060083A6070907
:1013B40013966600634406007453FDF28280411163
:1013C400B7E700E022C480433707200006C6798CC3
:1013D40023A0E7180F10000011C199E5B7E700E05A
:1013E40023A0871001457DA893073500C207C18358
:1013F400F19BC207C183130740036369F7021737E0
:101404000000130727E7084317370000130707E610
:1014140014436392A602173700001307E7B6185B5C
:1014240055DFC207DD8D054502974DBF1737000014
:10143400130707E4C9BF035765002DEB03574500A5
:101444006366F706B306F7402146637CD602032899
:101454000500938687001D8FAA9661171736000032
:10146400035666AD2392E60023A0060123930600EB
:1014740014C12312F500130786FF97360000239C3E
:10148400E6AA2313B5009735000083D5C5AAB38710
:10149400F540173700002310F7AAB7E700E023A0B0
:1014A40087102105B240224441018280084195B74A
:1014B400B7E700E08C433707200023A0E718F98D35
:1014C4000F10000001E523A0B710828097370000B9
:1014D400938747DA03A3070097370000938707D958
:1014E40083A8070081469A8763F2170D03A80700B3
:1014F4006361F50C636FA80A138787006368E50AC4
:1015040003D66700216705076317E60003C7C19088
:1015140005072386E19017350000130565A103D65E
:10152400470003576500239307003297420741831E
:10153400173E00002311EEA0638C670217330000EE
:10154400130303D3032303006304F30203D36600EA
:101554006310030283D7460023A0060121073E96A9
:1015640021062392C600973700002396E79CB6878E
:101574009843630D170397360000938666CF944211
:101584006306D7028356670095E283D64700035665
:1015940047001843A106B2962392D70098C38357F5
:1015A4006500A107173700002317F798B7E700E095
:1015B40019BFBE86C2870DBF0327851163040712B6
:1015C4000346E504854663000612411122C406C69B
:1015D4008347C5002A8493F7C70F2306F500834584
:1015E40097000358C7001395850161856370060948
:1015F400635905060345870093F5F507A304B7006F
:1016040093E527006314D50093E517002306B4007F
:101614005C4389075CC3A30AC400032504114C433B
:101624000905EFF0CFA88327841103465401D4435E
:1016340003D7C700B296118FD4C32396E700894716
:10164400A30DF400034764039737000083C7E794AE
:101654006377F7048347C40093E707012306F40084
:101664003DA893E717002306F40075B71376F80F27
:10167400635D05020345870093E527006314D500E5
:1016840093E517002306B400A30AC400A3040700CB
:101694008547A30DF400832784119C43C5F7B2400A
:1016A4002244814636854101828093E71700230650
:1016B400F400A30AC400A3040700032504114C4347
:1016C40042860905EFF0AF9E832784110346540137
:1016D400D44303D7C700B296118FD4C32396E7002F
:1016E4008D4745BF854636858280973700009387AE
:1016F400A7CB9C43411122C406C6858B2A84C5EF1F
:101704004165130525F5971002E0E780A0FD45C566
:101714008347A5002315F50083270412BDE7232082
:10172400A4122322A41285472311F40423200500C4
:101734008347640154412316F5000347D40023046E
:10174400E5000547A304E50017370000130787A148
:1017540058531385170215811C437D151375F50F16
:101764009CC25C43DCC21C479CC65C47DCC61C4B69
:101774009CCA5C4BDCCA1C4F9CCE5C4FDCCE19CDA2
:101784009386060213070702C1BF8327441288C346
:10179400835724042322A412850779B797370000BE
:1017A40083D747AE850717370000231DF7ACB24037
:1017B4002244410182808347C40023090400054573
:1017C40093C747002306F400DDB78347850193F7E9
:1017D400E70FD5EF83479501DDEB034625018346EB
:1017E400C50009CA83456503172700000347F77A34
:1017F40063E7E50013F7060141CF014709C6C18A33
:101804000357651C81C68356A51C369751C313071D
:10181400C712172500000355657CB335A702374668
:101824000F00411113060624814622C426C206C6AF
:101834007D543305A702974002E0E780408997274B
:10184400000083C7D775B384A70097370000938738
:10185400E7A203A787098327070963F387003E8468
:10186400184375FB97270000938747719C43829721
:1018740081476364A400B307A440B2402244B3B7D1
:10188400970093C7170092443E85410182808147A7
:101894003E858280973700009387478F98433C5B4F
:1018A400FDFF010001008280011122CC4AC84EC60E
:1018B40006CE26CA52C456C25AC00347B50085474D
:1018C4002A842E89832905096311F726835705087D
:1018D400835AC503172A0000130ACA6F172B000086
:1018E400035BCB6F63FB5721834605016397E620B7
:1018F40003278511631307200327450A631F071E67
:101904008346F5001D47639AE61E03471401B38A14
:10191400FA4013950A01418121CF9377170099CB9F
:101924008357E40583560404958F63D5A700139564
:10193400070141819377270099CB8357E41283569B
:101944000404958F63D5A70013950701418193770C
:10195400070199CB8357C41483560404958F63D528
:10196400A700139507014181218B11E311E105457E
:101974000357A4039307204E832444093305A70285
:1019840037460F008146130606243305F5029727D0
:10199400000083C7C760B3549502B335AB02BE944D
:1019A400C204C180231394083305AB02973002E0CC
:1019B400E780E071B307350133B5A7002E953E8764
:1019C40083264A0019E163E4D7003387D740B38400
:1019D4006403B7460F009387F623938606242320D7
:1019E400E900A697B3D7D702D6976362F7101D8F85
:1019F4002320E900972900009389495883A7090007
:101A040083240900829763E5A4123385A4406354B8
:101A1400050C83A709008297032709006361E51277
:101A2400198D8357E403172700000357275B8E079C
:101A3400B387E7021307003293870719B3D7E70286
:101A440063E7A710374A0F00130BFA23972A000005
:101A5400938A4A58130A0A248357040485072310D7
:101A6400F4048347041499E32285592222859700BC
:101A740002E0E780A0BA75E9832604098327C40835
:101A840003A74A00B6973E8563E4D70063E4E70002
:101A94003385E7408347F401835464082328A4086A
:101AA4008507A30FF4009727000083D72753B38437
:101AB400F402DA94B3D444036368950CB3049540F8
:101AC40083A7090023209900829763E3A40C33853C
:101AD400A440E34305F89727000083C7574C63E706
:101AE400A7089737000023AB8782014541A08326CE
:101AF4004A00B387F6403E97E5BD835464083747F0
:101B04000F009307F723B3846403BE949307072459
:101B1400B3D7F40263E7F900B387F9402320F9004F
:101B2400D1BD03274A00BA99C5BF23A03501D9B551
:101B3400972700009387074ADC43BE94F9B597279B
:101B4400000093872749DC43998F3E95D9BDA14571
:101B54002285970002E0E78040A5A305A402972709
:101B64000000938767429C5B81EF7D55F24062449D
:101B7400D2444249B249224A924A024B05618280C8
:101B8400894515458297D5B7B3049740AA940DBFEC
:101B940083A74A00BE9425BF39C901116C0022CC29
:101BA40006CE2A8411331DCDFD576302F502B247D8
:101BB4009725000083C5B53E63EFB7000345940243
:101BC400B385B7402EC6973000E0E78000C7F240E7
:101BD400624405618280172700001307A73F58431A
:101BE400BA97E9BF970002E0E780C060CDB7828072
:101BF400797126D206D622D44AD04ECE52CC56CAB9
:101C04005AC85EC68347550303447513AA843E9499
:101C14001374F40F9307400263F687001304B4FDB2
:101C24001374F40F03AA841383AAC413A38B84121A
:101C340022865285D685973002E0E780C043058925
:101C440015E503CBD41201498149337B6403930B1B
:101C540050024A865285D685973002E0E780A0413B
:101C6400058915C5639169031374F90F238B8412D5
:101C7400B250225492540259F249624AD24A424B17
:101C8400B24B456182808509E20993D989410509EE
:101C9400E31179FDE1BF83278509035605047971B2
:101CA40093D60701BD8EC206C182358E1357764086
:101CB40093575640898B058B5D8F93573640918B94
:101CC4005D8F93571640A18B5D8F93171600C18BC0
:101CD4005D8F9317360093F707025D8F93175600B5
:101CE4009355860093F707041E065D8F1376F60F4F
:101CF400518F93D7554013D63540118A898BD18F94
:101D040013D67540D18F13D61540218AD18F1396DF
:101D14001500418AD18F1396350013760602D18FB0
:101D240013965500137606049E05D18F93F5F50F8F
:101D3400CD8FA20745465D8F3307C70222D42A847C
:101D440026D252CC56CA032A8413832AC4135AC8EF
:101D540006D6369742074183935777401355574029
:101D64000989858BC98F135537401189C98F13553C
:101D740017402189C98F131517004189C98F13157D
:101D8400370013750502C98F131557009355870043
:101D9400137505041E07C98F1377F70FD98F13D551
:101DA400354013D755401189098B498F13D5754098
:101DB400498F13D515402189498F13951500418901
:101DC400498F1395350013750502498F13955500F6
:101DD400137505049E05498F93F5F50F4D8F220762
:101DE400D98FB387C7024AD04ECE5EC662C4B697B7
:101DF400C207C18313D7774013D557400989058B90
:101E0400498F13D537401189498F13D5174021893C
:101E1400498F139517004189498F1395370013751E
:101E24000502498F1395570093D587001375050450
:101E34009E07498F93F7F70FD98F13D5354013D7E2
:101E440055401189098B498F13D57540498F13D596
:101E540015402189498F139515004189498F1395A0
:101E6400350013750502498F139555001375050444
:101E74009E05498F93F5F50F4D8F2207D98FB387B0
:101E8400C702130650025285D685B697BD8E939429
:101E94000601C18033F6C402137BF60F973002E0CB
:101EA400E780601D05890DED8347D41201498149FE
:101EB400B3849702130C5002C1804A865285D6859A
:101EC400973002E0E780201B0589937BF90F11C549
:101ED40063863403850993F9F90F0509E31F89FD26
:101EE400230B6413B250225492540259F249624AA9
:101EF400D24A424BB24B224C456182805E8BCDB7B5
:101F04000111972700009387673722CC03A4870C1D
:101F140026CA4AC84EC606CEAA8413092500854996
:101F240015C083C7140003473400858B6304F7008E
:101F3400405CFDB71946930544004A85EFE0BFA213
:101F4400E31835FF2285F2406244D2444249B24943
:101F5400056182804111972700009387273222C4AC
:101F640003A4870C26C24AC006C69304250005496B
:101F740001E82285B2402244924402494101828010
:101F8400A6851305A402972002E0E7806085E3029A
:081F940025FF405CF1BF0000D5
:101FA00097110020938181AE175100201301818584
:101FB0001305400097E5FF1F9385C5041706002011
:101FC0001306C6FD63FAC5008322050023A0550051
:101FD00011059105E3EAC5FE17650200130505E04A
:101FE00097050020938585FB1386018563FAC5005C
:101FF0008322050023A0550011059105E3EAC5FEE3
:1020000013850185972500209385853B6377B5006F
:10201000232005001105E36DB5FEFD42739002BC5F
:102020008D4273904280930280087390023097E251
:10203000FF1F938222FD93E2320073905230971279
:102040000000938282D273901234730020303D439B
:102050002A876373C3029377F700BDEFADE59376EC
:1020600006FF3D8ABA960CC34CC30CC74CC7410748
:10207000E36BD7FE11E28280B306C3408A06970263
:10208000000096966780A6002307B700A306B70056
:102090002306B700A305B7002305B700A304B700C4
:1020A0002304B700A303B7002303B700A302B700BC
:1020B0002302B700A301B7002301B700A300B700B4
:1020C0002300B700828093F5F50F93968500D58D98
:1020D00093960501D58D61B793962700970200006E
:1020E00096968682E78086FA9680C1171D8F3E9667
:1020F000E374C3F8A5B7011122CC36C606CE2E84F0
:10210000EF20E03EB24637460F0013060624337632
:10211000C50291CAB285175502001305A5DC32C667
:10212000EF30121E324622856244F240814505613D
:102130006F8071699707002083D7471536876393AF
:10214000A702970600202394B6142392C1802393FC
:10215000E180B28617550200130545D62E86BE854E
:102160006F30121A17550200130545D76F30F22A47
:1021700081E9B28517550200130545CD6F3052181D
:102180008547639DF50017550200130565CD09C607
:10219000175502001305C5CD6F303228411106C610
:1021A0008947639AF50017550200130565CD01CEE6
:1021B000B240410182808D47E39CF5FE11EE175538
:1021C00002001305E5CCEF305225B24003C561850E
:1021D000A14541016F20804EB240B28517550200E3
:1021E000130545CC410159BF03574500011106CEE7
:1021F0009707002083D78709631BF702C167F91788
:10220000170700202324F70823A20180854713061F
:10221000F100854513055030A307F100EFA0814977
:1022200013858197EF10C007F24005618280175532
:1022300002001305A5CAEF30521EFDB7011122CCD2
:1022400006CE83C781804544638D87066369F400A9
:102250004147638FE702F24062440561828049474B
:102260006388E70C4D47E398E7FE83474500154731
:102270006391E72C83588500638E08220347A500ED
:1022800085476319F7220D68014713082890C9AAEA
:102290004146975502009385E5AF0A85EF30E27A13
:1022A00083C6618541468A8503C581972399018448
:1022B000239A018423880184EF70905723848180BE
:1022C00059BF834745001D476395E7228357850023
:1022D00095C358458347170083460700A207D58F4B
:1022E000239AF1848347370003472700A207D98F39
:1022F0002399F18403471500E947E39EE7F483D56A
:10230000418589CD0355250083C6618503D6218586
:10231000EF70502CC9472384F18035BFFD57175506
:1023200002001305A5AD2384F180EF30120F25B70D
:102330008347450025478145639FE71A035785007A
:1023400005CF8356A500D5476398F6025445A1688A
:102350003963096E1377F70F83C701850148938EA0
:1023600081969388B8BF1303939D130EDEDB09EBB0
:10237000630408002388F18403471500E947ADAAE8
:1023800083C5460003C6360003CF5600A205D18D93
:1023900003C6660022063366E60191CF03C8160025
:1023A00003CF0600860722083368E8017D18F697F8
:1023B00023900701054863091603630066028147FD
:1023C0006318C6012391B1982394B19605488547B7
:1023D0007D17D5061377F70F59BF2390B198239730
:1023E000B19605489147EDB72393B1982399B196DB
:1023F00005489947F1BF03D6A19663F0C50285054C
:1024000003552500C20583C66185C181EF70B017F1
:102410008547238EF184CD47FDBD17550200130576
:10242000A5A0EF30827F2394019611A28505035564
:102430002500C20583C6618503D62185C181EF7061
:10244000701911BD2394E19883C707000347060064
:10245000A207D98F239BF196B1A805071377F70F31
:10246000637A17055445931527003386B6008347D2
:10247000360003432600A207B3E76700C207C187FF
:10248000E39D07FD93871500B69703C707008346B2
:10249000060083C5C1852207558F8546E394D5FA8A
:1024A0002392E19883C7070003470600A207D98F4C
:1024B0002396F19603471500E947ADA823840180D0
:1024C00093878197094791070F00500F2FA0E7448A
:1024D0001755020013054596EF302274914503C548
:1024E0006185EF20A01D894503C56185EF20001D92
:1024F0009DB3054719B50547E31AF7F283C7018570
:1025000089CF138781968607BA971387218503574A
:1025100007002390E7002388018483D58196E39CFC
:1025200005EC175502001305E58EEF30026FFD57DD
:10253000DDB30547E311F7D203C7C1858547E31F24
:10254000F7F683D76197BDFB9387819683D5A70064
:102550000355250083C661858505C20503D64197CD
:10256000C181EF705002238E0184F5B14111939720
:10257000050122C406C626C24AC0C1872E8463D67E
:10258000070C03C56185EF109053AA841DC903474A
:1025900005009307000B6313F702938781970F00E1
:1025A000F00FD4430F00F00F858A130985003E8792
:1025B0008DE283C544004A85EF7070582685EF1080
:1025C000F0432165218DB2402244924402494101E9
:1025D00082800F00F00FDC430F00F00F8587858BA2
:1025E00099E3A939F9B783474500938657FE93F6D7
:1025F000D60F81E6EF1040046DBFAD46E38BD7FAEE
:1026000085466393D70283458500A947E383F5FA9E
:10261000C947638EF5000346C50017450200130540
:10262000E57AEF30E24D71B7CD46E394D7F81C530D
:10263000BD5611070F00500F2F20D764BDDB83C597
:10264000C400138581978297ADB793F7150085C3B2
:1026500017060020130646959705002093850594DC
:1026600003C56185EF90715113451400A9BF93F71D
:10267000450085CB938781859C4313858197CC4307
:10268000EF00B04E01CD930780F86309F500130603
:10269000000A914503C56185EF20E0211345440000
:1026A0001DB793F7250085CB938781859C431385C0
:1026B00081978C43EF00304001CD930780F8630988
:1026C000F5001306000A894503C56185EF20A01EA9
:1026D00013452400CDBD93F7850091C70145B93E50
:1026E00013458400CDB593F7050195C383C7618574
:1026F0001307A002814613068002E145170500205A
:102700000355C5B8EF90D142134504016DBD93F751
:1027100005020145E38907EA0147894609468145E3
:1027200017050020035585B6EFA0E12CAA851745B3
:1027300002001305656BEF30A23C1345040261B53E
:102740003D897D15954763EFA716174702001307CC
:1027500067660A053A951C41011122CC06CEBA974C
:102760002E8482872C0013054030EF90F1602C00FE
:102770000545EF60E06E174502001305A577EF30C1
:10278000C24905A883C7250019476391E7022E8532
:10279000A13C83456400174502001305A576EF3080
:1027A0002236174502001305A577D1BF0D47E38AEE
:1027B000E7FEF24062440561828003C72500954729
:1027C000E319F7FEC16717070020035727ACF91775
:1027D00003D5A500630FF700EFA0A11F1745020066
:1027E00013050575EF306243174502001305857721
:1027F00079B797070020239BA7A883D7E500238CF0
:10280000A196170700202314F7A883D70501239268
:10281000F18083D725012393F18093878197054722
:1028200091070F00500F2FA0E7440566130606C856
:10283000C14503C56185EF200008C1472384F180AD
:1028400003572401835604010356E4008355A40072
:10285000174502001305056FEF30822A71B703C7D1
:1028600025008D471745020013058570E313F7F423
:1028700039B783C5250091476397F50017450200D6
:1028800013058570EDBD9947639EF5002285EFF035
:10289000BF9583456400174502001305A566EF3018
:1028A000222601BF9547639AF50083471400F9F784
:1028B000174502001305056FD9B51745020013052A
:1028C000E56EF1BF828023ACA184828001111705DF
:1028D00000001305E5C906CE22CC26CAEF20A0646D
:1028E00093846185994705442380A4002315F10052
:1028F00013069100930740068545130550302316B3
:10290000F100A3048100EF90F15A17F6FF1F1306A0
:10291000A66DBD4513057030EF90D15917F6FF1F16
:1029200013064669ED4513056030EF90B158130664
:10293000A100894513051031EF90D15770008945EA
:1029400013052031EF901157930500050D45EF4019
:10295000403C930500051145EF40A03B8545794576
:10296000EF40203B7000914513057040A3038100A8
:1029700023048100A304810002C623050100EF8027
:10298000F10B13067100854513050040EF80110B14
:102990003000854513051040EF80510A1306A10051
:1029A000854513052040EF80710913069100854588
:1029B00013055040EF809108EF80A04903C5040043
:1029C000EF7090757D55EF7020027D55EFA0402D82
:1029D000EF00106F17F6FF1F1306865FD545014500
:1029E000EF60306F03C504008545EF10304DF240B5
:1029F0006244D244056182809307100A638AF5021B
:102A000063EBB7009307000A1745020013054568FA
:102A10006384F50282809307200A6381F50293079D
:102A2000300A17450200130565746387F50082803C
:102A3000174502001305056A6F30221E1745020074
:102A40001305856DD5BF9C4189C705476381E7089C
:102A50008280411126C2171700201307674693840E
:102A6000450022C431462E843A85A68506C6EF204D
:102A7000D27D9716002083D6A644975702009387ED
:102A800027829DCA54411045174502001305C552BF
:102A90008A06B6978C43EF30A2061C4489EB314678
:102AA000A685171500201305E540EF20127AB240E5
:102AB0002244924441018280584117450200130587
:102AC00025500A07BA978C43EF308203F9B783D7B2
:102AD000450081CFD045174502001305E54D9745C8
:102AE00002009385A54E6F30A201974502009385A1
:102AF000E54D174502001305A54C6F306200639247
:102B00000510411122C4171400201304243CB2857F
:102B10002285514606C6EF20527317450200130561
:102B2000E54BEF30820F5C40174502001305054C62
:102B300013972700974702009387877BBA978C43A8
:102B4000EF20127C5C44174502001305654B139778
:102B50002700974702009387A776BA978C43EF2008
:102B6000327A9715002083C5653717450200130593
:102B7000654AEF20F2780C40174502001305C54A5C
:102B8000EF201278174502001305454BEF30E2089D
:102B900083478400858B99C7174502001305854A32
:102BA000EF30A20783478400898B99C7174502003D
:102BB0001305C549EF30620683478400918B99C79E
:102BC0001745020013054549EF302205834784006D
:102BD000A18B99C71745020013050549EF30E203A1
:102BE00083478400C18B91CB2244B2401745020039
:102BF0001305C54841016F304202B24022444101F1
:102C000082808280411122C406C626C24AC09377C0
:102C100015002A84C1C797D0FF1FE7806048EF20C6
:102C20001255974702009387E7589043D443EF200B
:102C30005203EF20124E938701869C4313077025A1
:102C40002A89B307F540636DF70C9714002093842D
:102C50006426DC40B1E39717002083D7A7258DCFEA
:102C60008C441745020013056555EF2072698C44AA
:102C700097060000938686D81716002003568623F1
:102C800017F5FF1F13050578EF00D01AAA85174521
:102C900002001305E553CDE923A0218709883DC82B
:102CA00097D0FF1FE780C03FEF20724C974702008C
:102CB000938747509043D443971400209384042172
:102CC000EF20227AEF20F24493870186DC4313073A
:102CD00070252A84B307F540636BF7061745020099
:102CE00013054556EF20727397060000938606D1B0
:102CF00005468C4017F5FF1F1305C570EF00407B9C
:102D0000AA8519C51745020013058555EF20525FA6
:102D100023A28186B240224492440249410182802A
:102D2000971500209385851A17060000130606CD17
:102D300017F5FF1F1305056DEF00607DAA8529DDDE
:102D4000174502001305454CEF20925BB1B71745BC
:102D5000020013052553EF20526C9706000093865E
:102D6000E6C9014679B741111305800406C697D01C
:102D7000FF1FE7806034371700408327870A8D459F
:102D80001305002093E707202324F70AEF001055CE
:102D9000EF00106C17550200130545A5EF20F267F0
:102DA000EF10E01AEF10C032170500001305C5E55B
:102DB000EF00507117F5FF1F1305C564E121631083
:102DC000051093060002171600201306A6FC814585
:102DD00017F5FF1F13050563EF0010006311050EC3
:102DE00093060002171600201306C6FE814517F54C
:102DF000FF1F13052561EF00500171E193060002EA
:102E00001716002013060609854517F5FF1F130541
:102E1000655FEF00607C45E5930600021716002011
:102E2000130646FD8D4517F5FF1F1305A55DEF0041
:102E3000A07A51E5930600021716002013068603B8
:102E4000894517F5FF1F1305E55BEF00E07825E9DD
:102E500093060002171600201306C6FB914517F5CE
:102E6000FF1F1305255AEF00207731E99306000272
:102E700017160020130606F4954517F5FF1F1305D6
:102E80006558EF00607505ED9306000217160020E7
:102E9000130646FC994517F5FF1F1305A556EF00CD
:102EA000A07311ED9306000217160020130686F892
:102EB0009D4517F5FF1F1305E554EF00E07117F569
:102EC000FF1F130565130134EF903133013497D0A0
:102ED000FF1FE780401C79714AD006D622D426D243
:102EE0004ECE52CC56CA5AC85EC662C4295951C287
:102EF000232405144147130445000F00500FAF274A
:102F0000E444C18B4159B5E7130A8508B689328973
:102F1000AE8AAA8463150A00014491473DA88547FB
:102F20002300F00005448547054B894B130C160020
:102F30001387D7FF6373EB02639A770583C7841205
:102F400023AC041291CB63098A0623000400050414
:102F50004204418023AC64138D470D475159639A55
:102F6000E7004E86A28526855D2983A7841323A2C8
:102F7000F414B25022544A8592540259F249624ADA
:102F8000D24A424BB24B224C4561828033078A4081
:102F90009147E36F87F922854A94420441804A862B
:102FA000D68597E0FF1FE780C0900504A30F04FEBD
:102FB000420441808947ADBF91479DBF0323450A25
:102FC0006303030002838280397122DC26DA4AD847
:102FD0004ED652D456D25AD05ECE62CC66CA6AC899
:102FE00006DE6EC62A842E8DB2898144214A974A14
:102FF0000200938A6A43214B8D4B1309C515130CAC
:10300000850A930C851263E13403F2506254D25462
:103010004259B259225A925A025BF24B624CD24C3C
:10302000424DB24D21618280832784146362FA226B
:103030001397270056971843569702871387140053
:10304000EA9483C704002326F41489CB8546638F52
:10305000D700A1472324F414BA8475B7232E04148F
:10306000232E8413232044158547EDB7232EF41413
:103070002320F414232E9413232C04148947D9BF3E
:10308000B3069D0083C7360003C726009104A2073C
:10309000D98F03C7160083C60600C2072207558FC3
:1030A000D98F2326F41623247415B1BF0327841562
:1030B000FD4663E3E60293861400EA9403C6040027
:1030C000B305E4002388C51619CA0507232CE414A8
:1030D0002324F414B68405BFA686A147D5BF8D4727
:1030E000C5BF93861400EA9483C704000327041421
:1030F0002322F416E3F3E7FE0327C4139207BA97DB
:10310000D8472324E4160327441461DB03C60700D1
:1031100091475DDE7D172322E4145DBFB3079D0058
:1031200083C7070085042310F41695472324F4145D
:10313000D9BD938D1400EA9483C704000357041685
:10314000231A0414A207D98F032744162310F41658
:10315000931647000327C413369789CF83568700F9
:103160009D4789C65C4793B7170099072324F41439
:10317000EE8451BD8347070081C7CA8522853D3D46
:1031800003274414A1477DD38D47CDB703264416AA
:103190008326C413035744151206B29683D68600BD
:1031A0006374D702835604166370D70213061700A0
:1031B000231AC4148326841633069D000346060092
:1031C000369785042300C700032744168356441509
:1031D000131647000327C4133297035604166307D8
:1031E000D600035687007D166391C6068347070005
:1031F00091C783278416B69723800700835644150A
:10320000035704169D4763E2E60403274416832709
:10321000C4131207BA9783C7070081C7CA852285DE
:10322000713B03274414A1470DC38D4739A80357A9
:103230004415835604166376D7000507231AE41451
:10324000850403574415E302D7FC2324F41465BB1B
:10325000232464154DBBCE847DB38547B395B70059
:103260000F00500FAF27B544FD8D3335B00082807D
:103270008547B395B70093C5F5FF0F00500F2F207A
:10328000B564828001CD411113060019814506C63F
:10329000EFE0FFDBB2400145410182802955828089
:1032A0002300050023220500232405002326050012
:1032B000231805008280011126CA06CE22CC4AC8F6
:1032C0004EC6A95441C5D9C1930945002E892A8407
:1032D00089454E855937930480F82DE9034504004C
:1032E000232A2409014781460946C945EF60103E5B
:1032F0002326A408930470F931C989472315F408DB
:1033000085472300F5008327C4081309840803C6F2
:103310006185A38007008357C40003450400231878
:1033200004082314F408CA85EF60D032AA841DC5AE
:1033300089454E85353FC9454A85EF704000A685D1
:103340001745020013054513EF20827BF2406244CB
:1033500026854249D244B249056182801745020060
:1033600013058514EF20720BD5B7011126CA06CEBE
:1033700022CC4AC84EC6A95441C5D9C193094500BB
:103380002E892A848D454E85C93D930480F82DE908
:10339000034504002322240B014781460946C94501
:1033A000EF60D032232EA408930470F931C9894705
:1033B000231DF40885472300F5008327C40913095A
:1033C000840903C66185A380070083570401034570
:1033D00004002310040A231CF408CA85EF60902718
:1033E000AA841DC58D454E856135C9454A85EF6066
:1033F0001075A6851745020013050508EF204270D9
:10340000F240624426854249D244B2490561828035
:10341000174502001305C504EF203200D5B701118E
:1034200022CC26CA4AC84EC606CE2A8413094501B4
:1034300003450500AE84B28901472E868146C94501
:10344000EF60D02808CC35C1835784002686231B23
:103450009400231AF400930544022320340397D0E8
:10346000FF1FE780004503450400231E040003C638
:103470006185CA85EF60101EAA8405C191451305B8
:103480004400FD33C9454A85EF60706BA68517453A
:1034900002001305A5FBEF20A266F24062442685D8
:1034A0004249D244B24905618280930470F9F5B76C
:1034B000011122CC26CA2A84AE841105914506CE7C
:1034C00032C636C4593B15ED894732462302F40211
:1034D00093970401A3029402C183C180A3039402C1
:1034E000A183A18023049402A304C402A24623035F
:1034F000F40222856244F240D24436869945056141
:1035000039BFF2406244D244415505618280D841BE
:10351000894763EBE70AD845AD4763E7E70A01113E
:1035200022CC26CA06CE2A84232405148441110500
:10353000914532C61D3359E993970401A3029402C1
:10354000C183C1803246A183A3039402A1801308E2
:103550004402232C0412230204022303F402230452
:1035600094029306840A954501470943A14883C7FD
:1035700006009DCB3305B8002300E5001305F7FFD7
:1035800093871500636CA30003D58600C297238040
:10359000A7002181A380A70093873500832584138A
:1035A0008505232CB412BE850507C106E31117FD5E
:1035B000832784132285F2402322F4146244D244E8
:1035C000C205C1810561A1BD7D558280F240624482
:1035D000D244415505618280A95715C50DC6138790
:1035E000F6FF420741837D48636FE8001D47636C27
:1035F000B70092052E9585472304F50A2318D50AAE
:10360000232AC50A81473E858280A95715C10DC26C
:103610001387F6FF420741837D48636BE80089E921
:1036200085472304F5122318D512232AC512814792
:103630003E8582806FF03F8A03568500938781968E
:103640000147A14683D507006389C50005071377A5
:10365000F70F8907E318D7FE8280797106D6AA870B
:1036600019C795466309D70AB2504561828083D64F
:10367000A70017F5FF1F1305E5D8214703284509C3
:103680006388E600E30208FE7000A9550298E9BFCE
:10369000D847834741010345070093F7C70F2AC85E
:1036A0008346170093F5160013F62600CD8FD18FB1
:1036B00093F5460093F7370F13F68600CD8FD18F21
:1036C000C18ABD9BD58F230AF10003462700FD5513
:1036D00032CC83473700230EF100834777008346BF
:1036E0006700A207D58F8346570003474700C207EC
:1036F000A206558FD98F3EC6894763E6A7001336C9
:10370000C6009305F6FFE30108F6700017F5FF1FEA
:10371000130545CFA5BF0356A5004C4517F5FF1F60
:10372000130545CEEFF05F8A81B7CC41411106C643
:10373000328503C6150083C5050022064D8E42065C
:103740008D654186138875A2630C060F6348C80413
:10375000138845A26306060B634AC800938535A209
:103760006309B60623900600294679A0138855A25E
:103770006308060B938565A2E316B6FEC1451D4698
:1037800063ECE5064546198E63F3C7003E86239039
:10379000C60097450200938525D489A8138895A271
:1037A0006300060F634E060B1388A5A2630A060F7B
:1037B000938505A5E318B6FA99451D4663EEE50223
:1037C000198E63F3C7003E862390C600938501815E
:1037D00031A89D451D4663E1E5022146198E63F33C
:1037E000C7003E862390C60093858186BA9597D000
:1037F000FF1FE780000C0146B24032854101828004
:10380000AD451D46E3EAE5FE3146198E63F3C70078
:103810003E862390C600974502009385A5CFF9B751
:10382000B1451D46E3EAE5FC3546198E63F3C70052
:103830003E862390C600974502009385A5CE7DB7AE
:10384000C1451D46E3EAE5FA4546198E63F3C70014
:103850003E862390C60097450200938525C979B717
:10386000C1451D46E3EAE5F84546198E63F3C700F6
:103870003E862390C600974502009385A5CBBDB731
:10388000C1451D46E3EAE5F64546198E63F3C700D8
:103890003E862390C60097450200938565C6B9B75A
:1038A000B5451D46E3EAE5F43946198E63F3C700D2
:1038B0003E862390C600974502009385E5C03DB73C
:1038C00097F6FF1F938606874146CD4517E5FF1FF4
:1038D000130545736F900035B717004003C7770590
:1038E0001377E70FA38BE704130700F8A38DE70412
:1038F0003D47238CE70413075003A38CE70403C759
:10390000A7051377D70F238DE704828041112A83FF
:10391000014E930E407E130F0019930F400663E58E
:103920006E129308001913034006B3781503854EF1
:103930000D4FA14F337365020D891335150063EFE9
:10394000BE121308F6FF7946729842081358080110
:103950003307C70213D61700BE0732976146B3F686
:10396000C60213068070B386C6023697A166F58F2D
:1039700042075D8FB716004083C7F60293F707082A
:10398000A303F1000346710083C7F60293F707080B
:10399000E394C7FE83477100B716004093F7F70F13
:1039A0006388071293078008F3B7078093F78708A7
:1039B0003EC40F100000B717004093067005238027
:1039C000D704930680FA2380D7040F10000023AA9F
:1039D000070383C6170393E60608A388D70223804C
:1039E0000704A247F3A707800F1000001166B7175E
:1039F00000407D16D45BC85F93854703A98EF18E86
:103A0000F5FA93068008F3B6068093F6860836C664
:103A10000F100000930670052380D704930680FAE8
:103A20002380D7040F10000098C103C71703136742
:103A30000704A388E70223800704B247F3A707809F
:103A40000F100000410182807D133368E303930867
:103A5000E016630E08003368F3039308D01663087A
:103A600008009378330093B818009388D816330869
:103A70001E01131E0801135E0E0155B56393E50385
:103A80000548638608000148630303002A8871081B
:103A90007298FD15131E0801C205135E0E01C18147
:103AA00079BD13F8150063F4BF007908D5B7133852
:103AB0001800E5BF83C7F60293F70708A303F100D8
:103AC0000346710083C7F60293F70708E394C7FE25
:103AD0008347710093F7F70FF1DFE9B5914763EE84
:103AE000B70217470200130727A68A05BA959C411B
:103AF000BA978287B717004003A7470B1345F5FF16
:103B0000698F23AAE70A03A7070B698F23A8E70A8F
:103B100003A7070A798D23A0A70A8280B717004060
:103B200083A6470B1347F5FFF98E23AAD70A83A66E
:103B3000070B558D23A8A70A83A6070A758F23A014
:103B4000E70A8280B717004003A7470B498F23AAD3
:103B5000E70A03A7070B1345F5FF45BFB71700405A
:103B600083A6470B1347F5FF758F23AAE70A03A720
:103B7000070A598D4DB7B717004003A7470B498F68
:103B8000EDB7B71700408847420541819377050498
:103B900091EB9377F5013755E8011305058033451F
:103BA000F50282809377050C130700046397E70002
:103BB0009377F50137459C1CCDB72165130505D0DA
:103BC0008280B7F700E08847CC478280814737374B
:103BD0000040A14663C4C700328582800345B740D8
:103BE000E38EA6FE3385F500034505008507230413
:103BF000A740CDB79387C1819C43170700201307C7
:103C0000277C3E95636CE500173700201307879FDC
:103C10006366A70023AEA1803E858280FD57EDBF7D
:103C2000411122C406C62A84A93F2947B307E502E9
:103C3000B2408D83B3D7870222449507B3D7E702FA
:103C400037370040C207C1832316F7404101828005
:103C5000716541111305052006C6D937B7370040F5
:103C6000130770F82381E7400D47A381E74013074E
:103C70000004A380E74005472387E740B2404101A5
:103C800082802388018623AA0186B717004003A7F4
:103C9000070CB706C0FFFD16758F23A0E70C03A71E
:103CA000070DB7064000558F23A8E70C03A7070CA4
:103CB0003D9B23A0E70C03A7070D1367070123A86B
:103CC000E70C828023AAA18613064006894503C516
:103CD000C1876F00503EB717004003A5470C83A76C
:103CE000470C598113451500C18B058999E313656C
:103CF000250083C70187638CA7002388A18601C99B
:103D00009387418703A30700630303000283828034
:103D1000411193962500AA852D4506C697C0FF1F21
:103D2000E780007AB240014541018280011122CC36
:103D300006CE3714004026CA4AC84EC652C4834431
:103D40007405034AB405834984050349940569361B
:103D50008347A40593F4F40F137AFA0F93E717003F
:103D6000230DF40493F9F90F1379F90FB7170040F5
:103D700003C7A705058B6DFF03D5C705A38D4705B1
:103D8000238C3705A38C2705A38B9704F24062444C
:103D9000D2444249B249224A056182800111939777
:103DA000050122CC06CEC1872E8463D80700012BE3
:103DB00011C1A9212165218D1DA093F7150013C5FF
:103DC000150091EF93F7250099CF31371306000ABC
:103DD000894503C5C187EF00102E13452400F2402A
:103DE0006244056182809397250163D30706EF2023
:103DF000014FB717004003C7E70293068008137707
:103E0000C70F13671700F3B6068093F6860836C609
:103E10000F100000930670052380D704930680FAE4
:103E20002380D7040F1000002387E70223800704B4
:103E3000B247F3A707800F10000037F60200130601
:103E400006E0896503C5C187EF00F0260965A5B7BF
:103E5000939715010145E3D407F8173502001305C0
:103E60006574EF10925B13060064916503C5C1870A
:103E7000EF007024116581B72D71232A9110FD7414
:103E8000E98C232C811023282111232631112A8427
:103E9000AE893289930600100A86A6852D45232E09
:103EA000111097C0FF1FE780A061131544015181D5
:103EB0000A0513962900CA850A9597D0FF1FE78047
:103EC000409FA68585660146254597C0FF1FE78070
:103ED000205F0A86A68593060010294597C0FF1F1C
:103EE000E780005E8320C1110324811183244111E6
:103EF000032901118329C11015618280B7F70700DA
:103F000003C70701411106C622C426C24AC0A547FD
:103F1000631AF7009537B2402244924402490145A2
:103F20004101828013942500AA843289A286AA8541
:103F30000146254597C0FF1FE7808058A2864A8624
:103F4000A685294597C0FF1FE7808057E9B71D71F7
:103F500049469735020093856560174502001305B1
:103F6000E58886CE97D0FF1FE78020A001E91735AE
:103F700002001305E55FEF10524A01A0B7F600E01A
:103F8000795798CAFD57DCCA0567B7E700E023A058
:103F9000E7101306F00290C223A0E7180F100000EC
:103FA00017D7FF1F1307C7E823ACE1864157A38A41
:103FB000E740130600048145080897D0FF1FE780FB
:103FC000609697E7FF1F9387E75C3EC889679387F2
:103FD0000780231AF1009D673ECCB7070105938740
:103FE00007103ECEED472310F10285472301F10271
:103FF00097070000938707D2BEC2970700009387F8
:1040000027F0BEC48567938757D12312F102B7F515
:10401000070097070000938707BB3ED881469707A4
:1040200000009387E7D03000E10519453EDC97C0DA
:10403000FF1FE780E04818088147994630003E9608
:104040000346060085070507A30BC700E398D7FEC4
:10405000C24791C70357410185676373F70001A009
:104060008307410263D7070493078008F3B70780EB
:1040700093F787083EC40F100000B71700401307DE
:1040800070052380E704130780FA2380E7040F10EC
:104090000000B847B706100013670718B8C7985351
:1040A000558F98D323800704A247F3A707800F10EA
:1040B00000000808EF00F06AAA8501C91735020060
:1040C0001305454CEF10D22301A0F64025618280F4
:1040D0004111170500001305A5CC06C622C4EF0048
:1040E00090641384C1872300A4002128593E03450E
:1040F00004002244B24013060032896541016F007A
:10410000807B797106D613078008F337078093F711
:1041100087083EC20F100000B717004093057005D6
:104120002380B704130680FA2380C7040F10000011
:1041300083C6F70293F6D60FA387D702238007041E
:104140009246F3A606800F1000007337078013779E
:1041500087083AC40F1000002380B7042380C704E7
:104160000F10000003C7F70213675700A387E70289
:1041700023800704A247F3A707800F1000008147A0
:1041800001478146054685451305407EEFF00FF84F
:1041900068005146814597C0FF1FE780A078B707A8
:1041A000C0A83EC8B78732003ECA680097C7FF1F45
:1041B000938767223EC6EF10A00EB2504561828001
:1041C00023AC05FE1C4191E7010001000CC1828077
:1041D000BA8703A787FF6DFF23ACB7FE8280184123
:1041E00083A785FF6319B7001CC1FD5723AC05FEEB
:1041F000238FF5FE8280232CF6FEC5BF411122C419
:1042000037E400E026C204403707200006C6F98CD8
:104210002320E4180F10000009E92320941015450D
:10422000B24022449244410182800347E5FF930754
:10423000F00F6306F700232094101145D5B797D0EF
:10424000FF1FE7802027014523209410D1BF411193
:1042500026C2B7E400E04AC003A90400B707200063
:1042600006C622C43379F90023A0F4180F10000009
:1042700009E923A02411B240224492440249410199
:1042800082809565938505D0C98D2A842105C20554
:104290004205C181418197D0FF1FE780801201CD87
:1042A000FD5723200500231285002303F50023A0DA
:1042B00024112105C9B723A0241101456DBF0111A7
:1042C000B7E700E04AC803A907004EC63707200039
:1042D00006CE22CC26CAAA893379E90023A0E718A2
:1042E0000F10000097070020938747C48043814444
:1042F000014619E499E8A1654E85EF00500605A036
:104300008347E4FF6399370385CCA6851705002012
:104310001305C5C1E93565D0A1654E854526F24036
:104320006244B7E700E023A0271126854249D24422
:10433000B2490561828091E02286032484FF55BF43
:10434000A284E5BF41114AC037E900E022C403243A
:1043500009003707200006C626C2798C2320E918F9
:104360000F10000089E523208910154515A0AA84A7
:104370009707002083C7D7BB2E8563F5F4008947D4
:1043800063EE9700A53DB7E700E023A087100D4539
:10439000B2402244924402494101828083A785FFB2
:1043A00099E703C7E5FF9307F00F6308F700B935F6
:1043B000B7E700E023A087104DBF238F95FE1705B8
:1043C00000201305A5B6ED3BA1652685C52C01454A
:1043D0002320891075BF9707002023A907B4828086
:1043E00097070020938707BA9C4399E33E85828014
:1043F00003D727006316B70003C70700E308A7FE2B
:10440000DC47E5B7A5C1011106CE22CC26CA8147FB
:10441000C14633D7F540058B29C312053E95314778
:104420003305E50217070020130707BA04430544C4
:104430003314F4002EC642044180AA949C40C84024
:104440008297B24523A0040023A20400A18DF2406C
:104450006244D2442E85056182808507E39BD7FAAA
:104460000144EDB72E858280C9C1797122D406D668
:1044700026D24AD04ECE01444147B3D78540858BE2
:10448000A5C31205314722953305E50297070020A1
:10449000938787B303A907008544B3948400C204BB
:1044A000C180BE892A990327090011C70325490045
:1044B0002EC60297B24531473304E40283A70900B0
:1044C0003E941C4489E72320090023220900B250AE
:1044D0002254A58D02599254F2492E85456182805D
:1044E0000504E31CE4F88144DDB72E858280411188
:1044F000B7E700E022C480433707200006C626C283
:10450000798C23A0E7180F100000970700209387ED
:10451000A7A79C539384018299C782979C403E959C
:1045200023A0A18239A097070020938727A59C4349
:10453000EDF78840B74703009387D73F3305F5026F
:10454000B7A72600938737ECB24092443E9523A04C
:10455000A182B7E700E023A08710224441018280B6
:1045600001112E8626CAAA84131506019305F004AC
:10457000418122CC06CE32C697D0FF1FE78060E48F
:104580002A8419C53246A68597C0FF1FE78060328E
:104590002285F2406244D244056182807971B7E796
:1045A00000E022D480433708200006D626D24AD025
:1045B0004ECE52CC56CA5AC85EC662C43374040189
:1045C00023A007190F10000005E123A0871009455B
:1045D000B250225492540259F249624AD24A424B92
:1045E000B24B224C45618280970700209387079940
:1045F0009C43BA8A368AB28B2E8BAA8982979707F8
:1046000000209387679C98433E898144B146C14707
:10461000338CD40233068701104241EAC165938589
:1046200005F0414597D0FF1FE780A0D905E1970726
:104630000020938767959C5B81C7814511458297D0
:10464000B7E700E023A087102D4559B79707002052
:1046500093874793984331E79707002023A4A792B5
:1046600023000500832709000547331797002326F9
:104670000500232475012311E50023225501E2974B
:1046800023A0370123A2670123A4570163040A0072
:1046900023009A00B7E700E023A0871001450DBF73
:1046A0003E875C47F5FF48C765BF8504E392F4F693
:1046B000B7E700E023A08710214519BFB7E700E066
:1046C0009843B706200023A0D718758F0F1000005D
:1046D0009706002083C6D6856373D502170600208F
:1046E0001306068A93161500084236958356050070
:1046F000D58D2310B50023A0E7100145828023A0AB
:10470000E7100D458280B7E700E09843B706200028
:1047100023A0D718758F0F1000009706002083C6BE
:1047200036816375D5021706002013066685931639
:104730001500084293C5F5FF369583560500F58DA3
:104740002310B50023A0E7100145828023A0E710C5
:104750000D458280011137E700E026CA0443B70601
:10476000200006CE22CC4AC84EC652C4F58C232067
:10477000D7180F100000130705FF1377F70FFD4739
:1047800063E5E70AB146B306D50297070020938791
:10479000A783984336971C43C9CB135A4500054459
:1047A0003D893315A4001314050141802E895285DB
:1047B000A2853D31AA8929CDA2855285A93797F7CF
:1047C000FF1F9387A77B9C4382979707002083D77F
:1047D000E780338727032A84814613060064B3B732
:1047E000270313050732B335E500BE95EF00F20D40
:1047F000B307850097F6FF1F9386C67D3E87D44298
:1048000063E4A70063E4D7003387D74023A4E9001B
:10481000B7E700E023A097100145F2406244D2447C
:104820004249B249224A05618280B7E700E023A0ED
:1048300097100945DDB70111B7E700E026CA8443A8
:104840003707200006CE22CC4AC84EC6F98C23A0DA
:10485000E7180F100000BD4763E9A704314733078D
:10486000E50297F7FF1F938727769C43BA979C43EF
:104870008DCF05443314A400420441802E890145A4
:10488000A285B93EAA8911C5A2850145AD3D23A4E3
:104890002901B7E700E023A097100145F2406244E8
:1048A000D2444249B24905618280B7E700E023A0C3
:1048B00097100945E5B779714AD037E900E026D26B
:1048C00083240900B707200006D622D44ECE52CC4E
:1048D00056CA5AC85EC6FD8C2320F9180F10000076
:1048E00097F7FF1F83C7D764637AF50097F7FF1F19
:1048F0009387C76883AB070063970B00B7E700E0B7
:1049000023A09710A9A017FBFF1F130BAB6C832AE2
:104910004B00B74736FE938707C82E8A97F5FF1FCF
:1049200083D5C56BBE9AB387C5022A84B2898146F6
:10493000B3B5C50213850732B337F500130600641B
:10494000BE95EF00827863F0AA02232099100145FA
:10495000B250225492540259F249624AD24A424B0E
:10496000B24B45618280829B97F5FF1F83D5056717
:10497000B38735032A89130600648146B3B535032E
:1049800013850732B337F500BE95EF000274B30705
:1049900025013E8903274B0063E4A70063E4E70099
:1049A0003389E740D2852285EFF09FA309C92324EC
:1049B0002501B7E700E023A09710054551BF936597
:1049C00004F0C205C181414597D0FF1FE780609F79
:1049D00019E997F7FF1F9387275B9C5B85D3A28517
:1049E0001145829721BF97F7FF1F9387A7599C43D3
:1049F00085E797F7FF1F23A7A758854723260500BC
:104A0000232425012311450123008500A300F5007F
:104A10002322050079BFBA87D84775FFC8C7F1BF01
:104A20007971B7E700E026D284433707200006D625
:104A300022D44AD04ECE52CC56CA5AC85EC662C4A0
:104A400066C26AC0F98C23A0E7180F1000003DC1B0
:104A50004144B689B28A2E8A2A89B14C17FBFF1FBE
:104A6000130B8B56054D130C0003B30B9403032754
:104A70000B005E971C43A5E39375F400B315BD00CE
:104A800013554440C2055686C1811375F50F25356F
:104A900039C183270B00DE9723A0270123A24701FA
:104AA0006384090023808900B7E700E023A0971002
:104AB000014521A023A097100945B25022549254D9
:104AC0000259F249624AD24A424BB24B224C924CB2
:104AD000024D456182800504E31984F9B7E700E0DF
:104AE00023A097102145D1BF0111B7E700E026CAE6
:104AF000844322CC4AC84EC63707200006CE2A84FB
:104B0000AE893289F98C23A0E7180F1000006533B5
:104B10002285CE85EFF0DF8C2A8405C597F5FF1F2F
:104B200083D5C54BB3872503130600648146B3B50F
:104B3000250313850732B337F500BE95EF00E25821
:104B400048C013351400F2406244B7E700E023A0E8
:104B500097104249D244B2490E0505618280011185
:104B6000B7E700E04AC803A9070022CC4EC63707C2
:104B7000200006CE26CAAA892E843379E90023A014
:104B8000E7180F100000EFF0BF85AA8419C12311A8
:104B90000500A2854E85853E97F7FF1F83C74739DD
:104BA000639B370197F7FF1F83D7073D5D8C97F70E
:104BB000FF1F2393873CB7E700E023A0271101459F
:104BC00091E01945F2406244D2444249B24905613C
:104BD000828001114AC837E900E022CC0324090091
:104BE000B707200006CE26CA4EC67D8C2320F918B2
:104BF0000F1000009307F00263E8A704B147B30465
:104C0000F50297F9FF1F9389293C83A70900A6970E
:104C10009C439DCB9377F5008545B395F500C20580
:104C2000C18111812D3F83A709000145A69723A0CB
:104C3000070023A2070023208910F2406244D244D7
:104C40004249B24905618280B7E700E023A087109E
:104C50000945E5B74111B7E700E026C2844306C61F
:104C600022C437072000F98C23A0E7180F1000009A
:104C7000EFF00FF719E90145B2402244B7E700E031
:104C800023A0971092444101828097F7FF1F9387DA
:104C9000E72E9C430045829797F7FF1F9387873342
:104CA0006368A402D843B74636FE938606C8330528
:104CB000A4403697E371E5FC13070064B335E502C1
:104CC00003D6870081463305E502EF0002406DB749
:104CD000D8433A94C1BF411122C426C217F4FF1F22
:104CE0001304442F97F4FF1F93848424944858405E
:104CF00097F7FF1F9387872806C69C436393E608B0
:104D000082975440B74736FE938707C8B6973387D4
:104D1000A7003A856364F7006364D7003305D74082
:104D200097F4FF1F93840444DC5081CF97F7FF1F53
:104D30009387074B94433707CDFF7D179C46F98F28
:104D40009CC611E1484097F7FF1F9387E723DC5388
:104D5000829719E5DC508DC3EF10A16FEF00B13FD2
:104D6000DC5099CB97F7FF1F938787479843B70687
:104D700033001C47D58F1CC7B240224492444101E6
:104D80008280829794485840B387A6003E8563E4AA
:104D9000D700E3E7E7F83385E74059B7411106C686
:104DA00097F7FF1F23A6A7220295B24097F7FF1F90
:104DB00023ACA718014541018280994763E9B700F8
:104DC0008A0597F7FF1F93876719BE9588C1828070
:104DD00097F7FF1F23ACA71E11C5854717F7FF1FC5
:104DE000230DF718828041117146814517F5FF1F89
:104DF0001305C51606C697F7FF1F23A5071897F7D3
:104E0000FF1F23A7071C97F7FF1F23A9071697F774
:104E1000FF1F2384071697F7FF1F23A9071A97C0C0
:104E2000FF1FE78020B013068002814517F5FF1FA2
:104E30001305051097C0FF1FE780C0AEEF70B145A6
:104E400097F7FF1F9387471403C5C70383C7D7038B
:104E500085453E958D473305F50239051375F50FE8
:104E600097F7FF1F2387A70C99473305F502130512
:104E7000052497C0FF1FE780C05417F7FF1F2325A5
:104E8000A71459CD994717F6FF1F0346860A330624
:104E9000F60281451306062497C0FF1FE78080A80D
:104EA00097F7FF1F938747129C439387072417F7B1
:104EB000FF1F2323F70A17F7FF1F034787070A0778
:104EC000BA9717F7FF1F232DF70AEFF0CFD0E1298C
:104ED00097F7FF1F93874708944397F7FF1F83C7F0
:104EE000370513972700369717F6FFFF1306065866
:104EF00010C3138717001377F70F0A07369717F6B3
:104F0000FFFF1306665010C313873700890793F716
:104F1000F70F8A0797F5FF1FA38CE500B69790C39C
:104F2000B2404101828097F7FF1F83C7770017F7D0
:104F3000FF1F0347070063F3E70217F7FF1F13077D
:104F4000A70118439386170017F6FF1FA302D6FE8A
:104F500093962700369708C33E8582809307F00F0B
:104F6000E5BF1C416384071641777D8FB70600209B
:104F70008947631ED71403574500630A071441117C
:104F800022C419462A849305F00F610506C697C00E
:104F9000FF1FE78020A405478D476304E5121C44EA
:104FA00081CB58589947630E0710185C630B0710A4
:104FB00013060004814517F5FF1F1305E5FC97C094
:104FC000FF1FE780209613060004A28517F5FF1F38
:104FD000130585FB97C0FF1FE780A08D97F7FF1F84
:104FE00083D747FB17F7FF1F130707FA99E79307C4
:104FF000001097F6FF1F239FF6F897F7FF1F83C750
:1050000087F991E7854797F6FF1F2386F6F897F70C
:10501000FF1F83D767F891E7ED4797F6FF1F239DA2
:10502000F6F697F7FF1F83C717F791E7954797F6AF
:10503000FF1FA382F6F697F7FF1F83C707F691E7D6
:10504000854797F6FF1F238AF6F497F7FF1F83C75C
:10505000D7F499E78347F70097F6FF1FA38FF6F27F
:1050600097F7FF1F83C797F381CF93F637008983A4
:1050700017F6FF1F2308D6F497F6FF1FA384F6F454
:1050800097F7FF1F83C787F191E7D54797F6FF1F73
:105090002386F6F08347640199E79307C00397F6E8
:1050A000FF1F238EF6EE1C5791C7829797F7FF1FBD
:1050B0002394A7E8FD5717F7FF1FA309F718253317
:1050C0008147B24022443E854101828089473E8526
:1050D000828001114EC697F9FF1F9389A9EF83A71C
:1050E000090006CE22CC26CA4AC852C482971309A8
:1050F0000064B335250303DA8900814652863305FF
:105100002503EFF0917C97F7FF1F938767E2804FAD
:10511000AA8401456306940233858440636E94003B
:1051200003A5490052868146B335A9023305A90279
:10513000EFF0B179018D269597F7FF1F23A697E031
:10514000F2406244D2444249B249224A0561828017
:10515000011122CC0A852E844146972502009385B1
:1051600065C406CEEF00720E180806043A94035583
:1051700004FF97F7FF1F83D787E6F2406244AA97A0
:1051800037450F00130505243355F502056182806C
:1051900097F7FF1F83D7A7E451471D45637CF702AC
:1051A000794719456378F7021307200315456373A0
:1051B000F7021307B0041145637EF700130740069A
:1051C0000D456379F7001307600909456374F7001B
:1051D00013B5B70F8280011122CC06CE2A842EC6C9
:1051E000EFF0EFB0B245F240818D33A5A5022295D4
:1051F00062441375F50F05618280011122CC06CE41
:105200002A842EC6EFF0AFAEB245F240818D33A5B1
:10521000A502229562444205418105618280011107
:1052200022CC06CE2A842EC6EFF06FACB245F240F7
:10523000818D33B5A502229562440561828097F77E
:10524000FF1F938767D4985739CB411122C426C2D8
:1052500006C6BE84029717F7FF1F0357E7CD2A84BF
:1052600015CBBA876373A700AA87C207C183BA8622
:105270006373E400A286C206C182958F5147635BC7
:10528000F700DC5491C38297EF10610597F7FF1F79
:10529000239487CAB2402244924441018280828092
:1052A00097F7FF1F23A207D497F7FF1F9387C7CD58
:1052B000DC57011106CEAA8581C72AC68297B2455E
:1052C000CDC19C410545D9CBDC41C9CB83D78500F5
:1052D000D1C783D7A500D9C3514617F5FF1F1305C2
:1052E00065CF97B0FF1FE780C05C97F7FF1F23894A
:1052F00007CE97F7FF1F9387E7CD9C4317F7FF1F54
:10530000232EF7C697F7FF1F83C777C98DE793074B
:10531000805717F5FF1F035565CC3305F502374657
:105320000F001306062481468145EFF0115A97F7C6
:10533000FF1FA386A7C617F7FF1F034757C6A5473A
:1053400063E7E700A94717F7FF1FA30AF7C417058C
:105350000000130545D8EFF07FA40145F240056138
:10536000828097F7FF1F23A307BE97C7FF1F93876E
:1053700007A317F7FF1F232FF7C47D5797F7FF1FCA
:1053800023ACE7C4B7873200938727A197F6FF1FA6
:1053900023A6F6C497F7FF1F238407C4B7C70040AE
:1053A00023A4E726B9B7011122CC17F4FF1F130479
:1053B000A4BD084406CE26CA4AC801E90545F24004
:1053C0006244D2444249056182805C58E5DB185C46
:1053D00075D77000854582971844B247E300F7FE01
:1053E0009305E00417F5FF1F0355C5BA97C0FF1FCB
:1053F000E78020FD17F7FF1F232CA7B461D117F614
:10540000FF1F035626B99305F00F97B0FF1FE780E3
:105410006051814417F9FF1F130989B197F7FF1FE6
:1054200083C767B70326090263C1F402328597C0B8
:10543000FF1FE7802008014597F7FF1F23AA07B049
:1054400097F7FF1F23A807B09DBF97F5FF1F83D5D0
:1054500065B4B38795020844185C898185043E953C
:1054600008C2029765BF011156C297FAFF1F938ABF
:10547000AAB183A78A0022CC4AC84EC606CE26CA45
:1054800052C45AC0AA892E8432896386072203A790
:105490004A03630907141307F01F6367A71497F4FF
:1054A000FF1F9384E4A803AA040263170A0A956500
:1054B000938515E017F5FF1F0355C5AD97C0FF1F76
:1054C000E78020F097F7FF1F23A4A7A82A86630B85
:1054D000051083A74A0303A58A0097F5FF1F83D50C
:1054E00065AB8981829783A78A0003AA040217F714
:1054F000FF1F2321F7A68947639CF908C14763135F
:10550000F40E97F5FF1F83D5E5A8938505FC914719
:10551000B3C5F5028A05D29503C725009307A005F8
:10552000631EF70A83D70500639A370B4A852286E4
:10553000910597B0FF1FE780C0379C505285639359
:1055400047150145F2406244D2444249B249224AD9
:10555000924A024B05618280D850E38EE7F8956548
:10556000938525E017F5FF1F0355C5A297C0FF1FC0
:10557000E78020E52A8A3DC52A8683A74A0303A53A
:105580008A0097F5FF1F83D5E5A089818297A5B78B
:105590008D47639DF900C1476316F40497F5FF1F1B
:1055A00083D5459F938545FDF199B5B79147639A9A
:1055B000F9006319340397F5FF1F83D5A59DA11545
:1055C000E5B793070010639FF900A14763EC8700DC
:1055D00097F5FF1F83D5059CC115F9B79C505285DF
:1055E0006396470D2945B9BF1D6A568B6371450BFC
:1055F000130A05E01947334AEA0217F7FF1F03575A
:10560000679997FAFF1F938AAA92330AEA023E9A91
:1056100083A74A026395470183A40A029DE4930588
:10562000E00417F5FF1F0355E59697C0FF1FE780BD
:1056300040D9AA8445D983274B0397F5FF1F83D50B
:1056400065952A8689815285829791451307A00521
:10565000898193972500A69783C627006393E60464
:1056600083D60700639C360385058A052286A695A6
:105670004A8597B0FF1FE780C02383A70A02E38211
:1056800097EC268597C0FF1FE780C0E25DBD2167CC
:105690007917E369A7F4330A454185B783C5370015
:1056A00045BF83A70A02E38F97F2268597C0FF1FA5
:1056B000E78040E005BF97F7FF1F938767878C530C
:1056C00095D191479306A0058983139727002E97BC
:1056D00003462700E318D6F003560700631C360183
:1056E00085078A072286BE954A8597B0FF1FE78007
:1056F000401C81BD83473700C1BF97F7FF1F9387C9
:10570000A788984739C79C5FA9C705476313E50475
:10571000411122C417F4FF1F13048481105006C6E0
:105720000DC6485097F5FF1F83D5C586898182979E
:10573000085097C0FF1FE780E0D797F7FF1F23A906
:10574000078097F7FF1F23A70780B240224441013B
:1057500082808280011117F7FF1F1307E7824EC670
:105760008329870022CC26CA4AC806CE52C456C214
:10577000AA842E843289638B09201C5FBA8A99EB34
:105780002945F2406244D2444249B249224A924AEF
:10579000056182805C5BEDD79307F01F63EAA70E7B
:1057A00097E9FF1F9389C97883A70902B1CB03A5A5
:1057B0008A0083A749026395A70689476393F40883
:1057C000C147E31FF4FA17E5FF1F0355A57C914776
:1057D000130505FC3345F5029317250003A50902BF
:1057E0002286CA853E959307A0052301F500231064
:1057F0009500110597B0FF1FE780A00B014551B739
:105800009305E00417E5FF1F0355C57897C0FF1FF8
:10581000E78020BB97E7FF1F23ACA77249F98DB73C
:1058200083A74A0303A6090297E5FF1F83D5857660
:105830008981829783A78A0017E7FF1F232CF770BF
:10584000ADBF8D47639EF400C147E31BF4F217E53B
:10585000FF1F03552574130545FD9377C5FFBDBF95
:105860009147639AF400E31D94F017E5FF1F035579
:1058700065722115DDB793070010E393F4F0A1479B
:10588000E3E087F017E5FF1F0355C5704115F1B739
:105890009D676379F506930705E01947B3C7E702EB
:1058A00017E7FF1F0357076F17EAFF1F130A4A681E
:1058B000B387E702BE9983270A02A1CF83274A0252
:1058C0006399370703250A0291461308A00593053B
:1058D000F00F93D72600139727002A970346270037
:1058E000631F060783580700034637006395980631
:1058F000B306D64063CF860485078A072286CA8509
:105900003E95CDBD21677917E36CA7E6B307F54057
:1059100041BF9305E00417E5FF1F0355A56797C036
:10592000FF1FE78000AA97E7FF1F23A3A76259F58F
:1059300081BD83A74A0303260A0297E5FF1F83D58B
:10594000656589814E85829797E7FF1F23A437619C
:1059500095BF2310B70093160601C1829DBFB38582
:10596000860017E6FF1F0356E6629105130606FC44
:10597000E368B6E013063400719A1106B29623016B
:10598000070123109700A301D700BDB797E7FF1FBA
:105990009387075A9453BE89A9C203A50902914669
:1059A0001308A0059305F00F93D72600139727003F
:1059B0002A97034627006318060583580700034605
:1059C000370063989800B306D640E3D786F22310D9
:1059D000B70093160601C182C1BF8357C70017E500
:1059E000FF1F0345455B9305E0043305F5024205BF
:1059F000418197C0FF1FE780C09C97E7FF1F23A945
:105A0000A75441FDB5BB17E6FF1F0356A65897E5FF
:105A1000FF1F83C54558B385C5023386860011062E
:105A2000E3E0C5D681BF01458280011106CE2EC6B6
:105A3000EF90005401C9B245F240035525000561BD
:105A40006FD06071F240494505618280A386018A6A
:105A50002386018A23AA018823AC018823AE01880A
:105A600023A0018A23A8018823A6018897E7FF1FA6
:105A70009387C759930640382391D702F1761307CD
:105A8000400B938606B82391E7002392D702116753
:105A90009D46130600059305000A1305007D239219
:105AA000E7002393D70241478546130810F8239552
:105AB000E7002396E7002399E700239AE700239B5A
:105AC000E700239CE7002394E70223900700239339
:105AD000B7002394B7002397C7002398C700239DDE
