:040000006F104069D4
:10000400000000000000000090000020C202002058
:10001400A9BDF9F5780300200000000000000000ED
:100024007803002090000020000000000000000081
:10003400900000200000000090000020000000005C
:1000440090000020900000209000002090000020EC
:10005400900000209C080020900000200000000078
:1000640090000020900000209000002090000020CC
:10007400DE0300209000002090000020900000206B
:1000840090000020900000209000002090000020AC
:1000940001A04111B7170040985F3AC6945F3247F8
:1000A400E39CE6FE324541018280B7F70700011167
:1000B400944B13078008F337078093F787083EC2F1
:1000C4000F100000B71700401308700523800705C0
:1000D400930580FA2380B7040F10000003C6B70409
:1000E4001376F60DA385C7042380070412467326EE
:1000F40006800F1000001376050255CEF3360780F4
:1001040093F6860836C40F10000023800705238069
:10011400B7040F100000B70614007D89558D88C7F9
:10012400010001000100010023800704A246F3A698
:1001340006800F10000073370780137787083AC6CC
:100144000F100000238007052380B7040F10000060
:100154000F1000003727004093061005A303D78033
:1001640023800704B247F3A707800F10000093070A
:100174008008F3B7078093F787083ECE0F1000007E
:10018400B7170040130770052380E704130780FAAC
:100194002380E7040F10000003C7B70413670708A0
:1001A400A385E70423800704F247F3A707800F1011
:1001B4000000056182801376050459C273360780F6
:1001C4001376860832C80F100000238007052380A9
:1001D400B7040F10000037061400130606047D89C7
:1001E400518D88C70100010001000100238007042C
:1001F4004246732606800F1000007337078013777A
:1002040087083ACA0F100000238007052380B7042B
:100214000F100000A54793F6F60F639EF600B7276C
:10022400004013073005A383E780B71700402380FD
:100234000704D2470DBFB727004013072005E5B7D1
:1002440073370780137787083ACC0F100000238098
:1002540007052380B7040F10000098471367070CA5
:1002640098C723800704E247FDBD0111814601467A
:100274008145114506CEBD2493078008F3B7078056
:1002840093F787083EC60F100000B7170040130706
:1002940070052380E704130780FA2380E7040F1016
:1002A400000003C76704136717002383E704238050
:1002B4000704B247F3A707800F100000F24005615E
:1002C400828041118146014681451145212C130745
:1002D4008008F337078093F787083EC40F100000A7
:1002E400B7170040130670052380C704930680FAED
:1002F4002380D7040F100000FD552396B7022380F6
:100304000704A245F3A505800F100000733707808A
:10031400137787083AC60F1000002380C704238090
:10032400D7040F10000003C7670413671700238363
:10033400E70423800704B247F3A707800F100000E7
:1003440001A0BD473305F50201007D1575FD8280CE
:10035400411122C426C206C6AA840144631794002C
:10036400B240224492444101828005041305803E38
:100374004204C13F4180DDB79305000273A045806C
:1003840082457390153492402242B2424243D24392
:100394006244F244025592552256B2564257D257FD
:1003A4006258F25806499649264AB64A464BD64BF5
:1003B400664CF64C065D965D265EB65E465FD65F7D
:1003C4000961730020304111B7170040985F3AC6A5
:1003D400945F3247E39CE6FE324541018280B717C1
:1003E4000040130700032388E702854723A0F18216
:1003F40073002030411106C6EF00C07AF5BFBD6618
:1004040001471386E182938606A685458347060045
:1004140093F7F70F91C38280050701000100E3F70A
:10042400E6FE2387B182DDB7230304801547230347
:10043400E48001002302A480828083076480E3CEE9
:1004440007FE23030480828083076480E3CE07FED3
:1004540003454480828083076480E3CE07FE230241
:10046400A4808280411126C44AC24EC006C61377B6
:10047400F50BAD47AA892E8995446306F700194503
:100484006537653F8D444E854537FD59FD146398A6
:100494003401B240A2441249824941018280135579
:1004A40009011375F50F453F2209CDB7011126CC7B
:1004B40006CEB704080051371545BD377137693783
:1004C4002AC6A53F32459377150089EB13651500BD
:1004D4001375F50FF240E24405618280FD14E9FCD6
:1004E4000145CDBF397126DC4ADA4ED852D656D4EE
:1004F4005AD25ED006DE62CE66CCB7E700E07D5706
:1005040083AA070022C603AA470023A0E71823A250
:10051400E718B7170040130770052380E704130793
:1005240080FA2380E70483C74704930B75FFB684DE
:10053400E20793FBFB0F8546AA892E8B3289372469
:100544000040E187015763FA76016308D5008946C4
:10055400130700026313D5000157D98F93F7F70FE0
:10056400B71C00402382FC0411472303E4801305D5
:10057400F00F5D3D094CD135636D7C11B705070063
:10058400DA9537870700795563F2E504B387950058
:10059400636EF702370B0800A94733EB65016399D3
:1005A400F90689E48144513D26850DA0DA85094583
:1005B400553D05090345F9FFFD14050B693D81C44B
:1005C4009377FB0FFDF7DD3569FD7D55B7170040C7
:1005D400130770052380E704130780FA2380E704D8
:1005E40003C74704418B2382E704F250B7E700E0D6
:1005F40023A0571123A24711E25432445259C2593D
:10060400325AA25A125B825B724CE24C21618280A4
:10061400A5476395F90685691309F00FB306990098
:10062400B3742B01B6941349F9FFB3749900856B25
:1006340033796901416B9387F9FFB3F7270199E394
:1006440063FC340193D94900C147E3E637FF99BFFE
:100654000569C1697D19D9B71305800D63886901DE
:10066400130500026384790113051008CA85DD3B74
:10067400353D21DD4E99B3843441D9B7DA852D4512
:10068400D533CA94E30099F205097D3BA30FA9FE73
:10069400D5BF9387F9FF93F7F70F6361FC0C83C70A
:1006A4001C0413073008631FF70437070800636B43
:1006B400EB04B3079B00B706100063F5D704334B74
:1006C400EB0089476393F9068980D549E38C04ECF0
:1006D400DA850945413B11090327C9FF91472320C6
:1006E400E48003076480E34E07FE23033481FD178F
:1006F400EDFBFD14110B81C49377FB0FE9FF7D33F0
:1007040071F5E1B5B717004003C75704B7070800F0
:100714001377070219E3B78707007955E378FBEAF3
:1007240033079B00E3FFE7F855B58547E382F9F209
:10073400DA852D45053B9389F4FFE38504E62933E7
:1007440093F7390091EB832604800327090093076C
:100754004900E39AE6E43E89CE84F1BFB547639647
:10076400F9001305900BC93135BDB1471305B00A23
:10077400E38BF9FE99476391F904B7050800B36563
:10078400BB002D45C53181448D4BA1497539639614
:100794007401832704802320F9008504E39834FF3F
:1007A4008327048013172B01635507002312F900D4
:1007B400D5BB2322F900FDB39D476399F902814516
:1007C4001305B0044531BD44232009002322090048
:1007D400FD599D3993F77400CA9703C70700FD14A8
:1007E400398D2380A700E39634FF6DBBA147639244
:1007F400F9046D398144630D0B008D479304C003E4
:100804006308FB009304000563048B019304400414
:100814001375C507E30895D81945393139390545A4
:10082400213126850D3909453D314931E31C05D671
:1008340069BB91476399F90013056006F536F53EE7
:10084400130590090DB7E38F09D4F154A9BB4111E5
:1008540026C2973400009384242222C480404AC0D4
:1008640006C605490DC45C406360F9021C409CC087
:100874005C442320040099C7084882979C406393F2
:100884008700A2848040F9BFFD175CC0DDBFB24081
:10089400224492440249410182800000197106C237
:1008A40012C416C61AC81ECA22CC26CE2AD02ED2EC
:1008B40032D436D63AD83EDA42DC46DECAC0CEC29C
:1008C400D2C4D6C6DAC8DECAE2CCE6CEEAD0EED2CC
:1008D400F2D4F6D6FAD8FEDA938581818841E7000E
:1008E400050092402242B2424243D2436244F2445F
:1008F400025592552256B2564257D2576258F25870
:1009040006499649264AB64A464BD64B664CF64C9F
:10091400065D965D265EB65E465FD65F096173002E
:100924002030B7E700E09843B706200023A0D7188B
:10093400758F0F10000001C599C1814711E6B7E713
:1009440000E023A0E7108280B386F50003C8060008
:10095400B306F500850723800601E317F6FEC5B745
:1009640037E700E01C43B70620002320D718F58F93
:100974000F10000001C53307C50011E637E700E09A
:100984002320F71082800505A30FB5FEE31DE5FEC5
:10099400F5B737E700E01C43B70620002320D7183B
:1009A400F58F0F10000001C599C1014711EA37E71F
:1009B40000E02320F710054582800507E309E6FEE1
:1009C4003308E500B386E5000348080083C6060043
:1009D400E305D8FE37E700E02320F71001458280C5
:1009E400AA87014581CF09CE3E96850703C7F7FF45
:1009F4006317B700E39BC7FE0545828082800145EB
:100A040082807971973700009387C70D22D4804381
:100A140006D626D24AD04ECE52CC56CA5AC85EC644
:100A240069C037C9C901014B973900009389090B83
:100A34001309F937173A0000130A0A0B973A000012
:100A4400938A0A05973400009384C40E83572400C4
:100A540095E35C44631D0B00173700002324F7085B
:100A6400832BC4002285EF0010325E84A9A82326BC
:100A7400FB00FDB783A7090082971C443307F540A8
:100A84006375F500D8401D8F2A976361E90897378D
:100A9400000023A707008355240003450400974062
:100AA40000E0E78040DE5C405844B9C70C44D040C5
:100AB400AE97BE8663E4B70063E4C700B386C7405D
:100AC40014C4228B3A8459F097370000938747FC6B
:100AD4009C4B09476373F708F91717370000232164
:100AE400F7FCB250225492540259F249624AD24A53
:100AF400424BB24B4561828063170B00973700006D
:100B040023A2E7FEB1BF2326EB0099BF03274A02C5
:100B14001DCF63E1A7043385A7408347040085E321
:100B2400173700000347B7FD5917B307A7003E85E1
:100B3400D44063E4E70063E4D7003385D74083A758
:100B44000A016376F5009737000023ABA7F4228BE4
:100B5400404495BFD840BA977DBF9737000023A182
:100B640007F441B797370000938747FC9C4385C33C
:100B7400411106C682979737000083C707F689E7B5
:100B84009737000023A407FAB240410182809737C7
:100B9400000083C787F491E79737000023A807F87C
:100BA40082808280411122C417340000130404F1AE
:100BB4001C4006C626C24AC091C7829797370000D8
:100BC40023AE07EE9737000083C717F9858B1739D3
:100BD4000000130929F889CF834779001947631264
:100BE400F71097370000A38907F6F9295C44829728
:100BF4001C4491C3829797340000938464EE984018
:100C0400173600000346D6E89737000083C747E845
:100C140093961700BA9683D60600E5C2973700006C
:100C240083C707E763E5C70E97370000238207E60B
:100C34001C40639E071497370000938727EA9C4360
:100C440063870714973700009387C7EEDC43173791
:100C540000002327F7E475339737000083C737F084
:100C6400639707129737000083C757EF91CF8347E5
:100C7400790093F7F70F89EB97370000A38007EE0D
:100C8400975000E0E780A0B7973700009387C7E547
:100C9400DC53638E070E97370000938767DF9C4B06
:100CA400FDC78347790015476363F70E9737000044
:100CB40083C7C7EF918BE1EF9737000083C7E7E164
:100CC400F9E790409736000083C696DC63C7D70CDB
:100CD4002244B240924402494101174300E06700B4
:100CE40023E9834779001D47E314F7F097370000A1
:100CF400A38407E6D12E1C48DDBD850793F7F70FC3
:100D0400973600002386F6D8E3E0C7F001BF8607D4
:100D14003E97835507002310070097370000239D53
:100D240007DA97370000938727D99C4317350000CB
:100D3400034505D613172500BA979C438297973726
:100D4400000083D767D917370000034767D493C7D8
:100D5400F7FF7D8D9317170098403E978357070040
:100D64005D8D2310A7009737000083C767D291C712
:100D7400850717370000230DF7D017370000034706
:100D840027D19737000083C7B7D0E37FF7E8B24095
:100D940022449244024941018280139717003297FA
:100DA400035707006DF7850715B737C7004083263B
:100DB400C720B707FCFFFD17F58F2326F720010096
:100DC4000100973700009387A7CCC84F8327872655
:100DD4002326D7206A0593C7F7FF99835D8D828008
:100DE400EFF05FD8730000000000000097320000AD
:100DF4009382A2CE0383020023800200630F0300C8
:100E0400F32510342EC0970500009385A5FD73903B
:100E14001534EF00E0507300203086DCEF004050C2
:100E2400E6508280000017370000130767D214438E
:100E3400411122C49C5E4AC006C6998326C2858B92
:100E44003A8417390000130969D0D1CB93070006FF
:100E54009CDE17370000034747D0930700089734F8
:100E64000000938424CF631BF700832709009C436D
:100E740093F70704173700002301F7CE83C7040054
:100E840093F707049DC397370000938727C59C43B6
:100E940082979737000023ADA7CC83C7040093F74C
:100EA400F70B173700002307F7CA83C7440093F7EB
:100EB400070495E7854717370000A30FF7C897374E
:100EC40000009387A7CB9C433707020098C71307FA
:100ED40000FC973600002381E6C89848F8D31840F0
:100EE4001C5F9183858B8DC31C5F93E707011CDF17
:100EF40097370000938787C89C4323A2070685473A
:100F040017370000230AF7C483270900D843058351
:100F1400058B19C7D843759BD8C3D843799BD8C3CD
:100F2400B24022449244024941018280ED3D730063
:100F340020309317D50063D30702973700009387B7
:100F4400E7C39C437D57B8D797370000938747B4CE
:100F5400DC4F850717370000232AF7B49377850001
:100F64009DCB9737000083C707BF93E71700173758
:100F740000002302F7BE930700F817370000230D83
:100F8400F7BC973700009387A7BC98435C57F19B45
:100F940093E717005CD7937715008DC79737000048
:100FA40083C757BB93E7170017370000A304F7BAAA
:100FB400973700009387C7B998435C57F19B93E731
:100FC40017005CD79377650095CB93774500173767
:100FD4000000130727B8CDCB8347070093E717001A
:100FE400173700002308F7B697370000938747B6F2
:100FF40098435C57F19B93E717005CD79317F50070
:1010040063D4070217370000034747CC418B973757
:101014000000938727C451C383C7870793E7070258
:10102400173700002304F7CA9317E50063D70702B4
:101034009737000083C747B2E207E18763D7070009
:101044008547173700002309F7B0973700009387C7
:10105400E7B29C433707020098C79317C50063D4CF
:10106400070217370000034777C6058B9737000040
:10107400938747BE29C383C7970793E7270017378A
:101084000000A305F7C482808347370093E7170065
:1010940017370000A301F7AC81BF03C78707894650
:1010A4003D8B6308D70083C787070D47BD8BE39D3E
:1010B400E7F69147B5B703C79707118B69D783C77D
:1010C400970793E7870065BF97370000938707ABBF
:1010D4009443973700009387E7A703C70700058B5E
:1010E40011CB97370000238907A697370000A38503
:1010F40007A6828003C71700058B65F7F85271FFB6
:1011040083C75700DDB717370000130767A4032808
:101114000700832788039583858BADEF11C683274A
:101124000803BD832300F6009DC61C43985B460755
:10113400935767016356070093E707C0C207C1834B
:1011440003970600C207C18709C7BA970947B3C7FF
:10115400E7022390F6008DCD8345150095C9973796
:10116400000083C7879F93F7070413879500894579
:1011740085C33A95834705000547994593F6F706D5
:101184006398E600E207E187814563D30700B94528
:101194002E8582808545EDBF411122C406C626C234
:1011A400173400001304849D45E114402E87FC523B
:1011B400FDFF973700002380079A97370000938735
:1011C400A792D453BE8495C6B7E700E0B7062000C3
:1011D40023A0D728B7F700E083A607D1ED9A23A868
:1011E400D7D083A607D193E6860323A8D7D073006C
:1011F40050103A85B285974000E0E780004D97375C
:1012040000009387E7949C43B70680009843558F6A
:1012140098C3D857719BD8D797370000A38E0792ED
:1012240097370000A38807921C40094798C3DC50F5
:1012340085CF37F700E0832707D193E7870023287A
:10124400F7D0730050100DA08D476315F504973740
:1012540000009387E78F9C43B70680009843558F1F
:1012640098C3D857719BD8D7144017370000130779
:10127400678E83472700858B89EB83473700858BEF
:10128400C9CF973700002389078CB2402244924487
:10129400410182808547E319F5FC97370000938765
:1012A400A784D4533E8795C6B7E700E0B70620006D
:1012B40023A0D728B7F700E083A607D1ED9A23A887
:1012C400D7D083A607D193E6860323A8D7D073008B
:1012D400501014408177FD17D046F18FDCC60F10F3
:1012E40000001440B70702009CC6930700F8973526
:1012F40000002383F58697370000938767859C4316
:101304009C439D83858B99C793076019FCD2D0C6F3
:101314005C5339BF9307E01BD5BFFC52B9FBB5B78B
:1013240097370000938787859C438847D847798DF2
:1013340009C988C79387418503A307006303030092
:101344000283828017370000130787838346B7011F
:101354009737000083C797854C4BB697FD8B33D7DF
:10136400F50097360000A38DF68097360000A38F12
:10137400F682058B15EF1737000003477783B3F721
:10138400E702814601471305000233D6E500058ACA
:101394001378F70F19CA6397D70097270000A38122
:1013A400077F8280850693F6F60F0507E31FA7FCE7
:1013B400828097270000938767729C43011122CC97
:1013C4004AC806CE26CA4EC682979727000093873E
:1013D400277D804701496301A406BE8463668506B0
:1013E400018D135455009727000083C7077B137999
:1013F400F5016360F404972900009389A973993770
:1014040003A884009726000083C626791397560004
:101414004297158C3A8683A5490063640701636487
:10142400B7003306B7409727000023AFC776E378A9
:10143400D4FC160433692401F24062444A85D24440
:101444004249B24905618280972700009387876EDD
:10145400DC4333848740229569B79727000093873C
:10146400E77198438967938707F47CD39727000033
:10147400938707769C4383A60709139656006358FF
:10148400060083A607091396660063440600745396
:10149400FDF282804111B7E700E022C480433707A0
:1014A400200006C6798C23A0E7180F10000011C194
:1014B40099E5B7E700E023A0871001457DA89307CD
:1014C4003500C207C183F19BC207C18313074003E0
:1014D4006369F702172700001307477708431727A4
:1014E40000001307277614436392A602172700000F
:1014F4001307875F185B55DFC207DD8D054502972B
:101504004DBF1727000013072774C9BF0357650091
:101514002DEB035745006366F706B306F7402146F3
:10152400637CD60203280500938687001D8FAA9644
:10153400611717260000035606562392E60023A0DF
:1015440006012393060014C12312F500130786FF36
:10155400972600002391E6542313B5009725000035
:1015640083D56553B387F540172700002315F75239
:10157400B7E700E023A087102105B24022444101CF
:101584008280084195B7B7E700E08C433707200015
:1015940023A0E718F98D0F10000001E523A0B71070
:1015A4008280972700009387676A03A30700972721
:1015B40000009387276983A8070081469A8763F20E
:1015C400170D03A807006361F50C636FA80A13875E
:1015D40087006368E50A03D6670021670507631778
:1015E400E60003C7A1850507238DE18417250000C4
:1015F4001305054A03D647000357650023930700E4
:10160400329742074183172E00002316EE48638C5D
:1016140067021723000013032363032303006304F7
:10162400F30203D366006310030283D7460023A0AA
:10163400060121073E9621062392C6009727000043
:10164400239BE744B6879843630D1703972600004E
:101654009386865F94426306D7028356670095E2B9
:1016640083D64700035647001843A106B296239237
:10167400D70098C383576500A10717270000231CD0
:10168400F740B7E700E019BFBE86C2870DBF000070
:10169400971100209381C18A17510020130141162C
:1016A4001305400097F5FF1F9385859517060020C5
:1016B400130606FE63FAC5008322050023A0550025
:1016C40011059105E3EAC5FE179500001305050110
:1016D400970500209385C5FB1386818163FAC500B5
:1016E4008322050023A0550011059105E3EAC5FEF8
:1016F4001385818197250020938585686377B500DC
:10170400232005001105E36DB5FEFD42739002BC74
:101714008D4273904280930280087390023097F256
:10172400FF1F9382E28D93E232007390523097123E
:1017340000009382E21F73901234730020303D4303
:101744002A876373C3029377F700BDEFADE5937601
:1017540006FF3D8ABA960CC34CC30CC74CC741075D
:10176400E36BD7FE11E28280B306C3408A06970278
:10177400000096966780A6002307B700A306B7006B
:101784002306B700A305B7002305B700A304B700D9
:101794002304B700A303B7002303B700A302B700D1
:1017A4002302B700A301B7002301B700A300B700C9
:1017B4002300B700828093F5F50F93968500D58DAD
:1017C40093960501D58D61B7939627009702000083
:1017D40096968682E78086FA9680C1171D8F3E967C
:1017E400E374C3F8A5B7B717004003C777051377A9
:1017F400E70FA38BE704130700F8A38DE7043D4725
:10180400238CE70413075003A38CE70403C7A7053D
:101814001377D70F238DE7048280B717004003C7DF
:10182400E7020D8941111377C70F498F930680088A
:10183400F3B6068093F6860836C60F1000009306AA
:1018440070052380D704930680FA2380D7040F10F1
:1018540000002387E70223800704B247F3A7078029
:101864000F1000004101828041112A83014E930E22
:10187400407E130F0019930F400663E56E12930820
:10188400001913034006B3781503854E0D4FA14F7D
:10189400337365020D891335150063EFBE12130807
:1018A400F6FF794672984208135808013307C702B5
:1018B40013D61700BE0732976146B3F6C602130665
:1018C4008070B386C6023697A166F58F42075D8F96
:1018D400B716004083C7F60293F70708A303F10085
:1018E4000346710083C7F60293F70708E394C7FE23
:1018F40083477100B716004093F7F70F6388071208
:1019040093078008F3B7078093F787083EC40F1046
:101914000000B7170040930670052380D704930690
:1019240080FA2380D7040F10000023AA070383C67C
:10193400170393E60608A388D70223800704A24767
:10194400F3A707800F1000001166B71700407D163B
:10195400D45BC85F93854703A98EF18EF5FA93068D
:101964008008F3B6068093F6860836C60F1000008A
:10197400930670052380D704930680FA2380D70446
:101984000F10000098C103C7170313670704A38847
:10199400E70223800704B247F3A707800F10000073
:1019A400410182807D133368E3039308E016630EDC
:1019B40008003368F3039308D0166308080093788B
:1019C400330093B818009388D81633081E01131EE9
:1019D4000801135E0E0155B56393E503054863865C
:1019E40008000148630303002A8871087298FD15F2
:1019F400131E0801C205135E0E01C18179BD13F8DF
:101A0400150063F4BF007908D5B713381800E5BF93
:101A140083C7F60293F70708A303F1000346710096
:101A240083C7F60293F70708E394C7FE8347710060
:101A340093F7F70FF1DFE9B531714AD966CB06DFC9
:101A440022DD26DB4ED752D556D35AD15ECF62CD96
:101A54006AC96EC7AA8C02D8EF0010122A899307AC
:101A64008008F3B7078093F787083EDA0F10000069
:101A7400B7170040130770052380E704130780FAA3
:101A84002380E7040F10000003C7F7021377770FD2
:101A9400A387E70203C7F70213678700A387E70258
:101AA40023800704D257F3A707800F1000000545D1
:101AB400AD33130780C13347E902116A93070AE87B
:101AC40093065002BD69930BA004814A014B130491
:101AD4008008930470057D1AB347F9023307D702CF
:101AE4003EC0FD873ECC938709A69309803E3347C9
:101AF400F7023AC27D873AC4334739038549B3991B
:101B0400990193D93940B306D702B30B7703B3C60F
:101B1400F602B3CBFB0236C6FD8636C893D6FB412C
:101B240036CEB7460F00938606243349D90285661C
:101B3400938606FAB3969601B389E9021307805295
:101B44003309D90293060010B389E9023349D90253
:101B5400B3C9F9029316390036CA37190040FD8615
:101B640036D0930D090493D7F9413ED2F33604805D
:101B740093F6860836DC0F10000093077005238067
:101B8400FD00930680FA2380DD000F1000008346D9
:101B9400390593F6860FA309D9048346390593E6DC
:101BA4001600A309D90423800D00E256F3A606808B
:101BB4000F100000130C80FA116DF336048093F6B5
:101BC400860836DE0F100000930770052380FD00A1
:101BD40023808D010F10000083463905216693E6AA
:101BE4000602A309D90483560905B3E6A6012318FE
:101BF400D90483560905D18E2318D90423800D00F6
:101C0400F256F3A606800F1000008346390593F6BA
:101C140006026389061803463905218A6DDE081811
:101C2400612F7336048013768608B2C20F10000049
:101C340023809D0023808D010F100000B717004002
:101C440003C637051376F60DA389C70403C6370503
:101C540013660602A389C704835609052166B3E601
:101C6400A6012318D90483560905D18E2318D90453
:101C740023800D009646F3A606800F1000008346CD
:101C8400390593F606026386061483463905A18A4C
:101C9400EDFE97E0FF1FE780C03FAA8636D497E0A9
:101CA400FF1FE780003FA256E30AD5FE83560905CD
:101CB4004255B3E6A6012318D904392F83463905C2
:101CC400A18AEDDE0356090583462905824733764A
:101CD400CA00B306DA0293D5F641B296B388F64049
:101CE400E24733B8C6002E983308F840A247B3B68B
:101CF40016013308D84063C70701631DF8009247F3
:101D040063FA1701C247634DF80E63950701B247A2
:101D140063E8F80E894663E7660FF24693151800E8
:101D240013D3F8015E8613951800B365B30042D649
:101D340046D4EF60702F3258050B137BFB0F6347BB
:101D4400000163120838A258638F0836130815007F
:101D5400B336A800B69513D6F5013298B336C80049
:101D6400AE9613581800FE06B3E6060173360480D7
:101D740013768608B2C60F10000023809D002380CE
:101D84008D010F1000000356C902B296C206C1822B
:101D94002316D90223800D00B646F3A606800F1041
:101DA400000021BDF336048093F68608B6C00F10F8
:101DB400000023809D0023808D010F1000008346C6
:101DC400390593E60602A309D90423800D0086464B
:101DD4000DBDF336048093F68608B6C40F100000D8
:101DE40023809D0023808D010F1000008346390558
:101DF40093E60602A309D90423800D00A646A5BDD7
:101E0400E30D0BF0F336048093F68608B6C80F1082
:101E14000000930680FA23809D002380DD000F10CC
:101E240000008346390593F5FC0F93F6860FA3094A
:101E3400D90483463905CD8EA309D90423800D0026
:101E4400C646F3A606800F100000130580FA034669
:101E54003905930639051D8A63149629733604805F
:101E640013768608B2CC0F100000130680FA238084
:101E74009D002380CD000F10000003C606001376DA
:101E8400F60D2380C60003C60600136606022380EF
:101E9400C600835609051166D18E2318D9048356CA
:101EA40009052166D18E2318D90423800D00E64646
:101EB400F3A606800F100000130680FA8346390546
:101EC40093F606026388062483463905130C390504
:101ED400A18AFDDA0818CD21F336048093F686082A
:101EE400B6D00F100000930680FA23809D00238053
:101EF400DD000F10000083460C00116693F6F60D0A
:101F04002300DC0083460C0093E606022300DC0079
:101F140083560905D18E2318D904835609052166F1
:101F2400D18E2318D90423800D008656F3A606808B
:101F34000F100000130680FA8346390593F6060253
:101F44006385062083463905A18AEDFE97E0FF1FCD
:101F5400E78020142A8C97E0FF1FE7808013E30CAE
:101F640085FF8356090511664255D18E2318D9047D
:101F7400A5218346390513063905A18AFDDAF3360E
:101F8400048093F68608B6D40F100000930680FAF6
:101F940023809D002380DD000F100000834606008F
:101FA40093F6F60D2300D60023800D00A656F3A663
:101FB40006800F1000008356090503462905D24701
:101FC400B376DA003306CA021305800C9355F64142
:101FD4003696330DF6408257333CD6002E9C33366A
:101FE400A601330CFC40330CCC40330885039256D5
:101FF4004E86B335A5033305A503C295EF60D00221
:1020040063468001631E0C16630C0D16130615003F
:102014003335A6002E959356F5013696B335D60082
:10202400AA959396F50105828585D18E6346B00005
:10203400639D051A638B061A0356C902158233057C
:10204400D6003336C500B2956348B00063910524C9
:102054001306F00F637DA622894663F35615930792
:102064008008F3B7078093F78708BED60F100000E7
:1020740037170040930770052300F704930780FA8D
:102084002300F7040F1000008356C70289678117E5
:10209400D58FC207C1832316F70223000704B6575E
:1020A400F3A707800F100000FA506A54DA544A5913
:1020B400BA592A5A9A5A0A5BFA4B6A4CDA4C4A4D74
:1020C400BA4D296182801308F5FF3335A800FD1548
:1020D4002E951356F5013298B336C800AA9651B11D
:1020E400F336048093F68608B6CA0F1000002380E6
:1020F4009D002380AD000F10000083463905CD8E6E
:10210400A309D90423800D00D646F3A606800F1038
:10211400000035BBF336048093F68608B6CE0F1064
:10212400000023809D002380CD000F100000834613
:10213400390593E60602A309D90423800D00F64667
:10214400F3A606800F10000095BBF336048093F6C7
:102154008608B6D20F10000023809D002380CD0096
:102164000F1000008346390593E60602A309D9043B
:1021740023800D009656F3A606800F1000006DBB59
:102184009306F5FF33B5A600FD152E959355F5017D
:10219400AE96B3B5B600AA951396F501858269B5D6
:1021A400F336048093F68608B6D80F100000930621
:1021B40080FA23809D002380DD000F1000008356E9
:1021C400C9020566011693F6F60FD18EC206C182C6
:1021D4002316D90223800D00C656F3A606800F10DD
:1021E4000000850A93FAFA0F51B233E6B60045C2ED
:1021F4000356C9023305D0403338A000B305B040BC
:10220400B385054115826345B000D1E16371A60829
:10221400894663F0560593078008F3B7078093F760
:102224008708BEDA0F100000B717004013077005C7
:102234002380E704130780FA2380E7040F100000CB
:1022440003D7C7027D8B2396E70223800704D65762
:1022540081BDF336048093F68608B6DC0F100000C7
:10226400930680FA23809D002380DD000F10000078
:102274008356C9020566011693F6F60FD18EC2067F
:10228400C1822316D90223800D00E656B9B79307FD
:102294008008F3B7078093F78708BEDE0F100000AD
:1022A40037170040930770052300F704930780FA5B
:1022B4002300F7040F1000000356C702939756003B
:1022C400B297C207C1832316F70223000704F65707
:1022D400C1BB914763EEB70217870000130747FF9E
:1022E4008A05BA959C41BA978287B717004003A71D
:1022F400470B1345F5FF698F23AAE70A03A7070BCA
:10230400698F23A8E70A03A7070A798D23A0A70AE0
:102314008280B717004083A6470B1347F5FFF98E59
:1023240023AAD70A83A6070B558D23A8A70A83A639
:10233400070A758F23A0E70A8280B717004003A716
:10234400470B498F23AAE70A03A7070B1345F5FF99
:1023540045BFB717004083A6470B1347F5FF758F9A
:1023640023AAE70A03A7070A598D4DB7B7170040F8
:1023740003A7470B498FEDB7B717004088474205BD
:1023840041819377050491EB9377F5013755E80183
:10239400130505803345F50282809377050C1307F6
:1023A40000046397E7009377F50137459C1CCDB78C
:1023B4002165130505D0828037E700E01C435443B0
:1023C400A183E206D58F1CC1FD572320F7182322D1
:1023D400F7180F100000828013178500B7E700E09C
:1023E40023A0E710618123A2A7108280B7F700E041
:1023F4008847CC478280814737370040A14663C471
:10240400C700328582800345B740E38EA6FE33853C
:10241400F5000345050085072304A740CDB797F7CA
:10242400FF1F9387E7319C43172700201307479525
:102434003E95636EE500174700201307671C636829
:10244400A70017F7FF1F232DA72E3E858280FD5777
:10245400EDBF411122C406C62A84393F2947B30778
:10246400E502B2408D83B3D7870222449507B3D7E0
:10247400E70237370040C207C1832316F740410102
:102484008280716541111305052006C6D937B73717
:102494000040130770F82381E7400D47A381E7400C
:1024A40013070004A380E74005472387E740B240B1
:1024B4004101828011456FF02FD841119396250078
:1024C400AA852D4506C697E0FF1FE780A001B2400C
:1024D400014541018280011122CC06CE371400400F
:1024E40026CA4AC84EC652C483447405034AB40576
:1024F4008349840503499405EFF0EFAE8347A405AF
:1025040093F4F40F137AFA0F93E71700230DF404EE
:1025140093F9F90F1379F90FB717004003C7A7050B
:10252400058B6DFF03D5C705A38D4705238C3705A0
:10253400A38C2705A38B9704F2406244D2444249FA
:10254400B249224A0561828041119397050122C450
:1025540006C6C1872E8463DD0700EF20400819C139
:10256400EF10D07B2165218DB2402244410182804D
:1025740093F7150013C51500E5FB93F7250013C564
:102584002500FDF39397250163D00702EF30804ABD
:10259400153737F60200130606E0896503C5C181C5
:1025A400EF2060370965C1B7939715010145E3DD55
:1025B40007FA17850000130565D7EF60303213065C
:1025C4000064916503C5C181EF20E034116561BFEA
:1025D4002D71232A9110FD74E98C232C811023285A
:1025E4002111232631112A84AE89328993060010E1
:1025F4000A86A6852D45232E111097E0FF1FE7803C
:1026040060EE1315440151810A0513962900CA8509
:102614000A9597E0FF1FE780C030A68585660146CE
:10262400254597E0FF1FE780E0EB0A86A685930621
:102634000010294597E0FF1FE780C0EA8320C111FD
:102644000324811183244111032901118329C11019
:1026540015618280B7F7070003C70701411106C659
:1026640022C426C24AC0A547631AF7009537B24070
:102674002244924402490145410182801394250079
:10268400AA843289A286AA850146254597E0FF1FC0
:10269400E78040E5A2864A86A685294597E0FF1F84
:1026A400E78040E4E9B71D714946978500009385AA
:1026B40065C317850000130525E586CE97E0FF1F47
:1026C400E780202D01E9178500001305E5C2EF60BE
:1026D400F02001A0B7F600E0795798CAFD57DCCA8C
:1026E4000567B7E700E023A0E7101306F00290C2E5
:1026F40023A0E7180F10000017E7FF1F1307076F49
:1027040023ACE1804157A38AE740130600048145C6
:10271400080897E0FF1FE780A02497F7FF1F93871F
:1027240067083EC8896793870780231AF1009D676D
:102734003ECCB7070105938707103ECEED47231023
:10274400F10285472301F10297070000938727D7F9
:10275400BEC297070000938727F0BEC4856793879E
:1027640057D12312F10297070000938767C83ED818
:10277400B7F5070097070000938727D63EDC81460C
:1027840097070000938747D33000E10519453EDEE3
:1027940097E0FF1FE78000D518088147994630006D
:1027A4003E960346060085070507A30BC700E3987A
:1027B400D7FEC24791C70357410185676373F7008A
:1027C40001A08307410263D7070493078008F3B786
:1027D400078093F787083EC40F100000B717004026
:1027E400130770052380E704130780FA2380E704A6
:1027F4000F100000B847B706100013670718B8C7D2
:102804009853558F98D323800704A247F3A70780D2
:102814000F1000000808EF20E05DAA8501C91785A4
:1028240000001305A5AEEF60207701A0F6402561F6
:102834008280411117050000130545D106C622C444
:10284400EF2080571384C1812300A4001928034575
:1028540004002244B24013060032896541016F200E
:10286400800B797106D613078008F337078093F736
:1028740087083EC20F100000B7170040930570058B
:102884002380B704130680FA2380C7040F100000C6
:1028940083C6F70293F6A60FA387D7022380070403
:1028A4009246F3A606800F10000073370780137753
:1028B40087083AC40F1000002380B7042380C7049C
:1028C4000F10000003C7F70213672700A387E7026E
:1028D40023800704A247F3A707800F1000000545D3
:1028E400EFE0BFF3C13E8147014781460546854578
:1028F4001305407EEFE05FF768005146814597E09D
:10290400FF1FE780E005B707C0A83EC8B787E80304
:10291400938707D03ECA680097E7FF1F9387A7AA4B
:102924003EC6EF202072B2504561828041111305EA
:10293400800406C697D0FF1FE78020773717004032
:102944008327870A8D451305002093E70720232456
:10295400F70A41323D36178500001305659DEF6087
:10296400E07717850000130525BAEF602077253B33
:10297400C935EF40B04499217929EF00807097E080
:10298400FF1FE78020A703485500834745000347FE
:102994003500834625000346150083450500178549
:1029A4000000130565A06F60205F79719707002010
:1029B4009387475F22D452CC56CA06D626D24AD031
:1029C4004ECEAA8A01443E8A2147D44395CA0504BF
:1029D400A107E31CE4FE178500001305E59FEF60E3
:1029E400E06F014551A03E8983270900EDFF1DA832
:1029F400894503C5D18223A4F182EF10506885A0D4
:102A0400138505011375050F09052EC6EF10303621
:102A1400AA84B24569D19387818203A90700BE893C
:102A2400E31409FC3387BA008347F7FF13861500C4
:102A34001376F60FAD8F2300F700A380B4005685FC
:102A440093852400EF00606A03A7090005050E04BE
:102A54002380A400B3078A0041DF2320F9005294A5
:102A640044C0232004000545B25022549254025914
:102A7400F249624AD24A45618280011106CE22CCD3
:102A840026CA8D476307F502C5476305F5008547E8
:102A94006319F50E37060001854791457D1603C578
:102AA400D1822387F182EF10907D914503C5D182B5
:102AB4009DA8D5E5034516008547B2841377F50034
:102AC400631AF708C14763F7A7088347260063F32F
:102AD400A708EF10D0292A843DC503C61400930526
:102AE4001500138534007D161376F60FEF0060672A
:102AF40083C72400B306F40003C7060083C6160088
:102B04003D8F6398E6022300F40017850000130547
:102B1400A582EF60A05CA28503C5C182EF1070346A
:102B2400854503C5C1826244F240D24405616F10F9
:102B34001055178500001305E580EF60205A2285A3
:102B4400EF10D01DF1BF178500001305E580EF607D
:102B5400E058F9B71785000013054581CDBF93F7F9
:102B6400150089CB178500001305C5802EC6EF60BC
:102B7400E056B2458989CDD51785000013054580F7
:102B8400F9B7F2406244D24405618280411122C403
:102B940006C626C293F725002E84A1CF83C741829F
:102BA400850793F7F70F09476362F7042382F182DD
:102BB400EF40203903C7418297870000938707B00D
:102BC400BA9703C50700EF4030129306F00F1306BF
:102BD400F00F81450145EF3090251375C4FF420580
:102BE4004181B24022449244410182802382018285
:102BF400C1B793F7150091CFEF40A0349306F00FBF
:102C04001306F00F81450145EF307022134514007F
:102C1400C9BF93970501C1870145E3D407FC03C5E8
:102C2400C182EF10D01BAA8419C98345050005058C
:102C3400EF00E06A2685EF10700EEF00406E21650C
:102C4400218D45B7011122CC06CE26CA93F7150073
:102C54002E8481CF97E0FF1FE78060BF13451400E7
:102C6400F2406244D2440561828093F725008DCB03
:102C7400EF10D0391376F5001506B28517750000EC
:102C84001305857932C6A3820182EF60E0303246B3
:102C9400914503C5D182EF10905E13452400C9B756
:102CA40093F74500638C070E83C751820947636419
:102CB400F7089DE3370600017D16894503C5C182E7
:102CC400EF10F05B894503C5C182EF10F03F8545E5
:102CD40003C5C182EF10503F83C751828507214647
:102CE400914503C5D182A382F182EF105059EF4080
:102CF400402503C75182978700009387279CBA9782
:102D040003C50700EF40407E2387018293878182B9
:102D14009C439306F00F1306F00FC8438345050048
:102D24000505EF30806909E597D0FF1FE780206D26
:102D34001345440035B783C761828507894503C5B8
:102D4400C1822383F182EF1090334146894503C544
:102D5400C182EF10D05203C76182854763E8E70060
:102D6400894503C5D182EF10903105A023830182E8
:102D7400938481829C40C843EF10407A9C4023A2F4
:102D840007009C4323A4F182E1FF370600017D166E
:102D9400914503C5D182EF10904E59BF9397050119
:102DA400C1870145E3DE07EA03C5D182EF10300392
:102DB40019C1EF10A0762165218D5DB579711306D7
:102DC400000281450A8506D697E0FF1FE78040B9D7
:102DD400B7772617938727163EC4B75755009387AE
:102DE40057553EC623820182856793870780231047
:102DF400F1000A8597070000938767C83EC8EF3043
:102E0400C041AA85177500001305C558EF60C018A6
:102E1400B25045618280797171468145480006D679
:102E240022D497E0FF1FE780A0B397070020938781
:102E3400E7213EC497070020938787653EC897071C
:102E440000209387271A3EC693070002231DF10032
:102E5400856793874780B7F50700231EF1008146F5
:102E640085475008E105177400001304E457194519
:102E7400230FF10022C297D0FF1FE780A0664C0009
:102E840017F5FF1F1305C5800D269377F50FBDCFEA
:102E94003E86A2851775000013054556EF60C00FE6
:102EA400170500001305C5CEEF1010712386A1820B
:102EB40017050000130545D9EF1010701306000222
:102EC4008545A386A182EF10903B1306000481453B
:102ED400170500201305050D97E0FF1FE78040A8A4
:102EE40023830182EF40E0059306F00F1306F00FF1
:102EF40081450145EF30A0734146894503C5C18230
:102F0400EF10F037B250225445618280A2851775C4
:102F140000001305A54FEF60200859B7411106C6FC
:102F24002529B240AA8517750000130525514101D2
:102F34006F608006411106C60521B240AA85177547
:102F440000001305255941016F600005397106DE43
:102F54002ECE22DC26DA3284B6844AD84ED6AA890A
:102F6400EF00006E1379F50F4E85FD26F24526C05D
:102F7400977900009389895583C8550003C8450093
:102F840083C7350003C7250083C6150003C60500A3
:102F9400AA85177500001305E54BEF50F07F034831
:102FA4005400834744000347340083462400034607
:102FB400140083450400A688177500001305054D09
:102FC400EF50907D1705002013058576852B177526
:102FD40000001305254FEF50307C01449704002076
:102FE400938404759377F40F63ED27012945EF501B
:102FF400B07EF2506254D2544259B259054521610F
:103004008280B387840083C507004E850504EF5092
:10301400B078C9BF411122C406C693F715002E84A7
:10302400B9C3177500001305E540EF60200B930545
:10303400800C170500201305257C49211715002055
:1030440013050588EF00503E05661306062C8545DA
:1030540003C5F182EF10300C93471400B2402244B0
:103064003E85410182801397050141878147E357DB
:1030740007FEEF10C05619C1EF10404AA167A18F97
:10308400F1BF411117050000130505F906C6EF103D
:10309400B052A387A1828147170600201306C67584
:1030A4001307800CB306F6002380F6008507E39B24
:1030B400E7FE130620039305900897780000938891
:1030C400A8361308200381470D47854617050020BD
:1030D4001305057FEF00B045B24003C5F182130626
:1030E4000064854541016F101003397152D4131ADD
:1030F400060122DC26DA4AD856D25AD05ECE06DE43
:103104004ED6AA8A2E8BB2840144BD4B17E9FF1F09
:1031140013098959135A0A0133868440B3858A00F6
:10312400B3098B0063CDCB020A8597D0FF1FE780DC
:10313400407F4E868A85410442044A854180EF20BF
:10314400C043E36B44FD2285F2506254D254425989
:10315400B259225A925A025BF24B216182804E8606
:10316400D9BF011122CC26CA4AC84EC652C406CEC3
:10317400AA892E8A014417E9FF1F1309E952B28470
:1031840033068A00B3858900410442044A8541809C
:10319400EF200042E36694FE2285F2406244D2446A
:1031A4004249B249224A056182801C45411122C428
:1031B40006C626C24AC00944C9CF1C491144D1CB12
:1031C4005C450D44D9C71C411544C1C75C41194431
:1031D400C9C31389050123A8A182AE844A859775C2
:1031E40000009385E54D59222A843DE94A85512AF8
:1031F400938701839C4388404D469C4B9775000000
:103204009385852E829739CD03C5840131CDCC4079
:10321400A1CD93F73500A9EB692903C5940139C5FC
:103224008C44A9C593F73500B1E3EF00407003C5A2
:10323400A401EF0030011924C52BEF009030CC44D9
:1032440089C903D5640111C593F7350095E3EF10DF
:10325400E01B2285B240224492440249410182800B
:103264001D44C5BF0544F5B72144E5B72544D5B78A
:103274002944C5B7411122C406C626C24AC083C721
:1032840041832A8481E78547238AF182054583C5E2
:103294004183D12E9387418383C707002285850705
:1032A400238AF182EF00904B01E90145B2402244A8
:1032B4009244024941018280B924938701839C434B
:1032C4008443BD262A8941269375F50F4A85829445
:1032D4008547E31CF5FC2285992A0545C1BF0111E8
:1032E40026CA2EC606CE22CCAA84892AB2459307C2
:1032F400C00E1306C00E63E4B70013F6F50F328553
:1033040032C6212E938701839C438047112E324677
:1033140022836244F240A685D244056102834111AE
:1033240006C622C426C2EF00F02115C12A84154521
:10333400BD26AA84054589269375F50F2685912D0A
:1033440019E522852244B2409244410175A8B24055
:103354002244924441018280034585008280938700
:1033640001839C43194603A3870002839387018347
:103374009C43411106C69C4B19468297B2404101B9
:103384008280411122C4138401831C4026C206C6D4
:103394009C4B19469775000093858532AA848297C1
:1033A40009ED1C402244B24003A38700A685924441
:1033B40019461385418041010283B240224492445C
:1033C40041018280011122CC06CE2A8432C6EF004C
:1033D400F06332462285F24050C46244977500007F
:1033E4009385852E05616F009060411122C497E595
:1033F400FF1F938525352A84154506C67924228521
:103404002244B2404101BDB5011122CC2A841545A4
:1034140006CE7124AA85280099375C449C4381C751
:103424002C0022858297F2406244056182805C45CB
:1034340003A347006303030002838280239F018266
:10344400239E01829307400241112380F184970750
:1034540000209387675206C623ACF18297070020A9
:103464009387876023A0070023A207002394070003
:10347400977500009385C524170500201305054C96
:10348400F93D977500009385A523170500201305C2
:10349400454BF1359775000093858522170500206B
:1034A4001305854A6D3DB24097750000938545210B
:1034B400170500201305A549410155B5011122CC7A
:1034C4002AC62EC406CE26CA953FA2459307800C71
:1034D40032451304800C63E3B7002E849387018381
:1034E4009C4313878183931404019C47AA85084352
:1034F400C18026868297F240239E8182624426857B
:10350400D2440561828003D6E18319CE03D7C183F7
:103514001307470297070020938707469306400244
:1035240063C5E600239F01828280B385C70083C5FB
:10353400050085068507A38FB7FEDDB7411122C4B8
:1035440003C70184130440023306E44083D7C183D4
:1035540006C626C24AC0B2979306C00E63CCF604D0
:103564001389018383270900970500209385853EED
:10357400BA959C47AA84829703270900938781837D
:103584008C43184783C70184B307F44083D6E1838F
:103594003385F40003D6C183B695029703C501842D
:1035A400098C03D5C1832295B24022449244024936
:1035B400410182800145CDBF03C70184814663492F
:1035C400A70293074002998F93F7F70F99E383C7F4
:1035D400E18383D6C183B697C207C183AA97130632
:1035E400C00E81466346F600098F2380E184854638
:1035F4003685828083D7C18363CFA700420503D772
:10360400E18341812A973385A740239EA182239F8A
:10361400E1820545828001458280239EA1828280C9
:1036240003D5E18397070020938707353E95828071
:1036340083C70184170500201305C5313E95828098
:1036440003D5C183828083C70184130540021D8D85
:103654001375F50F19E103C5E18383D7C1833E9543
:103664004205418182800605970700209387C73F62
:10367400AA972390B70082800605970700209387B6
:10368400A73EAA9703D50700828099476D15330595
:10369400F502970700209387672A3E95C9B1994799
:1036A4006D153305F50297070020938727293E956A
:1036B400828093060011B306D5022E86AE96AA85A3
:1036C40017E5FF1F130545FF71AA411117E5FF1FF9
:1036D400130585FE22C406C626C2F1222A8415C912
:1036E400B13D938401839C402316A40E29469C4734
:1036F40097050020938545371305E40E82979C4077
:10370400614697050020938565239C471305840F24
:1037140082972285B2402244924441018280411121
:1037240022C4AA852A8417E5FF1F1305E5F806C6F7
:10373400C52211C9A2852244B24017E5FF1F130513
:10374400A5F7410149AAB2402244410182804111B6
:1037540022C4AA852A8417E5FF1F1305E5F506C6CA
:1037640026C24AC075223DC18354C40EC139930791
:10377400C00E268963F497001309C00E9384018355
:103784009C401387818308439C4713160901A28533
:1037940041828297239E21839C409305E40E29460F
:1037A4009C47170500201305252C82979C40930500
:1037B400840F2244B2409244024903A38700614625
:1037C400170500201305851741010283B2402244E6
:1037D4009244024941018280411122C4AA852A846B
:1037E40017E5FF1F130545ED06C61D2211C52285E9
:1037F400B2402244410182800145DDBF0355C50E1C
:10380400828015C1970700209387C7269843BA87FB
:1038140099E79707002023AFA72418C18280638407
:10382400A7009C43F5B782809707002023A40724B0
:1038340082800DC1170700201307C7231C4399CBAF
:103844006397A700944314C323A0070082803E8794
:103854009C43F5B7828011C550C514C90CC54CC131
:103864004DB78280411126C2938401839C4022C4B7
:1038740006C6DC472A8410C52311B5002E8654C120
:103884008145368582970356040083572400984067
:1038940008443306F6022244B24092440323C7008C
:1038A40081454101028383562500814763C4D700C3
:1038B4000145828058413E970306070019EA854670
:1038C4002300D700035705000845B307F7023E95C8
:1038D40082808507E1BF184583562500814763C46C
:1038E400D7007D5582806310B70258413E97830606
:1038F40007006355D000FD162300D7005841BA973E
:103904000385070082800356050085073297C1BFEF
:103914001C4563ECF50003572500035505003305EA
:10392400A7023E9533B5A50082800145828001112E
:1039340022CC2A841385418406CE2EC6EF00F02FB4
:10394400B146B306D4023246A2856244F24017E57A
:10395400FF1F130525D70561B29629B7411126C269
:10396400AA841385418406C622C4EF00702D2A84DC
:1039740019E52285B2402244924441018280930594
:1039840044002685EFF09F9E6DF52285EF00F0340C
:10399400F9BF01114AC82E8997750000938545D255
:1039A40052C406CE22CC26CA4EC62A8AEFF01F9CE9
:1039B40041E983C711848549AA8463EFF9065285D6
:1039C400713F2A8419CD8347A500639A270585444E
:1039D400F240624426854249D244B249224A0561F2
:1039E400828083C711846394370517E5FF1F13058D
:1039F40065CD553D2A8419E513854184EF00702572
:103A04002A8471D593094400D2854E85EFF03F9501
:103A1400938701839C43DC4B99C34E85829723058E
:103A24002401A28513854184EF00502955B78D44A4
:103A3400C5D32305000002900947E392E7FE49BF7E
:103A4400894479B70947AA876373A7008947A38084
:103A5400F18482801C5903A347006303030002839B
:103A640082801C5903A387006303030002838280BE
:103A74001D71D6C2938A018383A70A00A6CA86CE83
:103A84008447A2CCD2C4DAC02A842EC6CAC8CEC601
:103A94005EDE62DC66DA6AD86ED65936AA852146BD
:103AA40028088294034BF1010D312A8A2145EFF055
:103AB4007FB41C589C436385071497E5FF1F9385C7
:103AC40065C82808834BE101EFF05F8A631A051289
:103AD4001309F4038149814C9304F00F014C130D35
:103AE400F00FFD5D834609006382A6116394A40D63
:103AF400930599FF2808EFF07F874DCD2300090037
:103B0400E28493071C0013FCF70FA1472109E31B70
:103B1400FCFC9D4763EC970E8E04A29483C7E403D8
:103B24008346840763EA770D338677416355D6006D
:103B340063980B0CF1C7238F74031C58B245DA86C3
:103B44009C4330082285829745CD63060A0452853A
:103B5400FD3E5285E93683A70A008447EFF05FAC47
:103B6400AA852146280882948347A4076375FB022B
:103B74008347F1018507A30FF10083A70A00844757
:103B8400EFF01FAA21462C0882944C589D4601460A
:103B94002285EF00007CF6406644D6444649B64987
:103BA400264A964A064BF25B625CD25C425DB25D89
:103BB400256182808346090093070008850693F6F1
:103BC400F60F2300D90063FCD70097750000938596
:103BD40025AF130599FFEFF08FF82300B901834651
:103BE4000900E3F0DCF2E289B68C21BFE38BACF18F
:103BF400E289930CF00F31B7B387FB40E3CDD7F2E2
:103C0400E30B0AF85285EFF09FB171B71385790081
:103C14000E058E09A2992C082295EFF04FF4238FFC
:103C24007903A38F090211BF411122C42A842145BB
:103C340006C626C2EFF05F9829C1EFF07F9F97E593
:103C4400FF1F938525B0AA84EFF06FF18347940793
:103C54002383F400850793F7F70F91CFA30CF406A1
:103C6400A38304004C5822852244B24092449D46CA
:103C740005464101F9AD8547D5B7B2402244924487
:103C840041018280011122CC26CA4AC84EC606CE02
:103C9400130485039304850797790000938949A247
:103CA4007D592285CE85EFF08FEB2104230F04FE8E
:103CB400A30F24FFE31794FEF2406244D244424926
:103CC400B24905618280011126CA4AC8BA84328980
:103CD40017770000130787823686BE8642C646C41D
:103CE40006CE22CC2A84252D2285693FA248A30C26
:103CF400040632482328140391E08544230D9406D6
:103D0400232A2403854763EB07018947230CF40620
:103D1400F2406244D2444249056182809307F00F25
:103D24006314F800F957DDB7230C0407D5B701C9AC
:103D3400411106C6493FB240054541018280014513
:103D440082805DA1397126DA06DE22DC4AD84ED69D
:103D540052D456D25AD05ECEEFF09F8CAA84094535
:103D6400EFF05F8911ED01442285F2506254D25480
:103D74004259B259225A925A025BF24B2161828013
:103D840003C5040061292A8479DD0347950083C7AC
:103D94001400E31AF7FCEFF0BF88834794002A89E4
:103DA40013F577003335A0008D833E95EFF09F84A3
:103DB4005DD9032B4400814B91499D44A14A03459D
:103DC4000B005DD113D73B404A97034A1B0093F67F
:103DD4007B008347070063F3A90C63C944030347CB
:103DE4001700A207D98FB397D700A18793F7F70FCE
:103DF40033874A41B3D7E7402304F10003450B005E
:103E04002C00EFF09F88D29B090B55BF13563A4004
:103E14009DEAB307D70083C507003C00B69723800B
:103E2400B7008506E3C7C6FE93777A00E1DB3297D5
:103E3400034707001408B387FA403696B357F74090
:103E4400230CF6FE65BF3A8581453C003388B700F4
:103E540083470500834815008505A207B3E71701CA
:103E6400B397D700A1872300F8000505E3CFC5FC6D
:103E740093757A00C1D532971C083E968347070094
:103E840003471700B385BA40A207D98FB397D70069
:103E9400A18793F7F70FB3D7B7405DB72314010099
:103EA40063C6440303471700A207D98FB397D7000B
:103EB400A18793F7F70F33874A41B3D7E740230429
:103EC400F10083558100EFF00FFA35BF13563A40E5
:103ED4009DEAB305D70083C505003C00B69723804F
:103EE400B7008506E3C7C6FE93777A00F9DB3297FD
:103EF400034707001408B387FA403696B357F740D0
:103F0400230CF6FE7DBF3A8881453C00B388B70098
:103F140083470800034318008505A207B3E7670039
:103F2400B397D700A1872380F8000508E3CFC5FC29
:103F340093757A00D9D532971C083E9683470700BB
:103F440003471700B385BA40A207D98FB397D700A8
:103F5400A18793F7F70FB3D7B7405DB7397122DC68
:103F640006DE26DA4AD84ED652D456D25AD05ECE7F
:103F740062CC66CA2A84034585004D246300A402EA
:103F84000145F2506254D2544259B259225A925ABB
:103F9400025BF24B624CD24C216182800346940056
:103FA40093747600B33490000D82B2941385240088
:103FB400EFF08FE071D5EFF0AFE783478400814CD9
:103FC400914A2300F500834794001D4A214BA30026
:103FD400F500EFF0EFE5938701839C4393092500F7
:103FE4002686DC4781454E858297032C4400C14BCD
:103FF40003450C0019E1054569B713D43C40034956
:104004001C004E9493F47C0063F7AA0EEFF02FE9A2
:1040140063492A0383470500B3849B40B384244146
:10402400B39497009397040103470400C183A183C9
:10403400D98F2300F40083471400DD8CA30094007F
:10404400FDA013573940B1E8B307950083C60700B4
:10405400B307940085042380D700E3C7E4FE937676
:104064007900F1C63A95834705003A943307DB405B
:10407400B3D7E740B386DB40B397D7001397070164
:104084008346040041832183558F2300E4000347C2
:104094001400D98FA300F40059A8A2878145B3085E
:1040A4009B40B306B50083C6060003C80700850518
:1040B400B3961601139606014182218233660601E6
:1040C4002380C70003C617008507D18E2380D7003D
:1040D400E3C9E5FC93767900B9CA3A9583470500AC
:1040E4003A943307DB40BA94B3D49740B386DB40A9
:1040F400B394D40005BFEFF02FD82317A100634B6E
:104104002A03B3849B40B38424411375F50F3315FC
:104114009500931705010347040083441400C183E9
:10412400A183D98F458D2300F400A300A400CA9C69
:10413400090C7DBD9357394095EC9306E100A69692
:1041440083C606003307940085042300D700E3C622
:10415400F4FE1377790061DF14083E94B69783C7A1
:10416400E7FFB306EB403387EB40B3D7D740B397B1
:10417400E70029B72287814533089B409306E10075
:10418400AE9683C60600034507008505B39606016F
:104194001396060141822182498E2300C7000346FB
:1041A40017000507D18E2300D700E3C9F5FC137768
:1041B400790035DF14083E94B69783C7E7FFB3064A
:1041C400EB40B694B3D497403387EB40B394E40008
:1041D40091BDAA87014503C7070011E3828003C785
:1041E400170089073A95C5BF13858184B9A411CDF9
:1041F400411122C406C62A844CC02E85D93FA3048B
:10420400A400B24022444101828082802304B5008C
:1042140023150500AA8513858184ADAC411122C400
:104224002A841385818406C6212C09E5B2402244E0
:104234004101828083478500E38A87FE792CF5B7A4
:104244001C4903A3470063030300028382801C55B7
:10425400011122CC26CA06CE4AC84EC62A84AE8490
:10426400BDC3EFF0EFBD2A890854EFF02FD9631CCA
:10427400A904938701839C4303A90701EFF04FBA74
:10428400AA890854EFF04FD50346C402AA854E8587
:10429400029915C98347E4020347D402850793F7BB
:1042A400F70F2307F40263E0E7020854EFF02FC787
:1042B4001305440123240402EFF0AFD71C489C47A4
:1042C40099C3228582971C4803A30700630B03004C
:1042D40022856244F2404249B249A685D24405612E
:1042E4000283F2406244D2444249B2490561828069
:1042F400411122C42A84085506C611CDEFF02FC5FA
:104304000854EFF0CFC12285232404022244B24092
:1043140041016FF08F8DB24022444101828001112E
:1043240026CAB284176600001306863A22CC06CE4B
:104334002A8436C63AC4EFF0EF88B2462247A30671
:104344009402A307D40218C8F2406244D24405611F
:104354008280011122CC2A84085526CA4EC652C432
:1043640006CE4AC8AE84B289368A05C58347F402AC
:10437400A1EBEFF08FB52A89085463030904EFF029
:104384000FBD0854EFF0AFB92285EFF00F86232458
:104394002403230704022306440363950900854785
:1043A40063EB97021C5422858DE7EFF00F840545DB
:1043B400F2406244D2444249B249224A05618280B1
:1043C400EFF0EFB51305440123240402EFF06FC6A8
:1043D400C9B7393FE9BF938701839C438580DC4398
:1043E4008297337595021C54AA9481CFA28617062E
:1043F4000000130626F0A68513054401EFF0AFC5AF
:104404007DB7EFF08FAC08D445D5CDB7011122CCE0
:104414002A841385C18406CE2EC60520D146B30650
:10442400D4023246A2856244F24017D5FF1F130519
:10443400252A0561B2966FF0EFC223200500828021
:1044440008418280084119E182803E851C41F5FFC4
:1044540082801C4189C7984311E7232005003E85CB
:104464008280BA8798431443EDFE23A00700BA87DD
:10447400FDB71C41814699E7828098C209A8BE868F
:1044840065DFBA879843E39CF5FEE5FA18C123A0DB
:1044940007008280411122C426C206C6AA842E8443
:1044A400C93F268523200400713F19E580C0B2402E
:1044B400224492444101828000C1D5BF411122C4EB
:1044C40026C206C62A84AE846D371C40B2409CC006
:1044D40004C0224492444101828011C10841828077
:1044E40023AC05FE1C4191E7010001000CC1828050
:1044F400BA8703A787FF6DFF23ACB7FE82801841FC
:1045040083A785FF6319B7001CC1FD5723AC05FEC3
:10451400238FF5FE8280232CF6FEC5BF411122C4F1
:1045240037E400E026C204403707200006C6F98CB1
:104534002320E4180F10000009E9232094101545E6
:10454400B24022449244410182800347E5FF93072D
:10455400F00F6306F700232094101145D5B797D0C8
:10456400FF1FE7804002014523209410D1BF411171
:1045740026C2B7E400E04AC003A90400B70720003C
:1045840006C622C43379F90023A0F4180F100000E2
:1045940009E923A02411B240224492440249410172
:1045A40082809565938505D0C98D2A842105C2052D
:1045B4004205C181418197D0FF1FE780A0ED01CD65
:1045C400FD5723200500231285002303F50023A0B3
:1045D40024112105C9B723A0241101456DBF011180
:1045E400B7E700E04AC803A907004EC63707200012
:1045F40006CE22CC26CAAA893379E90023A0E7187B
:104604000F10000097F7FF1F9387074880438144EA
:10461400014611E491E8A1654E85E92905A0834787
:10462400E4FF6399370385CCA68517F5FF1F1305AF
:10463400A545F1356DD0A1654E859124F2406244C3
:10464400B7E700E023A0271126854249D244B249A6
:104654000561828091E02286032484FF5DBFA284E9
:10466400E5BF41114AC037E900E022C40324090030
:104674003707200006C626C2798C2320E9180F10BC
:10468400000089E523208910154515A0AA8497F711
:10469400FF1F83C7B73F2E8563F5F400894763EE98
:1046A4009700AD3DB7E700E023A087100D45B24069
:1046B4002244924402494101828083A785FF99E7FD
:1046C40003C7E5FF9307F00F6308F700813DB7E7E1
:1046D40000E023A087104DBF238F95FE17F5FF1F21
:1046E4001305853AF53BA1652685512A014523200A
:1046F400891075BF97F7FF1F23A80738828097F7A3
:10470400FF1F9387E73D9C4399E33E85828003D74F
:1047140027006316B70003C70700E308A7FEDC47BA
:10472400E5B7A5C1011106CE22CC26CA8147C146F0
:1047340033D7F540058B29C312053E953147330520
:10474400E50217F7FF1F1307E73D0443054433143D
:10475400F4002EC642044180AA949C40C84082972B
:10476400B24523A0040023A20400A18DF2406244B8
:10477400D2442E85056182808507E39BD7FA0144E4
:10478400EDB72E858280C9C1797122D406D626D28E
:104794004AD04ECE01444147B3D78540858BA5C34B
:1047A4001205314722953305E50297F7FF1F9387DA
:1047B400673703A907008544B3948400C204C18009
:1047C400BE892A990327090011C7032549002EC66B
:1047D4000297B24531473304E40283A709003E94AB
:1047E4001C4489E72320090023220900B2502254E3
:1047F400A58D02599254F2492E85456182800504A3
:10480400E31CE4F88144DDB72E8582804111B7E7CB
:1048140000E022C480433707200006C626C2798CF4
:1048240023A0E7180F10000097F7FF1F9387872B2B
:104834009C539384C18099C782979C403E9523A63C
:10484400A18039A097F7FF1F938707299C43EDF7B1
:104854008840B74703009387D73F3305F502B7A7CE
:104864002600938737ECB24092443E9523A6A1805C
:10487400B7E700E023A08710224441018280B7E714
:1048840000E09843B706200023A0D718758F0F10B7
:10489400000097F6FF1F83C6761F6373D50217F6D1
:1048A400FF1F1306A6239316150008423695835658
:1048B4000500D58D2310B50023A0E71001458280A3
:1048C40023A0E7100D458280B7E700E09843B706C0
:1048D400200023A0D718758F0F10000097F6FF1F34
:1048E40083C6D61A6375D50217F6FF1F1306061F73
:1048F40093161500084293C5F5FF369583560500B7
:10490400F58D2310B50023A0E7100145828023A074
:10491400E7100D45828079714AD037E900E026D24C
:1049240083240900B707200006D622D44ECE52CCE9
:1049340056CA5AC85EC6FD8C2320F9180F10000011
:1049440097F7FF1F83C79714637AF50097F7FF1F44
:104954009387871883AB070063970B00B7E700E0E2
:1049640023A09710A9A017FBFF1F130B6B1C832A0E
:104974004B00B74736FE938707C82E8A97F5FF1F6B
:1049840083D5851BBE9AB387C5022A84B289814622
:10499400B3B5C50213850732B337F50013060064B7
:1049A400BE95EF40E02563F0AA022320991001454B
:1049B400B250225492540259F249624AD24A424BAA
:1049C400B24B45618280829B97F5FF1F83D5C51644
:1049D400B38735032A89130600648146B3B53503CA
:1049E40013850732B337F500BE95EF406021B30756
:1049F40025013E8903274B0063E4A70063E4E70035
:104A04003389E740D2852285DD3909C9232425016C
:104A1400B7E700E023A09710054559BF936504F05C
:104A2400C205C181414597D0FF1FE780A0A619E9BF
:104A340097F7FF1F9387070B9C5B8DD3A2851145C6
:104A4400829729BF97F7FF1F938787099C4385E7C0
:104A540097F7FF1F23A6A7088547232605002324CD
:104A640025012311450123008500A300F50023221D
:104A7400050079BFBA87D84775FFC8C7F1BF0111D0
:104A8400B7E700E026CA844322CC4AC84EC637079B
:104A9400200006CE2A84AE893289F98C23A0E71837
:104AA4000F1000008D3D2285CE85EFF05FC52A846E
:104AB40005C597F5FF1F83D52508B387250313067E
:104AC40000648146B3B5250313850732B337F50077
:104AD400BE95EF40E01248C013351400F240624422
:104AE400B7E700E023A097104249D244B2490E052B
:104AF400056182800111B7E700E04AC803A90700F5
:104B040022CC4EC63707200006CE26CAAA892E8498
:104B14003379E90023A0E7180F100000EFF03FBE3F
:104B2400AA8419C123110500A2854E85713B97F70C
:104B3400FF1F83C7A7F5639B370197F7FF1F83D731
:104B440067F95D8C97F7FF1F239687F8B7E700E0B6
:104B540023A02711014591E01945F2406244D24453
:104B64004249B24905618280411122C426C217F428
:104B7400FF1F1304E4FB97F4FF1F938424F194486C
:104B8400584097F7FF1F938727F506C69C43639306
:104B9400E60882975440B74736FE938707C8B6970E
:104BA4003387A7003A856364F7006364D70033054D
:104BB400D74097F4FF1F9384A4F9DC5081CF97F773
:104BC400FF1F9387A70094433707CDFF7D179C46AB
:104BD400F98F9CC611E1484097F7FF1F938787F030
:104BE400DC53829719E5DC508DC3EF00B07BEF00F6
:104BF400701FDC5099CB97F7FF1F938727FD9843CD
:104C0400B70633001C47D58F1CC7B24022449244D8
:104C140041018280829794485840B387A6003E851C
:104C240063E4D700E3E7E7F83385E74059B7411178
:104C340006C697F7FF1F23ABA7EE0295B24097F77E
:104C4400FF1F23A1A7E6014541018280994763E93B
:104C5400B7008A0597F7FF1F938707E6BE9588C1BB
:104C6400828097F7FF1F23A1A7EC11C5854717F78B
:104C7400FF1F2302F7E6828041117146814517F533
:104C8400FF1F130565E306C697F7FF1F23AA07E472
:104C940097F7FF1F23AC07E897F7FF1F23AE07E240
:104CA40097F7FF1F238907E297F7FF1F23AE07E655
:104CB40097C0FF1FE780C0CA13068002814517F51D
:104CC400FF1F1305A5DC97C0FF1FE78060C9EF3005
:104CD400300297F7FF1F9387E7E003C5C70383C735
:104CE400D70385453E958D473305F5023905137580
:104CF400F50F97F7FF1F238CA7D899473305F502C3
:104D04001305052497C0FF1FE780C07817F7FF1F1E
:104D1400232AA7E059CD994717F6FF1F034626D744
:104D24003306F60281451306062497C0FF1FE78069
:104D340020C397F7FF1F9387E7DE9C4393870724DD
:104D440017F7FF1F2328F7D617F7FF1F034727D4AA
:104D54000A07BA9717F7FF1F2322F7D8EFF09F9996
:104D6400ED2697F7FF1F9387E7D4944397F7FF1F28
:104D740083C7D7D113972700369717060000130669
:104D8400C6A010C3138717001377F70F0A073697C7
:104D9400170600001306269910C3138737008907E6
:104DA40093F7F70F8A0797F5FF1FA381E5CEB69710
:104DB40090C3B2404101828097F7FF1F83C717CD8C
:104DC40017F7FF1F0347A7CC63F3E70217F7FF1F8B
:104DD400130747CE18439386170017F6FF1FA30740
:104DE400D6CA93962700369708C33E8582809307D8
:104DF400F00FE5BF1C416384071641777D8FB7062A
:104E040000208947631ED71403574500630A07141B
:104E1400411122C419462A849305F00F610506C680
:104E240097C0FF1FE780C0BB05478D476304E512A9
:104E34001C4481CB58589947630E0710185C630BC8
:104E4400071013060004814517F5FF1F130585C9D4
:104E540097C0FF1FE780C0B013060004A28517F5B2
:104E6400FF1F130525C897C0FF1FE78080AB97F786
:104E7400FF1F83D7E7C717F7FF1F1307A7C699E7D5
:104E84009307001097F6FF1F2394F6C697F7FF1FAA
:104E940083C727C691E7854797F6FF1F238BF6C480
:104EA40097F7FF1F83D707C591E7ED4797F6FF1FD5
:104EB4002392F6C497F7FF1F83C7B7C391E79547BB
:104EC40097F6FF1FA387F6C297F7FF1F83C7A7C2F2
:104ED40091E7854797F6FF1F238FF6C097F7FF1FCB
:104EE40083C777C199E78347F70097F6FF1FA38429
:104EF400F6C097F7FF1F83C737C081CF93F63700FB
:104F0400898317F6FF1F230DD6C097F6FF1FA389C9
:104F1400F6C097F7FF1F83C727BE91E7D54797F6DB
:104F2400FF1F238BF6BC8347640199E79307C003F3
:104F340097F6FF1F2383F6BC1C5791C7829797F7F8
:104F4400FF1F2399A7B4FD5717F7FF1FA30AF7CC38
:104F540025338147B24022443E85410182808947FE
:104F64003E85828001114EC697F9FF1F938949BC83
:104F740083A7090006CE22CC26CA4AC852C4829707
:104F840013090064B335250303DA89008146528688
:104F940033052503EF30D04697F7FF1F938707AFFC
:104FA400804FAA8401456306940233858440636E6E
:104FB400940003A5490052868146B335A9023305FE
:104FC400A902EF30F043018D269597F7FF1F23AB1D
:104FD40097ACF2406244D2444249B249224A056144
:104FE400828097F7FF1F9387E7AF985739CB41111A
:104FF40022C426C206C6BE84029717F7FF1F0357B2
:1050040067A92A8415CBBA876373A700AA87C20746
:10501400C183BA866373E400A286C206C182958FF7
:105024005147635BF700DC5491C38297EF009020F3
:1050340097F7FF1F239087A6B24022449244410170
:105044008280828097F7FF1F23AE07AE97F7FF1F7A
:10505400938747A9DC57011106CEAA8581C72AC6C2
:105064008297B245CDC19C410545D9CBDC41C9CB22
:1050740083D78500D1C783D7A500D9C3514617F577
:10508400FF1F1305E5AA97C0FF1FE780808997F7E4
:10509400FF1F238507AA97F7FF1F938767A99C43E0
:1050A40017F7FF1F232AF7A297F7FF1F83C7F7A459
:1050B4008DE79307805717F5FF1F0355E5A73305C1
:1050C400F50237460F001306062481468145EF306A
:1050D400303397F7FF1FA382A7A217F7FF1F0347D9
:1050E400D7A1A54763E7E700A94717F7FF1FA30662
:1050F400F7A017050000130525E7EFF05FB301459E
:10510400F2400561828097F7FF1F23AF079897C786
:10511400FF1F938787C917F7FF1F232BF7A07D571E
:1051240097F7FF1F23A8E7A0B7873200938727A12B
:1051340097F6FF1F23A2F6A097F7FF1F238007A06F
:10514400B7C7004023A4E726B9B7011122CC17F44E
:10515400FF1F13042499084406CE26CA4AC801E94D
:105164000545F2406244D2444249056182805C585C
:10517400E5DB185C75D77000854582971844B24703
:10518400E300F7FE9305E00417F5FF1F035545966A
:1051940097C0FF1FE780003017F7FF1F2328A79051
:1051A40061D117F6FF1F0356A6949305F00F97B02D
:1051B400FF1FE780E07A814417F9FF1F1309098D67
:1051C40097F7FF1F83C7E7920326090263C1F4021E
:1051D400328597C0FF1FE780003B014597F7FF1F0B
:1051E40023A6078C97F7FF1F23A4078C9DBF97F571
:1051F400FF1F83D5E58FB38795020844185C898126
:1052040085043E9508C2029765BF17F7FF1F130771
:10521400A7931C439306001094C3010001000100EE
:1052240001001C4323A00700834615000348250002
:10523400A2064208C29603480500C29603483500F8
:105244006208C29694D78346550003486500A206B7
:105254004208C29603484500C29603487500620896
:10526400C296D4D7834695000348A500A2064208F7
:10527400C29603488500C2960348B5006208C296E8
:1052840094DB8346D5000348E500A2064208C29693
:105294000348C5000345F500C2966205AA96D4DB0F
:1052A40083C6150003C52500A2064205AA9603C5B8
:1052B4000500AA9603C535006205AA9694CF83C655
:1052C400550003C56500A2064205AA9603C545001C
:1052D400AA9603C575006205AA96D4CF83C6950025
:1052E40003C5A500A2064205AA9603C58500AA9691
:1052F40003C5B5006205AA9694D383C6D50003C539
:10530400E500A2064205AA9603C5C50083C5F500BB
:10531400AA96E205AE96D4D3D443F59AD4C3D44323
:1053240093E61600D4C3944393E6160094C3BA8755
:105334009443D842058B59E3984E01452300E60077
:105344009843184F2183A300E6009843184F4183E4
:105354002301E6009843184F6183A301E6009C43B0
:10536400D84F2302E600D84F2183A302E600D84F8A
:1053740041832303E600D84F6183A303E6009853D7
:105384002304E60098532183A304E6009853418341
:105394002305E60098536183A305E600D85323064A
:1053A400E600D8532183A306E600D853418323079C
:1053B400E600DC53E183A307F600828001008DBF81
:1053C40017E7FF1F130747781C439306001094C385
:1053D40001000100010001001C43894694C3834677
:1053E400150003482500A2064208C296034805009A
:1053F400C296034835006208C29694D78346550086
:1054040003486500A2064208C29603484500C296B6
:10541400034875006208C296D4D7834695000348B2
:10542400A500A2064208C29603488500C296034816
:10543400B5006208C29694DB8346D5000348E500B4
:10544400A2064208C2960348C5000345F500C29669
:105454006205AA96D4DB83C6150003C52500A206FF
:105464004205AA9603C50500AA9603C53500620540
:10547400AA9694CF83C6550003C56500A2064205CB
:10548400AA9603C54500AA9603C575006205AA96A7
:10549400D4CF83C6950003C5A500A2064205AA96EB
:1054A40003C58500AA9603C5B5006205AA9694D3E0
:1054B40083C6D50003C5E500A2064205AA9603C526
:1054C400C50083C5F500AA96E205AE96D4D3D443AD
:1054D400F59AD4C3D44393E61600D4C3944393E615
:1054E400160094C3BA8798435443858AC9E6232097
:1054F4000700184F01452300E6009843184F218305
:10550400A300E6009843184F41832301E600984323
:10551400184F6183A301E6009C43D84F2302E600A1
:10552400D84F2183A302E600D84F41832303E6002A
:10553400D84F6183A303E60098532304E6009853ED
:105544002183A304E600985341832305E60098537E
:105554006183A305E600D8532306E600D8532183CC
:10556400A306E600D85341832307E600DC53E18316
:10557400A307F60082800100BDB7011122CC2A8462
:10558400354506CE2EC632C4612E97E7FF1F93879A
:10559400A75E984322853C4B93E707083CCB224601
:1055A400B245EFF09FC6F240624401450561828036
:1055B400011122CC2A84354506CE2EC632C48D264E
:1055C40097E7FF1F9387475B984322853C4B93E7FC
:1055D40007083CCB2246B245E533F240624401451C
:1055E4000561828097E7FF1F938747569C43B70660
:1055F4008000B70500829843FD15558F98C31307A3
:10560400F00F98DF13070005D8DBD857B7060080E2
:10561400558FD8D7D45717E7FF1F0347E74D131605
:1056240087011377F703ED8E6607558FD8D7618608
:1056340017E7FF1F130787599306A003184363DC7A
:10564400C600744F37060007D18E74CF37070200A7
:105654001307C72099A09306200263DAC600744F8B
:10566400370600F97D16F18E37060005F1BFB7063F
:1056740000F99385F6FF744F6945ED8E6355C500B7
:1056840037060003D1B7B7050001CD8E74CFE35FB1
:1056940006FA3707020013070721D8DF984B137760
:1056A40007FC1367E70098CB37E700E0D147A3096D
:1056B400F70497C7FF1F9387678793E717007CD783
:1056C4008280938701859C4399CB944BD04B98421D
:1056D400518F98C294439C479842D98F9CC297E7B4
:1056E400FF1F9387A74617E7FF1F0347074717E6E0
:1056F400FF1F1306664805489C431307E709144235
:10570400631E050388431365050888C3C84681776B
:10571400FD17E98FDCC60F1000001C42B70602001B
:10572400AD0594C7930600F817E6FF1F2304D6427D
:105734008A05BA958605ECD3C8C782808843137559
:10574400F5F788C3C8468177FD17E98FDCC60F10CB
:1057540000001C42B7060200A90594C7930600F88E
:1057640017E6FF1F2308D63E8E05E1B79387018510
:105774009C4389CFD44303A8870098423367070129
:1057840098C2D447DC4B9842D98F9CC297E7FF1F3D
:105794009387C73B05479C439505631EE5029843E1
:1057A4008E051367070898C3984F137707C01367CC
:1057B400A71398CF13078007A389E7009385C50330
:1057C40097E7FF1F23AEB73811C6060697E7FF1FFA
:1057D40023A8C7388280984392051377F7F798C3B4
:1057E400984F137707C01367271398CF1307F00751
:1057F400A389E700E1B7411106C617E7FF1F034776
:10580400A735A1476311F70497E7FF1F83C707373D
:10581400858B17E6FF1F0346963897E6FF1F83C65E
:105824000638BDC797E7FF1F93874737C8432DC185
:10583400834515000905EF00905F11C5854717E7FB
:10584400FF1FA30BF73017E7FF1F0347E730994704
:10585400631CF70097E7FF1F9387873FFC5F83C7AD
:10586400B70095CBEF20D06717E7FF1F0347C72E7C
:105874009D476312F70297E7FF1F9387673D83A74E
:10588400070983C7770081CBB24041016F20D04D17
:10589400814501454DB7B2404101828017E7FF1FA2
:1058A4001307872D1C43B44B93F6F68FB4CB944364
:1058B40093E6860094C39C438D83858B89C701003E
:1058C40001000100010097E7FF1F938727289443F5
:1058D4009C4293F7F7CF93E707109CC297E7FF1F0B
:1058E4009387C72E9043B706CEFFFD161C46F58F4F
:1058F4001CC61C4337070300B8CB938701859C4320
:1059040099CBD44390479842518F98C2944BDC4B27
:105914009842D98F9CC297E7FF1FA38E07228280EB
:1059240097E7FF1F938747259C439C438D8B638296
:1059340007104111B7E700E04AC003A9070026C2D7
:105944003707200006C622C4AA843379E90023A0BD
:10595400E7180F10000017E7FF1F0347D71F8D47F5
:1059640017E4FF1F1304C41E631BF70097E7FF1F10
:105974009387C7209C4B014681454545829719472B
:10598400639BE40497E7FF1F83C7171D99CB97E731
:10599400FF1F83C7671C6396970097E7FF1FA38DBC
:1059A400071A8347740021476318F7009307801090
:1059B40017E7FF1F2312F71A97E7FF1F238D07101E
:1059C400F13DB2402244B7E700E023A027119244FE
:1059D4000249410182809D47639FF40097E7FF1FBE
:1059E40083C79717DDDF17E7FF1F0347E7168D47C8
:1059F400E319F7FA5DB783467400630BD7000347D6
:105A040074006387E700834774002147E316F7FABD
:105A140097E7FF1F83C75714C5F38347740017E73D
:105A2400FF1F230BF712854717E7FF1FA306F71283
:105A340061B7828017E7FF1F0347F7119147630897
:105A4400F70C97E7FF1F938727109843B7C70040C9
:105A540093870730631DF70A0111354506CE22CC22
:105A640026CA4AC84EC66D3D97E9FF1F9389090EA1
:105A7400152AEF101039EFF0FFB683A7090017E9D4
:105A8400FF1F1309A914B7063300984397E4FF1FB7
:105A94009384840E370403001367070898C398435C
:105AA4001377F7CF98C398431377F7CF136707207B
:105AB40098C3032709001C47D58F1CC79C401307B4
:105AC4008455B8CBEF10104CEF20901EEF10B03E71
:105AD400EF10B04703A709001C4393F7F7CF93E7F0
